{
  "_format": "hh-sol-artifact-1",
  "contractName": "PolylottoKeeper",
  "sourceName": "contracts/Keeper.sol",
  "abi": [
    {
      "inputs": [
        {
          "internalType": "address",
          "name": "_randomGeneratorAddress",
          "type": "address"
        },
        {
          "internalType": "address",
          "name": "_polylottoAddress",
          "type": "address"
        }
      ],
      "stateMutability": "nonpayable",
      "type": "constructor"
    },
    {
      "anonymous": false,
      "inputs": [
        {
          "indexed": true,
          "internalType": "address",
          "name": "previousOwner",
          "type": "address"
        },
        {
          "indexed": true,
          "internalType": "address",
          "name": "newOwner",
          "type": "address"
        }
      ],
      "name": "OwnershipTransferred",
      "type": "event"
    },
    {
      "inputs": [
        {
          "internalType": "bytes",
          "name": "",
          "type": "bytes"
        }
      ],
      "name": "checkUpkeep",
      "outputs": [
        {
          "internalType": "bool",
          "name": "upkeepNeeded",
          "type": "bool"
        },
        {
          "internalType": "bytes",
          "name": "performData",
          "type": "bytes"
        }
      ],
      "stateMutability": "view",
      "type": "function"
    },
    {
      "inputs": [],
      "name": "owner",
      "outputs": [
        {
          "internalType": "address",
          "name": "",
          "type": "address"
        }
      ],
      "stateMutability": "view",
      "type": "function"
    },
    {
      "inputs": [
        {
          "internalType": "bytes",
          "name": "performData",
          "type": "bytes"
        }
      ],
      "name": "performUpkeep",
      "outputs": [],
      "stateMutability": "nonpayable",
      "type": "function"
    },
    {
      "inputs": [],
      "name": "polyLotto",
      "outputs": [
        {
          "internalType": "contract IPolyLottoRaffle",
          "name": "",
          "type": "address"
        }
      ],
      "stateMutability": "view",
      "type": "function"
    },
    {
      "inputs": [],
      "name": "randomGenerator",
      "outputs": [
        {
          "internalType": "contract IRandomNumberGenerator",
          "name": "",
          "type": "address"
        }
      ],
      "stateMutability": "view",
      "type": "function"
    },
    {
      "inputs": [],
      "name": "renounceOwnership",
      "outputs": [],
      "stateMutability": "nonpayable",
      "type": "function"
    },
    {
      "inputs": [
        {
          "internalType": "address",
          "name": "_polylottoRaffle",
          "type": "address"
        }
      ],
      "name": "setPolylottoRaffle",
      "outputs": [],
      "stateMutability": "nonpayable",
      "type": "function"
    },
    {
      "inputs": [
        {
          "internalType": "address",
          "name": "_randomGenAddress",
          "type": "address"
        }
      ],
      "name": "setRandomGenerator",
      "outputs": [],
      "stateMutability": "nonpayable",
      "type": "function"
    },
    {
      "inputs": [
        {
          "internalType": "address",
          "name": "newOwner",
          "type": "address"
        }
      ],
      "name": "transferOwnership",
      "outputs": [],
      "stateMutability": "nonpayable",
      "type": "function"
    },
    {
      "inputs": [],
      "name": "viewLatestRaffleId",
      "outputs": [
        {
          "internalType": "uint256",
          "name": "",
          "type": "uint256"
        }
      ],
      "stateMutability": "view",
      "type": "function"
    },
    {
      "inputs": [
        {
          "internalType": "address",
          "name": "_tokenAddress",
          "type": "address"
        },
        {
          "internalType": "uint256",
          "name": "_tokenAmount",
          "type": "uint256"
        }
      ],
      "name": "withdrawTokens",
      "outputs": [],
      "stateMutability": "nonpayable",
      "type": "function"
    }
  ],
  "bytecode": "0x608060405261012c6004553480156200001757600080fd5b50604051620019db380380620019db8339810160408190526200003a91620000ea565b600080546001600160a01b031916339081178255604051909182917f8be0079c531659141344cd1fd0a4f28419497f9722a3daafe3b4186f6b6457e0908290a350600180546001600160a01b039283166001600160a01b031991821617909155600280549390921692169190911790556200012d565b60006001600160a01b0382165b92915050565b620000ce81620000b0565b8114620000da57600080fd5b50565b8051620000bd81620000c3565b60008060408385031215620001025762000102600080fd5b6000620001108585620000dd565b92505060206200012385828601620000dd565b9150509250929050565b61189e806200013d6000396000f3fe608060405234801561001057600080fd5b50600436106100c95760003560e01c80636e04ff0d11610081578063c778c7161161005b578063c778c71614610184578063dcbad90d14610197578063f2fde38b146101aa57600080fd5b80636e04ff0d14610142578063715018a6146101635780638da5cb5b1461016b57600080fd5b806325f08c8a116100b257806325f08c8a1461010c5780634585e33b1461011c5780634bc19fee1461012f57600080fd5b806306b091f9146100ce57806322f524f7146100e3575b600080fd5b6100e16100dc366004610f2e565b6101bd565b005b6001546100f6906001600160a01b031681565b6040516101039190610fa1565b60405180910390f35b6003546040516101039190610fb5565b6100e161012a366004611015565b610208565b6100e161013d36600461105d565b61046b565b610155610150366004611015565b6104c4565b6040516101039291906110ec565b6100e1610b34565b6000546001600160a01b03166040516101039190611115565b6100e161019236600461105d565b610bb5565b6002546100f6906001600160a01b031681565b6100e16101b836600461105d565b610c0e565b6000546001600160a01b031633146101f05760405162461bcd60e51b81526004016101e790611155565b60405180910390fd5b6102046001600160a01b0383163383610cc6565b5050565b6000806102178385018561117d565b9150915081600114156102a9576002546040517fbc4db42e0000000000000000000000000000000000000000000000000000000081526001600160a01b039091169063bc4db42e9061026d9084906004016111f9565b600060405180830381600087803b15801561028757600080fd5b505af115801561029b573d6000803e3d6000fd5b505042600555506104659050565b8160021415610332576001546040517f2b5afd090000000000000000000000000000000000000000000000000000000081526001600160a01b0390911690632b5afd09906102fb9084906004016111f9565b600060405180830381600087803b15801561031557600080fd5b505af1158015610329573d6000803e3d6000fd5b50505050610465565b8160031415610384576001546040517f0441717b0000000000000000000000000000000000000000000000000000000081526001600160a01b0390911690630441717b906102fb9084906004016111f9565b81600414156103dd57600160009054906101000a90046001600160a01b03166001600160a01b031663242284f16040518163ffffffff1660e01b8152600401600060405180830381600087803b15801561031557600080fd5b8160051415610465576001546040517f74dc20810000000000000000000000000000000000000000000000000000000081526001600160a01b03909116906374dc208190610432908490600090600401611207565b600060405180830381600087803b15801561044c57600080fd5b505af1158015610460573d6000803e3d6000fd5b505050505b50505050565b6000546001600160a01b031633146104955760405162461bcd60e51b81526004016101e790611155565b6002805473ffffffffffffffffffffffffffffffffffffffff19166001600160a01b0392909216919091179055565b6000606060006040518060600160405280600060028111156104e8576104e86111b0565b60028111156104f9576104f96111b0565b81526020016001815260200160029052600154604080517f42b2ea51000000000000000000000000000000000000000000000000000000008152905192935060009283926001600160a01b0316916342b2ea51916004808301926020929190829003018186803b15801561056c57600080fd5b505afa158015610580573d6000803e3d6000fd5b505050506040513d601f19601f820116820180604052508101906105a4919061122d565b905080600314156105b457600191505b60005b6003811015610b295760008482600381106105d4576105d461124e565b602002015190506000600160009054906101000a90046001600160a01b03166001600160a01b0316635583e81c6040518163ffffffff1660e01b815260040160206040518083038186803b15801561062b57600080fd5b505afa15801561063f573d6000803e3d6000fd5b505050506040513d601f19601f82011682018060405250810190610663919061122d565b90506000600160009054906101000a90046001600160a01b03166001600160a01b0316635c0b95d46040518163ffffffff1660e01b815260040160206040518083038186803b1580156106b557600080fd5b505afa1580156106c9573d6000803e3d6000fd5b505050506040513d601f19601f820116820180604052508101906106ed919061122d565b90506000600160009054906101000a90046001600160a01b03166001600160a01b0316639eb386fd6040518163ffffffff1660e01b815260040160206040518083038186803b15801561073f57600080fd5b505afa158015610753573d6000803e3d6000fd5b505050506040513d601f19601f82011682018060405250810190610777919061122d565b6001546040517fbaa2efbb0000000000000000000000000000000000000000000000000000000081529192506000916001600160a01b039091169063baa2efbb906107c89088908890600401611264565b60006040518083038186803b1580156107e057600080fd5b505afa1580156107f4573d6000803e3d6000fd5b505050506040513d6000823e601f3d908101601f1916820160405261081c919081019061151e565b6001546040517f52fc11e50000000000000000000000000000000000000000000000000000000081529192506000916001600160a01b03909116906352fc11e59061086b9089906004016111f9565b60806040518083038186803b15801561088357600080fd5b505afa158015610897573d6000803e3d6000fd5b505050506040513d601f19601f820116820180604052508101906108bb91906115d4565b6001546040517f92c1f29a0000000000000000000000000000000000000000000000000000000081529192506000916001600160a01b03909116906392c1f29a9061090a908a906004016111f9565b60206040518083038186803b15801561092257600080fd5b505afa158015610936573d6000803e3d6000fd5b505050506040513d601f19601f8201168201806040525081019061095a9190611608565b9050600182606001516005811115610974576109746111b0565b14801561097f575089155b156109905750505050505050610b17565b84421180156109b457506002826060015160058111156109b2576109b26111b0565b145b15610a4657600a836020015110806109d0575060058360400151105b15610a035760019c506005876040516020016109ed92919061163d565b6040516020818303038152906040529b50610b0f565b8080610a1d5750600454600554610a1a919061166e565b42105b15610a2e5750505050505050610b17565b60019c506001876040516020016109ed92919061163d565b600382606001516005811115610a5e57610a5e6111b0565b1415610a7c5760019c506002876040516020016109ed92919061163d565b600482606001516005811115610a9457610a946111b0565b1415610ab25760019c506003876040516020016109ed92919061163d565b600582606001516005811115610aca57610aca6111b0565b14158015610ad757508342115b8015610ae05750895b15610b0f5760019c50600487604051602001610afd92919061163d565b6040516020818303038152906040529b505b505050505050505b80610b2181611686565b9150506105b7565b505050509250929050565b6000546001600160a01b03163314610b5e5760405162461bcd60e51b81526004016101e790611155565b600080546040516001600160a01b03909116907f8be0079c531659141344cd1fd0a4f28419497f9722a3daafe3b4186f6b6457e0908390a36000805473ffffffffffffffffffffffffffffffffffffffff19169055565b6000546001600160a01b03163314610bdf5760405162461bcd60e51b81526004016101e790611155565b6001805473ffffffffffffffffffffffffffffffffffffffff19166001600160a01b0392909216919091179055565b6000546001600160a01b03163314610c385760405162461bcd60e51b81526004016101e790611155565b6001600160a01b038116610c5e5760405162461bcd60e51b81526004016101e7906116fb565b600080546040516001600160a01b03808516939216917f8be0079c531659141344cd1fd0a4f28419497f9722a3daafe3b4186f6b6457e091a36000805473ffffffffffffffffffffffffffffffffffffffff19166001600160a01b0392909216919091179055565b610d498363a9059cbb60e01b8484604051602401610ce592919061170b565b60408051601f198184030181529190526020810180517bffffffffffffffffffffffffffffffffffffffffffffffffffffffff167fffffffff0000000000000000000000000000000000000000000000000000000090931692909217909152610d4e565b505050565b6000610da3826040518060400160405280602081526020017f5361666545524332303a206c6f772d6c6576656c2063616c6c206661696c6564815250856001600160a01b0316610ddd9092919063ffffffff16565b805190915015610d495780806020019051810190610dc19190611608565b610d495760405162461bcd60e51b81526004016101e790611771565b6060610dec8484600085610df6565b90505b9392505050565b606082471015610e185760405162461bcd60e51b81526004016101e7906117d9565b843b610e365760405162461bcd60e51b81526004016101e79061181b565b600080866001600160a01b03168587604051610e52919061184d565b60006040518083038185875af1925050503d8060008114610e8f576040519150601f19603f3d011682016040523d82523d6000602084013e610e94565b606091505b5091509150610ea4828286610eaf565b979650505050505050565b60608315610ebe575081610def565b825115610ece5782518084602001fd5b8160405162461bcd60e51b81526004016101e79190611857565b60006001600160a01b0382165b92915050565b610f0481610ee8565b8114610f0f57600080fd5b50565b8035610ef581610efb565b80610f04565b8035610ef581610f1d565b60008060408385031215610f4457610f44600080fd5b6000610f508585610f12565b9250506020610f6185828601610f23565b9150509250929050565b60006001600160a01b038216610ef5565b6000610ef582610f6b565b6000610ef582610f7c565b610f9b81610f87565b82525050565b60208101610ef58284610f92565b80610f9b565b60208101610ef58284610faf565b60008083601f840112610fd857610fd8600080fd5b50813567ffffffffffffffff811115610ff357610ff3600080fd5b60208301915083600182028301111561100e5761100e600080fd5b9250929050565b6000806020838503121561102b5761102b600080fd5b823567ffffffffffffffff81111561104557611045600080fd5b61105185828601610fc3565b92509250509250929050565b60006020828403121561107257611072600080fd5b600061107e8484610f12565b949350505050565b801515610f9b565b60005b838110156110a9578181015183820152602001611091565b838111156104655750506000910152565b60006110c4825190565b8084526020840193506110db81856020860161108e565b601f01601f19169290920192915050565b604081016110fa8285611086565b8181036020830152610dec81846110ba565b610f9b81610ee8565b60208101610ef5828461110c565b60208082527f4f776e61626c653a2063616c6c6572206973206e6f7420746865206f776e657291019081525b60200190565b60208082528101610ef581611123565b60038110610f0f57600080fd5b8035610ef581611165565b6000806040838503121561119357611193600080fd5b600061119f8585610f23565b9250506020610f6185828601611172565b634e487b7160e01b600052602160045260246000fd5b60038110610f0f57610f0f6111b0565b806111e0816111c6565b919050565b6000610ef5826111d6565b610f9b816111e5565b60208101610ef582846111f0565b6040810161121582856111f0565b610def6020830184611086565b8051610ef581610f1d565b60006020828403121561124257611242600080fd5b600061107e8484611222565b634e487b7160e01b600052603260045260246000fd5b6040810161127282856111f0565b610def6020830184610faf565b634e487b7160e01b600052604160045260246000fd5b601f19601f830116810181811067ffffffffffffffff821117156112bb576112bb61127f565b6040525050565b60006112cd60405190565b90506111e08282611295565b600067ffffffffffffffff8211156112f3576112f361127f565b5060209081020190565b600061131061130b846112d9565b6112c2565b8381529050602080820190840283018581111561132f5761132f600080fd5b835b81811015611351576113438782611222565b835260209283019201611331565b5050509392505050565b600082601f83011261136f5761136f600080fd5b815161107e8482602086016112fd565b8051610ef581610efb565b600061139861130b846112d9565b838152905060208082019084028301858111156113b7576113b7600080fd5b835b81811015611351576113cb878261137f565b8352602092830192016113b9565b600082601f8301126113ed576113ed600080fd5b815161107e84826020860161138a565b6000610120828403121561141357611413600080fd5b61141e6101206112c2565b9050600061142c8484611222565b90820152602061143e84848301611222565b90820152604061145084848301611222565b90820152606061146284848301611222565b90820152608082015167ffffffffffffffff81111561148357611483600080fd5b61148f8482850161135b565b60808301525060a082015167ffffffffffffffff8111156114b2576114b2600080fd5b6114be848285016113d9565b60a08301525060c082015167ffffffffffffffff8111156114e1576114e1600080fd5b6114ed8482850161135b565b60c08301525060e061150184828501611222565b9082015261010061151484848301611222565b9082015292915050565b60006020828403121561153357611533600080fd5b815167ffffffffffffffff81111561154d5761154d600080fd5b61107e848285016113fd565b60068110610f0f57600080fd5b8051610ef581611559565b60006080828403121561158657611586600080fd5b61159060806112c2565b9050600061159e8484611222565b9082015260206115b084848301611222565b9082015260406115c284848301611222565b90820152606061151484848301611566565b6000608082840312156115e9576115e9600080fd5b600061107e8484611571565b801515610f04565b8051610ef5816115f5565b60006020828403121561161d5761161d600080fd5b600061107e84846115fd565b600060ff8216610ef5565b610f9b81611629565b6040810161164b8285611634565b610def60208301846111f0565b634e487b7160e01b600052601160045260246000fd5b6000821982111561168157611681611658565b500190565b600060001982141561169a5761169a611658565b5060010190565b60268152602081017f4f776e61626c653a206e6577206f776e657220697320746865207a65726f206181527f6464726573730000000000000000000000000000000000000000000000000000602082015290505b60400190565b60208082528101610ef5816116a1565b60408101611272828561110c565b602a8152602081017f5361666545524332303a204552433230206f7065726174696f6e20646964206e81527f6f74207375636365656400000000000000000000000000000000000000000000602082015290506116f5565b60208082528101610ef581611719565b60268152602081017f416464726573733a20696e73756666696369656e742062616c616e636520666f81527f722063616c6c0000000000000000000000000000000000000000000000000000602082015290506116f5565b60208082528101610ef581611781565b601d8152602081017f416464726573733a2063616c6c20746f206e6f6e2d636f6e74726163740000008152905061114f565b60208082528101610ef5816117e9565b6000611835825190565b61184381856020860161108e565b9290920192915050565b610ef5818361182b565b60208082528101610def81846110ba56fea2646970667358221220a9cc98666dd3a7d146b1c5daf60fcfd257b4a69df832818addf48d040503c12d64736f6c63430008090033",
  "linkReferences": {},
  "deployedLinkReferences": {}
}