{
  "_format": "hh-sol-artifact-1",
  "contractName": "PolylottoKeeper",
  "sourceName": "contracts/Keeper.sol",
  "abi": [
    {
      "inputs": [
        {
          "internalType": "address",
          "name": "_randomGeneratorAddress",
          "type": "address"
        },
        {
          "internalType": "address",
          "name": "_polylottoAddress",
          "type": "address"
        }
      ],
      "stateMutability": "nonpayable",
      "type": "constructor"
    },
    {
      "anonymous": false,
      "inputs": [
        {
          "indexed": true,
          "internalType": "address",
          "name": "previousOwner",
          "type": "address"
        },
        {
          "indexed": true,
          "internalType": "address",
          "name": "newOwner",
          "type": "address"
        }
      ],
      "name": "OwnershipTransferred",
      "type": "event"
    },
    {
      "inputs": [
        {
          "internalType": "bytes",
          "name": "",
          "type": "bytes"
        }
      ],
      "name": "checkUpkeep",
      "outputs": [
        {
          "internalType": "bool",
          "name": "upkeepNeeded",
          "type": "bool"
        },
        {
          "internalType": "bytes",
          "name": "performData",
          "type": "bytes"
        }
      ],
      "stateMutability": "view",
      "type": "function"
    },
    {
      "inputs": [],
      "name": "owner",
      "outputs": [
        {
          "internalType": "address",
          "name": "",
          "type": "address"
        }
      ],
      "stateMutability": "view",
      "type": "function"
    },
    {
      "inputs": [
        {
          "internalType": "bytes",
          "name": "performData",
          "type": "bytes"
        }
      ],
      "name": "performUpkeep",
      "outputs": [],
      "stateMutability": "nonpayable",
      "type": "function"
    },
    {
      "inputs": [],
      "name": "polyLotto",
      "outputs": [
        {
          "internalType": "contract IPolyLottoRaffle",
          "name": "",
          "type": "address"
        }
      ],
      "stateMutability": "view",
      "type": "function"
    },
    {
      "inputs": [],
      "name": "randomGenerator",
      "outputs": [
        {
          "internalType": "contract IRandomNumberGenerator",
          "name": "",
          "type": "address"
        }
      ],
      "stateMutability": "view",
      "type": "function"
    },
    {
      "inputs": [],
      "name": "renounceOwnership",
      "outputs": [],
      "stateMutability": "nonpayable",
      "type": "function"
    },
    {
      "inputs": [
        {
          "internalType": "address",
          "name": "_polylottoRaffle",
          "type": "address"
        }
      ],
      "name": "setPolylottoRaffle",
      "outputs": [],
      "stateMutability": "nonpayable",
      "type": "function"
    },
    {
      "inputs": [
        {
          "internalType": "address",
          "name": "_randomGenAddress",
          "type": "address"
        }
      ],
      "name": "setRandomGenerator",
      "outputs": [],
      "stateMutability": "nonpayable",
      "type": "function"
    },
    {
      "inputs": [
        {
          "internalType": "address",
          "name": "newOwner",
          "type": "address"
        }
      ],
      "name": "transferOwnership",
      "outputs": [],
      "stateMutability": "nonpayable",
      "type": "function"
    },
    {
      "inputs": [],
      "name": "viewLatestRaffleId",
      "outputs": [
        {
          "internalType": "uint256",
          "name": "",
          "type": "uint256"
        }
      ],
      "stateMutability": "view",
      "type": "function"
    },
    {
      "inputs": [
        {
          "internalType": "address",
          "name": "_tokenAddress",
          "type": "address"
        },
        {
          "internalType": "uint256",
          "name": "_tokenAmount",
          "type": "uint256"
        }
      ],
      "name": "withdrawTokens",
      "outputs": [],
      "stateMutability": "nonpayable",
      "type": "function"
    }
  ],
  "bytecode": "0x608060405261012c6004553480156200001757600080fd5b50604051620019ab380380620019ab8339810160408190526200003a91620000ea565b600080546001600160a01b031916339081178255604051909182917f8be0079c531659141344cd1fd0a4f28419497f9722a3daafe3b4186f6b6457e0908290a350600180546001600160a01b039283166001600160a01b031991821617909155600280549390921692169190911790556200012d565b60006001600160a01b0382165b92915050565b620000ce81620000b0565b8114620000da57600080fd5b50565b8051620000bd81620000c3565b60008060408385031215620001025762000102600080fd5b6000620001108585620000dd565b92505060206200012385828601620000dd565b9150509250929050565b61186e806200013d6000396000f3fe608060405234801561001057600080fd5b50600436106100c95760003560e01c80636e04ff0d11610081578063c778c7161161005b578063c778c71614610184578063dcbad90d14610197578063f2fde38b146101aa57600080fd5b80636e04ff0d14610142578063715018a6146101635780638da5cb5b1461016b57600080fd5b806325f08c8a116100b257806325f08c8a1461010c5780634585e33b1461011c5780634bc19fee1461012f57600080fd5b806306b091f9146100ce57806322f524f7146100e3575b600080fd5b6100e16100dc366004610f2b565b6101bd565b005b6001546100f6906001600160a01b031681565b6040516101039190610f9e565b60405180910390f35b6003546040516101039190610fb2565b6100e161012a366004611012565b610208565b6100e161013d36600461105a565b610468565b610155610150366004611012565b6104c1565b6040516101039291906110e9565b6100e1610b31565b6000546001600160a01b03166040516101039190611112565b6100e161019236600461105a565b610bb2565b6002546100f6906001600160a01b031681565b6100e16101b836600461105a565b610c0b565b6000546001600160a01b031633146101f05760405162461bcd60e51b81526004016101e790611152565b60405180910390fd5b6102046001600160a01b0383163383610cc3565b5050565b6000806102178385018561117a565b9150915081600114156102a9576002546040517fbc4db42e0000000000000000000000000000000000000000000000000000000081526001600160a01b039091169063bc4db42e9061026d9084906004016111f6565b600060405180830381600087803b15801561028757600080fd5b505af115801561029b573d6000803e3d6000fd5b505042600555506104629050565b8160021415610332576001546040517f2b5afd090000000000000000000000000000000000000000000000000000000081526001600160a01b0390911690632b5afd09906102fb9084906004016111f6565b600060405180830381600087803b15801561031557600080fd5b505af1158015610329573d6000803e3d6000fd5b50505050610462565b8160031415610384576001546040517f0441717b0000000000000000000000000000000000000000000000000000000081526001600160a01b0390911690630441717b906102fb9084906004016111f6565b81600414156103dd57600160009054906101000a90046001600160a01b03166001600160a01b031663242284f16040518163ffffffff1660e01b8152600401600060405180830381600087803b15801561031557600080fd5b8160051415610462576001546040517f534585580000000000000000000000000000000000000000000000000000000081526001600160a01b039091169063534585589061042f9084906004016111f6565b600060405180830381600087803b15801561044957600080fd5b505af115801561045d573d6000803e3d6000fd5b505050505b50505050565b6000546001600160a01b031633146104925760405162461bcd60e51b81526004016101e790611152565b6002805473ffffffffffffffffffffffffffffffffffffffff19166001600160a01b0392909216919091179055565b6000606060006040518060600160405280600060028111156104e5576104e56111ad565b60028111156104f6576104f66111ad565b81526020016001815260200160029052600154604080517f42b2ea51000000000000000000000000000000000000000000000000000000008152905192935060009283926001600160a01b0316916342b2ea51916004808301926020929190829003018186803b15801561056957600080fd5b505afa15801561057d573d6000803e3d6000fd5b505050506040513d601f19601f820116820180604052508101906105a1919061120f565b905080600314156105b157600191505b60005b6003811015610b265760008482600381106105d1576105d1611230565b602002015190506000600160009054906101000a90046001600160a01b03166001600160a01b0316635583e81c6040518163ffffffff1660e01b815260040160206040518083038186803b15801561062857600080fd5b505afa15801561063c573d6000803e3d6000fd5b505050506040513d601f19601f82011682018060405250810190610660919061120f565b90506000600160009054906101000a90046001600160a01b03166001600160a01b0316635c0b95d46040518163ffffffff1660e01b815260040160206040518083038186803b1580156106b257600080fd5b505afa1580156106c6573d6000803e3d6000fd5b505050506040513d601f19601f820116820180604052508101906106ea919061120f565b90506000600160009054906101000a90046001600160a01b03166001600160a01b0316639eb386fd6040518163ffffffff1660e01b815260040160206040518083038186803b15801561073c57600080fd5b505afa158015610750573d6000803e3d6000fd5b505050506040513d601f19601f82011682018060405250810190610774919061120f565b6001546040517fbaa2efbb0000000000000000000000000000000000000000000000000000000081529192506000916001600160a01b039091169063baa2efbb906107c59088908890600401611246565b60006040518083038186803b1580156107dd57600080fd5b505afa1580156107f1573d6000803e3d6000fd5b505050506040513d6000823e601f3d908101601f191682016040526108199190810190611500565b6001546040517f52fc11e50000000000000000000000000000000000000000000000000000000081529192506000916001600160a01b03909116906352fc11e5906108689089906004016111f6565b60606040518083038186803b15801561088057600080fd5b505afa158015610894573d6000803e3d6000fd5b505050506040513d601f19601f820116820180604052508101906108b891906115a4565b6001546040517f92c1f29a0000000000000000000000000000000000000000000000000000000081529192506000916001600160a01b03909116906392c1f29a90610907908a906004016111f6565b60206040518083038186803b15801561091f57600080fd5b505afa158015610933573d6000803e3d6000fd5b505050506040513d601f19601f8201168201806040525081019061095791906115d8565b9050600182604001516005811115610971576109716111ad565b14801561097c575089155b1561098d5750505050505050610b14565b84421180156109b157506002826040015160058111156109af576109af6111ad565b145b15610a4357600a836020015110806109cd575060058360400151105b15610a005760019c506005876040516020016109ea92919061160d565b6040516020818303038152906040529b50610b0c565b8080610a1a5750600454600554610a17919061163e565b42105b15610a2b5750505050505050610b14565b60019c506001876040516020016109ea92919061160d565b600382604001516005811115610a5b57610a5b6111ad565b1415610a795760019c506002876040516020016109ea92919061160d565b600482604001516005811115610a9157610a916111ad565b1415610aaf5760019c506003876040516020016109ea92919061160d565b600582604001516005811115610ac757610ac76111ad565b14158015610ad457508342115b8015610add5750895b15610b0c5760019c50600487604051602001610afa92919061160d565b6040516020818303038152906040529b505b505050505050505b80610b1e81611656565b9150506105b4565b505050509250929050565b6000546001600160a01b03163314610b5b5760405162461bcd60e51b81526004016101e790611152565b600080546040516001600160a01b03909116907f8be0079c531659141344cd1fd0a4f28419497f9722a3daafe3b4186f6b6457e0908390a36000805473ffffffffffffffffffffffffffffffffffffffff19169055565b6000546001600160a01b03163314610bdc5760405162461bcd60e51b81526004016101e790611152565b6001805473ffffffffffffffffffffffffffffffffffffffff19166001600160a01b0392909216919091179055565b6000546001600160a01b03163314610c355760405162461bcd60e51b81526004016101e790611152565b6001600160a01b038116610c5b5760405162461bcd60e51b81526004016101e7906116cb565b600080546040516001600160a01b03808516939216917f8be0079c531659141344cd1fd0a4f28419497f9722a3daafe3b4186f6b6457e091a36000805473ffffffffffffffffffffffffffffffffffffffff19166001600160a01b0392909216919091179055565b610d468363a9059cbb60e01b8484604051602401610ce29291906116db565b60408051601f198184030181529190526020810180517bffffffffffffffffffffffffffffffffffffffffffffffffffffffff167fffffffff0000000000000000000000000000000000000000000000000000000090931692909217909152610d4b565b505050565b6000610da0826040518060400160405280602081526020017f5361666545524332303a206c6f772d6c6576656c2063616c6c206661696c6564815250856001600160a01b0316610dda9092919063ffffffff16565b805190915015610d465780806020019051810190610dbe91906115d8565b610d465760405162461bcd60e51b81526004016101e790611741565b6060610de98484600085610df3565b90505b9392505050565b606082471015610e155760405162461bcd60e51b81526004016101e7906117a9565b843b610e335760405162461bcd60e51b81526004016101e7906117eb565b600080866001600160a01b03168587604051610e4f919061181d565b60006040518083038185875af1925050503d8060008114610e8c576040519150601f19603f3d011682016040523d82523d6000602084013e610e91565b606091505b5091509150610ea1828286610eac565b979650505050505050565b60608315610ebb575081610dec565b825115610ecb5782518084602001fd5b8160405162461bcd60e51b81526004016101e79190611827565b60006001600160a01b0382165b92915050565b610f0181610ee5565b8114610f0c57600080fd5b50565b8035610ef281610ef8565b80610f01565b8035610ef281610f1a565b60008060408385031215610f4157610f41600080fd5b6000610f4d8585610f0f565b9250506020610f5e85828601610f20565b9150509250929050565b60006001600160a01b038216610ef2565b6000610ef282610f68565b6000610ef282610f79565b610f9881610f84565b82525050565b60208101610ef28284610f8f565b80610f98565b60208101610ef28284610fac565b60008083601f840112610fd557610fd5600080fd5b50813567ffffffffffffffff811115610ff057610ff0600080fd5b60208301915083600182028301111561100b5761100b600080fd5b9250929050565b6000806020838503121561102857611028600080fd5b823567ffffffffffffffff81111561104257611042600080fd5b61104e85828601610fc0565b92509250509250929050565b60006020828403121561106f5761106f600080fd5b600061107b8484610f0f565b949350505050565b801515610f98565b60005b838110156110a657818101518382015260200161108e565b838111156104625750506000910152565b60006110c1825190565b8084526020840193506110d881856020860161108b565b601f01601f19169290920192915050565b604081016110f78285611083565b8181036020830152610de981846110b7565b610f9881610ee5565b60208101610ef28284611109565b60208082527f4f776e61626c653a2063616c6c6572206973206e6f7420746865206f776e657291019081525b60200190565b60208082528101610ef281611120565b60038110610f0c57600080fd5b8035610ef281611162565b6000806040838503121561119057611190600080fd5b600061119c8585610f20565b9250506020610f5e8582860161116f565b634e487b7160e01b600052602160045260246000fd5b60038110610f0c57610f0c6111ad565b806111dd816111c3565b919050565b6000610ef2826111d3565b610f98816111e2565b60208101610ef282846111ed565b8051610ef281610f1a565b60006020828403121561122457611224600080fd5b600061107b8484611204565b634e487b7160e01b600052603260045260246000fd5b6040810161125482856111ed565b610dec6020830184610fac565b634e487b7160e01b600052604160045260246000fd5b601f19601f830116810181811067ffffffffffffffff8211171561129d5761129d611261565b6040525050565b60006112af60405190565b90506111dd8282611277565b600067ffffffffffffffff8211156112d5576112d5611261565b5060209081020190565b60006112f26112ed846112bb565b6112a4565b8381529050602080820190840283018581111561131157611311600080fd5b835b81811015611333576113258782611204565b835260209283019201611313565b5050509392505050565b600082601f83011261135157611351600080fd5b815161107b8482602086016112df565b8051610ef281610ef8565b600061137a6112ed846112bb565b8381529050602080820190840283018581111561139957611399600080fd5b835b81811015611333576113ad8782611361565b83526020928301920161139b565b600082601f8301126113cf576113cf600080fd5b815161107b84826020860161136c565b600061012082840312156113f5576113f5600080fd5b6114006101206112a4565b9050600061140e8484611204565b90820152602061142084848301611204565b90820152604061143284848301611204565b90820152606061144484848301611204565b90820152608082015167ffffffffffffffff81111561146557611465600080fd5b6114718482850161133d565b60808301525060a082015167ffffffffffffffff81111561149457611494600080fd5b6114a0848285016113bb565b60a08301525060c082015167ffffffffffffffff8111156114c3576114c3600080fd5b6114cf8482850161133d565b60c08301525060e06114e384828501611204565b908201526101006114f684848301611204565b9082015292915050565b60006020828403121561151557611515600080fd5b815167ffffffffffffffff81111561152f5761152f600080fd5b61107b848285016113df565b60068110610f0c57600080fd5b8051610ef28161153b565b60006060828403121561156857611568600080fd5b61157260606112a4565b905060006115808484611204565b90820152602061159284848301611204565b9082015260406114f684848301611548565b6000606082840312156115b9576115b9600080fd5b600061107b8484611553565b801515610f01565b8051610ef2816115c5565b6000602082840312156115ed576115ed600080fd5b600061107b84846115cd565b600060ff8216610ef2565b610f98816115f9565b6040810161161b8285611604565b610dec60208301846111ed565b634e487b7160e01b600052601160045260246000fd5b6000821982111561165157611651611628565b500190565b600060001982141561166a5761166a611628565b5060010190565b60268152602081017f4f776e61626c653a206e6577206f776e657220697320746865207a65726f206181527f6464726573730000000000000000000000000000000000000000000000000000602082015290505b60400190565b60208082528101610ef281611671565b604081016112548285611109565b602a8152602081017f5361666545524332303a204552433230206f7065726174696f6e20646964206e81527f6f74207375636365656400000000000000000000000000000000000000000000602082015290506116c5565b60208082528101610ef2816116e9565b60268152602081017f416464726573733a20696e73756666696369656e742062616c616e636520666f81527f722063616c6c0000000000000000000000000000000000000000000000000000602082015290506116c5565b60208082528101610ef281611751565b601d8152602081017f416464726573733a2063616c6c20746f206e6f6e2d636f6e74726163740000008152905061114c565b60208082528101610ef2816117b9565b6000611805825190565b61181381856020860161108b565b9290920192915050565b610ef281836117fb565b60208082528101610dec81846110b756fea26469706673582212207106876dd8f4203163d101bd261b25201e0eee6702f417ecd16b733d929d6fe164736f6c63430008090033",
  "linkReferences": {},
  "deployedLinkReferences": {}
}