{
  "_format": "hh-sol-artifact-1",
  "contractName": "faucet",
  "sourceName": "contracts/faucet.sol",
  "abi": [
    {
      "inputs": [
        {
          "internalType": "address",
          "name": "_testTokenAddress",
          "type": "address"
        }
      ],
      "stateMutability": "nonpayable",
      "type": "constructor"
    },
    {
      "anonymous": false,
      "inputs": [
        {
          "indexed": true,
          "internalType": "address",
          "name": "previousOwner",
          "type": "address"
        },
        {
          "indexed": true,
          "internalType": "address",
          "name": "newOwner",
          "type": "address"
        }
      ],
      "name": "OwnershipTransferred",
      "type": "event"
    },
    {
      "inputs": [
        {
          "internalType": "address",
          "name": "_newToken",
          "type": "address"
        }
      ],
      "name": "changeToken",
      "outputs": [],
      "stateMutability": "nonpayable",
      "type": "function"
    },
    {
      "inputs": [],
      "name": "checkFaucetBalance",
      "outputs": [
        {
          "internalType": "uint256",
          "name": "",
          "type": "uint256"
        }
      ],
      "stateMutability": "view",
      "type": "function"
    },
    {
      "inputs": [
        {
          "internalType": "uint256",
          "name": "_amount",
          "type": "uint256"
        }
      ],
      "name": "fundFaucet",
      "outputs": [],
      "stateMutability": "nonpayable",
      "type": "function"
    },
    {
      "inputs": [
        {
          "internalType": "address",
          "name": "_destinationWallet",
          "type": "address"
        }
      ],
      "name": "getTokens",
      "outputs": [],
      "stateMutability": "nonpayable",
      "type": "function"
    },
    {
      "inputs": [],
      "name": "owner",
      "outputs": [
        {
          "internalType": "address",
          "name": "",
          "type": "address"
        }
      ],
      "stateMutability": "view",
      "type": "function"
    },
    {
      "inputs": [],
      "name": "renounceOwnership",
      "outputs": [],
      "stateMutability": "nonpayable",
      "type": "function"
    },
    {
      "inputs": [],
      "name": "testToken",
      "outputs": [
        {
          "internalType": "contract IERC20",
          "name": "",
          "type": "address"
        }
      ],
      "stateMutability": "view",
      "type": "function"
    },
    {
      "inputs": [
        {
          "internalType": "address",
          "name": "newOwner",
          "type": "address"
        }
      ],
      "name": "transferOwnership",
      "outputs": [],
      "stateMutability": "nonpayable",
      "type": "function"
    }
  ],
  "bytecode": "0x608060405234801561001057600080fd5b50604051610e4b380380610e4b83398101604081905261002f916100e2565b6100383361005d565b600180546001600160a01b0319166001600160a01b039290921691909117905561010b565b600080546001600160a01b038381166001600160a01b0319831681178455604051919092169283917f8be0079c531659141344cd1fd0a4f28419497f9722a3daafe3b4186f6b6457e09190a35050565b60006001600160a01b0382165b92915050565b6100c9816100ad565b81146100d457600080fd5b50565b80516100ba816100c0565b6000602082840312156100f7576100f7600080fd5b600061010384846100d7565b949350505050565b610d318061011a6000396000f3fe608060405234801561001057600080fd5b50600436106100885760003560e01c80638da5cb5b1161005b5780638da5cb5b146100f3578063a090f54014610119578063ae0140b41461012e578063f2fde38b1461014157600080fd5b8063450efe211461008d57806366829b16146100a25780636895179d146100b5578063715018a6146100eb575b600080fd5b6100a061009b3660046108d0565b610154565b005b6100a06100b03660046108d0565b610273565b6001546100d59073ffffffffffffffffffffffffffffffffffffffff1681565b6040516100e29190610934565b60405180910390f35b6100a061030b565b60005473ffffffffffffffffffffffffffffffffffffffff166040516100e2919061094b565b610121610368565b6040516100e2919061095f565b6100a061013c36600461097e565b610414565b6100a061014f3660046108d0565b61048a565b6001546040517f70a08231000000000000000000000000000000000000000000000000000000008152683635c9adc5dea000009173ffffffffffffffffffffffffffffffffffffffff16906370a08231906101b390309060040161094b565b60206040518083038186803b1580156101cb57600080fd5b505afa1580156101df573d6000803e3d6000fd5b505050506040513d601f19601f8201168201806040525081019061020391906109aa565b11610243576040517f08c379a000000000000000000000000000000000000000000000000000000000815260040161023a906109ff565b60405180910390fd5b6001546102709073ffffffffffffffffffffffffffffffffffffffff1682683635c9adc5dea00000610531565b50565b60005473ffffffffffffffffffffffffffffffffffffffff1633146102c4576040517f08c379a000000000000000000000000000000000000000000000000000000000815260040161023a90610a3f565b600180547fffffffffffffffffffffffff00000000000000000000000000000000000000001673ffffffffffffffffffffffffffffffffffffffff92909216919091179055565b60005473ffffffffffffffffffffffffffffffffffffffff16331461035c576040517f08c379a000000000000000000000000000000000000000000000000000000000815260040161023a90610a3f565b61036660006105d7565b565b6001546040517f70a0823100000000000000000000000000000000000000000000000000000000815260009173ffffffffffffffffffffffffffffffffffffffff16906370a08231906103bf90309060040161094b565b60206040518083038186803b1580156103d757600080fd5b505afa1580156103eb573d6000803e3d6000fd5b505050506040513d601f19601f8201168201806040525081019061040f91906109aa565b905090565b60005473ffffffffffffffffffffffffffffffffffffffff163314610465576040517f08c379a000000000000000000000000000000000000000000000000000000000815260040161023a90610a3f565b6001546102709073ffffffffffffffffffffffffffffffffffffffff1633308461064c565b60005473ffffffffffffffffffffffffffffffffffffffff1633146104db576040517f08c379a000000000000000000000000000000000000000000000000000000000815260040161023a90610a3f565b73ffffffffffffffffffffffffffffffffffffffff8116610528576040517f08c379a000000000000000000000000000000000000000000000000000000000815260040161023a90610aa9565b610270816105d7565b6105d28363a9059cbb60e01b8484604051602401610550929190610ab9565b604080517fffffffffffffffffffffffffffffffffffffffffffffffffffffffffffffffe08184030181529190526020810180517bffffffffffffffffffffffffffffffffffffffffffffffffffffffff167fffffffff0000000000000000000000000000000000000000000000000000000090931692909217909152610673565b505050565b6000805473ffffffffffffffffffffffffffffffffffffffff8381167fffffffffffffffffffffffff0000000000000000000000000000000000000000831681178455604051919092169283917f8be0079c531659141344cd1fd0a4f28419497f9722a3daafe3b4186f6b6457e09190a35050565b61066d846323b872dd60e01b85858560405160240161055093929190610ad4565b50505050565b60006106d5826040518060400160405280602081526020017f5361666545524332303a206c6f772d6c6576656c2063616c6c206661696c65648152508573ffffffffffffffffffffffffffffffffffffffff166107299092919063ffffffff16565b8051909150156105d257808060200190518101906106f39190610b0f565b6105d2576040517f08c379a000000000000000000000000000000000000000000000000000000000815260040161023a90610b88565b60606107388484600085610742565b90505b9392505050565b60608247101561077e576040517f08c379a000000000000000000000000000000000000000000000000000000000815260040161023a90610bf0565b843b6107b6576040517f08c379a000000000000000000000000000000000000000000000000000000000815260040161023a90610c32565b6000808673ffffffffffffffffffffffffffffffffffffffff1685876040516107df9190610c90565b60006040518083038185875af1925050503d806000811461081c576040519150601f19603f3d011682016040523d82523d6000602084013e610821565b606091505b509150915061083182828661083e565b925050505b949350505050565b6060831561084d57508161073b565b82511561085d5782518084602001fd5b816040517f08c379a000000000000000000000000000000000000000000000000000000000815260040161023a9190610cea565b600073ffffffffffffffffffffffffffffffffffffffff82165b92915050565b6108ba81610891565b811461027057600080fd5b80356108ab816108b1565b6000602082840312156108e5576108e5600080fd5b600061083684846108c5565b600073ffffffffffffffffffffffffffffffffffffffff82166108ab565b60006108ab826108f1565b60006108ab8261090f565b61092e8161091a565b82525050565b602081016108ab8284610925565b61092e81610891565b602081016108ab8284610942565b8061092e565b602081016108ab8284610959565b806108ba565b80356108ab8161096d565b60006020828403121561099357610993600080fd5b60006108368484610973565b80516108ab8161096d565b6000602082840312156109bf576109bf600080fd5b6000610836848461099f565b600c8152602081017f46617563657420456d7074790000000000000000000000000000000000000000815290505b60200190565b602080825281016108ab816109cb565b60208082527f4f776e61626c653a2063616c6c6572206973206e6f7420746865206f776e657291019081526109f9565b602080825281016108ab81610a0f565b60268152602081017f4f776e61626c653a206e6577206f776e657220697320746865207a65726f206181527f6464726573730000000000000000000000000000000000000000000000000000602082015290505b60400190565b602080825281016108ab81610a4f565b60408101610ac78285610942565b61073b6020830184610959565b60608101610ae28286610942565b610aef6020830185610942565b6108366040830184610959565b8015156108ba565b80516108ab81610afc565b600060208284031215610b2457610b24600080fd5b60006108368484610b04565b602a8152602081017f5361666545524332303a204552433230206f7065726174696f6e20646964206e81527f6f7420737563636565640000000000000000000000000000000000000000000060208201529050610aa3565b602080825281016108ab81610b30565b60268152602081017f416464726573733a20696e73756666696369656e742062616c616e636520666f81527f722063616c6c000000000000000000000000000000000000000000000000000060208201529050610aa3565b602080825281016108ab81610b98565b601d8152602081017f416464726573733a2063616c6c20746f206e6f6e2d636f6e7472616374000000815290506109f9565b602080825281016108ab81610c00565b60005b83811015610c5d578181015183820152602001610c45565b8381111561066d5750506000910152565b6000610c78825190565b610c86818560208601610c42565b9290920192915050565b6108ab8183610c6e565b6000610ca4825190565b808452602084019350610cbb818560208601610c42565b601f017fffffffffffffffffffffffffffffffffffffffffffffffffffffffffffffffe0169290920192915050565b6020808252810161073b8184610c9a56fea26469706673582212200ba8f627dcc1fddf1b506bab4df47d475bf1509c1cf03b73ccbe5b52b749ef7864736f6c63430008090033",
  "linkReferences": {},
  "deployedLinkReferences": {}
}