{
  "_format": "hh-sol-artifact-1",
  "contractName": "RandomNumberGenerator",
  "sourceName": "contracts/RandomNumberGenerator.sol",
  "abi": [
    {
      "inputs": [
        {
          "internalType": "address",
          "name": "_vrfCoordinator",
          "type": "address"
        },
        {
          "internalType": "address",
          "name": "_linkToken",
          "type": "address"
        }
      ],
      "stateMutability": "nonpayable",
      "type": "constructor"
    },
    {
      "anonymous": false,
      "inputs": [
        {
          "indexed": true,
          "internalType": "address",
          "name": "previousOwner",
          "type": "address"
        },
        {
          "indexed": true,
          "internalType": "address",
          "name": "newOwner",
          "type": "address"
        }
      ],
      "name": "OwnershipTransferred",
      "type": "event"
    },
    {
      "inputs": [],
      "name": "checkLinkBalance",
      "outputs": [
        {
          "internalType": "uint256",
          "name": "",
          "type": "uint256"
        }
      ],
      "stateMutability": "view",
      "type": "function"
    },
    {
      "inputs": [],
      "name": "fee",
      "outputs": [
        {
          "internalType": "uint256",
          "name": "",
          "type": "uint256"
        }
      ],
      "stateMutability": "view",
      "type": "function"
    },
    {
      "inputs": [
        {
          "internalType": "enum IPolyLottoRaffle.RaffleCategory",
          "name": "_category",
          "type": "uint8"
        }
      ],
      "name": "getWinningTickets",
      "outputs": [],
      "stateMutability": "nonpayable",
      "type": "function"
    },
    {
      "inputs": [],
      "name": "keyHash",
      "outputs": [
        {
          "internalType": "bytes32",
          "name": "",
          "type": "bytes32"
        }
      ],
      "stateMutability": "view",
      "type": "function"
    },
    {
      "inputs": [],
      "name": "latestRaffleId",
      "outputs": [
        {
          "internalType": "uint256",
          "name": "",
          "type": "uint256"
        }
      ],
      "stateMutability": "view",
      "type": "function"
    },
    {
      "inputs": [],
      "name": "latestRequestId",
      "outputs": [
        {
          "internalType": "bytes32",
          "name": "",
          "type": "bytes32"
        }
      ],
      "stateMutability": "view",
      "type": "function"
    },
    {
      "inputs": [],
      "name": "owner",
      "outputs": [
        {
          "internalType": "address",
          "name": "",
          "type": "address"
        }
      ],
      "stateMutability": "view",
      "type": "function"
    },
    {
      "inputs": [],
      "name": "polylottoKeeper",
      "outputs": [
        {
          "internalType": "address",
          "name": "",
          "type": "address"
        }
      ],
      "stateMutability": "view",
      "type": "function"
    },
    {
      "inputs": [],
      "name": "polylottoRaffle",
      "outputs": [
        {
          "internalType": "address",
          "name": "",
          "type": "address"
        }
      ],
      "stateMutability": "view",
      "type": "function"
    },
    {
      "inputs": [
        {
          "internalType": "bytes32",
          "name": "requestId",
          "type": "bytes32"
        },
        {
          "internalType": "uint256",
          "name": "randomness",
          "type": "uint256"
        }
      ],
      "name": "rawFulfillRandomness",
      "outputs": [],
      "stateMutability": "nonpayable",
      "type": "function"
    },
    {
      "inputs": [],
      "name": "renounceOwnership",
      "outputs": [],
      "stateMutability": "nonpayable",
      "type": "function"
    },
    {
      "inputs": [
        {
          "internalType": "uint256",
          "name": "_fee",
          "type": "uint256"
        }
      ],
      "name": "setFee",
      "outputs": [],
      "stateMutability": "nonpayable",
      "type": "function"
    },
    {
      "inputs": [
        {
          "internalType": "address",
          "name": "_polylottoKeeper",
          "type": "address"
        }
      ],
      "name": "setKeeperAddress",
      "outputs": [],
      "stateMutability": "nonpayable",
      "type": "function"
    },
    {
      "inputs": [
        {
          "internalType": "bytes32",
          "name": "_keyHash",
          "type": "bytes32"
        }
      ],
      "name": "setKeyHash",
      "outputs": [],
      "stateMutability": "nonpayable",
      "type": "function"
    },
    {
      "inputs": [
        {
          "internalType": "address",
          "name": "_polylottoAddress",
          "type": "address"
        }
      ],
      "name": "setPolyLottoAddress",
      "outputs": [],
      "stateMutability": "nonpayable",
      "type": "function"
    },
    {
      "inputs": [
        {
          "internalType": "address",
          "name": "newOwner",
          "type": "address"
        }
      ],
      "name": "transferOwnership",
      "outputs": [],
      "stateMutability": "nonpayable",
      "type": "function"
    },
    {
      "inputs": [],
      "name": "viewLatestRaffleId",
      "outputs": [
        {
          "internalType": "uint256",
          "name": "",
          "type": "uint256"
        }
      ],
      "stateMutability": "view",
      "type": "function"
    },
    {
      "inputs": [
        {
          "internalType": "enum IPolyLottoRaffle.RaffleCategory",
          "name": "_category",
          "type": "uint8"
        }
      ],
      "name": "viewRandomResult",
      "outputs": [
        {
          "internalType": "uint256[]",
          "name": "",
          "type": "uint256[]"
        }
      ],
      "stateMutability": "view",
      "type": "function"
    },
    {
      "inputs": [
        {
          "internalType": "address",
          "name": "_tokenAddress",
          "type": "address"
        },
        {
          "internalType": "uint256",
          "name": "_tokenAmount",
          "type": "uint256"
        }
      ],
      "name": "withdrawTokens",
      "outputs": [],
      "stateMutability": "nonpayable",
      "type": "function"
    }
  ],
  "bytecode": "0x60c06040523480156200001157600080fd5b5060405162002253380380620022538339810160408190526200003491620000cc565b6001600160a01b0382811660a0528116608052600180546001600160a01b0319163390811790915560405181906000907f8be0079c531659141344cd1fd0a4f28419497f9722a3daafe3b4186f6b6457e0908290a35050506200010f565b60006001600160a01b0382165b92915050565b620000b08162000092565b8114620000bc57600080fd5b50565b80516200009f81620000a5565b60008060408385031215620000e457620000e4600080fd5b6000620000f28585620000bf565b92505060206200010585828601620000bf565b9150509250929050565b60805160a0516121096200014a600039600081816105120152610e9c015260008181610609015281816108770152610e6001526121096000f3fe608060405234801561001057600080fd5b50600436106101515760003560e01c806394985ddd116100cd578063a9ca8b0b11610081578063d45f5e6e11610066578063d45f5e6e146102a8578063ddca3f43146102b1578063f2fde38b146102ba57600080fd5b8063a9ca8b0b14610275578063bc4db42e1461029557600080fd5b8063a24bf4ff116100b2578063a24bf4ff1461023a578063a5dd468614610242578063a6757ddd1461025557600080fd5b806394985ddd14610214578063985447101461022757600080fd5b80633f1628d01161012457806369fe0e2d1161010957806369fe0e2d146101db578063715018a6146101ee5780638da5cb5b146101f657600080fd5b80633f1628d0146101bf57806361728f39146101d257600080fd5b806306b091f914610156578063183862881461016b5780631aa46f59146101a157806325f08c8a146101b7575b600080fd5b6101696101643660046115f5565b6102cd565b005b60025461018b9073ffffffffffffffffffffffffffffffffffffffff1681565b6040516101989190611641565b60405180910390f35b6101aa60055481565b6040516101989190611655565b6007546101aa565b6101696101cd366004611663565b61034c565b6101aa60045481565b6101696101e9366004611684565b6103e4565b61016961043a565b60015473ffffffffffffffffffffffffffffffffffffffff1661018b565b6101696102223660046116a5565b6104fa565b610169610235366004611684565b610573565b6101aa6105c9565b610169610250366004611663565b610693565b6102686102633660046116df565b61072b565b604051610198919061175e565b60035461018b9073ffffffffffffffffffffffffffffffffffffffff1681565b6101696102a33660046116df565b6107fe565b6101aa60075481565b6101aa60065481565b6101696102c8366004611663565b610a23565b60015473ffffffffffffffffffffffffffffffffffffffff163314610327576040517f08c379a000000000000000000000000000000000000000000000000000000000815260040161031e9061179f565b60405180910390fd5b61034873ffffffffffffffffffffffffffffffffffffffff83163383610b4f565b5050565b60015473ffffffffffffffffffffffffffffffffffffffff16331461039d576040517f08c379a000000000000000000000000000000000000000000000000000000000815260040161031e9061179f565b600380547fffffffffffffffffffffffff00000000000000000000000000000000000000001673ffffffffffffffffffffffffffffffffffffffff92909216919091179055565b60015473ffffffffffffffffffffffffffffffffffffffff163314610435576040517f08c379a000000000000000000000000000000000000000000000000000000000815260040161031e9061179f565b600655565b60015473ffffffffffffffffffffffffffffffffffffffff16331461048b576040517f08c379a000000000000000000000000000000000000000000000000000000000815260040161031e9061179f565b60015460405160009173ffffffffffffffffffffffffffffffffffffffff16907f8be0079c531659141344cd1fd0a4f28419497f9722a3daafe3b4186f6b6457e0908390a3600180547fffffffffffffffffffffffff0000000000000000000000000000000000000000169055565b3373ffffffffffffffffffffffffffffffffffffffff7f00000000000000000000000000000000000000000000000000000000000000001614610569576040517f08c379a000000000000000000000000000000000000000000000000000000000815260040161031e906117e1565b6103488282610bf5565b60015473ffffffffffffffffffffffffffffffffffffffff1633146105c4576040517f08c379a000000000000000000000000000000000000000000000000000000000815260040161031e9061179f565b600455565b6040517f70a0823100000000000000000000000000000000000000000000000000000000815260009073ffffffffffffffffffffffffffffffffffffffff7f000000000000000000000000000000000000000000000000000000000000000016906370a082319061063e903090600401611641565b60206040518083038186803b15801561065657600080fd5b505afa15801561066a573d6000803e3d6000fd5b505050506040513d601f19601f8201168201806040525081019061068e91906117fc565b905090565b60015473ffffffffffffffffffffffffffffffffffffffff1633146106e4576040517f08c379a000000000000000000000000000000000000000000000000000000000815260040161031e9061179f565b600280547fffffffffffffffffffffffff00000000000000000000000000000000000000001673ffffffffffffffffffffffffffffffffffffffff92909216919091179055565b6060600a60008360028111156107435761074361181d565b60028111156107545761075461181d565b815260200190815260200160002060006009600085600281111561077a5761077a61181d565b600281111561078b5761078b61181d565b81526020019081526020016000205481526020019081526020016000208054806020026020016040519081016040528092919081815260200182805480156107f257602002820191906000526020600020905b8154815260200190600101908083116107de575b50505050509050919050565b600454610837576040517f08c379a000000000000000000000000000000000000000000000000000000000815260040161031e9061187e565b6006546040517f70a0823100000000000000000000000000000000000000000000000000000000815273ffffffffffffffffffffffffffffffffffffffff7f000000000000000000000000000000000000000000000000000000000000000016906370a08231906108ac903090600401611641565b60206040518083038186803b1580156108c457600080fd5b505afa1580156108d8573d6000803e3d6000fd5b505050506040513d601f19601f820116820180604052508101906108fc91906117fc565b1015610934576040517f08c379a000000000000000000000000000000000000000000000000000000000815260040161031e906118e8565b610942600454600654610e5c565b6005819055600090815260086020526040902080548291907fffffffffffffffffffffffffffffffffffffffffffffffffffffffffffffff001660018360028111156109905761099061181d565b02179055506003546040517f56f689c000000000000000000000000000000000000000000000000000000000815273ffffffffffffffffffffffffffffffffffffffff909116906356f689c0906109ee908490600090600401611933565b600060405180830381600087803b158015610a0857600080fd5b505af1158015610a1c573d6000803e3d6000fd5b5050505050565b60015473ffffffffffffffffffffffffffffffffffffffff163314610a74576040517f08c379a000000000000000000000000000000000000000000000000000000000815260040161031e9061179f565b73ffffffffffffffffffffffffffffffffffffffff8116610ac1576040517f08c379a000000000000000000000000000000000000000000000000000000000815260040161031e906119a6565b60015460405173ffffffffffffffffffffffffffffffffffffffff8084169216907f8be0079c531659141344cd1fd0a4f28419497f9722a3daafe3b4186f6b6457e090600090a3600180547fffffffffffffffffffffffff00000000000000000000000000000000000000001673ffffffffffffffffffffffffffffffffffffffff92909216919091179055565b610bf08363a9059cbb60e01b8484604051602401610b6e9291906119b6565b604080517fffffffffffffffffffffffffffffffffffffffffffffffffffffffffffffffe08184030181529190526020810180517bffffffffffffffffffffffffffffffffffffffffffffffffffffffff167fffffffff0000000000000000000000000000000000000000000000000000000090931692909217909152610fb1565b505050565b8160055414610c30576040517f08c379a000000000000000000000000000000000000000000000000000000000815260040161031e90611a03565b60055460009081526008602052604081205460ff1690600990826002811115610c5b57610c5b61181d565b6002811115610c6c57610c6c61181d565b81526020019081526020016000206000815480929190610c8b90611a42565b9190505550610c9a8183611067565b600a6000836002811115610cb057610cb061181d565b6002811115610cc157610cc161181d565b8152602001908152602001600020600060096000856002811115610ce757610ce761181d565b6002811115610cf857610cf861181d565b81526020019081526020016000205481526020019081526020016000209080519060200190610d28929190611544565b50600360009054906101000a900473ffffffffffffffffffffffffffffffffffffffff1673ffffffffffffffffffffffffffffffffffffffff16635583e81c6040518163ffffffff1660e01b815260040160206040518083038186803b158015610d9157600080fd5b505afa158015610da5573d6000803e3d6000fd5b505050506040513d601f19601f82011682018060405250810190610dc991906117fc565b6007556003546040517f56f689c000000000000000000000000000000000000000000000000000000000815273ffffffffffffffffffffffffffffffffffffffff909116906356f689c090610e25908490600190600401611933565b600060405180830381600087803b158015610e3f57600080fd5b505af1158015610e53573d6000803e3d6000fd5b50505050505050565b60007f000000000000000000000000000000000000000000000000000000000000000073ffffffffffffffffffffffffffffffffffffffff16634000aea07f000000000000000000000000000000000000000000000000000000000000000084866000604051602001610ed0929190611a7b565b6040516020818303038152906040526040518463ffffffff1660e01b8152600401610efd93929190611b09565b602060405180830381600087803b158015610f1757600080fd5b505af1158015610f2b573d6000803e3d6000fd5b505050506040513d601f19601f82011682018060405250810190610f4f9190611b52565b506000610f718460003060008089815260200190815260200160002054611353565b600085815260208190526040902054909150610f8e906001611b73565b600085815260208190526040902055610fa784826113ab565b9150505b92915050565b6000611013826040518060400160405280602081526020017f5361666545524332303a206c6f772d6c6576656c2063616c6c206661696c65648152508573ffffffffffffffffffffffffffffffffffffffff166113de9092919063ffffffff16565b805190915015610bf057808060200190518101906110319190611b52565b610bf0576040517f08c379a000000000000000000000000000000000000000000000000000000000815260040161031e90611be3565b60606000600360009054906101000a900473ffffffffffffffffffffffffffffffffffffffff1673ffffffffffffffffffffffffffffffffffffffff16636de28ce96040518163ffffffff1660e01b815260040160206040518083038186803b1580156110d357600080fd5b505afa1580156110e7573d6000803e3d6000fd5b505050506040513d601f19601f8201168201806040525081019061110b91906117fc565b90506000600360009054906101000a900473ffffffffffffffffffffffffffffffffffffffff1673ffffffffffffffffffffffffffffffffffffffff16635583e81c6040518163ffffffff1660e01b815260040160206040518083038186803b15801561117757600080fd5b505afa15801561118b573d6000803e3d6000fd5b505050506040513d601f19601f820116820180604052508101906111af91906117fc565b6003546040517fbaa2efbb00000000000000000000000000000000000000000000000000000000815291925060009173ffffffffffffffffffffffffffffffffffffffff9091169063baa2efbb9061120d9089908690600401611bf3565b60006040518083038186803b15801561122557600080fd5b505afa158015611239573d6000803e3d6000fd5b505050506040513d6000823e601f3d9081017fffffffffffffffffffffffffffffffffffffffffffffffffffffffffffffffe016820160405261127f9190810190611eea565b905060008367ffffffffffffffff81111561129c5761129c611c01565b6040519080825280602002602001820160405280156112c5578160200160208202803683370190505b50905060005b8481101561134857826020015187826040516020016112eb929190611a7b565b6040516020818303038152906040528051906020012060001c61130e9190611f54565b611319906001611b73565b82828151811061132b5761132b611f68565b60209081029190910101528061134081611a42565b9150506112cb565b509695505050505050565b60008484848460405160200161136c9493929190611f97565b604080517fffffffffffffffffffffffffffffffffffffffffffffffffffffffffffffffe0818403018152919052805160209091012095945050505050565b600082826040516020016113c0929190611fcc565b60405160208183030381529060405280519060200120905092915050565b60606113ed84846000856113f7565b90505b9392505050565b606082471015611433576040517f08c379a000000000000000000000000000000000000000000000000000000000815260040161031e90612044565b843b61146b576040517f08c379a000000000000000000000000000000000000000000000000000000000815260040161031e90612086565b6000808673ffffffffffffffffffffffffffffffffffffffff16858760405161149491906120b8565b60006040518083038185875af1925050503d80600081146114d1576040519150601f19603f3d011682016040523d82523d6000602084013e6114d6565b606091505b50915091506114e68282866114f1565b979650505050505050565b606083156115005750816113f0565b8251156115105782518084602001fd5b816040517f08c379a000000000000000000000000000000000000000000000000000000000815260040161031e91906120c2565b82805482825590600052602060002090810192821561157f579160200282015b8281111561157f578251825591602001919060010190611564565b5061158b92915061158f565b5090565b5b8082111561158b5760008155600101611590565b600073ffffffffffffffffffffffffffffffffffffffff8216610fab565b6115cb816115a4565b81146115d657600080fd5b50565b8035610fab816115c2565b806115cb565b8035610fab816115e4565b6000806040838503121561160b5761160b600080fd5b600061161785856115d9565b9250506020611628858286016115ea565b9150509250929050565b61163b816115a4565b82525050565b60208101610fab8284611632565b8061163b565b60208101610fab828461164f565b60006020828403121561167857611678600080fd5b6000610fa784846115d9565b60006020828403121561169957611699600080fd5b6000610fa784846115ea565b600080604083850312156116bb576116bb600080fd5b600061161785856115ea565b600381106115d657600080fd5b8035610fab816116c7565b6000602082840312156116f4576116f4600080fd5b6000610fa784846116d4565b61170a828261164f565b5060200190565b60200190565b6000611721825190565b808452602093840193830160005b828110156117545781516117438782611700565b96505060208201915060010161172f565b5093949350505050565b602080825281016113f08184611717565b60208082527f4f776e61626c653a2063616c6c6572206973206e6f7420746865206f776e65729101908152611711565b60208082528101610fab8161176f565b601f8152602081017f4f6e6c7920565246436f6f7264696e61746f722063616e2066756c66696c6c0081529050611711565b60208082528101610fab816117af565b8051610fab816115e4565b60006020828403121561181157611811600080fd5b6000610fa784846117f1565b7f4e487b7100000000000000000000000000000000000000000000000000000000600052602160045260246000fd5b60188152602081017f4d75737420686176652076616c6964206b65792068617368000000000000000081529050611711565b60208082528101610fab8161184c565b602b8152602081017f4e6f7420656e6f756768204c494e4b202d2066696c6c20636f6e74726163742081527f7769746820666175636574000000000000000000000000000000000000000000602082015290505b60400190565b60208082528101610fab8161188e565b600381106115d6576115d661181d565b80611912816118f8565b919050565b6000610fab82611908565b61163b81611917565b80151561163b565b604081016119418285611922565b6113f0602083018461192b565b60268152602081017f4f776e61626c653a206e6577206f776e657220697320746865207a65726f206181527f6464726573730000000000000000000000000000000000000000000000000000602082015290506118e2565b60208082528101610fab8161194e565b604081016119c48285611632565b6113f0602083018461164f565b600f8152602081017f57726f6e6720726571756573744964000000000000000000000000000000000081529050611711565b60208082528101610fab816119d1565b7f4e487b7100000000000000000000000000000000000000000000000000000000600052601160045260246000fd5b60007fffffffffffffffffffffffffffffffffffffffffffffffffffffffffffffffff821415611a7457611a74611a13565b5060010190565b604081016119c4828561164f565b60005b83811015611aa4578181015183820152602001611a8c565b83811115611ab3576000848401525b50505050565b6000611ac3825190565b808452602084019350611ada818560208601611a89565b601f017fffffffffffffffffffffffffffffffffffffffffffffffffffffffffffffffe0169290920192915050565b60608101611b178286611632565b611b24602083018561164f565b8181036040830152611b368184611ab9565b95945050505050565b8015156115cb565b8051610fab81611b3f565b600060208284031215611b6757611b67600080fd5b6000610fa78484611b47565b60008219821115611b8657611b86611a13565b500190565b602a8152602081017f5361666545524332303a204552433230206f7065726174696f6e20646964206e81527f6f74207375636365656400000000000000000000000000000000000000000000602082015290506118e2565b60208082528101610fab81611b8b565b604081016119c48285611922565b7f4e487b7100000000000000000000000000000000000000000000000000000000600052604160045260246000fd5b7fffffffffffffffffffffffffffffffffffffffffffffffffffffffffffffffe0601f830116810181811067ffffffffffffffff82111715611c7457611c74611c01565b6040525050565b6000611c8660405190565b90506119128282611c30565b600067ffffffffffffffff821115611cac57611cac611c01565b5060209081020190565b6000611cc9611cc484611c92565b611c7b565b83815290506020808201908402830185811115611ce857611ce8600080fd5b835b81811015611d0a57611cfc87826117f1565b835260209283019201611cea565b5050509392505050565b600082601f830112611d2857611d28600080fd5b8151610fa7848260208601611cb6565b8051610fab816115c2565b6000611d51611cc484611c92565b83815290506020808201908402830185811115611d7057611d70600080fd5b835b81811015611d0a57611d848782611d38565b835260209283019201611d72565b600082601f830112611da657611da6600080fd5b8151610fa7848260208601611d43565b60006101408284031215611dcc57611dcc600080fd5b611dd7610140611c7b565b90506000611de584846117f1565b908201526020611df7848483016117f1565b908201526040611e09848483016117f1565b908201526060611e1b848483016117f1565b90820152608082015167ffffffffffffffff811115611e3c57611e3c600080fd5b611e4884828501611d14565b60808301525060a082015167ffffffffffffffff811115611e6b57611e6b600080fd5b611e7784828501611d92565b60a08301525060c082015167ffffffffffffffff811115611e9a57611e9a600080fd5b611ea684828501611d14565b60c08301525060e0611eba848285016117f1565b90820152610100611ecd848483016117f1565b90820152610120611ee084848301611b47565b9082015292915050565b600060208284031215611eff57611eff600080fd5b815167ffffffffffffffff811115611f1957611f19600080fd5b610fa784828501611db6565b7f4e487b7100000000000000000000000000000000000000000000000000000000600052601260045260246000fd5b600082611f6357611f63611f25565b500690565b7f4e487b7100000000000000000000000000000000000000000000000000000000600052603260045260246000fd5b60808101611fa5828761164f565b611fb2602083018661164f565b611fbf6040830185611632565b611b36606083018461164f565b611fd6818461164f565b602001611fe3818361164f565b60200192915050565b60268152602081017f416464726573733a20696e73756666696369656e742062616c616e636520666f81527f722063616c6c0000000000000000000000000000000000000000000000000000602082015290506118e2565b60208082528101610fab81611fec565b601d8152602081017f416464726573733a2063616c6c20746f206e6f6e2d636f6e747261637400000081529050611711565b60208082528101610fab81612054565b60006120a0825190565b6120ae818560208601611a89565b9290920192915050565b610fab8183612096565b602080825281016113f08184611ab956fea264697066735822122042c06a4af28cbe9f8c85a8f133b49276a4cd5c927d4e731ab6f4401e6681740f64736f6c63430008090033",
  "linkReferences": {},
  "deployedLinkReferences": {}
}