{
  "_format": "hh-sol-artifact-1",
  "contractName": "RandomNumberGenerator",
  "sourceName": "contracts/randomNumber.sol",
  "abi": [
    {
      "inputs": [
        {
          "internalType": "address",
          "name": "_vrfCoordinator",
          "type": "address"
        },
        {
          "internalType": "address",
          "name": "_linkToken",
          "type": "address"
        },
        {
          "internalType": "uint256",
          "name": "_fee",
          "type": "uint256"
        },
        {
          "internalType": "bytes32",
          "name": "_keyhash",
          "type": "bytes32"
        }
      ],
      "stateMutability": "nonpayable",
      "type": "constructor"
    },
    {
      "anonymous": false,
      "inputs": [
        {
          "indexed": true,
          "internalType": "address",
          "name": "previousOwner",
          "type": "address"
        },
        {
          "indexed": true,
          "internalType": "address",
          "name": "newOwner",
          "type": "address"
        }
      ],
      "name": "OwnershipTransferred",
      "type": "event"
    },
    {
      "inputs": [],
      "name": "checkLinkBalance",
      "outputs": [
        {
          "internalType": "uint256",
          "name": "",
          "type": "uint256"
        }
      ],
      "stateMutability": "view",
      "type": "function"
    },
    {
      "inputs": [],
      "name": "fee",
      "outputs": [
        {
          "internalType": "uint256",
          "name": "",
          "type": "uint256"
        }
      ],
      "stateMutability": "view",
      "type": "function"
    },
    {
      "inputs": [
        {
          "internalType": "enum IPolyLottoRaffle.RaffleCategory",
          "name": "_category",
          "type": "uint8"
        }
      ],
      "name": "getWinningTickets",
      "outputs": [],
      "stateMutability": "nonpayable",
      "type": "function"
    },
    {
      "inputs": [],
      "name": "keyHash",
      "outputs": [
        {
          "internalType": "bytes32",
          "name": "",
          "type": "bytes32"
        }
      ],
      "stateMutability": "view",
      "type": "function"
    },
    {
      "inputs": [],
      "name": "latestRaffleId",
      "outputs": [
        {
          "internalType": "uint256",
          "name": "",
          "type": "uint256"
        }
      ],
      "stateMutability": "view",
      "type": "function"
    },
    {
      "inputs": [],
      "name": "latestRequestId",
      "outputs": [
        {
          "internalType": "bytes32",
          "name": "",
          "type": "bytes32"
        }
      ],
      "stateMutability": "view",
      "type": "function"
    },
    {
      "inputs": [],
      "name": "owner",
      "outputs": [
        {
          "internalType": "address",
          "name": "",
          "type": "address"
        }
      ],
      "stateMutability": "view",
      "type": "function"
    },
    {
      "inputs": [],
      "name": "polylottoKeeper",
      "outputs": [
        {
          "internalType": "address",
          "name": "",
          "type": "address"
        }
      ],
      "stateMutability": "view",
      "type": "function"
    },
    {
      "inputs": [],
      "name": "polylottoRaffle",
      "outputs": [
        {
          "internalType": "address",
          "name": "",
          "type": "address"
        }
      ],
      "stateMutability": "view",
      "type": "function"
    },
    {
      "inputs": [],
      "name": "randomResult",
      "outputs": [
        {
          "internalType": "uint32",
          "name": "",
          "type": "uint32"
        }
      ],
      "stateMutability": "view",
      "type": "function"
    },
    {
      "inputs": [
        {
          "internalType": "bytes32",
          "name": "requestId",
          "type": "bytes32"
        },
        {
          "internalType": "uint256",
          "name": "randomness",
          "type": "uint256"
        }
      ],
      "name": "rawFulfillRandomness",
      "outputs": [],
      "stateMutability": "nonpayable",
      "type": "function"
    },
    {
      "inputs": [],
      "name": "renounceOwnership",
      "outputs": [],
      "stateMutability": "nonpayable",
      "type": "function"
    },
    {
      "inputs": [
        {
          "internalType": "uint256",
          "name": "_fee",
          "type": "uint256"
        }
      ],
      "name": "setFee",
      "outputs": [],
      "stateMutability": "nonpayable",
      "type": "function"
    },
    {
      "inputs": [
        {
          "internalType": "address",
          "name": "_polylottoKeeper",
          "type": "address"
        }
      ],
      "name": "setKeeperAddress",
      "outputs": [],
      "stateMutability": "nonpayable",
      "type": "function"
    },
    {
      "inputs": [
        {
          "internalType": "bytes32",
          "name": "_keyHash",
          "type": "bytes32"
        }
      ],
      "name": "setKeyHash",
      "outputs": [],
      "stateMutability": "nonpayable",
      "type": "function"
    },
    {
      "inputs": [
        {
          "internalType": "address",
          "name": "_polylottoAddress",
          "type": "address"
        }
      ],
      "name": "setPolyLottoAddress",
      "outputs": [],
      "stateMutability": "nonpayable",
      "type": "function"
    },
    {
      "inputs": [
        {
          "internalType": "address",
          "name": "newOwner",
          "type": "address"
        }
      ],
      "name": "transferOwnership",
      "outputs": [],
      "stateMutability": "nonpayable",
      "type": "function"
    },
    {
      "inputs": [],
      "name": "viewLatestRaffleId",
      "outputs": [
        {
          "internalType": "uint256",
          "name": "",
          "type": "uint256"
        }
      ],
      "stateMutability": "view",
      "type": "function"
    },
    {
      "inputs": [
        {
          "internalType": "address",
          "name": "_tokenAddress",
          "type": "address"
        },
        {
          "internalType": "uint256",
          "name": "_tokenAmount",
          "type": "uint256"
        }
      ],
      "name": "withdrawTokens",
      "outputs": [],
      "stateMutability": "nonpayable",
      "type": "function"
    }
  ],
  "bytecode": "0x60c06040523480156200001157600080fd5b5060405162001ef238038062001ef28339810160408190526200003491620000d8565b6001600160601b0319606085811b821660a05284901b166080526000620000583390565b600180546001600160a01b0319166001600160a01b038316908117909155604051919250906000907f8be0079c531659141344cd1fd0a4f28419497f9722a3daafe3b4186f6b6457e0908290a35060079190915560045550620001739050565b8051620000c58162000152565b92915050565b8051620000c5816200016c565b60008060008060808587031215620000ee578384fd5b620000fc86858701620000b8565b935060206200010e87828801620000b8565b93505060406200012187828801620000cb565b92505060606200013487828801620000cb565b91505092959194509250565b60006001600160a01b038216620000c5565b6200015d8162000140565b81146200016957600080fd5b50565b806200015d565b60805160601c60a05160601c611d3e620001b4600039600081816104a70152610ba401526000818161056a0152818161073f0152610b680152611d3e6000f3fe608060405234801561001057600080fd5b50600436106101515760003560e01c80638da5cb5b116100cd578063a9ca8b0b11610081578063d45f5e6e11610066578063d45f5e6e146102a5578063ddca3f43146102ae578063f2fde38b146102b757600080fd5b8063a9ca8b0b14610272578063bc4db42e1461029257600080fd5b806398544710116100b25780639854471014610244578063a24bf4ff14610257578063a5dd46861461025f57600080fd5b80638da5cb5b1461021357806394985ddd1461023157600080fd5b80633f1628d01161012457806361728f391161010957806361728f39146101ef57806369fe0e2d146101f8578063715018a61461020b57600080fd5b80633f1628d0146101bf57806342619f66146101d257600080fd5b806306b091f914610156578063183862881461016b5780631aa46f59146101a157806325f08c8a146101b7575b600080fd5b61016961016436600461146a565b6102ca565b005b60025461018b9073ffffffffffffffffffffffffffffffffffffffff1681565b6040516101989190611928565b60405180910390f35b6101aa60055481565b6040516101989190611987565b6008546101aa565b6101696101cd36600461144d565b61032f565b6006546101e29063ffffffff1681565b6040516101989190611ac7565b6101aa60045481565b6101696102063660046114bf565b6103ad565b6101696103e9565b60015473ffffffffffffffffffffffffffffffffffffffff1661018b565b61016961023f3660046114dc565b61048f565b6101696102523660046114bf565b6104ee565b6101aa61052a565b61016961026d36600461144d565b6105f4565b60035461018b9073ffffffffffffffffffffffffffffffffffffffff1681565b6101696102a03660046114fa565b610672565b6101aa60085481565b6101aa60075481565b6101696102c536600461144d565b61086d565b60015473ffffffffffffffffffffffffffffffffffffffff16331461030a5760405162461bcd60e51b815260040161030190611a77565b60405180910390fd5b61032b73ffffffffffffffffffffffffffffffffffffffff83163383610965565b5050565b60015473ffffffffffffffffffffffffffffffffffffffff1633146103665760405162461bcd60e51b815260040161030190611a77565b600380547fffffffffffffffffffffffff00000000000000000000000000000000000000001673ffffffffffffffffffffffffffffffffffffffff92909216919091179055565b60015473ffffffffffffffffffffffffffffffffffffffff1633146103e45760405162461bcd60e51b815260040161030190611a77565b600755565b60015473ffffffffffffffffffffffffffffffffffffffff1633146104205760405162461bcd60e51b815260040161030190611a77565b60015460405160009173ffffffffffffffffffffffffffffffffffffffff16907f8be0079c531659141344cd1fd0a4f28419497f9722a3daafe3b4186f6b6457e0908390a3600180547fffffffffffffffffffffffff0000000000000000000000000000000000000000169055565b3373ffffffffffffffffffffffffffffffffffffffff7f000000000000000000000000000000000000000000000000000000000000000016146104e45760405162461bcd60e51b815260040161030190611a87565b61032b82826109ed565b60015473ffffffffffffffffffffffffffffffffffffffff1633146105255760405162461bcd60e51b815260040161030190611a77565b600455565b6040517f70a0823100000000000000000000000000000000000000000000000000000000815260009073ffffffffffffffffffffffffffffffffffffffff7f000000000000000000000000000000000000000000000000000000000000000016906370a082319061059f903090600401611928565b60206040518083038186803b1580156105b757600080fd5b505afa1580156105cb573d6000803e3d6000fd5b505050506040513d601f19601f820116820180604052508101906105ef919061154c565b905090565b60015473ffffffffffffffffffffffffffffffffffffffff16331461062b5760405162461bcd60e51b815260040161030190611a77565b600280547fffffffffffffffffffffffff00000000000000000000000000000000000000001673ffffffffffffffffffffffffffffffffffffffff92909216919091179055565b60025473ffffffffffffffffffffffffffffffffffffffff1633146106a95760405162461bcd60e51b815260040161030190611aa7565b60025473ffffffffffffffffffffffffffffffffffffffff1633146106e05760405162461bcd60e51b815260040161030190611a67565b6004546106ff5760405162461bcd60e51b815260040161030190611a47565b6007546040517f70a0823100000000000000000000000000000000000000000000000000000000815273ffffffffffffffffffffffffffffffffffffffff7f000000000000000000000000000000000000000000000000000000000000000016906370a0823190610774903090600401611928565b60206040518083038186803b15801561078c57600080fd5b505afa1580156107a0573d6000803e3d6000fd5b505050506040513d601f19601f820116820180604052508101906107c4919061154c565b10156107e25760405162461bcd60e51b815260040161030190611a37565b6107f0600454600754610b64565b6005819055600090815260096020526040902080548291907fffffffffffffffffffffffffffffffffffffffffffffffffffffffffffffff00166001836002811115610865577f4e487b7100000000000000000000000000000000000000000000000000000000600052602160045260246000fd5b021790555050565b60015473ffffffffffffffffffffffffffffffffffffffff1633146108a45760405162461bcd60e51b815260040161030190611a77565b73ffffffffffffffffffffffffffffffffffffffff81166108d75760405162461bcd60e51b815260040161030190611a17565b60015460405173ffffffffffffffffffffffffffffffffffffffff8084169216907f8be0079c531659141344cd1fd0a4f28419497f9722a3daafe3b4186f6b6457e090600090a3600180547fffffffffffffffffffffffff00000000000000000000000000000000000000001673ffffffffffffffffffffffffffffffffffffffff92909216919091179055565b6109e88363a9059cbb60e01b8484604051602401610984929190611936565b60408051601f198184030181529190526020810180517bffffffffffffffffffffffffffffffffffffffffffffffffffffffff167fffffffff0000000000000000000000000000000000000000000000000000000090931692909217909152610cb9565b505050565b8160055414610a0e5760405162461bcd60e51b815260040161030190611a27565b60055460009081526009602052604081205460ff1690610a2e8284610d55565b6003546040517ff2ee6ad700000000000000000000000000000000000000000000000000000000815291925073ffffffffffffffffffffffffffffffffffffffff169063f2ee6ad790610a8790859085906004016119d8565b600060405180830381600087803b158015610aa157600080fd5b505af1158015610ab5573d6000803e3d6000fd5b50505050600360009054906101000a900473ffffffffffffffffffffffffffffffffffffffff1673ffffffffffffffffffffffffffffffffffffffff16635583e81c6040518163ffffffff1660e01b8152600401602060405180830381600087803b158015610b2357600080fd5b505af1158015610b37573d6000803e3d6000fd5b505050506040513d601f19601f82011682018060405250810190610b5b919061154c565b60085550505050565b60007f000000000000000000000000000000000000000000000000000000000000000073ffffffffffffffffffffffffffffffffffffffff16634000aea07f000000000000000000000000000000000000000000000000000000000000000084866000604051602001610bd8929190611995565b6040516020818303038152906040526040518463ffffffff1660e01b8152600401610c0593929190611951565b602060405180830381600087803b158015610c1f57600080fd5b505af1158015610c33573d6000803e3d6000fd5b505050506040513d601f19601f82011682018060405250810190610c5791906114a2565b506000610c798460003060008089815260200190815260200160002054611077565b600085815260208190526040902054909150610c96906001611b15565b600085815260208190526040902055610caf84826110b1565b9150505b92915050565b6000610d1b826040518060400160405280602081526020017f5361666545524332303a206c6f772d6c6576656c2063616c6c206661696c65648152508573ffffffffffffffffffffffffffffffffffffffff166110e49092919063ffffffff16565b8051909150156109e85780806020019051810190610d3991906114a2565b6109e85760405162461bcd60e51b815260040161030190611ab7565b60606000600360009054906101000a900473ffffffffffffffffffffffffffffffffffffffff1673ffffffffffffffffffffffffffffffffffffffff16636de28ce96040518163ffffffff1660e01b8152600401602060405180830381600087803b158015610dc357600080fd5b505af1158015610dd7573d6000803e3d6000fd5b505050506040513d601f19601f82011682018060405250810190610dfb919061154c565b90506000600360009054906101000a900473ffffffffffffffffffffffffffffffffffffffff1673ffffffffffffffffffffffffffffffffffffffff16635583e81c6040518163ffffffff1660e01b8152600401602060405180830381600087803b158015610e6957600080fd5b505af1158015610e7d573d6000803e3d6000fd5b505050506040513d601f19601f82011682018060405250810190610ea1919061154c565b6003546040517fbaa2efbb00000000000000000000000000000000000000000000000000000000815291925060009173ffffffffffffffffffffffffffffffffffffffff9091169063baa2efbb90610eff90899086906004016119f8565b600060405180830381600087803b158015610f1957600080fd5b505af1158015610f2d573d6000803e3d6000fd5b505050506040513d6000823e601f3d908101601f19168201604052610f559190810190611517565b905060008367ffffffffffffffff811115610f99577f4e487b7100000000000000000000000000000000000000000000000000000000600052604160045260246000fd5b604051908082528060200260200182016040528015610fc2578160200160208202803683370190505b50905060005b8481101561106c5782602001518782604051602001610fe8929190611995565b6040516020818303038152906040528051906020012060001c61100b9190611bf6565b611016906001611b15565b82828151811061104f577f4e487b7100000000000000000000000000000000000000000000000000000000600052603260045260246000fd5b60209081029190910101528061106481611bbd565b915050610fc8565b509695505050505050565b60008484848460405160200161109094939291906119a3565b60408051601f19818403018152919052805160209091012095945050505050565b600082826040516020016110c69291906118fe565b60405160208183030381529060405280519060200120905092915050565b60606110f384846000856110fd565b90505b9392505050565b60608247101561111f5760405162461bcd60e51b815260040161030190611a57565b843b61113d5760405162461bcd60e51b815260040161030190611a97565b6000808673ffffffffffffffffffffffffffffffffffffffff168587604051611166919061191e565b60006040518083038185875af1925050503d80600081146111a3576040519150601f19603f3d011682016040523d82523d6000602084013e6111a8565b606091505b50915091506111b88282866111c3565b979650505050505050565b606083156111d25750816110f6565b8251156111e25782518084602001fd5b8160405162461bcd60e51b81526004016103019190611a06565b600061120f61120a84611af1565b611ad5565b9050808382526020820190508285602086028501111561122e57600080fd5b60005b858110156112585761124387836112c4565b83526020928301929190910190600101611231565b5050509392505050565b600061127061120a84611af1565b9050808382526020820190508285602086028501111561128f57600080fd5b60005b85811015611258576112a48783611442565b83526020928301929190910190600101611292565b8035610cb381611cd9565b8051610cb381611cd9565b600082601f8301126112df578081fd5b8151610caf8482602086016111fc565b600082601f8301126112ff578081fd5b8151610caf848260208601611262565b8051610cb381611ced565b8035610cb381611cf5565b8035610cb381611cfb565b60006101208284031215611342578081fd5b61134d610120611ad5565b9050600061135b8484611442565b81830152602061136d85828601611442565b90830152604061137f85858301611442565b90830152606061139185858301611442565b90830152608083015167ffffffffffffffff8111156113ae578182fd5b6113ba858286016112ef565b60808401525060a083015167ffffffffffffffff8111156113d9578182fd5b6113e5858286016112cf565b60a08401525060c083015167ffffffffffffffff811115611404578182fd5b611410858286016112ef565b60c0840152505060e061142584828501611442565b9082015261010061143884848301611442565b9082015292915050565b8051610cb381611cf5565b60006020828403121561145e578081fd5b6110f6838284016112b9565b6000806040838503121561147c578081fd5b611488848285016112b9565b915060206114988582860161131a565b9150509250929050565b6000602082840312156114b3578081fd5b6110f68382840161130f565b6000602082840312156114d0578081fd5b6110f68382840161131a565b600080604083850312156114ee578182fd5b6114888483850161131a565b60006020828403121561150b578081fd5b6110f683828401611325565b600060208284031215611528578081fd5b8082015167ffffffffffffffff811115611540578182fd5b610caf84828501611330565b60006020828403121561155d578081fd5b6110f683828401611442565b61157382826115cf565b5060200190565b61158381611b2d565b82525050565b6000611593825190565b8084526020938401938301825b828110156115c55781516115b48782611569565b9650506020820191506001016115a0565b5093949350505050565b80611583565b60006115df825190565b8084526020840193506115f6818560208601611b60565b601f01601f19169290920192915050565b6000611611825190565b61161f818560208601611b60565b9290920192915050565b61158381611b55565b60268152602081017f4f776e61626c653a206e6577206f776e657220697320746865207a65726f206181527f6464726573730000000000000000000000000000000000000000000000000000602082015290505b60400190565b600f8152602081017f57726f6e67207265717565737449640000000000000000000000000000000000815290505b60200190565b602b8152602081017f4e6f7420656e6f756768204c494e4b202d2066696c6c20636f6e74726163742081527f776974682066617563657400000000000000000000000000000000000000000060208201529050611686565b60188152602081017f4d75737420686176652076616c6964206b657920686173680000000000000000815290506116ba565b60268152602081017f416464726573733a20696e73756666696369656e742062616c616e636520666f81527f722063616c6c000000000000000000000000000000000000000000000000000060208201529050611686565b60148152602081017f4f6e6c7920506f6c794c6f74746f4b6565706572000000000000000000000000815290506116ba565b60208082527f4f776e61626c653a2063616c6c6572206973206e6f7420746865206f776e657291019081526116ba565b601f8152602081017f4f6e6c7920565246436f6f7264696e61746f722063616e2066756c66696c6c00815290506116ba565b601d8152602081017f416464726573733a2063616c6c20746f206e6f6e2d636f6e7472616374000000815290506116ba565b60138152602081017f6f6e6c79206b6565706572206164647265737300000000000000000000000000815290506116ba565b602a8152602081017f5361666545524332303a204552433230206f7065726174696f6e20646964206e81527f6f7420737563636565640000000000000000000000000000000000000000000060208201529050611686565b63ffffffff8116611583565b61190881846115cf565b60200161191581836115cf565b60200192915050565b610cb38183611607565b60208101610cb3828461157a565b60408101611944828561157a565b6110f660208301846115cf565b6060810161195f828661157a565b61196c60208301856115cf565b818103604083015261197e81846115d5565b95945050505050565b60208101610cb382846115cf565b6040810161194482856115cf565b608081016119b182876115cf565b6119be60208301866115cf565b6119cb604083018561157a565b61197e60608301846115cf565b604081016119e68285611629565b81810360208301526110f38184611589565b604081016119448285611629565b602080825281016110f681846115d5565b60208082528101610cb381611632565b60208082528101610cb38161168c565b60208082528101610cb3816116c0565b60208082528101610cb381611718565b60208082528101610cb38161174a565b60208082528101610cb3816117a2565b60208082528101610cb3816117d4565b60208082528101610cb381611804565b60208082528101610cb381611836565b60208082528101610cb381611868565b60208082528101610cb38161189a565b60208101610cb382846118f2565b6000611ae060405190565b9050611aec8282611b90565b919050565b600067ffffffffffffffff821115611b0b57611b0b611c97565b5060209081020190565b60008219821115611b2857611b28611c0a565b500190565b600073ffffffffffffffffffffffffffffffffffffffff8216610cb3565b80611aec81611cc6565b6000610cb382611b4b565b60005b83811015611b7b578181015183820152602001611b63565b83811115611b8a576000848401525b50505050565b601f19601f830116810181811067ffffffffffffffff82111715611bb657611bb6611c97565b6040525050565b60007fffffffffffffffffffffffffffffffffffffffffffffffffffffffffffffffff821415611bef57611bef611c0a565b5060010190565b600082611c0557611c05611c39565b500690565b7f4e487b7100000000000000000000000000000000000000000000000000000000600052601160045260246000fd5b7f4e487b7100000000000000000000000000000000000000000000000000000000600052601260045260246000fd5b7f4e487b7100000000000000000000000000000000000000000000000000000000600052602160045260246000fd5b7f4e487b7100000000000000000000000000000000000000000000000000000000600052604160045260246000fd5b60038110611cd657611cd6611c68565b50565b611ce281611b2d565b8114611cd657600080fd5b801515611ce2565b80611ce2565b60038110611cd657600080fdfea264697066735822122038fa013936e10fa17dd1c1b0c618fb158e412ae178b07359bbba38e6f1a3b4a164736f6c63430008040033",
  "linkReferences": {},
  "deployedLinkReferences": {}
}