{
  "_format": "hh-sol-artifact-1",
  "contractName": "PolyLottoPriceUpdater",
  "sourceName": "contracts/priceUpdater.sol",
  "abi": [
    {
      "inputs": [
        {
          "internalType": "address",
          "name": "_PolyLottoToken",
          "type": "address"
        },
        {
          "internalType": "address",
          "name": "_stableTokenAddress",
          "type": "address"
        },
        {
          "internalType": "string",
          "name": "_stableTokenName",
          "type": "string"
        }
      ],
      "stateMutability": "nonpayable",
      "type": "constructor"
    },
    {
      "anonymous": false,
      "inputs": [
        {
          "indexed": true,
          "internalType": "address",
          "name": "previousOwner",
          "type": "address"
        },
        {
          "indexed": true,
          "internalType": "address",
          "name": "newOwner",
          "type": "address"
        }
      ],
      "name": "OwnershipTransferred",
      "type": "event"
    },
    {
      "inputs": [],
      "name": "DexRouter",
      "outputs": [
        {
          "internalType": "string",
          "name": "Dex",
          "type": "string"
        },
        {
          "internalType": "contract IUniswapV2Router02",
          "name": "routerAddress",
          "type": "address"
        }
      ],
      "stateMutability": "view",
      "type": "function"
    },
    {
      "inputs": [],
      "name": "PolyLottoToken",
      "outputs": [
        {
          "internalType": "address",
          "name": "",
          "type": "address"
        }
      ],
      "stateMutability": "view",
      "type": "function"
    },
    {
      "inputs": [],
      "name": "_stableToken",
      "outputs": [
        {
          "internalType": "string",
          "name": "TokenName",
          "type": "string"
        },
        {
          "internalType": "address",
          "name": "TokenAddress",
          "type": "address"
        }
      ],
      "stateMutability": "view",
      "type": "function"
    },
    {
      "inputs": [],
      "name": "operatorAddress",
      "outputs": [
        {
          "internalType": "address",
          "name": "",
          "type": "address"
        }
      ],
      "stateMutability": "view",
      "type": "function"
    },
    {
      "inputs": [],
      "name": "owner",
      "outputs": [
        {
          "internalType": "address",
          "name": "",
          "type": "address"
        }
      ],
      "stateMutability": "view",
      "type": "function"
    },
    {
      "inputs": [],
      "name": "polyLottoRaffle",
      "outputs": [
        {
          "internalType": "address",
          "name": "",
          "type": "address"
        }
      ],
      "stateMutability": "view",
      "type": "function"
    },
    {
      "inputs": [],
      "name": "renounceOwnership",
      "outputs": [],
      "stateMutability": "nonpayable",
      "type": "function"
    },
    {
      "inputs": [
        {
          "internalType": "address",
          "name": "_operator",
          "type": "address"
        }
      ],
      "name": "setOperator",
      "outputs": [],
      "stateMutability": "nonpayable",
      "type": "function"
    },
    {
      "inputs": [
        {
          "internalType": "address",
          "name": "_polylottoAddress",
          "type": "address"
        }
      ],
      "name": "setPolyLottoAddress",
      "outputs": [],
      "stateMutability": "nonpayable",
      "type": "function"
    },
    {
      "inputs": [
        {
          "internalType": "string",
          "name": "_dexName",
          "type": "string"
        },
        {
          "internalType": "address",
          "name": "_routerAddress",
          "type": "address"
        }
      ],
      "name": "setRouter",
      "outputs": [],
      "stateMutability": "nonpayable",
      "type": "function"
    },
    {
      "inputs": [
        {
          "internalType": "address",
          "name": "newOwner",
          "type": "address"
        }
      ],
      "name": "transferOwnership",
      "outputs": [],
      "stateMutability": "nonpayable",
      "type": "function"
    },
    {
      "inputs": [
        {
          "internalType": "address",
          "name": "_newTokenAddress",
          "type": "address"
        }
      ],
      "name": "updatePolyLottoToken",
      "outputs": [],
      "stateMutability": "nonpayable",
      "type": "function"
    },
    {
      "inputs": [],
      "name": "updatePrice",
      "outputs": [],
      "stateMutability": "nonpayable",
      "type": "function"
    },
    {
      "inputs": [
        {
          "internalType": "address",
          "name": "_newTokenAddress",
          "type": "address"
        },
        {
          "internalType": "string",
          "name": "_newTokenName",
          "type": "string"
        }
      ],
      "name": "updateStableToken",
      "outputs": [],
      "stateMutability": "nonpayable",
      "type": "function"
    }
  ],
  "bytecode": "0x60806040523480156200001157600080fd5b5060405162001763380380620017638339810160408190526200003491620002eb565b600080546001600160a01b031916339081178255604051909182917f8be0079c531659141344cd1fd0a4f28419497f9722a3daafe3b4186f6b6457e0908290a350600380546001600160a01b0319166001600160a01b0385161790558051620000a5906004906020840190620000ce565b5050600580546001600160a01b0319166001600160a01b039290921691909117905550620003a8565b828054620000dc9062000377565b90600052602060002090601f0160209004810192826200010057600085556200014b565b82601f106200011b57805160ff19168380011785556200014b565b828001600101855582156200014b579182015b828111156200014b5782518255916020019190600101906200012e565b50620001599291506200015d565b5090565b5b808211156200015957600081556001016200015e565b60006001600160a01b0382165b92915050565b620001928162000174565b81146200019e57600080fd5b50565b8051620001818162000187565b634e487b7160e01b600052604160045260246000fd5b601f19601f83011681016001600160401b0381118282101715620001ec57620001ec620001ae565b6040525050565b6000620001ff60405190565b90506200020d8282620001c4565b919050565b60006001600160401b038211156200022e576200022e620001ae565b601f19601f83011660200192915050565b60005b838110156200025c57818101518382015260200162000242565b838111156200026c576000848401525b50505050565b600062000289620002838462000212565b620001f3565b905082815260208101848484011115620002a657620002a6600080fd5b620002b38482856200023f565b509392505050565b600082601f830112620002d157620002d1600080fd5b8151620002e384826020860162000272565b949350505050565b600080600060608486031215620003055762000305600080fd5b6000620003138686620001a1565b93505060206200032686828701620001a1565b604086015190935090506001600160401b03811115620003495762000349600080fd5b6200035786828701620002bb565b9150509250925092565b634e487b7160e01b600052602260045260246000fd5b6002810460018216806200038c57607f821691505b60208210811415620003a257620003a262000361565b50919050565b6113ab80620003b86000396000f3fe608060405234801561001057600080fd5b50600436106100ea5760003560e01c8063736ce0d41161008c578063b3ab15fb11610066578063b3ab15fb146101e4578063b865ae37146101f7578063f2fde38b1461020d578063fb3de0981461022057600080fd5b8063736ce0d41461019d5780638da5cb5b146101b3578063929a6fcb146101d157600080fd5b80633f1628d0116100c85780633f1628d01461015a5780633ffa1b801461016d578063673a7e281461018d578063715018a61461019557600080fd5b8063127effb2146100ef5780632d36930c1461012557806337ee35d414610145575b600080fd5b60065461010f9073ffffffffffffffffffffffffffffffffffffffff1681565b60405161011c9190610cc4565b60405180910390f35b60035461010f9073ffffffffffffffffffffffffffffffffffffffff1681565b610158610153366004610e4c565b610233565b005b610158610168366004610ea3565b610336565b60075461010f9073ffffffffffffffffffffffffffffffffffffffff1681565b61015861041b565b610158610690565b6101a5610750565b60405161011c929190610fa0565b60005473ffffffffffffffffffffffffffffffffffffffff1661010f565b6101586101df366004610fc7565b6107fe565b6101586101f2366004610ea3565b6108f8565b6101ff6109dd565b60405161011c929190611015565b61015861021b366004610ea3565b6109ec565b61015861022e366004610ea3565b610b17565b60065473ffffffffffffffffffffffffffffffffffffffff16331461028d576040517f08c379a000000000000000000000000000000000000000000000000000000000815260040161028490611069565b60405180910390fd5b73ffffffffffffffffffffffffffffffffffffffff81166102da576040517f08c379a0000000000000000000000000000000000000000000000000000000008152600401610284906110ab565b81516102ed906001906020850190610bfc565b50600280547fffffffffffffffffffffffff00000000000000000000000000000000000000001673ffffffffffffffffffffffffffffffffffffffff9290921691909117905550565b60065473ffffffffffffffffffffffffffffffffffffffff163314610387576040517f08c379a000000000000000000000000000000000000000000000000000000000815260040161028490611069565b73ffffffffffffffffffffffffffffffffffffffff81166103d4576040517f08c379a0000000000000000000000000000000000000000000000000000000008152600401610284906110ab565b600780547fffffffffffffffffffffffff00000000000000000000000000000000000000001673ffffffffffffffffffffffffffffffffffffffff92909216919091179055565b60075473ffffffffffffffffffffffffffffffffffffffff16331480610458575060065473ffffffffffffffffffffffffffffffffffffffff1633145b61048e576040517f08c379a000000000000000000000000000000000000000000000000000000000815260040161028490611069565b6040805160028082526060820183526000926020830190803683375050600554825192935073ffffffffffffffffffffffffffffffffffffffff16918391506000906104dc576104dc6110bb565b73ffffffffffffffffffffffffffffffffffffffff928316602091820292909201015260035482519116908290600190811061051a5761051a6110bb565b73ffffffffffffffffffffffffffffffffffffffff92831660209182029290920101526002546040517fd06ca61f000000000000000000000000000000000000000000000000000000008152600092919091169063d06ca61f9061058c90670de0b6b3a7640000908690600401611157565b60006040518083038186803b1580156105a457600080fd5b505afa1580156105b8573d6000803e3d6000fd5b505050506040513d6000823e601f3d9081017fffffffffffffffffffffffffffffffffffffffffffffffffffffffffffffffe01682016040526105fe9190810190611229565b600754815191925073ffffffffffffffffffffffffffffffffffffffff169063159816509083906001908110610636576106366110bb565b60200260200101516040518263ffffffff1660e01b815260040161065a919061126a565b600060405180830381600087803b15801561067457600080fd5b505af1158015610688573d6000803e3d6000fd5b505050505050565b60005473ffffffffffffffffffffffffffffffffffffffff1633146106e1576040517f08c379a0000000000000000000000000000000000000000000000000000000008152600401610284906112a8565b6000805460405173ffffffffffffffffffffffffffffffffffffffff909116907f8be0079c531659141344cd1fd0a4f28419497f9722a3daafe3b4186f6b6457e0908390a3600080547fffffffffffffffffffffffff0000000000000000000000000000000000000000169055565b60018054819061075f906112e7565b80601f016020809104026020016040519081016040528092919081815260200182805461078b906112e7565b80156107d85780601f106107ad576101008083540402835291602001916107d8565b820191906000526020600020905b8154815290600101906020018083116107bb57829003601f168201915b5050506001909301549192505073ffffffffffffffffffffffffffffffffffffffff1682565b60065473ffffffffffffffffffffffffffffffffffffffff16331461084f576040517f08c379a000000000000000000000000000000000000000000000000000000000815260040161028490611069565b73ffffffffffffffffffffffffffffffffffffffff821661089c576040517f08c379a0000000000000000000000000000000000000000000000000000000008152600401610284906110ab565b80516108af906004906020840190610bfc565b5050600580547fffffffffffffffffffffffff00000000000000000000000000000000000000001673ffffffffffffffffffffffffffffffffffffffff92909216919091179055565b60005473ffffffffffffffffffffffffffffffffffffffff163314610949576040517f08c379a0000000000000000000000000000000000000000000000000000000008152600401610284906112a8565b73ffffffffffffffffffffffffffffffffffffffff8116610996576040517f08c379a0000000000000000000000000000000000000000000000000000000008152600401610284906110ab565b600680547fffffffffffffffffffffffff00000000000000000000000000000000000000001673ffffffffffffffffffffffffffffffffffffffff92909216919091179055565b60048054819061075f906112e7565b60005473ffffffffffffffffffffffffffffffffffffffff163314610a3d576040517f08c379a0000000000000000000000000000000000000000000000000000000008152600401610284906112a8565b73ffffffffffffffffffffffffffffffffffffffff8116610a8a576040517f08c379a000000000000000000000000000000000000000000000000000000000815260040161028490611314565b6000805460405173ffffffffffffffffffffffffffffffffffffffff808516939216917f8be0079c531659141344cd1fd0a4f28419497f9722a3daafe3b4186f6b6457e091a3600080547fffffffffffffffffffffffff00000000000000000000000000000000000000001673ffffffffffffffffffffffffffffffffffffffff92909216919091179055565b60075473ffffffffffffffffffffffffffffffffffffffff163314610b68576040517f08c379a000000000000000000000000000000000000000000000000000000000815260040161028490611069565b73ffffffffffffffffffffffffffffffffffffffff8116610bb5576040517f08c379a0000000000000000000000000000000000000000000000000000000008152600401610284906110ab565b600380547fffffffffffffffffffffffff00000000000000000000000000000000000000001673ffffffffffffffffffffffffffffffffffffffff92909216919091179055565b828054610c08906112e7565b90600052602060002090601f016020900481019282610c2a5760008555610c70565b82601f10610c4357805160ff1916838001178555610c70565b82800160010185558215610c70579182015b82811115610c70578251825591602001919060010190610c55565b50610c7c929150610c80565b5090565b5b80821115610c7c5760008155600101610c81565b600073ffffffffffffffffffffffffffffffffffffffff82165b92915050565b610cbe81610c95565b82525050565b60208101610caf8284610cb5565b7f4e487b7100000000000000000000000000000000000000000000000000000000600052604160045260246000fd5b7fffffffffffffffffffffffffffffffffffffffffffffffffffffffffffffffe0601f830116810181811067ffffffffffffffff82111715610d4557610d45610cd2565b6040525050565b6000610d5760405190565b9050610d638282610d01565b919050565b600067ffffffffffffffff821115610d8257610d82610cd2565b7fffffffffffffffffffffffffffffffffffffffffffffffffffffffffffffffe0601f83011660200192915050565b82818337506000910152565b6000610dd0610dcb84610d68565b610d4c565b905082815260208101848484011115610deb57610deb600080fd5b610df6848285610db1565b509392505050565b600082601f830112610e1257610e12600080fd5b8135610e22848260208601610dbd565b949350505050565b610e3381610c95565b8114610e3e57600080fd5b50565b8035610caf81610e2a565b60008060408385031215610e6257610e62600080fd5b823567ffffffffffffffff811115610e7c57610e7c600080fd5b610e8885828601610dfe565b9250506020610e9985828601610e41565b9150509250929050565b600060208284031215610eb857610eb8600080fd5b6000610e228484610e41565b60005b83811015610edf578181015183820152602001610ec7565b83811115610eee576000848401525b50505050565b6000610efe825190565b808452602084019350610f15818560208601610ec4565b601f017fffffffffffffffffffffffffffffffffffffffffffffffffffffffffffffffe0169290920192915050565b6000610caf73ffffffffffffffffffffffffffffffffffffffff8316610f68565b90565b73ffffffffffffffffffffffffffffffffffffffff1690565b6000610caf82610f44565b6000610caf82610f81565b610cbe81610f8c565b60408082528101610fb18185610ef4565b9050610fc06020830184610f97565b9392505050565b60008060408385031215610fdd57610fdd600080fd5b6000610fe98585610e41565b925050602083013567ffffffffffffffff81111561100957611009600080fd5b610e9985828601610dfe565b604080825281016110268185610ef4565b9050610fc06020830184610cb5565b600c8152602081017f4e6f74206f70657261746f720000000000000000000000000000000000000000815290505b60200190565b60208082528101610caf81611035565b60168152602081017f43616e6e6f74206265207a65726f20616464726573730000000000000000000081529050611063565b60208082528101610caf81611079565b7f4e487b7100000000000000000000000000000000000000000000000000000000600052603260045260246000fd5b6000610caf610f658381565b610cbe816110ea565b6111098282610cb5565b5060200190565b600061111a825190565b808452602093840193830160005b8281101561114d57815161113c87826110ff565b965050602082019150600101611128565b5093949350505050565b6040810161116582856110f6565b8181036020830152610e228184611110565b600067ffffffffffffffff82111561119157611191610cd2565b5060209081020190565b80610e33565b8051610caf8161119b565b60006111ba610dcb84611177565b838152905060208082019084028301858111156111d9576111d9600080fd5b835b818110156111fb576111ed87826111a1565b8352602092830192016111db565b5050509392505050565b600082601f83011261121957611219600080fd5b8151610e228482602086016111ac565b60006020828403121561123e5761123e600080fd5b815167ffffffffffffffff81111561125857611258600080fd5b610e2284828501611205565b80610cbe565b60208101610caf8284611264565b60208082527f4f776e61626c653a2063616c6c6572206973206e6f7420746865206f776e65729101908152611063565b60208082528101610caf81611278565b7f4e487b7100000000000000000000000000000000000000000000000000000000600052602260045260246000fd5b6002810460018216806112fb57607f821691505b6020821081141561130e5761130e6112b8565b50919050565b60208082528101610caf81602681527f4f776e61626c653a206e6577206f776e657220697320746865207a65726f206160208201527f646472657373000000000000000000000000000000000000000000000000000060408201526060019056fea264697066735822122045616f59fc9d6cbb0495f7c72df7686d742d97ef3b796671a05e0a3b984f36b264736f6c63430008090033",
  "linkReferences": {},
  "deployedLinkReferences": {}
}