{
  "_format": "hh-sol-artifact-1",
  "contractName": "Raffle",
  "sourceName": "contracts/Raffle.sol",
  "abi": [
    {
      "inputs": [
        {
          "internalType": "address",
          "name": "_vrfCoordinator",
          "type": "address"
        },
        {
          "internalType": "address",
          "name": "_link",
          "type": "address"
        },
        {
          "internalType": "bytes32",
          "name": "_keyHash",
          "type": "bytes32"
        },
        {
          "internalType": "uint256",
          "name": "_fee",
          "type": "uint256"
        },
        {
          "internalType": "address",
          "name": "_USDCtoken",
          "type": "address"
        }
      ],
      "stateMutability": "nonpayable",
      "type": "constructor"
    },
    {
      "anonymous": false,
      "inputs": [
        {
          "indexed": false,
          "internalType": "address",
          "name": "token",
          "type": "address"
        },
        {
          "indexed": false,
          "internalType": "uint256",
          "name": "amount",
          "type": "uint256"
        }
      ],
      "name": "AdminTokenRecovery",
      "type": "event"
    },
    {
      "anonymous": false,
      "inputs": [
        {
          "indexed": false,
          "internalType": "enum Raffle.RaffleCategory",
          "name": "raffleCategory",
          "type": "uint8"
        },
        {
          "indexed": true,
          "internalType": "uint256",
          "name": "raffleId",
          "type": "uint256"
        },
        {
          "indexed": false,
          "internalType": "uint256",
          "name": "injectedAmount",
          "type": "uint256"
        }
      ],
      "name": "LotteryInjection",
      "type": "event"
    },
    {
      "anonymous": false,
      "inputs": [
        {
          "indexed": false,
          "internalType": "address",
          "name": "treasuryAddress",
          "type": "address"
        },
        {
          "indexed": false,
          "internalType": "address",
          "name": "injectorAddress",
          "type": "address"
        }
      ],
      "name": "NewTreasuryAndInjectorAddresses",
      "type": "event"
    },
    {
      "anonymous": false,
      "inputs": [
        {
          "indexed": false,
          "internalType": "uint256",
          "name": "txIndex",
          "type": "uint256"
        },
        {
          "indexed": false,
          "internalType": "uint256",
          "name": "timestamp",
          "type": "uint256"
        },
        {
          "indexed": false,
          "internalType": "enum Raffle.RaffleCategory",
          "name": "raffleCategory",
          "type": "uint8"
        },
        {
          "indexed": false,
          "internalType": "uint256",
          "name": "noOfTickets",
          "type": "uint256"
        }
      ],
      "name": "NewUserTransaction",
      "type": "event"
    },
    {
      "anonymous": false,
      "inputs": [
        {
          "indexed": true,
          "internalType": "address",
          "name": "previousOwner",
          "type": "address"
        },
        {
          "indexed": true,
          "internalType": "address",
          "name": "newOwner",
          "type": "address"
        }
      ],
      "name": "OwnershipTransferred",
      "type": "event"
    },
    {
      "anonymous": false,
      "inputs": [
        {
          "indexed": false,
          "internalType": "uint256",
          "name": "raffleID",
          "type": "uint256"
        },
        {
          "indexed": false,
          "internalType": "uint256",
          "name": "timeStamp",
          "type": "uint256"
        },
        {
          "indexed": false,
          "internalType": "enum Raffle.RaffleState",
          "name": "raffleState",
          "type": "uint8"
        }
      ],
      "name": "RaffleDeactivated",
      "type": "event"
    },
    {
      "anonymous": false,
      "inputs": [
        {
          "indexed": false,
          "internalType": "enum Raffle.RaffleCategory",
          "name": "category",
          "type": "uint8"
        },
        {
          "indexed": true,
          "internalType": "uint256",
          "name": "raffleId",
          "type": "uint256"
        },
        {
          "indexed": false,
          "internalType": "enum Raffle.RaffleState",
          "name": "raffleState",
          "type": "uint8"
        }
      ],
      "name": "RaffleEnded",
      "type": "event"
    },
    {
      "anonymous": false,
      "inputs": [
        {
          "indexed": true,
          "internalType": "uint256",
          "name": "raffleId",
          "type": "uint256"
        },
        {
          "indexed": false,
          "internalType": "uint256",
          "name": "endTime",
          "type": "uint256"
        },
        {
          "indexed": false,
          "internalType": "uint256",
          "name": "rebootEndTime",
          "type": "uint256"
        },
        {
          "indexed": false,
          "internalType": "enum Raffle.RaffleState",
          "name": "raffleState",
          "type": "uint8"
        }
      ],
      "name": "RaffleOpen",
      "type": "event"
    },
    {
      "anonymous": false,
      "inputs": [
        {
          "indexed": false,
          "internalType": "uint256",
          "name": "raffleID",
          "type": "uint256"
        },
        {
          "indexed": false,
          "internalType": "uint256",
          "name": "timeStamp",
          "type": "uint256"
        },
        {
          "indexed": false,
          "internalType": "enum Raffle.RaffleState",
          "name": "raffleState",
          "type": "uint8"
        }
      ],
      "name": "RaffleReactivated",
      "type": "event"
    },
    {
      "anonymous": false,
      "inputs": [
        {
          "indexed": false,
          "internalType": "enum Raffle.RaffleCategory",
          "name": "raffleCategory",
          "type": "uint8"
        },
        {
          "indexed": true,
          "internalType": "uint256",
          "name": "raffleId",
          "type": "uint256"
        },
        {
          "indexed": false,
          "internalType": "address",
          "name": "buyer",
          "type": "address"
        },
        {
          "indexed": false,
          "internalType": "uint256",
          "name": "noOfTickets",
          "type": "uint256"
        }
      ],
      "name": "RolloverClaimed",
      "type": "event"
    },
    {
      "anonymous": false,
      "inputs": [
        {
          "indexed": false,
          "internalType": "enum Raffle.RaffleCategory",
          "name": "raffleCategory",
          "type": "uint8"
        },
        {
          "indexed": true,
          "internalType": "uint256",
          "name": "raffleId",
          "type": "uint256"
        },
        {
          "indexed": true,
          "internalType": "address",
          "name": "buyer",
          "type": "address"
        },
        {
          "indexed": false,
          "internalType": "uint256",
          "name": "numberTickets",
          "type": "uint256"
        },
        {
          "indexed": false,
          "internalType": "uint256",
          "name": "rafflePool",
          "type": "uint256"
        }
      ],
      "name": "TicketsPurchased",
      "type": "event"
    },
    {
      "anonymous": false,
      "inputs": [
        {
          "indexed": false,
          "internalType": "enum Raffle.RaffleCategory",
          "name": "raffleCategory",
          "type": "uint8"
        },
        {
          "indexed": false,
          "internalType": "address[]",
          "name": "winners",
          "type": "address[]"
        },
        {
          "indexed": false,
          "internalType": "uint256",
          "name": "amount",
          "type": "uint256"
        },
        {
          "indexed": false,
          "internalType": "uint256",
          "name": "timestamp",
          "type": "uint256"
        }
      ],
      "name": "WinnersAwarded",
      "type": "event"
    },
    {
      "anonymous": false,
      "inputs": [
        {
          "indexed": false,
          "internalType": "uint256",
          "name": "raffleID",
          "type": "uint256"
        },
        {
          "indexed": false,
          "internalType": "uint256",
          "name": "amount",
          "type": "uint256"
        }
      ],
      "name": "WithdrawalComplete",
      "type": "event"
    },
    {
      "inputs": [
        {
          "internalType": "address",
          "name": "_injectorAddress",
          "type": "address"
        },
        {
          "internalType": "address",
          "name": "_treasuryAddress",
          "type": "address"
        }
      ],
      "name": "SetInjectorAndTreasuryAdresses",
      "outputs": [],
      "stateMutability": "nonpayable",
      "type": "function"
    },
    {
      "inputs": [],
      "name": "USDCtoken",
      "outputs": [
        {
          "internalType": "contract IERC20",
          "name": "",
          "type": "address"
        }
      ],
      "stateMutability": "view",
      "type": "function"
    },
    {
      "inputs": [
        {
          "internalType": "enum Raffle.RaffleCategory",
          "name": "_category",
          "type": "uint8"
        },
        {
          "internalType": "uint32[]",
          "name": "_tickets",
          "type": "uint32[]"
        }
      ],
      "name": "buyTicket",
      "outputs": [],
      "stateMutability": "nonpayable",
      "type": "function"
    },
    {
      "inputs": [],
      "name": "checkLinkBalance",
      "outputs": [
        {
          "internalType": "uint256",
          "name": "",
          "type": "uint256"
        }
      ],
      "stateMutability": "view",
      "type": "function"
    },
    {
      "inputs": [
        {
          "internalType": "bytes",
          "name": "",
          "type": "bytes"
        }
      ],
      "name": "checkUpkeep",
      "outputs": [
        {
          "internalType": "bool",
          "name": "upkeepNeeded",
          "type": "bool"
        },
        {
          "internalType": "bytes",
          "name": "performData",
          "type": "bytes"
        }
      ],
      "stateMutability": "view",
      "type": "function"
    },
    {
      "inputs": [
        {
          "internalType": "enum Raffle.RaffleCategory",
          "name": "_category",
          "type": "uint8"
        },
        {
          "internalType": "uint256",
          "name": "_ticketsToRollover",
          "type": "uint256"
        },
        {
          "internalType": "uint32[]",
          "name": "_tickets",
          "type": "uint32[]"
        }
      ],
      "name": "claimRollover",
      "outputs": [],
      "stateMutability": "nonpayable",
      "type": "function"
    },
    {
      "inputs": [],
      "name": "currentTicketID",
      "outputs": [
        {
          "internalType": "uint256",
          "name": "",
          "type": "uint256"
        }
      ],
      "stateMutability": "view",
      "type": "function"
    },
    {
      "inputs": [],
      "name": "deactivateRaffle",
      "outputs": [],
      "stateMutability": "nonpayable",
      "type": "function"
    },
    {
      "inputs": [
        {
          "internalType": "enum Raffle.RaffleCategory",
          "name": "_category",
          "type": "uint8"
        }
      ],
      "name": "getCurrentRaffleState",
      "outputs": [
        {
          "internalType": "enum Raffle.RaffleState",
          "name": "raffleState",
          "type": "uint8"
        }
      ],
      "stateMutability": "view",
      "type": "function"
    },
    {
      "inputs": [],
      "name": "getRaffleEndTime",
      "outputs": [
        {
          "internalType": "uint256",
          "name": "",
          "type": "uint256"
        }
      ],
      "stateMutability": "view",
      "type": "function"
    },
    {
      "inputs": [
        {
          "internalType": "enum Raffle.RaffleCategory",
          "name": "_category",
          "type": "uint8"
        }
      ],
      "name": "getRafflePool",
      "outputs": [
        {
          "internalType": "uint256",
          "name": "",
          "type": "uint256"
        }
      ],
      "stateMutability": "view",
      "type": "function"
    },
    {
      "inputs": [],
      "name": "getRebootEndTime",
      "outputs": [
        {
          "internalType": "uint256",
          "name": "",
          "type": "uint256"
        }
      ],
      "stateMutability": "view",
      "type": "function"
    },
    {
      "inputs": [
        {
          "internalType": "address",
          "name": "_user",
          "type": "address"
        }
      ],
      "name": "getUserTransactionCount",
      "outputs": [
        {
          "internalType": "uint256",
          "name": "",
          "type": "uint256"
        }
      ],
      "stateMutability": "view",
      "type": "function"
    },
    {
      "inputs": [],
      "name": "getraffleID",
      "outputs": [
        {
          "internalType": "uint256",
          "name": "",
          "type": "uint256"
        }
      ],
      "stateMutability": "view",
      "type": "function"
    },
    {
      "inputs": [
        {
          "internalType": "address",
          "name": "_user",
          "type": "address"
        },
        {
          "internalType": "uint256",
          "name": "_txIndex",
          "type": "uint256"
        }
      ],
      "name": "getuserTransactionHistory",
      "outputs": [
        {
          "components": [
            {
              "internalType": "uint256",
              "name": "txID",
              "type": "uint256"
            },
            {
              "internalType": "uint256",
              "name": "time",
              "type": "uint256"
            },
            {
              "internalType": "enum Raffle.RaffleCategory",
              "name": "raffleCategory",
              "type": "uint8"
            },
            {
              "internalType": "uint256",
              "name": "noOfTickets",
              "type": "uint256"
            }
          ],
          "internalType": "struct Raffle.Transaction",
          "name": "userTransaction",
          "type": "tuple"
        }
      ],
      "stateMutability": "view",
      "type": "function"
    },
    {
      "inputs": [
        {
          "internalType": "enum Raffle.RaffleCategory",
          "name": "_category",
          "type": "uint8"
        },
        {
          "internalType": "uint256",
          "name": "_amount",
          "type": "uint256"
        }
      ],
      "name": "injectFunds",
      "outputs": [],
      "stateMutability": "nonpayable",
      "type": "function"
    },
    {
      "inputs": [],
      "name": "injectorAddress",
      "outputs": [
        {
          "internalType": "address",
          "name": "",
          "type": "address"
        }
      ],
      "stateMutability": "view",
      "type": "function"
    },
    {
      "inputs": [],
      "name": "maxNumberTicketsPerBuy",
      "outputs": [
        {
          "internalType": "uint256",
          "name": "",
          "type": "uint256"
        }
      ],
      "stateMutability": "view",
      "type": "function"
    },
    {
      "inputs": [],
      "name": "noOfWinners",
      "outputs": [
        {
          "internalType": "uint256",
          "name": "",
          "type": "uint256"
        }
      ],
      "stateMutability": "view",
      "type": "function"
    },
    {
      "inputs": [],
      "name": "owner",
      "outputs": [
        {
          "internalType": "address",
          "name": "",
          "type": "address"
        }
      ],
      "stateMutability": "view",
      "type": "function"
    },
    {
      "inputs": [
        {
          "internalType": "bytes",
          "name": "performData",
          "type": "bytes"
        }
      ],
      "name": "performUpkeep",
      "outputs": [],
      "stateMutability": "nonpayable",
      "type": "function"
    },
    {
      "inputs": [
        {
          "internalType": "bytes32",
          "name": "requestId",
          "type": "bytes32"
        },
        {
          "internalType": "uint256",
          "name": "randomness",
          "type": "uint256"
        }
      ],
      "name": "rawFulfillRandomness",
      "outputs": [],
      "stateMutability": "nonpayable",
      "type": "function"
    },
    {
      "inputs": [],
      "name": "reactivateRaffle",
      "outputs": [],
      "stateMutability": "nonpayable",
      "type": "function"
    },
    {
      "inputs": [],
      "name": "rebootChecker",
      "outputs": [
        {
          "internalType": "uint256",
          "name": "",
          "type": "uint256"
        }
      ],
      "stateMutability": "view",
      "type": "function"
    },
    {
      "inputs": [
        {
          "internalType": "address",
          "name": "_tokenAddress",
          "type": "address"
        },
        {
          "internalType": "uint256",
          "name": "_tokenAmount",
          "type": "uint256"
        }
      ],
      "name": "recoverWrongTokens",
      "outputs": [],
      "stateMutability": "nonpayable",
      "type": "function"
    },
    {
      "inputs": [],
      "name": "renounceOwnership",
      "outputs": [],
      "stateMutability": "nonpayable",
      "type": "function"
    },
    {
      "inputs": [
        {
          "internalType": "address",
          "name": "newOwner",
          "type": "address"
        }
      ],
      "name": "transferOwnership",
      "outputs": [],
      "stateMutability": "nonpayable",
      "type": "function"
    },
    {
      "inputs": [],
      "name": "treasuryAddress",
      "outputs": [
        {
          "internalType": "address",
          "name": "",
          "type": "address"
        }
      ],
      "stateMutability": "view",
      "type": "function"
    },
    {
      "inputs": [
        {
          "internalType": "enum Raffle.RaffleCategory",
          "name": "_category",
          "type": "uint8"
        },
        {
          "internalType": "uint256",
          "name": "_raffleID",
          "type": "uint256"
        }
      ],
      "name": "viewRaffle",
      "outputs": [
        {
          "components": [
            {
              "internalType": "uint256",
              "name": "ID",
              "type": "uint256"
            },
            {
              "internalType": "uint256",
              "name": "noOfTicketsSold",
              "type": "uint256"
            },
            {
              "internalType": "uint256",
              "name": "noOfPlayers",
              "type": "uint256"
            },
            {
              "internalType": "uint256",
              "name": "amountInjected",
              "type": "uint256"
            },
            {
              "internalType": "uint256[]",
              "name": "winnersPayout",
              "type": "uint256[]"
            },
            {
              "internalType": "address[]",
              "name": "winners",
              "type": "address[]"
            },
            {
              "internalType": "uint256[]",
              "name": "winningTickets",
              "type": "uint256[]"
            },
            {
              "internalType": "uint256",
              "name": "raffleStartTime",
              "type": "uint256"
            },
            {
              "internalType": "uint256",
              "name": "raffleEndTime",
              "type": "uint256"
            }
          ],
          "internalType": "struct Raffle.RaffleStruct",
          "name": "raffle",
          "type": "tuple"
        }
      ],
      "stateMutability": "view",
      "type": "function"
    },
    {
      "inputs": [
        {
          "internalType": "enum Raffle.RaffleCategory",
          "name": "_category",
          "type": "uint8"
        },
        {
          "internalType": "address",
          "name": "_user",
          "type": "address"
        }
      ],
      "name": "viewUserRollovers",
      "outputs": [
        {
          "internalType": "uint256",
          "name": "ticketsToRollover",
          "type": "uint256"
        }
      ],
      "stateMutability": "view",
      "type": "function"
    },
    {
      "inputs": [
        {
          "internalType": "enum Raffle.RaffleCategory",
          "name": "_category",
          "type": "uint8"
        }
      ],
      "name": "withdrawFundsDueToDeactivation",
      "outputs": [],
      "stateMutability": "nonpayable",
      "type": "function"
    }
  ],
  "bytecode": "0x610100604052611c2060c05261070860e0526003600b556103e8600c553480156200002957600080fd5b5060405162005d4838038062005d488339810160408190526200004c91620001aa565b600160009081556001600160601b0319606087811b821660a05286901b16608052620000753390565b600280546001600160a01b0319166001600160a01b038316908117909155604051919250906000907f8be0079c531659141344cd1fd0a4f28419497f9722a3daafe3b4186f6b6457e0908290a350600883905560098290556003600a55600f80546001600160a01b0319166001600160a01b0383161790556200017f6013602052670de0b6b3a76400007f8fa6efc3be94b5b348b21fea823fe8d100408cee9b7f90524494500445d8ff6c55678ac7230489e800007f4155c2f711f2cdd34f8262ab8fb9b7020a700fe7b6948222152f7670d1fdf34d55600260005268056bc75e2d631000007f0b9d2c0c271bb30544eb78c59bdaebdae2728e5f65814c07768a0abe90ed192355565b50505050506200025b565b805162000197816200023a565b92915050565b8051620001978162000254565b600080600080600060a08688031215620001c2578081fd5b620001d0878288016200018a565b94506020620001e2888289016200018a565b9450506040620001f5888289016200019d565b935050606062000208888289016200019d565b92505060806200021b888289016200018a565b9150509295509295909350565b60006001600160a01b03821662000197565b620002458162000228565b81146200025157600080fd5b50565b8062000245565b60805160601c60a05160601c60c05160e051615a98620002b0600039600061396601526000613936015260008181611e860152613f7f015260008181611f2b015281816133c50152613f430152615a986000f3fe608060405234801561001057600080fd5b50600436106101e55760003560e01c80638da5cb5b1161010f578063c1aba43f116100a2578063e2fae27611610071578063e2fae2761461043e578063f0e21cd914610451578063f2fde38b1461045a578063f53c7d081461046d57600080fd5b8063c1aba43f146103c0578063c5f956af146103c8578063d8f33840146103e8578063defc98f81461041e57600080fd5b8063a24bf4ff116100de578063a24bf4ff1461037c578063a7390c8e14610384578063ad99854b146103a4578063b6e81a4d146103ad57600080fd5b80638da5cb5b1461031a57806394985ddd146103415780639c384653146103545780639eb386fd1461037457600080fd5b80634585e33b116101875780636c6f693d116101565780636c6f693d146102be5780636e04ff0d146102d1578063715018a6146102f25780637cbd22fb146102fa57600080fd5b80634585e33b14610287578063518da0a41461029a5780635c0b95d4146102a357806367bb60a0146102ab57600080fd5b806328055096116101c357806328055096146102215780632e23be9d146102345780633f138d4b146102475780634185e5071461025a57600080fd5b806313b42fa3146101ea5780631de50d4914610204578063269ce1bb14610219575b600080fd5b6006545b6040516101fb91906156fc565b60405180910390f35b610217610212366004614a9b565b610476565b005b610217610956565b61021761022f366004614a60565b610cc8565b6101ee610242366004614a7d565b61122d565b6102176102553660046149b5565b6112f9565b600f5461027a9073ffffffffffffffffffffffffffffffffffffffff1681565b6040516101fb91906154b4565b610217610295366004614a1e565b6113fd565b6101ee600b5481565b6004546101ee565b6102176102b9366004614ae0565b61146a565b6102176102cc36600461497d565b6116ee565b6102e46102df366004614a1e565b611860565b6040516101fb929190615451565b610217611c82565b61030d6103083660046149b5565b611d42565b6040516101fb91906156ee565b60025473ffffffffffffffffffffffffffffffffffffffff165b6040516101fb91906153af565b61021761034f366004614a00565b611e6e565b600d546103349073ffffffffffffffffffffffffffffffffffffffff1681565b6005546101ee565b6101ee611eeb565b610397610392366004614ae0565b611fb5565b6040516101fb91906156dd565b6101ee600c5481565b6101ee6103bb366004614a60565b612207565b61021761229a565b600e546103349073ffffffffffffffffffffffffffffffffffffffff1681565b6101ee6103f6366004614960565b73ffffffffffffffffffffffffffffffffffffffff1660009081526016602052604090205490565b61043161042c366004614a60565b61257e565b6040516101fb9190615543565b61021761044c366004614afe565b612614565b6101ee600a5481565b610217610468366004614960565b612a50565b6101ee60075481565b333b156104b8576040517f08c379a00000000000000000000000000000000000000000000000000000000081526004016104af906155ad565b60405180910390fd5b3332146104f1576040517f08c379a00000000000000000000000000000000000000000000000000000000081526004016104af9061561d565b6002600054141561052e576040517f08c379a00000000000000000000000000000000000000000000000000000000081526004016104af906156ad565b6002600055805161056b576040517f08c379a00000000000000000000000000000000000000000000000000000000081526004016104af9061560d565b600c54815111156105a8576040517f08c379a00000000000000000000000000000000000000000000000000000000081526004016104af906156cd565b6002601360008460028111156105e7577f4e487b7100000000000000000000000000000000000000000000000000000000600052602160045260246000fd5b600281111561061f577f4e487b7100000000000000000000000000000000000000000000000000000000600052602160045260246000fd5b815260208101919091526040016000206002015460ff16600481111561066e577f4e487b7100000000000000000000000000000000000000000000000000000000600052602160045260246000fd5b146106a5576040517f08c379a00000000000000000000000000000000000000000000000000000000081526004016104af9061568d565b6000601360008460028111156106e4577f4e487b7100000000000000000000000000000000000000000000000000000000600052602160045260246000fd5b600281111561071c577f4e487b7100000000000000000000000000000000000000000000000000000000600052602160045260246000fd5b8152602001908152602001600020905060006012600085600281111561076b577f4e487b7100000000000000000000000000000000000000000000000000000000600052602160045260246000fd5b60028111156107a3577f4e487b7100000000000000000000000000000000000000000000000000000000600052602160045260246000fd5b81526020808201929092526040908101600090812060065482529092528120845184549193506107d2916157c6565b600f549091506107fa9073ffffffffffffffffffffffffffffffffffffffff16333084612b7c565b33600090815260116020526040812090866002811115610843577f4e487b7100000000000000000000000000000000000000000000000000000000600052602160045260246000fd5b600281111561087b577f4e487b7100000000000000000000000000000000000000000000000000000000600052602160045260246000fd5b81526020808201929092526040908101600090812060065482529092529020546108b7576002820180549060006108b1836158ef565b91905055505b808360010160008282546108cb919061579a565b925050819055506108dd858551612c1f565b6108e78585612db7565b6108f0856130f3565b3373ffffffffffffffffffffffffffffffffffffffff166006547fa8833300989dff6c7036c28e17e6309e566c7cb5fc69a76e0dc73a0769eba2d9878751876001015460405161094293929190615528565b60405180910390a350506001600055505050565b60025473ffffffffffffffffffffffffffffffffffffffff1633146109a7576040517f08c379a00000000000000000000000000000000000000000000000000000000081526004016104af9061562d565b600080805260136020527f8fa6efc3be94b5b348b21fea823fe8d100408cee9b7f90524494500445d8ff6e547f8fa6efc3be94b5b348b21fea823fe8d100408cee9b7f90524494500445d8ff6c9060049060ff1681811115610a32577f4e487b7100000000000000000000000000000000000000000000000000000000600052602160045260246000fd5b14610a69576040517f08c379a00000000000000000000000000000000000000000000000000000000081526004016104af9061566d565b6001600081905260136020527f4155c2f711f2cdd34f8262ab8fb9b7020a700fe7b6948222152f7670d1fdf34f547f4155c2f711f2cdd34f8262ab8fb9b7020a700fe7b6948222152f7670d1fdf34d9060049060ff1681811115610af6577f4e487b7100000000000000000000000000000000000000000000000000000000600052602160045260246000fd5b14610b2d576040517f08c379a00000000000000000000000000000000000000000000000000000000081526004016104af9061566d565b6002600081905260136020527f0b9d2c0c271bb30544eb78c59bdaebdae2728e5f65814c07768a0abe90ed1925547f0b9d2c0c271bb30544eb78c59bdaebdae2728e5f65814c07768a0abe90ed19239060049060ff1681811115610bba577f4e487b7100000000000000000000000000000000000000000000000000000000600052602160045260246000fd5b14610bf1576040517f08c379a00000000000000000000000000000000000000000000000000000000081526004016104af9061566d565b60408051606081018252600080825260016020830152600292820192909252905b6003811015610c7b576000828260038110610c56577f4e487b7100000000000000000000000000000000000000000000000000000000600052603260045260246000fd5b60200201519050610c688160016132a1565b5080610c73816158ef565b915050610c12565b506003600a556006546040517f3e3fbe6edaa33edaf5f25f93631b45be609c9603eebf7d4d0976f0dec5dfdc0491610cb7914290600190615732565b60405180910390a150505050505050565b333b15610d01576040517f08c379a00000000000000000000000000000000000000000000000000000000081526004016104af906155ad565b333214610d3a576040517f08c379a00000000000000000000000000000000000000000000000000000000081526004016104af9061561d565b80600060136000836002811115610d7a577f4e487b7100000000000000000000000000000000000000000000000000000000600052602160045260246000fd5b6002811115610db2577f4e487b7100000000000000000000000000000000000000000000000000000000600052602160045260246000fd5b8152602081019190915260400160002090506004600282015460ff166004811115610e06577f4e487b7100000000000000000000000000000000000000000000000000000000600052602160045260246000fd5b14610e3d576040517f08c379a00000000000000000000000000000000000000000000000000000000081526004016104af9061566d565b60026000541415610e7a576040517f08c379a00000000000000000000000000000000000000000000000000000000081526004016104af906156ad565b600260008181556015918590811115610ebc577f4e487b7100000000000000000000000000000000000000000000000000000000600052602160045260246000fd5b6002811115610ef4577f4e487b7100000000000000000000000000000000000000000000000000000000600052602160045260246000fd5b815260208082019290925260409081016000908120338252909252902054610f48576040517f08c379a00000000000000000000000000000000000000000000000000000000081526004016104af9061557d565b600060136000856002811115610f87577f4e487b7100000000000000000000000000000000000000000000000000000000600052602160045260246000fd5b6002811115610fbf577f4e487b7100000000000000000000000000000000000000000000000000000000600052602160045260246000fd5b8152602001908152602001600020905060006015600086600281111561100e577f4e487b7100000000000000000000000000000000000000000000000000000000600052602160045260246000fd5b6002811115611046577f4e487b7100000000000000000000000000000000000000000000000000000000600052602160045260246000fd5b815260208082019290925260409081016000908120338252909252812054835490925061107390836157c6565b600f546040517fa9059cbb00000000000000000000000000000000000000000000000000000000815291925073ffffffffffffffffffffffffffffffffffffffff169063a9059cbb906110cc9033908590600401615400565b602060405180830381600087803b1580156110e657600080fd5b505af11580156110fa573d6000803e3d6000fd5b505050506040513d601f19601f8201168201806040525081019061111e91906149e3565b5060006015600088600281111561115e577f4e487b7100000000000000000000000000000000000000000000000000000000600052602160045260246000fd5b6002811115611196577f4e487b7100000000000000000000000000000000000000000000000000000000600052602160045260246000fd5b815260200190815260200160002060003373ffffffffffffffffffffffffffffffffffffffff1673ffffffffffffffffffffffffffffffffffffffff168152602001908152602001600020819055507fac4b7f84df43766362cc5996cfd81888ae4ee76e3e429f0d2f3660404aea182960065482604051611218929190615471565b60405180910390a15050600160005550505050565b60006015600084600281111561126c577f4e487b7100000000000000000000000000000000000000000000000000000000600052602160045260246000fd5b60028111156112a4577f4e487b7100000000000000000000000000000000000000000000000000000000600052602160045260246000fd5b815260200190815260200160002060008373ffffffffffffffffffffffffffffffffffffffff1673ffffffffffffffffffffffffffffffffffffffff1681526020019081526020016000205490505b92915050565b60025473ffffffffffffffffffffffffffffffffffffffff16331461134a576040517f08c379a00000000000000000000000000000000000000000000000000000000081526004016104af9061562d565b600f5473ffffffffffffffffffffffffffffffffffffffff8381169116141561139f576040517f08c379a00000000000000000000000000000000000000000000000000000000081526004016104af9061564d565b6113c073ffffffffffffffffffffffffffffffffffffffff8316338361339a565b7f74545154aac348a3eac92596bd1971957ca94795f4e954ec5f613b55fab7812982826040516113f1929190615400565b60405180910390a15050565b60008061140c83850185614b60565b91509150816001141561142857611422816133be565b50611464565b816002141561143f5761143a8161356b565b611464565b81600314156114505761143a6138d9565b816004141561146457611464816000613b51565b50505050565b60025473ffffffffffffffffffffffffffffffffffffffff163314806114a75750600d5473ffffffffffffffffffffffffffffffffffffffff1633145b6114dd576040517f08c379a00000000000000000000000000000000000000000000000000000000081526004016104af9061565d565b60026013600084600281111561151c577f4e487b7100000000000000000000000000000000000000000000000000000000600052602160045260246000fd5b6002811115611554577f4e487b7100000000000000000000000000000000000000000000000000000000600052602160045260246000fd5b815260208101919091526040016000206002015460ff1660048111156115a3577f4e487b7100000000000000000000000000000000000000000000000000000000600052602160045260246000fd5b146115da576040517f08c379a00000000000000000000000000000000000000000000000000000000081526004016104af9061568d565b600f546115ff9073ffffffffffffffffffffffffffffffffffffffff16333084612b7c565b806012600084600281111561163d577f4e487b7100000000000000000000000000000000000000000000000000000000600052602160045260246000fd5b6002811115611675577f4e487b7100000000000000000000000000000000000000000000000000000000600052602160045260246000fd5b81526020019081526020016000206000600654815260200190815260200160002060030160008282546116a8919061579a565b90915550506006546040517fa1c157de391a92665d22914b5834a188e801f4fbc466639ddc0063abff1df3bb906116e2908590859061551a565b60405180910390a25050565b60025473ffffffffffffffffffffffffffffffffffffffff16331461173f576040517f08c379a00000000000000000000000000000000000000000000000000000000081526004016104af9061562d565b73ffffffffffffffffffffffffffffffffffffffff811661178c576040517f08c379a00000000000000000000000000000000000000000000000000000000081526004016104af906155ed565b73ffffffffffffffffffffffffffffffffffffffff82166117d9576040517f08c379a00000000000000000000000000000000000000000000000000000000081526004016104af906155ed565b600e805473ffffffffffffffffffffffffffffffffffffffff8084167fffffffffffffffffffffffff000000000000000000000000000000000000000092831617909255600d8054928516929091169190911790556040517fa6f7e8c500ff9602f43c07429562ca2a17f22d62c172a4fbb6aeb54bdc5e5c64906113f190839085906153bd565b6000606060006040518060600160405280600060028111156118ab577f4e487b7100000000000000000000000000000000000000000000000000000000600052602160045260246000fd5b60028111156118e3577f4e487b7100000000000000000000000000000000000000000000000000000000600052602160045260246000fd5b815260200160018152602001600281525090506000600a5460031415611907575060015b60005b6003811015611c7857600083826003811061194e577f4e487b7100000000000000000000000000000000000000000000000000000000600052603260045260246000fd5b60200201519050600060126000836002811115611994577f4e487b7100000000000000000000000000000000000000000000000000000000600052602160045260246000fd5b60028111156119cc577f4e487b7100000000000000000000000000000000000000000000000000000000600052602160045260246000fd5b8152602001908152602001600020600060065481526020019081526020016000209050600060136000846002811115611a2e577f4e487b7100000000000000000000000000000000000000000000000000000000600052602160045260246000fd5b6002811115611a66577f4e487b7100000000000000000000000000000000000000000000000000000000600052602160045260246000fd5b8152602081019190915260400160002090506001600282015460ff166004811115611aba577f4e487b7100000000000000000000000000000000000000000000000000000000600052602160045260246000fd5b148015611ac5575084155b15611ad257505050611c66565b60045442118015611b21575060028082015460ff166004811115611b1f577f4e487b7100000000000000000000000000000000000000000000000000000000600052602160045260246000fd5b145b15611b8b57600a82600101541080611b3d575060058260020154105b15611b735760019750600483604051602001611b5a929190615551565b6040516020818303038152906040529650505050611c78565b60019750600183604051602001611b5a929190615551565b6003600282015460ff166004811115611bcd577f4e487b7100000000000000000000000000000000000000000000000000000000600052602160045260246000fd5b1415611beb5760019750600283604051602001611b5a929190615551565b6004600282015460ff166004811115611c2d577f4e487b7100000000000000000000000000000000000000000000000000000000600052602160045260246000fd5b14158015611c3c575060055442115b8015611c455750845b15611c625760019750600383604051602001611b5a929190615551565b5050505b80611c70816158ef565b91505061190a565b5050509250929050565b60025473ffffffffffffffffffffffffffffffffffffffff163314611cd3576040517f08c379a00000000000000000000000000000000000000000000000000000000081526004016104af9061562d565b60025460405160009173ffffffffffffffffffffffffffffffffffffffff16907f8be0079c531659141344cd1fd0a4f28419497f9722a3daafe3b4186f6b6457e0908390a3600280547fffffffffffffffffffffffff0000000000000000000000000000000000000000169055565b611d4a614791565b73ffffffffffffffffffffffffffffffffffffffff83166000908152601660205260409020805483908110611da8577f4e487b7100000000000000000000000000000000000000000000000000000000600052603260045260246000fd5b906000526020600020906004020160405180608001604052908160008201548152602001600182015481526020016002820160009054906101000a900460ff166002811115611e20577f4e487b7100000000000000000000000000000000000000000000000000000000600052602160045260246000fd5b6002811115611e58577f4e487b7100000000000000000000000000000000000000000000000000000000600052602160045260246000fd5b8152602001600382015481525050905092915050565b3373ffffffffffffffffffffffffffffffffffffffff7f00000000000000000000000000000000000000000000000000000000000000001614611edd576040517f08c379a00000000000000000000000000000000000000000000000000000000081526004016104af9061563d565b611ee78282613e60565b5050565b6040517f70a0823100000000000000000000000000000000000000000000000000000000815260009073ffffffffffffffffffffffffffffffffffffffff7f000000000000000000000000000000000000000000000000000000000000000016906370a0823190611f609030906004016153af565b60206040518083038186803b158015611f7857600080fd5b505afa158015611f8c573d6000803e3d6000fd5b505050506040513d601f19601f82011682018060405250810190611fb09190614b8e565b905090565b6120046040518061012001604052806000815260200160008152602001600081526020016000815260200160608152602001606081526020016060815260200160008152602001600081525090565b60126000846002811115612041577f4e487b7100000000000000000000000000000000000000000000000000000000600052602160045260246000fd5b6002811115612079577f4e487b7100000000000000000000000000000000000000000000000000000000600052602160045260246000fd5b8152602001908152602001600020600083815260200190815260200160002060405180610120016040529081600082015481526020016001820154815260200160028201548152602001600382015481526020016004820180548060200260200160405190810160405280929190818152602001828054801561211b57602002820191906000526020600020905b815481526020019060010190808311612107575b505050505081526020016005820180548060200260200160405190810160405280929190818152602001828054801561218a57602002820191906000526020600020905b815473ffffffffffffffffffffffffffffffffffffffff16815260019091019060200180831161215f575b50505050508152602001600682018054806020026020016040519081016040528092919081815260200182805480156121e257602002820191906000526020600020905b8154815260200190600101908083116121ce575b5050505050815260200160078201548152602001600882015481525050905092915050565b60008060136000846002811115612247577f4e487b7100000000000000000000000000000000000000000000000000000000600052602160045260246000fd5b600281111561227f577f4e487b7100000000000000000000000000000000000000000000000000000000600052602160045260246000fd5b81526020810191909152604001600020600101549392505050565b60025473ffffffffffffffffffffffffffffffffffffffff1633146122eb576040517f08c379a00000000000000000000000000000000000000000000000000000000081526004016104af9061562d565b60065460009081527f7e7fa33969761a458e04f477e039a608702b4f924981d6653935a8319a08ad7b602052604081206001810154600a1180612332575060058160020154105b612368576040517f08c379a00000000000000000000000000000000000000000000000000000000081526004016104af906155dd565b60065460009081527f71a67924699a20698523213e55fe499d539379d7769cd5567e2c45d583f815a360205260409020600181810154909190600a11806123b3575060058160020154105b6123e9576040517f08c379a00000000000000000000000000000000000000000000000000000000081526004016104af906155dd565b60065460009081527f8e1fee8c88a9e04123b21e90cae2727a7715bf522a1e46eb5934ccd05203a6b260205260409020600181015460029190600a1180612434575060058160020154105b61246a576040517f08c379a00000000000000000000000000000000000000000000000000000000081526004016104af906155dd565b60408051606081018252600080825260016020830152600292820192909252905b6003811015612536576124dc8282600381106124d0577f4e487b7100000000000000000000000000000000000000000000000000000000600052603260045260246000fd5b60200201516001613b51565b612524828260038110612518577f4e487b7100000000000000000000000000000000000000000000000000000000600052603260045260246000fd5b602002015160046132a1565b8061252e816158ef565b91505061248b565b506000600a81905560048181556005919091556006546040517f38960c0800e981febc869f33d307d21683c7a1f85845bfe665071f160292c08092610cb79291429190615732565b600080601360008460028111156125be577f4e487b7100000000000000000000000000000000000000000000000000000000600052602160045260246000fd5b60028111156125f6577f4e487b7100000000000000000000000000000000000000000000000000000000600052602160045260246000fd5b815260208101919091526040016000206002015460ff169392505050565b333b1561264d576040517f08c379a00000000000000000000000000000000000000000000000000000000081526004016104af906155ad565b333214612686576040517f08c379a00000000000000000000000000000000000000000000000000000000081526004016104af9061561d565b82601560008260028111156126c4577f4e487b7100000000000000000000000000000000000000000000000000000000600052602160045260246000fd5b60028111156126fc577f4e487b7100000000000000000000000000000000000000000000000000000000600052602160045260246000fd5b815260208082019290925260409081016000908120338252909252902054612750576040517f08c379a00000000000000000000000000000000000000000000000000000000081526004016104af9061559d565b6002600054141561278d576040517f08c379a00000000000000000000000000000000000000000000000000000000081526004016104af906156ad565b6002600081815560159186908111156127cf577f4e487b7100000000000000000000000000000000000000000000000000000000600052602160045260246000fd5b6002811115612807577f4e487b7100000000000000000000000000000000000000000000000000000000600052602160045260246000fd5b815260208082019290925260409081016000908120338252909252902054831461285d576040517f08c379a00000000000000000000000000000000000000000000000000000000081526004016104af906156bd565b60026013600086600281111561289c577f4e487b7100000000000000000000000000000000000000000000000000000000600052602160045260246000fd5b60028111156128d4577f4e487b7100000000000000000000000000000000000000000000000000000000600052602160045260246000fd5b815260208101919091526040016000206002015460ff166004811115612923577f4e487b7100000000000000000000000000000000000000000000000000000000600052602160045260246000fd5b1461295a576040517f08c379a00000000000000000000000000000000000000000000000000000000081526004016104af9061568d565b6129648483612db7565b61296f848351612c1f565b6000601560008660028111156129ae577f4e487b7100000000000000000000000000000000000000000000000000000000600052602160045260246000fd5b60028111156129e6577f4e487b7100000000000000000000000000000000000000000000000000000000600052602160045260246000fd5b8152602080820192909252604090810160009081203380835293528190209290925560065491517f2c173f4ba2da4849fb4c77f9d6ddc4672ce502af948c755bbe001196ede5338991612a3d9188919088906154c2565b60405180910390a2505060016000555050565b60025473ffffffffffffffffffffffffffffffffffffffff163314612aa1576040517f08c379a00000000000000000000000000000000000000000000000000000000081526004016104af9061562d565b73ffffffffffffffffffffffffffffffffffffffff8116612aee576040517f08c379a00000000000000000000000000000000000000000000000000000000081526004016104af9061558d565b60025460405173ffffffffffffffffffffffffffffffffffffffff8084169216907f8be0079c531659141344cd1fd0a4f28419497f9722a3daafe3b4186f6b6457e090600090a3600280547fffffffffffffffffffffffff00000000000000000000000000000000000000001673ffffffffffffffffffffffffffffffffffffffff92909216919091179055565b611464846323b872dd60e01b858585604051602401612b9d939291906153d8565b604080517fffffffffffffffffffffffffffffffffffffffffffffffffffffffffffffffe08184030181529190526020810180517bffffffffffffffffffffffffffffffffffffffffffffffffffffffff167fffffffff0000000000000000000000000000000000000000000000000000000090931692909217909152613e89565b33600090815260166020526040902054612c37614791565b81815242602082015260408101846002811115612c7d577f4e487b7100000000000000000000000000000000000000000000000000000000600052602160045260246000fd5b90816002811115612cb7577f4e487b7100000000000000000000000000000000000000000000000000000000600052602160045260246000fd5b9052506060810183905233600090815260166020908152604080832080546001818101835591855293839020855160049095020193845591840151838301558301516002808401805486959491927fffffffffffffffffffffffffffffffffffffffffffffffffffffffffffffff0090911691908490811115612d63577f4e487b7100000000000000000000000000000000000000000000000000000000600052602160045260246000fd5b02179055506060820151816003015550507f60850aec46dea3854368ebe9087866f660da4b915e21945cfbc2e673935ab4d282428686604051612da9949392919061570a565b60405180910390a150505050565b600060126000846002811115612df6577f4e487b7100000000000000000000000000000000000000000000000000000000600052602160045260246000fd5b6002811115612e2e577f4e487b7100000000000000000000000000000000000000000000000000000000600052602160045260246000fd5b815260200190815260200160002060006006548152602001908152602001600020905060005b82518110156130d35760078054906000612e6d836158ef565b91905055506000838281518110612ead577f4e487b7100000000000000000000000000000000000000000000000000000000600052603260045260246000fd5b60200260200101519050601160003373ffffffffffffffffffffffffffffffffffffffff1673ffffffffffffffffffffffffffffffffffffffff1681526020019081526020016000206000866002811115612f31577f4e487b7100000000000000000000000000000000000000000000000000000000600052602160045260246000fd5b6002811115612f69577f4e487b7100000000000000000000000000000000000000000000000000000000600052602160045260246000fd5b8152602080820192909252604090810160009081206006548252835281812080546001810182559082528382206008820401805463ffffffff80881660046007909516949094026101000a8481029102199091161790558251808401909352825233928201929092529060109087600281111561300f577f4e487b7100000000000000000000000000000000000000000000000000000000600052602160045260246000fd5b6002811115613047577f4e487b7100000000000000000000000000000000000000000000000000000000600052602160045260246000fd5b815260208082019290925260409081016000908120600754825283522082518154939092015173ffffffffffffffffffffffffffffffffffffffff16640100000000027fffffffffffffffff00000000000000000000000000000000000000000000000090931663ffffffff9092169190911791909117905550806130cb816158ef565b915050612e54565b5081518160010160008282546130e9919061579a565b9091555050505050565b600060126000836002811115613132577f4e487b7100000000000000000000000000000000000000000000000000000000600052602160045260246000fd5b600281111561316a577f4e487b7100000000000000000000000000000000000000000000000000000000600052602160045260246000fd5b81526020019081526020016000206000600654815260200190815260200160002090506000601360008460028111156131cc577f4e487b7100000000000000000000000000000000000000000000000000000000600052602160045260246000fd5b6002811115613204577f4e487b7100000000000000000000000000000000000000000000000000000000600052602160045260246000fd5b81526020019081526020016000206001015490506000606482601961322991906157c6565b61323391906157b2565b90506000606461324484600f6157c6565b61324e91906157b2565b90506000606461325f85600a6157c6565b61326991906157b2565b9050604051806060016040528084815260200183815260200182815250856004019060036132989291906147f1565b50505050505050565b6000601360008460028111156132e0577f4e487b7100000000000000000000000000000000000000000000000000000000600052602160045260246000fd5b6002811115613318577f4e487b7100000000000000000000000000000000000000000000000000000000600052602160045260246000fd5b8152602081019190915260400160002060028101805491925083917fffffffffffffffffffffffffffffffffffffffffffffffffffffffffffffff00166001836004811115613390577f4e487b7100000000000000000000000000000000000000000000000000000000600052602160045260246000fd5b0217905550505050565b6133b98363a9059cbb60e01b8484604051602401612b9d929190615400565b505050565b60006009547f000000000000000000000000000000000000000000000000000000000000000073ffffffffffffffffffffffffffffffffffffffff166370a08231306040518263ffffffff1660e01b815260040161341c91906153af565b60206040518083038186803b15801561343457600080fd5b505afa158015613448573d6000803e3d6000fd5b505050506040513d601f19601f8201168201806040525081019061346c9190614b8e565b10156134a4576040517f08c379a00000000000000000000000000000000000000000000000000000000081526004016104af906155bd565b6134b2600854600954613f3f565b6000818152601460205260409020805491925083917fffffffffffffffffffffffffffffffffffffffffffffffffffffffffffffff00166001836002811115613524577f4e487b7100000000000000000000000000000000000000000000000000000000600052602160045260246000fd5b02179055506006547f79aa71bc7ac44ef46960b6e440cf08b63d9c1db4d3af7374da8c13371d369b1083600360405161355e9291906154ff565b60405180910390a2919050565b6000601260008360028111156135aa577f4e487b7100000000000000000000000000000000000000000000000000000000600052602160045260246000fd5b60028111156135e2577f4e487b7100000000000000000000000000000000000000000000000000000000600052602160045260246000fd5b8152602001908152602001600020600060065481526020019081526020016000209050600060136000846002811115613644577f4e487b7100000000000000000000000000000000000000000000000000000000600052602160045260246000fd5b600281111561367c577f4e487b7100000000000000000000000000000000000000000000000000000000600052602160045260246000fd5b81526020019081526020016000209050600080600090505b600b548110156138315761376b8460050182815481106136dd577f4e487b7100000000000000000000000000000000000000000000000000000000600052603260045260246000fd5b60009182526020909120015460048601805473ffffffffffffffffffffffffffffffffffffffff909216918490811061373f577f4e487b7100000000000000000000000000000000000000000000000000000000600052603260045260246000fd5b600091825260209091200154600f5473ffffffffffffffffffffffffffffffffffffffff16919061339a565b8360040181815481106137a7577f4e487b7100000000000000000000000000000000000000000000000000000000600052603260045260246000fd5b90600052602060002001548360010160008282546137c59190615803565b909155505060048401805482908110613807577f4e487b7100000000000000000000000000000000000000000000000000000000600052603260045260246000fd5b90600052602060002001548261381d919061579a565b915080613829816158ef565b915050613694565b50600e5460018301546138819173ffffffffffffffffffffffffffffffffffffffff1690613861906002906157b2565b600f5473ffffffffffffffffffffffffffffffffffffffff16919061339a565b61388c8460016132a1565b600a805490600061389c836158ef565b91905055507fef99a204a94c30b225058df07e102a2bb1ee4c08995f4a39eccf82e79e4731f984846005018342604051612da994939291906154d0565b600a54600314613915576040517f08c379a00000000000000000000000000000000000000000000000000000000081526004016104af906155fd565b60068054906000613925836158ef565b909155505042600381905561395b907f00000000000000000000000000000000000000000000000000000000000000009061579a565b600481905561398b907f00000000000000000000000000000000000000000000000000000000000000009061579a565b60055560408051606081018252600080825260016020830152600292820192909252905b6003811015613b045760008282600381106139f3577f4e487b7100000000000000000000000000000000000000000000000000000000600052603260045260246000fd5b60200201519050600060126000836002811115613a39577f4e487b7100000000000000000000000000000000000000000000000000000000600052602160045260246000fd5b6002811115613a71577f4e487b7100000000000000000000000000000000000000000000000000000000600052602160045260246000fd5b8152602080820192909252604090810160009081206006548083529352209081556003805460078301556004546008830155909150613aef90859085908110613ae3577f4e487b7100000000000000000000000000000000000000000000000000000000600052603260045260246000fd5b602002015160026132a1565b50508080613afc906158ef565b9150506139af565b506000600a556006546004546005546040517fb15bf0ec96989b8686c290ff167b6855edaa07d0e6b8458f665125e64819068492613b46929091600290615732565b60405180910390a250565b600060126000846002811115613b90577f4e487b7100000000000000000000000000000000000000000000000000000000600052602160045260246000fd5b6002811115613bc8577f4e487b7100000000000000000000000000000000000000000000000000000000600052602160045260246000fd5b815260200190815260200160002060006006548152602001908152602001600020905081613c1157613bfb8360016132a1565b600a8054906000613c0b836158ef565b91905055505b60008160010154600754613c259190615803565b905060015b82600101548111613e59576000613c41828461579a565b9050600060106000886002811115613c82577f4e487b7100000000000000000000000000000000000000000000000000000000600052602160045260246000fd5b6002811115613cba577f4e487b7100000000000000000000000000000000000000000000000000000000600052602160045260246000fd5b815260208082019290925260409081016000908120858252835281812054640100000000900473ffffffffffffffffffffffffffffffffffffffff168082526011909352908120919250886002811115613d3d577f4e487b7100000000000000000000000000000000000000000000000000000000600052602160045260246000fd5b6002811115613d75577f4e487b7100000000000000000000000000000000000000000000000000000000600052602160045260246000fd5b8152602001908152602001600020600060065481526020019081526020016000208054905060156000896002811115613dd7577f4e487b7100000000000000000000000000000000000000000000000000000000600052602160045260246000fd5b6002811115613e0f577f4e487b7100000000000000000000000000000000000000000000000000000000600052602160045260246000fd5b81526020808201929092526040908101600090812073ffffffffffffffffffffffffffffffffffffffff909516815293909152909120555080613e51816158ef565b915050613c2a565b5050505050565b60008281526014602052604081205460ff1690613e7d8284614091565b9050611464828261424f565b6000613eeb826040518060400160405280602081526020017f5361666545524332303a206c6f772d6c6576656c2063616c6c206661696c65648152508573ffffffffffffffffffffffffffffffffffffffff166145a09092919063ffffffff16565b8051909150156133b95780806020019051810190613f0991906149e3565b6133b9576040517f08c379a00000000000000000000000000000000000000000000000000000000081526004016104af9061569d565b60007f000000000000000000000000000000000000000000000000000000000000000073ffffffffffffffffffffffffffffffffffffffff16634000aea07f000000000000000000000000000000000000000000000000000000000000000084866000604051602001613fb3929190615471565b6040516020818303038152906040526040518463ffffffff1660e01b8152600401613fe09392919061541b565b602060405180830381600087803b158015613ffa57600080fd5b505af115801561400e573d6000803e3d6000fd5b505050506040513d601f19601f8201168201806040525081019061403291906149e3565b50600083815260016020526040812054614051908590839030906145b9565b600085815260016020819052604090912054919250614070919061579a565b6000858152600160205260409020556140898482614611565b949350505050565b60606000601260008560028111156140d2577f4e487b7100000000000000000000000000000000000000000000000000000000600052602160045260246000fd5b600281111561410a577f4e487b7100000000000000000000000000000000000000000000000000000000600052602160045260246000fd5b81526020019081526020016000206000600654815260200190815260200160002090506000600b5467ffffffffffffffff811115614171577f4e487b7100000000000000000000000000000000000000000000000000000000600052604160045260246000fd5b60405190808252806020026020018201604052801561419a578160200160208202803683370190505b50905060005b600b5481101561424657826001015485826040516020016141c2929190615471565b6040516020818303038152906040528051906020012060001c6141e59190615928565b6141f090600161579a565b828281518110614229577f4e487b7100000000000000000000000000000000000000000000000000000000600052603260045260246000fd5b60209081029190910101528061423e816158ef565b9150506141a0565b50949350505050565b60006012600084600281111561428e577f4e487b7100000000000000000000000000000000000000000000000000000000600052602160045260246000fd5b60028111156142c6577f4e487b7100000000000000000000000000000000000000000000000000000000600052602160045260246000fd5b815260200190815260200160002060006006548152602001908152602001600020905060005b600b54811015614594576000826001015460075461430a9190615803565b90506000848381518110614347577f4e487b7100000000000000000000000000000000000000000000000000000000600052603260045260246000fd5b60200260200101518261435a919061579a565b905060106000876002811115614399577f4e487b7100000000000000000000000000000000000000000000000000000000600052602160045260246000fd5b60028111156143d1577f4e487b7100000000000000000000000000000000000000000000000000000000600052602160045260246000fd5b81526020808201929092526040908101600090812084825290925290205460068501805463ffffffff9092169185908110614435577f4e487b7100000000000000000000000000000000000000000000000000000000600052603260045260246000fd5b906000526020600020018190555060106000876002811115614480577f4e487b7100000000000000000000000000000000000000000000000000000000600052602160045260246000fd5b60028111156144b8577f4e487b7100000000000000000000000000000000000000000000000000000000600052602160045260246000fd5b8152602001908152602001600020600082815260200190815260200160002060000160049054906101000a900473ffffffffffffffffffffffffffffffffffffffff16846005018481548110614537577f4e487b7100000000000000000000000000000000000000000000000000000000600052603260045260246000fd5b9060005260206000200160006101000a81548173ffffffffffffffffffffffffffffffffffffffff021916908373ffffffffffffffffffffffffffffffffffffffff1602179055505050808061458c906158ef565b9150506142ec565b506133b98360036132a1565b60606145af8484600085614644565b90505b9392505050565b6000848484846040516020016145d2949392919061547f565b604080517fffffffffffffffffffffffffffffffffffffffffffffffffffffffffffffffe0818403018152919052805160209091012095945050505050565b60008282604051602001614626929190615385565b60405160208183030381529060405280519060200120905092915050565b606082471015614680576040517f08c379a00000000000000000000000000000000000000000000000000000000081526004016104af906155cd565b843b6146b8576040517f08c379a00000000000000000000000000000000000000000000000000000000081526004016104af9061567d565b6000808673ffffffffffffffffffffffffffffffffffffffff1685876040516146e191906153a5565b60006040518083038185875af1925050503d806000811461471e576040519150601f19603f3d011682016040523d82523d6000602084013e614723565b606091505b509150915061473382828661473e565b979650505050505050565b6060831561474d5750816145b2565b82511561475d5782518084602001fd5b816040517f08c379a00000000000000000000000000000000000000000000000000000000081526004016104af919061556c565b60405180608001604052806000815260200160008152602001600060028111156147e4577f4e487b7100000000000000000000000000000000000000000000000000000000600052602160045260246000fd5b8152602001600081525090565b82805482825590600052602060002090810192821561482c579160200282015b8281111561482c578251825591602001919060010190614811565b5061483892915061483c565b5090565b5b80821115614838576000815560010161483d565b600061486461485f84615776565b61575a565b9050808382526020820190508285602086028501111561488357600080fd5b60005b858110156148ad576148988783614955565b83526020928301929190910190600101614886565b5050509392505050565b80356112f381615a27565b600082601f8301126148d2578081fd5b8135614089848260208601614851565b80516112f381615a3b565b80356112f381615a43565b60008083601f840112614909578182fd5b50813567ffffffffffffffff811115614920578182fd5b60208301915083600182028301111561493857600080fd5b9250929050565b80356112f381615a49565b80516112f381615a43565b80356112f381615a56565b600060208284031215614971578081fd5b6145b2838284016148b7565b6000806040838503121561498f578081fd5b61499b848285016148b7565b915060206149ab858286016148b7565b9150509250929050565b600080604083850312156149c7578182fd5b6149d3848385016148b7565b915060206149ab858286016148ed565b6000602082840312156149f4578081fd5b6145b2838284016148e2565b60008060408385031215614a12578182fd5b6149d3848385016148ed565b60008060208385031215614a30578182fd5b8183013567ffffffffffffffff811115614a48578283fd5b614a54858286016148f8565b92509250509250929050565b600060208284031215614a71578081fd5b6145b28382840161493f565b60008060408385031215614a8f578182fd5b61499b8483850161493f565b60008060408385031215614aad578182fd5b614ab98483850161493f565b9150602083013567ffffffffffffffff811115614ad4578182fd5b6149ab858286016148c2565b60008060408385031215614af2578182fd5b6149d38483850161493f565b600080600060608486031215614b12578081fd5b614b1e8582860161493f565b92506020614b2e868287016148ed565b925050604084013567ffffffffffffffff811115614b4a578182fd5b614b56868287016148c2565b9150509250925092565b60008060408385031215614b72578182fd5b614b7e848385016148ed565b915060206149ab8582860161493f565b600060208284031215614b9f578081fd5b6145b28382840161494a565b614bb58282614bc6565b5060200190565b614bb58282614ca6565b614bcf8161581a565b82525050565b6000614bdf825190565b8084526020938401938301825b82811015614c11578151614c008782614bab565b965050602082019150600101614bec565b5093949350505050565b6000614c25825490565b8084526000838152602090819020940193825b82811015614c1157614c49826159f8565b614c538782614bab565b96505060019182019101614c38565b6000614c6c825190565b8084526020938401938301825b82811015614c11578151614c8d8782614bbc565b965050602082019150600101614c79565b801515614bcf565b80614bcf565b6000614cb6825190565b808452602084019350614ccd818560208601615878565b601f017fffffffffffffffffffffffffffffffffffffffffffffffffffffffffffffffe0169290920192915050565b6000614d06825190565b614d14818560208601615878565b9290920192915050565b614bcf8161584c565b614bcf81615857565b614bcf81615862565b614bcf8161586d565b601d8152602081017f596f7520646f206e6f74206861766520616e7920726f6c6c6f76657273000000815290505b60200190565b60268152602081017f4f776e61626c653a206e6577206f776e657220697320746865207a65726f206181527f6464726573730000000000000000000000000000000000000000000000000000602082015290505b60400190565b60148152602081017f596f752068617665206e6f20726f6c6c6f76657200000000000000000000000081529050614d70565b60148152602081017f436f6e7472616374206e6f7420616c6c6f77656400000000000000000000000081529050614d70565b602b8152602081017f4e6f7420656e6f756768204c494e4b202d2066696c6c20636f6e74726163742081527f776974682066617563657400000000000000000000000000000000000000000060208201529050614dca565b60268152602081017f416464726573733a20696e73756666696369656e742062616c616e636520666f81527f722063616c6c000000000000000000000000000000000000000000000000000060208201529050614dca565b60278152602081017f536f7272792063616e206e6f74206465616374697661746520612076616c696481527f20726166666c650000000000000000000000000000000000000000000000000060208201529050614dca565b60168152602081017f43616e6e6f74206265207a65726f20616464726573730000000000000000000081529050614d70565b60198152602081017f5265626f6f7420636865636b206e6f7420636f6d706c6574650000000000000081529050614d70565b60138152602081017f4e6f207469636b6574207370656369666965640000000000000000000000000081529050614d70565b601a8152602081017f50726f787920636f6e7472616374206e6f7420616c6c6f77656400000000000081529050614d70565b60208082527f4f776e61626c653a2063616c6c6572206973206e6f7420746865206f776e65729101908152614d70565b601f8152602081017f4f6e6c7920565246436f6f7264696e61746f722063616e2066756c66696c6c0081529050614d70565b60148152602081017f43616e6e6f74206265205553444320746f6b656e00000000000000000000000081529050614d70565b60158152602081017f4e6f74206f776e6572206f7220696e6a6563746f72000000000000000000000081529050614d70565b602f8152602081017f536f7272792063616e20616374697661746520617320726166666c652069732081527f6e6f74206465616374697661746564000000000000000000000000000000000060208201529050614dca565b601d8152602081017f416464726573733a2063616c6c20746f206e6f6e2d636f6e747261637400000081529050614d70565b600f8152602081017f526166666c65206e6f74206f70656e000000000000000000000000000000000081529050614d70565b602a8152602081017f5361666545524332303a204552433230206f7065726174696f6e20646964206e81527f6f7420737563636565640000000000000000000000000000000000000000000060208201529050614dca565b601f8152602081017f5265656e7472616e637947756172643a207265656e7472616e742063616c6c0081529050614d70565b601f8152602081017f6e6f206d6174636820696e207469636b65747320746f20726f6c6c6f7665720081529050614d70565b60108152602081017f546f6f206d616e79207469636b6574730000000000000000000000000000000081529050614d70565b80516000906101208401906152898582614ca6565b50602083015161529c6020860182614ca6565b5060408301516152af6040860182614ca6565b5060608301516152c26060860182614ca6565b50608083015184820360808601526152da8282614c62565b91505060a083015184820360a08601526152f48282614bd5565b91505060c083015184820360c086015261530e8282614c62565b91505060e083015161532360e0860182614ca6565b50610100830151615338610100860182614ca6565b509392505050565b805161534c8382614ca6565b50602081015161535f6020840182614ca6565b5060408101516153726040840182614d27565b5060608101516133b96060840182614ca6565b61538f8184614ca6565b60200161539c8183614ca6565b60200192915050565b6112f38183614cfc565b602081016112f38284614bc6565b604081016153cb8285614bc6565b6145b26020830184614bc6565b606081016153e68286614bc6565b6153f36020830185614bc6565b6140896040830184614ca6565b6040810161540e8285614bc6565b6145b26020830184614ca6565b606081016154298286614bc6565b6154366020830185614ca6565b81810360408301526154488184614cac565b95945050505050565b6040810161545f8285614c9e565b81810360208301526145af8184614cac565b6040810161540e8285614ca6565b6080810161548d8287614ca6565b61549a6020830186614ca6565b6154a76040830185614bc6565b6154486060830184614ca6565b602081016112f38284614d1e565b606081016153e68286614d27565b608081016154de8287614d27565b81810360208301526154f08186614c1b565b90506154a76040830185614ca6565b6040810161550d8285614d27565b6145b26020830184614d30565b6040810161540e8285614d27565b606081016155368286614d27565b6153f36020830185614ca6565b602081016112f38284614d30565b6040810161555f8285614d39565b6145b26020830184614d27565b602080825281016145b28184614cac565b602080825281016112f381614d42565b602080825281016112f381614d76565b602080825281016112f381614dd0565b602080825281016112f381614e02565b602080825281016112f381614e34565b602080825281016112f381614e8c565b602080825281016112f381614ee4565b602080825281016112f381614f3c565b602080825281016112f381614f6e565b602080825281016112f381614fa0565b602080825281016112f381614fd2565b602080825281016112f381615004565b602080825281016112f381615034565b602080825281016112f381615066565b602080825281016112f381615098565b602080825281016112f3816150ca565b602080825281016112f381615122565b602080825281016112f381615154565b602080825281016112f381615186565b602080825281016112f3816151de565b602080825281016112f381615210565b602080825281016112f381615242565b602080825281016145b28184615274565b608081016112f38284615340565b602081016112f38284614ca6565b608081016157188287614ca6565b6157256020830186614ca6565b6154a76040830185614d27565b606081016157408286614ca6565b61574d6020830185614ca6565b6140896040830184614d30565b600061576560405190565b905061577182826158a4565b919050565b600067ffffffffffffffff821115615790576157906159c9565b5060209081020190565b600082198211156157ad576157ad61593c565b500190565b6000826157c1576157c161596b565b500490565b6000817fffffffffffffffffffffffffffffffffffffffffffffffffffffffffffffffff04831182151516156157fe576157fe61593c565b500290565b6000828210156158155761581561593c565b500390565b600073ffffffffffffffffffffffffffffffffffffffff82166112f3565b8061577181615a04565b8061577181615a17565b60006112f38261581a565b60006112f382615838565b60006112f382615842565b600060ff82166112f3565b60005b8381101561589357818101518382015260200161587b565b838111156114645750506000910152565b7fffffffffffffffffffffffffffffffffffffffffffffffffffffffffffffffe0601f830116810181811067ffffffffffffffff821117156158e8576158e86159c9565b6040525050565b60007fffffffffffffffffffffffffffffffffffffffffffffffffffffffffffffffff8214156159215761592161593c565b5060010190565b6000826159375761593761596b565b500690565b7f4e487b7100000000000000000000000000000000000000000000000000000000600052601160045260246000fd5b7f4e487b7100000000000000000000000000000000000000000000000000000000600052601260045260246000fd5b7f4e487b7100000000000000000000000000000000000000000000000000000000600052602160045260246000fd5b7f4e487b7100000000000000000000000000000000000000000000000000000000600052604160045260246000fd5b60006112f3825461581a565b60038110615a1457615a1461599a565b50565b60058110615a1457615a1461599a565b615a308161581a565b8114615a1457600080fd5b801515615a30565b80615a30565b60038110615a1457600080fd5b63ffffffff8116615a3056fea2646970667358221220abb56a0beb257889a3ced64a530462b4e59e4e49fd71e499aedacf54e6812ed564736f6c63430008040033",
  "linkReferences": {},
  "deployedLinkReferences": {}
}