{
  "_format": "hh-sol-artifact-1",
  "contractName": "Raffle",
  "sourceName": "contracts/Raffle.sol",
  "abi": [
    {
      "inputs": [
        {
          "internalType": "address",
          "name": "_vrfCoordinator",
          "type": "address"
        },
        {
          "internalType": "address",
          "name": "_link",
          "type": "address"
        },
        {
          "internalType": "bytes32",
          "name": "_keyHash",
          "type": "bytes32"
        },
        {
          "internalType": "uint256",
          "name": "_fee",
          "type": "uint256"
        },
        {
          "internalType": "address",
          "name": "_USDCtoken",
          "type": "address"
        }
      ],
      "stateMutability": "nonpayable",
      "type": "constructor"
    },
    {
      "anonymous": false,
      "inputs": [
        {
          "indexed": false,
          "internalType": "address",
          "name": "token",
          "type": "address"
        },
        {
          "indexed": false,
          "internalType": "uint256",
          "name": "amount",
          "type": "uint256"
        }
      ],
      "name": "AdminTokenRecovery",
      "type": "event"
    },
    {
      "anonymous": false,
      "inputs": [
        {
          "indexed": false,
          "internalType": "enum Raffle.RaffleCategory",
          "name": "raffleCategory",
          "type": "uint8"
        },
        {
          "indexed": true,
          "internalType": "uint256",
          "name": "raffleId",
          "type": "uint256"
        },
        {
          "indexed": false,
          "internalType": "uint256",
          "name": "injectedAmount",
          "type": "uint256"
        }
      ],
      "name": "LotteryInjection",
      "type": "event"
    },
    {
      "anonymous": false,
      "inputs": [
        {
          "indexed": false,
          "internalType": "address",
          "name": "treasuryAddress",
          "type": "address"
        },
        {
          "indexed": false,
          "internalType": "address",
          "name": "injectorAddress",
          "type": "address"
        }
      ],
      "name": "NewTreasuryAndInjectorAddresses",
      "type": "event"
    },
    {
      "anonymous": false,
      "inputs": [
        {
          "indexed": false,
          "internalType": "uint256",
          "name": "txIndex",
          "type": "uint256"
        },
        {
          "indexed": false,
          "internalType": "uint256",
          "name": "timestamp",
          "type": "uint256"
        },
        {
          "indexed": false,
          "internalType": "enum Raffle.RaffleCategory",
          "name": "raffleCategory",
          "type": "uint8"
        },
        {
          "indexed": false,
          "internalType": "uint256",
          "name": "noOfTickets",
          "type": "uint256"
        }
      ],
      "name": "NewUserTransaction",
      "type": "event"
    },
    {
      "anonymous": false,
      "inputs": [
        {
          "indexed": true,
          "internalType": "address",
          "name": "previousOwner",
          "type": "address"
        },
        {
          "indexed": true,
          "internalType": "address",
          "name": "newOwner",
          "type": "address"
        }
      ],
      "name": "OwnershipTransferred",
      "type": "event"
    },
    {
      "anonymous": false,
      "inputs": [
        {
          "indexed": false,
          "internalType": "uint256",
          "name": "raffleID",
          "type": "uint256"
        },
        {
          "indexed": false,
          "internalType": "uint256",
          "name": "timeStamp",
          "type": "uint256"
        },
        {
          "indexed": false,
          "internalType": "enum Raffle.RaffleState",
          "name": "raffleState",
          "type": "uint8"
        }
      ],
      "name": "RaffleDeactivated",
      "type": "event"
    },
    {
      "anonymous": false,
      "inputs": [
        {
          "indexed": false,
          "internalType": "enum Raffle.RaffleCategory",
          "name": "category",
          "type": "uint8"
        },
        {
          "indexed": true,
          "internalType": "uint256",
          "name": "raffleId",
          "type": "uint256"
        },
        {
          "indexed": false,
          "internalType": "enum Raffle.RaffleState",
          "name": "raffleState",
          "type": "uint8"
        }
      ],
      "name": "RaffleEnded",
      "type": "event"
    },
    {
      "anonymous": false,
      "inputs": [
        {
          "indexed": true,
          "internalType": "uint256",
          "name": "raffleId",
          "type": "uint256"
        },
        {
          "indexed": false,
          "internalType": "uint256",
          "name": "endTime",
          "type": "uint256"
        },
        {
          "indexed": false,
          "internalType": "uint256",
          "name": "rebootEndTime",
          "type": "uint256"
        },
        {
          "indexed": false,
          "internalType": "enum Raffle.RaffleState",
          "name": "raffleState",
          "type": "uint8"
        }
      ],
      "name": "RaffleOpen",
      "type": "event"
    },
    {
      "anonymous": false,
      "inputs": [
        {
          "indexed": false,
          "internalType": "uint256",
          "name": "raffleID",
          "type": "uint256"
        },
        {
          "indexed": false,
          "internalType": "uint256",
          "name": "timeStamp",
          "type": "uint256"
        },
        {
          "indexed": false,
          "internalType": "enum Raffle.RaffleState",
          "name": "raffleState",
          "type": "uint8"
        }
      ],
      "name": "RaffleReactivated",
      "type": "event"
    },
    {
      "anonymous": false,
      "inputs": [
        {
          "indexed": false,
          "internalType": "enum Raffle.RaffleCategory",
          "name": "raffleCategory",
          "type": "uint8"
        },
        {
          "indexed": true,
          "internalType": "uint256",
          "name": "raffleId",
          "type": "uint256"
        },
        {
          "indexed": false,
          "internalType": "address",
          "name": "buyer",
          "type": "address"
        },
        {
          "indexed": false,
          "internalType": "uint32[]",
          "name": "tickets",
          "type": "uint32[]"
        }
      ],
      "name": "RolloverClaimed",
      "type": "event"
    },
    {
      "anonymous": false,
      "inputs": [
        {
          "indexed": false,
          "internalType": "enum Raffle.RaffleCategory",
          "name": "raffleCategory",
          "type": "uint8"
        },
        {
          "indexed": true,
          "internalType": "uint256",
          "name": "raffleId",
          "type": "uint256"
        },
        {
          "indexed": true,
          "internalType": "address",
          "name": "buyer",
          "type": "address"
        },
        {
          "indexed": false,
          "internalType": "uint32[]",
          "name": "tickets",
          "type": "uint32[]"
        },
        {
          "indexed": false,
          "internalType": "uint256",
          "name": "rafflePool",
          "type": "uint256"
        }
      ],
      "name": "TicketsPurchased",
      "type": "event"
    },
    {
      "anonymous": false,
      "inputs": [
        {
          "indexed": false,
          "internalType": "enum Raffle.RaffleCategory",
          "name": "raffleCategory",
          "type": "uint8"
        },
        {
          "indexed": false,
          "internalType": "address[]",
          "name": "winners",
          "type": "address[]"
        },
        {
          "indexed": false,
          "internalType": "uint256",
          "name": "amount",
          "type": "uint256"
        },
        {
          "indexed": false,
          "internalType": "uint256",
          "name": "timestamp",
          "type": "uint256"
        }
      ],
      "name": "WinnersAwarded",
      "type": "event"
    },
    {
      "anonymous": false,
      "inputs": [
        {
          "indexed": false,
          "internalType": "uint256",
          "name": "raffleID",
          "type": "uint256"
        },
        {
          "indexed": false,
          "internalType": "uint256",
          "name": "amount",
          "type": "uint256"
        }
      ],
      "name": "WithdrawalComplete",
      "type": "event"
    },
    {
      "inputs": [
        {
          "internalType": "address",
          "name": "_injectorAddress",
          "type": "address"
        },
        {
          "internalType": "address",
          "name": "_treasuryAddress",
          "type": "address"
        }
      ],
      "name": "SetInjectorAndTreasuryAdresses",
      "outputs": [],
      "stateMutability": "nonpayable",
      "type": "function"
    },
    {
      "inputs": [],
      "name": "USDCtoken",
      "outputs": [
        {
          "internalType": "contract IERC20",
          "name": "",
          "type": "address"
        }
      ],
      "stateMutability": "view",
      "type": "function"
    },
    {
      "inputs": [
        {
          "internalType": "enum Raffle.RaffleCategory",
          "name": "_category",
          "type": "uint8"
        },
        {
          "internalType": "uint32[]",
          "name": "_tickets",
          "type": "uint32[]"
        }
      ],
      "name": "buyTicket",
      "outputs": [],
      "stateMutability": "nonpayable",
      "type": "function"
    },
    {
      "inputs": [],
      "name": "checkLinkBalance",
      "outputs": [
        {
          "internalType": "uint256",
          "name": "",
          "type": "uint256"
        }
      ],
      "stateMutability": "view",
      "type": "function"
    },
    {
      "inputs": [
        {
          "internalType": "bytes",
          "name": "",
          "type": "bytes"
        }
      ],
      "name": "checkUpkeep",
      "outputs": [
        {
          "internalType": "bool",
          "name": "upkeepNeeded",
          "type": "bool"
        },
        {
          "internalType": "bytes",
          "name": "performData",
          "type": "bytes"
        }
      ],
      "stateMutability": "view",
      "type": "function"
    },
    {
      "inputs": [
        {
          "internalType": "enum Raffle.RaffleCategory",
          "name": "_category",
          "type": "uint8"
        },
        {
          "internalType": "uint256",
          "name": "_ticketsToRollover",
          "type": "uint256"
        },
        {
          "internalType": "uint32[]",
          "name": "_tickets",
          "type": "uint32[]"
        }
      ],
      "name": "claimRollover",
      "outputs": [],
      "stateMutability": "nonpayable",
      "type": "function"
    },
    {
      "inputs": [],
      "name": "currentTicketID",
      "outputs": [
        {
          "internalType": "uint256",
          "name": "",
          "type": "uint256"
        }
      ],
      "stateMutability": "view",
      "type": "function"
    },
    {
      "inputs": [],
      "name": "deactivateRaffle",
      "outputs": [],
      "stateMutability": "nonpayable",
      "type": "function"
    },
    {
      "inputs": [
        {
          "internalType": "enum Raffle.RaffleCategory",
          "name": "_category",
          "type": "uint8"
        }
      ],
      "name": "getCurrentRaffleState",
      "outputs": [
        {
          "internalType": "enum Raffle.RaffleState",
          "name": "raffleState",
          "type": "uint8"
        }
      ],
      "stateMutability": "view",
      "type": "function"
    },
    {
      "inputs": [],
      "name": "getRaffleEndTime",
      "outputs": [
        {
          "internalType": "uint256",
          "name": "",
          "type": "uint256"
        }
      ],
      "stateMutability": "view",
      "type": "function"
    },
    {
      "inputs": [
        {
          "internalType": "enum Raffle.RaffleCategory",
          "name": "_category",
          "type": "uint8"
        }
      ],
      "name": "getRafflePool",
      "outputs": [
        {
          "internalType": "uint256",
          "name": "",
          "type": "uint256"
        }
      ],
      "stateMutability": "view",
      "type": "function"
    },
    {
      "inputs": [],
      "name": "getRebootEndTime",
      "outputs": [
        {
          "internalType": "uint256",
          "name": "",
          "type": "uint256"
        }
      ],
      "stateMutability": "view",
      "type": "function"
    },
    {
      "inputs": [
        {
          "internalType": "address",
          "name": "_user",
          "type": "address"
        }
      ],
      "name": "getUserTransactionCount",
      "outputs": [
        {
          "internalType": "uint256",
          "name": "",
          "type": "uint256"
        }
      ],
      "stateMutability": "view",
      "type": "function"
    },
    {
      "inputs": [],
      "name": "getraffleID",
      "outputs": [
        {
          "internalType": "uint256",
          "name": "",
          "type": "uint256"
        }
      ],
      "stateMutability": "view",
      "type": "function"
    },
    {
      "inputs": [
        {
          "internalType": "address",
          "name": "_user",
          "type": "address"
        },
        {
          "internalType": "uint256",
          "name": "_txIndex",
          "type": "uint256"
        }
      ],
      "name": "getuserTransactionHistory",
      "outputs": [
        {
          "components": [
            {
              "internalType": "uint256",
              "name": "txID",
              "type": "uint256"
            },
            {
              "internalType": "uint256",
              "name": "time",
              "type": "uint256"
            },
            {
              "internalType": "enum Raffle.RaffleCategory",
              "name": "raffleCategory",
              "type": "uint8"
            },
            {
              "internalType": "uint256",
              "name": "noOfTickets",
              "type": "uint256"
            }
          ],
          "internalType": "struct Raffle.Transaction",
          "name": "userTransaction",
          "type": "tuple"
        }
      ],
      "stateMutability": "view",
      "type": "function"
    },
    {
      "inputs": [
        {
          "internalType": "enum Raffle.RaffleCategory",
          "name": "_category",
          "type": "uint8"
        },
        {
          "internalType": "uint256",
          "name": "_amount",
          "type": "uint256"
        }
      ],
      "name": "injectFunds",
      "outputs": [],
      "stateMutability": "nonpayable",
      "type": "function"
    },
    {
      "inputs": [],
      "name": "injectorAddress",
      "outputs": [
        {
          "internalType": "address",
          "name": "",
          "type": "address"
        }
      ],
      "stateMutability": "view",
      "type": "function"
    },
    {
      "inputs": [],
      "name": "maxNumberTicketsPerBuy",
      "outputs": [
        {
          "internalType": "uint256",
          "name": "",
          "type": "uint256"
        }
      ],
      "stateMutability": "view",
      "type": "function"
    },
    {
      "inputs": [],
      "name": "noOfWinners",
      "outputs": [
        {
          "internalType": "uint256",
          "name": "",
          "type": "uint256"
        }
      ],
      "stateMutability": "view",
      "type": "function"
    },
    {
      "inputs": [],
      "name": "owner",
      "outputs": [
        {
          "internalType": "address",
          "name": "",
          "type": "address"
        }
      ],
      "stateMutability": "view",
      "type": "function"
    },
    {
      "inputs": [
        {
          "internalType": "bytes",
          "name": "performData",
          "type": "bytes"
        }
      ],
      "name": "performUpkeep",
      "outputs": [],
      "stateMutability": "nonpayable",
      "type": "function"
    },
    {
      "inputs": [
        {
          "internalType": "bytes32",
          "name": "requestId",
          "type": "bytes32"
        },
        {
          "internalType": "uint256",
          "name": "randomness",
          "type": "uint256"
        }
      ],
      "name": "rawFulfillRandomness",
      "outputs": [],
      "stateMutability": "nonpayable",
      "type": "function"
    },
    {
      "inputs": [],
      "name": "reactivateRaffle",
      "outputs": [],
      "stateMutability": "nonpayable",
      "type": "function"
    },
    {
      "inputs": [],
      "name": "rebootChecker",
      "outputs": [
        {
          "internalType": "uint256",
          "name": "",
          "type": "uint256"
        }
      ],
      "stateMutability": "view",
      "type": "function"
    },
    {
      "inputs": [
        {
          "internalType": "address",
          "name": "_tokenAddress",
          "type": "address"
        },
        {
          "internalType": "uint256",
          "name": "_tokenAmount",
          "type": "uint256"
        }
      ],
      "name": "recoverWrongTokens",
      "outputs": [],
      "stateMutability": "nonpayable",
      "type": "function"
    },
    {
      "inputs": [],
      "name": "renounceOwnership",
      "outputs": [],
      "stateMutability": "nonpayable",
      "type": "function"
    },
    {
      "inputs": [
        {
          "internalType": "address",
          "name": "newOwner",
          "type": "address"
        }
      ],
      "name": "transferOwnership",
      "outputs": [],
      "stateMutability": "nonpayable",
      "type": "function"
    },
    {
      "inputs": [],
      "name": "treasuryAddress",
      "outputs": [
        {
          "internalType": "address",
          "name": "",
          "type": "address"
        }
      ],
      "stateMutability": "view",
      "type": "function"
    },
    {
      "inputs": [
        {
          "internalType": "enum Raffle.RaffleCategory",
          "name": "_category",
          "type": "uint8"
        },
        {
          "internalType": "uint256",
          "name": "_raffleID",
          "type": "uint256"
        }
      ],
      "name": "viewRaffle",
      "outputs": [
        {
          "components": [
            {
              "internalType": "uint256",
              "name": "ID",
              "type": "uint256"
            },
            {
              "internalType": "uint256",
              "name": "noOfTicketsSold",
              "type": "uint256"
            },
            {
              "internalType": "uint256",
              "name": "noOfPlayers",
              "type": "uint256"
            },
            {
              "internalType": "uint256",
              "name": "amountInjected",
              "type": "uint256"
            },
            {
              "internalType": "uint256[]",
              "name": "winnersPayout",
              "type": "uint256[]"
            },
            {
              "internalType": "address[]",
              "name": "winners",
              "type": "address[]"
            },
            {
              "internalType": "uint256[]",
              "name": "winningTickets",
              "type": "uint256[]"
            },
            {
              "internalType": "uint256",
              "name": "raffleStartTime",
              "type": "uint256"
            },
            {
              "internalType": "uint256",
              "name": "raffleEndTime",
              "type": "uint256"
            }
          ],
          "internalType": "struct Raffle.RaffleStruct",
          "name": "raffle",
          "type": "tuple"
        }
      ],
      "stateMutability": "view",
      "type": "function"
    },
    {
      "inputs": [
        {
          "internalType": "enum Raffle.RaffleCategory",
          "name": "_category",
          "type": "uint8"
        },
        {
          "internalType": "address",
          "name": "_user",
          "type": "address"
        }
      ],
      "name": "viewUserRollovers",
      "outputs": [
        {
          "internalType": "uint256",
          "name": "ticketsToRollover",
          "type": "uint256"
        }
      ],
      "stateMutability": "view",
      "type": "function"
    },
    {
      "inputs": [
        {
          "internalType": "enum Raffle.RaffleCategory",
          "name": "_category",
          "type": "uint8"
        },
        {
          "internalType": "address",
          "name": "_user",
          "type": "address"
        },
        {
          "internalType": "uint256",
          "name": "_raffleID",
          "type": "uint256"
        }
      ],
      "name": "viewUserTickets",
      "outputs": [
        {
          "internalType": "uint32[]",
          "name": "",
          "type": "uint32[]"
        }
      ],
      "stateMutability": "view",
      "type": "function"
    },
    {
      "inputs": [
        {
          "internalType": "enum Raffle.RaffleCategory",
          "name": "_category",
          "type": "uint8"
        }
      ],
      "name": "withdrawFundsDueToDeactivation",
      "outputs": [],
      "stateMutability": "nonpayable",
      "type": "function"
    }
  ],
  "bytecode": "0x610100604052611c2060c05261070860e0526003600b556103e8600c553480156200002957600080fd5b50604051620053c4380380620053c48339810160408190526200004c91620001aa565b600160009081556001600160601b0319606087811b821660a05286901b16608052620000753390565b600280546001600160a01b0319166001600160a01b038316908117909155604051919250906000907f8be0079c531659141344cd1fd0a4f28419497f9722a3daafe3b4186f6b6457e0908290a350600883905560098290556003600a55600f80546001600160a01b0319166001600160a01b0383161790556200017f6013602052670de0b6b3a76400007f8fa6efc3be94b5b348b21fea823fe8d100408cee9b7f90524494500445d8ff6c55678ac7230489e800007f4155c2f711f2cdd34f8262ab8fb9b7020a700fe7b6948222152f7670d1fdf34d55600260005268056bc75e2d631000007f0b9d2c0c271bb30544eb78c59bdaebdae2728e5f65814c07768a0abe90ed192355565b50505050506200025b565b805162000197816200023a565b92915050565b8051620001978162000254565b600080600080600060a08688031215620001c2578081fd5b620001d0878288016200018a565b94506020620001e2888289016200018a565b9450506040620001f5888289016200019d565b935050606062000208888289016200019d565b92505060806200021b888289016200018a565b9150509295509295909350565b60006001600160a01b03821662000197565b620002458162000228565b81146200025157600080fd5b50565b8062000245565b60805160601c60a05160601c60c05160e051615114620002b06000396000613203015260006131d3015260008181611b5601526136f0015260008181611bfb01528181612d4301526136b401526151146000f3fe608060405234801561001057600080fd5b50600436106101f05760003560e01c80638da5cb5b1161010f578063c1aba43f116100a2578063e2fae27611610071578063e2fae27614610469578063f0e21cd91461047c578063f2fde38b14610485578063f53c7d081461049857600080fd5b8063c1aba43f146103eb578063c5f956af146103f3578063d8f3384014610413578063defc98f81461044957600080fd5b8063a24bf4ff116100de578063a24bf4ff146103a7578063a7390c8e146103af578063ad99854b146103cf578063b6e81a4d146103d857600080fd5b80638da5cb5b1461034557806394985ddd1461036c5780639c3846531461037f5780639eb386fd1461039f57600080fd5b80634585e33b116101875780636c6f693d116101565780636c6f693d146102e95780636e04ff0d146102fc578063715018a61461031d5780637cbd22fb1461032557600080fd5b80634585e33b146102b2578063518da0a4146102c55780635c0b95d4146102ce57806367bb60a0146102d657600080fd5b80632e23be9d116101c35780632e23be9d1461023f5780633f138d4b146102525780634185e5071461026557806344ab1d5c1461029257600080fd5b806313b42fa3146101f55780631de50d491461020f578063269ce1bb14610224578063280550961461022c575b600080fd5b6006545b6040516102069190614ddc565b60405180910390f35b61022261021d3660046140ef565b6104a1565b005b61022261089f565b61022261023a366004614069565b610bad565b6101f961024d366004614086565b610fff565b610222610260366004613fbe565b611099565b600f546102859073ffffffffffffffffffffffffffffffffffffffff1681565b6040516102069190614b61565b6102a56102a03660046140a4565b61119d565b6040516102069190614aed565b6102226102c0366004614027565b6112a8565b6101f9600b5481565b6004546101f9565b6102226102e4366004614134565b611315565b6102226102f7366004613f86565b61151c565b61030f61030a366004614027565b61168e565b604051610206929190614afe565b61022261199d565b610338610333366004613fbe565b611a5d565b6040516102069190614dce565b60025473ffffffffffffffffffffffffffffffffffffffff165b6040516102069190614a4b565b61022261037a366004614009565b611b3e565b600d5461035f9073ffffffffffffffffffffffffffffffffffffffff1681565b6005546101f9565b6101f9611bbb565b6103c26103bd366004614134565b611c85565b6040516102069190614dbd565b6101f9600c5481565b6101f96103e6366004614069565b611ea5565b610222611f06565b600e5461035f9073ffffffffffffffffffffffffffffffffffffffff1681565b6101f9610421366004613f69565b73ffffffffffffffffffffffffffffffffffffffff1660009081526016602052604090205490565b61045c610457366004614069565b6121b8565b6040516102069190614c23565b610222610477366004614152565b61221c565b6101f9600a5481565b610222610493366004613f69565b612577565b6101f960075481565b333b156104e3576040517f08c379a00000000000000000000000000000000000000000000000000000000081526004016104da90614c8d565b60405180910390fd5b33321461051c576040517f08c379a00000000000000000000000000000000000000000000000000000000081526004016104da90614cfd565b60026000541415610559576040517f08c379a00000000000000000000000000000000000000000000000000000000081526004016104da90614d8d565b60026000558051610596576040517f08c379a00000000000000000000000000000000000000000000000000000000081526004016104da90614ced565b600c54815111156105d3576040517f08c379a00000000000000000000000000000000000000000000000000000000081526004016104da90614dad565b6002601360008460028111156105f957634e487b7160e01b600052602160045260246000fd5b600281111561061857634e487b7160e01b600052602160045260246000fd5b815260208101919091526040016000206002015460ff16600481111561064e57634e487b7160e01b600052602160045260246000fd5b14610685576040517f08c379a00000000000000000000000000000000000000000000000000000000081526004016104da90614d6d565b6000601360008460028111156106ab57634e487b7160e01b600052602160045260246000fd5b60028111156106ca57634e487b7160e01b600052602160045260246000fd5b8152602001908152602001600020905060006012600085600281111561070057634e487b7160e01b600052602160045260246000fd5b600281111561071f57634e487b7160e01b600052602160045260246000fd5b815260208082019290925260409081016000908120600654825290925281208451845491935061074e91614ea6565b600f549091506107769073ffffffffffffffffffffffffffffffffffffffff163330846126a3565b336000908152601160205260408120908660028111156107a657634e487b7160e01b600052602160045260246000fd5b60028111156107c557634e487b7160e01b600052602160045260246000fd5b8152602080820192909252604090810160009081206006548252909252902054610801576002820180549060006107fb83614fcf565b91905055505b808360010160008282546108159190614e7a565b92505081905550610827858551612746565b6108318585612893565b61083a85612b20565b3373ffffffffffffffffffffffffffffffffffffffff166006547f18200e2b80dfa48dcef90abdec152d021f2054a5e191836a2aadcdc5575a6b178787876001015460405161088b93929190614bcb565b60405180910390a350506001600055505050565b60025473ffffffffffffffffffffffffffffffffffffffff1633146108f0576040517f08c379a00000000000000000000000000000000000000000000000000000000081526004016104da90614d0d565b600080805260136020527f8fa6efc3be94b5b348b21fea823fe8d100408cee9b7f90524494500445d8ff6e547f8fa6efc3be94b5b348b21fea823fe8d100408cee9b7f90524494500445d8ff6c9060049060ff168181111561096257634e487b7160e01b600052602160045260246000fd5b14610999576040517f08c379a00000000000000000000000000000000000000000000000000000000081526004016104da90614d4d565b6001600081905260136020527f4155c2f711f2cdd34f8262ab8fb9b7020a700fe7b6948222152f7670d1fdf34f547f4155c2f711f2cdd34f8262ab8fb9b7020a700fe7b6948222152f7670d1fdf34d9060049060ff1681811115610a0d57634e487b7160e01b600052602160045260246000fd5b14610a44576040517f08c379a00000000000000000000000000000000000000000000000000000000081526004016104da90614d4d565b6002600081905260136020527f0b9d2c0c271bb30544eb78c59bdaebdae2728e5f65814c07768a0abe90ed1925547f0b9d2c0c271bb30544eb78c59bdaebdae2728e5f65814c07768a0abe90ed19239060049060ff1681811115610ab857634e487b7160e01b600052602160045260246000fd5b14610aef576040517f08c379a00000000000000000000000000000000000000000000000000000000081526004016104da90614d4d565b60408051606081018252600080825260016020830152600292820192909252905b6003811015610b60576000828260038110610b3b57634e487b7160e01b600052603260045260246000fd5b60200201519050610b4d816001612c6a565b5080610b5881614fcf565b915050610b10565b506003600a556006546040517f3e3fbe6edaa33edaf5f25f93631b45be609c9603eebf7d4d0976f0dec5dfdc0491610b9c914290600190614e12565b60405180910390a150505050505050565b333b15610be6576040517f08c379a00000000000000000000000000000000000000000000000000000000081526004016104da90614c8d565b333214610c1f576040517f08c379a00000000000000000000000000000000000000000000000000000000081526004016104da90614cfd565b80600060136000836002811115610c4657634e487b7160e01b600052602160045260246000fd5b6002811115610c6557634e487b7160e01b600052602160045260246000fd5b8152602081019190915260400160002090506004600282015460ff166004811115610ca057634e487b7160e01b600052602160045260246000fd5b14610cd7576040517f08c379a00000000000000000000000000000000000000000000000000000000081526004016104da90614d4d565b60026000541415610d14576040517f08c379a00000000000000000000000000000000000000000000000000000000081526004016104da90614d8d565b600260008181556015918590811115610d3d57634e487b7160e01b600052602160045260246000fd5b6002811115610d5c57634e487b7160e01b600052602160045260246000fd5b815260208082019290925260409081016000908120338252909252902054610db0576040517f08c379a00000000000000000000000000000000000000000000000000000000081526004016104da90614c5d565b600060136000856002811115610dd657634e487b7160e01b600052602160045260246000fd5b6002811115610df557634e487b7160e01b600052602160045260246000fd5b81526020019081526020016000209050600060156000866002811115610e2b57634e487b7160e01b600052602160045260246000fd5b6002811115610e4a57634e487b7160e01b600052602160045260246000fd5b8152602080820192909252604090810160009081203382529092528120548354909250610e779083614ea6565b600f546040517fa9059cbb00000000000000000000000000000000000000000000000000000000815291925073ffffffffffffffffffffffffffffffffffffffff169063a9059cbb90610ed09033908590600401614a9c565b602060405180830381600087803b158015610eea57600080fd5b505af1158015610efe573d6000803e3d6000fd5b505050506040513d601f19601f82011682018060405250810190610f229190613fec565b50600060156000886002811115610f4957634e487b7160e01b600052602160045260246000fd5b6002811115610f6857634e487b7160e01b600052602160045260246000fd5b815260200190815260200160002060003373ffffffffffffffffffffffffffffffffffffffff1673ffffffffffffffffffffffffffffffffffffffff168152602001908152602001600020819055507fac4b7f84df43766362cc5996cfd81888ae4ee76e3e429f0d2f3660404aea182960065482604051610fea929190614b1e565b60405180910390a15050600160005550505050565b60006015600084600281111561102557634e487b7160e01b600052602160045260246000fd5b600281111561104457634e487b7160e01b600052602160045260246000fd5b815260200190815260200160002060008373ffffffffffffffffffffffffffffffffffffffff1673ffffffffffffffffffffffffffffffffffffffff1681526020019081526020016000205490505b92915050565b60025473ffffffffffffffffffffffffffffffffffffffff1633146110ea576040517f08c379a00000000000000000000000000000000000000000000000000000000081526004016104da90614d0d565b600f5473ffffffffffffffffffffffffffffffffffffffff8381169116141561113f576040517f08c379a00000000000000000000000000000000000000000000000000000000081526004016104da90614d2d565b61116073ffffffffffffffffffffffffffffffffffffffff83163383612d18565b7f74545154aac348a3eac92596bd1971957ca94795f4e954ec5f613b55fab781298282604051611191929190614a9c565b60405180910390a15050565b73ffffffffffffffffffffffffffffffffffffffff821660009081526011602052604081206060918560028111156111e557634e487b7160e01b600052602160045260246000fd5b600281111561120457634e487b7160e01b600052602160045260246000fd5b8152602001908152602001600020600083815260200190815260200160002080548060200260200160405190810160405280929190818152602001828054801561129957602002820191906000526020600020906000905b82829054906101000a900463ffffffff1663ffffffff168152602001906004019060208260030104928301926001038202915080841161125c5790505b505050505090505b9392505050565b6000806112b7838501856141aa565b9150915081600114156112d3576112cd81612d3c565b5061130f565b81600214156112ea576112e581612ed0565b61130f565b81600314156112fb576112e5613176565b816004141561130f5761130f81600061338a565b50505050565b60025473ffffffffffffffffffffffffffffffffffffffff163314806113525750600d5473ffffffffffffffffffffffffffffffffffffffff1633145b611388576040517f08c379a00000000000000000000000000000000000000000000000000000000081526004016104da90614d3d565b6002601360008460028111156113ae57634e487b7160e01b600052602160045260246000fd5b60028111156113cd57634e487b7160e01b600052602160045260246000fd5b815260208101919091526040016000206002015460ff16600481111561140357634e487b7160e01b600052602160045260246000fd5b1461143a576040517f08c379a00000000000000000000000000000000000000000000000000000000081526004016104da90614d6d565b600f5461145f9073ffffffffffffffffffffffffffffffffffffffff163330846126a3565b806012600084600281111561148457634e487b7160e01b600052602160045260246000fd5b60028111156114a357634e487b7160e01b600052602160045260246000fd5b81526020019081526020016000206000600654815260200190815260200160002060030160008282546114d69190614e7a565b90915550506006546040517fa1c157de391a92665d22914b5834a188e801f4fbc466639ddc0063abff1df3bb906115109085908590614c15565b60405180910390a25050565b60025473ffffffffffffffffffffffffffffffffffffffff16331461156d576040517f08c379a00000000000000000000000000000000000000000000000000000000081526004016104da90614d0d565b73ffffffffffffffffffffffffffffffffffffffff81166115ba576040517f08c379a00000000000000000000000000000000000000000000000000000000081526004016104da90614ccd565b73ffffffffffffffffffffffffffffffffffffffff8216611607576040517f08c379a00000000000000000000000000000000000000000000000000000000081526004016104da90614ccd565b600e805473ffffffffffffffffffffffffffffffffffffffff8084167fffffffffffffffffffffffff000000000000000000000000000000000000000092831617909255600d8054928516929091169190911790556040517fa6f7e8c500ff9602f43c07429562ca2a17f22d62c172a4fbb6aeb54bdc5e5c64906111919083908590614a59565b6000606060006040518060600160405280600060028111156116c057634e487b7160e01b600052602160045260246000fd5b60028111156116df57634e487b7160e01b600052602160045260246000fd5b815260200160018152602001600281525090506000600a5460031415611703575060015b60005b600381101561199357600083826003811061173157634e487b7160e01b600052603260045260246000fd5b6020020151905060006012600083600281111561175e57634e487b7160e01b600052602160045260246000fd5b600281111561177d57634e487b7160e01b600052602160045260246000fd5b81526020019081526020016000206000600654815260200190815260200160002090506000601360008460028111156117c657634e487b7160e01b600052602160045260246000fd5b60028111156117e557634e487b7160e01b600052602160045260246000fd5b8152602081019190915260400160002090506001600282015460ff16600481111561182057634e487b7160e01b600052602160045260246000fd5b14801561182b575084155b1561183857505050611981565b6004544211801561186e575060028082015460ff16600481111561186c57634e487b7160e01b600052602160045260246000fd5b145b156118d857600a8260010154108061188a575060058260020154105b156118c057600197506004836040516020016118a7929190614c31565b6040516020818303038152906040529650505050611993565b600197506001836040516020016118a7929190614c31565b6003600282015460ff16600481111561190157634e487b7160e01b600052602160045260246000fd5b141561191f57600197506002836040516020016118a7929190614c31565b6004600282015460ff16600481111561194857634e487b7160e01b600052602160045260246000fd5b14158015611957575060055442115b80156119605750845b1561197d57600197506003836040516020016118a7929190614c31565b5050505b8061198b81614fcf565b915050611706565b5050509250929050565b60025473ffffffffffffffffffffffffffffffffffffffff1633146119ee576040517f08c379a00000000000000000000000000000000000000000000000000000000081526004016104da90614d0d565b60025460405160009173ffffffffffffffffffffffffffffffffffffffff16907f8be0079c531659141344cd1fd0a4f28419497f9722a3daafe3b4186f6b6457e0908390a3600280547fffffffffffffffffffffffff0000000000000000000000000000000000000000169055565b611a65613db3565b73ffffffffffffffffffffffffffffffffffffffff83166000908152601660205260409020805483908110611aaa57634e487b7160e01b600052603260045260246000fd5b906000526020600020906004020160405180608001604052908160008201548152602001600182015481526020016002820160009054906101000a900460ff166002811115611b0957634e487b7160e01b600052602160045260246000fd5b6002811115611b2857634e487b7160e01b600052602160045260246000fd5b8152602001600382015481525050905092915050565b3373ffffffffffffffffffffffffffffffffffffffff7f00000000000000000000000000000000000000000000000000000000000000001614611bad576040517f08c379a00000000000000000000000000000000000000000000000000000000081526004016104da90614d1d565b611bb782826135d1565b5050565b6040517f70a0823100000000000000000000000000000000000000000000000000000000815260009073ffffffffffffffffffffffffffffffffffffffff7f000000000000000000000000000000000000000000000000000000000000000016906370a0823190611c30903090600401614a4b565b60206040518083038186803b158015611c4857600080fd5b505afa158015611c5c573d6000803e3d6000fd5b505050506040513d601f19601f82011682018060405250810190611c8091906141d8565b905090565b611cd46040518061012001604052806000815260200160008152602001600081526020016000815260200160608152602001606081526020016060815260200160008152602001600081525090565b60126000846002811115611cf857634e487b7160e01b600052602160045260246000fd5b6002811115611d1757634e487b7160e01b600052602160045260246000fd5b81526020019081526020016000206000838152602001908152602001600020604051806101200160405290816000820154815260200160018201548152602001600282015481526020016003820154815260200160048201805480602002602001604051908101604052809291908181526020018280548015611db957602002820191906000526020600020905b815481526020019060010190808311611da5575b5050505050815260200160058201805480602002602001604051908101604052809291908181526020018280548015611e2857602002820191906000526020600020905b815473ffffffffffffffffffffffffffffffffffffffff168152600190910190602001808311611dfd575b5050505050815260200160068201805480602002602001604051908101604052809291908181526020018280548015611e8057602002820191906000526020600020905b815481526020019060010190808311611e6c575b5050505050815260200160078201548152602001600882015481525050905092915050565b60008060136000846002811115611ecc57634e487b7160e01b600052602160045260246000fd5b6002811115611eeb57634e487b7160e01b600052602160045260246000fd5b81526020810191909152604001600020600101549392505050565b60025473ffffffffffffffffffffffffffffffffffffffff163314611f57576040517f08c379a00000000000000000000000000000000000000000000000000000000081526004016104da90614d0d565b60065460009081527f7e7fa33969761a458e04f477e039a608702b4f924981d6653935a8319a08ad7b602052604081206001810154600a1180611f9e575060058160020154105b611fd4576040517f08c379a00000000000000000000000000000000000000000000000000000000081526004016104da90614cbd565b60065460009081527f71a67924699a20698523213e55fe499d539379d7769cd5567e2c45d583f815a360205260409020600181810154909190600a118061201f575060058160020154105b612055576040517f08c379a00000000000000000000000000000000000000000000000000000000081526004016104da90614cbd565b60065460009081527f8e1fee8c88a9e04123b21e90cae2727a7715bf522a1e46eb5934ccd05203a6b260205260409020600181015460029190600a11806120a0575060058160020154105b6120d6576040517f08c379a00000000000000000000000000000000000000000000000000000000081526004016104da90614cbd565b60408051606081018252600080825260016020830152600292820192909252905b60038110156121705761212f82826003811061212357634e487b7160e01b600052603260045260246000fd5b6020020151600161338a565b61215e82826003811061215257634e487b7160e01b600052603260045260246000fd5b60200201516004612c6a565b8061216881614fcf565b9150506120f7565b506000600a81905560048181556005919091556006546040517f38960c0800e981febc869f33d307d21683c7a1f85845bfe665071f160292c08092610b9c9291429190614e12565b600080601360008460028111156121df57634e487b7160e01b600052602160045260246000fd5b60028111156121fe57634e487b7160e01b600052602160045260246000fd5b815260208101919091526040016000206002015460ff169392505050565b333b15612255576040517f08c379a00000000000000000000000000000000000000000000000000000000081526004016104da90614c8d565b33321461228e576040517f08c379a00000000000000000000000000000000000000000000000000000000081526004016104da90614cfd565b82601560008260028111156122b357634e487b7160e01b600052602160045260246000fd5b60028111156122d257634e487b7160e01b600052602160045260246000fd5b815260208082019290925260409081016000908120338252909252902054612326576040517f08c379a00000000000000000000000000000000000000000000000000000000081526004016104da90614c7d565b60026000541415612363576040517f08c379a00000000000000000000000000000000000000000000000000000000081526004016104da90614d8d565b60026000818155601591869081111561238c57634e487b7160e01b600052602160045260246000fd5b60028111156123ab57634e487b7160e01b600052602160045260246000fd5b8152602080820192909252604090810160009081203382529092529020548314612401576040517f08c379a00000000000000000000000000000000000000000000000000000000081526004016104da90614d9d565b60026013600086600281111561242757634e487b7160e01b600052602160045260246000fd5b600281111561244657634e487b7160e01b600052602160045260246000fd5b815260208101919091526040016000206002015460ff16600481111561247c57634e487b7160e01b600052602160045260246000fd5b146124b3576040517f08c379a00000000000000000000000000000000000000000000000000000000081526004016104da90614d6d565b6124bd8483612893565b6124c8848351612746565b6000601560008660028111156124ee57634e487b7160e01b600052602160045260246000fd5b600281111561250d57634e487b7160e01b600052602160045260246000fd5b8152602080820192909252604090810160009081203380835293528190209290925560065491517f23378f2b72124c4145c302d168bd5656036b4aefadeecd763ae7b46b02ae34fc91612564918891908790614b6f565b60405180910390a2505060016000555050565b60025473ffffffffffffffffffffffffffffffffffffffff1633146125c8576040517f08c379a00000000000000000000000000000000000000000000000000000000081526004016104da90614d0d565b73ffffffffffffffffffffffffffffffffffffffff8116612615576040517f08c379a00000000000000000000000000000000000000000000000000000000081526004016104da90614c6d565b60025460405173ffffffffffffffffffffffffffffffffffffffff8084169216907f8be0079c531659141344cd1fd0a4f28419497f9722a3daafe3b4186f6b6457e090600090a3600280547fffffffffffffffffffffffff00000000000000000000000000000000000000001673ffffffffffffffffffffffffffffffffffffffff92909216919091179055565b61130f846323b872dd60e01b8585856040516024016126c493929190614a74565b604080517fffffffffffffffffffffffffffffffffffffffffffffffffffffffffffffffe08184030181529190526020810180517bffffffffffffffffffffffffffffffffffffffffffffffffffffffff167fffffffff00000000000000000000000000000000000000000000000000000000909316929092179091526135fa565b3360009081526016602052604090205461275e613db3565b8181524260208201526040810184600281111561278b57634e487b7160e01b600052602160045260246000fd5b908160028111156127ac57634e487b7160e01b600052602160045260246000fd5b9052506060810183905233600090815260166020908152604080832080546001818101835591855293839020855160049095020193845591840151838301558301516002808401805486959491927fffffffffffffffffffffffffffffffffffffffffffffffffffffffffffffff009091169190849081111561283f57634e487b7160e01b600052602160045260246000fd5b02179055506060820151816003015550507f60850aec46dea3854368ebe9087866f660da4b915e21945cfbc2e673935ab4d2824286866040516128859493929190614dea565b60405180910390a150505050565b6000601260008460028111156128b957634e487b7160e01b600052602160045260246000fd5b60028111156128d857634e487b7160e01b600052602160045260246000fd5b815260200190815260200160002060006006548152602001908152602001600020905060005b8251811015612b00576007805490600061291783614fcf565b9190505550600083828151811061293e57634e487b7160e01b600052603260045260246000fd5b60200260200101519050601160003373ffffffffffffffffffffffffffffffffffffffff1673ffffffffffffffffffffffffffffffffffffffff16815260200190815260200160002060008660028111156129a957634e487b7160e01b600052602160045260246000fd5b60028111156129c857634e487b7160e01b600052602160045260246000fd5b8152602080820192909252604090810160009081206006548252835281812080546001810182559082528382206008820401805463ffffffff80881660046007909516949094026101000a84810291021990911617905582518084019093528252339282019290925290601090876002811115612a5557634e487b7160e01b600052602160045260246000fd5b6002811115612a7457634e487b7160e01b600052602160045260246000fd5b815260208082019290925260409081016000908120600754825283522082518154939092015173ffffffffffffffffffffffffffffffffffffffff16640100000000027fffffffffffffffff00000000000000000000000000000000000000000000000090931663ffffffff909216919091179190911790555080612af881614fcf565b9150506128fe565b508151816001016000828254612b169190614e7a565b9091555050505050565b600060126000836002811115612b4657634e487b7160e01b600052602160045260246000fd5b6002811115612b6557634e487b7160e01b600052602160045260246000fd5b8152602001908152602001600020600060065481526020019081526020016000209050600060136000846002811115612bae57634e487b7160e01b600052602160045260246000fd5b6002811115612bcd57634e487b7160e01b600052602160045260246000fd5b815260200190815260200160002060010154905060006064826019612bf29190614ea6565b612bfc9190614e92565b905060006064612c0d84600f614ea6565b612c179190614e92565b905060006064612c2885600a614ea6565b612c329190614e92565b905060405180606001604052808481526020018381526020018281525085600401906003612c61929190613dfa565b50505050505050565b600060136000846002811115612c9057634e487b7160e01b600052602160045260246000fd5b6002811115612caf57634e487b7160e01b600052602160045260246000fd5b8152602081019190915260400160002060028101805491925083917fffffffffffffffffffffffffffffffffffffffffffffffffffffffffffffff00166001836004811115612d0e57634e487b7160e01b600052602160045260246000fd5b0217905550505050565b612d378363a9059cbb60e01b84846040516024016126c4929190614a9c565b505050565b60006009547f000000000000000000000000000000000000000000000000000000000000000073ffffffffffffffffffffffffffffffffffffffff166370a08231306040518263ffffffff1660e01b8152600401612d9a9190614a4b565b60206040518083038186803b158015612db257600080fd5b505afa158015612dc6573d6000803e3d6000fd5b505050506040513d601f19601f82011682018060405250810190612dea91906141d8565b1015612e22576040517f08c379a00000000000000000000000000000000000000000000000000000000081526004016104da90614c9d565b612e306008546009546136b0565b6000818152601460205260409020805491925083917fffffffffffffffffffffffffffffffffffffffffffffffffffffffffffffff00166001836002811115612e8957634e487b7160e01b600052602160045260246000fd5b02179055506006547f79aa71bc7ac44ef46960b6e440cf08b63d9c1db4d3af7374da8c13371d369b10836003604051612ec3929190614bfa565b60405180910390a2919050565b600060126000836002811115612ef657634e487b7160e01b600052602160045260246000fd5b6002811115612f1557634e487b7160e01b600052602160045260246000fd5b8152602001908152602001600020600060065481526020019081526020016000209050600060136000846002811115612f5e57634e487b7160e01b600052602160045260246000fd5b6002811115612f7d57634e487b7160e01b600052602160045260246000fd5b81526020019081526020016000209050600080600090505b600b548110156130ce5761303a846005018281548110612fc557634e487b7160e01b600052603260045260246000fd5b60009182526020909120015460048601805473ffffffffffffffffffffffffffffffffffffffff909216918490811061300e57634e487b7160e01b600052603260045260246000fd5b600091825260209091200154600f5473ffffffffffffffffffffffffffffffffffffffff169190612d18565b83600401818154811061305d57634e487b7160e01b600052603260045260246000fd5b906000526020600020015483600101600082825461307b9190614ee3565b9091555050600484018054829081106130a457634e487b7160e01b600052603260045260246000fd5b9060005260206000200154826130ba9190614e7a565b9150806130c681614fcf565b915050612f95565b50600e54600183015461311e9173ffffffffffffffffffffffffffffffffffffffff16906130fe90600290614e92565b600f5473ffffffffffffffffffffffffffffffffffffffff169190612d18565b613129846001612c6a565b600a805490600061313983614fcf565b91905055507fef99a204a94c30b225058df07e102a2bb1ee4c08995f4a39eccf82e79e4731f9848460050183426040516128859493929190614b9c565b600a546003146131b2576040517f08c379a00000000000000000000000000000000000000000000000000000000081526004016104da90614cdd565b600680549060006131c283614fcf565b90915550504260038190556131f8907f000000000000000000000000000000000000000000000000000000000000000090614e7a565b6004819055613228907f000000000000000000000000000000000000000000000000000000000000000090614e7a565b60055560408051606081018252600080825260016020830152600292820192909252905b600381101561333d57600082826003811061327757634e487b7160e01b600052603260045260246000fd5b602002015190506000601260008360028111156132a457634e487b7160e01b600052602160045260246000fd5b60028111156132c357634e487b7160e01b600052602160045260246000fd5b81526020808201929092526040908101600090812060065480835293522090815560038054600783015560045460088301559091506133289085908590811061331c57634e487b7160e01b600052603260045260246000fd5b60200201516002612c6a565b5050808061333590614fcf565b91505061324c565b506000600a556006546004546005546040517fb15bf0ec96989b8686c290ff167b6855edaa07d0e6b8458f665125e6481906849261337f929091600290614e12565b60405180910390a250565b6000601260008460028111156133b057634e487b7160e01b600052602160045260246000fd5b60028111156133cf57634e487b7160e01b600052602160045260246000fd5b81526020019081526020016000206000600654815260200190815260200160002090508161341857613402836001612c6a565b600a805490600061341283614fcf565b91905055505b6000816001015460075461342c9190614ee3565b905060015b826001015481116135ca5760006134488284614e7a565b905060006010600088600281111561347057634e487b7160e01b600052602160045260246000fd5b600281111561348f57634e487b7160e01b600052602160045260246000fd5b815260208082019290925260409081016000908120858252835281812054640100000000900473ffffffffffffffffffffffffffffffffffffffff1680825260119093529081209192508860028111156134f957634e487b7160e01b600052602160045260246000fd5b600281111561351857634e487b7160e01b600052602160045260246000fd5b815260200190815260200160002060006006548152602001908152602001600020805490506015600089600281111561356157634e487b7160e01b600052602160045260246000fd5b600281111561358057634e487b7160e01b600052602160045260246000fd5b81526020808201929092526040908101600090812073ffffffffffffffffffffffffffffffffffffffff9095168152939091529091205550806135c281614fcf565b915050613431565b5050505050565b60008281526014602052604081205460ff16906135ee8284613802565b905061130f828261395c565b600061365c826040518060400160405280602081526020017f5361666545524332303a206c6f772d6c6576656c2063616c6c206661696c65648152508573ffffffffffffffffffffffffffffffffffffffff16613bcc9092919063ffffffff16565b805190915015612d37578080602001905181019061367a9190613fec565b612d37576040517f08c379a00000000000000000000000000000000000000000000000000000000081526004016104da90614d7d565b60007f000000000000000000000000000000000000000000000000000000000000000073ffffffffffffffffffffffffffffffffffffffff16634000aea07f000000000000000000000000000000000000000000000000000000000000000084866000604051602001613724929190614b1e565b6040516020818303038152906040526040518463ffffffff1660e01b815260040161375193929190614ab7565b602060405180830381600087803b15801561376b57600080fd5b505af115801561377f573d6000803e3d6000fd5b505050506040513d601f19601f820116820180604052508101906137a39190613fec565b506000838152600160205260408120546137c290859083903090613bdb565b6000858152600160208190526040909120549192506137e19190614e7a565b6000858152600160205260409020556137fa8482613c33565b949350505050565b606060006012600085600281111561382a57634e487b7160e01b600052602160045260246000fd5b600281111561384957634e487b7160e01b600052602160045260246000fd5b81526020019081526020016000206000600654815260200190815260200160002090506000600b5467ffffffffffffffff81111561389757634e487b7160e01b600052604160045260246000fd5b6040519080825280602002602001820160405280156138c0578160200160208202803683370190505b50905060005b600b5481101561395357826001015485826040516020016138e8929190614b1e565b6040516020818303038152906040528051906020012060001c61390b9190615008565b613916906001614e7a565b82828151811061393657634e487b7160e01b600052603260045260246000fd5b60209081029190910101528061394b81614fcf565b9150506138c6565b50949350505050565b60006012600084600281111561398257634e487b7160e01b600052602160045260246000fd5b60028111156139a157634e487b7160e01b600052602160045260246000fd5b815260200190815260200160002060006006548152602001908152602001600020905060005b600b54811015613bc057600082600101546007546139e59190614ee3565b90506000848381518110613a0957634e487b7160e01b600052603260045260246000fd5b602002602001015182613a1c9190614e7a565b905060106000876002811115613a4257634e487b7160e01b600052602160045260246000fd5b6002811115613a6157634e487b7160e01b600052602160045260246000fd5b81526020808201929092526040908101600090812084825290925290205460068501805463ffffffff9092169185908110613aac57634e487b7160e01b600052603260045260246000fd5b906000526020600020018190555060106000876002811115613ade57634e487b7160e01b600052602160045260246000fd5b6002811115613afd57634e487b7160e01b600052602160045260246000fd5b8152602001908152602001600020600082815260200190815260200160002060000160049054906101000a900473ffffffffffffffffffffffffffffffffffffffff16846005018481548110613b6357634e487b7160e01b600052603260045260246000fd5b9060005260206000200160006101000a81548173ffffffffffffffffffffffffffffffffffffffff021916908373ffffffffffffffffffffffffffffffffffffffff16021790555050508080613bb890614fcf565b9150506139c7565b50612d37836003612c6a565b60606137fa8484600085613c66565b600084848484604051602001613bf49493929190614b2c565b604080517fffffffffffffffffffffffffffffffffffffffffffffffffffffffffffffffe0818403018152919052805160209091012095945050505050565b60008282604051602001613c48929190614a21565b60405160208183030381529060405280519060200120905092915050565b606082471015613ca2576040517f08c379a00000000000000000000000000000000000000000000000000000000081526004016104da90614cad565b843b613cda576040517f08c379a00000000000000000000000000000000000000000000000000000000081526004016104da90614d5d565b6000808673ffffffffffffffffffffffffffffffffffffffff168587604051613d039190614a41565b60006040518083038185875af1925050503d8060008114613d40576040519150601f19603f3d011682016040523d82523d6000602084013e613d45565b606091505b5091509150613d55828286613d60565b979650505050505050565b60608315613d6f5750816112a1565b825115613d7f5782518084602001fd5b816040517f08c379a00000000000000000000000000000000000000000000000000000000081526004016104da9190614c4c565b6040518060800160405280600081526020016000815260200160006002811115613ded57634e487b7160e01b600052602160045260246000fd5b8152602001600081525090565b828054828255906000526020600020908101928215613e35579160200282015b82811115613e35578251825591602001919060010190613e1a565b50613e41929150613e45565b5090565b5b80821115613e415760008155600101613e46565b6000613e6d613e6884614e56565b614e3a565b90508083825260208201905082856020860285011115613e8c57600080fd5b60005b85811015613eb657613ea18783613f5e565b83526020928301929190910190600101613e8f565b5050509392505050565b8035611093816150a3565b600082601f830112613edb578081fd5b81356137fa848260208601613e5a565b8051611093816150b7565b8035611093816150bf565b60008083601f840112613f12578182fd5b50813567ffffffffffffffff811115613f29578182fd5b602083019150836001820283011115613f4157600080fd5b9250929050565b8035611093816150c5565b8051611093816150bf565b8035611093816150d2565b600060208284031215613f7a578081fd5b6112a183828401613ec0565b60008060408385031215613f98578081fd5b613fa484828501613ec0565b91506020613fb485828601613ec0565b9150509250929050565b60008060408385031215613fd0578182fd5b613fdc84838501613ec0565b91506020613fb485828601613ef6565b600060208284031215613ffd578081fd5b6112a183828401613eeb565b6000806040838503121561401b578182fd5b613fdc84838501613ef6565b60008060208385031215614039578182fd5b8183013567ffffffffffffffff811115614051578283fd5b61405d85828601613f01565b92509250509250929050565b60006020828403121561407a578081fd5b6112a183828401613f48565b60008060408385031215614098578182fd5b613fa484838501613f48565b6000806000606084860312156140b8578081fd5b6140c485828601613f48565b925060206140d486828701613ec0565b92505060406140e586828701613ef6565b9150509250925092565b60008060408385031215614101578182fd5b61410d84838501613f48565b9150602083013567ffffffffffffffff811115614128578182fd5b613fb485828601613ecb565b60008060408385031215614146578182fd5b613fdc84838501613f48565b600080600060608486031215614166578283fd5b61417285848601613f48565b9250602061418286828701613ef6565b925050604084013567ffffffffffffffff81111561419e578182fd5b6140e586828701613ecb565b600080604083850312156141bc578182fd5b6141c884838501613ef6565b91506020613fb485828601613f48565b6000602082840312156141e9578081fd5b6112a183828401613f53565b6141ff828261421a565b5060200190565b6141ff8282614336565b6141ff8282614a15565b61422381614efa565b82525050565b6000614233825190565b8084526020938401938301825b8281101561426557815161425487826141f5565b965050602082019150600101614240565b5093949350505050565b6000614279825490565b8084526000838152602090819020940193825b828110156142655761429d82615074565b6142a787826141f5565b9650506001918201910161428c565b60006142c0825190565b8084526020938401938301825b828110156142655781516142e18782614206565b9650506020820191506001016142cd565b60006142fc825190565b8084526020938401938301825b8281101561426557815161431d8782614210565b965050602082019150600101614309565b801515614223565b80614223565b6000614346825190565b80845260208401935061435d818560208601614f58565b601f017fffffffffffffffffffffffffffffffffffffffffffffffffffffffffffffffe0169290920192915050565b6000614396825190565b6143a4818560208601614f58565b9290920192915050565b61422381614f2c565b61422381614f37565b61422381614f42565b61422381614f4d565b601d8152602081017f596f7520646f206e6f74206861766520616e7920726f6c6c6f76657273000000815290505b60200190565b60268152602081017f4f776e61626c653a206e6577206f776e657220697320746865207a65726f206181527f6464726573730000000000000000000000000000000000000000000000000000602082015290505b60400190565b60148152602081017f596f752068617665206e6f20726f6c6c6f76657200000000000000000000000081529050614400565b60148152602081017f436f6e7472616374206e6f7420616c6c6f77656400000000000000000000000081529050614400565b602b8152602081017f4e6f7420656e6f756768204c494e4b202d2066696c6c20636f6e74726163742081527f77697468206661756365740000000000000000000000000000000000000000006020820152905061445a565b60268152602081017f416464726573733a20696e73756666696369656e742062616c616e636520666f81527f722063616c6c00000000000000000000000000000000000000000000000000006020820152905061445a565b60278152602081017f536f7272792063616e206e6f74206465616374697661746520612076616c696481527f20726166666c65000000000000000000000000000000000000000000000000006020820152905061445a565b60168152602081017f43616e6e6f74206265207a65726f20616464726573730000000000000000000081529050614400565b60198152602081017f5265626f6f7420636865636b206e6f7420636f6d706c6574650000000000000081529050614400565b60138152602081017f4e6f207469636b6574207370656369666965640000000000000000000000000081529050614400565b601a8152602081017f50726f787920636f6e7472616374206e6f7420616c6c6f77656400000000000081529050614400565b60208082527f4f776e61626c653a2063616c6c6572206973206e6f7420746865206f776e65729101908152614400565b601f8152602081017f4f6e6c7920565246436f6f7264696e61746f722063616e2066756c66696c6c0081529050614400565b60148152602081017f43616e6e6f74206265205553444320746f6b656e00000000000000000000000081529050614400565b60158152602081017f4e6f74206f776e6572206f7220696e6a6563746f72000000000000000000000081529050614400565b602f8152602081017f536f7272792063616e20616374697661746520617320726166666c652069732081527f6e6f7420646561637469766174656400000000000000000000000000000000006020820152905061445a565b601d8152602081017f416464726573733a2063616c6c20746f206e6f6e2d636f6e747261637400000081529050614400565b600f8152602081017f526166666c65206e6f74206f70656e000000000000000000000000000000000081529050614400565b602a8152602081017f5361666545524332303a204552433230206f7065726174696f6e20646964206e81527f6f742073756363656564000000000000000000000000000000000000000000006020820152905061445a565b601f8152602081017f5265656e7472616e637947756172643a207265656e7472616e742063616c6c0081529050614400565b601f8152602081017f6e6f206d6174636820696e207469636b65747320746f20726f6c6c6f7665720081529050614400565b60108152602081017f546f6f206d616e79207469636b6574730000000000000000000000000000000081529050614400565b80516000906101208401906149198582614336565b50602083015161492c6020860182614336565b50604083015161493f6040860182614336565b5060608301516149526060860182614336565b506080830151848203608086015261496a82826142b6565b91505060a083015184820360a08601526149848282614229565b91505060c083015184820360c086015261499e82826142b6565b91505060e08301516149b360e0860182614336565b506101008301516149c8610100860182614336565b509392505050565b80516149dc8382614336565b5060208101516149ef6020840182614336565b506040810151614a0260408401826143b7565b506060810151612d376060840182614336565b63ffffffff8116614223565b614a2b8184614336565b602001614a388183614336565b60200192915050565b611093818361438c565b60208101611093828461421a565b60408101614a67828561421a565b6112a1602083018461421a565b60608101614a82828661421a565b614a8f602083018561421a565b6137fa6040830184614336565b60408101614aaa828561421a565b6112a16020830184614336565b60608101614ac5828661421a565b614ad26020830185614336565b8181036040830152614ae4818461433c565b95945050505050565b602080825281016112a181846142f2565b60408101614b0c828561432e565b81810360208301526137fa818461433c565b60408101614aaa8285614336565b60808101614b3a8287614336565b614b476020830186614336565b614b54604083018561421a565b614ae46060830184614336565b6020810161109382846143ae565b60608101614b7d82866143b7565b614b8a602083018561421a565b8181036040830152614ae481846142f2565b60808101614baa82876143b7565b8181036020830152614bbc818661426f565b9050614b546040830185614336565b60608101614bd982866143b7565b8181036020830152614beb81856142f2565b90506137fa6040830184614336565b60408101614c0882856143b7565b6112a160208301846143c0565b60408101614aaa82856143b7565b6020810161109382846143c0565b60408101614c3f82856143c9565b6112a160208301846143b7565b602080825281016112a1818461433c565b60208082528101611093816143d2565b6020808252810161109381614406565b6020808252810161109381614460565b6020808252810161109381614492565b60208082528101611093816144c4565b602080825281016110938161451c565b6020808252810161109381614574565b60208082528101611093816145cc565b60208082528101611093816145fe565b6020808252810161109381614630565b6020808252810161109381614662565b6020808252810161109381614694565b60208082528101611093816146c4565b60208082528101611093816146f6565b6020808252810161109381614728565b602080825281016110938161475a565b60208082528101611093816147b2565b60208082528101611093816147e4565b6020808252810161109381614816565b602080825281016110938161486e565b60208082528101611093816148a0565b60208082528101611093816148d2565b602080825281016112a18184614904565b6080810161109382846149d0565b602081016110938284614336565b60808101614df88287614336565b614e056020830186614336565b614b5460408301856143b7565b60608101614e208286614336565b614e2d6020830185614336565b6137fa60408301846143c0565b6000614e4560405190565b9050614e518282614f84565b919050565b600067ffffffffffffffff821115614e7057614e7061505e565b5060209081020190565b60008219821115614e8d57614e8d61501c565b500190565b600082614ea157614ea1615032565b500490565b6000817fffffffffffffffffffffffffffffffffffffffffffffffffffffffffffffffff0483118215151615614ede57614ede61501c565b500290565b600082821015614ef557614ef561501c565b500390565b600073ffffffffffffffffffffffffffffffffffffffff8216611093565b80614e5181615080565b80614e5181615093565b600061109382614efa565b600061109382614f18565b600061109382614f22565b600060ff8216611093565b60005b83811015614f73578181015183820152602001614f5b565b8381111561130f5750506000910152565b7fffffffffffffffffffffffffffffffffffffffffffffffffffffffffffffffe0601f830116810181811067ffffffffffffffff82111715614fc857614fc861505e565b6040525050565b60007fffffffffffffffffffffffffffffffffffffffffffffffffffffffffffffffff8214156150015761500161501c565b5060010190565b60008261501757615017615032565b500690565b634e487b7160e01b600052601160045260246000fd5b634e487b7160e01b600052601260045260246000fd5b634e487b7160e01b600052602160045260246000fd5b634e487b7160e01b600052604160045260246000fd5b60006110938254614efa565b6003811061509057615090615048565b50565b6005811061509057615090615048565b6150ac81614efa565b811461509057600080fd5b8015156150ac565b806150ac565b6003811061509057600080fd5b63ffffffff81166150ac56fea264697066735822122048d138bcd9a4b317a20da0ea54bb3a26d0055d80015c853d1d11ab5243b914c064736f6c63430008040033",
  "linkReferences": {},
  "deployedLinkReferences": {}
}