{
  "_format": "hh-sol-artifact-1",
  "contractName": "Raffle",
  "sourceName": "contracts/Raffle.sol",
  "abi": [
    {
      "inputs": [
        {
          "internalType": "address",
          "name": "_vrfCoordinator",
          "type": "address"
        },
        {
          "internalType": "address",
          "name": "_link",
          "type": "address"
        },
        {
          "internalType": "bytes32",
          "name": "_keyHash",
          "type": "bytes32"
        },
        {
          "internalType": "uint256",
          "name": "_fee",
          "type": "uint256"
        },
        {
          "internalType": "address",
          "name": "_USDCtoken",
          "type": "address"
        }
      ],
      "stateMutability": "nonpayable",
      "type": "constructor"
    },
    {
      "anonymous": false,
      "inputs": [
        {
          "indexed": false,
          "internalType": "address",
          "name": "token",
          "type": "address"
        },
        {
          "indexed": false,
          "internalType": "uint256",
          "name": "amount",
          "type": "uint256"
        }
      ],
      "name": "AdminTokenRecovery",
      "type": "event"
    },
    {
      "anonymous": false,
      "inputs": [
        {
          "indexed": false,
          "internalType": "enum Raffle.RaffleCategory",
          "name": "raffleCategory",
          "type": "uint8"
        },
        {
          "indexed": true,
          "internalType": "uint256",
          "name": "raffleId",
          "type": "uint256"
        },
        {
          "indexed": false,
          "internalType": "uint256",
          "name": "injectedAmount",
          "type": "uint256"
        }
      ],
      "name": "LotteryInjection",
      "type": "event"
    },
    {
      "anonymous": false,
      "inputs": [
        {
          "indexed": false,
          "internalType": "address",
          "name": "treasuryAddress",
          "type": "address"
        },
        {
          "indexed": false,
          "internalType": "address",
          "name": "injectorAddress",
          "type": "address"
        }
      ],
      "name": "NewTreasuryAndInjectorAddresses",
      "type": "event"
    },
    {
      "anonymous": false,
      "inputs": [
        {
          "indexed": false,
          "internalType": "uint256",
          "name": "txIndex",
          "type": "uint256"
        },
        {
          "indexed": false,
          "internalType": "uint256",
          "name": "timestamp",
          "type": "uint256"
        },
        {
          "indexed": false,
          "internalType": "enum Raffle.RaffleCategory",
          "name": "raffleCategory",
          "type": "uint8"
        },
        {
          "indexed": false,
          "internalType": "uint256",
          "name": "noOfTickets",
          "type": "uint256"
        }
      ],
      "name": "NewUserTransaction",
      "type": "event"
    },
    {
      "anonymous": false,
      "inputs": [
        {
          "indexed": true,
          "internalType": "address",
          "name": "previousOwner",
          "type": "address"
        },
        {
          "indexed": true,
          "internalType": "address",
          "name": "newOwner",
          "type": "address"
        }
      ],
      "name": "OwnershipTransferred",
      "type": "event"
    },
    {
      "anonymous": false,
      "inputs": [
        {
          "indexed": false,
          "internalType": "uint256",
          "name": "raffleID",
          "type": "uint256"
        },
        {
          "indexed": false,
          "internalType": "uint256",
          "name": "timeStamp",
          "type": "uint256"
        },
        {
          "indexed": false,
          "internalType": "enum Raffle.RaffleState",
          "name": "raffleState",
          "type": "uint8"
        }
      ],
      "name": "RaffleDeactivated",
      "type": "event"
    },
    {
      "anonymous": false,
      "inputs": [
        {
          "indexed": false,
          "internalType": "enum Raffle.RaffleCategory",
          "name": "category",
          "type": "uint8"
        },
        {
          "indexed": true,
          "internalType": "uint256",
          "name": "raffleId",
          "type": "uint256"
        },
        {
          "indexed": false,
          "internalType": "enum Raffle.RaffleState",
          "name": "raffleState",
          "type": "uint8"
        }
      ],
      "name": "RaffleEnded",
      "type": "event"
    },
    {
      "anonymous": false,
      "inputs": [
        {
          "indexed": true,
          "internalType": "uint256",
          "name": "raffleId",
          "type": "uint256"
        },
        {
          "indexed": false,
          "internalType": "uint256",
          "name": "endTime",
          "type": "uint256"
        },
        {
          "indexed": false,
          "internalType": "uint256",
          "name": "rebootEndTime",
          "type": "uint256"
        },
        {
          "indexed": false,
          "internalType": "enum Raffle.RaffleState",
          "name": "raffleState",
          "type": "uint8"
        }
      ],
      "name": "RaffleOpen",
      "type": "event"
    },
    {
      "anonymous": false,
      "inputs": [
        {
          "indexed": false,
          "internalType": "uint256",
          "name": "raffleID",
          "type": "uint256"
        },
        {
          "indexed": false,
          "internalType": "uint256",
          "name": "timeStamp",
          "type": "uint256"
        },
        {
          "indexed": false,
          "internalType": "enum Raffle.RaffleState",
          "name": "raffleState",
          "type": "uint8"
        }
      ],
      "name": "RaffleReactivated",
      "type": "event"
    },
    {
      "anonymous": false,
      "inputs": [
        {
          "indexed": false,
          "internalType": "enum Raffle.RaffleCategory",
          "name": "raffleCategory",
          "type": "uint8"
        },
        {
          "indexed": true,
          "internalType": "uint256",
          "name": "raffleId",
          "type": "uint256"
        },
        {
          "indexed": false,
          "internalType": "address",
          "name": "buyer",
          "type": "address"
        },
        {
          "indexed": false,
          "internalType": "uint256",
          "name": "noOfTickets",
          "type": "uint256"
        }
      ],
      "name": "RolloverClaimed",
      "type": "event"
    },
    {
      "anonymous": false,
      "inputs": [
        {
          "indexed": false,
          "internalType": "enum Raffle.RaffleCategory",
          "name": "raffleCategory",
          "type": "uint8"
        },
        {
          "indexed": true,
          "internalType": "uint256",
          "name": "raffleId",
          "type": "uint256"
        },
        {
          "indexed": true,
          "internalType": "address",
          "name": "buyer",
          "type": "address"
        },
        {
          "indexed": false,
          "internalType": "uint256",
          "name": "numberTickets",
          "type": "uint256"
        },
        {
          "indexed": false,
          "internalType": "uint256",
          "name": "rafflePool",
          "type": "uint256"
        }
      ],
      "name": "TicketsPurchased",
      "type": "event"
    },
    {
      "anonymous": false,
      "inputs": [
        {
          "indexed": false,
          "internalType": "enum Raffle.RaffleCategory",
          "name": "raffleCategory",
          "type": "uint8"
        },
        {
          "indexed": false,
          "internalType": "address[]",
          "name": "winners",
          "type": "address[]"
        },
        {
          "indexed": false,
          "internalType": "uint256",
          "name": "amount",
          "type": "uint256"
        },
        {
          "indexed": false,
          "internalType": "uint256",
          "name": "timestamp",
          "type": "uint256"
        }
      ],
      "name": "WinnersAwarded",
      "type": "event"
    },
    {
      "anonymous": false,
      "inputs": [
        {
          "indexed": false,
          "internalType": "uint256",
          "name": "raffleID",
          "type": "uint256"
        },
        {
          "indexed": false,
          "internalType": "uint256",
          "name": "amount",
          "type": "uint256"
        }
      ],
      "name": "WithdrawalComplete",
      "type": "event"
    },
    {
      "inputs": [
        {
          "internalType": "address",
          "name": "_injectorAddress",
          "type": "address"
        },
        {
          "internalType": "address",
          "name": "_treasuryAddress",
          "type": "address"
        }
      ],
      "name": "SetInjectorAndTreasuryAdresses",
      "outputs": [],
      "stateMutability": "nonpayable",
      "type": "function"
    },
    {
      "inputs": [],
      "name": "USDCtoken",
      "outputs": [
        {
          "internalType": "contract IERC20",
          "name": "",
          "type": "address"
        }
      ],
      "stateMutability": "view",
      "type": "function"
    },
    {
      "inputs": [
        {
          "internalType": "enum Raffle.RaffleCategory",
          "name": "_category",
          "type": "uint8"
        },
        {
          "internalType": "uint256[]",
          "name": "_tickets",
          "type": "uint256[]"
        }
      ],
      "name": "buyTicket",
      "outputs": [],
      "stateMutability": "nonpayable",
      "type": "function"
    },
    {
      "inputs": [],
      "name": "checkLinkBalance",
      "outputs": [
        {
          "internalType": "uint256",
          "name": "",
          "type": "uint256"
        }
      ],
      "stateMutability": "view",
      "type": "function"
    },
    {
      "inputs": [
        {
          "internalType": "bytes",
          "name": "",
          "type": "bytes"
        }
      ],
      "name": "checkUpkeep",
      "outputs": [
        {
          "internalType": "bool",
          "name": "upkeepNeeded",
          "type": "bool"
        },
        {
          "internalType": "bytes",
          "name": "performData",
          "type": "bytes"
        }
      ],
      "stateMutability": "view",
      "type": "function"
    },
    {
      "inputs": [
        {
          "internalType": "enum Raffle.RaffleCategory",
          "name": "_category",
          "type": "uint8"
        },
        {
          "internalType": "uint256",
          "name": "_ticketsToRollover",
          "type": "uint256"
        },
        {
          "internalType": "uint256[]",
          "name": "_tickets",
          "type": "uint256[]"
        }
      ],
      "name": "claimRollover",
      "outputs": [],
      "stateMutability": "nonpayable",
      "type": "function"
    },
    {
      "inputs": [],
      "name": "currentRaffleEndTime",
      "outputs": [
        {
          "internalType": "uint256",
          "name": "",
          "type": "uint256"
        }
      ],
      "stateMutability": "view",
      "type": "function"
    },
    {
      "inputs": [],
      "name": "currentRaffleRebootEndTime",
      "outputs": [
        {
          "internalType": "uint256",
          "name": "",
          "type": "uint256"
        }
      ],
      "stateMutability": "view",
      "type": "function"
    },
    {
      "inputs": [],
      "name": "currentRaffleStartTime",
      "outputs": [
        {
          "internalType": "uint256",
          "name": "",
          "type": "uint256"
        }
      ],
      "stateMutability": "view",
      "type": "function"
    },
    {
      "inputs": [],
      "name": "deactivateRaffle",
      "outputs": [],
      "stateMutability": "nonpayable",
      "type": "function"
    },
    {
      "inputs": [],
      "name": "getCurrentRaffleID",
      "outputs": [
        {
          "internalType": "uint256",
          "name": "",
          "type": "uint256"
        }
      ],
      "stateMutability": "view",
      "type": "function"
    },
    {
      "inputs": [
        {
          "internalType": "enum Raffle.RaffleCategory",
          "name": "_category",
          "type": "uint8"
        }
      ],
      "name": "getCurrentRaffleState",
      "outputs": [
        {
          "internalType": "enum Raffle.RaffleState",
          "name": "raffleState",
          "type": "uint8"
        }
      ],
      "stateMutability": "view",
      "type": "function"
    },
    {
      "inputs": [
        {
          "internalType": "enum Raffle.RaffleCategory",
          "name": "_category",
          "type": "uint8"
        }
      ],
      "name": "getRafflePool",
      "outputs": [
        {
          "internalType": "uint256",
          "name": "",
          "type": "uint256"
        }
      ],
      "stateMutability": "view",
      "type": "function"
    },
    {
      "inputs": [],
      "name": "getRebootEndTime",
      "outputs": [
        {
          "internalType": "uint256",
          "name": "",
          "type": "uint256"
        }
      ],
      "stateMutability": "view",
      "type": "function"
    },
    {
      "inputs": [],
      "name": "getUserTransactionCount",
      "outputs": [
        {
          "internalType": "uint256",
          "name": "",
          "type": "uint256"
        }
      ],
      "stateMutability": "view",
      "type": "function"
    },
    {
      "inputs": [
        {
          "internalType": "uint256",
          "name": "txIndex",
          "type": "uint256"
        }
      ],
      "name": "getuserTransactionHistory",
      "outputs": [
        {
          "internalType": "uint256",
          "name": "timestamp",
          "type": "uint256"
        },
        {
          "internalType": "enum Raffle.RaffleCategory",
          "name": "raffleCategory",
          "type": "uint8"
        },
        {
          "internalType": "uint256",
          "name": "noOfTickets",
          "type": "uint256"
        }
      ],
      "stateMutability": "view",
      "type": "function"
    },
    {
      "inputs": [
        {
          "internalType": "enum Raffle.RaffleCategory",
          "name": "_category",
          "type": "uint8"
        },
        {
          "internalType": "uint256",
          "name": "_amount",
          "type": "uint256"
        }
      ],
      "name": "injectFunds",
      "outputs": [],
      "stateMutability": "nonpayable",
      "type": "function"
    },
    {
      "inputs": [],
      "name": "injectorAddress",
      "outputs": [
        {
          "internalType": "address",
          "name": "",
          "type": "address"
        }
      ],
      "stateMutability": "view",
      "type": "function"
    },
    {
      "inputs": [],
      "name": "maxNumberTicketsPerBuy",
      "outputs": [
        {
          "internalType": "uint256",
          "name": "",
          "type": "uint256"
        }
      ],
      "stateMutability": "view",
      "type": "function"
    },
    {
      "inputs": [],
      "name": "noOfWinners",
      "outputs": [
        {
          "internalType": "uint256",
          "name": "",
          "type": "uint256"
        }
      ],
      "stateMutability": "view",
      "type": "function"
    },
    {
      "inputs": [],
      "name": "owner",
      "outputs": [
        {
          "internalType": "address",
          "name": "",
          "type": "address"
        }
      ],
      "stateMutability": "view",
      "type": "function"
    },
    {
      "inputs": [
        {
          "internalType": "bytes",
          "name": "performData",
          "type": "bytes"
        }
      ],
      "name": "performUpkeep",
      "outputs": [],
      "stateMutability": "nonpayable",
      "type": "function"
    },
    {
      "inputs": [],
      "name": "raffleID",
      "outputs": [
        {
          "internalType": "uint256",
          "name": "",
          "type": "uint256"
        }
      ],
      "stateMutability": "view",
      "type": "function"
    },
    {
      "inputs": [
        {
          "internalType": "bytes32",
          "name": "requestId",
          "type": "bytes32"
        },
        {
          "internalType": "uint256",
          "name": "randomness",
          "type": "uint256"
        }
      ],
      "name": "rawFulfillRandomness",
      "outputs": [],
      "stateMutability": "nonpayable",
      "type": "function"
    },
    {
      "inputs": [],
      "name": "reactivateRaffle",
      "outputs": [],
      "stateMutability": "nonpayable",
      "type": "function"
    },
    {
      "inputs": [
        {
          "internalType": "address",
          "name": "_tokenAddress",
          "type": "address"
        },
        {
          "internalType": "uint256",
          "name": "_tokenAmount",
          "type": "uint256"
        }
      ],
      "name": "recoverWrongTokens",
      "outputs": [],
      "stateMutability": "nonpayable",
      "type": "function"
    },
    {
      "inputs": [],
      "name": "renounceOwnership",
      "outputs": [],
      "stateMutability": "nonpayable",
      "type": "function"
    },
    {
      "inputs": [
        {
          "internalType": "address",
          "name": "newOwner",
          "type": "address"
        }
      ],
      "name": "transferOwnership",
      "outputs": [],
      "stateMutability": "nonpayable",
      "type": "function"
    },
    {
      "inputs": [],
      "name": "treasuryAddress",
      "outputs": [
        {
          "internalType": "address",
          "name": "",
          "type": "address"
        }
      ],
      "stateMutability": "view",
      "type": "function"
    },
    {
      "inputs": [
        {
          "internalType": "enum Raffle.RaffleCategory",
          "name": "_category",
          "type": "uint8"
        },
        {
          "internalType": "uint256",
          "name": "_raffleID",
          "type": "uint256"
        }
      ],
      "name": "viewRaffle",
      "outputs": [
        {
          "internalType": "address[]",
          "name": "winners",
          "type": "address[]"
        },
        {
          "internalType": "uint256",
          "name": "noOfTicketsSold",
          "type": "uint256"
        },
        {
          "internalType": "uint256[]",
          "name": "winningTickets",
          "type": "uint256[]"
        },
        {
          "internalType": "uint256",
          "name": "raffleStartTime",
          "type": "uint256"
        },
        {
          "internalType": "uint256",
          "name": "raffleEndTime",
          "type": "uint256"
        }
      ],
      "stateMutability": "view",
      "type": "function"
    },
    {
      "inputs": [
        {
          "internalType": "enum Raffle.RaffleCategory",
          "name": "_category",
          "type": "uint8"
        }
      ],
      "name": "viewRollovers",
      "outputs": [
        {
          "internalType": "uint256",
          "name": "ticketsToRollover",
          "type": "uint256"
        }
      ],
      "stateMutability": "view",
      "type": "function"
    },
    {
      "inputs": [
        {
          "internalType": "enum Raffle.RaffleCategory",
          "name": "_category",
          "type": "uint8"
        }
      ],
      "name": "withdrawFundsDueToDeactivation",
      "outputs": [],
      "stateMutability": "nonpayable",
      "type": "function"
    }
  ],
  "bytecode": "0x610100604052610e1060c05261070860e0526003600a556103e8600b553480156200002957600080fd5b506040516200428f3803806200428f8339810160408190526200004c91620001aa565b600160009081556001600160601b0319606087811b821660a05286901b16608052620000753390565b600280546001600160a01b0319166001600160a01b038316908117909155604051919250906000907f8be0079c531659141344cd1fd0a4f28419497f9722a3daafe3b4186f6b6457e0908290a350600783905560088290556003600955600e80546001600160a01b0319166001600160a01b0383161790556200017f6010602052670de0b6b3a76400007f6e0956cda88cad152e89927e53611735b61a5c762d1428573c6931b0a5efcb0155678ac7230489e800007f8c6065603763fec3f5742441d3833f3f43b982453612d76adb39a885e3006b5f55600260005268056bc75e2d631000007f853b2fefe141400fef543280f93d98bd49996069f632d0d20236afeeed8e46a255565b50505050506200025b565b805162000197816200023a565b92915050565b8051620001978162000254565b600080600080600060a08688031215620001c2578081fd5b620001d0878288016200018a565b94506020620001e2888289016200018a565b9450506040620001f5888289016200019d565b935050606062000208888289016200019d565b92505060806200021b888289016200018a565b9150509295509295909350565b60006001600160a01b03821662000197565b620002458162000228565b81146200025157600080fd5b50565b8062000245565b60805160601c60a05160601c60c05160e051613fdf620002b060003960006122d2015260006122a201526000818161146d01526129b40152600081816114eb01528181611e9701526129850152613fdf6000f3fe608060405234801561001057600080fd5b50600436106101f05760003560e01c80638da5cb5b1161010f578063b6e81a4d116100a2578063d19f19a811610071578063d19f19a8146103e3578063defc98f8146103f6578063e2dbabf514610416578063f2fde38b1461042957600080fd5b8063b6e81a4d146103ac578063c1aba43f146103bf578063c5f956af146103c7578063c9d47407146103da57600080fd5b8063a24bf4ff116100de578063a24bf4ff1461036e578063a7390c8e14610376578063ad99854b1461039a578063b3397329146103a357600080fd5b80638da5cb5b1461032657806394985ddd146103405780639c384653146103535780639eb386fd1461036657600080fd5b806352955aa811610187578063715018a611610156578063715018a6146102e1578063718031e5146102e957806378007db4146102fc5780638a3f16fd1461030457600080fd5b806352955aa81461029157806367bb60a01461029a5780636c6f693d146102ad5780636e04ff0d146102c057600080fd5b80633f138d4b116101c35780633f138d4b146102425780634185e507146102555780634585e33b14610275578063518da0a41461028857600080fd5b80631b6826df146101f557806325d691341461021c578063269ce1bb14610225578063280550961461022f575b600080fd5b336000908152601360205260409020545b6040516102139190613cff565b60405180910390f35b61020660035481565b61022d61043c565b005b61022d61023d36600461315a565b6106dc565b61022d6102503660046130af565b610a00565b600e54610268906001600160a01b031681565b6040516102139190613ad6565b61022d610283366004613118565b610aa9565b610206600a5481565b61020660065481565b61022d6102a83660046131bc565b610b14565b61022d6102bb366004613077565b610cc0565b6102d36102ce366004613118565b610da5565b604051610213929190613a73565b61022d61109a565b61022d6102f7366004613177565b61111b565b600654610206565b61031761031236600461326a565b6113fe565b60405161021393929190613d0d565b6002546001600160a01b03165b6040516102139190613979565b61022d61034e3660046130fa565b611462565b600c54610333906001600160a01b031681565b600554610206565b6102066114b8565b6103896103843660046131bc565b611575565b604051610213959493929190613a1b565b610206600b5481565b61020660055481565b6102066103ba36600461315a565b6116be565b61022d61171f565b600d54610333906001600160a01b031681565b61020660045481565b61022d6103f13660046131da565b611933565b61040961040436600461315a565b611bf2565b6040516102139190613b65565b61020661042436600461315a565b611c56565b61022d61043736600461305a565b611cbf565b6002546001600160a01b0316331461046f5760405162461bcd60e51b815260040161046690613c5f565b60405180910390fd5b600080805260106020527f6e0956cda88cad152e89927e53611735b61a5c762d1428573c6931b0a5efcb03547f6e0956cda88cad152e89927e53611735b61a5c762d1428573c6931b0a5efcb0190829060ff1660058111156104e157634e487b7160e01b600052602160045260246000fd5b146104fe5760405162461bcd60e51b815260040161046690613baf565b6001600081815260106020527f8c6065603763fec3f5742441d3833f3f43b982453612d76adb39a885e3006b61547f8c6065603763fec3f5742441d3833f3f43b982453612d76adb39a885e3006b5f919060ff16600581111561057157634e487b7160e01b600052602160045260246000fd5b1461058e5760405162461bcd60e51b815260040161046690613baf565b6002600081815260106020527f853b2fefe141400fef543280f93d98bd49996069f632d0d20236afeeed8e46a4547f853b2fefe141400fef543280f93d98bd49996069f632d0d20236afeeed8e46a2919060ff16600581111561060157634e487b7160e01b600052602160045260246000fd5b1461061e5760405162461bcd60e51b815260040161046690613baf565b60408051606081018252600080825260016020830152600292820192909252905b600381101561068f57600082826003811061066a57634e487b7160e01b600052603260045260246000fd5b6020020151905061067c816001611d78565b508061068781613ec4565b91505061063f565b5060036009556006546040517f3e3fbe6edaa33edaf5f25f93631b45be609c9603eebf7d4d0976f0dec5dfdc04916106cb914290600190613d50565b60405180910390a150505050505050565b333b156106fb5760405162461bcd60e51b815260040161046690613bcf565b33321461071a5760405162461bcd60e51b815260040161046690613c4f565b6002600054141561073d5760405162461bcd60e51b815260040161046690613ccf565b600260009081556010600083600281111561076857634e487b7160e01b600052602160045260246000fd5b600281111561078757634e487b7160e01b600052602160045260246000fd5b815260208101919091526040016000206002015460ff1660058111156107bd57634e487b7160e01b600052602160045260246000fd5b146107da5760405162461bcd60e51b815260040161046690613c3f565b60006010600083600281111561080057634e487b7160e01b600052602160045260246000fd5b600281111561081f57634e487b7160e01b600052602160045260246000fd5b8152602001908152602001600020905060006012600084600281111561085557634e487b7160e01b600052602160045260246000fd5b600281111561087457634e487b7160e01b600052602160045260246000fd5b81526020808201929092526040908101600090812033825290925281205483549092506108a19083613de4565b600e546040517fa9059cbb0000000000000000000000000000000000000000000000000000000081529192506001600160a01b03169063a9059cbb906108ed90339085906004016139ca565b602060405180830381600087803b15801561090757600080fd5b505af115801561091b573d6000803e3d6000fd5b505050506040513d601f19601f8201168201806040525081019061093f91906130dd565b5060006012600086600281111561096657634e487b7160e01b600052602160045260246000fd5b600281111561098557634e487b7160e01b600052602160045260246000fd5b81526020019081526020016000206000336001600160a01b03166001600160a01b03168152602001908152602001600020819055507fac4b7f84df43766362cc5996cfd81888ae4ee76e3e429f0d2f3660404aea1829600654826040516109ed929190613a93565b60405180910390a1505060016000555050565b6002546001600160a01b03163314610a2a5760405162461bcd60e51b815260040161046690613c5f565b600e546001600160a01b0383811691161415610a585760405162461bcd60e51b815260040161046690613c7f565b610a6c6001600160a01b0383163383611e08565b7f74545154aac348a3eac92596bd1971957ca94795f4e954ec5f613b55fab781298282604051610a9d9291906139ca565b60405180910390a15050565b600080610ab88385018561323c565b915091508160011415610ad457610ace81611e90565b50610b0e565b8160021415610aeb57610ae681611fdf565b610b0e565b8160031415610afc57610ae661225f565b8160041415610b0e57610b0e816123f8565b50505050565b6002546001600160a01b0316331480610b375750600c546001600160a01b031633145b610b535760405162461bcd60e51b815260040161046690613c8f565b600260106000846002811115610b7957634e487b7160e01b600052602160045260246000fd5b6002811115610b9857634e487b7160e01b600052602160045260246000fd5b815260208101919091526040016000206002015460ff166005811115610bce57634e487b7160e01b600052602160045260246000fd5b14610beb5760405162461bcd60e51b815260040161046690613caf565b600e54610c03906001600160a01b031633308461253e565b80600f6000846002811115610c2857634e487b7160e01b600052602160045260246000fd5b6002811115610c4757634e487b7160e01b600052602160045260246000fd5b8152602001908152602001600020600060065481526020019081526020016000206007016000828254610c7a9190613db8565b90915550506006546040517fa1c157de391a92665d22914b5834a188e801f4fbc466639ddc0063abff1df3bb90610cb49085908590613b3c565b60405180910390a25050565b6002546001600160a01b03163314610cea5760405162461bcd60e51b815260040161046690613c5f565b6001600160a01b038116610d105760405162461bcd60e51b815260040161046690613c0f565b6001600160a01b038216610d365760405162461bcd60e51b815260040161046690613c0f565b600d80546001600160a01b0380841673ffffffffffffffffffffffffffffffffffffffff1992831617909255600c8054928516929091169190911790556040517fa6f7e8c500ff9602f43c07429562ca2a17f22d62c172a4fbb6aeb54bdc5e5c6490610a9d9083908590613987565b600060606000604051806060016040528060006002811115610dd757634e487b7160e01b600052602160045260246000fd5b6002811115610df657634e487b7160e01b600052602160045260246000fd5b81526020016001815260200160028152509050600060095460031415610e1a575060015b60005b6003811015611090576000838260038110610e4857634e487b7160e01b600052603260045260246000fd5b602002015190506000600f6000836002811115610e7557634e487b7160e01b600052602160045260246000fd5b6002811115610e9457634e487b7160e01b600052602160045260246000fd5b8152602001908152602001600020600060065481526020019081526020016000209050600060106000846002811115610edd57634e487b7160e01b600052602160045260246000fd5b6002811115610efc57634e487b7160e01b600052602160045260246000fd5b8152602001908152602001600020905060045442118015610f42575060028082015460ff166005811115610f4057634e487b7160e01b600052602160045260246000fd5b145b15610fc357600a8260030154108015610f5f575060058260060154105b15610f955760019750600483604051602001610f7c929190613b73565b604051602081830303815290604052965050505061107e565b60019750600183604051602001610fad929190613b73565b604051602081830303815290604052965061107a565b6003600282015460ff166005811115610fec57634e487b7160e01b600052602160045260246000fd5b141561100a5760019750600283604051602001610fad929190613b73565b6005600282015460ff16600581111561103357634e487b7160e01b600052602160045260246000fd5b14158015611042575060055442115b801561104b5750845b1561107a5760019750600383604051602001611068929190613b73565b60405160208183030381529060405296505b5050505b8061108881613ec4565b915050610e1d565b5050509250929050565b6002546001600160a01b031633146110c45760405162461bcd60e51b815260040161046690613c5f565b6002546040516000916001600160a01b0316907f8be0079c531659141344cd1fd0a4f28419497f9722a3daafe3b4186f6b6457e0908390a36002805473ffffffffffffffffffffffffffffffffffffffff19169055565b333b1561113a5760405162461bcd60e51b815260040161046690613bcf565b3332146111595760405162461bcd60e51b815260040161046690613c4f565b6002600054141561117c5760405162461bcd60e51b815260040161046690613ccf565b6002600055805161119f5760405162461bcd60e51b815260040161046690613c2f565b600b54815111156111c25760405162461bcd60e51b815260040161046690613cef565b6002601060008460028111156111e857634e487b7160e01b600052602160045260246000fd5b600281111561120757634e487b7160e01b600052602160045260246000fd5b815260208101919091526040016000206002015460ff16600581111561123d57634e487b7160e01b600052602160045260246000fd5b1461125a5760405162461bcd60e51b815260040161046690613caf565b60006010600084600281111561128057634e487b7160e01b600052602160045260246000fd5b600281111561129f57634e487b7160e01b600052602160045260246000fd5b815260200190815260200160002090506000825182600001546112c29190613de4565b600e549091506112dd906001600160a01b031633308461253e565b6000600f600086600281111561130357634e487b7160e01b600052602160045260246000fd5b600281111561132257634e487b7160e01b600052602160045260246000fd5b81526020808201929092526040908101600090812060065482528352818120338252600b8101909352205490915061136c5760068101805490600061136683613ec4565b91905055505b818360010160008282546113809190613db8565b9250508190555061139285855161255f565b61139c8585612631565b6113a58561277f565b336001600160a01b03166006547fa8833300989dff6c7036c28e17e6309e566c7cb5fc69a76e0dc73a0769eba2d987875187600101546040516113ea93929190613b4a565b60405180910390a350506001600055505050565b3360009081526013602052604081208054829182918291908690811061143457634e487b7160e01b600052603260045260246000fd5b6000918252602090912060039091020180546001820154600290920154909760ff9092169650945092505050565b336001600160a01b037f000000000000000000000000000000000000000000000000000000000000000016146114aa5760405162461bcd60e51b815260040161046690613c6f565b6114b482826128c9565b5050565b6040517f70a082310000000000000000000000000000000000000000000000000000000081526000906001600160a01b037f000000000000000000000000000000000000000000000000000000000000000016906370a0823190611520903090600401613979565b60206040518083038186803b15801561153857600080fd5b505afa15801561154c573d6000803e3d6000fd5b505050506040513d601f19601f820116820180604052508101906115709190613287565b905090565b6060600060606000806000600f60008960028111156115a457634e487b7160e01b600052602160045260246000fd5b60028111156115c357634e487b7160e01b600052602160045260246000fd5b81526020019081526020016000206000888152602001908152602001600020905080600101816003015482600501836008015484600901548480548060200260200160405190810160405280929190818152602001828054801561165057602002820191906000526020600020905b81546001600160a01b03168152600190910190602001808311611632575b50505050509450828054806020026020016040519081016040528092919081815260200182805480156116a257602002820191906000526020600020905b81548152602001906001019080831161168e575b5050505050925095509550955095509550509295509295909350565b600080601060008460028111156116e557634e487b7160e01b600052602160045260246000fd5b600281111561170457634e487b7160e01b600052602160045260246000fd5b81526020810191909152604001600020600101549392505050565b6002546001600160a01b031633146117495760405162461bcd60e51b815260040161046690613c5f565b60065460009081527ff4803e074bd026baaf6ed2e288c9515f68c72fb7216eebdd7cae1718a53ec375602052604081206003810154600a118015611791575060058160060154105b6117ad5760405162461bcd60e51b815260040161046690613bff565b60065460009081527f169f97de0d9a84d840042b17d3c6b9638b3d6fd9024c9eb0c7a306a17b49f88f60205260409020600381015460019190600a1180156117f9575060058160060154105b6118155760405162461bcd60e51b815260040161046690613bff565b60065460009081527fa74ba3945261e09fde15ba3db55005b205e61eeb4ad811ac0faa2b315bffeead60205260409020600381015460029190600a118015611861575060058160060154105b61187d5760405162461bcd60e51b815260040161046690613bff565b60408051606081018252600080825260016020830152600292820192909252905b60038110156118f75760008282600381106118c957634e487b7160e01b600052603260045260246000fd5b602002015190506118db816005611d78565b6118e4816123f8565b50806118ef81613ec4565b91505061189e565b5060006009556006546040517f38960c0800e981febc869f33d307d21683c7a1f85845bfe665071f160292c080916106cb914290600590613d50565b333b156119525760405162461bcd60e51b815260040161046690613bcf565b3332146119715760405162461bcd60e51b815260040161046690613c4f565b826012600082600281111561199657634e487b7160e01b600052602160045260246000fd5b60028111156119b557634e487b7160e01b600052602160045260246000fd5b8152602080820192909252604090810160009081203382529092529020546119ef5760405162461bcd60e51b815260040161046690613bbf565b60026000541415611a125760405162461bcd60e51b815260040161046690613ccf565b600260008181556012918690811115611a3b57634e487b7160e01b600052602160045260246000fd5b6002811115611a5a57634e487b7160e01b600052602160045260246000fd5b8152602080820192909252604090810160009081203382529092529020548314611a965760405162461bcd60e51b815260040161046690613cdf565b600260106000866002811115611abc57634e487b7160e01b600052602160045260246000fd5b6002811115611adb57634e487b7160e01b600052602160045260246000fd5b815260208101919091526040016000206002015460ff166005811115611b1157634e487b7160e01b600052602160045260246000fd5b14611b2e5760405162461bcd60e51b815260040161046690613caf565b611b388483612631565b611b4384835161255f565b600060126000866002811115611b6957634e487b7160e01b600052602160045260246000fd5b6002811115611b8857634e487b7160e01b600052602160045260246000fd5b8152602080820192909252604090810160009081203380835293528190209290925560065491517f2c173f4ba2da4849fb4c77f9d6ddc4672ce502af948c755bbe001196ede5338991611bdf918891908890613ae4565b60405180910390a2505060016000555050565b60008060106000846002811115611c1957634e487b7160e01b600052602160045260246000fd5b6002811115611c3857634e487b7160e01b600052602160045260246000fd5b815260208101919091526040016000206002015460ff169392505050565b600060126000836002811115611c7c57634e487b7160e01b600052602160045260246000fd5b6002811115611c9b57634e487b7160e01b600052602160045260246000fd5b81526020808201929092526040908101600090812033825290925290205492915050565b6002546001600160a01b03163314611ce95760405162461bcd60e51b815260040161046690613c5f565b6001600160a01b038116611d0f5760405162461bcd60e51b815260040161046690613b9f565b6002546040516001600160a01b038084169216907f8be0079c531659141344cd1fd0a4f28419497f9722a3daafe3b4186f6b6457e090600090a36002805473ffffffffffffffffffffffffffffffffffffffff19166001600160a01b0392909216919091179055565b600060106000846002811115611d9e57634e487b7160e01b600052602160045260246000fd5b6002811115611dbd57634e487b7160e01b600052602160045260246000fd5b81526020810191909152604001600020600281018054919250839160ff19166001836005811115611dfe57634e487b7160e01b600052602160045260246000fd5b0217905550505050565b611e8b8363a9059cbb60e01b8484604051602401611e279291906139ca565b60408051601f198184030181529190526020810180517bffffffffffffffffffffffffffffffffffffffffffffffffffffffff167fffffffff00000000000000000000000000000000000000000000000000000000909316929092179091526128f2565b505050565b60006008547f00000000000000000000000000000000000000000000000000000000000000006001600160a01b03166370a08231306040518263ffffffff1660e01b8152600401611ee19190613979565b60206040518083038186803b158015611ef957600080fd5b505afa158015611f0d573d6000803e3d6000fd5b505050506040513d601f19601f82011682018060405250810190611f319190613287565b1015611f4f5760405162461bcd60e51b815260040161046690613bdf565b611f5d600754600854612981565b60008181526011602052604090208054919250839160ff19166001836002811115611f9857634e487b7160e01b600052602160045260246000fd5b02179055506006547f79aa71bc7ac44ef46960b6e440cf08b63d9c1db4d3af7374da8c13371d369b10836003604051611fd2929190613b21565b60405180910390a2919050565b6000600f600083600281111561200557634e487b7160e01b600052602160045260246000fd5b600281111561202457634e487b7160e01b600052602160045260246000fd5b815260200190815260200160002060006006548152602001908152602001600020905060006010600084600281111561206d57634e487b7160e01b600052602160045260246000fd5b600281111561208c57634e487b7160e01b600052602160045260246000fd5b81526020019081526020016000209050600080600090505b600a548110156121c35761212f8460010182815481106120d457634e487b7160e01b600052603260045260246000fd5b6000918252602090912001546004860180546001600160a01b03909216918490811061211057634e487b7160e01b600052603260045260246000fd5b600091825260209091200154600e546001600160a01b03169190611e08565b83600401818154811061215257634e487b7160e01b600052603260045260246000fd5b90600052602060002001548360010160008282546121709190613e03565b90915550506004840180548290811061219957634e487b7160e01b600052603260045260246000fd5b9060005260206000200154826121af9190613db8565b9150806121bb81613ec4565b9150506120a4565b50600d5460018301546121f9916001600160a01b0316906121e690600290613dd0565b600e546001600160a01b03169190611e08565b612204846001611d78565b6009805490600061221483613ec4565b91905055507fef99a204a94c30b225058df07e102a2bb1ee4c08995f4a39eccf82e79e4731f9848460010183426040516122519493929190613af2565b60405180910390a150505050565b6009546003146122815760405162461bcd60e51b815260040161046690613c1f565b6006805490600061229183613ec4565b90915550504260038190556122c7907f000000000000000000000000000000000000000000000000000000000000000090613db8565b60048190556122f7907f000000000000000000000000000000000000000000000000000000000000000090613db8565b60055560408051606081018252600080825260016020830152600292820192909252905b60038110156123ab5760065460008181527ff4803e074bd026baaf6ed2e288c9515f68c72fb7216eebdd7cae1718a53ec3756020526040902090815560038054600883015560045460098301556123989084908490811061238c57634e487b7160e01b600052603260045260246000fd5b60200201516002611d78565b50806123a381613ec4565b91505061231b565b5060006009556006546004546005546040517fb15bf0ec96989b8686c290ff167b6855edaa07d0e6b8458f665125e648190684926123ed929091600290613d50565b60405180910390a250565b6000600f600083600281111561241e57634e487b7160e01b600052602160045260246000fd5b600281111561243d57634e487b7160e01b600052602160045260246000fd5b815260200190815260200160002060006006548152602001908152602001600020905060005b8160030154811015612519576000818152600a830160209081526040808320546001600160a01b0316808452600b860190925282205490916012908660028111156124be57634e487b7160e01b600052602160045260246000fd5b60028111156124dd57634e487b7160e01b600052602160045260246000fd5b8152602080820192909252604090810160009081206001600160a01b03909516815293909152909120558061251181613ec4565b915050612463565b50612525826001611d78565b6009805490600061253583613ec4565b91905055505050565b610b0e846323b872dd60e01b858585604051602401611e27939291906139a2565b336000818152601360205260408120805460018101808355938352928390811061259957634e487b7160e01b600052603260045260246000fd5b90600052602060002090600302019050428160000181905550838160010160006101000a81548160ff021916908360028111156125e657634e487b7160e01b600052602160045260246000fd5b021790555060028101839055805460018201546040517f60850aec46dea3854368ebe9087866f660da4b915e21945cfbc2e673935ab4d29261225192869260ff909116908890613d28565b6000600f600084600281111561265757634e487b7160e01b600052602160045260246000fd5b600281111561267657634e487b7160e01b600052602160045260246000fd5b815260200190815260200160002060006006548152602001908152602001600020905060005b825181101561275f57816002018382815181106126c957634e487b7160e01b600052603260045260246000fd5b602090810291909101810151825460018101845560009384529183209091015583513391600a85019186908590811061271257634e487b7160e01b600052603260045260246000fd5b6020026020010151815260200190815260200160002060006101000a8154816001600160a01b0302191690836001600160a01b03160217905550808061275790613ec4565b91505061269c565b5081518160030160008282546127759190613db8565b9091555050505050565b6000600f60008360028111156127a557634e487b7160e01b600052602160045260246000fd5b60028111156127c457634e487b7160e01b600052602160045260246000fd5b815260200190815260200160002060006006548152602001908152602001600020905060006010600084600281111561280d57634e487b7160e01b600052602160045260246000fd5b600281111561282c57634e487b7160e01b600052602160045260246000fd5b8152602001908152602001600020600101549050600060648260196128519190613de4565b61285b9190613dd0565b90506000606461286c84600f613de4565b6128769190613dd0565b90506000606461288785600a613de4565b6128919190613dd0565b9050604051806060016040528084815260200183815260200182815250856004019060036128c0929190612ef6565b50505050505050565b60008281526011602052604081205460ff16906128e68284612ac8565b9050610b0e8282612c14565b6000612947826040518060400160405280602081526020017f5361666545524332303a206c6f772d6c6576656c2063616c6c206661696c6564815250856001600160a01b0316612d7b9092919063ffffffff16565b805190915015611e8b578080602001905181019061296591906130dd565b611e8b5760405162461bcd60e51b815260040161046690613cbf565b60007f00000000000000000000000000000000000000000000000000000000000000006001600160a01b0316634000aea07f0000000000000000000000000000000000000000000000000000000000000000848660006040516020016129e8929190613a93565b6040516020818303038152906040526040518463ffffffff1660e01b8152600401612a15939291906139e5565b602060405180830381600087803b158015612a2f57600080fd5b505af1158015612a43573d6000803e3d6000fd5b505050506040513d601f19601f82011682018060405250810190612a6791906130dd565b50600083815260016020526040812054612a8690859083903090612d94565b600085815260016020819052604090912054919250612aa59190613db8565b600085815260016020526040902055612abe8482612dd1565b9150505b92915050565b60606000600f6000856002811115612af057634e487b7160e01b600052602160045260246000fd5b6002811115612b0f57634e487b7160e01b600052602160045260246000fd5b8152602001908152602001600020600060065481526020019081526020016000209050600a5467ffffffffffffffff811115612b5b57634e487b7160e01b600052604160045260246000fd5b604051908082528060200260200182016040528015612b84578160200160208202803683370190505b50915060005b600a54811015612c0c5781600301548482604051602001612bac929190613a93565b6040516020818303038152906040528051906020012060001c612bcf9190613edf565b838281518110612bef57634e487b7160e01b600052603260045260246000fd5b602090810291909101015280612c0481613ec4565b915050612b8a565b505092915050565b6000600f6000846002811115612c3a57634e487b7160e01b600052602160045260246000fd5b6002811115612c5957634e487b7160e01b600052602160045260246000fd5b815260200190815260200160002060006006548152602001908152602001600020905060005b600a54811015612d6f57600082600201848381518110612caf57634e487b7160e01b600052603260045260246000fd5b602002602001015181548110612cd557634e487b7160e01b600052603260045260246000fd5b6000918252602080832090910154808352600a86019091526040909120546001850180549293506001600160a01b039091169184908110612d2657634e487b7160e01b600052603260045260246000fd5b6000918252602090912001805473ffffffffffffffffffffffffffffffffffffffff19166001600160a01b03929092169190911790555080612d6781613ec4565b915050612c7f565b50611e8b836003611d78565b6060612d8a8484600085612e04565b90505b9392505050565b600084848484604051602001612dad9493929190613aa1565b6040516020818303038152906040528051906020012060001c90505b949350505050565b60008282604051602001612de692919061394f565b60405160208183030381529060405280519060200120905092915050565b606082471015612e265760405162461bcd60e51b815260040161046690613bef565b843b612e445760405162461bcd60e51b815260040161046690613c9f565b600080866001600160a01b03168587604051612e60919061396f565b60006040518083038185875af1925050503d8060008114612e9d576040519150601f19603f3d011682016040523d82523d6000602084013e612ea2565b606091505b5091509150612eb2828286612ebd565b979650505050505050565b60608315612ecc575081612d8d565b825115612edc5782518084602001fd5b8160405162461bcd60e51b81526004016104669190613b8e565b828054828255906000526020600020908101928215612f31579160200282015b82811115612f31578251825591602001919060010190612f16565b50612f3d929150612f41565b5090565b5b80821115612f3d5760008155600101612f42565b6000612f69612f6484613d94565b613d78565b90508083825260208201905082856020860285011115612f8857600080fd5b60005b85811015612fb257612f9d8783612ff2565b83526020928301929190910190600101612f8b565b5050509392505050565b8035612ac281613f7a565b600082601f830112612fd7578081fd5b8135612abe848260208601612f56565b8051612ac281613f8e565b8035612ac281613f96565b60008083601f84011261300e578182fd5b50813567ffffffffffffffff811115613025578182fd5b60208301915083600182028301111561303d57600080fd5b9250929050565b8035612ac281613f9c565b8051612ac281613f96565b60006020828403121561306b578081fd5b612d8d83828401612fbc565b60008060408385031215613089578081fd5b61309584828501612fbc565b915060206130a585828601612fbc565b9150509250929050565b600080604083850312156130c1578182fd5b6130cd84838501612fbc565b915060206130a585828601612ff2565b6000602082840312156130ee578081fd5b612d8d83828401612fe7565b6000806040838503121561310c578182fd5b6130cd84838501612ff2565b6000806020838503121561312a578182fd5b8183013567ffffffffffffffff811115613142578283fd5b61314e85828601612ffd565b92509250509250929050565b60006020828403121561316b578081fd5b612d8d83828401613044565b60008060408385031215613189578182fd5b61319584838501613044565b9150602083013567ffffffffffffffff8111156131b0578182fd5b6130a585828601612fc7565b600080604083850312156131ce578182fd5b6130cd84838501613044565b6000806000606084860312156131ee578081fd5b6131fa85828601613044565b9250602061320a86828701612ff2565b925050604084013567ffffffffffffffff811115613226578182fd5b61323286828701612fc7565b9150509250925092565b6000806040838503121561324e578182fd5b61325a84838501612ff2565b915060206130a585828601613044565b60006020828403121561327b578081fd5b612d8d83828401612ff2565b600060208284031215613298578081fd5b612d8d8382840161304f565b6132ae82826132bf565b5060200190565b6132ae828261339f565b6132c881613e1a565b82525050565b60006132d8825190565b8084526020938401938301825b8281101561330a5781516132f987826132a4565b9650506020820191506001016132e5565b5093949350505050565b600061331e825490565b8084526000838152602090819020940193825b8281101561330a5761334282613f4b565b61334c87826132a4565b96505060019182019101613331565b6000613365825190565b8084526020938401938301825b8281101561330a57815161338687826132b5565b965050602082019150600101613372565b8015156132c8565b806132c8565b60006133af825190565b8084526020840193506133c6818560208601613e6b565b601f01601f19169290920192915050565b60006133e1825190565b6133ef818560208601613e6b565b9290920192915050565b6132c881613e3f565b6132c881613e4a565b6132c881613e55565b6132c881613e60565b60268152602081017f4f776e61626c653a206e6577206f776e657220697320746865207a65726f206181527f6464726573730000000000000000000000000000000000000000000000000000602082015290505b60400190565b60268152602081017f536f7272792063616e20616374697661746520617320726166666c652069732081527f616374697665000000000000000000000000000000000000000000000000000060208201529050613471565b60148152602081017f596f752068617665206e6f20726f6c6c6f766572000000000000000000000000815290505b60200190565b60148152602081017f436f6e7472616374206e6f7420616c6c6f776564000000000000000000000000815290506134fd565b602b8152602081017f4e6f7420656e6f756768204c494e4b202d2066696c6c20636f6e74726163742081527f776974682066617563657400000000000000000000000000000000000000000060208201529050613471565b60268152602081017f416464726573733a20696e73756666696369656e742062616c616e636520666f81527f722063616c6c000000000000000000000000000000000000000000000000000060208201529050613471565b60278152602081017f536f7272792063616e206e6f74206465616374697661746520612076616c696481527f20726166666c650000000000000000000000000000000000000000000000000060208201529050613471565b60168152602081017f43616e6e6f74206265207a65726f206164647265737300000000000000000000815290506134fd565b60198152602081017f5265626f6f7420636865636b206e6f7420636f6d706c65746500000000000000815290506134fd565b60138152602081017f4e6f207469636b65742073706563696669656400000000000000000000000000815290506134fd565b60138152602081017f526166666c65206e6f7420496e61637469766500000000000000000000000000815290506134fd565b601a8152602081017f50726f787920636f6e7472616374206e6f7420616c6c6f776564000000000000815290506134fd565b60208082527f4f776e61626c653a2063616c6c6572206973206e6f7420746865206f776e657291019081526134fd565b601f8152602081017f4f6e6c7920565246436f6f7264696e61746f722063616e2066756c66696c6c00815290506134fd565b60148152602081017f43616e6e6f74206265205553444320746f6b656e000000000000000000000000815290506134fd565b60158152602081017f4e6f74206f776e6572206f7220696e6a6563746f720000000000000000000000815290506134fd565b601d8152602081017f416464726573733a2063616c6c20746f206e6f6e2d636f6e7472616374000000815290506134fd565b600f8152602081017f526166666c65206e6f74206f70656e0000000000000000000000000000000000815290506134fd565b602a8152602081017f5361666545524332303a204552433230206f7065726174696f6e20646964206e81527f6f7420737563636565640000000000000000000000000000000000000000000060208201529050613471565b601f8152602081017f5265656e7472616e637947756172643a207265656e7472616e742063616c6c00815290506134fd565b601f8152602081017f6e6f206d6174636820696e207469636b65747320746f20726f6c6c6f76657200815290506134fd565b60108152602081017f546f6f206d616e79207469636b65747300000000000000000000000000000000815290506134fd565b613959818461339f565b602001613966818361339f565b60200192915050565b612ac281836133d7565b60208101612ac282846132bf565b6040810161399582856132bf565b612d8d60208301846132bf565b606081016139b082866132bf565b6139bd60208301856132bf565b612dc9604083018461339f565b604081016139d882856132bf565b612d8d602083018461339f565b606081016139f382866132bf565b613a00602083018561339f565b8181036040830152613a1281846133a5565b95945050505050565b60a08082528101613a2c81886132ce565b9050613a3b602083018761339f565b8181036040830152613a4d818661335b565b9050613a5c606083018561339f565b613a69608083018461339f565b9695505050505050565b60408101613a818285613397565b8181036020830152612d8a81846133a5565b604081016139d8828561339f565b60808101613aaf828761339f565b613abc602083018661339f565b613ac960408301856132bf565b613a12606083018461339f565b60208101612ac282846133f9565b606081016139b08286613402565b60808101613b008287613402565b8181036020830152613b128186613314565b9050613ac9604083018561339f565b60408101613b2f8285613402565b612d8d602083018461340b565b604081016139d88285613402565b60608101613b588286613402565b6139bd602083018561339f565b60208101612ac2828461340b565b60408101613b818285613414565b612d8d6020830184613402565b60208082528101612d8d81846133a5565b60208082528101612ac28161341d565b60208082528101612ac281613477565b60208082528101612ac2816134cf565b60208082528101612ac281613503565b60208082528101612ac281613535565b60208082528101612ac28161358d565b60208082528101612ac2816135e5565b60208082528101612ac28161363d565b60208082528101612ac28161366f565b60208082528101612ac2816136a1565b60208082528101612ac2816136d3565b60208082528101612ac281613705565b60208082528101612ac281613737565b60208082528101612ac281613767565b60208082528101612ac281613799565b60208082528101612ac2816137cb565b60208082528101612ac2816137fd565b60208082528101612ac28161382f565b60208082528101612ac281613861565b60208082528101612ac2816138b9565b60208082528101612ac2816138eb565b60208082528101612ac28161391d565b60208101612ac2828461339f565b60608101613d1b828661339f565b6139bd6020830185613402565b60808101613d36828761339f565b613d43602083018661339f565b613ac96040830185613402565b60608101613d5e828661339f565b613d6b602083018561339f565b612dc9604083018461340b565b6000613d8360405190565b9050613d8f8282613e97565b919050565b600067ffffffffffffffff821115613dae57613dae613f35565b5060209081020190565b60008219821115613dcb57613dcb613ef3565b500190565b600082613ddf57613ddf613f09565b500490565b6000816000190483118215151615613dfe57613dfe613ef3565b500290565b600082821015613e1557613e15613ef3565b500390565b60006001600160a01b038216612ac2565b80613d8f81613f57565b80613d8f81613f6a565b6000612ac282613e1a565b6000612ac282613e2b565b6000612ac282613e35565b600060ff8216612ac2565b60005b83811015613e86578181015183820152602001613e6e565b83811115610b0e5750506000910152565b601f19601f830116810181811067ffffffffffffffff82111715613ebd57613ebd613f35565b6040525050565b6000600019821415613ed857613ed8613ef3565b5060010190565b600082613eee57613eee613f09565b500690565b634e487b7160e01b600052601160045260246000fd5b634e487b7160e01b600052601260045260246000fd5b634e487b7160e01b600052602160045260246000fd5b634e487b7160e01b600052604160045260246000fd5b6000612ac28254613e1a565b60038110613f6757613f67613f1f565b50565b60068110613f6757613f67613f1f565b613f8381613e1a565b8114613f6757600080fd5b801515613f83565b80613f83565b60038110613f6757600080fdfea2646970667358221220a9dce5054fa7799813aeee028b1a27d97c364b8542e9f48aaadb2ab69da9a0c364736f6c63430008040033",
  "linkReferences": {},
  "deployedLinkReferences": {}
}