{
  "_format": "hh-sol-artifact-1",
  "contractName": "Raffle",
  "sourceName": "contracts/Raffle.sol",
  "abi": [
    {
      "inputs": [
        {
          "internalType": "address",
          "name": "_vrfCoordinator",
          "type": "address"
        },
        {
          "internalType": "address",
          "name": "_link",
          "type": "address"
        },
        {
          "internalType": "bytes32",
          "name": "_keyHash",
          "type": "bytes32"
        },
        {
          "internalType": "uint256",
          "name": "_fee",
          "type": "uint256"
        },
        {
          "internalType": "address",
          "name": "_USDCtoken",
          "type": "address"
        }
      ],
      "stateMutability": "nonpayable",
      "type": "constructor"
    },
    {
      "anonymous": false,
      "inputs": [
        {
          "indexed": false,
          "internalType": "address",
          "name": "token",
          "type": "address"
        },
        {
          "indexed": false,
          "internalType": "uint256",
          "name": "amount",
          "type": "uint256"
        }
      ],
      "name": "AdminTokenRecovery",
      "type": "event"
    },
    {
      "anonymous": false,
      "inputs": [
        {
          "indexed": false,
          "internalType": "enum Raffle.RaffleCategory",
          "name": "raffleCategory",
          "type": "uint8"
        },
        {
          "indexed": true,
          "internalType": "uint256",
          "name": "raffleId",
          "type": "uint256"
        },
        {
          "indexed": false,
          "internalType": "uint256",
          "name": "injectedAmount",
          "type": "uint256"
        }
      ],
      "name": "LotteryInjection",
      "type": "event"
    },
    {
      "anonymous": false,
      "inputs": [
        {
          "indexed": false,
          "internalType": "address",
          "name": "treasuryAddress",
          "type": "address"
        },
        {
          "indexed": false,
          "internalType": "address",
          "name": "injectorAddress",
          "type": "address"
        }
      ],
      "name": "NewTreasuryAndInjectorAddresses",
      "type": "event"
    },
    {
      "anonymous": false,
      "inputs": [
        {
          "indexed": false,
          "internalType": "uint256",
          "name": "txIndex",
          "type": "uint256"
        },
        {
          "indexed": false,
          "internalType": "uint256",
          "name": "timestamp",
          "type": "uint256"
        },
        {
          "indexed": false,
          "internalType": "enum Raffle.RaffleCategory",
          "name": "raffleCategory",
          "type": "uint8"
        },
        {
          "indexed": false,
          "internalType": "uint256",
          "name": "noOfTickets",
          "type": "uint256"
        }
      ],
      "name": "NewUserTransaction",
      "type": "event"
    },
    {
      "anonymous": false,
      "inputs": [
        {
          "indexed": true,
          "internalType": "address",
          "name": "previousOwner",
          "type": "address"
        },
        {
          "indexed": true,
          "internalType": "address",
          "name": "newOwner",
          "type": "address"
        }
      ],
      "name": "OwnershipTransferred",
      "type": "event"
    },
    {
      "anonymous": false,
      "inputs": [
        {
          "indexed": false,
          "internalType": "uint256",
          "name": "raffleID",
          "type": "uint256"
        },
        {
          "indexed": false,
          "internalType": "uint256",
          "name": "timeStamp",
          "type": "uint256"
        },
        {
          "indexed": false,
          "internalType": "enum Raffle.RaffleState",
          "name": "raffleState",
          "type": "uint8"
        }
      ],
      "name": "RaffleDeactivated",
      "type": "event"
    },
    {
      "anonymous": false,
      "inputs": [
        {
          "indexed": false,
          "internalType": "enum Raffle.RaffleCategory",
          "name": "category",
          "type": "uint8"
        },
        {
          "indexed": true,
          "internalType": "uint256",
          "name": "raffleId",
          "type": "uint256"
        },
        {
          "indexed": false,
          "internalType": "enum Raffle.RaffleState",
          "name": "raffleState",
          "type": "uint8"
        }
      ],
      "name": "RaffleEnded",
      "type": "event"
    },
    {
      "anonymous": false,
      "inputs": [
        {
          "indexed": true,
          "internalType": "uint256",
          "name": "raffleId",
          "type": "uint256"
        },
        {
          "indexed": false,
          "internalType": "uint256",
          "name": "endTime",
          "type": "uint256"
        },
        {
          "indexed": false,
          "internalType": "uint256",
          "name": "rebootEndTime",
          "type": "uint256"
        },
        {
          "indexed": false,
          "internalType": "enum Raffle.RaffleState",
          "name": "raffleState",
          "type": "uint8"
        }
      ],
      "name": "RaffleOpen",
      "type": "event"
    },
    {
      "anonymous": false,
      "inputs": [
        {
          "indexed": false,
          "internalType": "uint256",
          "name": "raffleID",
          "type": "uint256"
        },
        {
          "indexed": false,
          "internalType": "uint256",
          "name": "timeStamp",
          "type": "uint256"
        },
        {
          "indexed": false,
          "internalType": "enum Raffle.RaffleState",
          "name": "raffleState",
          "type": "uint8"
        }
      ],
      "name": "RaffleReactivated",
      "type": "event"
    },
    {
      "anonymous": false,
      "inputs": [
        {
          "indexed": false,
          "internalType": "enum Raffle.RaffleCategory",
          "name": "raffleCategory",
          "type": "uint8"
        },
        {
          "indexed": true,
          "internalType": "uint256",
          "name": "raffleId",
          "type": "uint256"
        },
        {
          "indexed": false,
          "internalType": "address",
          "name": "buyer",
          "type": "address"
        },
        {
          "indexed": false,
          "internalType": "uint256",
          "name": "noOfTickets",
          "type": "uint256"
        }
      ],
      "name": "RolloverClaimed",
      "type": "event"
    },
    {
      "anonymous": false,
      "inputs": [
        {
          "indexed": false,
          "internalType": "enum Raffle.RaffleCategory",
          "name": "raffleCategory",
          "type": "uint8"
        },
        {
          "indexed": true,
          "internalType": "uint256",
          "name": "raffleId",
          "type": "uint256"
        },
        {
          "indexed": true,
          "internalType": "address",
          "name": "buyer",
          "type": "address"
        },
        {
          "indexed": false,
          "internalType": "uint256",
          "name": "numberTickets",
          "type": "uint256"
        },
        {
          "indexed": false,
          "internalType": "uint256",
          "name": "rafflePool",
          "type": "uint256"
        }
      ],
      "name": "TicketsPurchased",
      "type": "event"
    },
    {
      "anonymous": false,
      "inputs": [
        {
          "indexed": false,
          "internalType": "enum Raffle.RaffleCategory",
          "name": "raffleCategory",
          "type": "uint8"
        },
        {
          "indexed": false,
          "internalType": "address[]",
          "name": "winners",
          "type": "address[]"
        },
        {
          "indexed": false,
          "internalType": "uint256",
          "name": "amount",
          "type": "uint256"
        },
        {
          "indexed": false,
          "internalType": "uint256",
          "name": "timestamp",
          "type": "uint256"
        }
      ],
      "name": "WinnersAwarded",
      "type": "event"
    },
    {
      "anonymous": false,
      "inputs": [
        {
          "indexed": false,
          "internalType": "uint256",
          "name": "raffleID",
          "type": "uint256"
        },
        {
          "indexed": false,
          "internalType": "uint256",
          "name": "amount",
          "type": "uint256"
        }
      ],
      "name": "WithdrawalComplete",
      "type": "event"
    },
    {
      "inputs": [
        {
          "internalType": "address",
          "name": "_injectorAddress",
          "type": "address"
        },
        {
          "internalType": "address",
          "name": "_treasuryAddress",
          "type": "address"
        }
      ],
      "name": "SetInjectorAndTreasuryAdresses",
      "outputs": [],
      "stateMutability": "nonpayable",
      "type": "function"
    },
    {
      "inputs": [],
      "name": "USDCtoken",
      "outputs": [
        {
          "internalType": "contract IERC20",
          "name": "",
          "type": "address"
        }
      ],
      "stateMutability": "view",
      "type": "function"
    },
    {
      "inputs": [
        {
          "internalType": "enum Raffle.RaffleCategory",
          "name": "_category",
          "type": "uint8"
        },
        {
          "internalType": "uint256[]",
          "name": "_tickets",
          "type": "uint256[]"
        }
      ],
      "name": "buyTicket",
      "outputs": [],
      "stateMutability": "nonpayable",
      "type": "function"
    },
    {
      "inputs": [],
      "name": "checkLinkBalance",
      "outputs": [
        {
          "internalType": "uint256",
          "name": "",
          "type": "uint256"
        }
      ],
      "stateMutability": "view",
      "type": "function"
    },
    {
      "inputs": [
        {
          "internalType": "bytes",
          "name": "",
          "type": "bytes"
        }
      ],
      "name": "checkUpkeep",
      "outputs": [
        {
          "internalType": "bool",
          "name": "upkeepNeeded",
          "type": "bool"
        },
        {
          "internalType": "bytes",
          "name": "performData",
          "type": "bytes"
        }
      ],
      "stateMutability": "view",
      "type": "function"
    },
    {
      "inputs": [
        {
          "internalType": "enum Raffle.RaffleCategory",
          "name": "_category",
          "type": "uint8"
        },
        {
          "internalType": "uint256",
          "name": "_ticketsToRollover",
          "type": "uint256"
        },
        {
          "internalType": "uint256[]",
          "name": "_tickets",
          "type": "uint256[]"
        }
      ],
      "name": "claimRollover",
      "outputs": [],
      "stateMutability": "nonpayable",
      "type": "function"
    },
    {
      "inputs": [],
      "name": "deactivateRaffle",
      "outputs": [],
      "stateMutability": "nonpayable",
      "type": "function"
    },
    {
      "inputs": [
        {
          "internalType": "enum Raffle.RaffleCategory",
          "name": "_category",
          "type": "uint8"
        }
      ],
      "name": "getCurrentRaffleState",
      "outputs": [
        {
          "internalType": "enum Raffle.RaffleState",
          "name": "raffleState",
          "type": "uint8"
        }
      ],
      "stateMutability": "view",
      "type": "function"
    },
    {
      "inputs": [],
      "name": "getRaffleEndTime",
      "outputs": [
        {
          "internalType": "uint256",
          "name": "",
          "type": "uint256"
        }
      ],
      "stateMutability": "view",
      "type": "function"
    },
    {
      "inputs": [
        {
          "internalType": "enum Raffle.RaffleCategory",
          "name": "_category",
          "type": "uint8"
        }
      ],
      "name": "getRafflePool",
      "outputs": [
        {
          "internalType": "uint256",
          "name": "",
          "type": "uint256"
        }
      ],
      "stateMutability": "view",
      "type": "function"
    },
    {
      "inputs": [],
      "name": "getRebootEndTime",
      "outputs": [
        {
          "internalType": "uint256",
          "name": "",
          "type": "uint256"
        }
      ],
      "stateMutability": "view",
      "type": "function"
    },
    {
      "inputs": [],
      "name": "getUserTransactionCount",
      "outputs": [
        {
          "internalType": "uint256",
          "name": "",
          "type": "uint256"
        }
      ],
      "stateMutability": "view",
      "type": "function"
    },
    {
      "inputs": [],
      "name": "getraffleID",
      "outputs": [
        {
          "internalType": "uint256",
          "name": "",
          "type": "uint256"
        }
      ],
      "stateMutability": "view",
      "type": "function"
    },
    {
      "inputs": [
        {
          "internalType": "uint256",
          "name": "txIndex",
          "type": "uint256"
        }
      ],
      "name": "getuserTransactionHistory",
      "outputs": [
        {
          "internalType": "uint256",
          "name": "timestamp",
          "type": "uint256"
        },
        {
          "internalType": "enum Raffle.RaffleCategory",
          "name": "raffleCategory",
          "type": "uint8"
        },
        {
          "internalType": "uint256",
          "name": "noOfTickets",
          "type": "uint256"
        }
      ],
      "stateMutability": "view",
      "type": "function"
    },
    {
      "inputs": [
        {
          "internalType": "enum Raffle.RaffleCategory",
          "name": "_category",
          "type": "uint8"
        },
        {
          "internalType": "uint256",
          "name": "_amount",
          "type": "uint256"
        }
      ],
      "name": "injectFunds",
      "outputs": [],
      "stateMutability": "nonpayable",
      "type": "function"
    },
    {
      "inputs": [],
      "name": "injectorAddress",
      "outputs": [
        {
          "internalType": "address",
          "name": "",
          "type": "address"
        }
      ],
      "stateMutability": "view",
      "type": "function"
    },
    {
      "inputs": [],
      "name": "maxNumberTicketsPerBuy",
      "outputs": [
        {
          "internalType": "uint256",
          "name": "",
          "type": "uint256"
        }
      ],
      "stateMutability": "view",
      "type": "function"
    },
    {
      "inputs": [],
      "name": "noOfWinners",
      "outputs": [
        {
          "internalType": "uint256",
          "name": "",
          "type": "uint256"
        }
      ],
      "stateMutability": "view",
      "type": "function"
    },
    {
      "inputs": [],
      "name": "owner",
      "outputs": [
        {
          "internalType": "address",
          "name": "",
          "type": "address"
        }
      ],
      "stateMutability": "view",
      "type": "function"
    },
    {
      "inputs": [
        {
          "internalType": "bytes",
          "name": "performData",
          "type": "bytes"
        }
      ],
      "name": "performUpkeep",
      "outputs": [],
      "stateMutability": "nonpayable",
      "type": "function"
    },
    {
      "inputs": [
        {
          "internalType": "bytes32",
          "name": "requestId",
          "type": "bytes32"
        },
        {
          "internalType": "uint256",
          "name": "randomness",
          "type": "uint256"
        }
      ],
      "name": "rawFulfillRandomness",
      "outputs": [],
      "stateMutability": "nonpayable",
      "type": "function"
    },
    {
      "inputs": [],
      "name": "reactivateRaffle",
      "outputs": [],
      "stateMutability": "nonpayable",
      "type": "function"
    },
    {
      "inputs": [],
      "name": "rebootChecker",
      "outputs": [
        {
          "internalType": "uint256",
          "name": "",
          "type": "uint256"
        }
      ],
      "stateMutability": "view",
      "type": "function"
    },
    {
      "inputs": [
        {
          "internalType": "address",
          "name": "_tokenAddress",
          "type": "address"
        },
        {
          "internalType": "uint256",
          "name": "_tokenAmount",
          "type": "uint256"
        }
      ],
      "name": "recoverWrongTokens",
      "outputs": [],
      "stateMutability": "nonpayable",
      "type": "function"
    },
    {
      "inputs": [],
      "name": "renounceOwnership",
      "outputs": [],
      "stateMutability": "nonpayable",
      "type": "function"
    },
    {
      "inputs": [
        {
          "internalType": "address",
          "name": "newOwner",
          "type": "address"
        }
      ],
      "name": "transferOwnership",
      "outputs": [],
      "stateMutability": "nonpayable",
      "type": "function"
    },
    {
      "inputs": [],
      "name": "treasuryAddress",
      "outputs": [
        {
          "internalType": "address",
          "name": "",
          "type": "address"
        }
      ],
      "stateMutability": "view",
      "type": "function"
    },
    {
      "inputs": [
        {
          "internalType": "enum Raffle.RaffleCategory",
          "name": "_category",
          "type": "uint8"
        },
        {
          "internalType": "uint256",
          "name": "_raffleID",
          "type": "uint256"
        }
      ],
      "name": "viewRaffle",
      "outputs": [
        {
          "internalType": "address[]",
          "name": "winners",
          "type": "address[]"
        },
        {
          "internalType": "uint256",
          "name": "noOfTicketsSold",
          "type": "uint256"
        },
        {
          "internalType": "uint256[]",
          "name": "winningTickets",
          "type": "uint256[]"
        },
        {
          "internalType": "uint256",
          "name": "raffleStartTime",
          "type": "uint256"
        },
        {
          "internalType": "uint256",
          "name": "raffleEndTime",
          "type": "uint256"
        }
      ],
      "stateMutability": "view",
      "type": "function"
    },
    {
      "inputs": [
        {
          "internalType": "enum Raffle.RaffleCategory",
          "name": "_category",
          "type": "uint8"
        }
      ],
      "name": "viewRollovers",
      "outputs": [
        {
          "internalType": "uint256",
          "name": "ticketsToRollover",
          "type": "uint256"
        }
      ],
      "stateMutability": "view",
      "type": "function"
    },
    {
      "inputs": [
        {
          "internalType": "enum Raffle.RaffleCategory",
          "name": "_category",
          "type": "uint8"
        }
      ],
      "name": "withdrawFundsDueToDeactivation",
      "outputs": [],
      "stateMutability": "nonpayable",
      "type": "function"
    }
  ],
  "bytecode": "0x610100604052610e1060c05261070860e0526003600a556103e8600b553480156200002957600080fd5b50604051620053ca380380620053ca8339810160408190526200004c91620001aa565b600160009081556001600160601b0319606087811b821660a05286901b16608052620000753390565b600280546001600160a01b0319166001600160a01b038316908117909155604051919250906000907f8be0079c531659141344cd1fd0a4f28419497f9722a3daafe3b4186f6b6457e0908290a350600783905560088290556003600955600e80546001600160a01b0319166001600160a01b0383161790556200017f6010602052670de0b6b3a76400007f6e0956cda88cad152e89927e53611735b61a5c762d1428573c6931b0a5efcb0155678ac7230489e800007f8c6065603763fec3f5742441d3833f3f43b982453612d76adb39a885e3006b5f55600260005268056bc75e2d631000007f853b2fefe141400fef543280f93d98bd49996069f632d0d20236afeeed8e46a255565b50505050506200025b565b805162000197816200023a565b92915050565b8051620001978162000254565b600080600080600060a08688031215620001c2578081fd5b620001d0878288016200018a565b94506020620001e2888289016200018a565b9450506040620001f5888289016200019d565b935050606062000208888289016200019d565b92505060806200021b888289016200018a565b9150509295509295909350565b60006001600160a01b03821662000197565b620002458162000228565b81146200025157600080fd5b50565b8062000245565b60805160601c60a05160601c60c05160e05161511a620002b06000396000612f6c01526000612f3c015260008181611b8601526138e7015260008181611c2b015281816129bd01526138ab015261511a6000f3fe608060405234801561001057600080fd5b50600436106101da5760003560e01c80638da5cb5b11610104578063b6e81a4d116100a2578063defc98f811610071578063defc98f8146103f8578063e2dbabf514610418578063f0e21cd91461042b578063f2fde38b1461043457600080fd5b8063b6e81a4d146103aa578063c1aba43f146103bd578063c5f956af146103c5578063d19f19a8146103e557600080fd5b80639eb386fd116100de5780639eb386fd1461036d578063a24bf4ff14610375578063a7390c8e1461037d578063ad99854b146103a157600080fd5b80638da5cb5b1461031357806394985ddd1461033a5780639c3846531461034d57600080fd5b8063518da0a41161017c5780636e04ff0d1161014b5780636e04ff0d146102b5578063715018a6146102d6578063718031e5146102de5780638a3f16fd146102f157600080fd5b8063518da0a41461027e5780635c0b95d41461028757806367bb60a01461028f5780636c6f693d146102a257600080fd5b806328055096116101b857806328055096146102185780633f138d4b1461022b5780634185e5071461023e5780634585e33b1461026b57600080fd5b806313b42fa3146101df5780631b6826df146101f9578063269ce1bb1461020e575b600080fd5b6006545b6040516101f09190614d6f565b60405180910390f35b336000908152601360205260409020546101e3565b610216610447565b005b6102166102263660046141ee565b6107c2565b610216610239366004614143565b610c61565b600e5461025e9073ffffffffffffffffffffffffffffffffffffffff1681565b6040516101f09190614b56565b6102166102793660046141ac565b610d65565b6101e3600a5481565b6004546101e3565b61021661029d366004614250565b610dd0565b6102166102b036600461410b565b611054565b6102c86102c33660046141ac565b6111c6565b6040516101f0929190614af3565b6102166115e9565b6102166102ec36600461420b565b6116a9565b6103046102ff3660046142fe565b611af1565b6040516101f093929190614d7d565b60025473ffffffffffffffffffffffffffffffffffffffff165b6040516101f091906149f9565b61021661034836600461418e565b611b6e565b600c5461032d9073ffffffffffffffffffffffffffffffffffffffff1681565b6005546101e3565b6101e3611beb565b61039061038b366004614250565b611cb5565b6040516101f0959493929190614a9b565b6101e3600b5481565b6101e36103b83660046141ee565b611e3d565b610216611ed0565b600d5461032d9073ffffffffffffffffffffffffffffffffffffffff1681565b6102166103f336600461426e565b61217e565b61040b6104063660046141ee565b6125ba565b6040516101f09190614be5565b6101e36104263660046141ee565b612650565b6101e360095481565b6102166104423660046140ee565b6126eb565b60025473ffffffffffffffffffffffffffffffffffffffff1633146104a1576040517f08c379a000000000000000000000000000000000000000000000000000000000815260040161049890614cbf565b60405180910390fd5b600080805260106020527f6e0956cda88cad152e89927e53611735b61a5c762d1428573c6931b0a5efcb03547f6e0956cda88cad152e89927e53611735b61a5c762d1428573c6931b0a5efcb019060049060ff168181111561052c577f4e487b7100000000000000000000000000000000000000000000000000000000600052602160045260246000fd5b14610563576040517f08c379a000000000000000000000000000000000000000000000000000000000815260040161049890614cff565b6001600081905260106020527f8c6065603763fec3f5742441d3833f3f43b982453612d76adb39a885e3006b61547f8c6065603763fec3f5742441d3833f3f43b982453612d76adb39a885e3006b5f9060049060ff16818111156105f0577f4e487b7100000000000000000000000000000000000000000000000000000000600052602160045260246000fd5b14610627576040517f08c379a000000000000000000000000000000000000000000000000000000000815260040161049890614cff565b6002600081905260106020527f853b2fefe141400fef543280f93d98bd49996069f632d0d20236afeeed8e46a4547f853b2fefe141400fef543280f93d98bd49996069f632d0d20236afeeed8e46a29060049060ff16818111156106b4577f4e487b7100000000000000000000000000000000000000000000000000000000600052602160045260246000fd5b146106eb576040517f08c379a000000000000000000000000000000000000000000000000000000000815260040161049890614cff565b60408051606081018252600080825260016020830152600292820192909252905b6003811015610775576000828260038110610750577f4e487b7100000000000000000000000000000000000000000000000000000000600052603260045260246000fd5b60200201519050610762816001612817565b508061076d81614f7d565b91505061070c565b5060036009556006546040517f3e3fbe6edaa33edaf5f25f93631b45be609c9603eebf7d4d0976f0dec5dfdc04916107b1914290600190614dc0565b60405180910390a150505050505050565b333b156107fb576040517f08c379a000000000000000000000000000000000000000000000000000000000815260040161049890614c3f565b333214610834576040517f08c379a000000000000000000000000000000000000000000000000000000000815260040161049890614caf565b80600060106000836002811115610874577f4e487b7100000000000000000000000000000000000000000000000000000000600052602160045260246000fd5b60028111156108ac577f4e487b7100000000000000000000000000000000000000000000000000000000600052602160045260246000fd5b8152602081019190915260400160002090506004600282015460ff166004811115610900577f4e487b7100000000000000000000000000000000000000000000000000000000600052602160045260246000fd5b14610937576040517f08c379a000000000000000000000000000000000000000000000000000000000815260040161049890614cff565b60026000541415610974576040517f08c379a000000000000000000000000000000000000000000000000000000000815260040161049890614d3f565b60026000819055506000601060008560028111156109bb577f4e487b7100000000000000000000000000000000000000000000000000000000600052602160045260246000fd5b60028111156109f3577f4e487b7100000000000000000000000000000000000000000000000000000000600052602160045260246000fd5b81526020019081526020016000209050600060126000866002811115610a42577f4e487b7100000000000000000000000000000000000000000000000000000000600052602160045260246000fd5b6002811115610a7a577f4e487b7100000000000000000000000000000000000000000000000000000000600052602160045260246000fd5b8152602080820192909252604090810160009081203382529092528120548354909250610aa79083614e54565b600e546040517fa9059cbb00000000000000000000000000000000000000000000000000000000815291925073ffffffffffffffffffffffffffffffffffffffff169063a9059cbb90610b009033908590600401614a4a565b602060405180830381600087803b158015610b1a57600080fd5b505af1158015610b2e573d6000803e3d6000fd5b505050506040513d601f19601f82011682018060405250810190610b529190614171565b50600060126000886002811115610b92577f4e487b7100000000000000000000000000000000000000000000000000000000600052602160045260246000fd5b6002811115610bca577f4e487b7100000000000000000000000000000000000000000000000000000000600052602160045260246000fd5b815260200190815260200160002060003373ffffffffffffffffffffffffffffffffffffffff1673ffffffffffffffffffffffffffffffffffffffff168152602001908152602001600020819055507fac4b7f84df43766362cc5996cfd81888ae4ee76e3e429f0d2f3660404aea182960065482604051610c4c929190614b13565b60405180910390a15050600160005550505050565b60025473ffffffffffffffffffffffffffffffffffffffff163314610cb2576040517f08c379a000000000000000000000000000000000000000000000000000000000815260040161049890614cbf565b600e5473ffffffffffffffffffffffffffffffffffffffff83811691161415610d07576040517f08c379a000000000000000000000000000000000000000000000000000000000815260040161049890614cdf565b610d2873ffffffffffffffffffffffffffffffffffffffff83163383612910565b7f74545154aac348a3eac92596bd1971957ca94795f4e954ec5f613b55fab781298282604051610d59929190614a4a565b60405180910390a15050565b600080610d74838501856142d0565b915091508160011415610d9057610d8a816129b6565b50610dca565b8160021415610da757610da281612b63565b610dca565b8160031415610db857610da2612edf565b8160041415610dca57610dca81613157565b50505050565b60025473ffffffffffffffffffffffffffffffffffffffff16331480610e0d5750600c5473ffffffffffffffffffffffffffffffffffffffff1633145b610e43576040517f08c379a000000000000000000000000000000000000000000000000000000000815260040161049890614cef565b600260106000846002811115610e82577f4e487b7100000000000000000000000000000000000000000000000000000000600052602160045260246000fd5b6002811115610eba577f4e487b7100000000000000000000000000000000000000000000000000000000600052602160045260246000fd5b815260208101919091526040016000206002015460ff166004811115610f09577f4e487b7100000000000000000000000000000000000000000000000000000000600052602160045260246000fd5b14610f40576040517f08c379a000000000000000000000000000000000000000000000000000000000815260040161049890614d1f565b600e54610f659073ffffffffffffffffffffffffffffffffffffffff16333084613329565b80600f6000846002811115610fa3577f4e487b7100000000000000000000000000000000000000000000000000000000600052602160045260246000fd5b6002811115610fdb577f4e487b7100000000000000000000000000000000000000000000000000000000600052602160045260246000fd5b815260200190815260200160002060006006548152602001908152602001600020600701600082825461100e9190614e28565b90915550506006546040517fa1c157de391a92665d22914b5834a188e801f4fbc466639ddc0063abff1df3bb906110489085908590614bbc565b60405180910390a25050565b60025473ffffffffffffffffffffffffffffffffffffffff1633146110a5576040517f08c379a000000000000000000000000000000000000000000000000000000000815260040161049890614cbf565b73ffffffffffffffffffffffffffffffffffffffff81166110f2576040517f08c379a000000000000000000000000000000000000000000000000000000000815260040161049890614c7f565b73ffffffffffffffffffffffffffffffffffffffff821661113f576040517f08c379a000000000000000000000000000000000000000000000000000000000815260040161049890614c7f565b600d805473ffffffffffffffffffffffffffffffffffffffff8084167fffffffffffffffffffffffff000000000000000000000000000000000000000092831617909255600c8054928516929091169190911790556040517fa6f7e8c500ff9602f43c07429562ca2a17f22d62c172a4fbb6aeb54bdc5e5c6490610d599083908590614a07565b600060606000604051806060016040528060006002811115611211577f4e487b7100000000000000000000000000000000000000000000000000000000600052602160045260246000fd5b6002811115611249577f4e487b7100000000000000000000000000000000000000000000000000000000600052602160045260246000fd5b8152602001600181526020016002815250905060006009546003141561126d575060015b60005b60038110156115df5760008382600381106112b4577f4e487b7100000000000000000000000000000000000000000000000000000000600052603260045260246000fd5b602002015190506000600f60008360028111156112fa577f4e487b7100000000000000000000000000000000000000000000000000000000600052602160045260246000fd5b6002811115611332577f4e487b7100000000000000000000000000000000000000000000000000000000600052602160045260246000fd5b8152602001908152602001600020600060065481526020019081526020016000209050600060106000846002811115611394577f4e487b7100000000000000000000000000000000000000000000000000000000600052602160045260246000fd5b60028111156113cc577f4e487b7100000000000000000000000000000000000000000000000000000000600052602160045260246000fd5b8152602081019190915260400160002090506001600282015460ff166004811115611420577f4e487b7100000000000000000000000000000000000000000000000000000000600052602160045260246000fd5b14801561142b575084155b15611438575050506115cd565b60045442118015611487575060028082015460ff166004811115611485577f4e487b7100000000000000000000000000000000000000000000000000000000600052602160045260246000fd5b145b156114f257600a82600301541080156114a4575060058260060154105b156114da57600197506004836040516020016114c1929190614bf3565b60405160208183030381529060405296505050506115df565b600197506001836040516020016114c1929190614bf3565b6003600282015460ff166004811115611534577f4e487b7100000000000000000000000000000000000000000000000000000000600052602160045260246000fd5b141561155257600197506002836040516020016114c1929190614bf3565b6004600282015460ff166004811115611594577f4e487b7100000000000000000000000000000000000000000000000000000000600052602160045260246000fd5b141580156115a3575060055442115b80156115ac5750845b156115c957600197506003836040516020016114c1929190614bf3565b5050505b806115d781614f7d565b915050611270565b5050509250929050565b60025473ffffffffffffffffffffffffffffffffffffffff16331461163a576040517f08c379a000000000000000000000000000000000000000000000000000000000815260040161049890614cbf565b60025460405160009173ffffffffffffffffffffffffffffffffffffffff16907f8be0079c531659141344cd1fd0a4f28419497f9722a3daafe3b4186f6b6457e0908390a3600280547fffffffffffffffffffffffff0000000000000000000000000000000000000000169055565b333b156116e2576040517f08c379a000000000000000000000000000000000000000000000000000000000815260040161049890614c3f565b33321461171b576040517f08c379a000000000000000000000000000000000000000000000000000000000815260040161049890614caf565b60026000541415611758576040517f08c379a000000000000000000000000000000000000000000000000000000000815260040161049890614d3f565b60026000558051611795576040517f08c379a000000000000000000000000000000000000000000000000000000000815260040161049890614c9f565b600b54815111156117d2576040517f08c379a000000000000000000000000000000000000000000000000000000000815260040161049890614d5f565b600260106000846002811115611811577f4e487b7100000000000000000000000000000000000000000000000000000000600052602160045260246000fd5b6002811115611849577f4e487b7100000000000000000000000000000000000000000000000000000000600052602160045260246000fd5b815260208101919091526040016000206002015460ff166004811115611898577f4e487b7100000000000000000000000000000000000000000000000000000000600052602160045260246000fd5b146118cf576040517f08c379a000000000000000000000000000000000000000000000000000000000815260040161049890614d1f565b60006010600084600281111561190e577f4e487b7100000000000000000000000000000000000000000000000000000000600052602160045260246000fd5b6002811115611946577f4e487b7100000000000000000000000000000000000000000000000000000000600052602160045260246000fd5b815260200190815260200160002090506000825182600001546119699190614e54565b600e549091506119919073ffffffffffffffffffffffffffffffffffffffff16333084613329565b6000600f60008660028111156119d0577f4e487b7100000000000000000000000000000000000000000000000000000000600052602160045260246000fd5b6002811115611a08577f4e487b7100000000000000000000000000000000000000000000000000000000600052602160045260246000fd5b81526020808201929092526040908101600090812060065482528352818120338252600b81019093522054909150611a5257600681018054906000611a4c83614f7d565b91905055505b81836001016000828254611a669190614e28565b92505081905550611a7885855161334a565b611a82858561344e565b611a8b8561361a565b3373ffffffffffffffffffffffffffffffffffffffff166006547fa8833300989dff6c7036c28e17e6309e566c7cb5fc69a76e0dc73a0769eba2d98787518760010154604051611add93929190614bca565b60405180910390a350506001600055505050565b33600090815260136020526040812080548291829182919086908110611b40577f4e487b7100000000000000000000000000000000000000000000000000000000600052603260045260246000fd5b6000918252602090912060039091020180546001820154600290920154909760ff9092169650945092505050565b3373ffffffffffffffffffffffffffffffffffffffff7f00000000000000000000000000000000000000000000000000000000000000001614611bdd576040517f08c379a000000000000000000000000000000000000000000000000000000000815260040161049890614ccf565b611be782826137c8565b5050565b6040517f70a0823100000000000000000000000000000000000000000000000000000000815260009073ffffffffffffffffffffffffffffffffffffffff7f000000000000000000000000000000000000000000000000000000000000000016906370a0823190611c609030906004016149f9565b60206040518083038186803b158015611c7857600080fd5b505afa158015611c8c573d6000803e3d6000fd5b505050506040513d601f19601f82011682018060405250810190611cb0919061431b565b905090565b6060600060606000806000600f6000896002811115611cfd577f4e487b7100000000000000000000000000000000000000000000000000000000600052602160045260246000fd5b6002811115611d35577f4e487b7100000000000000000000000000000000000000000000000000000000600052602160045260246000fd5b815260200190815260200160002060008881526020019081526020016000209050806001018160030154826005018360080154846009015484805480602002602001604051908101604052809291908181526020018280548015611dcf57602002820191906000526020600020905b815473ffffffffffffffffffffffffffffffffffffffff168152600190910190602001808311611da4575b5050505050945082805480602002602001604051908101604052809291908181526020018280548015611e2157602002820191906000526020600020905b815481526020019060010190808311611e0d575b5050505050925095509550955095509550509295509295909350565b60008060106000846002811115611e7d577f4e487b7100000000000000000000000000000000000000000000000000000000600052602160045260246000fd5b6002811115611eb5577f4e487b7100000000000000000000000000000000000000000000000000000000600052602160045260246000fd5b81526020810191909152604001600020600101549392505050565b60025473ffffffffffffffffffffffffffffffffffffffff163314611f21576040517f08c379a000000000000000000000000000000000000000000000000000000000815260040161049890614cbf565b60065460009081527ff4803e074bd026baaf6ed2e288c9515f68c72fb7216eebdd7cae1718a53ec375602052604081206003810154600a118015611f69575060058160060154105b611f9f576040517f08c379a000000000000000000000000000000000000000000000000000000000815260040161049890614c6f565b60065460009081527f169f97de0d9a84d840042b17d3c6b9638b3d6fd9024c9eb0c7a306a17b49f88f60205260409020600381015460019190600a118015611feb575060058160060154105b612021576040517f08c379a000000000000000000000000000000000000000000000000000000000815260040161049890614c6f565b60065460009081527fa74ba3945261e09fde15ba3db55005b205e61eeb4ad811ac0faa2b315bffeead60205260409020600381015460029190600a11801561206d575060058160060154105b6120a3576040517f08c379a000000000000000000000000000000000000000000000000000000000815260040161049890614c6f565b60408051606081018252600080825260016020830152600292820192909252905b6003811015612136576000828260038110612108577f4e487b7100000000000000000000000000000000000000000000000000000000600052603260045260246000fd5b6020020151905061211a816004612817565b61212381613157565b508061212e81614f7d565b9150506120c4565b506000600981905560048181556005919091556006546040517f38960c0800e981febc869f33d307d21683c7a1f85845bfe665071f160292c080926107b19291429190614dc0565b333b156121b7576040517f08c379a000000000000000000000000000000000000000000000000000000000815260040161049890614c3f565b3332146121f0576040517f08c379a000000000000000000000000000000000000000000000000000000000815260040161049890614caf565b826012600082600281111561222e577f4e487b7100000000000000000000000000000000000000000000000000000000600052602160045260246000fd5b6002811115612266577f4e487b7100000000000000000000000000000000000000000000000000000000600052602160045260246000fd5b8152602080820192909252604090810160009081203382529092529020546122ba576040517f08c379a000000000000000000000000000000000000000000000000000000000815260040161049890614c2f565b600260005414156122f7576040517f08c379a000000000000000000000000000000000000000000000000000000000815260040161049890614d3f565b600260008181556012918690811115612339577f4e487b7100000000000000000000000000000000000000000000000000000000600052602160045260246000fd5b6002811115612371577f4e487b7100000000000000000000000000000000000000000000000000000000600052602160045260246000fd5b81526020808201929092526040908101600090812033825290925290205483146123c7576040517f08c379a000000000000000000000000000000000000000000000000000000000815260040161049890614d4f565b600260106000866002811115612406577f4e487b7100000000000000000000000000000000000000000000000000000000600052602160045260246000fd5b600281111561243e577f4e487b7100000000000000000000000000000000000000000000000000000000600052602160045260246000fd5b815260208101919091526040016000206002015460ff16600481111561248d577f4e487b7100000000000000000000000000000000000000000000000000000000600052602160045260246000fd5b146124c4576040517f08c379a000000000000000000000000000000000000000000000000000000000815260040161049890614d1f565b6124ce848361344e565b6124d984835161334a565b600060126000866002811115612518577f4e487b7100000000000000000000000000000000000000000000000000000000600052602160045260246000fd5b6002811115612550577f4e487b7100000000000000000000000000000000000000000000000000000000600052602160045260246000fd5b8152602080820192909252604090810160009081203380835293528190209290925560065491517f2c173f4ba2da4849fb4c77f9d6ddc4672ce502af948c755bbe001196ede53389916125a7918891908890614b64565b60405180910390a2505060016000555050565b600080601060008460028111156125fa577f4e487b7100000000000000000000000000000000000000000000000000000000600052602160045260246000fd5b6002811115612632577f4e487b7100000000000000000000000000000000000000000000000000000000600052602160045260246000fd5b815260208101919091526040016000206002015460ff169392505050565b60006012600083600281111561268f577f4e487b7100000000000000000000000000000000000000000000000000000000600052602160045260246000fd5b60028111156126c7577f4e487b7100000000000000000000000000000000000000000000000000000000600052602160045260246000fd5b81526020808201929092526040908101600090812033825290925290205492915050565b60025473ffffffffffffffffffffffffffffffffffffffff16331461273c576040517f08c379a000000000000000000000000000000000000000000000000000000000815260040161049890614cbf565b73ffffffffffffffffffffffffffffffffffffffff8116612789576040517f08c379a000000000000000000000000000000000000000000000000000000000815260040161049890614c1f565b60025460405173ffffffffffffffffffffffffffffffffffffffff8084169216907f8be0079c531659141344cd1fd0a4f28419497f9722a3daafe3b4186f6b6457e090600090a3600280547fffffffffffffffffffffffff00000000000000000000000000000000000000001673ffffffffffffffffffffffffffffffffffffffff92909216919091179055565b600060106000846002811115612856577f4e487b7100000000000000000000000000000000000000000000000000000000600052602160045260246000fd5b600281111561288e577f4e487b7100000000000000000000000000000000000000000000000000000000600052602160045260246000fd5b8152602081019190915260400160002060028101805491925083917fffffffffffffffffffffffffffffffffffffffffffffffffffffffffffffff00166001836004811115612906577f4e487b7100000000000000000000000000000000000000000000000000000000600052602160045260246000fd5b0217905550505050565b6129b18363a9059cbb60e01b848460405160240161292f929190614a4a565b604080517fffffffffffffffffffffffffffffffffffffffffffffffffffffffffffffffe08184030181529190526020810180517bffffffffffffffffffffffffffffffffffffffffffffffffffffffff167fffffffff00000000000000000000000000000000000000000000000000000000909316929092179091526137f1565b505050565b60006008547f000000000000000000000000000000000000000000000000000000000000000073ffffffffffffffffffffffffffffffffffffffff166370a08231306040518263ffffffff1660e01b8152600401612a1491906149f9565b60206040518083038186803b158015612a2c57600080fd5b505afa158015612a40573d6000803e3d6000fd5b505050506040513d601f19601f82011682018060405250810190612a64919061431b565b1015612a9c576040517f08c379a000000000000000000000000000000000000000000000000000000000815260040161049890614c4f565b612aaa6007546008546138a7565b6000818152601160205260409020805491925083917fffffffffffffffffffffffffffffffffffffffffffffffffffffffffffffff00166001836002811115612b1c577f4e487b7100000000000000000000000000000000000000000000000000000000600052602160045260246000fd5b02179055506006547f79aa71bc7ac44ef46960b6e440cf08b63d9c1db4d3af7374da8c13371d369b10836003604051612b56929190614ba1565b60405180910390a2919050565b6000600f6000836002811115612ba2577f4e487b7100000000000000000000000000000000000000000000000000000000600052602160045260246000fd5b6002811115612bda577f4e487b7100000000000000000000000000000000000000000000000000000000600052602160045260246000fd5b8152602001908152602001600020600060065481526020019081526020016000209050600060106000846002811115612c3c577f4e487b7100000000000000000000000000000000000000000000000000000000600052602160045260246000fd5b6002811115612c74577f4e487b7100000000000000000000000000000000000000000000000000000000600052602160045260246000fd5b81526020019081526020016000209050600080600090505b600a54811015612e2957612d63846001018281548110612cd5577f4e487b7100000000000000000000000000000000000000000000000000000000600052603260045260246000fd5b60009182526020909120015460048601805473ffffffffffffffffffffffffffffffffffffffff9092169184908110612d37577f4e487b7100000000000000000000000000000000000000000000000000000000600052603260045260246000fd5b600091825260209091200154600e5473ffffffffffffffffffffffffffffffffffffffff169190612910565b836004018181548110612d9f577f4e487b7100000000000000000000000000000000000000000000000000000000600052603260045260246000fd5b9060005260206000200154836001016000828254612dbd9190614e91565b909155505060048401805482908110612dff577f4e487b7100000000000000000000000000000000000000000000000000000000600052603260045260246000fd5b906000526020600020015482612e159190614e28565b915080612e2181614f7d565b915050612c8c565b50600d546001830154612e799173ffffffffffffffffffffffffffffffffffffffff1690612e5990600290614e40565b600e5473ffffffffffffffffffffffffffffffffffffffff169190612910565b612e84846001612817565b60098054906000612e9483614f7d565b91905055507fef99a204a94c30b225058df07e102a2bb1ee4c08995f4a39eccf82e79e4731f984846001018342604051612ed19493929190614b72565b60405180910390a150505050565b600954600314612f1b576040517f08c379a000000000000000000000000000000000000000000000000000000000815260040161049890614c8f565b60068054906000612f2b83614f7d565b9091555050426003819055612f61907f000000000000000000000000000000000000000000000000000000000000000090614e28565b6004819055612f91907f000000000000000000000000000000000000000000000000000000000000000090614e28565b60055560408051606081018252600080825260016020830152600292820192909252905b600381101561310a576000828260038110612ff9577f4e487b7100000000000000000000000000000000000000000000000000000000600052603260045260246000fd5b602002015190506000600f600083600281111561303f577f4e487b7100000000000000000000000000000000000000000000000000000000600052602160045260246000fd5b6002811115613077577f4e487b7100000000000000000000000000000000000000000000000000000000600052602160045260246000fd5b81526020808201929092526040908101600090812060065480835293522090815560038054600883015560045460098301559091506130f5908590859081106130e9577f4e487b7100000000000000000000000000000000000000000000000000000000600052603260045260246000fd5b60200201516002612817565b5050808061310290614f7d565b915050612fb5565b5060006009556006546004546005546040517fb15bf0ec96989b8686c290ff167b6855edaa07d0e6b8458f665125e6481906849261314c929091600290614dc0565b60405180910390a250565b6000600f6000836002811115613196577f4e487b7100000000000000000000000000000000000000000000000000000000600052602160045260246000fd5b60028111156131ce577f4e487b7100000000000000000000000000000000000000000000000000000000600052602160045260246000fd5b81526020019081526020016000206000600654815260200190815260200160002090506000816003015411156133055760005b8160030154811015613303576000818152600a8301602090815260408083205473ffffffffffffffffffffffffffffffffffffffff16808452600b86019092528220549091601290866002811115613282577f4e487b7100000000000000000000000000000000000000000000000000000000600052602160045260246000fd5b60028111156132ba577f4e487b7100000000000000000000000000000000000000000000000000000000600052602160045260246000fd5b81526020808201929092526040908101600090812073ffffffffffffffffffffffffffffffffffffffff90951681529390915290912055806132fb81614f7d565b915050613201565b505b613310826001612817565b6009805490600061332083614f7d565b91905055505050565b610dca846323b872dd60e01b85858560405160240161292f93929190614a22565b336000818152601360205260408120805460018101808355938352928390811061339d577f4e487b7100000000000000000000000000000000000000000000000000000000600052603260045260246000fd5b90600052602060002090600302019050428160000181905550838160010160006101000a81548160ff02191690836002811115613403577f4e487b7100000000000000000000000000000000000000000000000000000000600052602160045260246000fd5b021790555060028101839055805460018201546040517f60850aec46dea3854368ebe9087866f660da4b915e21945cfbc2e673935ab4d292612ed192869260ff909116908890614d98565b6000600f600084600281111561348d577f4e487b7100000000000000000000000000000000000000000000000000000000600052602160045260246000fd5b60028111156134c5577f4e487b7100000000000000000000000000000000000000000000000000000000600052602160045260246000fd5b815260200190815260200160002060006006548152602001908152602001600020905060005b82518110156135fa5781600201838281518110613531577f4e487b7100000000000000000000000000000000000000000000000000000000600052603260045260246000fd5b602090810291909101810151825460018101845560009384529183209091015583513391600a850191869085908110613593577f4e487b7100000000000000000000000000000000000000000000000000000000600052603260045260246000fd5b6020026020010151815260200190815260200160002060006101000a81548173ffffffffffffffffffffffffffffffffffffffff021916908373ffffffffffffffffffffffffffffffffffffffff16021790555080806135f290614f7d565b9150506134eb565b5081518160030160008282546136109190614e28565b9091555050505050565b6000600f6000836002811115613659577f4e487b7100000000000000000000000000000000000000000000000000000000600052602160045260246000fd5b6002811115613691577f4e487b7100000000000000000000000000000000000000000000000000000000600052602160045260246000fd5b81526020019081526020016000206000600654815260200190815260200160002090506000601060008460028111156136f3577f4e487b7100000000000000000000000000000000000000000000000000000000600052602160045260246000fd5b600281111561372b577f4e487b7100000000000000000000000000000000000000000000000000000000600052602160045260246000fd5b8152602001908152602001600020600101549050600060648260196137509190614e54565b61375a9190614e40565b90506000606461376b84600f614e54565b6137759190614e40565b90506000606461378685600a614e54565b6137909190614e40565b9050604051806060016040528084815260200183815260200182815250856004019060036137bf929190613f8a565b50505050505050565b60008281526011602052604081205460ff16906137e582846139fb565b9050610dca8282613bab565b6000613853826040518060400160405280602081526020017f5361666545524332303a206c6f772d6c6576656c2063616c6c206661696c65648152508573ffffffffffffffffffffffffffffffffffffffff16613db49092919063ffffffff16565b8051909150156129b157808060200190518101906138719190614171565b6129b1576040517f08c379a000000000000000000000000000000000000000000000000000000000815260040161049890614d2f565b60007f000000000000000000000000000000000000000000000000000000000000000073ffffffffffffffffffffffffffffffffffffffff16634000aea07f00000000000000000000000000000000000000000000000000000000000000008486600060405160200161391b929190614b13565b6040516020818303038152906040526040518463ffffffff1660e01b815260040161394893929190614a65565b602060405180830381600087803b15801561396257600080fd5b505af1158015613976573d6000803e3d6000fd5b505050506040513d601f19601f8201168201806040525081019061399a9190614171565b506000838152600160205260408120546139b990859083903090613dcd565b6000858152600160208190526040909120549192506139d89190614e28565b6000858152600160205260409020556139f18482613e0a565b9150505b92915050565b60606000600f6000856002811115613a3c577f4e487b7100000000000000000000000000000000000000000000000000000000600052602160045260246000fd5b6002811115613a74577f4e487b7100000000000000000000000000000000000000000000000000000000600052602160045260246000fd5b8152602001908152602001600020600060065481526020019081526020016000209050600a5467ffffffffffffffff811115613ad9577f4e487b7100000000000000000000000000000000000000000000000000000000600052604160045260246000fd5b604051908082528060200260200182016040528015613b02578160200160208202803683370190505b50915060005b600a54811015613ba35781600301548482604051602001613b2a929190614b13565b6040516020818303038152906040528051906020012060001c613b4d9190614fb6565b838281518110613b86577f4e487b7100000000000000000000000000000000000000000000000000000000600052603260045260246000fd5b602090810291909101015280613b9b81614f7d565b915050613b08565b505092915050565b6000600f6000846002811115613bea577f4e487b7100000000000000000000000000000000000000000000000000000000600052602160045260246000fd5b6002811115613c22577f4e487b7100000000000000000000000000000000000000000000000000000000600052602160045260246000fd5b815260200190815260200160002060006006548152602001908152602001600020905060005b600a54811015613da857600082600201848381518110613c91577f4e487b7100000000000000000000000000000000000000000000000000000000600052603260045260246000fd5b602002602001015181548110613cd0577f4e487b7100000000000000000000000000000000000000000000000000000000600052603260045260246000fd5b6000918252602080832090910154808352600a860190915260409091205460018501805492935073ffffffffffffffffffffffffffffffffffffffff9091169184908110613d47577f4e487b7100000000000000000000000000000000000000000000000000000000600052603260045260246000fd5b600091825260209091200180547fffffffffffffffffffffffff00000000000000000000000000000000000000001673ffffffffffffffffffffffffffffffffffffffff929092169190911790555080613da081614f7d565b915050613c48565b506129b1836003612817565b6060613dc38484600085613e3d565b90505b9392505050565b600084848484604051602001613de69493929190614b21565b6040516020818303038152906040528051906020012060001c90505b949350505050565b60008282604051602001613e1f9291906149cf565b60405160208183030381529060405280519060200120905092915050565b606082471015613e79576040517f08c379a000000000000000000000000000000000000000000000000000000000815260040161049890614c5f565b843b613eb1576040517f08c379a000000000000000000000000000000000000000000000000000000000815260040161049890614d0f565b6000808673ffffffffffffffffffffffffffffffffffffffff168587604051613eda91906149ef565b60006040518083038185875af1925050503d8060008114613f17576040519150601f19603f3d011682016040523d82523d6000602084013e613f1c565b606091505b5091509150613f2c828286613f37565b979650505050505050565b60608315613f46575081613dc6565b825115613f565782518084602001fd5b816040517f08c379a00000000000000000000000000000000000000000000000000000000081526004016104989190614c0e565b828054828255906000526020600020908101928215613fc5579160200282015b82811115613fc5578251825591602001919060010190613faa565b50613fd1929150613fd5565b5090565b5b80821115613fd15760008155600101613fd6565b6000613ffd613ff884614e04565b614de8565b9050808382526020820190508285602086028501111561401c57600080fd5b60005b85811015614046576140318783614086565b8352602092830192919091019060010161401f565b5050509392505050565b80356139f5816150b5565b600082601f83011261406b578081fd5b81356139f1848260208601613fea565b80516139f5816150c9565b80356139f5816150d1565b60008083601f8401126140a2578182fd5b50813567ffffffffffffffff8111156140b9578182fd5b6020830191508360018202830111156140d157600080fd5b9250929050565b80356139f5816150d7565b80516139f5816150d1565b6000602082840312156140ff578081fd5b613dc683828401614050565b6000806040838503121561411d578081fd5b61412984828501614050565b9150602061413985828601614050565b9150509250929050565b60008060408385031215614155578182fd5b61416184838501614050565b9150602061413985828601614086565b600060208284031215614182578081fd5b613dc68382840161407b565b600080604083850312156141a0578182fd5b61416184838501614086565b600080602083850312156141be578182fd5b8183013567ffffffffffffffff8111156141d6578283fd5b6141e285828601614091565b92509250509250929050565b6000602082840312156141ff578081fd5b613dc6838284016140d8565b6000806040838503121561421d578182fd5b614229848385016140d8565b9150602083013567ffffffffffffffff811115614244578182fd5b6141398582860161405b565b60008060408385031215614262578182fd5b614161848385016140d8565b600080600060608486031215614282578081fd5b61428e858286016140d8565b9250602061429e86828701614086565b925050604084013567ffffffffffffffff8111156142ba578182fd5b6142c68682870161405b565b9150509250925092565b600080604083850312156142e2578182fd5b6142ee84838501614086565b91506020614139858286016140d8565b60006020828403121561430f578081fd5b613dc683828401614086565b60006020828403121561432c578081fd5b613dc6838284016140e3565b6143428282614353565b5060200190565b6143428282614433565b61435c81614ea8565b82525050565b600061436c825190565b8084526020938401938301825b8281101561439e57815161438d8782614338565b965050602082019150600101614379565b5093949350505050565b60006143b2825490565b8084526000838152602090819020940193825b8281101561439e576143d682615086565b6143e08782614338565b965050600191820191016143c5565b60006143f9825190565b8084526020938401938301825b8281101561439e57815161441a8782614349565b965050602082019150600101614406565b80151561435c565b8061435c565b6000614443825190565b80845260208401935061445a818560208601614f06565b601f017fffffffffffffffffffffffffffffffffffffffffffffffffffffffffffffffe0169290920192915050565b6000614493825190565b6144a1818560208601614f06565b9290920192915050565b61435c81614eda565b61435c81614ee5565b61435c81614ef0565b61435c81614efb565b60268152602081017f4f776e61626c653a206e6577206f776e657220697320746865207a65726f206181527f6464726573730000000000000000000000000000000000000000000000000000602082015290505b60400190565b60148152602081017f596f752068617665206e6f20726f6c6c6f766572000000000000000000000000815290505b60200190565b60148152602081017f436f6e7472616374206e6f7420616c6c6f77656400000000000000000000000081529050614557565b602b8152602081017f4e6f7420656e6f756768204c494e4b202d2066696c6c20636f6e74726163742081527f776974682066617563657400000000000000000000000000000000000000000060208201529050614523565b60268152602081017f416464726573733a20696e73756666696369656e742062616c616e636520666f81527f722063616c6c000000000000000000000000000000000000000000000000000060208201529050614523565b60278152602081017f536f7272792063616e206e6f74206465616374697661746520612076616c696481527f20726166666c650000000000000000000000000000000000000000000000000060208201529050614523565b60168152602081017f43616e6e6f74206265207a65726f20616464726573730000000000000000000081529050614557565b60198152602081017f5265626f6f7420636865636b206e6f7420636f6d706c6574650000000000000081529050614557565b60138152602081017f4e6f207469636b6574207370656369666965640000000000000000000000000081529050614557565b601a8152602081017f50726f787920636f6e7472616374206e6f7420616c6c6f77656400000000000081529050614557565b60208082527f4f776e61626c653a2063616c6c6572206973206e6f7420746865206f776e65729101908152614557565b601f8152602081017f4f6e6c7920565246436f6f7264696e61746f722063616e2066756c66696c6c0081529050614557565b60148152602081017f43616e6e6f74206265205553444320746f6b656e00000000000000000000000081529050614557565b60158152602081017f4e6f74206f776e6572206f7220696e6a6563746f72000000000000000000000081529050614557565b602f8152602081017f536f7272792063616e20616374697661746520617320726166666c652069732081527f6e6f74206465616374697661746564000000000000000000000000000000000060208201529050614523565b601d8152602081017f416464726573733a2063616c6c20746f206e6f6e2d636f6e747261637400000081529050614557565b600f8152602081017f526166666c65206e6f74206f70656e000000000000000000000000000000000081529050614557565b602a8152602081017f5361666545524332303a204552433230206f7065726174696f6e20646964206e81527f6f7420737563636565640000000000000000000000000000000000000000000060208201529050614523565b601f8152602081017f5265656e7472616e637947756172643a207265656e7472616e742063616c6c0081529050614557565b601f8152602081017f6e6f206d6174636820696e207469636b65747320746f20726f6c6c6f7665720081529050614557565b60108152602081017f546f6f206d616e79207469636b6574730000000000000000000000000000000081529050614557565b6149d98184614433565b6020016149e68183614433565b60200192915050565b6139f58183614489565b602081016139f58284614353565b60408101614a158285614353565b613dc66020830184614353565b60608101614a308286614353565b614a3d6020830185614353565b613e026040830184614433565b60408101614a588285614353565b613dc66020830184614433565b60608101614a738286614353565b614a806020830185614433565b8181036040830152614a928184614439565b95945050505050565b60a08082528101614aac8188614362565b9050614abb6020830187614433565b8181036040830152614acd81866143ef565b9050614adc6060830185614433565b614ae96080830184614433565b9695505050505050565b60408101614b01828561442b565b8181036020830152613dc38184614439565b60408101614a588285614433565b60808101614b2f8287614433565b614b3c6020830186614433565b614b496040830185614353565b614a926060830184614433565b602081016139f582846144ab565b60608101614a3082866144b4565b60808101614b8082876144b4565b8181036020830152614b9281866143a8565b9050614b496040830185614433565b60408101614baf82856144b4565b613dc660208301846144bd565b60408101614a5882856144b4565b60608101614bd882866144b4565b614a3d6020830185614433565b602081016139f582846144bd565b60408101614c0182856144c6565b613dc660208301846144b4565b60208082528101613dc68184614439565b602080825281016139f5816144cf565b602080825281016139f581614529565b602080825281016139f58161455d565b602080825281016139f58161458f565b602080825281016139f5816145e7565b602080825281016139f58161463f565b602080825281016139f581614697565b602080825281016139f5816146c9565b602080825281016139f5816146fb565b602080825281016139f58161472d565b602080825281016139f58161475f565b602080825281016139f58161478f565b602080825281016139f5816147c1565b602080825281016139f5816147f3565b602080825281016139f581614825565b602080825281016139f58161487d565b602080825281016139f5816148af565b602080825281016139f5816148e1565b602080825281016139f581614939565b602080825281016139f58161496b565b602080825281016139f58161499d565b602081016139f58284614433565b60608101614d8b8286614433565b614a3d60208301856144b4565b60808101614da68287614433565b614db36020830186614433565b614b4960408301856144b4565b60608101614dce8286614433565b614ddb6020830185614433565b613e0260408301846144bd565b6000614df360405190565b9050614dff8282614f32565b919050565b600067ffffffffffffffff821115614e1e57614e1e615057565b5060209081020190565b60008219821115614e3b57614e3b614fca565b500190565b600082614e4f57614e4f614ff9565b500490565b6000817fffffffffffffffffffffffffffffffffffffffffffffffffffffffffffffffff0483118215151615614e8c57614e8c614fca565b500290565b600082821015614ea357614ea3614fca565b500390565b600073ffffffffffffffffffffffffffffffffffffffff82166139f5565b80614dff81615092565b80614dff816150a5565b60006139f582614ea8565b60006139f582614ec6565b60006139f582614ed0565b600060ff82166139f5565b60005b83811015614f21578181015183820152602001614f09565b83811115610dca5750506000910152565b7fffffffffffffffffffffffffffffffffffffffffffffffffffffffffffffffe0601f830116810181811067ffffffffffffffff82111715614f7657614f76615057565b6040525050565b60007fffffffffffffffffffffffffffffffffffffffffffffffffffffffffffffffff821415614faf57614faf614fca565b5060010190565b600082614fc557614fc5614ff9565b500690565b7f4e487b7100000000000000000000000000000000000000000000000000000000600052601160045260246000fd5b7f4e487b7100000000000000000000000000000000000000000000000000000000600052601260045260246000fd5b7f4e487b7100000000000000000000000000000000000000000000000000000000600052602160045260246000fd5b7f4e487b7100000000000000000000000000000000000000000000000000000000600052604160045260246000fd5b60006139f58254614ea8565b600381106150a2576150a2615028565b50565b600581106150a2576150a2615028565b6150be81614ea8565b81146150a257600080fd5b8015156150be565b806150be565b600381106150a257600080fdfea2646970667358221220e5d19152e43e5f2884491abf29ce6b78ed10852724a994a25f6541f859c9740264736f6c63430008040033",
  "linkReferences": {},
  "deployedLinkReferences": {}
}