{
  "_format": "hh-sol-artifact-1",
  "contractName": "Raffle",
  "sourceName": "contracts/Raffle.sol",
  "abi": [
    {
      "inputs": [
        {
          "internalType": "address",
          "name": "_vrfCoordinator",
          "type": "address"
        },
        {
          "internalType": "address",
          "name": "_link",
          "type": "address"
        },
        {
          "internalType": "bytes32",
          "name": "_keyHash",
          "type": "bytes32"
        },
        {
          "internalType": "uint256",
          "name": "_fee",
          "type": "uint256"
        },
        {
          "internalType": "address",
          "name": "_raffleToken",
          "type": "address"
        },
        {
          "internalType": "string",
          "name": "_dexname",
          "type": "string"
        },
        {
          "internalType": "address",
          "name": "_routerAddress",
          "type": "address"
        },
        {
          "internalType": "uint256",
          "name": "_amountOfTokenPerDAI",
          "type": "uint256"
        }
      ],
      "stateMutability": "nonpayable",
      "type": "constructor"
    },
    {
      "anonymous": false,
      "inputs": [
        {
          "indexed": false,
          "internalType": "address",
          "name": "token",
          "type": "address"
        },
        {
          "indexed": false,
          "internalType": "uint256",
          "name": "amount",
          "type": "uint256"
        }
      ],
      "name": "AdminTokenRecovery",
      "type": "event"
    },
    {
      "anonymous": false,
      "inputs": [
        {
          "indexed": false,
          "internalType": "enum Raffle.RaffleCategory",
          "name": "raffleCategory",
          "type": "uint8"
        },
        {
          "indexed": true,
          "internalType": "uint256",
          "name": "raffleId",
          "type": "uint256"
        },
        {
          "indexed": false,
          "internalType": "uint256",
          "name": "injectedAmount",
          "type": "uint256"
        }
      ],
      "name": "LotteryInjection",
      "type": "event"
    },
    {
      "anonymous": false,
      "inputs": [
        {
          "indexed": false,
          "internalType": "address",
          "name": "treasuryAddress",
          "type": "address"
        },
        {
          "indexed": false,
          "internalType": "address",
          "name": "injectorAddress",
          "type": "address"
        }
      ],
      "name": "NewTreasuryAndInjectorAddresses",
      "type": "event"
    },
    {
      "anonymous": false,
      "inputs": [
        {
          "indexed": false,
          "internalType": "uint256",
          "name": "txIndex",
          "type": "uint256"
        },
        {
          "indexed": false,
          "internalType": "uint256",
          "name": "timestamp",
          "type": "uint256"
        },
        {
          "indexed": false,
          "internalType": "enum Raffle.RaffleCategory",
          "name": "raffleCategory",
          "type": "uint8"
        },
        {
          "indexed": false,
          "internalType": "uint256",
          "name": "noOfTickets",
          "type": "uint256"
        }
      ],
      "name": "NewUserTransaction",
      "type": "event"
    },
    {
      "anonymous": false,
      "inputs": [
        {
          "indexed": true,
          "internalType": "address",
          "name": "previousOwner",
          "type": "address"
        },
        {
          "indexed": true,
          "internalType": "address",
          "name": "newOwner",
          "type": "address"
        }
      ],
      "name": "OwnershipTransferred",
      "type": "event"
    },
    {
      "anonymous": false,
      "inputs": [
        {
          "indexed": false,
          "internalType": "uint256",
          "name": "raffleID",
          "type": "uint256"
        },
        {
          "indexed": false,
          "internalType": "uint256",
          "name": "timeStamp",
          "type": "uint256"
        },
        {
          "indexed": false,
          "internalType": "enum Raffle.RaffleState",
          "name": "raffleState",
          "type": "uint8"
        }
      ],
      "name": "RaffleDeactivated",
      "type": "event"
    },
    {
      "anonymous": false,
      "inputs": [
        {
          "indexed": false,
          "internalType": "enum Raffle.RaffleCategory",
          "name": "category",
          "type": "uint8"
        },
        {
          "indexed": true,
          "internalType": "uint256",
          "name": "raffleId",
          "type": "uint256"
        },
        {
          "indexed": false,
          "internalType": "enum Raffle.RaffleState",
          "name": "raffleState",
          "type": "uint8"
        }
      ],
      "name": "RaffleEnded",
      "type": "event"
    },
    {
      "anonymous": false,
      "inputs": [
        {
          "indexed": true,
          "internalType": "uint256",
          "name": "raffleId",
          "type": "uint256"
        },
        {
          "indexed": false,
          "internalType": "uint256",
          "name": "endTime",
          "type": "uint256"
        },
        {
          "indexed": false,
          "internalType": "uint256",
          "name": "rebootEndTime",
          "type": "uint256"
        },
        {
          "indexed": false,
          "internalType": "enum Raffle.RaffleState",
          "name": "raffleState",
          "type": "uint8"
        }
      ],
      "name": "RaffleOpen",
      "type": "event"
    },
    {
      "anonymous": false,
      "inputs": [
        {
          "indexed": false,
          "internalType": "uint256",
          "name": "raffleID",
          "type": "uint256"
        },
        {
          "indexed": false,
          "internalType": "uint256",
          "name": "timeStamp",
          "type": "uint256"
        },
        {
          "indexed": false,
          "internalType": "enum Raffle.RaffleState",
          "name": "raffleState",
          "type": "uint8"
        }
      ],
      "name": "RaffleReactivated",
      "type": "event"
    },
    {
      "anonymous": false,
      "inputs": [
        {
          "indexed": false,
          "internalType": "enum Raffle.RaffleCategory",
          "name": "raffleCategory",
          "type": "uint8"
        },
        {
          "indexed": true,
          "internalType": "uint256",
          "name": "raffleId",
          "type": "uint256"
        },
        {
          "indexed": false,
          "internalType": "address",
          "name": "buyer",
          "type": "address"
        },
        {
          "indexed": false,
          "internalType": "uint32[]",
          "name": "tickets",
          "type": "uint32[]"
        }
      ],
      "name": "RolloverClaimed",
      "type": "event"
    },
    {
      "anonymous": false,
      "inputs": [
        {
          "indexed": false,
          "internalType": "enum Raffle.RaffleCategory",
          "name": "raffleCategory",
          "type": "uint8"
        },
        {
          "indexed": true,
          "internalType": "uint256",
          "name": "raffleId",
          "type": "uint256"
        },
        {
          "indexed": false,
          "internalType": "uint32[]",
          "name": "tickets",
          "type": "uint32[]"
        },
        {
          "indexed": false,
          "internalType": "uint256",
          "name": "rafflePool",
          "type": "uint256"
        },
        {
          "indexed": false,
          "internalType": "uint256[]",
          "name": "winnersPayout",
          "type": "uint256[]"
        }
      ],
      "name": "TicketsPurchased",
      "type": "event"
    },
    {
      "anonymous": false,
      "inputs": [
        {
          "indexed": false,
          "internalType": "enum Raffle.RaffleCategory",
          "name": "raffleCategory",
          "type": "uint8"
        },
        {
          "indexed": false,
          "internalType": "address[]",
          "name": "winners",
          "type": "address[]"
        },
        {
          "indexed": false,
          "internalType": "uint256",
          "name": "amount",
          "type": "uint256"
        },
        {
          "indexed": false,
          "internalType": "uint256",
          "name": "timestamp",
          "type": "uint256"
        }
      ],
      "name": "WinnersAwarded",
      "type": "event"
    },
    {
      "anonymous": false,
      "inputs": [
        {
          "indexed": false,
          "internalType": "uint256",
          "name": "raffleID",
          "type": "uint256"
        },
        {
          "indexed": false,
          "internalType": "uint256",
          "name": "amount",
          "type": "uint256"
        }
      ],
      "name": "WithdrawalComplete",
      "type": "event"
    },
    {
      "inputs": [],
      "name": "DexRouter",
      "outputs": [
        {
          "internalType": "string",
          "name": "Dex",
          "type": "string"
        },
        {
          "internalType": "contract IUniswapV2Router02",
          "name": "routerAddress",
          "type": "address"
        }
      ],
      "stateMutability": "view",
      "type": "function"
    },
    {
      "inputs": [
        {
          "internalType": "address",
          "name": "_injectorAddress",
          "type": "address"
        },
        {
          "internalType": "address",
          "name": "_treasuryAddress",
          "type": "address"
        }
      ],
      "name": "SetInjectorAndTreasuryAdresses",
      "outputs": [],
      "stateMutability": "nonpayable",
      "type": "function"
    },
    {
      "inputs": [
        {
          "internalType": "enum Raffle.RaffleCategory",
          "name": "_category",
          "type": "uint8"
        },
        {
          "internalType": "uint32[]",
          "name": "_tickets",
          "type": "uint32[]"
        }
      ],
      "name": "buyTicket",
      "outputs": [],
      "stateMutability": "nonpayable",
      "type": "function"
    },
    {
      "inputs": [],
      "name": "checkLinkBalance",
      "outputs": [
        {
          "internalType": "uint256",
          "name": "",
          "type": "uint256"
        }
      ],
      "stateMutability": "view",
      "type": "function"
    },
    {
      "inputs": [
        {
          "internalType": "bytes",
          "name": "",
          "type": "bytes"
        }
      ],
      "name": "checkUpkeep",
      "outputs": [
        {
          "internalType": "bool",
          "name": "upkeepNeeded",
          "type": "bool"
        },
        {
          "internalType": "bytes",
          "name": "performData",
          "type": "bytes"
        }
      ],
      "stateMutability": "view",
      "type": "function"
    },
    {
      "inputs": [
        {
          "internalType": "enum Raffle.RaffleCategory",
          "name": "_category",
          "type": "uint8"
        },
        {
          "internalType": "uint256",
          "name": "_ticketsToRollover",
          "type": "uint256"
        },
        {
          "internalType": "uint32[]",
          "name": "_tickets",
          "type": "uint32[]"
        }
      ],
      "name": "claimRollover",
      "outputs": [],
      "stateMutability": "nonpayable",
      "type": "function"
    },
    {
      "inputs": [],
      "name": "deactivateRaffle",
      "outputs": [],
      "stateMutability": "nonpayable",
      "type": "function"
    },
    {
      "inputs": [
        {
          "internalType": "enum Raffle.RaffleCategory",
          "name": "_category",
          "type": "uint8"
        }
      ],
      "name": "getCurrentRaffleState",
      "outputs": [
        {
          "internalType": "enum Raffle.RaffleState",
          "name": "raffleState",
          "type": "uint8"
        }
      ],
      "stateMutability": "view",
      "type": "function"
    },
    {
      "inputs": [],
      "name": "getRaffleEndTime",
      "outputs": [
        {
          "internalType": "uint256",
          "name": "",
          "type": "uint256"
        }
      ],
      "stateMutability": "view",
      "type": "function"
    },
    {
      "inputs": [
        {
          "internalType": "enum Raffle.RaffleCategory",
          "name": "_category",
          "type": "uint8"
        }
      ],
      "name": "getRafflePool",
      "outputs": [
        {
          "internalType": "uint256",
          "name": "",
          "type": "uint256"
        }
      ],
      "stateMutability": "view",
      "type": "function"
    },
    {
      "inputs": [],
      "name": "getRebootEndTime",
      "outputs": [
        {
          "internalType": "uint256",
          "name": "",
          "type": "uint256"
        }
      ],
      "stateMutability": "view",
      "type": "function"
    },
    {
      "inputs": [
        {
          "internalType": "address",
          "name": "_user",
          "type": "address"
        }
      ],
      "name": "getUserTransactionCount",
      "outputs": [
        {
          "internalType": "uint256",
          "name": "",
          "type": "uint256"
        }
      ],
      "stateMutability": "view",
      "type": "function"
    },
    {
      "inputs": [],
      "name": "getraffleID",
      "outputs": [
        {
          "internalType": "uint256",
          "name": "",
          "type": "uint256"
        }
      ],
      "stateMutability": "view",
      "type": "function"
    },
    {
      "inputs": [
        {
          "internalType": "address",
          "name": "_user",
          "type": "address"
        },
        {
          "internalType": "uint256",
          "name": "_txIndex",
          "type": "uint256"
        }
      ],
      "name": "getuserTransactionHistory",
      "outputs": [
        {
          "components": [
            {
              "internalType": "uint256",
              "name": "txID",
              "type": "uint256"
            },
            {
              "internalType": "uint256",
              "name": "time",
              "type": "uint256"
            },
            {
              "internalType": "enum Raffle.RaffleCategory",
              "name": "raffleCategory",
              "type": "uint8"
            },
            {
              "internalType": "uint256",
              "name": "noOfTickets",
              "type": "uint256"
            }
          ],
          "internalType": "struct Raffle.Transaction",
          "name": "userTransaction",
          "type": "tuple"
        }
      ],
      "stateMutability": "view",
      "type": "function"
    },
    {
      "inputs": [
        {
          "internalType": "enum Raffle.RaffleCategory",
          "name": "_category",
          "type": "uint8"
        },
        {
          "internalType": "uint256",
          "name": "_amount",
          "type": "uint256"
        }
      ],
      "name": "injectFunds",
      "outputs": [],
      "stateMutability": "nonpayable",
      "type": "function"
    },
    {
      "inputs": [],
      "name": "injectorAddress",
      "outputs": [
        {
          "internalType": "address",
          "name": "",
          "type": "address"
        }
      ],
      "stateMutability": "view",
      "type": "function"
    },
    {
      "inputs": [],
      "name": "maxNumberTicketsPerBuy",
      "outputs": [
        {
          "internalType": "uint256",
          "name": "",
          "type": "uint256"
        }
      ],
      "stateMutability": "view",
      "type": "function"
    },
    {
      "inputs": [],
      "name": "noOfWinners",
      "outputs": [
        {
          "internalType": "uint256",
          "name": "",
          "type": "uint256"
        }
      ],
      "stateMutability": "view",
      "type": "function"
    },
    {
      "inputs": [],
      "name": "owner",
      "outputs": [
        {
          "internalType": "address",
          "name": "",
          "type": "address"
        }
      ],
      "stateMutability": "view",
      "type": "function"
    },
    {
      "inputs": [
        {
          "internalType": "bytes",
          "name": "performData",
          "type": "bytes"
        }
      ],
      "name": "performUpkeep",
      "outputs": [],
      "stateMutability": "nonpayable",
      "type": "function"
    },
    {
      "inputs": [],
      "name": "raffleToken",
      "outputs": [
        {
          "internalType": "contract IERC20",
          "name": "",
          "type": "address"
        }
      ],
      "stateMutability": "view",
      "type": "function"
    },
    {
      "inputs": [
        {
          "internalType": "bytes32",
          "name": "requestId",
          "type": "bytes32"
        },
        {
          "internalType": "uint256",
          "name": "randomness",
          "type": "uint256"
        }
      ],
      "name": "rawFulfillRandomness",
      "outputs": [],
      "stateMutability": "nonpayable",
      "type": "function"
    },
    {
      "inputs": [],
      "name": "reactivateRaffle",
      "outputs": [],
      "stateMutability": "nonpayable",
      "type": "function"
    },
    {
      "inputs": [],
      "name": "rebootChecker",
      "outputs": [
        {
          "internalType": "uint256",
          "name": "",
          "type": "uint256"
        }
      ],
      "stateMutability": "view",
      "type": "function"
    },
    {
      "inputs": [
        {
          "internalType": "address",
          "name": "_tokenAddress",
          "type": "address"
        },
        {
          "internalType": "uint256",
          "name": "_tokenAmount",
          "type": "uint256"
        }
      ],
      "name": "recoverWrongTokens",
      "outputs": [],
      "stateMutability": "nonpayable",
      "type": "function"
    },
    {
      "inputs": [],
      "name": "renounceOwnership",
      "outputs": [],
      "stateMutability": "nonpayable",
      "type": "function"
    },
    {
      "inputs": [
        {
          "internalType": "address",
          "name": "newOwner",
          "type": "address"
        }
      ],
      "name": "transferOwnership",
      "outputs": [],
      "stateMutability": "nonpayable",
      "type": "function"
    },
    {
      "inputs": [],
      "name": "treasuryAddress",
      "outputs": [
        {
          "internalType": "address",
          "name": "",
          "type": "address"
        }
      ],
      "stateMutability": "view",
      "type": "function"
    },
    {
      "inputs": [
        {
          "internalType": "address",
          "name": "_newTokenAddress",
          "type": "address"
        }
      ],
      "name": "updateRaffleToken",
      "outputs": [],
      "stateMutability": "nonpayable",
      "type": "function"
    },
    {
      "inputs": [
        {
          "internalType": "string",
          "name": "_dexName",
          "type": "string"
        },
        {
          "internalType": "address",
          "name": "_routerAddress",
          "type": "address"
        }
      ],
      "name": "updateRouter",
      "outputs": [],
      "stateMutability": "nonpayable",
      "type": "function"
    },
    {
      "inputs": [
        {
          "internalType": "enum Raffle.RaffleCategory",
          "name": "_category",
          "type": "uint8"
        },
        {
          "internalType": "uint256",
          "name": "_raffleID",
          "type": "uint256"
        }
      ],
      "name": "viewRaffle",
      "outputs": [
        {
          "components": [
            {
              "internalType": "uint256",
              "name": "ID",
              "type": "uint256"
            },
            {
              "internalType": "uint256",
              "name": "noOfTicketsSold",
              "type": "uint256"
            },
            {
              "internalType": "uint256",
              "name": "noOfPlayers",
              "type": "uint256"
            },
            {
              "internalType": "uint256",
              "name": "amountInjected",
              "type": "uint256"
            },
            {
              "internalType": "uint256[]",
              "name": "winnersPayout",
              "type": "uint256[]"
            },
            {
              "internalType": "address[]",
              "name": "winners",
              "type": "address[]"
            },
            {
              "internalType": "uint256[]",
              "name": "winningTickets",
              "type": "uint256[]"
            },
            {
              "internalType": "uint256",
              "name": "raffleStartTime",
              "type": "uint256"
            },
            {
              "internalType": "uint256",
              "name": "raffleEndTime",
              "type": "uint256"
            }
          ],
          "internalType": "struct Raffle.RaffleStruct",
          "name": "raffle",
          "type": "tuple"
        }
      ],
      "stateMutability": "view",
      "type": "function"
    },
    {
      "inputs": [
        {
          "internalType": "enum Raffle.RaffleCategory",
          "name": "_category",
          "type": "uint8"
        }
      ],
      "name": "viewTicketPrices",
      "outputs": [
        {
          "internalType": "uint256",
          "name": "",
          "type": "uint256"
        }
      ],
      "stateMutability": "view",
      "type": "function"
    },
    {
      "inputs": [
        {
          "internalType": "enum Raffle.RaffleCategory",
          "name": "_category",
          "type": "uint8"
        },
        {
          "internalType": "address",
          "name": "_user",
          "type": "address"
        }
      ],
      "name": "viewUserRollovers",
      "outputs": [
        {
          "internalType": "uint256",
          "name": "ticketsToRollover",
          "type": "uint256"
        }
      ],
      "stateMutability": "view",
      "type": "function"
    },
    {
      "inputs": [
        {
          "internalType": "enum Raffle.RaffleCategory",
          "name": "_category",
          "type": "uint8"
        },
        {
          "internalType": "address",
          "name": "_user",
          "type": "address"
        },
        {
          "internalType": "uint256",
          "name": "_raffleID",
          "type": "uint256"
        }
      ],
      "name": "viewUserTickets",
      "outputs": [
        {
          "internalType": "uint32[]",
          "name": "",
          "type": "uint32[]"
        }
      ],
      "stateMutability": "view",
      "type": "function"
    },
    {
      "inputs": [
        {
          "internalType": "enum Raffle.RaffleCategory",
          "name": "_category",
          "type": "uint8"
        }
      ],
      "name": "withdrawFundsDueToDeactivation",
      "outputs": [],
      "stateMutability": "nonpayable",
      "type": "function"
    }
  ],
  "bytecode": "0x610100604052611c2060c05261070860e0526003600a556103e8600b553480156200002957600080fd5b50604051620064c2380380620064c28339810160408190526200004c9162000318565b600160009081556001600160601b031960608a811b821660a05289901b16608052620000753390565b600280546001600160a01b0319166001600160a01b038316908117909155604051919250906000907f8be0079c531659141344cd1fd0a4f28419497f9722a3daafe3b4186f6b6457e0908290a350600786905560088590556003600955600e80546001600160a01b0319166001600160a01b03861617905582516200010290600f906020860190620001e2565b50601080546001600160a01b0319166001600160a01b038416179055620001298162000145565b5050600d805460ff60a01b191690555062000566945050505050565b60146020527f4f26c3876aa9f4b92579780beea1161a61f87ebf1ec6ee865b299e447ecba99c81815560016000527fb6c61a840592cc84133e4b25bd509abf4659307c57b160799b38490a5aa48f2c620001a183600a6200043c565b8155600260005260146020527fa1930aa930426c54c34daad2b9ada7c5d0ef0c96078a3c5bb79f6fa6602c4a7a620001db8460646200043c565b9055505050565b828054620001f090620004a3565b90600052602060002090601f0160209004810192826200021457600085556200025f565b82601f106200022f57805160ff19168380011785556200025f565b828001600101855582156200025f579182015b828111156200025f57825182559160200191906001019062000242565b506200026d92915062000271565b5090565b5b808211156200026d576000815560010162000272565b60006200029f62000299846200040f565b620003f0565b905082815260208101848484011115620002b857600080fd5b620002c584828562000470565b509392505050565b8051620002da8162000545565b92915050565b8051620002da816200055f565b600082601f830112620002fe578081fd5b81516200031084826020860162000288565b949350505050565b600080600080600080600080610100898b03121562000335578384fd5b620003438a858b01620002cd565b97506020620003558b828c01620002cd565b9750506040620003688b828c01620002e0565b96505060606200037b8b828c01620002e0565b95505060806200038e8b828c01620002cd565b60a08b015190955090506001600160401b03811115620003ac578384fd5b620003ba8b828c01620002ed565b93505060c0620003cd8b828c01620002cd565b92505060e0620003e08b828c01620002e0565b9150509295985092959890939650565b6000620003fc60405190565b90506200040a8282620004d4565b919050565b60006001600160401b038211156200042b576200042b6200052f565b601f19601f83011660200192915050565b600081600019048311821515161562000459576200045962000503565b500290565b60006001600160a01b038216620002da565b60005b838110156200048d57818101518382015260200162000473565b838111156200049d576000848401525b50505050565b600281046001821680620004b857607f821691505b60208210811415620004ce57620004ce62000519565b50919050565b601f19601f83011681016001600160401b0381118282101715620004fc57620004fc6200052f565b6040525050565b634e487b7160e01b600052601160045260246000fd5b634e487b7160e01b600052602260045260246000fd5b634e487b7160e01b600052604160045260246000fd5b62000550816200045e565b81146200055c57600080fd5b50565b8062000550565b60805160601c60a05160601c60c05160e051615f07620005bb600039600061397501526000613945015260008181611ddf0152613e31015260008181611e840152818161348a0152613df50152615f076000f3fe608060405234801561001057600080fd5b50600436106102415760003560e01c80637cf0c7ee11610145578063b6e81a4d116100bd578063d8f338401161008c578063e2fae27611610071578063e2fae27614610509578063f0e21cd91461051c578063f2fde38b1461052557600080fd5b8063d8f33840146104b3578063defc98f8146104e957600080fd5b8063b6e81a4d14610465578063c1aba43f14610478578063c5f956af14610480578063d1f477a8146104a057600080fd5b80639c38465311610114578063a24bf4ff116100f9578063a24bf4ff14610434578063a7390c8e1461043c578063ad99854b1461045c57600080fd5b80639c3846531461040c5780639eb386fd1461042c57600080fd5b80637cf0c7ee146103ac57806382575cfe146103bf5780638da5cb5b146103d257806394985ddd146103f957600080fd5b8063518da0a4116101d85780636c6f693d116101a7578063715018a61161018c578063715018a61461036e578063736ce0d4146103765780637cbd22fb1461038c57600080fd5b80636c6f693d1461033a5780636e04ff0d1461034d57600080fd5b8063518da0a4146102e95780635c0b95d4146102f257806364b4fc8e146102fa57806367bb60a01461032757600080fd5b80632e23be9d116102145780632e23be9d146102905780633f138d4b146102a357806344ab1d5c146102b65780634585e33b146102d657600080fd5b806313b42fa3146102465780631de50d4914610260578063269ce1bb14610275578063280550961461027d575b600080fd5b6006545b6040516102579190615b27565b60405180910390f35b61027361026e366004614c4a565b610538565b005b610273610924565b61027361028b366004614bc4565b610c32565b61024a61029e366004614be1565b611084565b6102736102b1366004614ae4565b61111e565b6102c96102c4366004614bff565b611222565b6040516102579190615745565b6102736102e4366004614b82565b61132d565b61024a600a5481565b60045461024a565b600e5461031a9073ffffffffffffffffffffffffffffffffffffffff1681565b60405161025791906157b9565b610273610335366004614c8f565b61139a565b610273610348366004614aac565b6115a1565b61036061035b366004614b82565b611713565b604051610257929190615756565b610273611a22565b61037e611ae2565b6040516102579291906158f1565b61039f61039a366004614ae4565b611b90565b6040516102579190615b19565b6102736103ba366004614d33565b611c71565b61024a6103cd366004614bc4565b611d6b565b60025473ffffffffffffffffffffffffffffffffffffffff165b60405161025791906156a3565b610273610407366004614b64565b611dc7565b600c546103ec9073ffffffffffffffffffffffffffffffffffffffff1681565b60055461024a565b61024a611e44565b61044f61044a366004614c8f565b611f0e565b6040516102579190615b08565b61024a600b5481565b61024a610473366004614bc4565b61212e565b61027361218f565b600d546103ec9073ffffffffffffffffffffffffffffffffffffffff1681565b6102736104ae366004614a8f565b612441565b61024a6104c1366004614a8f565b73ffffffffffffffffffffffffffffffffffffffff1660009081526017602052604090205490565b6104fc6104f7366004614bc4565b612851565b6040516102579190615897565b610273610517366004614cad565b6128b5565b61024a60095481565b610273610533366004614a8f565b612c10565b333b1561057a576040517f08c379a000000000000000000000000000000000000000000000000000000000815260040161057190615941565b60405180910390fd5b3332146105b3576040517f08c379a0000000000000000000000000000000000000000000000000000000008152600401610571906159b1565b600260005414156105f0576040517f08c379a000000000000000000000000000000000000000000000000000000000815260040161057190615ad8565b6002600055805161062d576040517f08c379a0000000000000000000000000000000000000000000000000000000008152600401610571906159a1565b600b548151111561066a576040517f08c379a000000000000000000000000000000000000000000000000000000000815260040161057190615af8565b60026014600084600281111561069057634e487b7160e01b600052602160045260246000fd5b60028111156106af57634e487b7160e01b600052602160045260246000fd5b815260208101919091526040016000206002015460ff1660048111156106e557634e487b7160e01b600052602160045260246000fd5b1461071c576040517f08c379a000000000000000000000000000000000000000000000000000000000815260040161057190615ab8565b60006014600084600281111561074257634e487b7160e01b600052602160045260246000fd5b600281111561076157634e487b7160e01b600052602160045260246000fd5b8152602001908152602001600020905060006013600085600281111561079757634e487b7160e01b600052602160045260246000fd5b60028111156107b657634e487b7160e01b600052602160045260246000fd5b81526020808201929092526040908101600090812060065482529092528120845184549193506107e591615c36565b600e5490915061080d9073ffffffffffffffffffffffffffffffffffffffff16333084612d3c565b3360009081526012602052604081209086600281111561083d57634e487b7160e01b600052602160045260246000fd5b600281111561085c57634e487b7160e01b600052602160045260246000fd5b81526020808201929092526040908101600090812060065482529092529020546108985760028201805490600061089283615da0565b91905055505b808360010160008282546108ac9190615c0a565b925050819055506108be858551612ddf565b6108c88585612f2c565b6108d185613267565b6006547fa7bb92e7914605223bcedd08fc40c8d4db3f6f774788077acbaf16c63342ef2d86868660010154866004016040516109109493929190615823565b60405180910390a250506001600055505050565b60025473ffffffffffffffffffffffffffffffffffffffff163314610975576040517f08c379a0000000000000000000000000000000000000000000000000000000008152600401610571906159d1565b600080805260146020527f4f26c3876aa9f4b92579780beea1161a61f87ebf1ec6ee865b299e447ecba99e547f4f26c3876aa9f4b92579780beea1161a61f87ebf1ec6ee865b299e447ecba99c9060049060ff16818111156109e757634e487b7160e01b600052602160045260246000fd5b14610a1e576040517f08c379a000000000000000000000000000000000000000000000000000000000815260040161057190615a98565b6001600081905260146020527fb6c61a840592cc84133e4b25bd509abf4659307c57b160799b38490a5aa48f2e547fb6c61a840592cc84133e4b25bd509abf4659307c57b160799b38490a5aa48f2c9060049060ff1681811115610a9257634e487b7160e01b600052602160045260246000fd5b14610ac9576040517f08c379a000000000000000000000000000000000000000000000000000000000815260040161057190615a98565b6002600081905260146020527fa1930aa930426c54c34daad2b9ada7c5d0ef0c96078a3c5bb79f6fa6602c4a7c547fa1930aa930426c54c34daad2b9ada7c5d0ef0c96078a3c5bb79f6fa6602c4a7a9060049060ff1681811115610b3d57634e487b7160e01b600052602160045260246000fd5b14610b74576040517f08c379a000000000000000000000000000000000000000000000000000000000815260040161057190615a98565b60408051606081018252600080825260016020830152600292820192909252905b6003811015610be5576000828260038110610bc057634e487b7160e01b600052603260045260246000fd5b60200201519050610bd28160016133b1565b5080610bdd81615da0565b915050610b95565b5060036009556006546040517f3e3fbe6edaa33edaf5f25f93631b45be609c9603eebf7d4d0976f0dec5dfdc0491610c21914290600190615b5d565b60405180910390a150505050505050565b333b15610c6b576040517f08c379a000000000000000000000000000000000000000000000000000000000815260040161057190615941565b333214610ca4576040517f08c379a0000000000000000000000000000000000000000000000000000000008152600401610571906159b1565b80600060146000836002811115610ccb57634e487b7160e01b600052602160045260246000fd5b6002811115610cea57634e487b7160e01b600052602160045260246000fd5b8152602081019190915260400160002090506004600282015460ff166004811115610d2557634e487b7160e01b600052602160045260246000fd5b14610d5c576040517f08c379a000000000000000000000000000000000000000000000000000000000815260040161057190615a98565b60026000541415610d99576040517f08c379a000000000000000000000000000000000000000000000000000000000815260040161057190615ad8565b600260008181556016918590811115610dc257634e487b7160e01b600052602160045260246000fd5b6002811115610de157634e487b7160e01b600052602160045260246000fd5b815260208082019290925260409081016000908120338252909252902054610e35576040517f08c379a000000000000000000000000000000000000000000000000000000000815260040161057190615911565b600060146000856002811115610e5b57634e487b7160e01b600052602160045260246000fd5b6002811115610e7a57634e487b7160e01b600052602160045260246000fd5b81526020019081526020016000209050600060166000866002811115610eb057634e487b7160e01b600052602160045260246000fd5b6002811115610ecf57634e487b7160e01b600052602160045260246000fd5b8152602080820192909252604090810160009081203382529092528120548354909250610efc9083615c36565b600e546040517fa9059cbb00000000000000000000000000000000000000000000000000000000815291925073ffffffffffffffffffffffffffffffffffffffff169063a9059cbb90610f5590339085906004016156f4565b602060405180830381600087803b158015610f6f57600080fd5b505af1158015610f83573d6000803e3d6000fd5b505050506040513d601f19601f82011682018060405250810190610fa79190614b47565b50600060166000886002811115610fce57634e487b7160e01b600052602160045260246000fd5b6002811115610fed57634e487b7160e01b600052602160045260246000fd5b815260200190815260200160002060003373ffffffffffffffffffffffffffffffffffffffff1673ffffffffffffffffffffffffffffffffffffffff168152602001908152602001600020819055507fac4b7f84df43766362cc5996cfd81888ae4ee76e3e429f0d2f3660404aea18296006548260405161106f929190615776565b60405180910390a15050600160005550505050565b6000601660008460028111156110aa57634e487b7160e01b600052602160045260246000fd5b60028111156110c957634e487b7160e01b600052602160045260246000fd5b815260200190815260200160002060008373ffffffffffffffffffffffffffffffffffffffff1673ffffffffffffffffffffffffffffffffffffffff1681526020019081526020016000205490505b92915050565b60025473ffffffffffffffffffffffffffffffffffffffff16331461116f576040517f08c379a0000000000000000000000000000000000000000000000000000000008152600401610571906159d1565b600e5473ffffffffffffffffffffffffffffffffffffffff838116911614156111c4576040517f08c379a0000000000000000000000000000000000000000000000000000000008152600401610571906159f1565b6111e573ffffffffffffffffffffffffffffffffffffffff8316338361345f565b7f74545154aac348a3eac92596bd1971957ca94795f4e954ec5f613b55fab7812982826040516112169291906156f4565b60405180910390a15050565b73ffffffffffffffffffffffffffffffffffffffff8216600090815260126020526040812060609185600281111561126a57634e487b7160e01b600052602160045260246000fd5b600281111561128957634e487b7160e01b600052602160045260246000fd5b8152602001908152602001600020600083815260200190815260200160002080548060200260200160405190810160405280929190818152602001828054801561131e57602002820191906000526020600020906000905b82829054906101000a900463ffffffff1663ffffffff16815260200190600401906020826003010492830192600103820291508084116112e15790505b505050505090505b9392505050565b60008061133c83850185614d05565b9150915081600114156113585761135281613483565b50611394565b816002141561136f5761136a81613617565b611394565b81600314156113805761136a6138bd565b816004141561139457611394816000613ade565b50505050565b60025473ffffffffffffffffffffffffffffffffffffffff163314806113d75750600c5473ffffffffffffffffffffffffffffffffffffffff1633145b61140d576040517f08c379a000000000000000000000000000000000000000000000000000000000815260040161057190615a88565b60026014600084600281111561143357634e487b7160e01b600052602160045260246000fd5b600281111561145257634e487b7160e01b600052602160045260246000fd5b815260208101919091526040016000206002015460ff16600481111561148857634e487b7160e01b600052602160045260246000fd5b146114bf576040517f08c379a000000000000000000000000000000000000000000000000000000000815260040161057190615ab8565b600e546114e49073ffffffffffffffffffffffffffffffffffffffff16333084612d3c565b806013600084600281111561150957634e487b7160e01b600052602160045260246000fd5b600281111561152857634e487b7160e01b600052602160045260246000fd5b815260200190815260200160002060006006548152602001908152602001600020600301600082825461155b9190615c0a565b90915550506006546040517fa1c157de391a92665d22914b5834a188e801f4fbc466639ddc0063abff1df3bb906115959085908590615889565b60405180910390a25050565b60025473ffffffffffffffffffffffffffffffffffffffff1633146115f2576040517f08c379a0000000000000000000000000000000000000000000000000000000008152600401610571906159d1565b73ffffffffffffffffffffffffffffffffffffffff811661163f576040517f08c379a000000000000000000000000000000000000000000000000000000000815260040161057190615981565b73ffffffffffffffffffffffffffffffffffffffff821661168c576040517f08c379a000000000000000000000000000000000000000000000000000000000815260040161057190615981565b600d805473ffffffffffffffffffffffffffffffffffffffff8084167fffffffffffffffffffffffff000000000000000000000000000000000000000092831617909255600c8054928516929091169190911790556040517fa6f7e8c500ff9602f43c07429562ca2a17f22d62c172a4fbb6aeb54bdc5e5c649061121690839085906156b1565b60006060600060405180606001604052806000600281111561174557634e487b7160e01b600052602160045260246000fd5b600281111561176457634e487b7160e01b600052602160045260246000fd5b81526020016001815260200160028152509050600060095460031415611788575060015b60005b6003811015611a185760008382600381106117b657634e487b7160e01b600052603260045260246000fd5b602002015190506000601360008360028111156117e357634e487b7160e01b600052602160045260246000fd5b600281111561180257634e487b7160e01b600052602160045260246000fd5b815260200190815260200160002060006006548152602001908152602001600020905060006014600084600281111561184b57634e487b7160e01b600052602160045260246000fd5b600281111561186a57634e487b7160e01b600052602160045260246000fd5b8152602081019190915260400160002090506001600282015460ff1660048111156118a557634e487b7160e01b600052602160045260246000fd5b1480156118b0575084155b156118bd57505050611a06565b600454421180156118f3575060028082015460ff1660048111156118f157634e487b7160e01b600052602160045260246000fd5b145b1561195d57600a8260010154108061190f575060058260020154105b15611945576001975060048360405160200161192c9291906158c5565b6040516020818303038152906040529650505050611a18565b6001975060018360405160200161192c9291906158c5565b6003600282015460ff16600481111561198657634e487b7160e01b600052602160045260246000fd5b14156119a4576001975060028360405160200161192c9291906158c5565b6004600282015460ff1660048111156119cd57634e487b7160e01b600052602160045260246000fd5b141580156119dc575060055442115b80156119e55750845b15611a02576001975060038360405160200161192c9291906158c5565b5050505b80611a1081615da0565b91505061178b565b5050509250929050565b60025473ffffffffffffffffffffffffffffffffffffffff163314611a73576040517f08c379a0000000000000000000000000000000000000000000000000000000008152600401610571906159d1565b60025460405160009173ffffffffffffffffffffffffffffffffffffffff16907f8be0079c531659141344cd1fd0a4f28419497f9722a3daafe3b4186f6b6457e0908390a3600280547fffffffffffffffffffffffff0000000000000000000000000000000000000000169055565b600f80548190611af190615d28565b80601f0160208091040260200160405190810160405280929190818152602001828054611b1d90615d28565b8015611b6a5780601f10611b3f57610100808354040283529160200191611b6a565b820191906000526020600020905b815481529060010190602001808311611b4d57829003601f168201915b5050506001909301549192505073ffffffffffffffffffffffffffffffffffffffff1682565b611b98614796565b73ffffffffffffffffffffffffffffffffffffffff83166000908152601760205260409020805483908110611bdd57634e487b7160e01b600052603260045260246000fd5b906000526020600020906004020160405180608001604052908160008201548152602001600182015481526020016002820160009054906101000a900460ff166002811115611c3c57634e487b7160e01b600052602160045260246000fd5b6002811115611c5b57634e487b7160e01b600052602160045260246000fd5b8152602001600382015481525050905092915050565b60025473ffffffffffffffffffffffffffffffffffffffff163314611cc2576040517f08c379a0000000000000000000000000000000000000000000000000000000008152600401610571906159d1565b73ffffffffffffffffffffffffffffffffffffffff8116611d0f576040517f08c379a000000000000000000000000000000000000000000000000000000000815260040161057190615981565b8151611d2290600f9060208501906147dd565b50601080547fffffffffffffffffffffffff00000000000000000000000000000000000000001673ffffffffffffffffffffffffffffffffffffffff9290921691909117905550565b600060146000836002811115611d9157634e487b7160e01b600052602160045260246000fd5b6002811115611db057634e487b7160e01b600052602160045260246000fd5b815260208101919091526040016000205492915050565b3373ffffffffffffffffffffffffffffffffffffffff7f00000000000000000000000000000000000000000000000000000000000000001614611e36576040517f08c379a0000000000000000000000000000000000000000000000000000000008152600401610571906159e1565b611e408282613d12565b5050565b6040517f70a0823100000000000000000000000000000000000000000000000000000000815260009073ffffffffffffffffffffffffffffffffffffffff7f000000000000000000000000000000000000000000000000000000000000000016906370a0823190611eb99030906004016156a3565b60206040518083038186803b158015611ed157600080fd5b505afa158015611ee5573d6000803e3d6000fd5b505050506040513d601f19601f82011682018060405250810190611f099190614d7a565b905090565b611f5d6040518061012001604052806000815260200160008152602001600081526020016000815260200160608152602001606081526020016060815260200160008152602001600081525090565b60136000846002811115611f8157634e487b7160e01b600052602160045260246000fd5b6002811115611fa057634e487b7160e01b600052602160045260246000fd5b8152602001908152602001600020600083815260200190815260200160002060405180610120016040529081600082015481526020016001820154815260200160028201548152602001600382015481526020016004820180548060200260200160405190810160405280929190818152602001828054801561204257602002820191906000526020600020905b81548152602001906001019080831161202e575b50505050508152602001600582018054806020026020016040519081016040528092919081815260200182805480156120b157602002820191906000526020600020905b815473ffffffffffffffffffffffffffffffffffffffff168152600190910190602001808311612086575b505050505081526020016006820180548060200260200160405190810160405280929190818152602001828054801561210957602002820191906000526020600020905b8154815260200190600101908083116120f5575b5050505050815260200160078201548152602001600882015481525050905092915050565b6000806014600084600281111561215557634e487b7160e01b600052602160045260246000fd5b600281111561217457634e487b7160e01b600052602160045260246000fd5b81526020810191909152604001600020600101549392505050565b60025473ffffffffffffffffffffffffffffffffffffffff1633146121e0576040517f08c379a0000000000000000000000000000000000000000000000000000000008152600401610571906159d1565b60065460009081527f8fa6efc3be94b5b348b21fea823fe8d100408cee9b7f90524494500445d8ff6c602052604081206001810154600a1180612227575060058160020154105b61225d576040517f08c379a000000000000000000000000000000000000000000000000000000000815260040161057190615971565b60065460009081527f4155c2f711f2cdd34f8262ab8fb9b7020a700fe7b6948222152f7670d1fdf34d60205260409020600181810154909190600a11806122a8575060058160020154105b6122de576040517f08c379a000000000000000000000000000000000000000000000000000000000815260040161057190615971565b60065460009081527f0b9d2c0c271bb30544eb78c59bdaebdae2728e5f65814c07768a0abe90ed192360205260409020600181015460029190600a1180612329575060058160020154105b61235f576040517f08c379a000000000000000000000000000000000000000000000000000000000815260040161057190615971565b60408051606081018252600080825260016020830152600292820192909252905b60038110156123f9576123b88282600381106123ac57634e487b7160e01b600052603260045260246000fd5b60200201516001613ade565b6123e78282600381106123db57634e487b7160e01b600052603260045260246000fd5b602002015160046133b1565b806123f181615da0565b915050612380565b506000600981905560048181556005919091556006546040517f38960c0800e981febc869f33d307d21683c7a1f85845bfe665071f160292c08092610c219291429190615b5d565b60025473ffffffffffffffffffffffffffffffffffffffff163314612492576040517f08c379a0000000000000000000000000000000000000000000000000000000008152600401610571906159d1565b600080805260146020527f4f26c3876aa9f4b92579780beea1161a61f87ebf1ec6ee865b299e447ecba99e547f4f26c3876aa9f4b92579780beea1161a61f87ebf1ec6ee865b299e447ecba99c9060049060ff168181111561250457634e487b7160e01b600052602160045260246000fd5b1461253b576040517f08c379a000000000000000000000000000000000000000000000000000000000815260040161057190615a98565b6001600081905260146020527fb6c61a840592cc84133e4b25bd509abf4659307c57b160799b38490a5aa48f2e547fb6c61a840592cc84133e4b25bd509abf4659307c57b160799b38490a5aa48f2c9060049060ff16818111156125af57634e487b7160e01b600052602160045260246000fd5b146125e6576040517f08c379a000000000000000000000000000000000000000000000000000000000815260040161057190615a98565b6002600081905260146020527fa1930aa930426c54c34daad2b9ada7c5d0ef0c96078a3c5bb79f6fa6602c4a7c547fa1930aa930426c54c34daad2b9ada7c5d0ef0c96078a3c5bb79f6fa6602c4a7a9060049060ff168181111561265a57634e487b7160e01b600052602160045260246000fd5b14612691576040517f08c379a000000000000000000000000000000000000000000000000000000000815260040161057190615a98565b600d5474010000000000000000000000000000000000000000900460ff16156126e6576040517f08c379a0000000000000000000000000000000000000000000000000000000008152600401610571906159c1565b600e546040517f70a0823100000000000000000000000000000000000000000000000000000000815273ffffffffffffffffffffffffffffffffffffffff909116906370a082319061273c9030906004016156a3565b60206040518083038186803b15801561275457600080fd5b505afa158015612768573d6000803e3d6000fd5b505050506040513d601f19601f8201168201806040525081019061278c9190614d7a565b156127c3576040517f08c379a000000000000000000000000000000000000000000000000000000000815260040161057190615a01565b5050600e805473ffffffffffffffffffffffffffffffffffffffff9096167fffffffffffffffffffffffff0000000000000000000000000000000000000000909616959095179094555050600d80547fffffffffffffffffffffff00ffffffffffffffffffffffffffffffffffffffff16740100000000000000000000000000000000000000001790555050565b6000806014600084600281111561287857634e487b7160e01b600052602160045260246000fd5b600281111561289757634e487b7160e01b600052602160045260246000fd5b815260208101919091526040016000206002015460ff169392505050565b333b156128ee576040517f08c379a000000000000000000000000000000000000000000000000000000000815260040161057190615941565b333214612927576040517f08c379a0000000000000000000000000000000000000000000000000000000008152600401610571906159b1565b826016600082600281111561294c57634e487b7160e01b600052602160045260246000fd5b600281111561296b57634e487b7160e01b600052602160045260246000fd5b8152602080820192909252604090810160009081203382529092529020546129bf576040517f08c379a000000000000000000000000000000000000000000000000000000000815260040161057190615931565b600260005414156129fc576040517f08c379a000000000000000000000000000000000000000000000000000000000815260040161057190615ad8565b600260008181556016918690811115612a2557634e487b7160e01b600052602160045260246000fd5b6002811115612a4457634e487b7160e01b600052602160045260246000fd5b8152602080820192909252604090810160009081203382529092529020548314612a9a576040517f08c379a000000000000000000000000000000000000000000000000000000000815260040161057190615ae8565b600260146000866002811115612ac057634e487b7160e01b600052602160045260246000fd5b6002811115612adf57634e487b7160e01b600052602160045260246000fd5b815260208101919091526040016000206002015460ff166004811115612b1557634e487b7160e01b600052602160045260246000fd5b14612b4c576040517f08c379a000000000000000000000000000000000000000000000000000000000815260040161057190615ab8565b612b568483612f2c565b612b61848351612ddf565b600060166000866002811115612b8757634e487b7160e01b600052602160045260246000fd5b6002811115612ba657634e487b7160e01b600052602160045260246000fd5b8152602080820192909252604090810160009081203380835293528190209290925560065491517f23378f2b72124c4145c302d168bd5656036b4aefadeecd763ae7b46b02ae34fc91612bfd9188919087906157c7565b60405180910390a2505060016000555050565b60025473ffffffffffffffffffffffffffffffffffffffff163314612c61576040517f08c379a0000000000000000000000000000000000000000000000000000000008152600401610571906159d1565b73ffffffffffffffffffffffffffffffffffffffff8116612cae576040517f08c379a000000000000000000000000000000000000000000000000000000000815260040161057190615921565b60025460405173ffffffffffffffffffffffffffffffffffffffff8084169216907f8be0079c531659141344cd1fd0a4f28419497f9722a3daafe3b4186f6b6457e090600090a3600280547fffffffffffffffffffffffff00000000000000000000000000000000000000001673ffffffffffffffffffffffffffffffffffffffff92909216919091179055565b611394846323b872dd60e01b858585604051602401612d5d939291906156cc565b604080517fffffffffffffffffffffffffffffffffffffffffffffffffffffffffffffffe08184030181529190526020810180517bffffffffffffffffffffffffffffffffffffffffffffffffffffffff167fffffffff0000000000000000000000000000000000000000000000000000000090931692909217909152613d3b565b33600090815260176020526040902054612df7614796565b81815242602082015260408101846002811115612e2457634e487b7160e01b600052602160045260246000fd5b90816002811115612e4557634e487b7160e01b600052602160045260246000fd5b9052506060810183905233600090815260176020908152604080832080546001818101835591855293839020855160049095020193845591840151838301558301516002808401805486959491927fffffffffffffffffffffffffffffffffffffffffffffffffffffffffffffff0090911691908490811115612ed857634e487b7160e01b600052602160045260246000fd5b02179055506060820151816003015550507f60850aec46dea3854368ebe9087866f660da4b915e21945cfbc2e673935ab4d282428686604051612f1e9493929190615b35565b60405180910390a150505050565b600060136000846002811115612f5257634e487b7160e01b600052602160045260246000fd5b6002811115612f7157634e487b7160e01b600052602160045260246000fd5b815260200190815260200160002060006006548152602001908152602001600020905060005b82518110156132475760186000856002811115612fc457634e487b7160e01b600052602160045260246000fd5b6002811115612fe357634e487b7160e01b600052602160045260246000fd5b8152602001908152602001600020600081548092919061300290615da0565b9190505550600083828151811061302957634e487b7160e01b600052603260045260246000fd5b60200260200101519050601260003373ffffffffffffffffffffffffffffffffffffffff1673ffffffffffffffffffffffffffffffffffffffff168152602001908152602001600020600086600281111561309457634e487b7160e01b600052602160045260246000fd5b60028111156130b357634e487b7160e01b600052602160045260246000fd5b8152602080820192909252604090810160009081206006548252835281812080546001810182559082528382206008820401805463ffffffff80881660046007909516949094026101000a8481029102199091161790558251808401909352825233928201929092529060119087600281111561314057634e487b7160e01b600052602160045260246000fd5b600281111561315f57634e487b7160e01b600052602160045260246000fd5b815260200190815260200160002060006018600089600281111561319357634e487b7160e01b600052602160045260246000fd5b60028111156131b257634e487b7160e01b600052602160045260246000fd5b815260208082019290925260409081016000908120548452838301949094529190910190912082518154939092015173ffffffffffffffffffffffffffffffffffffffff16640100000000027fffffffffffffffff00000000000000000000000000000000000000000000000090931663ffffffff90921691909117919091179055508061323f81615da0565b915050612f97565b50815181600101600082825461325d9190615c0a565b9091555050505050565b60006013600083600281111561328d57634e487b7160e01b600052602160045260246000fd5b60028111156132ac57634e487b7160e01b600052602160045260246000fd5b81526020019081526020016000206000600654815260200190815260200160002090506000601460008460028111156132f557634e487b7160e01b600052602160045260246000fd5b600281111561331457634e487b7160e01b600052602160045260246000fd5b8152602001908152602001600020600101549050600060648260196133399190615c36565b6133439190615c22565b90506000606461335484600f615c36565b61335e9190615c22565b90506000606461336f85600a615c36565b6133799190615c22565b9050604051806060016040528084815260200183815260200182815250856004019060036133a8929190614861565b50505050505050565b6000601460008460028111156133d757634e487b7160e01b600052602160045260246000fd5b60028111156133f657634e487b7160e01b600052602160045260246000fd5b8152602081019190915260400160002060028101805491925083917fffffffffffffffffffffffffffffffffffffffffffffffffffffffffffffff0016600183600481111561345557634e487b7160e01b600052602160045260246000fd5b0217905550505050565b61347e8363a9059cbb60e01b8484604051602401612d5d9291906156f4565b505050565b60006008547f000000000000000000000000000000000000000000000000000000000000000073ffffffffffffffffffffffffffffffffffffffff166370a08231306040518263ffffffff1660e01b81526004016134e191906156a3565b60206040518083038186803b1580156134f957600080fd5b505afa15801561350d573d6000803e3d6000fd5b505050506040513d601f19601f820116820180604052508101906135319190614d7a565b1015613569576040517f08c379a000000000000000000000000000000000000000000000000000000000815260040161057190615951565b613577600754600854613df1565b6000818152601560205260409020805491925083917fffffffffffffffffffffffffffffffffffffffffffffffffffffffffffffff001660018360028111156135d057634e487b7160e01b600052602160045260246000fd5b02179055506006547f79aa71bc7ac44ef46960b6e440cf08b63d9c1db4d3af7374da8c13371d369b1083600360405161360a92919061586e565b60405180910390a2919050565b60006013600083600281111561363d57634e487b7160e01b600052602160045260246000fd5b600281111561365c57634e487b7160e01b600052602160045260246000fd5b81526020019081526020016000206000600654815260200190815260200160002090506000601460008460028111156136a557634e487b7160e01b600052602160045260246000fd5b60028111156136c457634e487b7160e01b600052602160045260246000fd5b81526020019081526020016000209050600080600090505b600a548110156138155761378184600501828154811061370c57634e487b7160e01b600052603260045260246000fd5b60009182526020909120015460048601805473ffffffffffffffffffffffffffffffffffffffff909216918490811061375557634e487b7160e01b600052603260045260246000fd5b600091825260209091200154600e5473ffffffffffffffffffffffffffffffffffffffff16919061345f565b8360040181815481106137a457634e487b7160e01b600052603260045260246000fd5b90600052602060002001548360010160008282546137c29190615c73565b9091555050600484018054829081106137eb57634e487b7160e01b600052603260045260246000fd5b9060005260206000200154826138019190615c0a565b91508061380d81615da0565b9150506136dc565b50600d5460018301546138659173ffffffffffffffffffffffffffffffffffffffff169061384590600290615c22565b600e5473ffffffffffffffffffffffffffffffffffffffff16919061345f565b6138708460016133b1565b6009805490600061388083615da0565b91905055507fef99a204a94c30b225058df07e102a2bb1ee4c08995f4a39eccf82e79e4731f984846005018342604051612f1e94939291906157f4565b6009546003146138f9576040517f08c379a000000000000000000000000000000000000000000000000000000000815260040161057190615991565b6006805490600061390983615da0565b9091555050600d5474010000000000000000000000000000000000000000900460ff161561393957613939613f43565b42600381905561396a907f000000000000000000000000000000000000000000000000000000000000000090615c0a565b600481905561399a907f000000000000000000000000000000000000000000000000000000000000000090615c0a565b60055560408051606081018252600080825260016020830152600292820192909252905b6003811015613a915760008282600381106139e957634e487b7160e01b600052603260045260246000fd5b60200201519050600060136000836002811115613a1657634e487b7160e01b600052602160045260246000fd5b6002811115613a3557634e487b7160e01b600052602160045260246000fd5b815260208082019290925260409081016000908120600654808352935220908155600354600782015560045460088201559050613a738260026133b1565b613a7c82613267565b50508080613a8990615da0565b9150506139be565b5060006009556006546004546005546040517fb15bf0ec96989b8686c290ff167b6855edaa07d0e6b8458f665125e64819068492613ad3929091600290615b5d565b60405180910390a250565b600060136000846002811115613b0457634e487b7160e01b600052602160045260246000fd5b6002811115613b2357634e487b7160e01b600052602160045260246000fd5b815260200190815260200160002060006006548152602001908152602001600020905081613b6c57613b568360016133b1565b60098054906000613b6683615da0565b91905055505b6000816001015460186000866002811115613b9757634e487b7160e01b600052602160045260246000fd5b6002811115613bb657634e487b7160e01b600052602160045260246000fd5b815260200190815260200160002054613bcf9190615c73565b905060015b82600101548111613d0b576000613beb8284615c0a565b9050600060116000886002811115613c1357634e487b7160e01b600052602160045260246000fd5b6002811115613c3257634e487b7160e01b600052602160045260246000fd5b815260208082019290925260409081016000908120858252909252812054640100000000900473ffffffffffffffffffffffffffffffffffffffff169150601690886002811115613c9357634e487b7160e01b600052602160045260246000fd5b6002811115613cb257634e487b7160e01b600052602160045260246000fd5b81526020808201929092526040908101600090812073ffffffffffffffffffffffffffffffffffffffff851682529092528120805491613cf183615da0565b919050555050508080613d0390615da0565b915050613bd4565b5050505050565b60008281526015602052604081205460ff1690613d2f82846140fd565b90506113948282614257565b6000613d9d826040518060400160405280602081526020017f5361666545524332303a206c6f772d6c6576656c2063616c6c206661696c65648152508573ffffffffffffffffffffffffffffffffffffffff166145169092919063ffffffff16565b80519091501561347e5780806020019051810190613dbb9190614b47565b61347e576040517f08c379a000000000000000000000000000000000000000000000000000000000815260040161057190615ac8565b60007f000000000000000000000000000000000000000000000000000000000000000073ffffffffffffffffffffffffffffffffffffffff16634000aea07f000000000000000000000000000000000000000000000000000000000000000084866000604051602001613e65929190615776565b6040516020818303038152906040526040518463ffffffff1660e01b8152600401613e929392919061570f565b602060405180830381600087803b158015613eac57600080fd5b505af1158015613ec0573d6000803e3d6000fd5b505050506040513d601f19601f82011682018060405250810190613ee49190614b47565b50600083815260016020526040812054613f0390859083903090614525565b600085815260016020819052604090912054919250613f229190615c0a565b600085815260016020526040902055613f3b848261457d565b949350505050565b604080516002808252606082018352600092602083019080368337019050509050738f3cf7ad23cd3cadbd9735aff958023239c6a06381600081518110613f9a57634e487b7160e01b600052603260045260246000fd5b73ffffffffffffffffffffffffffffffffffffffff9283166020918202929092010152600e54825191169082906001908110613fe657634e487b7160e01b600052603260045260246000fd5b73ffffffffffffffffffffffffffffffffffffffff92831660209182029290920101526010546040517fd06ca61f000000000000000000000000000000000000000000000000000000008152600092919091169063d06ca61f9061405890670de0b6b3a76400009086906004016158a5565b60006040518083038186803b15801561407057600080fd5b505afa158015614084573d6000803e3d6000fd5b505050506040513d6000823e601f3d9081017fffffffffffffffffffffffffffffffffffffffffffffffffffffffffffffffe01682016040526140ca9190810190614b12565b9050611e40816001815181106140f057634e487b7160e01b600052603260045260246000fd5b60200260200101516145b0565b606060006013600085600281111561412557634e487b7160e01b600052602160045260246000fd5b600281111561414457634e487b7160e01b600052602160045260246000fd5b81526020019081526020016000206000600654815260200190815260200160002090506000600a5467ffffffffffffffff81111561419257634e487b7160e01b600052604160045260246000fd5b6040519080825280602002602001820160405280156141bb578160200160208202803683370190505b50905060005b600a5481101561424e57826001015485826040516020016141e3929190615776565b6040516020818303038152906040528051906020012060001c6142069190615dd9565b614211906001615c0a565b82828151811061423157634e487b7160e01b600052603260045260246000fd5b60209081029190910101528061424681615da0565b9150506141c1565b50949350505050565b60006013600084600281111561427d57634e487b7160e01b600052602160045260246000fd5b600281111561429c57634e487b7160e01b600052602160045260246000fd5b815260200190815260200160002060006006548152602001908152602001600020905060005b600a5481101561450a5760008260010154601860008760028111156142f757634e487b7160e01b600052602160045260246000fd5b600281111561431657634e487b7160e01b600052602160045260246000fd5b81526020019081526020016000205461432f9190615c73565b9050600084838151811061435357634e487b7160e01b600052603260045260246000fd5b6020026020010151826143669190615c0a565b90506011600087600281111561438c57634e487b7160e01b600052602160045260246000fd5b60028111156143ab57634e487b7160e01b600052602160045260246000fd5b81526020808201929092526040908101600090812084825290925290205460068501805463ffffffff90921691859081106143f657634e487b7160e01b600052603260045260246000fd5b90600052602060002001819055506011600087600281111561442857634e487b7160e01b600052602160045260246000fd5b600281111561444757634e487b7160e01b600052602160045260246000fd5b8152602001908152602001600020600082815260200190815260200160002060000160049054906101000a900473ffffffffffffffffffffffffffffffffffffffff168460050184815481106144ad57634e487b7160e01b600052603260045260246000fd5b9060005260206000200160006101000a81548173ffffffffffffffffffffffffffffffffffffffff021916908373ffffffffffffffffffffffffffffffffffffffff1602179055505050808061450290615da0565b9150506142c2565b5061347e8360036133b1565b6060613f3b8484600085614649565b60008484848460405160200161453e9493929190615784565b604080517fffffffffffffffffffffffffffffffffffffffffffffffffffffffffffffffe0818403018152919052805160209091012095945050505050565b60008282604051602001614592929190615679565b60405160208183030381529060405280519060200120905092915050565b60146020527f4f26c3876aa9f4b92579780beea1161a61f87ebf1ec6ee865b299e447ecba99c81815560016000527fb6c61a840592cc84133e4b25bd509abf4659307c57b160799b38490a5aa48f2c61460a83600a615c36565b8155600260005260146020527fa1930aa930426c54c34daad2b9ada7c5d0ef0c96078a3c5bb79f6fa6602c4a7a614642846064615c36565b9055505050565b606082471015614685576040517f08c379a000000000000000000000000000000000000000000000000000000000815260040161057190615961565b843b6146bd576040517f08c379a000000000000000000000000000000000000000000000000000000000815260040161057190615aa8565b6000808673ffffffffffffffffffffffffffffffffffffffff1685876040516146e69190615699565b60006040518083038185875af1925050503d8060008114614723576040519150601f19603f3d011682016040523d82523d6000602084013e614728565b606091505b5091509150614738828286614743565b979650505050505050565b60608315614752575081611326565b8251156147625782518084602001fd5b816040517f08c379a000000000000000000000000000000000000000000000000000000000815260040161057191906158e0565b60405180608001604052806000815260200160008152602001600060028111156147d057634e487b7160e01b600052602160045260246000fd5b8152602001600081525090565b8280546147e990615d28565b90600052602060002090601f01602090048101928261480b5760008555614851565b82601f1061482457805160ff1916838001178555614851565b82800160010185558215614851579182015b82811115614851578251825591602001919060010190614836565b5061485d92915061489b565b5090565b8280548282559060005260206000209081019282156148515791602002820182811115614851578251825591602001919060010190614836565b5b8082111561485d576000815560010161489c565b60006148c36148be84615ba1565b615b85565b905080838252602082019050828560208602850111156148e257600080fd5b60005b8581101561490c576148f78783614a79565b835260209283019291909101906001016148e5565b5050509392505050565b60006149246148be84615ba1565b9050808382526020820190508285602086028501111561494357600080fd5b60005b8581101561490c576149588783614a84565b83526020928301929190910190600101614946565b600061497b6148be84615bc5565b90508281526020810184848401111561499357600080fd5b61499e848285615cf0565b509392505050565b803561111881615e96565b600082601f8301126149c1578081fd5b8151613f3b8482602086016148b0565b600082601f8301126149e1578081fd5b8135613f3b848260208601614916565b805161111881615eaa565b803561111881615eb2565b60008083601f840112614a18578182fd5b50813567ffffffffffffffff811115614a2f578182fd5b602083019150836001820283011115614a4757600080fd5b9250929050565b803561111881615eb8565b600082601f830112614a69578081fd5b8135613f3b84826020860161496d565b805161111881615eb2565b803561111881615ec5565b600060208284031215614aa0578081fd5b611326838284016149a6565b60008060408385031215614abe578081fd5b614aca848285016149a6565b91506020614ada858286016149a6565b9150509250929050565b60008060408385031215614af6578182fd5b614b02848385016149a6565b91506020614ada858286016149fc565b600060208284031215614b23578081fd5b8082015167ffffffffffffffff811115614b3b578182fd5b613f3b848285016149b1565b600060208284031215614b58578081fd5b611326838284016149f1565b60008060408385031215614b76578182fd5b614b02848385016149fc565b60008060208385031215614b94578182fd5b8183013567ffffffffffffffff811115614bac578283fd5b614bb885828601614a07565b92509250509250929050565b600060208284031215614bd5578081fd5b61132683828401614a4e565b60008060408385031215614bf3578182fd5b614aca84838501614a4e565b600080600060608486031215614c13578081fd5b614c1f85828601614a4e565b92506020614c2f868287016149a6565b9250506040614c40868287016149fc565b9150509250925092565b60008060408385031215614c5c578182fd5b614c6884838501614a4e565b9150602083013567ffffffffffffffff811115614c83578182fd5b614ada858286016149d1565b60008060408385031215614ca1578182fd5b614b0284838501614a4e565b600080600060608486031215614cc1578081fd5b614ccd85828601614a4e565b92506020614cdd868287016149fc565b925050604084013567ffffffffffffffff811115614cf9578182fd5b614c40868287016149d1565b60008060408385031215614d17578182fd5b614d23848385016149fc565b91506020614ada85828601614a4e565b60008060408385031215614d45578182fd5b8183013567ffffffffffffffff811115614d5d578283fd5b614d6985828601614a59565b9250506020614ada858286016149a6565b600060208284031215614d8b578081fd5b61132683828401614a79565b614da18282614dbc565b5060200190565b614da18282614f5b565b614da1828261566d565b614dc581615c8a565b82525050565b6000614dd5825190565b8084526020938401938301825b82811015614e07578151614df68782614d97565b965050602082019150600101614de2565b5093949350505050565b6000614e1b825190565b8084526020938401938301825b82811015614e07578151614e3c8782614d97565b965050602082019150600101614e28565b6000614e57825490565b8084526000838152602090819020940193825b82811015614e0757614e7b82615e5b565b614e858782614d97565b96505060019182019101614e6a565b6000614e9e825190565b8084526020938401938301825b82811015614e07578151614ebf8782614da8565b965050602082019150600101614eab565b6000614eda825490565b8084526000838152602090819020940193825b82811015614e0757614efe82615e67565b614f088782614da8565b96505060019182019101614eed565b6000614f21825190565b8084526020938401938301825b82811015614e07578151614f428782614db2565b965050602082019150600101614f2e565b801515614dc5565b80614dc5565b6000614f6b825190565b808452602084019350614f82818560208601615cfc565b601f017fffffffffffffffffffffffffffffffffffffffffffffffffffffffffffffffe0169290920192915050565b6000614fbb825190565b614fc9818560208601615cfc565b9290920192915050565b614dc581615cbc565b614dc581615cc7565b614dc581615cd2565b614dc581615cdd565b614dc581615ce5565b601d8152602081017f596f7520646f206e6f74206861766520616e7920726f6c6c6f76657273000000815290505b60200190565b60268152602081017f4f776e61626c653a206e6577206f776e657220697320746865207a65726f206181527f6464726573730000000000000000000000000000000000000000000000000000602082015290505b60400190565b60148152602081017f596f752068617665206e6f20726f6c6c6f7665720000000000000000000000008152905061502e565b60148152602081017f436f6e7472616374206e6f7420616c6c6f7765640000000000000000000000008152905061502e565b602b8152602081017f4e6f7420656e6f756768204c494e4b202d2066696c6c20636f6e74726163742081527f776974682066617563657400000000000000000000000000000000000000000060208201529050615088565b60268152602081017f416464726573733a20696e73756666696369656e742062616c616e636520666f81527f722063616c6c000000000000000000000000000000000000000000000000000060208201529050615088565b60278152602081017f536f7272792063616e206e6f74206465616374697661746520612076616c696481527f20726166666c650000000000000000000000000000000000000000000000000060208201529050615088565b60168152602081017f43616e6e6f74206265207a65726f2061646472657373000000000000000000008152905061502e565b60198152602081017f5265626f6f7420636865636b206e6f7420636f6d706c657465000000000000008152905061502e565b60138152602081017f4e6f207469636b657420737065636966696564000000000000000000000000008152905061502e565b601a8152602081017f50726f787920636f6e7472616374206e6f7420616c6c6f7765640000000000008152905061502e565b601e8152602081017f546f6b656e20686173206265656e206368616e67656420616c726561647900008152905061502e565b60208082527f4f776e61626c653a2063616c6c6572206973206e6f7420746865206f776e6572910190815261502e565b601f8152602081017f4f6e6c7920565246436f6f7264696e61746f722063616e2066756c66696c6c008152905061502e565b60148152602081017f43616e6e6f74206265205553444320746f6b656e0000000000000000000000008152905061502e565b60158152602081017f4e6f74206f776e6572206f7220696e6a6563746f7200000000000000000000008152905061502e565b602f8152602081017f536f7272792063616e20616374697661746520617320726166666c652069732081527f6e6f74206465616374697661746564000000000000000000000000000000000060208201529050615088565b601d8152602081017f416464726573733a2063616c6c20746f206e6f6e2d636f6e74726163740000008152905061502e565b600f8152602081017f526166666c65206e6f74206f70656e00000000000000000000000000000000008152905061502e565b602a8152602081017f5361666545524332303a204552433230206f7065726174696f6e20646964206e81527f6f7420737563636565640000000000000000000000000000000000000000000060208201529050615088565b601f8152602081017f5265656e7472616e637947756172643a207265656e7472616e742063616c6c008152905061502e565b601f8152602081017f6e6f206d6174636820696e207469636b65747320746f20726f6c6c6f766572008152905061502e565b60108152602081017f546f6f206d616e79207469636b657473000000000000000000000000000000008152905061502e565b80516000906101208401906155798582614f5b565b50602083015161558c6020860182614f5b565b50604083015161559f6040860182614f5b565b5060608301516155b26060860182614f5b565b50608083015184820360808601526155ca8282614e94565b91505060a083015184820360a08601526155e48282614dcb565b91505060c083015184820360c08601526155fe8282614e94565b91505060e083015161561360e0860182614f5b565b5061010083015161499e610100860182614f5b565b80516156348382614f5b565b5060208101516156476020840182614f5b565b50604081015161565a6040840182614fdc565b50606081015161347e6060840182614f5b565b63ffffffff8116614dc5565b6156838184614f5b565b6020016156908183614f5b565b60200192915050565b6111188183614fb1565b602081016111188284614dbc565b604081016156bf8285614dbc565b6113266020830184614dbc565b606081016156da8286614dbc565b6156e76020830185614dbc565b613f3b6040830184614f5b565b604081016157028285614dbc565b6113266020830184614f5b565b6060810161571d8286614dbc565b61572a6020830185614f5b565b818103604083015261573c8184614f61565b95945050505050565b602080825281016113268184614f17565b604081016157648285614f53565b8181036020830152613f3b8184614f61565b604081016157028285614f5b565b608081016157928287614f5b565b61579f6020830186614f5b565b6157ac6040830185614dbc565b61573c6060830184614f5b565b602081016111188284614fd3565b606081016157d58286614fdc565b6157e26020830185614dbc565b818103604083015261573c8184614f17565b608081016158028287614fdc565b81810360208301526158148186614e4d565b90506157ac6040830185614f5b565b608081016158318287614fdc565b81810360208301526158438186614f17565b90506158526040830185614f5b565b81810360608301526158648184614ed0565b9695505050505050565b6040810161587c8285614fdc565b6113266020830184614fe5565b604081016157028285614fdc565b602081016111188284614fe5565b604081016158b38285614fee565b8181036020830152613f3b8184614e11565b604081016158d38285614ff7565b6113266020830184614fdc565b602080825281016113268184614f61565b604080825281016159028185614f61565b90506113266020830184614fd3565b6020808252810161111881615000565b6020808252810161111881615034565b602080825281016111188161508e565b60208082528101611118816150c0565b60208082528101611118816150f2565b602080825281016111188161514a565b60208082528101611118816151a2565b60208082528101611118816151fa565b602080825281016111188161522c565b602080825281016111188161525e565b6020808252810161111881615290565b60208082528101611118816152c2565b60208082528101611118816152f4565b6020808252810161111881615324565b6020808252810161111881615356565b6020808252810161111881604181527f546f6b656e2063616e6e6f74206265206368616e6765642c2072656d6f76652060208201527f616c6c2070726576696f75732062616c616e6365206f66206f6c6420746f6b6560408201527f6e00000000000000000000000000000000000000000000000000000000000000606082015260800190565b6020808252810161111881615388565b60208082528101611118816153ba565b6020808252810161111881615412565b6020808252810161111881615444565b6020808252810161111881615476565b60208082528101611118816154ce565b6020808252810161111881615500565b6020808252810161111881615532565b602080825281016113268184615564565b608081016111188284615628565b602081016111188284614f5b565b60808101615b438287614f5b565b615b506020830186614f5b565b6157ac6040830185614fdc565b60608101615b6b8286614f5b565b615b786020830185614f5b565b613f3b6040830184614fe5565b6000615b9060405190565b9050615b9c8282615d55565b919050565b600067ffffffffffffffff821115615bbb57615bbb615e45565b5060209081020190565b600067ffffffffffffffff821115615bdf57615bdf615e45565b7fffffffffffffffffffffffffffffffffffffffffffffffffffffffffffffffe0601f830116615690565b60008219821115615c1d57615c1d615ded565b500190565b600082615c3157615c31615e03565b500490565b6000817fffffffffffffffffffffffffffffffffffffffffffffffffffffffffffffffff0483118215151615615c6e57615c6e615ded565b500290565b600082821015615c8557615c85615ded565b500390565b600073ffffffffffffffffffffffffffffffffffffffff8216611118565b80615b9c81615e73565b80615b9c81615e86565b600061111882615c8a565b600061111882615ca8565b600061111882615cb2565b600081611118565b600060ff8216611118565b82818337506000910152565b60005b83811015615d17578181015183820152602001615cff565b838111156113945750506000910152565b600281046001821680615d3c57607f821691505b60208210811415615d4f57615d4f615e2f565b50919050565b7fffffffffffffffffffffffffffffffffffffffffffffffffffffffffffffffe0601f830116810181811067ffffffffffffffff82111715615d9957615d99615e45565b6040525050565b60007fffffffffffffffffffffffffffffffffffffffffffffffffffffffffffffffff821415615dd257615dd2615ded565b5060010190565b600082615de857615de8615e03565b500690565b634e487b7160e01b600052601160045260246000fd5b634e487b7160e01b600052601260045260246000fd5b634e487b7160e01b600052602160045260246000fd5b634e487b7160e01b600052602260045260246000fd5b634e487b7160e01b600052604160045260246000fd5b60006111188254615c8a565b60006111188254615cdd565b60038110615e8357615e83615e19565b50565b60058110615e8357615e83615e19565b615e9f81615c8a565b8114615e8357600080fd5b801515615e9f565b80615e9f565b60038110615e8357600080fd5b63ffffffff8116615e9f56fea26469706673582212203ed4a60eff4eebc8e8e7625c3194af4a1b7253f2cfecd2443b7b487c9d6a602964736f6c63430008040033",
  "linkReferences": {},
  "deployedLinkReferences": {}
}