{
  "_format": "hh-sol-artifact-1",
  "contractName": "Raffle",
  "sourceName": "contracts/Raffle.sol",
  "abi": [
    {
      "inputs": [
        {
          "internalType": "address",
          "name": "_vrfCoordinator",
          "type": "address"
        },
        {
          "internalType": "address",
          "name": "_link",
          "type": "address"
        },
        {
          "internalType": "bytes32",
          "name": "_keyHash",
          "type": "bytes32"
        },
        {
          "internalType": "uint256",
          "name": "_fee",
          "type": "uint256"
        },
        {
          "internalType": "address",
          "name": "_raffleToken",
          "type": "address"
        },
        {
          "internalType": "string",
          "name": "_dexname",
          "type": "string"
        },
        {
          "internalType": "address",
          "name": "_routerAddress",
          "type": "address"
        },
        {
          "internalType": "uint256",
          "name": "_amountOfTokenPerDAI",
          "type": "uint256"
        }
      ],
      "stateMutability": "nonpayable",
      "type": "constructor"
    },
    {
      "anonymous": false,
      "inputs": [
        {
          "indexed": false,
          "internalType": "address",
          "name": "token",
          "type": "address"
        },
        {
          "indexed": false,
          "internalType": "uint256",
          "name": "amount",
          "type": "uint256"
        }
      ],
      "name": "AdminTokenRecovery",
      "type": "event"
    },
    {
      "anonymous": false,
      "inputs": [
        {
          "indexed": false,
          "internalType": "enum Raffle.RaffleCategory",
          "name": "raffleCategory",
          "type": "uint8"
        },
        {
          "indexed": true,
          "internalType": "uint256",
          "name": "raffleId",
          "type": "uint256"
        },
        {
          "indexed": false,
          "internalType": "uint256",
          "name": "injectedAmount",
          "type": "uint256"
        }
      ],
      "name": "LotteryInjection",
      "type": "event"
    },
    {
      "anonymous": false,
      "inputs": [
        {
          "indexed": false,
          "internalType": "address",
          "name": "treasuryAddress",
          "type": "address"
        },
        {
          "indexed": false,
          "internalType": "address",
          "name": "injectorAddress",
          "type": "address"
        }
      ],
      "name": "NewTreasuryAndInjectorAddresses",
      "type": "event"
    },
    {
      "anonymous": false,
      "inputs": [
        {
          "indexed": false,
          "internalType": "uint256",
          "name": "txIndex",
          "type": "uint256"
        },
        {
          "indexed": false,
          "internalType": "uint256",
          "name": "timestamp",
          "type": "uint256"
        },
        {
          "indexed": false,
          "internalType": "enum Raffle.RaffleCategory",
          "name": "raffleCategory",
          "type": "uint8"
        },
        {
          "indexed": false,
          "internalType": "uint256",
          "name": "noOfTickets",
          "type": "uint256"
        }
      ],
      "name": "NewUserTransaction",
      "type": "event"
    },
    {
      "anonymous": false,
      "inputs": [
        {
          "indexed": true,
          "internalType": "address",
          "name": "previousOwner",
          "type": "address"
        },
        {
          "indexed": true,
          "internalType": "address",
          "name": "newOwner",
          "type": "address"
        }
      ],
      "name": "OwnershipTransferred",
      "type": "event"
    },
    {
      "anonymous": false,
      "inputs": [
        {
          "indexed": false,
          "internalType": "uint256",
          "name": "raffleID",
          "type": "uint256"
        },
        {
          "indexed": false,
          "internalType": "uint256",
          "name": "timeStamp",
          "type": "uint256"
        },
        {
          "indexed": false,
          "internalType": "enum Raffle.RaffleState",
          "name": "raffleState",
          "type": "uint8"
        }
      ],
      "name": "RaffleDeactivated",
      "type": "event"
    },
    {
      "anonymous": false,
      "inputs": [
        {
          "indexed": false,
          "internalType": "enum Raffle.RaffleCategory",
          "name": "category",
          "type": "uint8"
        },
        {
          "indexed": true,
          "internalType": "uint256",
          "name": "raffleId",
          "type": "uint256"
        },
        {
          "indexed": false,
          "internalType": "enum Raffle.RaffleState",
          "name": "raffleState",
          "type": "uint8"
        }
      ],
      "name": "RaffleEnded",
      "type": "event"
    },
    {
      "anonymous": false,
      "inputs": [
        {
          "indexed": true,
          "internalType": "uint256",
          "name": "raffleId",
          "type": "uint256"
        },
        {
          "indexed": false,
          "internalType": "uint256",
          "name": "endTime",
          "type": "uint256"
        },
        {
          "indexed": false,
          "internalType": "uint256",
          "name": "rebootEndTime",
          "type": "uint256"
        },
        {
          "indexed": false,
          "internalType": "enum Raffle.RaffleState",
          "name": "raffleState",
          "type": "uint8"
        }
      ],
      "name": "RaffleOpen",
      "type": "event"
    },
    {
      "anonymous": false,
      "inputs": [
        {
          "indexed": false,
          "internalType": "uint256",
          "name": "raffleID",
          "type": "uint256"
        },
        {
          "indexed": false,
          "internalType": "uint256",
          "name": "timeStamp",
          "type": "uint256"
        },
        {
          "indexed": false,
          "internalType": "enum Raffle.RaffleState",
          "name": "raffleState",
          "type": "uint8"
        }
      ],
      "name": "RaffleReactivated",
      "type": "event"
    },
    {
      "anonymous": false,
      "inputs": [
        {
          "indexed": false,
          "internalType": "enum Raffle.RaffleCategory",
          "name": "raffleCategory",
          "type": "uint8"
        },
        {
          "indexed": true,
          "internalType": "uint256",
          "name": "raffleId",
          "type": "uint256"
        },
        {
          "indexed": false,
          "internalType": "address",
          "name": "buyer",
          "type": "address"
        },
        {
          "indexed": false,
          "internalType": "uint32[]",
          "name": "tickets",
          "type": "uint32[]"
        }
      ],
      "name": "RolloverClaimed",
      "type": "event"
    },
    {
      "anonymous": false,
      "inputs": [
        {
          "indexed": false,
          "internalType": "enum Raffle.RaffleCategory",
          "name": "raffleCategory",
          "type": "uint8"
        },
        {
          "indexed": true,
          "internalType": "uint256",
          "name": "raffleId",
          "type": "uint256"
        },
        {
          "indexed": true,
          "internalType": "address",
          "name": "buyer",
          "type": "address"
        },
        {
          "indexed": false,
          "internalType": "uint32[]",
          "name": "tickets",
          "type": "uint32[]"
        },
        {
          "indexed": false,
          "internalType": "uint256",
          "name": "rafflePool",
          "type": "uint256"
        }
      ],
      "name": "TicketsPurchased",
      "type": "event"
    },
    {
      "anonymous": false,
      "inputs": [
        {
          "indexed": false,
          "internalType": "enum Raffle.RaffleCategory",
          "name": "raffleCategory",
          "type": "uint8"
        },
        {
          "indexed": false,
          "internalType": "address[]",
          "name": "winners",
          "type": "address[]"
        },
        {
          "indexed": false,
          "internalType": "uint256",
          "name": "amount",
          "type": "uint256"
        },
        {
          "indexed": false,
          "internalType": "uint256",
          "name": "timestamp",
          "type": "uint256"
        }
      ],
      "name": "WinnersAwarded",
      "type": "event"
    },
    {
      "anonymous": false,
      "inputs": [
        {
          "indexed": false,
          "internalType": "uint256",
          "name": "raffleID",
          "type": "uint256"
        },
        {
          "indexed": false,
          "internalType": "uint256",
          "name": "amount",
          "type": "uint256"
        }
      ],
      "name": "WithdrawalComplete",
      "type": "event"
    },
    {
      "inputs": [],
      "name": "DexRouter",
      "outputs": [
        {
          "internalType": "string",
          "name": "Dex",
          "type": "string"
        },
        {
          "internalType": "contract IUniswapV2Router02",
          "name": "routerAddress",
          "type": "address"
        }
      ],
      "stateMutability": "view",
      "type": "function"
    },
    {
      "inputs": [
        {
          "internalType": "address",
          "name": "_injectorAddress",
          "type": "address"
        },
        {
          "internalType": "address",
          "name": "_treasuryAddress",
          "type": "address"
        }
      ],
      "name": "SetInjectorAndTreasuryAdresses",
      "outputs": [],
      "stateMutability": "nonpayable",
      "type": "function"
    },
    {
      "inputs": [
        {
          "internalType": "enum Raffle.RaffleCategory",
          "name": "_category",
          "type": "uint8"
        },
        {
          "internalType": "uint32[]",
          "name": "_tickets",
          "type": "uint32[]"
        }
      ],
      "name": "buyTicket",
      "outputs": [],
      "stateMutability": "nonpayable",
      "type": "function"
    },
    {
      "inputs": [],
      "name": "checkLinkBalance",
      "outputs": [
        {
          "internalType": "uint256",
          "name": "",
          "type": "uint256"
        }
      ],
      "stateMutability": "view",
      "type": "function"
    },
    {
      "inputs": [
        {
          "internalType": "bytes",
          "name": "",
          "type": "bytes"
        }
      ],
      "name": "checkUpkeep",
      "outputs": [
        {
          "internalType": "bool",
          "name": "upkeepNeeded",
          "type": "bool"
        },
        {
          "internalType": "bytes",
          "name": "performData",
          "type": "bytes"
        }
      ],
      "stateMutability": "view",
      "type": "function"
    },
    {
      "inputs": [
        {
          "internalType": "enum Raffle.RaffleCategory",
          "name": "_category",
          "type": "uint8"
        },
        {
          "internalType": "uint256",
          "name": "_ticketsToRollover",
          "type": "uint256"
        },
        {
          "internalType": "uint32[]",
          "name": "_tickets",
          "type": "uint32[]"
        }
      ],
      "name": "claimRollover",
      "outputs": [],
      "stateMutability": "nonpayable",
      "type": "function"
    },
    {
      "inputs": [],
      "name": "currentTicketID",
      "outputs": [
        {
          "internalType": "uint256",
          "name": "",
          "type": "uint256"
        }
      ],
      "stateMutability": "view",
      "type": "function"
    },
    {
      "inputs": [],
      "name": "deactivateRaffle",
      "outputs": [],
      "stateMutability": "nonpayable",
      "type": "function"
    },
    {
      "inputs": [
        {
          "internalType": "enum Raffle.RaffleCategory",
          "name": "_category",
          "type": "uint8"
        }
      ],
      "name": "getCurrentRaffleState",
      "outputs": [
        {
          "internalType": "enum Raffle.RaffleState",
          "name": "raffleState",
          "type": "uint8"
        }
      ],
      "stateMutability": "view",
      "type": "function"
    },
    {
      "inputs": [],
      "name": "getRaffleEndTime",
      "outputs": [
        {
          "internalType": "uint256",
          "name": "",
          "type": "uint256"
        }
      ],
      "stateMutability": "view",
      "type": "function"
    },
    {
      "inputs": [
        {
          "internalType": "enum Raffle.RaffleCategory",
          "name": "_category",
          "type": "uint8"
        }
      ],
      "name": "getRafflePool",
      "outputs": [
        {
          "internalType": "uint256",
          "name": "",
          "type": "uint256"
        }
      ],
      "stateMutability": "view",
      "type": "function"
    },
    {
      "inputs": [],
      "name": "getRebootEndTime",
      "outputs": [
        {
          "internalType": "uint256",
          "name": "",
          "type": "uint256"
        }
      ],
      "stateMutability": "view",
      "type": "function"
    },
    {
      "inputs": [
        {
          "internalType": "address",
          "name": "_user",
          "type": "address"
        }
      ],
      "name": "getUserTransactionCount",
      "outputs": [
        {
          "internalType": "uint256",
          "name": "",
          "type": "uint256"
        }
      ],
      "stateMutability": "view",
      "type": "function"
    },
    {
      "inputs": [],
      "name": "getraffleID",
      "outputs": [
        {
          "internalType": "uint256",
          "name": "",
          "type": "uint256"
        }
      ],
      "stateMutability": "view",
      "type": "function"
    },
    {
      "inputs": [
        {
          "internalType": "address",
          "name": "_user",
          "type": "address"
        },
        {
          "internalType": "uint256",
          "name": "_txIndex",
          "type": "uint256"
        }
      ],
      "name": "getuserTransactionHistory",
      "outputs": [
        {
          "components": [
            {
              "internalType": "uint256",
              "name": "txID",
              "type": "uint256"
            },
            {
              "internalType": "uint256",
              "name": "time",
              "type": "uint256"
            },
            {
              "internalType": "enum Raffle.RaffleCategory",
              "name": "raffleCategory",
              "type": "uint8"
            },
            {
              "internalType": "uint256",
              "name": "noOfTickets",
              "type": "uint256"
            }
          ],
          "internalType": "struct Raffle.Transaction",
          "name": "userTransaction",
          "type": "tuple"
        }
      ],
      "stateMutability": "view",
      "type": "function"
    },
    {
      "inputs": [
        {
          "internalType": "enum Raffle.RaffleCategory",
          "name": "_category",
          "type": "uint8"
        },
        {
          "internalType": "uint256",
          "name": "_amount",
          "type": "uint256"
        }
      ],
      "name": "injectFunds",
      "outputs": [],
      "stateMutability": "nonpayable",
      "type": "function"
    },
    {
      "inputs": [],
      "name": "injectorAddress",
      "outputs": [
        {
          "internalType": "address",
          "name": "",
          "type": "address"
        }
      ],
      "stateMutability": "view",
      "type": "function"
    },
    {
      "inputs": [],
      "name": "maxNumberTicketsPerBuy",
      "outputs": [
        {
          "internalType": "uint256",
          "name": "",
          "type": "uint256"
        }
      ],
      "stateMutability": "view",
      "type": "function"
    },
    {
      "inputs": [],
      "name": "noOfWinners",
      "outputs": [
        {
          "internalType": "uint256",
          "name": "",
          "type": "uint256"
        }
      ],
      "stateMutability": "view",
      "type": "function"
    },
    {
      "inputs": [],
      "name": "owner",
      "outputs": [
        {
          "internalType": "address",
          "name": "",
          "type": "address"
        }
      ],
      "stateMutability": "view",
      "type": "function"
    },
    {
      "inputs": [
        {
          "internalType": "bytes",
          "name": "performData",
          "type": "bytes"
        }
      ],
      "name": "performUpkeep",
      "outputs": [],
      "stateMutability": "nonpayable",
      "type": "function"
    },
    {
      "inputs": [],
      "name": "raffleToken",
      "outputs": [
        {
          "internalType": "contract IERC20",
          "name": "",
          "type": "address"
        }
      ],
      "stateMutability": "view",
      "type": "function"
    },
    {
      "inputs": [
        {
          "internalType": "bytes32",
          "name": "requestId",
          "type": "bytes32"
        },
        {
          "internalType": "uint256",
          "name": "randomness",
          "type": "uint256"
        }
      ],
      "name": "rawFulfillRandomness",
      "outputs": [],
      "stateMutability": "nonpayable",
      "type": "function"
    },
    {
      "inputs": [],
      "name": "reactivateRaffle",
      "outputs": [],
      "stateMutability": "nonpayable",
      "type": "function"
    },
    {
      "inputs": [],
      "name": "rebootChecker",
      "outputs": [
        {
          "internalType": "uint256",
          "name": "",
          "type": "uint256"
        }
      ],
      "stateMutability": "view",
      "type": "function"
    },
    {
      "inputs": [
        {
          "internalType": "address",
          "name": "_tokenAddress",
          "type": "address"
        },
        {
          "internalType": "uint256",
          "name": "_tokenAmount",
          "type": "uint256"
        }
      ],
      "name": "recoverWrongTokens",
      "outputs": [],
      "stateMutability": "nonpayable",
      "type": "function"
    },
    {
      "inputs": [],
      "name": "renounceOwnership",
      "outputs": [],
      "stateMutability": "nonpayable",
      "type": "function"
    },
    {
      "inputs": [
        {
          "internalType": "address",
          "name": "newOwner",
          "type": "address"
        }
      ],
      "name": "transferOwnership",
      "outputs": [],
      "stateMutability": "nonpayable",
      "type": "function"
    },
    {
      "inputs": [],
      "name": "treasuryAddress",
      "outputs": [
        {
          "internalType": "address",
          "name": "",
          "type": "address"
        }
      ],
      "stateMutability": "view",
      "type": "function"
    },
    {
      "inputs": [
        {
          "internalType": "address",
          "name": "_newTokenAddress",
          "type": "address"
        }
      ],
      "name": "updateRaffleToken",
      "outputs": [],
      "stateMutability": "nonpayable",
      "type": "function"
    },
    {
      "inputs": [
        {
          "internalType": "string",
          "name": "_dexName",
          "type": "string"
        },
        {
          "internalType": "address",
          "name": "routerAddress",
          "type": "address"
        }
      ],
      "name": "updateRouter",
      "outputs": [],
      "stateMutability": "nonpayable",
      "type": "function"
    },
    {
      "inputs": [
        {
          "internalType": "enum Raffle.RaffleCategory",
          "name": "_category",
          "type": "uint8"
        },
        {
          "internalType": "uint256",
          "name": "_raffleID",
          "type": "uint256"
        }
      ],
      "name": "viewRaffle",
      "outputs": [
        {
          "components": [
            {
              "internalType": "uint256",
              "name": "ID",
              "type": "uint256"
            },
            {
              "internalType": "uint256",
              "name": "noOfTicketsSold",
              "type": "uint256"
            },
            {
              "internalType": "uint256",
              "name": "noOfPlayers",
              "type": "uint256"
            },
            {
              "internalType": "uint256",
              "name": "amountInjected",
              "type": "uint256"
            },
            {
              "internalType": "uint256[]",
              "name": "winnersPayout",
              "type": "uint256[]"
            },
            {
              "internalType": "address[]",
              "name": "winners",
              "type": "address[]"
            },
            {
              "internalType": "uint256[]",
              "name": "winningTickets",
              "type": "uint256[]"
            },
            {
              "internalType": "uint256",
              "name": "raffleStartTime",
              "type": "uint256"
            },
            {
              "internalType": "uint256",
              "name": "raffleEndTime",
              "type": "uint256"
            }
          ],
          "internalType": "struct Raffle.RaffleStruct",
          "name": "raffle",
          "type": "tuple"
        }
      ],
      "stateMutability": "view",
      "type": "function"
    },
    {
      "inputs": [
        {
          "internalType": "enum Raffle.RaffleCategory",
          "name": "_category",
          "type": "uint8"
        }
      ],
      "name": "viewTicketPrices",
      "outputs": [
        {
          "internalType": "uint256",
          "name": "",
          "type": "uint256"
        }
      ],
      "stateMutability": "view",
      "type": "function"
    },
    {
      "inputs": [
        {
          "internalType": "enum Raffle.RaffleCategory",
          "name": "_category",
          "type": "uint8"
        },
        {
          "internalType": "address",
          "name": "_user",
          "type": "address"
        }
      ],
      "name": "viewUserRollovers",
      "outputs": [
        {
          "internalType": "uint256",
          "name": "ticketsToRollover",
          "type": "uint256"
        }
      ],
      "stateMutability": "view",
      "type": "function"
    },
    {
      "inputs": [
        {
          "internalType": "enum Raffle.RaffleCategory",
          "name": "_category",
          "type": "uint8"
        },
        {
          "internalType": "address",
          "name": "_user",
          "type": "address"
        },
        {
          "internalType": "uint256",
          "name": "_raffleID",
          "type": "uint256"
        }
      ],
      "name": "viewUserTickets",
      "outputs": [
        {
          "internalType": "uint32[]",
          "name": "",
          "type": "uint32[]"
        }
      ],
      "stateMutability": "view",
      "type": "function"
    },
    {
      "inputs": [
        {
          "internalType": "enum Raffle.RaffleCategory",
          "name": "_category",
          "type": "uint8"
        }
      ],
      "name": "withdrawFundsDueToDeactivation",
      "outputs": [],
      "stateMutability": "nonpayable",
      "type": "function"
    }
  ],
  "bytecode": "0x610100604052611c2060c05261070860e0526003600b556103e8600c553480156200002957600080fd5b5060405162006370380380620063708339810160408190526200004c9162000318565b600160009081556001600160601b031960608a811b821660a05289901b16608052620000753390565b600280546001600160a01b0319166001600160a01b038316908117909155604051919250906000907f8be0079c531659141344cd1fd0a4f28419497f9722a3daafe3b4186f6b6457e0908290a350600886905560098590556003600a55600f80546001600160a01b0319166001600160a01b038616179055825162000102906010906020860190620001e2565b50601180546001600160a01b0319166001600160a01b038416179055620001298162000145565b5050600e805460ff60a01b191690555062000566945050505050565b60156020527fa31547ce6245cdb9ecea19cf8c7eb9f5974025bb4075011409251ae855b30aed81815560016000527f27739e4bb5e6f8b5e4b57a047dca8767cc9b982a011081e086cbb0dfa9de818d620001a183600a6200043c565b8155600260005260156020527f07d4ff730d9753101d832555708a37d38c2c45fce8cacaefc99f06074e93fe0b620001db8460646200043c565b9055505050565b828054620001f090620004a3565b90600052602060002090601f0160209004810192826200021457600085556200025f565b82601f106200022f57805160ff19168380011785556200025f565b828001600101855582156200025f579182015b828111156200025f57825182559160200191906001019062000242565b506200026d92915062000271565b5090565b5b808211156200026d576000815560010162000272565b60006200029f62000299846200040f565b620003f0565b905082815260208101848484011115620002b857600080fd5b620002c584828562000470565b509392505050565b8051620002da8162000545565b92915050565b8051620002da816200055f565b600082601f830112620002fe578081fd5b81516200031084826020860162000288565b949350505050565b600080600080600080600080610100898b03121562000335578384fd5b620003438a858b01620002cd565b97506020620003558b828c01620002cd565b9750506040620003688b828c01620002e0565b96505060606200037b8b828c01620002e0565b95505060806200038e8b828c01620002cd565b60a08b015190955090506001600160401b03811115620003ac578384fd5b620003ba8b828c01620002ed565b93505060c0620003cd8b828c01620002cd565b92505060e0620003e08b828c01620002e0565b9150509295985092959890939650565b6000620003fc60405190565b90506200040a8282620004d4565b919050565b60006001600160401b038211156200042b576200042b6200052f565b601f19601f83011660200192915050565b600081600019048311821515161562000459576200045962000503565b500290565b60006001600160a01b038216620002da565b60005b838110156200048d57818101518382015260200162000473565b838111156200049d576000848401525b50505050565b600281046001821680620004b857607f821691505b60208210811415620004ce57620004ce62000519565b50919050565b601f19601f83011681016001600160401b0381118282101715620004fc57620004fc6200052f565b6040525050565b634e487b7160e01b600052601160045260246000fd5b634e487b7160e01b600052602260045260246000fd5b634e487b7160e01b600052604160045260246000fd5b62000550816200045e565b81146200055c57600080fd5b50565b8062000550565b60805160601c60a05160601c60c05160e051615db5620005bb60003960006138b001526000613880015260008181611dc80152613d9d015260008181611e6d015281816133c50152613d610152615db56000f3fe608060405234801561001057600080fd5b506004361061025c5760003560e01c806382575cfe11610145578063c1aba43f116100bd578063defc98f81161008c578063f0e21cd911610071578063f0e21cd914610537578063f2fde38b14610540578063f53c7d081461055357600080fd5b8063defc98f814610504578063e2fae2761461052457600080fd5b8063c1aba43f14610493578063c5f956af1461049b578063d1f477a8146104bb578063d8f33840146104ce57600080fd5b80639eb386fd11610114578063a7390c8e116100f9578063a7390c8e14610457578063ad99854b14610477578063b6e81a4d1461048057600080fd5b80639eb386fd14610447578063a24bf4ff1461044f57600080fd5b806382575cfe146103da5780638da5cb5b146103ed57806394985ddd146104145780639c3846531461042757600080fd5b80635c0b95d4116101d85780636e04ff0d116101a7578063736ce0d41161018c578063736ce0d4146103915780637cbd22fb146103a75780637cf0c7ee146103c757600080fd5b80636e04ff0d14610368578063715018a61461038957600080fd5b80635c0b95d41461030d57806364b4fc8e1461031557806367bb60a0146103425780636c6f693d1461035557600080fd5b80632e23be9d1161022f57806344ab1d5c1161021457806344ab1d5c146102d15780634585e33b146102f1578063518da0a41461030457600080fd5b80632e23be9d146102ab5780633f138d4b146102be57600080fd5b806313b42fa3146102615780631de50d491461027b578063269ce1bb146102905780632805509614610298575b600080fd5b6006545b60405161027291906159e1565b60405180910390f35b61028e610289366004614b67565b61055c565b005b61028e61095a565b61028e6102a6366004614ae1565b610c68565b6102656102b9366004614afe565b6110ba565b61028e6102cc366004614a01565b611154565b6102e46102df366004614b1c565b611258565b604051610272919061561b565b61028e6102ff366004614a9f565b611363565b610265600b5481565b600454610265565b600f546103359073ffffffffffffffffffffffffffffffffffffffff1681565b604051610272919061568f565b61028e610350366004614bac565b6113d0565b61028e6103633660046149c9565b6115d7565b61037b610376366004614a9f565b611749565b60405161027292919061562c565b61028e611a58565b610399611b18565b6040516102729291906157ab565b6103ba6103b5366004614a01565b611bc6565b60405161027291906159d3565b61028e6103d5366004614c50565b611ca7565b6102656103e8366004614ae1565b611d54565b60025473ffffffffffffffffffffffffffffffffffffffff165b6040516102729190615579565b61028e610422366004614a81565b611db0565b600d546104079073ffffffffffffffffffffffffffffffffffffffff1681565b600554610265565b610265611e2d565b61046a610465366004614bac565b611ef7565b60405161027291906159c2565b610265600c5481565b61026561048e366004614ae1565b612117565b61028e612178565b600e546104079073ffffffffffffffffffffffffffffffffffffffff1681565b61028e6104c93660046149ac565b61242a565b6102656104dc3660046149ac565b73ffffffffffffffffffffffffffffffffffffffff1660009081526018602052604090205490565b610517610512366004614ae1565b61283a565b6040516102729190615751565b61028e610532366004614bca565b61289e565b610265600a5481565b61028e61054e3660046149ac565b612bf9565b61026560075481565b333b1561059e576040517f08c379a0000000000000000000000000000000000000000000000000000000008152600401610595906157fb565b60405180910390fd5b3332146105d7576040517f08c379a00000000000000000000000000000000000000000000000000000000081526004016105959061586b565b60026000541415610614576040517f08c379a000000000000000000000000000000000000000000000000000000000815260040161059590615992565b60026000558051610651576040517f08c379a00000000000000000000000000000000000000000000000000000000081526004016105959061585b565b600c548151111561068e576040517f08c379a0000000000000000000000000000000000000000000000000000000008152600401610595906159b2565b6002601560008460028111156106b457634e487b7160e01b600052602160045260246000fd5b60028111156106d357634e487b7160e01b600052602160045260246000fd5b815260208101919091526040016000206002015460ff16600481111561070957634e487b7160e01b600052602160045260246000fd5b14610740576040517f08c379a000000000000000000000000000000000000000000000000000000000815260040161059590615972565b60006015600084600281111561076657634e487b7160e01b600052602160045260246000fd5b600281111561078557634e487b7160e01b600052602160045260246000fd5b815260200190815260200160002090506000601460008560028111156107bb57634e487b7160e01b600052602160045260246000fd5b60028111156107da57634e487b7160e01b600052602160045260246000fd5b815260208082019290925260409081016000908120600654825290925281208451845491935061080991615af0565b600f549091506108319073ffffffffffffffffffffffffffffffffffffffff16333084612d25565b3360009081526013602052604081209086600281111561086157634e487b7160e01b600052602160045260246000fd5b600281111561088057634e487b7160e01b600052602160045260246000fd5b81526020808201929092526040908101600090812060065482529092529020546108bc576002820180549060006108b683615c5a565b91905055505b808360010160008282546108d09190615ac4565b925050819055506108e2858551612dc8565b6108ec8585612f15565b6108f5856131a2565b3373ffffffffffffffffffffffffffffffffffffffff166006547f18200e2b80dfa48dcef90abdec152d021f2054a5e191836a2aadcdc5575a6b1787878760010154604051610946939291906156f9565b60405180910390a350506001600055505050565b60025473ffffffffffffffffffffffffffffffffffffffff1633146109ab576040517f08c379a00000000000000000000000000000000000000000000000000000000081526004016105959061588b565b600080805260156020527fa31547ce6245cdb9ecea19cf8c7eb9f5974025bb4075011409251ae855b30aef547fa31547ce6245cdb9ecea19cf8c7eb9f5974025bb4075011409251ae855b30aed9060049060ff1681811115610a1d57634e487b7160e01b600052602160045260246000fd5b14610a54576040517f08c379a000000000000000000000000000000000000000000000000000000000815260040161059590615952565b6001600081905260156020527f27739e4bb5e6f8b5e4b57a047dca8767cc9b982a011081e086cbb0dfa9de818f547f27739e4bb5e6f8b5e4b57a047dca8767cc9b982a011081e086cbb0dfa9de818d9060049060ff1681811115610ac857634e487b7160e01b600052602160045260246000fd5b14610aff576040517f08c379a000000000000000000000000000000000000000000000000000000000815260040161059590615952565b6002600081905260156020527f07d4ff730d9753101d832555708a37d38c2c45fce8cacaefc99f06074e93fe0d547f07d4ff730d9753101d832555708a37d38c2c45fce8cacaefc99f06074e93fe0b9060049060ff1681811115610b7357634e487b7160e01b600052602160045260246000fd5b14610baa576040517f08c379a000000000000000000000000000000000000000000000000000000000815260040161059590615952565b60408051606081018252600080825260016020830152600292820192909252905b6003811015610c1b576000828260038110610bf657634e487b7160e01b600052603260045260246000fd5b60200201519050610c088160016132ec565b5080610c1381615c5a565b915050610bcb565b506003600a556006546040517f3e3fbe6edaa33edaf5f25f93631b45be609c9603eebf7d4d0976f0dec5dfdc0491610c57914290600190615a17565b60405180910390a150505050505050565b333b15610ca1576040517f08c379a0000000000000000000000000000000000000000000000000000000008152600401610595906157fb565b333214610cda576040517f08c379a00000000000000000000000000000000000000000000000000000000081526004016105959061586b565b80600060156000836002811115610d0157634e487b7160e01b600052602160045260246000fd5b6002811115610d2057634e487b7160e01b600052602160045260246000fd5b8152602081019190915260400160002090506004600282015460ff166004811115610d5b57634e487b7160e01b600052602160045260246000fd5b14610d92576040517f08c379a000000000000000000000000000000000000000000000000000000000815260040161059590615952565b60026000541415610dcf576040517f08c379a000000000000000000000000000000000000000000000000000000000815260040161059590615992565b600260008181556017918590811115610df857634e487b7160e01b600052602160045260246000fd5b6002811115610e1757634e487b7160e01b600052602160045260246000fd5b815260208082019290925260409081016000908120338252909252902054610e6b576040517f08c379a0000000000000000000000000000000000000000000000000000000008152600401610595906157cb565b600060156000856002811115610e9157634e487b7160e01b600052602160045260246000fd5b6002811115610eb057634e487b7160e01b600052602160045260246000fd5b81526020019081526020016000209050600060176000866002811115610ee657634e487b7160e01b600052602160045260246000fd5b6002811115610f0557634e487b7160e01b600052602160045260246000fd5b8152602080820192909252604090810160009081203382529092528120548354909250610f329083615af0565b600f546040517fa9059cbb00000000000000000000000000000000000000000000000000000000815291925073ffffffffffffffffffffffffffffffffffffffff169063a9059cbb90610f8b90339085906004016155ca565b602060405180830381600087803b158015610fa557600080fd5b505af1158015610fb9573d6000803e3d6000fd5b505050506040513d601f19601f82011682018060405250810190610fdd9190614a64565b5060006017600088600281111561100457634e487b7160e01b600052602160045260246000fd5b600281111561102357634e487b7160e01b600052602160045260246000fd5b815260200190815260200160002060003373ffffffffffffffffffffffffffffffffffffffff1673ffffffffffffffffffffffffffffffffffffffff168152602001908152602001600020819055507fac4b7f84df43766362cc5996cfd81888ae4ee76e3e429f0d2f3660404aea1829600654826040516110a592919061564c565b60405180910390a15050600160005550505050565b6000601760008460028111156110e057634e487b7160e01b600052602160045260246000fd5b60028111156110ff57634e487b7160e01b600052602160045260246000fd5b815260200190815260200160002060008373ffffffffffffffffffffffffffffffffffffffff1673ffffffffffffffffffffffffffffffffffffffff1681526020019081526020016000205490505b92915050565b60025473ffffffffffffffffffffffffffffffffffffffff1633146111a5576040517f08c379a00000000000000000000000000000000000000000000000000000000081526004016105959061588b565b600f5473ffffffffffffffffffffffffffffffffffffffff838116911614156111fa576040517f08c379a0000000000000000000000000000000000000000000000000000000008152600401610595906158ab565b61121b73ffffffffffffffffffffffffffffffffffffffff8316338361339a565b7f74545154aac348a3eac92596bd1971957ca94795f4e954ec5f613b55fab78129828260405161124c9291906155ca565b60405180910390a15050565b73ffffffffffffffffffffffffffffffffffffffff821660009081526013602052604081206060918560028111156112a057634e487b7160e01b600052602160045260246000fd5b60028111156112bf57634e487b7160e01b600052602160045260246000fd5b8152602001908152602001600020600083815260200190815260200160002080548060200260200160405190810160405280929190818152602001828054801561135457602002820191906000526020600020906000905b82829054906101000a900463ffffffff1663ffffffff16815260200190600401906020826003010492830192600103820291508084116113175790505b505050505090505b9392505050565b60008061137283850185614c22565b91509150816001141561138e57611388816133be565b506113ca565b81600214156113a5576113a081613552565b6113ca565b81600314156113b6576113a06137f8565b81600414156113ca576113ca816000613a37565b50505050565b60025473ffffffffffffffffffffffffffffffffffffffff1633148061140d5750600d5473ffffffffffffffffffffffffffffffffffffffff1633145b611443576040517f08c379a000000000000000000000000000000000000000000000000000000000815260040161059590615942565b60026015600084600281111561146957634e487b7160e01b600052602160045260246000fd5b600281111561148857634e487b7160e01b600052602160045260246000fd5b815260208101919091526040016000206002015460ff1660048111156114be57634e487b7160e01b600052602160045260246000fd5b146114f5576040517f08c379a000000000000000000000000000000000000000000000000000000000815260040161059590615972565b600f5461151a9073ffffffffffffffffffffffffffffffffffffffff16333084612d25565b806014600084600281111561153f57634e487b7160e01b600052602160045260246000fd5b600281111561155e57634e487b7160e01b600052602160045260246000fd5b81526020019081526020016000206000600654815260200190815260200160002060030160008282546115919190615ac4565b90915550506006546040517fa1c157de391a92665d22914b5834a188e801f4fbc466639ddc0063abff1df3bb906115cb9085908590615743565b60405180910390a25050565b60025473ffffffffffffffffffffffffffffffffffffffff163314611628576040517f08c379a00000000000000000000000000000000000000000000000000000000081526004016105959061588b565b73ffffffffffffffffffffffffffffffffffffffff8116611675576040517f08c379a00000000000000000000000000000000000000000000000000000000081526004016105959061583b565b73ffffffffffffffffffffffffffffffffffffffff82166116c2576040517f08c379a00000000000000000000000000000000000000000000000000000000081526004016105959061583b565b600e805473ffffffffffffffffffffffffffffffffffffffff8084167fffffffffffffffffffffffff000000000000000000000000000000000000000092831617909255600d8054928516929091169190911790556040517fa6f7e8c500ff9602f43c07429562ca2a17f22d62c172a4fbb6aeb54bdc5e5c649061124c9083908590615587565b60006060600060405180606001604052806000600281111561177b57634e487b7160e01b600052602160045260246000fd5b600281111561179a57634e487b7160e01b600052602160045260246000fd5b815260200160018152602001600281525090506000600a54600314156117be575060015b60005b6003811015611a4e5760008382600381106117ec57634e487b7160e01b600052603260045260246000fd5b6020020151905060006014600083600281111561181957634e487b7160e01b600052602160045260246000fd5b600281111561183857634e487b7160e01b600052602160045260246000fd5b815260200190815260200160002060006006548152602001908152602001600020905060006015600084600281111561188157634e487b7160e01b600052602160045260246000fd5b60028111156118a057634e487b7160e01b600052602160045260246000fd5b8152602081019190915260400160002090506001600282015460ff1660048111156118db57634e487b7160e01b600052602160045260246000fd5b1480156118e6575084155b156118f357505050611a3c565b60045442118015611929575060028082015460ff16600481111561192757634e487b7160e01b600052602160045260246000fd5b145b1561199357600a82600101541080611945575060058260020154105b1561197b576001975060048360405160200161196292919061577f565b6040516020818303038152906040529650505050611a4e565b6001975060018360405160200161196292919061577f565b6003600282015460ff1660048111156119bc57634e487b7160e01b600052602160045260246000fd5b14156119da576001975060028360405160200161196292919061577f565b6004600282015460ff166004811115611a0357634e487b7160e01b600052602160045260246000fd5b14158015611a12575060055442115b8015611a1b5750845b15611a38576001975060038360405160200161196292919061577f565b5050505b80611a4681615c5a565b9150506117c1565b5050509250929050565b60025473ffffffffffffffffffffffffffffffffffffffff163314611aa9576040517f08c379a00000000000000000000000000000000000000000000000000000000081526004016105959061588b565b60025460405160009173ffffffffffffffffffffffffffffffffffffffff16907f8be0079c531659141344cd1fd0a4f28419497f9722a3daafe3b4186f6b6457e0908390a3600280547fffffffffffffffffffffffff0000000000000000000000000000000000000000169055565b601080548190611b2790615be2565b80601f0160208091040260200160405190810160405280929190818152602001828054611b5390615be2565b8015611ba05780601f10611b7557610100808354040283529160200191611ba0565b820191906000526020600020905b815481529060010190602001808311611b8357829003601f168201915b5050506001909301549192505073ffffffffffffffffffffffffffffffffffffffff1682565b611bce6146b3565b73ffffffffffffffffffffffffffffffffffffffff83166000908152601860205260409020805483908110611c1357634e487b7160e01b600052603260045260246000fd5b906000526020600020906004020160405180608001604052908160008201548152602001600182015481526020016002820160009054906101000a900460ff166002811115611c7257634e487b7160e01b600052602160045260246000fd5b6002811115611c9157634e487b7160e01b600052602160045260246000fd5b8152602001600382015481525050905092915050565b60025473ffffffffffffffffffffffffffffffffffffffff163314611cf8576040517f08c379a00000000000000000000000000000000000000000000000000000000081526004016105959061588b565b8151611d0b9060109060208501906146fa565b50601180547fffffffffffffffffffffffff00000000000000000000000000000000000000001673ffffffffffffffffffffffffffffffffffffffff9290921691909117905550565b600060156000836002811115611d7a57634e487b7160e01b600052602160045260246000fd5b6002811115611d9957634e487b7160e01b600052602160045260246000fd5b815260208101919091526040016000205492915050565b3373ffffffffffffffffffffffffffffffffffffffff7f00000000000000000000000000000000000000000000000000000000000000001614611e1f576040517f08c379a00000000000000000000000000000000000000000000000000000000081526004016105959061589b565b611e298282613c7e565b5050565b6040517f70a0823100000000000000000000000000000000000000000000000000000000815260009073ffffffffffffffffffffffffffffffffffffffff7f000000000000000000000000000000000000000000000000000000000000000016906370a0823190611ea2903090600401615579565b60206040518083038186803b158015611eba57600080fd5b505afa158015611ece573d6000803e3d6000fd5b505050506040513d601f19601f82011682018060405250810190611ef29190614c97565b905090565b611f466040518061012001604052806000815260200160008152602001600081526020016000815260200160608152602001606081526020016060815260200160008152602001600081525090565b60146000846002811115611f6a57634e487b7160e01b600052602160045260246000fd5b6002811115611f8957634e487b7160e01b600052602160045260246000fd5b8152602001908152602001600020600083815260200190815260200160002060405180610120016040529081600082015481526020016001820154815260200160028201548152602001600382015481526020016004820180548060200260200160405190810160405280929190818152602001828054801561202b57602002820191906000526020600020905b815481526020019060010190808311612017575b505050505081526020016005820180548060200260200160405190810160405280929190818152602001828054801561209a57602002820191906000526020600020905b815473ffffffffffffffffffffffffffffffffffffffff16815260019091019060200180831161206f575b50505050508152602001600682018054806020026020016040519081016040528092919081815260200182805480156120f257602002820191906000526020600020905b8154815260200190600101908083116120de575b5050505050815260200160078201548152602001600882015481525050905092915050565b6000806015600084600281111561213e57634e487b7160e01b600052602160045260246000fd5b600281111561215d57634e487b7160e01b600052602160045260246000fd5b81526020810191909152604001600020600101549392505050565b60025473ffffffffffffffffffffffffffffffffffffffff1633146121c9576040517f08c379a00000000000000000000000000000000000000000000000000000000081526004016105959061588b565b60065460009081527f4f26c3876aa9f4b92579780beea1161a61f87ebf1ec6ee865b299e447ecba99c602052604081206001810154600a1180612210575060058160020154105b612246576040517f08c379a00000000000000000000000000000000000000000000000000000000081526004016105959061582b565b60065460009081527fb6c61a840592cc84133e4b25bd509abf4659307c57b160799b38490a5aa48f2c60205260409020600181810154909190600a1180612291575060058160020154105b6122c7576040517f08c379a00000000000000000000000000000000000000000000000000000000081526004016105959061582b565b60065460009081527fa1930aa930426c54c34daad2b9ada7c5d0ef0c96078a3c5bb79f6fa6602c4a7a60205260409020600181015460029190600a1180612312575060058160020154105b612348576040517f08c379a00000000000000000000000000000000000000000000000000000000081526004016105959061582b565b60408051606081018252600080825260016020830152600292820192909252905b60038110156123e2576123a182826003811061239557634e487b7160e01b600052603260045260246000fd5b60200201516001613a37565b6123d08282600381106123c457634e487b7160e01b600052603260045260246000fd5b602002015160046132ec565b806123da81615c5a565b915050612369565b506000600a81905560048181556005919091556006546040517f38960c0800e981febc869f33d307d21683c7a1f85845bfe665071f160292c08092610c579291429190615a17565b60025473ffffffffffffffffffffffffffffffffffffffff16331461247b576040517f08c379a00000000000000000000000000000000000000000000000000000000081526004016105959061588b565b600080805260156020527fa31547ce6245cdb9ecea19cf8c7eb9f5974025bb4075011409251ae855b30aef547fa31547ce6245cdb9ecea19cf8c7eb9f5974025bb4075011409251ae855b30aed9060049060ff16818111156124ed57634e487b7160e01b600052602160045260246000fd5b14612524576040517f08c379a000000000000000000000000000000000000000000000000000000000815260040161059590615952565b6001600081905260156020527f27739e4bb5e6f8b5e4b57a047dca8767cc9b982a011081e086cbb0dfa9de818f547f27739e4bb5e6f8b5e4b57a047dca8767cc9b982a011081e086cbb0dfa9de818d9060049060ff168181111561259857634e487b7160e01b600052602160045260246000fd5b146125cf576040517f08c379a000000000000000000000000000000000000000000000000000000000815260040161059590615952565b6002600081905260156020527f07d4ff730d9753101d832555708a37d38c2c45fce8cacaefc99f06074e93fe0d547f07d4ff730d9753101d832555708a37d38c2c45fce8cacaefc99f06074e93fe0b9060049060ff168181111561264357634e487b7160e01b600052602160045260246000fd5b1461267a576040517f08c379a000000000000000000000000000000000000000000000000000000000815260040161059590615952565b600e5474010000000000000000000000000000000000000000900460ff16156126cf576040517f08c379a00000000000000000000000000000000000000000000000000000000081526004016105959061587b565b600f546040517f70a0823100000000000000000000000000000000000000000000000000000000815273ffffffffffffffffffffffffffffffffffffffff909116906370a0823190612725903090600401615579565b60206040518083038186803b15801561273d57600080fd5b505afa158015612751573d6000803e3d6000fd5b505050506040513d601f19601f820116820180604052508101906127759190614c97565b156127ac576040517f08c379a0000000000000000000000000000000000000000000000000000000008152600401610595906158bb565b5050600f805473ffffffffffffffffffffffffffffffffffffffff9096167fffffffffffffffffffffffff0000000000000000000000000000000000000000909616959095179094555050600e80547fffffffffffffffffffffff00ffffffffffffffffffffffffffffffffffffffff16740100000000000000000000000000000000000000001790555050565b6000806015600084600281111561286157634e487b7160e01b600052602160045260246000fd5b600281111561288057634e487b7160e01b600052602160045260246000fd5b815260208101919091526040016000206002015460ff169392505050565b333b156128d7576040517f08c379a0000000000000000000000000000000000000000000000000000000008152600401610595906157fb565b333214612910576040517f08c379a00000000000000000000000000000000000000000000000000000000081526004016105959061586b565b826017600082600281111561293557634e487b7160e01b600052602160045260246000fd5b600281111561295457634e487b7160e01b600052602160045260246000fd5b8152602080820192909252604090810160009081203382529092529020546129a8576040517f08c379a0000000000000000000000000000000000000000000000000000000008152600401610595906157eb565b600260005414156129e5576040517f08c379a000000000000000000000000000000000000000000000000000000000815260040161059590615992565b600260008181556017918690811115612a0e57634e487b7160e01b600052602160045260246000fd5b6002811115612a2d57634e487b7160e01b600052602160045260246000fd5b8152602080820192909252604090810160009081203382529092529020548314612a83576040517f08c379a0000000000000000000000000000000000000000000000000000000008152600401610595906159a2565b600260156000866002811115612aa957634e487b7160e01b600052602160045260246000fd5b6002811115612ac857634e487b7160e01b600052602160045260246000fd5b815260208101919091526040016000206002015460ff166004811115612afe57634e487b7160e01b600052602160045260246000fd5b14612b35576040517f08c379a000000000000000000000000000000000000000000000000000000000815260040161059590615972565b612b3f8483612f15565b612b4a848351612dc8565b600060176000866002811115612b7057634e487b7160e01b600052602160045260246000fd5b6002811115612b8f57634e487b7160e01b600052602160045260246000fd5b8152602080820192909252604090810160009081203380835293528190209290925560065491517f23378f2b72124c4145c302d168bd5656036b4aefadeecd763ae7b46b02ae34fc91612be691889190879061569d565b60405180910390a2505060016000555050565b60025473ffffffffffffffffffffffffffffffffffffffff163314612c4a576040517f08c379a00000000000000000000000000000000000000000000000000000000081526004016105959061588b565b73ffffffffffffffffffffffffffffffffffffffff8116612c97576040517f08c379a0000000000000000000000000000000000000000000000000000000008152600401610595906157db565b60025460405173ffffffffffffffffffffffffffffffffffffffff8084169216907f8be0079c531659141344cd1fd0a4f28419497f9722a3daafe3b4186f6b6457e090600090a3600280547fffffffffffffffffffffffff00000000000000000000000000000000000000001673ffffffffffffffffffffffffffffffffffffffff92909216919091179055565b6113ca846323b872dd60e01b858585604051602401612d46939291906155a2565b604080517fffffffffffffffffffffffffffffffffffffffffffffffffffffffffffffffe08184030181529190526020810180517bffffffffffffffffffffffffffffffffffffffffffffffffffffffff167fffffffff0000000000000000000000000000000000000000000000000000000090931692909217909152613ca7565b33600090815260186020526040902054612de06146b3565b81815242602082015260408101846002811115612e0d57634e487b7160e01b600052602160045260246000fd5b90816002811115612e2e57634e487b7160e01b600052602160045260246000fd5b9052506060810183905233600090815260186020908152604080832080546001818101835591855293839020855160049095020193845591840151838301558301516002808401805486959491927fffffffffffffffffffffffffffffffffffffffffffffffffffffffffffffff0090911691908490811115612ec157634e487b7160e01b600052602160045260246000fd5b02179055506060820151816003015550507f60850aec46dea3854368ebe9087866f660da4b915e21945cfbc2e673935ab4d282428686604051612f0794939291906159ef565b60405180910390a150505050565b600060146000846002811115612f3b57634e487b7160e01b600052602160045260246000fd5b6002811115612f5a57634e487b7160e01b600052602160045260246000fd5b815260200190815260200160002060006006548152602001908152602001600020905060005b82518110156131825760078054906000612f9983615c5a565b91905055506000838281518110612fc057634e487b7160e01b600052603260045260246000fd5b60200260200101519050601360003373ffffffffffffffffffffffffffffffffffffffff1673ffffffffffffffffffffffffffffffffffffffff168152602001908152602001600020600086600281111561302b57634e487b7160e01b600052602160045260246000fd5b600281111561304a57634e487b7160e01b600052602160045260246000fd5b8152602080820192909252604090810160009081206006548252835281812080546001810182559082528382206008820401805463ffffffff80881660046007909516949094026101000a848102910219909116179055825180840190935282523392820192909252906012908760028111156130d757634e487b7160e01b600052602160045260246000fd5b60028111156130f657634e487b7160e01b600052602160045260246000fd5b815260208082019290925260409081016000908120600754825283522082518154939092015173ffffffffffffffffffffffffffffffffffffffff16640100000000027fffffffffffffffff00000000000000000000000000000000000000000000000090931663ffffffff90921691909117919091179055508061317a81615c5a565b915050612f80565b5081518160010160008282546131989190615ac4565b9091555050505050565b6000601460008360028111156131c857634e487b7160e01b600052602160045260246000fd5b60028111156131e757634e487b7160e01b600052602160045260246000fd5b815260200190815260200160002060006006548152602001908152602001600020905060006015600084600281111561323057634e487b7160e01b600052602160045260246000fd5b600281111561324f57634e487b7160e01b600052602160045260246000fd5b8152602001908152602001600020600101549050600060648260196132749190615af0565b61327e9190615adc565b90506000606461328f84600f615af0565b6132999190615adc565b9050600060646132aa85600a615af0565b6132b49190615adc565b9050604051806060016040528084815260200183815260200182815250856004019060036132e392919061477e565b50505050505050565b60006015600084600281111561331257634e487b7160e01b600052602160045260246000fd5b600281111561333157634e487b7160e01b600052602160045260246000fd5b8152602081019190915260400160002060028101805491925083917fffffffffffffffffffffffffffffffffffffffffffffffffffffffffffffff0016600183600481111561339057634e487b7160e01b600052602160045260246000fd5b0217905550505050565b6133b98363a9059cbb60e01b8484604051602401612d469291906155ca565b505050565b60006009547f000000000000000000000000000000000000000000000000000000000000000073ffffffffffffffffffffffffffffffffffffffff166370a08231306040518263ffffffff1660e01b815260040161341c9190615579565b60206040518083038186803b15801561343457600080fd5b505afa158015613448573d6000803e3d6000fd5b505050506040513d601f19601f8201168201806040525081019061346c9190614c97565b10156134a4576040517f08c379a00000000000000000000000000000000000000000000000000000000081526004016105959061580b565b6134b2600854600954613d5d565b6000818152601660205260409020805491925083917fffffffffffffffffffffffffffffffffffffffffffffffffffffffffffffff0016600183600281111561350b57634e487b7160e01b600052602160045260246000fd5b02179055506006547f79aa71bc7ac44ef46960b6e440cf08b63d9c1db4d3af7374da8c13371d369b10836003604051613545929190615728565b60405180910390a2919050565b60006014600083600281111561357857634e487b7160e01b600052602160045260246000fd5b600281111561359757634e487b7160e01b600052602160045260246000fd5b81526020019081526020016000206000600654815260200190815260200160002090506000601560008460028111156135e057634e487b7160e01b600052602160045260246000fd5b60028111156135ff57634e487b7160e01b600052602160045260246000fd5b81526020019081526020016000209050600080600090505b600b54811015613750576136bc84600501828154811061364757634e487b7160e01b600052603260045260246000fd5b60009182526020909120015460048601805473ffffffffffffffffffffffffffffffffffffffff909216918490811061369057634e487b7160e01b600052603260045260246000fd5b600091825260209091200154600f5473ffffffffffffffffffffffffffffffffffffffff16919061339a565b8360040181815481106136df57634e487b7160e01b600052603260045260246000fd5b90600052602060002001548360010160008282546136fd9190615b2d565b90915550506004840180548290811061372657634e487b7160e01b600052603260045260246000fd5b90600052602060002001548261373c9190615ac4565b91508061374881615c5a565b915050613617565b50600e5460018301546137a09173ffffffffffffffffffffffffffffffffffffffff169061378090600290615adc565b600f5473ffffffffffffffffffffffffffffffffffffffff16919061339a565b6137ab8460016132ec565b600a80549060006137bb83615c5a565b91905055507fef99a204a94c30b225058df07e102a2bb1ee4c08995f4a39eccf82e79e4731f984846005018342604051612f0794939291906156ca565b600a54600314613834576040517f08c379a00000000000000000000000000000000000000000000000000000000081526004016105959061584b565b6006805490600061384483615c5a565b9091555050600e5474010000000000000000000000000000000000000000900460ff161561387457613874613eaf565b4260038190556138a5907f000000000000000000000000000000000000000000000000000000000000000090615ac4565b60048190556138d5907f000000000000000000000000000000000000000000000000000000000000000090615ac4565b60055560408051606081018252600080825260016020830152600292820192909252905b60038110156139ea57600082826003811061392457634e487b7160e01b600052603260045260246000fd5b6020020151905060006014600083600281111561395157634e487b7160e01b600052602160045260246000fd5b600281111561397057634e487b7160e01b600052602160045260246000fd5b81526020808201929092526040908101600090812060065480835293522090815560038054600783015560045460088301559091506139d5908590859081106139c957634e487b7160e01b600052603260045260246000fd5b602002015160026132ec565b505080806139e290615c5a565b9150506138f9565b506000600a556006546004546005546040517fb15bf0ec96989b8686c290ff167b6855edaa07d0e6b8458f665125e64819068492613a2c929091600290615a17565b60405180910390a250565b600060146000846002811115613a5d57634e487b7160e01b600052602160045260246000fd5b6002811115613a7c57634e487b7160e01b600052602160045260246000fd5b815260200190815260200160002060006006548152602001908152602001600020905081613ac557613aaf8360016132ec565b600a8054906000613abf83615c5a565b91905055505b60008160010154600754613ad99190615b2d565b905060015b82600101548111613c77576000613af58284615ac4565b9050600060126000886002811115613b1d57634e487b7160e01b600052602160045260246000fd5b6002811115613b3c57634e487b7160e01b600052602160045260246000fd5b815260208082019290925260409081016000908120858252835281812054640100000000900473ffffffffffffffffffffffffffffffffffffffff168082526013909352908120919250886002811115613ba657634e487b7160e01b600052602160045260246000fd5b6002811115613bc557634e487b7160e01b600052602160045260246000fd5b8152602001908152602001600020600060065481526020019081526020016000208054905060176000896002811115613c0e57634e487b7160e01b600052602160045260246000fd5b6002811115613c2d57634e487b7160e01b600052602160045260246000fd5b81526020808201929092526040908101600090812073ffffffffffffffffffffffffffffffffffffffff909516815293909152909120555080613c6f81615c5a565b915050613ade565b5050505050565b60008281526016602052604081205460ff1690613c9b8284614069565b90506113ca82826141c3565b6000613d09826040518060400160405280602081526020017f5361666545524332303a206c6f772d6c6576656c2063616c6c206661696c65648152508573ffffffffffffffffffffffffffffffffffffffff166144339092919063ffffffff16565b8051909150156133b95780806020019051810190613d279190614a64565b6133b9576040517f08c379a000000000000000000000000000000000000000000000000000000000815260040161059590615982565b60007f000000000000000000000000000000000000000000000000000000000000000073ffffffffffffffffffffffffffffffffffffffff16634000aea07f000000000000000000000000000000000000000000000000000000000000000084866000604051602001613dd192919061564c565b6040516020818303038152906040526040518463ffffffff1660e01b8152600401613dfe939291906155e5565b602060405180830381600087803b158015613e1857600080fd5b505af1158015613e2c573d6000803e3d6000fd5b505050506040513d601f19601f82011682018060405250810190613e509190614a64565b50600083815260016020526040812054613e6f90859083903090614442565b600085815260016020819052604090912054919250613e8e9190615ac4565b600085815260016020526040902055613ea7848261449a565b949350505050565b604080516002808252606082018352600092602083019080368337019050509050738f3cf7ad23cd3cadbd9735aff958023239c6a06381600081518110613f0657634e487b7160e01b600052603260045260246000fd5b73ffffffffffffffffffffffffffffffffffffffff9283166020918202929092010152600f54825191169082906001908110613f5257634e487b7160e01b600052603260045260246000fd5b73ffffffffffffffffffffffffffffffffffffffff92831660209182029290920101526011546040517fd06ca61f000000000000000000000000000000000000000000000000000000008152600092919091169063d06ca61f90613fc490670de0b6b3a764000090869060040161575f565b60006040518083038186803b158015613fdc57600080fd5b505afa158015613ff0573d6000803e3d6000fd5b505050506040513d6000823e601f3d9081017fffffffffffffffffffffffffffffffffffffffffffffffffffffffffffffffe01682016040526140369190810190614a2f565b9050611e298160018151811061405c57634e487b7160e01b600052603260045260246000fd5b60200260200101516144cd565b606060006014600085600281111561409157634e487b7160e01b600052602160045260246000fd5b60028111156140b057634e487b7160e01b600052602160045260246000fd5b81526020019081526020016000206000600654815260200190815260200160002090506000600b5467ffffffffffffffff8111156140fe57634e487b7160e01b600052604160045260246000fd5b604051908082528060200260200182016040528015614127578160200160208202803683370190505b50905060005b600b548110156141ba578260010154858260405160200161414f92919061564c565b6040516020818303038152906040528051906020012060001c6141729190615c93565b61417d906001615ac4565b82828151811061419d57634e487b7160e01b600052603260045260246000fd5b6020908102919091010152806141b281615c5a565b91505061412d565b50949350505050565b6000601460008460028111156141e957634e487b7160e01b600052602160045260246000fd5b600281111561420857634e487b7160e01b600052602160045260246000fd5b815260200190815260200160002060006006548152602001908152602001600020905060005b600b54811015614427576000826001015460075461424c9190615b2d565b9050600084838151811061427057634e487b7160e01b600052603260045260246000fd5b6020026020010151826142839190615ac4565b9050601260008760028111156142a957634e487b7160e01b600052602160045260246000fd5b60028111156142c857634e487b7160e01b600052602160045260246000fd5b81526020808201929092526040908101600090812084825290925290205460068501805463ffffffff909216918590811061431357634e487b7160e01b600052603260045260246000fd5b90600052602060002001819055506012600087600281111561434557634e487b7160e01b600052602160045260246000fd5b600281111561436457634e487b7160e01b600052602160045260246000fd5b8152602001908152602001600020600082815260200190815260200160002060000160049054906101000a900473ffffffffffffffffffffffffffffffffffffffff168460050184815481106143ca57634e487b7160e01b600052603260045260246000fd5b9060005260206000200160006101000a81548173ffffffffffffffffffffffffffffffffffffffff021916908373ffffffffffffffffffffffffffffffffffffffff1602179055505050808061441f90615c5a565b91505061422e565b506133b98360036132ec565b6060613ea78484600085614566565b60008484848460405160200161445b949392919061565a565b604080517fffffffffffffffffffffffffffffffffffffffffffffffffffffffffffffffe0818403018152919052805160209091012095945050505050565b600082826040516020016144af92919061554f565b60405160208183030381529060405280519060200120905092915050565b60156020527fa31547ce6245cdb9ecea19cf8c7eb9f5974025bb4075011409251ae855b30aed81815560016000527f27739e4bb5e6f8b5e4b57a047dca8767cc9b982a011081e086cbb0dfa9de818d61452783600a615af0565b8155600260005260156020527f07d4ff730d9753101d832555708a37d38c2c45fce8cacaefc99f06074e93fe0b61455f846064615af0565b9055505050565b6060824710156145a2576040517f08c379a00000000000000000000000000000000000000000000000000000000081526004016105959061581b565b843b6145da576040517f08c379a000000000000000000000000000000000000000000000000000000000815260040161059590615962565b6000808673ffffffffffffffffffffffffffffffffffffffff168587604051614603919061556f565b60006040518083038185875af1925050503d8060008114614640576040519150601f19603f3d011682016040523d82523d6000602084013e614645565b606091505b5091509150614655828286614660565b979650505050505050565b6060831561466f57508161135c565b82511561467f5782518084602001fd5b816040517f08c379a0000000000000000000000000000000000000000000000000000000008152600401610595919061579a565b60405180608001604052806000815260200160008152602001600060028111156146ed57634e487b7160e01b600052602160045260246000fd5b8152602001600081525090565b82805461470690615be2565b90600052602060002090601f016020900481019282614728576000855561476e565b82601f1061474157805160ff191683800117855561476e565b8280016001018555821561476e579182015b8281111561476e578251825591602001919060010190614753565b5061477a9291506147b8565b5090565b82805482825590600052602060002090810192821561476e579160200282018281111561476e578251825591602001919060010190614753565b5b8082111561477a57600081556001016147b9565b60006147e06147db84615a5b565b615a3f565b905080838252602082019050828560208602850111156147ff57600080fd5b60005b85811015614829576148148783614996565b83526020928301929190910190600101614802565b5050509392505050565b60006148416147db84615a5b565b9050808382526020820190508285602086028501111561486057600080fd5b60005b858110156148295761487587836149a1565b83526020928301929190910190600101614863565b60006148986147db84615a7f565b9050828152602081018484840111156148b057600080fd5b6148bb848285615baa565b509392505050565b803561114e81615d44565b600082601f8301126148de578081fd5b8151613ea78482602086016147cd565b600082601f8301126148fe578081fd5b8135613ea7848260208601614833565b805161114e81615d58565b803561114e81615d60565b60008083601f840112614935578182fd5b50813567ffffffffffffffff81111561494c578182fd5b60208301915083600182028301111561496457600080fd5b9250929050565b803561114e81615d66565b600082601f830112614986578081fd5b8135613ea784826020860161488a565b805161114e81615d60565b803561114e81615d73565b6000602082840312156149bd578081fd5b61135c838284016148c3565b600080604083850312156149db578081fd5b6149e7848285016148c3565b915060206149f7858286016148c3565b9150509250929050565b60008060408385031215614a13578182fd5b614a1f848385016148c3565b915060206149f785828601614919565b600060208284031215614a40578081fd5b8082015167ffffffffffffffff811115614a58578182fd5b613ea7848285016148ce565b600060208284031215614a75578081fd5b61135c8382840161490e565b60008060408385031215614a93578182fd5b614a1f84838501614919565b60008060208385031215614ab1578182fd5b8183013567ffffffffffffffff811115614ac9578283fd5b614ad585828601614924565b92509250509250929050565b600060208284031215614af2578081fd5b61135c8382840161496b565b60008060408385031215614b10578182fd5b6149e78483850161496b565b600080600060608486031215614b30578081fd5b614b3c8582860161496b565b92506020614b4c868287016148c3565b9250506040614b5d86828701614919565b9150509250925092565b60008060408385031215614b79578182fd5b614b858483850161496b565b9150602083013567ffffffffffffffff811115614ba0578182fd5b6149f7858286016148ee565b60008060408385031215614bbe578182fd5b614a1f8483850161496b565b600080600060608486031215614bde578081fd5b614bea8582860161496b565b92506020614bfa86828701614919565b925050604084013567ffffffffffffffff811115614c16578182fd5b614b5d868287016148ee565b60008060408385031215614c34578182fd5b614c4084838501614919565b915060206149f78582860161496b565b60008060408385031215614c62578182fd5b8183013567ffffffffffffffff811115614c7a578283fd5b614c8685828601614976565b92505060206149f7858286016148c3565b600060208284031215614ca8578081fd5b61135c83828401614996565b614cbe8282614cd9565b5060200190565b614cbe8282614e31565b614cbe8282615543565b614ce281615b44565b82525050565b6000614cf2825190565b8084526020938401938301825b82811015614d24578151614d138782614cb4565b965050602082019150600101614cff565b5093949350505050565b6000614d38825190565b8084526020938401938301825b82811015614d24578151614d598782614cb4565b965050602082019150600101614d45565b6000614d74825490565b8084526000838152602090819020940193825b82811015614d2457614d9882615d15565b614da28782614cb4565b96505060019182019101614d87565b6000614dbb825190565b8084526020938401938301825b82811015614d24578151614ddc8782614cc5565b965050602082019150600101614dc8565b6000614df7825190565b8084526020938401938301825b82811015614d24578151614e188782614ccf565b965050602082019150600101614e04565b801515614ce2565b80614ce2565b6000614e41825190565b808452602084019350614e58818560208601615bb6565b601f017fffffffffffffffffffffffffffffffffffffffffffffffffffffffffffffffe0169290920192915050565b6000614e91825190565b614e9f818560208601615bb6565b9290920192915050565b614ce281615b76565b614ce281615b81565b614ce281615b8c565b614ce281615b97565b614ce281615b9f565b601d8152602081017f596f7520646f206e6f74206861766520616e7920726f6c6c6f76657273000000815290505b60200190565b60268152602081017f4f776e61626c653a206e6577206f776e657220697320746865207a65726f206181527f6464726573730000000000000000000000000000000000000000000000000000602082015290505b60400190565b60148152602081017f596f752068617665206e6f20726f6c6c6f76657200000000000000000000000081529050614f04565b60148152602081017f436f6e7472616374206e6f7420616c6c6f77656400000000000000000000000081529050614f04565b602b8152602081017f4e6f7420656e6f756768204c494e4b202d2066696c6c20636f6e74726163742081527f776974682066617563657400000000000000000000000000000000000000000060208201529050614f5e565b60268152602081017f416464726573733a20696e73756666696369656e742062616c616e636520666f81527f722063616c6c000000000000000000000000000000000000000000000000000060208201529050614f5e565b60278152602081017f536f7272792063616e206e6f74206465616374697661746520612076616c696481527f20726166666c650000000000000000000000000000000000000000000000000060208201529050614f5e565b60168152602081017f43616e6e6f74206265207a65726f20616464726573730000000000000000000081529050614f04565b60198152602081017f5265626f6f7420636865636b206e6f7420636f6d706c6574650000000000000081529050614f04565b60138152602081017f4e6f207469636b6574207370656369666965640000000000000000000000000081529050614f04565b601a8152602081017f50726f787920636f6e7472616374206e6f7420616c6c6f77656400000000000081529050614f04565b601e8152602081017f546f6b656e20686173206265656e206368616e67656420616c7265616479000081529050614f04565b60208082527f4f776e61626c653a2063616c6c6572206973206e6f7420746865206f776e65729101908152614f04565b601f8152602081017f4f6e6c7920565246436f6f7264696e61746f722063616e2066756c66696c6c0081529050614f04565b60148152602081017f43616e6e6f74206265205553444320746f6b656e00000000000000000000000081529050614f04565b60158152602081017f4e6f74206f776e6572206f7220696e6a6563746f72000000000000000000000081529050614f04565b602f8152602081017f536f7272792063616e20616374697661746520617320726166666c652069732081527f6e6f74206465616374697661746564000000000000000000000000000000000060208201529050614f5e565b601d8152602081017f416464726573733a2063616c6c20746f206e6f6e2d636f6e747261637400000081529050614f04565b600f8152602081017f526166666c65206e6f74206f70656e000000000000000000000000000000000081529050614f04565b602a8152602081017f5361666545524332303a204552433230206f7065726174696f6e20646964206e81527f6f7420737563636565640000000000000000000000000000000000000000000060208201529050614f5e565b601f8152602081017f5265656e7472616e637947756172643a207265656e7472616e742063616c6c0081529050614f04565b601f8152602081017f6e6f206d6174636820696e207469636b65747320746f20726f6c6c6f7665720081529050614f04565b60108152602081017f546f6f206d616e79207469636b6574730000000000000000000000000000000081529050614f04565b805160009061012084019061544f8582614e31565b5060208301516154626020860182614e31565b5060408301516154756040860182614e31565b5060608301516154886060860182614e31565b50608083015184820360808601526154a08282614db1565b91505060a083015184820360a08601526154ba8282614ce8565b91505060c083015184820360c08601526154d48282614db1565b91505060e08301516154e960e0860182614e31565b506101008301516148bb610100860182614e31565b805161550a8382614e31565b50602081015161551d6020840182614e31565b5060408101516155306040840182614eb2565b5060608101516133b96060840182614e31565b63ffffffff8116614ce2565b6155598184614e31565b6020016155668183614e31565b60200192915050565b61114e8183614e87565b6020810161114e8284614cd9565b604081016155958285614cd9565b61135c6020830184614cd9565b606081016155b08286614cd9565b6155bd6020830185614cd9565b613ea76040830184614e31565b604081016155d88285614cd9565b61135c6020830184614e31565b606081016155f38286614cd9565b6156006020830185614e31565b81810360408301526156128184614e37565b95945050505050565b6020808252810161135c8184614ded565b6040810161563a8285614e29565b8181036020830152613ea78184614e37565b604081016155d88285614e31565b608081016156688287614e31565b6156756020830186614e31565b6156826040830185614cd9565b6156126060830184614e31565b6020810161114e8284614ea9565b606081016156ab8286614eb2565b6156b86020830185614cd9565b81810360408301526156128184614ded565b608081016156d88287614eb2565b81810360208301526156ea8186614d6a565b90506156826040830185614e31565b606081016157078286614eb2565b81810360208301526157198185614ded565b9050613ea76040830184614e31565b604081016157368285614eb2565b61135c6020830184614ebb565b604081016155d88285614eb2565b6020810161114e8284614ebb565b6040810161576d8285614ec4565b8181036020830152613ea78184614d2e565b6040810161578d8285614ecd565b61135c6020830184614eb2565b6020808252810161135c8184614e37565b604080825281016157bc8185614e37565b905061135c6020830184614ea9565b6020808252810161114e81614ed6565b6020808252810161114e81614f0a565b6020808252810161114e81614f64565b6020808252810161114e81614f96565b6020808252810161114e81614fc8565b6020808252810161114e81615020565b6020808252810161114e81615078565b6020808252810161114e816150d0565b6020808252810161114e81615102565b6020808252810161114e81615134565b6020808252810161114e81615166565b6020808252810161114e81615198565b6020808252810161114e816151ca565b6020808252810161114e816151fa565b6020808252810161114e8161522c565b6020808252810161114e81604181527f546f6b656e2063616e6e6f74206265206368616e6765642c2072656d6f76652060208201527f616c6c2070726576696f75732062616c616e6365206f66206f6c6420746f6b6560408201527f6e00000000000000000000000000000000000000000000000000000000000000606082015260800190565b6020808252810161114e8161525e565b6020808252810161114e81615290565b6020808252810161114e816152e8565b6020808252810161114e8161531a565b6020808252810161114e8161534c565b6020808252810161114e816153a4565b6020808252810161114e816153d6565b6020808252810161114e81615408565b6020808252810161135c818461543a565b6080810161114e82846154fe565b6020810161114e8284614e31565b608081016159fd8287614e31565b615a0a6020830186614e31565b6156826040830185614eb2565b60608101615a258286614e31565b615a326020830185614e31565b613ea76040830184614ebb565b6000615a4a60405190565b9050615a568282615c0f565b919050565b600067ffffffffffffffff821115615a7557615a75615cff565b5060209081020190565b600067ffffffffffffffff821115615a9957615a99615cff565b7fffffffffffffffffffffffffffffffffffffffffffffffffffffffffffffffe0601f830116615566565b60008219821115615ad757615ad7615ca7565b500190565b600082615aeb57615aeb615cbd565b500490565b6000817fffffffffffffffffffffffffffffffffffffffffffffffffffffffffffffffff0483118215151615615b2857615b28615ca7565b500290565b600082821015615b3f57615b3f615ca7565b500390565b600073ffffffffffffffffffffffffffffffffffffffff821661114e565b80615a5681615d21565b80615a5681615d34565b600061114e82615b44565b600061114e82615b62565b600061114e82615b6c565b60008161114e565b600060ff821661114e565b82818337506000910152565b60005b83811015615bd1578181015183820152602001615bb9565b838111156113ca5750506000910152565b600281046001821680615bf657607f821691505b60208210811415615c0957615c09615ce9565b50919050565b7fffffffffffffffffffffffffffffffffffffffffffffffffffffffffffffffe0601f830116810181811067ffffffffffffffff82111715615c5357615c53615cff565b6040525050565b60007fffffffffffffffffffffffffffffffffffffffffffffffffffffffffffffffff821415615c8c57615c8c615ca7565b5060010190565b600082615ca257615ca2615cbd565b500690565b634e487b7160e01b600052601160045260246000fd5b634e487b7160e01b600052601260045260246000fd5b634e487b7160e01b600052602160045260246000fd5b634e487b7160e01b600052602260045260246000fd5b634e487b7160e01b600052604160045260246000fd5b600061114e8254615b44565b60038110615d3157615d31615cd3565b50565b60058110615d3157615d31615cd3565b615d4d81615b44565b8114615d3157600080fd5b801515615d4d565b80615d4d565b60038110615d3157600080fd5b63ffffffff8116615d4d56fea26469706673582212207691c2984f7f80d3221cfda876378372bb4ab3f479e712975a6957488e5a586164736f6c63430008040033",
  "linkReferences": {},
  "deployedLinkReferences": {}
}