{
  "_format": "hh-sol-artifact-1",
  "contractName": "Raffle",
  "sourceName": "contracts/Raffle.sol",
  "abi": [
    {
      "inputs": [
        {
          "internalType": "address",
          "name": "_vrfCoordinator",
          "type": "address"
        },
        {
          "internalType": "address",
          "name": "_link",
          "type": "address"
        },
        {
          "internalType": "bytes32",
          "name": "_keyHash",
          "type": "bytes32"
        },
        {
          "internalType": "uint256",
          "name": "_fee",
          "type": "uint256"
        },
        {
          "internalType": "address",
          "name": "_USDCtoken",
          "type": "address"
        }
      ],
      "stateMutability": "nonpayable",
      "type": "constructor"
    },
    {
      "anonymous": false,
      "inputs": [
        {
          "indexed": false,
          "internalType": "address",
          "name": "token",
          "type": "address"
        },
        {
          "indexed": false,
          "internalType": "uint256",
          "name": "amount",
          "type": "uint256"
        }
      ],
      "name": "AdminTokenRecovery",
      "type": "event"
    },
    {
      "anonymous": false,
      "inputs": [
        {
          "indexed": false,
          "internalType": "enum Raffle.RaffleCategory",
          "name": "raffleCategory",
          "type": "uint8"
        },
        {
          "indexed": true,
          "internalType": "uint256",
          "name": "raffleId",
          "type": "uint256"
        },
        {
          "indexed": false,
          "internalType": "uint256",
          "name": "injectedAmount",
          "type": "uint256"
        }
      ],
      "name": "LotteryInjection",
      "type": "event"
    },
    {
      "anonymous": false,
      "inputs": [
        {
          "indexed": false,
          "internalType": "address",
          "name": "treasuryAddress",
          "type": "address"
        },
        {
          "indexed": false,
          "internalType": "address",
          "name": "injectorAddress",
          "type": "address"
        }
      ],
      "name": "NewTreasuryAndInjectorAddresses",
      "type": "event"
    },
    {
      "anonymous": false,
      "inputs": [
        {
          "indexed": false,
          "internalType": "uint256",
          "name": "txIndex",
          "type": "uint256"
        },
        {
          "indexed": false,
          "internalType": "uint256",
          "name": "timestamp",
          "type": "uint256"
        },
        {
          "indexed": false,
          "internalType": "enum Raffle.RaffleCategory",
          "name": "raffleCategory",
          "type": "uint8"
        },
        {
          "indexed": false,
          "internalType": "uint256",
          "name": "noOfTickets",
          "type": "uint256"
        }
      ],
      "name": "NewUserTransaction",
      "type": "event"
    },
    {
      "anonymous": false,
      "inputs": [
        {
          "indexed": true,
          "internalType": "address",
          "name": "previousOwner",
          "type": "address"
        },
        {
          "indexed": true,
          "internalType": "address",
          "name": "newOwner",
          "type": "address"
        }
      ],
      "name": "OwnershipTransferred",
      "type": "event"
    },
    {
      "anonymous": false,
      "inputs": [
        {
          "indexed": false,
          "internalType": "uint256",
          "name": "raffleID",
          "type": "uint256"
        },
        {
          "indexed": false,
          "internalType": "uint256",
          "name": "timeStamp",
          "type": "uint256"
        },
        {
          "indexed": false,
          "internalType": "enum Raffle.RaffleState",
          "name": "raffleState",
          "type": "uint8"
        }
      ],
      "name": "RaffleDeactivated",
      "type": "event"
    },
    {
      "anonymous": false,
      "inputs": [
        {
          "indexed": false,
          "internalType": "enum Raffle.RaffleCategory",
          "name": "category",
          "type": "uint8"
        },
        {
          "indexed": true,
          "internalType": "uint256",
          "name": "raffleId",
          "type": "uint256"
        },
        {
          "indexed": false,
          "internalType": "enum Raffle.RaffleState",
          "name": "raffleState",
          "type": "uint8"
        }
      ],
      "name": "RaffleEnded",
      "type": "event"
    },
    {
      "anonymous": false,
      "inputs": [
        {
          "indexed": true,
          "internalType": "uint256",
          "name": "raffleId",
          "type": "uint256"
        },
        {
          "indexed": false,
          "internalType": "uint256",
          "name": "endTime",
          "type": "uint256"
        },
        {
          "indexed": false,
          "internalType": "uint256",
          "name": "rebootEndTime",
          "type": "uint256"
        },
        {
          "indexed": false,
          "internalType": "enum Raffle.RaffleState",
          "name": "raffleState",
          "type": "uint8"
        }
      ],
      "name": "RaffleOpen",
      "type": "event"
    },
    {
      "anonymous": false,
      "inputs": [
        {
          "indexed": false,
          "internalType": "uint256",
          "name": "raffleID",
          "type": "uint256"
        },
        {
          "indexed": false,
          "internalType": "uint256",
          "name": "timeStamp",
          "type": "uint256"
        },
        {
          "indexed": false,
          "internalType": "enum Raffle.RaffleState",
          "name": "raffleState",
          "type": "uint8"
        }
      ],
      "name": "RaffleReactivated",
      "type": "event"
    },
    {
      "anonymous": false,
      "inputs": [
        {
          "indexed": false,
          "internalType": "enum Raffle.RaffleCategory",
          "name": "raffleCategory",
          "type": "uint8"
        },
        {
          "indexed": true,
          "internalType": "uint256",
          "name": "raffleId",
          "type": "uint256"
        },
        {
          "indexed": false,
          "internalType": "address",
          "name": "buyer",
          "type": "address"
        },
        {
          "indexed": false,
          "internalType": "uint256",
          "name": "noOfTickets",
          "type": "uint256"
        }
      ],
      "name": "RolloverClaimed",
      "type": "event"
    },
    {
      "anonymous": false,
      "inputs": [
        {
          "indexed": false,
          "internalType": "enum Raffle.RaffleCategory",
          "name": "raffleCategory",
          "type": "uint8"
        },
        {
          "indexed": true,
          "internalType": "uint256",
          "name": "raffleId",
          "type": "uint256"
        },
        {
          "indexed": true,
          "internalType": "address",
          "name": "buyer",
          "type": "address"
        },
        {
          "indexed": false,
          "internalType": "uint256",
          "name": "numberTickets",
          "type": "uint256"
        },
        {
          "indexed": false,
          "internalType": "uint256",
          "name": "rafflePool",
          "type": "uint256"
        }
      ],
      "name": "TicketsPurchased",
      "type": "event"
    },
    {
      "anonymous": false,
      "inputs": [
        {
          "indexed": false,
          "internalType": "enum Raffle.RaffleCategory",
          "name": "raffleCategory",
          "type": "uint8"
        },
        {
          "indexed": false,
          "internalType": "address[]",
          "name": "winners",
          "type": "address[]"
        },
        {
          "indexed": false,
          "internalType": "uint256",
          "name": "amount",
          "type": "uint256"
        },
        {
          "indexed": false,
          "internalType": "uint256",
          "name": "timestamp",
          "type": "uint256"
        }
      ],
      "name": "WinnersAwarded",
      "type": "event"
    },
    {
      "anonymous": false,
      "inputs": [
        {
          "indexed": false,
          "internalType": "uint256",
          "name": "raffleID",
          "type": "uint256"
        },
        {
          "indexed": false,
          "internalType": "uint256",
          "name": "amount",
          "type": "uint256"
        }
      ],
      "name": "WithdrawalComplete",
      "type": "event"
    },
    {
      "inputs": [
        {
          "internalType": "address",
          "name": "_injectorAddress",
          "type": "address"
        },
        {
          "internalType": "address",
          "name": "_treasuryAddress",
          "type": "address"
        }
      ],
      "name": "SetInjectorAndTreasuryAdresses",
      "outputs": [],
      "stateMutability": "nonpayable",
      "type": "function"
    },
    {
      "inputs": [],
      "name": "USDCtoken",
      "outputs": [
        {
          "internalType": "contract IERC20",
          "name": "",
          "type": "address"
        }
      ],
      "stateMutability": "view",
      "type": "function"
    },
    {
      "inputs": [
        {
          "internalType": "enum Raffle.RaffleCategory",
          "name": "_category",
          "type": "uint8"
        },
        {
          "internalType": "uint256[]",
          "name": "_tickets",
          "type": "uint256[]"
        }
      ],
      "name": "buyTicket",
      "outputs": [],
      "stateMutability": "nonpayable",
      "type": "function"
    },
    {
      "inputs": [],
      "name": "checkLinkBalance",
      "outputs": [
        {
          "internalType": "uint256",
          "name": "",
          "type": "uint256"
        }
      ],
      "stateMutability": "view",
      "type": "function"
    },
    {
      "inputs": [
        {
          "internalType": "bytes",
          "name": "",
          "type": "bytes"
        }
      ],
      "name": "checkUpkeep",
      "outputs": [
        {
          "internalType": "bool",
          "name": "upkeepNeeded",
          "type": "bool"
        },
        {
          "internalType": "bytes",
          "name": "performData",
          "type": "bytes"
        }
      ],
      "stateMutability": "view",
      "type": "function"
    },
    {
      "inputs": [
        {
          "internalType": "enum Raffle.RaffleCategory",
          "name": "_category",
          "type": "uint8"
        },
        {
          "internalType": "uint256",
          "name": "_ticketsToRollover",
          "type": "uint256"
        },
        {
          "internalType": "uint256[]",
          "name": "_tickets",
          "type": "uint256[]"
        }
      ],
      "name": "claimRollover",
      "outputs": [],
      "stateMutability": "nonpayable",
      "type": "function"
    },
    {
      "inputs": [],
      "name": "currentRaffleEndTime",
      "outputs": [
        {
          "internalType": "uint256",
          "name": "",
          "type": "uint256"
        }
      ],
      "stateMutability": "view",
      "type": "function"
    },
    {
      "inputs": [],
      "name": "currentRaffleRebootEndTime",
      "outputs": [
        {
          "internalType": "uint256",
          "name": "",
          "type": "uint256"
        }
      ],
      "stateMutability": "view",
      "type": "function"
    },
    {
      "inputs": [],
      "name": "currentRaffleStartTime",
      "outputs": [
        {
          "internalType": "uint256",
          "name": "",
          "type": "uint256"
        }
      ],
      "stateMutability": "view",
      "type": "function"
    },
    {
      "inputs": [],
      "name": "deactivateRaffle",
      "outputs": [],
      "stateMutability": "nonpayable",
      "type": "function"
    },
    {
      "inputs": [],
      "name": "getCurrentRaffleID",
      "outputs": [
        {
          "internalType": "uint256",
          "name": "",
          "type": "uint256"
        }
      ],
      "stateMutability": "view",
      "type": "function"
    },
    {
      "inputs": [
        {
          "internalType": "enum Raffle.RaffleCategory",
          "name": "_category",
          "type": "uint8"
        }
      ],
      "name": "getCurrentRaffleState",
      "outputs": [
        {
          "internalType": "enum Raffle.RaffleState",
          "name": "raffleState",
          "type": "uint8"
        }
      ],
      "stateMutability": "view",
      "type": "function"
    },
    {
      "inputs": [
        {
          "internalType": "enum Raffle.RaffleCategory",
          "name": "_category",
          "type": "uint8"
        }
      ],
      "name": "getRafflePool",
      "outputs": [
        {
          "internalType": "uint256",
          "name": "",
          "type": "uint256"
        }
      ],
      "stateMutability": "view",
      "type": "function"
    },
    {
      "inputs": [],
      "name": "getRebootEndTime",
      "outputs": [
        {
          "internalType": "uint256",
          "name": "",
          "type": "uint256"
        }
      ],
      "stateMutability": "view",
      "type": "function"
    },
    {
      "inputs": [],
      "name": "getUserTransactionCount",
      "outputs": [
        {
          "internalType": "uint256",
          "name": "",
          "type": "uint256"
        }
      ],
      "stateMutability": "view",
      "type": "function"
    },
    {
      "inputs": [
        {
          "internalType": "uint256",
          "name": "txIndex",
          "type": "uint256"
        }
      ],
      "name": "getuserTransactionHistory",
      "outputs": [
        {
          "internalType": "uint256",
          "name": "timestamp",
          "type": "uint256"
        },
        {
          "internalType": "enum Raffle.RaffleCategory",
          "name": "raffleCategory",
          "type": "uint8"
        },
        {
          "internalType": "uint256",
          "name": "noOfTickets",
          "type": "uint256"
        }
      ],
      "stateMutability": "view",
      "type": "function"
    },
    {
      "inputs": [
        {
          "internalType": "enum Raffle.RaffleCategory",
          "name": "_category",
          "type": "uint8"
        },
        {
          "internalType": "uint256",
          "name": "_amount",
          "type": "uint256"
        }
      ],
      "name": "injectFunds",
      "outputs": [],
      "stateMutability": "nonpayable",
      "type": "function"
    },
    {
      "inputs": [],
      "name": "injectorAddress",
      "outputs": [
        {
          "internalType": "address",
          "name": "",
          "type": "address"
        }
      ],
      "stateMutability": "view",
      "type": "function"
    },
    {
      "inputs": [],
      "name": "maxNumberTicketsPerBuy",
      "outputs": [
        {
          "internalType": "uint256",
          "name": "",
          "type": "uint256"
        }
      ],
      "stateMutability": "view",
      "type": "function"
    },
    {
      "inputs": [],
      "name": "noOfWinners",
      "outputs": [
        {
          "internalType": "uint256",
          "name": "",
          "type": "uint256"
        }
      ],
      "stateMutability": "view",
      "type": "function"
    },
    {
      "inputs": [],
      "name": "owner",
      "outputs": [
        {
          "internalType": "address",
          "name": "",
          "type": "address"
        }
      ],
      "stateMutability": "view",
      "type": "function"
    },
    {
      "inputs": [
        {
          "internalType": "bytes",
          "name": "performData",
          "type": "bytes"
        }
      ],
      "name": "performUpkeep",
      "outputs": [],
      "stateMutability": "nonpayable",
      "type": "function"
    },
    {
      "inputs": [],
      "name": "raffleID",
      "outputs": [
        {
          "internalType": "uint256",
          "name": "",
          "type": "uint256"
        }
      ],
      "stateMutability": "view",
      "type": "function"
    },
    {
      "inputs": [
        {
          "internalType": "bytes32",
          "name": "requestId",
          "type": "bytes32"
        },
        {
          "internalType": "uint256",
          "name": "randomness",
          "type": "uint256"
        }
      ],
      "name": "rawFulfillRandomness",
      "outputs": [],
      "stateMutability": "nonpayable",
      "type": "function"
    },
    {
      "inputs": [],
      "name": "reactivateRaffle",
      "outputs": [],
      "stateMutability": "nonpayable",
      "type": "function"
    },
    {
      "inputs": [
        {
          "internalType": "address",
          "name": "_tokenAddress",
          "type": "address"
        },
        {
          "internalType": "uint256",
          "name": "_tokenAmount",
          "type": "uint256"
        }
      ],
      "name": "recoverWrongTokens",
      "outputs": [],
      "stateMutability": "nonpayable",
      "type": "function"
    },
    {
      "inputs": [],
      "name": "renounceOwnership",
      "outputs": [],
      "stateMutability": "nonpayable",
      "type": "function"
    },
    {
      "inputs": [
        {
          "internalType": "address",
          "name": "newOwner",
          "type": "address"
        }
      ],
      "name": "transferOwnership",
      "outputs": [],
      "stateMutability": "nonpayable",
      "type": "function"
    },
    {
      "inputs": [],
      "name": "treasuryAddress",
      "outputs": [
        {
          "internalType": "address",
          "name": "",
          "type": "address"
        }
      ],
      "stateMutability": "view",
      "type": "function"
    },
    {
      "inputs": [
        {
          "internalType": "enum Raffle.RaffleCategory",
          "name": "_category",
          "type": "uint8"
        },
        {
          "internalType": "uint256",
          "name": "_raffleID",
          "type": "uint256"
        }
      ],
      "name": "viewRaffle",
      "outputs": [
        {
          "internalType": "address[]",
          "name": "winners",
          "type": "address[]"
        },
        {
          "internalType": "uint256",
          "name": "noOfTicketsSold",
          "type": "uint256"
        },
        {
          "internalType": "uint256[]",
          "name": "winningTickets",
          "type": "uint256[]"
        },
        {
          "internalType": "uint256",
          "name": "raffleStartTime",
          "type": "uint256"
        },
        {
          "internalType": "uint256",
          "name": "raffleEndTime",
          "type": "uint256"
        }
      ],
      "stateMutability": "view",
      "type": "function"
    },
    {
      "inputs": [
        {
          "internalType": "enum Raffle.RaffleCategory",
          "name": "_category",
          "type": "uint8"
        }
      ],
      "name": "viewRollovers",
      "outputs": [
        {
          "internalType": "uint256",
          "name": "ticketsToRollover",
          "type": "uint256"
        }
      ],
      "stateMutability": "view",
      "type": "function"
    },
    {
      "inputs": [
        {
          "internalType": "enum Raffle.RaffleCategory",
          "name": "_category",
          "type": "uint8"
        }
      ],
      "name": "withdrawFundsDueToDeactivation",
      "outputs": [],
      "stateMutability": "nonpayable",
      "type": "function"
    }
  ],
  "bytecode": "0x610100604052610e1060c05261070860e0526003600a556103e8600b553480156200002957600080fd5b5060405162004290380380620042908339810160408190526200004c91620001aa565b600160009081556001600160601b0319606087811b821660a05286901b16608052620000753390565b600280546001600160a01b0319166001600160a01b038316908117909155604051919250906000907f8be0079c531659141344cd1fd0a4f28419497f9722a3daafe3b4186f6b6457e0908290a350600783905560088290556003600955600e80546001600160a01b0319166001600160a01b0383161790556200017f6010602052670de0b6b3a76400007f6e0956cda88cad152e89927e53611735b61a5c762d1428573c6931b0a5efcb0155678ac7230489e800007f8c6065603763fec3f5742441d3833f3f43b982453612d76adb39a885e3006b5f55600260005268056bc75e2d631000007f853b2fefe141400fef543280f93d98bd49996069f632d0d20236afeeed8e46a255565b50505050506200025b565b805162000197816200023a565b92915050565b8051620001978162000254565b600080600080600060a08688031215620001c2578081fd5b620001d0878288016200018a565b94506020620001e2888289016200018a565b9450506040620001f5888289016200019d565b935050606062000208888289016200019d565b92505060806200021b888289016200018a565b9150509295509295909350565b60006001600160a01b03821662000197565b620002458162000228565b81146200025157600080fd5b50565b8062000245565b60805160601c60a05160601c60c05160e051613fe0620002b060003960006122d3015260006122a301526000818161146d01526129b50152600081816114eb01528181611e9801526129860152613fe06000f3fe608060405234801561001057600080fd5b50600436106101f05760003560e01c80638da5cb5b1161010f578063b6e81a4d116100a2578063d19f19a811610071578063d19f19a8146103e3578063defc98f8146103f6578063e2dbabf514610416578063f2fde38b1461042957600080fd5b8063b6e81a4d146103ac578063c1aba43f146103bf578063c5f956af146103c7578063c9d47407146103da57600080fd5b8063a24bf4ff116100de578063a24bf4ff1461036e578063a7390c8e14610376578063ad99854b1461039a578063b3397329146103a357600080fd5b80638da5cb5b1461032657806394985ddd146103405780639c384653146103535780639eb386fd1461036657600080fd5b806352955aa811610187578063715018a611610156578063715018a6146102e1578063718031e5146102e957806378007db4146102fc5780638a3f16fd1461030457600080fd5b806352955aa81461029157806367bb60a01461029a5780636c6f693d146102ad5780636e04ff0d146102c057600080fd5b80633f138d4b116101c35780633f138d4b146102425780634185e507146102555780634585e33b14610275578063518da0a41461028857600080fd5b80631b6826df146101f557806325d691341461021c578063269ce1bb14610225578063280550961461022f575b600080fd5b336000908152601360205260409020545b6040516102139190613d00565b60405180910390f35b61020660035481565b61022d61043c565b005b61022d61023d36600461315b565b6106dc565b61022d6102503660046130b0565b610a00565b600e54610268906001600160a01b031681565b6040516102139190613ad7565b61022d610283366004613119565b610aa9565b610206600a5481565b61020660065481565b61022d6102a83660046131bd565b610b14565b61022d6102bb366004613078565b610cc0565b6102d36102ce366004613119565b610da5565b604051610213929190613a74565b61022d61109a565b61022d6102f7366004613178565b61111b565b600654610206565b61031761031236600461326b565b6113fe565b60405161021393929190613d0e565b6002546001600160a01b03165b604051610213919061397a565b61022d61034e3660046130fb565b611462565b600c54610333906001600160a01b031681565b600554610206565b6102066114b8565b6103896103843660046131bd565b611575565b604051610213959493929190613a1c565b610206600b5481565b61020660055481565b6102066103ba36600461315b565b6116be565b61022d61171f565b600d54610333906001600160a01b031681565b61020660045481565b61022d6103f13660046131db565b611934565b61040961040436600461315b565b611bf3565b6040516102139190613b66565b61020661042436600461315b565b611c57565b61022d61043736600461305b565b611cc0565b6002546001600160a01b0316331461046f5760405162461bcd60e51b815260040161046690613c60565b60405180910390fd5b600080805260106020527f6e0956cda88cad152e89927e53611735b61a5c762d1428573c6931b0a5efcb03547f6e0956cda88cad152e89927e53611735b61a5c762d1428573c6931b0a5efcb0190829060ff1660048111156104e157634e487b7160e01b600052602160045260246000fd5b146104fe5760405162461bcd60e51b815260040161046690613bb0565b6001600081815260106020527f8c6065603763fec3f5742441d3833f3f43b982453612d76adb39a885e3006b61547f8c6065603763fec3f5742441d3833f3f43b982453612d76adb39a885e3006b5f919060ff16600481111561057157634e487b7160e01b600052602160045260246000fd5b1461058e5760405162461bcd60e51b815260040161046690613bb0565b6002600081815260106020527f853b2fefe141400fef543280f93d98bd49996069f632d0d20236afeeed8e46a4547f853b2fefe141400fef543280f93d98bd49996069f632d0d20236afeeed8e46a2919060ff16600481111561060157634e487b7160e01b600052602160045260246000fd5b1461061e5760405162461bcd60e51b815260040161046690613bb0565b60408051606081018252600080825260016020830152600292820192909252905b600381101561068f57600082826003811061066a57634e487b7160e01b600052603260045260246000fd5b6020020151905061067c816001611d79565b508061068781613ec5565b91505061063f565b5060036009556006546040517f3e3fbe6edaa33edaf5f25f93631b45be609c9603eebf7d4d0976f0dec5dfdc04916106cb914290600190613d51565b60405180910390a150505050505050565b333b156106fb5760405162461bcd60e51b815260040161046690613bd0565b33321461071a5760405162461bcd60e51b815260040161046690613c50565b6002600054141561073d5760405162461bcd60e51b815260040161046690613cd0565b600260009081556010600083600281111561076857634e487b7160e01b600052602160045260246000fd5b600281111561078757634e487b7160e01b600052602160045260246000fd5b815260208101919091526040016000206002015460ff1660048111156107bd57634e487b7160e01b600052602160045260246000fd5b146107da5760405162461bcd60e51b815260040161046690613c40565b60006010600083600281111561080057634e487b7160e01b600052602160045260246000fd5b600281111561081f57634e487b7160e01b600052602160045260246000fd5b8152602001908152602001600020905060006012600084600281111561085557634e487b7160e01b600052602160045260246000fd5b600281111561087457634e487b7160e01b600052602160045260246000fd5b81526020808201929092526040908101600090812033825290925281205483549092506108a19083613de5565b600e546040517fa9059cbb0000000000000000000000000000000000000000000000000000000081529192506001600160a01b03169063a9059cbb906108ed90339085906004016139cb565b602060405180830381600087803b15801561090757600080fd5b505af115801561091b573d6000803e3d6000fd5b505050506040513d601f19601f8201168201806040525081019061093f91906130de565b5060006012600086600281111561096657634e487b7160e01b600052602160045260246000fd5b600281111561098557634e487b7160e01b600052602160045260246000fd5b81526020019081526020016000206000336001600160a01b03166001600160a01b03168152602001908152602001600020819055507fac4b7f84df43766362cc5996cfd81888ae4ee76e3e429f0d2f3660404aea1829600654826040516109ed929190613a94565b60405180910390a1505060016000555050565b6002546001600160a01b03163314610a2a5760405162461bcd60e51b815260040161046690613c60565b600e546001600160a01b0383811691161415610a585760405162461bcd60e51b815260040161046690613c80565b610a6c6001600160a01b0383163383611e09565b7f74545154aac348a3eac92596bd1971957ca94795f4e954ec5f613b55fab781298282604051610a9d9291906139cb565b60405180910390a15050565b600080610ab88385018561323d565b915091508160011415610ad457610ace81611e91565b50610b0e565b8160021415610aeb57610ae681611fe0565b610b0e565b8160031415610afc57610ae6612260565b8160041415610b0e57610b0e816123f9565b50505050565b6002546001600160a01b0316331480610b375750600c546001600160a01b031633145b610b535760405162461bcd60e51b815260040161046690613c90565b600260106000846002811115610b7957634e487b7160e01b600052602160045260246000fd5b6002811115610b9857634e487b7160e01b600052602160045260246000fd5b815260208101919091526040016000206002015460ff166004811115610bce57634e487b7160e01b600052602160045260246000fd5b14610beb5760405162461bcd60e51b815260040161046690613cb0565b600e54610c03906001600160a01b031633308461253f565b80600f6000846002811115610c2857634e487b7160e01b600052602160045260246000fd5b6002811115610c4757634e487b7160e01b600052602160045260246000fd5b8152602001908152602001600020600060065481526020019081526020016000206007016000828254610c7a9190613db9565b90915550506006546040517fa1c157de391a92665d22914b5834a188e801f4fbc466639ddc0063abff1df3bb90610cb49085908590613b3d565b60405180910390a25050565b6002546001600160a01b03163314610cea5760405162461bcd60e51b815260040161046690613c60565b6001600160a01b038116610d105760405162461bcd60e51b815260040161046690613c10565b6001600160a01b038216610d365760405162461bcd60e51b815260040161046690613c10565b600d80546001600160a01b0380841673ffffffffffffffffffffffffffffffffffffffff1992831617909255600c8054928516929091169190911790556040517fa6f7e8c500ff9602f43c07429562ca2a17f22d62c172a4fbb6aeb54bdc5e5c6490610a9d9083908590613988565b600060606000604051806060016040528060006002811115610dd757634e487b7160e01b600052602160045260246000fd5b6002811115610df657634e487b7160e01b600052602160045260246000fd5b81526020016001815260200160028152509050600060095460031415610e1a575060015b60005b6003811015611090576000838260038110610e4857634e487b7160e01b600052603260045260246000fd5b602002015190506000600f6000836002811115610e7557634e487b7160e01b600052602160045260246000fd5b6002811115610e9457634e487b7160e01b600052602160045260246000fd5b8152602001908152602001600020600060065481526020019081526020016000209050600060106000846002811115610edd57634e487b7160e01b600052602160045260246000fd5b6002811115610efc57634e487b7160e01b600052602160045260246000fd5b8152602001908152602001600020905060045442118015610f42575060028082015460ff166004811115610f4057634e487b7160e01b600052602160045260246000fd5b145b15610fc357600a8260030154108015610f5f575060058260060154105b15610f955760019750600483604051602001610f7c929190613b74565b604051602081830303815290604052965050505061107e565b60019750600183604051602001610fad929190613b74565b604051602081830303815290604052965061107a565b6003600282015460ff166004811115610fec57634e487b7160e01b600052602160045260246000fd5b141561100a5760019750600283604051602001610fad929190613b74565b6000600282015460ff16600481111561103357634e487b7160e01b600052602160045260246000fd5b14158015611042575060055442115b801561104b5750845b1561107a5760019750600383604051602001611068929190613b74565b60405160208183030381529060405296505b5050505b8061108881613ec5565b915050610e1d565b5050509250929050565b6002546001600160a01b031633146110c45760405162461bcd60e51b815260040161046690613c60565b6002546040516000916001600160a01b0316907f8be0079c531659141344cd1fd0a4f28419497f9722a3daafe3b4186f6b6457e0908390a36002805473ffffffffffffffffffffffffffffffffffffffff19169055565b333b1561113a5760405162461bcd60e51b815260040161046690613bd0565b3332146111595760405162461bcd60e51b815260040161046690613c50565b6002600054141561117c5760405162461bcd60e51b815260040161046690613cd0565b6002600055805161119f5760405162461bcd60e51b815260040161046690613c30565b600b54815111156111c25760405162461bcd60e51b815260040161046690613cf0565b6002601060008460028111156111e857634e487b7160e01b600052602160045260246000fd5b600281111561120757634e487b7160e01b600052602160045260246000fd5b815260208101919091526040016000206002015460ff16600481111561123d57634e487b7160e01b600052602160045260246000fd5b1461125a5760405162461bcd60e51b815260040161046690613cb0565b60006010600084600281111561128057634e487b7160e01b600052602160045260246000fd5b600281111561129f57634e487b7160e01b600052602160045260246000fd5b815260200190815260200160002090506000825182600001546112c29190613de5565b600e549091506112dd906001600160a01b031633308461253f565b6000600f600086600281111561130357634e487b7160e01b600052602160045260246000fd5b600281111561132257634e487b7160e01b600052602160045260246000fd5b81526020808201929092526040908101600090812060065482528352818120338252600b8101909352205490915061136c5760068101805490600061136683613ec5565b91905055505b818360010160008282546113809190613db9565b92505081905550611392858551612560565b61139c8585612632565b6113a585612780565b336001600160a01b03166006547fa8833300989dff6c7036c28e17e6309e566c7cb5fc69a76e0dc73a0769eba2d987875187600101546040516113ea93929190613b4b565b60405180910390a350506001600055505050565b3360009081526013602052604081208054829182918291908690811061143457634e487b7160e01b600052603260045260246000fd5b6000918252602090912060039091020180546001820154600290920154909760ff9092169650945092505050565b336001600160a01b037f000000000000000000000000000000000000000000000000000000000000000016146114aa5760405162461bcd60e51b815260040161046690613c70565b6114b482826128ca565b5050565b6040517f70a082310000000000000000000000000000000000000000000000000000000081526000906001600160a01b037f000000000000000000000000000000000000000000000000000000000000000016906370a082319061152090309060040161397a565b60206040518083038186803b15801561153857600080fd5b505afa15801561154c573d6000803e3d6000fd5b505050506040513d601f19601f820116820180604052508101906115709190613288565b905090565b6060600060606000806000600f60008960028111156115a457634e487b7160e01b600052602160045260246000fd5b60028111156115c357634e487b7160e01b600052602160045260246000fd5b81526020019081526020016000206000888152602001908152602001600020905080600101816003015482600501836008015484600901548480548060200260200160405190810160405280929190818152602001828054801561165057602002820191906000526020600020905b81546001600160a01b03168152600190910190602001808311611632575b50505050509450828054806020026020016040519081016040528092919081815260200182805480156116a257602002820191906000526020600020905b81548152602001906001019080831161168e575b5050505050925095509550955095509550509295509295909350565b600080601060008460028111156116e557634e487b7160e01b600052602160045260246000fd5b600281111561170457634e487b7160e01b600052602160045260246000fd5b81526020810191909152604001600020600101549392505050565b6002546001600160a01b031633146117495760405162461bcd60e51b815260040161046690613c60565b60065460009081527ff4803e074bd026baaf6ed2e288c9515f68c72fb7216eebdd7cae1718a53ec375602052604081206003810154600a118015611791575060058160060154105b6117ad5760405162461bcd60e51b815260040161046690613c00565b60065460009081527f169f97de0d9a84d840042b17d3c6b9638b3d6fd9024c9eb0c7a306a17b49f88f60205260409020600381015460019190600a1180156117f9575060058160060154105b6118155760405162461bcd60e51b815260040161046690613c00565b60065460009081527fa74ba3945261e09fde15ba3db55005b205e61eeb4ad811ac0faa2b315bffeead60205260409020600381015460029190600a118015611861575060058160060154105b61187d5760405162461bcd60e51b815260040161046690613c00565b60408051606081018252600080825260016020830152600292820192909252905b60038110156118f75760008282600381106118c957634e487b7160e01b600052603260045260246000fd5b602002015190506118db816000611d79565b6118e4816123f9565b50806118ef81613ec5565b91505061189e565b50600060098190556006546040517f38960c0800e981febc869f33d307d21683c7a1f85845bfe665071f160292c080926106cb9291429190613d51565b333b156119535760405162461bcd60e51b815260040161046690613bd0565b3332146119725760405162461bcd60e51b815260040161046690613c50565b826012600082600281111561199757634e487b7160e01b600052602160045260246000fd5b60028111156119b657634e487b7160e01b600052602160045260246000fd5b8152602080820192909252604090810160009081203382529092529020546119f05760405162461bcd60e51b815260040161046690613bc0565b60026000541415611a135760405162461bcd60e51b815260040161046690613cd0565b600260008181556012918690811115611a3c57634e487b7160e01b600052602160045260246000fd5b6002811115611a5b57634e487b7160e01b600052602160045260246000fd5b8152602080820192909252604090810160009081203382529092529020548314611a975760405162461bcd60e51b815260040161046690613ce0565b600260106000866002811115611abd57634e487b7160e01b600052602160045260246000fd5b6002811115611adc57634e487b7160e01b600052602160045260246000fd5b815260208101919091526040016000206002015460ff166004811115611b1257634e487b7160e01b600052602160045260246000fd5b14611b2f5760405162461bcd60e51b815260040161046690613cb0565b611b398483612632565b611b44848351612560565b600060126000866002811115611b6a57634e487b7160e01b600052602160045260246000fd5b6002811115611b8957634e487b7160e01b600052602160045260246000fd5b8152602080820192909252604090810160009081203380835293528190209290925560065491517f2c173f4ba2da4849fb4c77f9d6ddc4672ce502af948c755bbe001196ede5338991611be0918891908890613ae5565b60405180910390a2505060016000555050565b60008060106000846002811115611c1a57634e487b7160e01b600052602160045260246000fd5b6002811115611c3957634e487b7160e01b600052602160045260246000fd5b815260208101919091526040016000206002015460ff169392505050565b600060126000836002811115611c7d57634e487b7160e01b600052602160045260246000fd5b6002811115611c9c57634e487b7160e01b600052602160045260246000fd5b81526020808201929092526040908101600090812033825290925290205492915050565b6002546001600160a01b03163314611cea5760405162461bcd60e51b815260040161046690613c60565b6001600160a01b038116611d105760405162461bcd60e51b815260040161046690613ba0565b6002546040516001600160a01b038084169216907f8be0079c531659141344cd1fd0a4f28419497f9722a3daafe3b4186f6b6457e090600090a36002805473ffffffffffffffffffffffffffffffffffffffff19166001600160a01b0392909216919091179055565b600060106000846002811115611d9f57634e487b7160e01b600052602160045260246000fd5b6002811115611dbe57634e487b7160e01b600052602160045260246000fd5b81526020810191909152604001600020600281018054919250839160ff19166001836004811115611dff57634e487b7160e01b600052602160045260246000fd5b0217905550505050565b611e8c8363a9059cbb60e01b8484604051602401611e289291906139cb565b60408051601f198184030181529190526020810180517bffffffffffffffffffffffffffffffffffffffffffffffffffffffff167fffffffff00000000000000000000000000000000000000000000000000000000909316929092179091526128f3565b505050565b60006008547f00000000000000000000000000000000000000000000000000000000000000006001600160a01b03166370a08231306040518263ffffffff1660e01b8152600401611ee2919061397a565b60206040518083038186803b158015611efa57600080fd5b505afa158015611f0e573d6000803e3d6000fd5b505050506040513d601f19601f82011682018060405250810190611f329190613288565b1015611f505760405162461bcd60e51b815260040161046690613be0565b611f5e600754600854612982565b60008181526011602052604090208054919250839160ff19166001836002811115611f9957634e487b7160e01b600052602160045260246000fd5b02179055506006547f79aa71bc7ac44ef46960b6e440cf08b63d9c1db4d3af7374da8c13371d369b10836003604051611fd3929190613b22565b60405180910390a2919050565b6000600f600083600281111561200657634e487b7160e01b600052602160045260246000fd5b600281111561202557634e487b7160e01b600052602160045260246000fd5b815260200190815260200160002060006006548152602001908152602001600020905060006010600084600281111561206e57634e487b7160e01b600052602160045260246000fd5b600281111561208d57634e487b7160e01b600052602160045260246000fd5b81526020019081526020016000209050600080600090505b600a548110156121c4576121308460010182815481106120d557634e487b7160e01b600052603260045260246000fd5b6000918252602090912001546004860180546001600160a01b03909216918490811061211157634e487b7160e01b600052603260045260246000fd5b600091825260209091200154600e546001600160a01b03169190611e09565b83600401818154811061215357634e487b7160e01b600052603260045260246000fd5b90600052602060002001548360010160008282546121719190613e04565b90915550506004840180548290811061219a57634e487b7160e01b600052603260045260246000fd5b9060005260206000200154826121b09190613db9565b9150806121bc81613ec5565b9150506120a5565b50600d5460018301546121fa916001600160a01b0316906121e790600290613dd1565b600e546001600160a01b03169190611e09565b612205846001611d79565b6009805490600061221583613ec5565b91905055507fef99a204a94c30b225058df07e102a2bb1ee4c08995f4a39eccf82e79e4731f9848460010183426040516122529493929190613af3565b60405180910390a150505050565b6009546003146122825760405162461bcd60e51b815260040161046690613c20565b6006805490600061229283613ec5565b90915550504260038190556122c8907f000000000000000000000000000000000000000000000000000000000000000090613db9565b60048190556122f8907f000000000000000000000000000000000000000000000000000000000000000090613db9565b60055560408051606081018252600080825260016020830152600292820192909252905b60038110156123ac5760065460008181527ff4803e074bd026baaf6ed2e288c9515f68c72fb7216eebdd7cae1718a53ec3756020526040902090815560038054600883015560045460098301556123999084908490811061238d57634e487b7160e01b600052603260045260246000fd5b60200201516002611d79565b50806123a481613ec5565b91505061231c565b5060006009556006546004546005546040517fb15bf0ec96989b8686c290ff167b6855edaa07d0e6b8458f665125e648190684926123ee929091600290613d51565b60405180910390a250565b6000600f600083600281111561241f57634e487b7160e01b600052602160045260246000fd5b600281111561243e57634e487b7160e01b600052602160045260246000fd5b815260200190815260200160002060006006548152602001908152602001600020905060005b816003015481101561251a576000818152600a830160209081526040808320546001600160a01b0316808452600b860190925282205490916012908660028111156124bf57634e487b7160e01b600052602160045260246000fd5b60028111156124de57634e487b7160e01b600052602160045260246000fd5b8152602080820192909252604090810160009081206001600160a01b03909516815293909152909120558061251281613ec5565b915050612464565b50612526826001611d79565b6009805490600061253683613ec5565b91905055505050565b610b0e846323b872dd60e01b858585604051602401611e28939291906139a3565b336000818152601360205260408120805460018101808355938352928390811061259a57634e487b7160e01b600052603260045260246000fd5b90600052602060002090600302019050428160000181905550838160010160006101000a81548160ff021916908360028111156125e757634e487b7160e01b600052602160045260246000fd5b021790555060028101839055805460018201546040517f60850aec46dea3854368ebe9087866f660da4b915e21945cfbc2e673935ab4d29261225292869260ff909116908890613d29565b6000600f600084600281111561265857634e487b7160e01b600052602160045260246000fd5b600281111561267757634e487b7160e01b600052602160045260246000fd5b815260200190815260200160002060006006548152602001908152602001600020905060005b825181101561276057816002018382815181106126ca57634e487b7160e01b600052603260045260246000fd5b602090810291909101810151825460018101845560009384529183209091015583513391600a85019186908590811061271357634e487b7160e01b600052603260045260246000fd5b6020026020010151815260200190815260200160002060006101000a8154816001600160a01b0302191690836001600160a01b03160217905550808061275890613ec5565b91505061269d565b5081518160030160008282546127769190613db9565b9091555050505050565b6000600f60008360028111156127a657634e487b7160e01b600052602160045260246000fd5b60028111156127c557634e487b7160e01b600052602160045260246000fd5b815260200190815260200160002060006006548152602001908152602001600020905060006010600084600281111561280e57634e487b7160e01b600052602160045260246000fd5b600281111561282d57634e487b7160e01b600052602160045260246000fd5b8152602001908152602001600020600101549050600060648260196128529190613de5565b61285c9190613dd1565b90506000606461286d84600f613de5565b6128779190613dd1565b90506000606461288885600a613de5565b6128929190613dd1565b9050604051806060016040528084815260200183815260200182815250856004019060036128c1929190612ef7565b50505050505050565b60008281526011602052604081205460ff16906128e78284612ac9565b9050610b0e8282612c15565b6000612948826040518060400160405280602081526020017f5361666545524332303a206c6f772d6c6576656c2063616c6c206661696c6564815250856001600160a01b0316612d7c9092919063ffffffff16565b805190915015611e8c578080602001905181019061296691906130de565b611e8c5760405162461bcd60e51b815260040161046690613cc0565b60007f00000000000000000000000000000000000000000000000000000000000000006001600160a01b0316634000aea07f0000000000000000000000000000000000000000000000000000000000000000848660006040516020016129e9929190613a94565b6040516020818303038152906040526040518463ffffffff1660e01b8152600401612a16939291906139e6565b602060405180830381600087803b158015612a3057600080fd5b505af1158015612a44573d6000803e3d6000fd5b505050506040513d601f19601f82011682018060405250810190612a6891906130de565b50600083815260016020526040812054612a8790859083903090612d95565b600085815260016020819052604090912054919250612aa69190613db9565b600085815260016020526040902055612abf8482612dd2565b9150505b92915050565b60606000600f6000856002811115612af157634e487b7160e01b600052602160045260246000fd5b6002811115612b1057634e487b7160e01b600052602160045260246000fd5b8152602001908152602001600020600060065481526020019081526020016000209050600a5467ffffffffffffffff811115612b5c57634e487b7160e01b600052604160045260246000fd5b604051908082528060200260200182016040528015612b85578160200160208202803683370190505b50915060005b600a54811015612c0d5781600301548482604051602001612bad929190613a94565b6040516020818303038152906040528051906020012060001c612bd09190613ee0565b838281518110612bf057634e487b7160e01b600052603260045260246000fd5b602090810291909101015280612c0581613ec5565b915050612b8b565b505092915050565b6000600f6000846002811115612c3b57634e487b7160e01b600052602160045260246000fd5b6002811115612c5a57634e487b7160e01b600052602160045260246000fd5b815260200190815260200160002060006006548152602001908152602001600020905060005b600a54811015612d7057600082600201848381518110612cb057634e487b7160e01b600052603260045260246000fd5b602002602001015181548110612cd657634e487b7160e01b600052603260045260246000fd5b6000918252602080832090910154808352600a86019091526040909120546001850180549293506001600160a01b039091169184908110612d2757634e487b7160e01b600052603260045260246000fd5b6000918252602090912001805473ffffffffffffffffffffffffffffffffffffffff19166001600160a01b03929092169190911790555080612d6881613ec5565b915050612c80565b50611e8c836003611d79565b6060612d8b8484600085612e05565b90505b9392505050565b600084848484604051602001612dae9493929190613aa2565b6040516020818303038152906040528051906020012060001c90505b949350505050565b60008282604051602001612de7929190613950565b60405160208183030381529060405280519060200120905092915050565b606082471015612e275760405162461bcd60e51b815260040161046690613bf0565b843b612e455760405162461bcd60e51b815260040161046690613ca0565b600080866001600160a01b03168587604051612e619190613970565b60006040518083038185875af1925050503d8060008114612e9e576040519150601f19603f3d011682016040523d82523d6000602084013e612ea3565b606091505b5091509150612eb3828286612ebe565b979650505050505050565b60608315612ecd575081612d8e565b825115612edd5782518084602001fd5b8160405162461bcd60e51b81526004016104669190613b8f565b828054828255906000526020600020908101928215612f32579160200282015b82811115612f32578251825591602001919060010190612f17565b50612f3e929150612f42565b5090565b5b80821115612f3e5760008155600101612f43565b6000612f6a612f6584613d95565b613d79565b90508083825260208201905082856020860285011115612f8957600080fd5b60005b85811015612fb357612f9e8783612ff3565b83526020928301929190910190600101612f8c565b5050509392505050565b8035612ac381613f7b565b600082601f830112612fd8578081fd5b8135612abf848260208601612f57565b8051612ac381613f8f565b8035612ac381613f97565b60008083601f84011261300f578182fd5b50813567ffffffffffffffff811115613026578182fd5b60208301915083600182028301111561303e57600080fd5b9250929050565b8035612ac381613f9d565b8051612ac381613f97565b60006020828403121561306c578081fd5b612d8e83828401612fbd565b6000806040838503121561308a578081fd5b61309684828501612fbd565b915060206130a685828601612fbd565b9150509250929050565b600080604083850312156130c2578182fd5b6130ce84838501612fbd565b915060206130a685828601612ff3565b6000602082840312156130ef578081fd5b612d8e83828401612fe8565b6000806040838503121561310d578182fd5b6130ce84838501612ff3565b6000806020838503121561312b578182fd5b8183013567ffffffffffffffff811115613143578283fd5b61314f85828601612ffe565b92509250509250929050565b60006020828403121561316c578081fd5b612d8e83828401613045565b6000806040838503121561318a578182fd5b61319684838501613045565b9150602083013567ffffffffffffffff8111156131b1578182fd5b6130a685828601612fc8565b600080604083850312156131cf578182fd5b6130ce84838501613045565b6000806000606084860312156131ef578081fd5b6131fb85828601613045565b9250602061320b86828701612ff3565b925050604084013567ffffffffffffffff811115613227578182fd5b61323386828701612fc8565b9150509250925092565b6000806040838503121561324f578182fd5b61325b84838501612ff3565b915060206130a685828601613045565b60006020828403121561327c578081fd5b612d8e83828401612ff3565b600060208284031215613299578081fd5b612d8e83828401613050565b6132af82826132c0565b5060200190565b6132af82826133a0565b6132c981613e1b565b82525050565b60006132d9825190565b8084526020938401938301825b8281101561330b5781516132fa87826132a5565b9650506020820191506001016132e6565b5093949350505050565b600061331f825490565b8084526000838152602090819020940193825b8281101561330b5761334382613f4c565b61334d87826132a5565b96505060019182019101613332565b6000613366825190565b8084526020938401938301825b8281101561330b57815161338787826132b6565b965050602082019150600101613373565b8015156132c9565b806132c9565b60006133b0825190565b8084526020840193506133c7818560208601613e6c565b601f01601f19169290920192915050565b60006133e2825190565b6133f0818560208601613e6c565b9290920192915050565b6132c981613e40565b6132c981613e4b565b6132c981613e56565b6132c981613e61565b60268152602081017f4f776e61626c653a206e6577206f776e657220697320746865207a65726f206181527f6464726573730000000000000000000000000000000000000000000000000000602082015290505b60400190565b60268152602081017f536f7272792063616e20616374697661746520617320726166666c652069732081527f616374697665000000000000000000000000000000000000000000000000000060208201529050613472565b60148152602081017f596f752068617665206e6f20726f6c6c6f766572000000000000000000000000815290505b60200190565b60148152602081017f436f6e7472616374206e6f7420616c6c6f776564000000000000000000000000815290506134fe565b602b8152602081017f4e6f7420656e6f756768204c494e4b202d2066696c6c20636f6e74726163742081527f776974682066617563657400000000000000000000000000000000000000000060208201529050613472565b60268152602081017f416464726573733a20696e73756666696369656e742062616c616e636520666f81527f722063616c6c000000000000000000000000000000000000000000000000000060208201529050613472565b60278152602081017f536f7272792063616e206e6f74206465616374697661746520612076616c696481527f20726166666c650000000000000000000000000000000000000000000000000060208201529050613472565b60168152602081017f43616e6e6f74206265207a65726f206164647265737300000000000000000000815290506134fe565b60198152602081017f5265626f6f7420636865636b206e6f7420636f6d706c65746500000000000000815290506134fe565b60138152602081017f4e6f207469636b65742073706563696669656400000000000000000000000000815290506134fe565b60138152602081017f526166666c65206e6f7420496e61637469766500000000000000000000000000815290506134fe565b601a8152602081017f50726f787920636f6e7472616374206e6f7420616c6c6f776564000000000000815290506134fe565b60208082527f4f776e61626c653a2063616c6c6572206973206e6f7420746865206f776e657291019081526134fe565b601f8152602081017f4f6e6c7920565246436f6f7264696e61746f722063616e2066756c66696c6c00815290506134fe565b60148152602081017f43616e6e6f74206265205553444320746f6b656e000000000000000000000000815290506134fe565b60158152602081017f4e6f74206f776e6572206f7220696e6a6563746f720000000000000000000000815290506134fe565b601d8152602081017f416464726573733a2063616c6c20746f206e6f6e2d636f6e7472616374000000815290506134fe565b600f8152602081017f526166666c65206e6f74206f70656e0000000000000000000000000000000000815290506134fe565b602a8152602081017f5361666545524332303a204552433230206f7065726174696f6e20646964206e81527f6f7420737563636565640000000000000000000000000000000000000000000060208201529050613472565b601f8152602081017f5265656e7472616e637947756172643a207265656e7472616e742063616c6c00815290506134fe565b601f8152602081017f6e6f206d6174636820696e207469636b65747320746f20726f6c6c6f76657200815290506134fe565b60108152602081017f546f6f206d616e79207469636b65747300000000000000000000000000000000815290506134fe565b61395a81846133a0565b60200161396781836133a0565b60200192915050565b612ac381836133d8565b60208101612ac382846132c0565b6040810161399682856132c0565b612d8e60208301846132c0565b606081016139b182866132c0565b6139be60208301856132c0565b612dca60408301846133a0565b604081016139d982856132c0565b612d8e60208301846133a0565b606081016139f482866132c0565b613a0160208301856133a0565b8181036040830152613a1381846133a6565b95945050505050565b60a08082528101613a2d81886132cf565b9050613a3c60208301876133a0565b8181036040830152613a4e818661335c565b9050613a5d60608301856133a0565b613a6a60808301846133a0565b9695505050505050565b60408101613a828285613398565b8181036020830152612d8b81846133a6565b604081016139d982856133a0565b60808101613ab082876133a0565b613abd60208301866133a0565b613aca60408301856132c0565b613a1360608301846133a0565b60208101612ac382846133fa565b606081016139b18286613403565b60808101613b018287613403565b8181036020830152613b138186613315565b9050613aca60408301856133a0565b60408101613b308285613403565b612d8e602083018461340c565b604081016139d98285613403565b60608101613b598286613403565b6139be60208301856133a0565b60208101612ac3828461340c565b60408101613b828285613415565b612d8e6020830184613403565b60208082528101612d8e81846133a6565b60208082528101612ac38161341e565b60208082528101612ac381613478565b60208082528101612ac3816134d0565b60208082528101612ac381613504565b60208082528101612ac381613536565b60208082528101612ac38161358e565b60208082528101612ac3816135e6565b60208082528101612ac38161363e565b60208082528101612ac381613670565b60208082528101612ac3816136a2565b60208082528101612ac3816136d4565b60208082528101612ac381613706565b60208082528101612ac381613738565b60208082528101612ac381613768565b60208082528101612ac38161379a565b60208082528101612ac3816137cc565b60208082528101612ac3816137fe565b60208082528101612ac381613830565b60208082528101612ac381613862565b60208082528101612ac3816138ba565b60208082528101612ac3816138ec565b60208082528101612ac38161391e565b60208101612ac382846133a0565b60608101613d1c82866133a0565b6139be6020830185613403565b60808101613d3782876133a0565b613d4460208301866133a0565b613aca6040830185613403565b60608101613d5f82866133a0565b613d6c60208301856133a0565b612dca604083018461340c565b6000613d8460405190565b9050613d908282613e98565b919050565b600067ffffffffffffffff821115613daf57613daf613f36565b5060209081020190565b60008219821115613dcc57613dcc613ef4565b500190565b600082613de057613de0613f0a565b500490565b6000816000190483118215151615613dff57613dff613ef4565b500290565b600082821015613e1657613e16613ef4565b500390565b60006001600160a01b038216612ac3565b80613d9081613f58565b80613d9081613f6b565b6000612ac382613e1b565b6000612ac382613e2c565b6000612ac382613e36565b600060ff8216612ac3565b60005b83811015613e87578181015183820152602001613e6f565b83811115610b0e5750506000910152565b601f19601f830116810181811067ffffffffffffffff82111715613ebe57613ebe613f36565b6040525050565b6000600019821415613ed957613ed9613ef4565b5060010190565b600082613eef57613eef613f0a565b500690565b634e487b7160e01b600052601160045260246000fd5b634e487b7160e01b600052601260045260246000fd5b634e487b7160e01b600052602160045260246000fd5b634e487b7160e01b600052604160045260246000fd5b6000612ac38254613e1b565b60038110613f6857613f68613f20565b50565b60058110613f6857613f68613f20565b613f8481613e1b565b8114613f6857600080fd5b801515613f84565b80613f84565b60038110613f6857600080fdfea26469706673582212207c3187e38789c0ea2ef930924860bd49651a86487cf1ad3f99644c4cf3868c9064736f6c63430008040033",
  "linkReferences": {},
  "deployedLinkReferences": {}
}