{
  "_format": "hh-sol-artifact-1",
  "contractName": "Raffle",
  "sourceName": "contracts/Raffle.sol",
  "abi": [
    {
      "inputs": [
        {
          "internalType": "address",
          "name": "_vrfCoordinator",
          "type": "address"
        },
        {
          "internalType": "address",
          "name": "_link",
          "type": "address"
        },
        {
          "internalType": "bytes32",
          "name": "_keyHash",
          "type": "bytes32"
        },
        {
          "internalType": "uint256",
          "name": "_fee",
          "type": "uint256"
        },
        {
          "internalType": "address",
          "name": "_USDCtoken",
          "type": "address"
        }
      ],
      "stateMutability": "nonpayable",
      "type": "constructor"
    },
    {
      "anonymous": false,
      "inputs": [
        {
          "indexed": false,
          "internalType": "address",
          "name": "token",
          "type": "address"
        },
        {
          "indexed": false,
          "internalType": "uint256",
          "name": "amount",
          "type": "uint256"
        }
      ],
      "name": "AdminTokenRecovery",
      "type": "event"
    },
    {
      "anonymous": false,
      "inputs": [
        {
          "indexed": false,
          "internalType": "enum Raffle.RaffleCategory",
          "name": "raffleCategory",
          "type": "uint8"
        },
        {
          "indexed": true,
          "internalType": "uint256",
          "name": "raffleId",
          "type": "uint256"
        },
        {
          "indexed": false,
          "internalType": "uint256",
          "name": "injectedAmount",
          "type": "uint256"
        }
      ],
      "name": "LotteryInjection",
      "type": "event"
    },
    {
      "anonymous": false,
      "inputs": [
        {
          "indexed": false,
          "internalType": "address",
          "name": "treasuryAddress",
          "type": "address"
        },
        {
          "indexed": false,
          "internalType": "address",
          "name": "injectorAddress",
          "type": "address"
        }
      ],
      "name": "NewTreasuryAndInjectorAddresses",
      "type": "event"
    },
    {
      "anonymous": false,
      "inputs": [
        {
          "indexed": false,
          "internalType": "uint256",
          "name": "txIndex",
          "type": "uint256"
        },
        {
          "indexed": false,
          "internalType": "uint256",
          "name": "timestamp",
          "type": "uint256"
        },
        {
          "indexed": false,
          "internalType": "enum Raffle.RaffleCategory",
          "name": "raffleCategory",
          "type": "uint8"
        },
        {
          "indexed": false,
          "internalType": "uint256",
          "name": "noOfTickets",
          "type": "uint256"
        }
      ],
      "name": "NewUserTransaction",
      "type": "event"
    },
    {
      "anonymous": false,
      "inputs": [
        {
          "indexed": true,
          "internalType": "address",
          "name": "previousOwner",
          "type": "address"
        },
        {
          "indexed": true,
          "internalType": "address",
          "name": "newOwner",
          "type": "address"
        }
      ],
      "name": "OwnershipTransferred",
      "type": "event"
    },
    {
      "anonymous": false,
      "inputs": [
        {
          "indexed": false,
          "internalType": "uint256",
          "name": "raffleID",
          "type": "uint256"
        },
        {
          "indexed": false,
          "internalType": "uint256",
          "name": "timeStamp",
          "type": "uint256"
        },
        {
          "indexed": false,
          "internalType": "enum Raffle.RaffleState",
          "name": "raffleState",
          "type": "uint8"
        }
      ],
      "name": "RaffleDeactivated",
      "type": "event"
    },
    {
      "anonymous": false,
      "inputs": [
        {
          "indexed": false,
          "internalType": "enum Raffle.RaffleCategory",
          "name": "category",
          "type": "uint8"
        },
        {
          "indexed": true,
          "internalType": "uint256",
          "name": "raffleId",
          "type": "uint256"
        },
        {
          "indexed": false,
          "internalType": "enum Raffle.RaffleState",
          "name": "raffleState",
          "type": "uint8"
        }
      ],
      "name": "RaffleEnded",
      "type": "event"
    },
    {
      "anonymous": false,
      "inputs": [
        {
          "indexed": true,
          "internalType": "uint256",
          "name": "raffleId",
          "type": "uint256"
        },
        {
          "indexed": false,
          "internalType": "uint256",
          "name": "endTime",
          "type": "uint256"
        },
        {
          "indexed": false,
          "internalType": "uint256",
          "name": "rebootEndTime",
          "type": "uint256"
        },
        {
          "indexed": false,
          "internalType": "enum Raffle.RaffleState",
          "name": "raffleState",
          "type": "uint8"
        }
      ],
      "name": "RaffleOpen",
      "type": "event"
    },
    {
      "anonymous": false,
      "inputs": [
        {
          "indexed": false,
          "internalType": "uint256",
          "name": "raffleID",
          "type": "uint256"
        },
        {
          "indexed": false,
          "internalType": "uint256",
          "name": "timeStamp",
          "type": "uint256"
        },
        {
          "indexed": false,
          "internalType": "enum Raffle.RaffleState",
          "name": "raffleState",
          "type": "uint8"
        }
      ],
      "name": "RaffleReactivated",
      "type": "event"
    },
    {
      "anonymous": false,
      "inputs": [
        {
          "indexed": false,
          "internalType": "enum Raffle.RaffleCategory",
          "name": "raffleCategory",
          "type": "uint8"
        },
        {
          "indexed": true,
          "internalType": "uint256",
          "name": "raffleId",
          "type": "uint256"
        },
        {
          "indexed": false,
          "internalType": "address",
          "name": "buyer",
          "type": "address"
        },
        {
          "indexed": false,
          "internalType": "uint256",
          "name": "noOfTickets",
          "type": "uint256"
        }
      ],
      "name": "RolloverClaimed",
      "type": "event"
    },
    {
      "anonymous": false,
      "inputs": [
        {
          "indexed": false,
          "internalType": "enum Raffle.RaffleCategory",
          "name": "raffleCategory",
          "type": "uint8"
        },
        {
          "indexed": true,
          "internalType": "uint256",
          "name": "raffleId",
          "type": "uint256"
        },
        {
          "indexed": true,
          "internalType": "address",
          "name": "buyer",
          "type": "address"
        },
        {
          "indexed": false,
          "internalType": "uint256",
          "name": "numberTickets",
          "type": "uint256"
        },
        {
          "indexed": false,
          "internalType": "uint256",
          "name": "rafflePool",
          "type": "uint256"
        }
      ],
      "name": "TicketsPurchased",
      "type": "event"
    },
    {
      "anonymous": false,
      "inputs": [
        {
          "indexed": false,
          "internalType": "enum Raffle.RaffleCategory",
          "name": "raffleCategory",
          "type": "uint8"
        },
        {
          "indexed": false,
          "internalType": "address[]",
          "name": "winners",
          "type": "address[]"
        },
        {
          "indexed": false,
          "internalType": "uint256",
          "name": "amount",
          "type": "uint256"
        },
        {
          "indexed": false,
          "internalType": "uint256",
          "name": "timestamp",
          "type": "uint256"
        }
      ],
      "name": "WinnersAwarded",
      "type": "event"
    },
    {
      "anonymous": false,
      "inputs": [
        {
          "indexed": false,
          "internalType": "uint256",
          "name": "raffleID",
          "type": "uint256"
        },
        {
          "indexed": false,
          "internalType": "uint256",
          "name": "amount",
          "type": "uint256"
        }
      ],
      "name": "WithdrawalComplete",
      "type": "event"
    },
    {
      "inputs": [
        {
          "internalType": "address",
          "name": "_injectorAddress",
          "type": "address"
        },
        {
          "internalType": "address",
          "name": "_treasuryAddress",
          "type": "address"
        }
      ],
      "name": "SetInjectorAndTreasuryAdresses",
      "outputs": [],
      "stateMutability": "nonpayable",
      "type": "function"
    },
    {
      "inputs": [],
      "name": "USDCtoken",
      "outputs": [
        {
          "internalType": "contract IERC20",
          "name": "",
          "type": "address"
        }
      ],
      "stateMutability": "view",
      "type": "function"
    },
    {
      "inputs": [
        {
          "internalType": "enum Raffle.RaffleCategory",
          "name": "_category",
          "type": "uint8"
        },
        {
          "internalType": "uint32[]",
          "name": "_tickets",
          "type": "uint32[]"
        }
      ],
      "name": "buyTicket",
      "outputs": [],
      "stateMutability": "nonpayable",
      "type": "function"
    },
    {
      "inputs": [],
      "name": "checkLinkBalance",
      "outputs": [
        {
          "internalType": "uint256",
          "name": "",
          "type": "uint256"
        }
      ],
      "stateMutability": "view",
      "type": "function"
    },
    {
      "inputs": [
        {
          "internalType": "bytes",
          "name": "",
          "type": "bytes"
        }
      ],
      "name": "checkUpkeep",
      "outputs": [
        {
          "internalType": "bool",
          "name": "upkeepNeeded",
          "type": "bool"
        },
        {
          "internalType": "bytes",
          "name": "performData",
          "type": "bytes"
        }
      ],
      "stateMutability": "view",
      "type": "function"
    },
    {
      "inputs": [
        {
          "internalType": "enum Raffle.RaffleCategory",
          "name": "_category",
          "type": "uint8"
        },
        {
          "internalType": "uint256",
          "name": "_ticketsToRollover",
          "type": "uint256"
        },
        {
          "internalType": "uint32[]",
          "name": "_tickets",
          "type": "uint32[]"
        }
      ],
      "name": "claimRollover",
      "outputs": [],
      "stateMutability": "nonpayable",
      "type": "function"
    },
    {
      "inputs": [],
      "name": "currentTicketID",
      "outputs": [
        {
          "internalType": "uint256",
          "name": "",
          "type": "uint256"
        }
      ],
      "stateMutability": "view",
      "type": "function"
    },
    {
      "inputs": [],
      "name": "deactivateRaffle",
      "outputs": [],
      "stateMutability": "nonpayable",
      "type": "function"
    },
    {
      "inputs": [
        {
          "internalType": "enum Raffle.RaffleCategory",
          "name": "_category",
          "type": "uint8"
        }
      ],
      "name": "getCurrentRaffleState",
      "outputs": [
        {
          "internalType": "enum Raffle.RaffleState",
          "name": "raffleState",
          "type": "uint8"
        }
      ],
      "stateMutability": "view",
      "type": "function"
    },
    {
      "inputs": [],
      "name": "getRaffleEndTime",
      "outputs": [
        {
          "internalType": "uint256",
          "name": "",
          "type": "uint256"
        }
      ],
      "stateMutability": "view",
      "type": "function"
    },
    {
      "inputs": [
        {
          "internalType": "enum Raffle.RaffleCategory",
          "name": "_category",
          "type": "uint8"
        }
      ],
      "name": "getRafflePool",
      "outputs": [
        {
          "internalType": "uint256",
          "name": "",
          "type": "uint256"
        }
      ],
      "stateMutability": "view",
      "type": "function"
    },
    {
      "inputs": [],
      "name": "getRebootEndTime",
      "outputs": [
        {
          "internalType": "uint256",
          "name": "",
          "type": "uint256"
        }
      ],
      "stateMutability": "view",
      "type": "function"
    },
    {
      "inputs": [
        {
          "internalType": "address",
          "name": "_user",
          "type": "address"
        }
      ],
      "name": "getUserTransactionCount",
      "outputs": [
        {
          "internalType": "uint256",
          "name": "",
          "type": "uint256"
        }
      ],
      "stateMutability": "view",
      "type": "function"
    },
    {
      "inputs": [],
      "name": "getraffleID",
      "outputs": [
        {
          "internalType": "uint256",
          "name": "",
          "type": "uint256"
        }
      ],
      "stateMutability": "view",
      "type": "function"
    },
    {
      "inputs": [
        {
          "internalType": "address",
          "name": "_user",
          "type": "address"
        },
        {
          "internalType": "uint256",
          "name": "_txIndex",
          "type": "uint256"
        }
      ],
      "name": "getuserTransactionHistory",
      "outputs": [
        {
          "components": [
            {
              "internalType": "uint256",
              "name": "txID",
              "type": "uint256"
            },
            {
              "internalType": "uint256",
              "name": "time",
              "type": "uint256"
            },
            {
              "internalType": "enum Raffle.RaffleCategory",
              "name": "raffleCategory",
              "type": "uint8"
            },
            {
              "internalType": "uint256",
              "name": "noOfTickets",
              "type": "uint256"
            }
          ],
          "internalType": "struct Raffle.Transaction",
          "name": "userTransaction",
          "type": "tuple"
        }
      ],
      "stateMutability": "view",
      "type": "function"
    },
    {
      "inputs": [
        {
          "internalType": "enum Raffle.RaffleCategory",
          "name": "_category",
          "type": "uint8"
        },
        {
          "internalType": "uint256",
          "name": "_amount",
          "type": "uint256"
        }
      ],
      "name": "injectFunds",
      "outputs": [],
      "stateMutability": "nonpayable",
      "type": "function"
    },
    {
      "inputs": [],
      "name": "injectorAddress",
      "outputs": [
        {
          "internalType": "address",
          "name": "",
          "type": "address"
        }
      ],
      "stateMutability": "view",
      "type": "function"
    },
    {
      "inputs": [],
      "name": "maxNumberTicketsPerBuy",
      "outputs": [
        {
          "internalType": "uint256",
          "name": "",
          "type": "uint256"
        }
      ],
      "stateMutability": "view",
      "type": "function"
    },
    {
      "inputs": [],
      "name": "noOfWinners",
      "outputs": [
        {
          "internalType": "uint256",
          "name": "",
          "type": "uint256"
        }
      ],
      "stateMutability": "view",
      "type": "function"
    },
    {
      "inputs": [],
      "name": "owner",
      "outputs": [
        {
          "internalType": "address",
          "name": "",
          "type": "address"
        }
      ],
      "stateMutability": "view",
      "type": "function"
    },
    {
      "inputs": [
        {
          "internalType": "bytes",
          "name": "performData",
          "type": "bytes"
        }
      ],
      "name": "performUpkeep",
      "outputs": [],
      "stateMutability": "nonpayable",
      "type": "function"
    },
    {
      "inputs": [
        {
          "internalType": "bytes32",
          "name": "requestId",
          "type": "bytes32"
        },
        {
          "internalType": "uint256",
          "name": "randomness",
          "type": "uint256"
        }
      ],
      "name": "rawFulfillRandomness",
      "outputs": [],
      "stateMutability": "nonpayable",
      "type": "function"
    },
    {
      "inputs": [],
      "name": "reactivateRaffle",
      "outputs": [],
      "stateMutability": "nonpayable",
      "type": "function"
    },
    {
      "inputs": [],
      "name": "rebootChecker",
      "outputs": [
        {
          "internalType": "uint256",
          "name": "",
          "type": "uint256"
        }
      ],
      "stateMutability": "view",
      "type": "function"
    },
    {
      "inputs": [
        {
          "internalType": "address",
          "name": "_tokenAddress",
          "type": "address"
        },
        {
          "internalType": "uint256",
          "name": "_tokenAmount",
          "type": "uint256"
        }
      ],
      "name": "recoverWrongTokens",
      "outputs": [],
      "stateMutability": "nonpayable",
      "type": "function"
    },
    {
      "inputs": [],
      "name": "renounceOwnership",
      "outputs": [],
      "stateMutability": "nonpayable",
      "type": "function"
    },
    {
      "inputs": [
        {
          "internalType": "address",
          "name": "newOwner",
          "type": "address"
        }
      ],
      "name": "transferOwnership",
      "outputs": [],
      "stateMutability": "nonpayable",
      "type": "function"
    },
    {
      "inputs": [],
      "name": "treasuryAddress",
      "outputs": [
        {
          "internalType": "address",
          "name": "",
          "type": "address"
        }
      ],
      "stateMutability": "view",
      "type": "function"
    },
    {
      "inputs": [
        {
          "internalType": "enum Raffle.RaffleCategory",
          "name": "_category",
          "type": "uint8"
        },
        {
          "internalType": "uint256",
          "name": "_raffleID",
          "type": "uint256"
        }
      ],
      "name": "viewRaffle",
      "outputs": [
        {
          "components": [
            {
              "internalType": "uint256",
              "name": "ID",
              "type": "uint256"
            },
            {
              "internalType": "uint256",
              "name": "noOfTicketsSold",
              "type": "uint256"
            },
            {
              "internalType": "uint256",
              "name": "noOfPlayers",
              "type": "uint256"
            },
            {
              "internalType": "uint256",
              "name": "amountInjected",
              "type": "uint256"
            },
            {
              "internalType": "uint256[]",
              "name": "winnersPayout",
              "type": "uint256[]"
            },
            {
              "internalType": "address[]",
              "name": "winners",
              "type": "address[]"
            },
            {
              "internalType": "uint256[]",
              "name": "winningTickets",
              "type": "uint256[]"
            },
            {
              "internalType": "uint256",
              "name": "raffleStartTime",
              "type": "uint256"
            },
            {
              "internalType": "uint256",
              "name": "raffleEndTime",
              "type": "uint256"
            }
          ],
          "internalType": "struct Raffle.RaffleStruct",
          "name": "raffle",
          "type": "tuple"
        }
      ],
      "stateMutability": "view",
      "type": "function"
    },
    {
      "inputs": [
        {
          "internalType": "enum Raffle.RaffleCategory",
          "name": "_category",
          "type": "uint8"
        },
        {
          "internalType": "address",
          "name": "_user",
          "type": "address"
        }
      ],
      "name": "viewUserRollovers",
      "outputs": [
        {
          "internalType": "uint256",
          "name": "ticketsToRollover",
          "type": "uint256"
        }
      ],
      "stateMutability": "view",
      "type": "function"
    },
    {
      "inputs": [
        {
          "internalType": "enum Raffle.RaffleCategory",
          "name": "_category",
          "type": "uint8"
        },
        {
          "internalType": "address",
          "name": "_user",
          "type": "address"
        },
        {
          "internalType": "uint256",
          "name": "_raffleID",
          "type": "uint256"
        }
      ],
      "name": "viewUserTickets",
      "outputs": [
        {
          "internalType": "uint32[]",
          "name": "",
          "type": "uint32[]"
        }
      ],
      "stateMutability": "view",
      "type": "function"
    },
    {
      "inputs": [
        {
          "internalType": "enum Raffle.RaffleCategory",
          "name": "_category",
          "type": "uint8"
        }
      ],
      "name": "withdrawFundsDueToDeactivation",
      "outputs": [],
      "stateMutability": "nonpayable",
      "type": "function"
    }
  ],
  "bytecode": "0x610100604052611c2060c05261070860e0526003600b556103e8600c553480156200002957600080fd5b5060405162005392380380620053928339810160408190526200004c91620001aa565b600160009081556001600160601b0319606087811b821660a05286901b16608052620000753390565b600280546001600160a01b0319166001600160a01b038316908117909155604051919250906000907f8be0079c531659141344cd1fd0a4f28419497f9722a3daafe3b4186f6b6457e0908290a350600883905560098290556003600a55600f80546001600160a01b0319166001600160a01b0383161790556200017f6013602052670de0b6b3a76400007f8fa6efc3be94b5b348b21fea823fe8d100408cee9b7f90524494500445d8ff6c55678ac7230489e800007f4155c2f711f2cdd34f8262ab8fb9b7020a700fe7b6948222152f7670d1fdf34d55600260005268056bc75e2d631000007f0b9d2c0c271bb30544eb78c59bdaebdae2728e5f65814c07768a0abe90ed192355565b50505050506200025b565b805162000197816200023a565b92915050565b8051620001978162000254565b600080600080600060a08688031215620001c2578081fd5b620001d0878288016200018a565b94506020620001e2888289016200018a565b9450506040620001f5888289016200019d565b935050606062000208888289016200019d565b92505060806200021b888289016200018a565b9150509295509295909350565b60006001600160a01b03821662000197565b620002458162000228565b81146200025157600080fd5b50565b8062000245565b60805160601c60a05160601c60c05160e0516150e2620002b06000396000613204015260006131d4015260008181611b5701526136f1015260008181611bfc01528181612d4401526136b501526150e26000f3fe608060405234801561001057600080fd5b50600436106101f05760003560e01c80638da5cb5b1161010f578063c1aba43f116100a2578063e2fae27611610071578063e2fae27614610469578063f0e21cd91461047c578063f2fde38b14610485578063f53c7d081461049857600080fd5b8063c1aba43f146103eb578063c5f956af146103f3578063d8f3384014610413578063defc98f81461044957600080fd5b8063a24bf4ff116100de578063a24bf4ff146103a7578063a7390c8e146103af578063ad99854b146103cf578063b6e81a4d146103d857600080fd5b80638da5cb5b1461034557806394985ddd1461036c5780639c3846531461037f5780639eb386fd1461039f57600080fd5b80634585e33b116101875780636c6f693d116101565780636c6f693d146102e95780636e04ff0d146102fc578063715018a61461031d5780637cbd22fb1461032557600080fd5b80634585e33b146102b2578063518da0a4146102c55780635c0b95d4146102ce57806367bb60a0146102d657600080fd5b80632e23be9d116101c35780632e23be9d1461023f5780633f138d4b146102525780634185e5071461026557806344ab1d5c1461029257600080fd5b806313b42fa3146101f55780631de50d491461020f578063269ce1bb14610224578063280550961461022c575b600080fd5b6006545b6040516102069190614daa565b60405180910390f35b61022261021d3660046140f0565b6104a1565b005b6102226108a0565b61022261023a36600461406a565b610bae565b6101f961024d366004614087565b611000565b610222610260366004613fbf565b61109a565b600f546102859073ffffffffffffffffffffffffffffffffffffffff1681565b6040516102069190614b62565b6102a56102a03660046140a5565b61119e565b6040516102069190614aee565b6102226102c0366004614028565b6112a9565b6101f9600b5481565b6004546101f9565b6102226102e4366004614135565b611316565b6102226102f7366004613f87565b61151d565b61030f61030a366004614028565b61168f565b604051610206929190614aff565b61022261199e565b610338610333366004613fbf565b611a5e565b6040516102069190614d9c565b60025473ffffffffffffffffffffffffffffffffffffffff165b6040516102069190614a4c565b61022261037a36600461400a565b611b3f565b600d5461035f9073ffffffffffffffffffffffffffffffffffffffff1681565b6005546101f9565b6101f9611bbc565b6103c26103bd366004614135565b611c86565b6040516102069190614d8b565b6101f9600c5481565b6101f96103e636600461406a565b611ea6565b610222611f07565b600e5461035f9073ffffffffffffffffffffffffffffffffffffffff1681565b6101f9610421366004613f6a565b73ffffffffffffffffffffffffffffffffffffffff1660009081526016602052604090205490565b61045c61045736600461406a565b6121b9565b6040516102069190614bf1565b610222610477366004614153565b61221d565b6101f9600a5481565b610222610493366004613f6a565b612578565b6101f960075481565b333b156104e3576040517f08c379a00000000000000000000000000000000000000000000000000000000081526004016104da90614c5b565b60405180910390fd5b33321461051c576040517f08c379a00000000000000000000000000000000000000000000000000000000081526004016104da90614ccb565b60026000541415610559576040517f08c379a00000000000000000000000000000000000000000000000000000000081526004016104da90614d5b565b60026000558051610596576040517f08c379a00000000000000000000000000000000000000000000000000000000081526004016104da90614cbb565b600c54815111156105d3576040517f08c379a00000000000000000000000000000000000000000000000000000000081526004016104da90614d7b565b6002601360008460028111156105f957634e487b7160e01b600052602160045260246000fd5b600281111561061857634e487b7160e01b600052602160045260246000fd5b815260208101919091526040016000206002015460ff16600481111561064e57634e487b7160e01b600052602160045260246000fd5b14610685576040517f08c379a00000000000000000000000000000000000000000000000000000000081526004016104da90614d3b565b6000601360008460028111156106ab57634e487b7160e01b600052602160045260246000fd5b60028111156106ca57634e487b7160e01b600052602160045260246000fd5b8152602001908152602001600020905060006012600085600281111561070057634e487b7160e01b600052602160045260246000fd5b600281111561071f57634e487b7160e01b600052602160045260246000fd5b815260208082019290925260409081016000908120600654825290925281208451845491935061074e91614e74565b600f549091506107769073ffffffffffffffffffffffffffffffffffffffff163330846126a4565b336000908152601160205260408120908660028111156107a657634e487b7160e01b600052602160045260246000fd5b60028111156107c557634e487b7160e01b600052602160045260246000fd5b8152602080820192909252604090810160009081206006548252909252902054610801576002820180549060006107fb83614f9d565b91905055505b808360010160008282546108159190614e48565b92505081905550610827858551612747565b6108318585612894565b61083a85612b21565b3373ffffffffffffffffffffffffffffffffffffffff166006547fa8833300989dff6c7036c28e17e6309e566c7cb5fc69a76e0dc73a0769eba2d9878751876001015460405161088c93929190614bd6565b60405180910390a350506001600055505050565b60025473ffffffffffffffffffffffffffffffffffffffff1633146108f1576040517f08c379a00000000000000000000000000000000000000000000000000000000081526004016104da90614cdb565b600080805260136020527f8fa6efc3be94b5b348b21fea823fe8d100408cee9b7f90524494500445d8ff6e547f8fa6efc3be94b5b348b21fea823fe8d100408cee9b7f90524494500445d8ff6c9060049060ff168181111561096357634e487b7160e01b600052602160045260246000fd5b1461099a576040517f08c379a00000000000000000000000000000000000000000000000000000000081526004016104da90614d1b565b6001600081905260136020527f4155c2f711f2cdd34f8262ab8fb9b7020a700fe7b6948222152f7670d1fdf34f547f4155c2f711f2cdd34f8262ab8fb9b7020a700fe7b6948222152f7670d1fdf34d9060049060ff1681811115610a0e57634e487b7160e01b600052602160045260246000fd5b14610a45576040517f08c379a00000000000000000000000000000000000000000000000000000000081526004016104da90614d1b565b6002600081905260136020527f0b9d2c0c271bb30544eb78c59bdaebdae2728e5f65814c07768a0abe90ed1925547f0b9d2c0c271bb30544eb78c59bdaebdae2728e5f65814c07768a0abe90ed19239060049060ff1681811115610ab957634e487b7160e01b600052602160045260246000fd5b14610af0576040517f08c379a00000000000000000000000000000000000000000000000000000000081526004016104da90614d1b565b60408051606081018252600080825260016020830152600292820192909252905b6003811015610b61576000828260038110610b3c57634e487b7160e01b600052603260045260246000fd5b60200201519050610b4e816001612c6b565b5080610b5981614f9d565b915050610b11565b506003600a556006546040517f3e3fbe6edaa33edaf5f25f93631b45be609c9603eebf7d4d0976f0dec5dfdc0491610b9d914290600190614de0565b60405180910390a150505050505050565b333b15610be7576040517f08c379a00000000000000000000000000000000000000000000000000000000081526004016104da90614c5b565b333214610c20576040517f08c379a00000000000000000000000000000000000000000000000000000000081526004016104da90614ccb565b80600060136000836002811115610c4757634e487b7160e01b600052602160045260246000fd5b6002811115610c6657634e487b7160e01b600052602160045260246000fd5b8152602081019190915260400160002090506004600282015460ff166004811115610ca157634e487b7160e01b600052602160045260246000fd5b14610cd8576040517f08c379a00000000000000000000000000000000000000000000000000000000081526004016104da90614d1b565b60026000541415610d15576040517f08c379a00000000000000000000000000000000000000000000000000000000081526004016104da90614d5b565b600260008181556015918590811115610d3e57634e487b7160e01b600052602160045260246000fd5b6002811115610d5d57634e487b7160e01b600052602160045260246000fd5b815260208082019290925260409081016000908120338252909252902054610db1576040517f08c379a00000000000000000000000000000000000000000000000000000000081526004016104da90614c2b565b600060136000856002811115610dd757634e487b7160e01b600052602160045260246000fd5b6002811115610df657634e487b7160e01b600052602160045260246000fd5b81526020019081526020016000209050600060156000866002811115610e2c57634e487b7160e01b600052602160045260246000fd5b6002811115610e4b57634e487b7160e01b600052602160045260246000fd5b8152602080820192909252604090810160009081203382529092528120548354909250610e789083614e74565b600f546040517fa9059cbb00000000000000000000000000000000000000000000000000000000815291925073ffffffffffffffffffffffffffffffffffffffff169063a9059cbb90610ed19033908590600401614a9d565b602060405180830381600087803b158015610eeb57600080fd5b505af1158015610eff573d6000803e3d6000fd5b505050506040513d601f19601f82011682018060405250810190610f239190613fed565b50600060156000886002811115610f4a57634e487b7160e01b600052602160045260246000fd5b6002811115610f6957634e487b7160e01b600052602160045260246000fd5b815260200190815260200160002060003373ffffffffffffffffffffffffffffffffffffffff1673ffffffffffffffffffffffffffffffffffffffff168152602001908152602001600020819055507fac4b7f84df43766362cc5996cfd81888ae4ee76e3e429f0d2f3660404aea182960065482604051610feb929190614b1f565b60405180910390a15050600160005550505050565b60006015600084600281111561102657634e487b7160e01b600052602160045260246000fd5b600281111561104557634e487b7160e01b600052602160045260246000fd5b815260200190815260200160002060008373ffffffffffffffffffffffffffffffffffffffff1673ffffffffffffffffffffffffffffffffffffffff1681526020019081526020016000205490505b92915050565b60025473ffffffffffffffffffffffffffffffffffffffff1633146110eb576040517f08c379a00000000000000000000000000000000000000000000000000000000081526004016104da90614cdb565b600f5473ffffffffffffffffffffffffffffffffffffffff83811691161415611140576040517f08c379a00000000000000000000000000000000000000000000000000000000081526004016104da90614cfb565b61116173ffffffffffffffffffffffffffffffffffffffff83163383612d19565b7f74545154aac348a3eac92596bd1971957ca94795f4e954ec5f613b55fab781298282604051611192929190614a9d565b60405180910390a15050565b73ffffffffffffffffffffffffffffffffffffffff821660009081526011602052604081206060918560028111156111e657634e487b7160e01b600052602160045260246000fd5b600281111561120557634e487b7160e01b600052602160045260246000fd5b8152602001908152602001600020600083815260200190815260200160002080548060200260200160405190810160405280929190818152602001828054801561129a57602002820191906000526020600020906000905b82829054906101000a900463ffffffff1663ffffffff168152602001906004019060208260030104928301926001038202915080841161125d5790505b505050505090505b9392505050565b6000806112b8838501856141ab565b9150915081600114156112d4576112ce81612d3d565b50611310565b81600214156112eb576112e681612ed1565b611310565b81600314156112fc576112e6613177565b81600414156113105761131081600061338b565b50505050565b60025473ffffffffffffffffffffffffffffffffffffffff163314806113535750600d5473ffffffffffffffffffffffffffffffffffffffff1633145b611389576040517f08c379a00000000000000000000000000000000000000000000000000000000081526004016104da90614d0b565b6002601360008460028111156113af57634e487b7160e01b600052602160045260246000fd5b60028111156113ce57634e487b7160e01b600052602160045260246000fd5b815260208101919091526040016000206002015460ff16600481111561140457634e487b7160e01b600052602160045260246000fd5b1461143b576040517f08c379a00000000000000000000000000000000000000000000000000000000081526004016104da90614d3b565b600f546114609073ffffffffffffffffffffffffffffffffffffffff163330846126a4565b806012600084600281111561148557634e487b7160e01b600052602160045260246000fd5b60028111156114a457634e487b7160e01b600052602160045260246000fd5b81526020019081526020016000206000600654815260200190815260200160002060030160008282546114d79190614e48565b90915550506006546040517fa1c157de391a92665d22914b5834a188e801f4fbc466639ddc0063abff1df3bb906115119085908590614bc8565b60405180910390a25050565b60025473ffffffffffffffffffffffffffffffffffffffff16331461156e576040517f08c379a00000000000000000000000000000000000000000000000000000000081526004016104da90614cdb565b73ffffffffffffffffffffffffffffffffffffffff81166115bb576040517f08c379a00000000000000000000000000000000000000000000000000000000081526004016104da90614c9b565b73ffffffffffffffffffffffffffffffffffffffff8216611608576040517f08c379a00000000000000000000000000000000000000000000000000000000081526004016104da90614c9b565b600e805473ffffffffffffffffffffffffffffffffffffffff8084167fffffffffffffffffffffffff000000000000000000000000000000000000000092831617909255600d8054928516929091169190911790556040517fa6f7e8c500ff9602f43c07429562ca2a17f22d62c172a4fbb6aeb54bdc5e5c64906111929083908590614a5a565b6000606060006040518060600160405280600060028111156116c157634e487b7160e01b600052602160045260246000fd5b60028111156116e057634e487b7160e01b600052602160045260246000fd5b815260200160018152602001600281525090506000600a5460031415611704575060015b60005b600381101561199457600083826003811061173257634e487b7160e01b600052603260045260246000fd5b6020020151905060006012600083600281111561175f57634e487b7160e01b600052602160045260246000fd5b600281111561177e57634e487b7160e01b600052602160045260246000fd5b81526020019081526020016000206000600654815260200190815260200160002090506000601360008460028111156117c757634e487b7160e01b600052602160045260246000fd5b60028111156117e657634e487b7160e01b600052602160045260246000fd5b8152602081019190915260400160002090506001600282015460ff16600481111561182157634e487b7160e01b600052602160045260246000fd5b14801561182c575084155b1561183957505050611982565b6004544211801561186f575060028082015460ff16600481111561186d57634e487b7160e01b600052602160045260246000fd5b145b156118d957600a8260010154108061188b575060058260020154105b156118c157600197506004836040516020016118a8929190614bff565b6040516020818303038152906040529650505050611994565b600197506001836040516020016118a8929190614bff565b6003600282015460ff16600481111561190257634e487b7160e01b600052602160045260246000fd5b141561192057600197506002836040516020016118a8929190614bff565b6004600282015460ff16600481111561194957634e487b7160e01b600052602160045260246000fd5b14158015611958575060055442115b80156119615750845b1561197e57600197506003836040516020016118a8929190614bff565b5050505b8061198c81614f9d565b915050611707565b5050509250929050565b60025473ffffffffffffffffffffffffffffffffffffffff1633146119ef576040517f08c379a00000000000000000000000000000000000000000000000000000000081526004016104da90614cdb565b60025460405160009173ffffffffffffffffffffffffffffffffffffffff16907f8be0079c531659141344cd1fd0a4f28419497f9722a3daafe3b4186f6b6457e0908390a3600280547fffffffffffffffffffffffff0000000000000000000000000000000000000000169055565b611a66613db4565b73ffffffffffffffffffffffffffffffffffffffff83166000908152601660205260409020805483908110611aab57634e487b7160e01b600052603260045260246000fd5b906000526020600020906004020160405180608001604052908160008201548152602001600182015481526020016002820160009054906101000a900460ff166002811115611b0a57634e487b7160e01b600052602160045260246000fd5b6002811115611b2957634e487b7160e01b600052602160045260246000fd5b8152602001600382015481525050905092915050565b3373ffffffffffffffffffffffffffffffffffffffff7f00000000000000000000000000000000000000000000000000000000000000001614611bae576040517f08c379a00000000000000000000000000000000000000000000000000000000081526004016104da90614ceb565b611bb882826135d2565b5050565b6040517f70a0823100000000000000000000000000000000000000000000000000000000815260009073ffffffffffffffffffffffffffffffffffffffff7f000000000000000000000000000000000000000000000000000000000000000016906370a0823190611c31903090600401614a4c565b60206040518083038186803b158015611c4957600080fd5b505afa158015611c5d573d6000803e3d6000fd5b505050506040513d601f19601f82011682018060405250810190611c8191906141d9565b905090565b611cd56040518061012001604052806000815260200160008152602001600081526020016000815260200160608152602001606081526020016060815260200160008152602001600081525090565b60126000846002811115611cf957634e487b7160e01b600052602160045260246000fd5b6002811115611d1857634e487b7160e01b600052602160045260246000fd5b81526020019081526020016000206000838152602001908152602001600020604051806101200160405290816000820154815260200160018201548152602001600282015481526020016003820154815260200160048201805480602002602001604051908101604052809291908181526020018280548015611dba57602002820191906000526020600020905b815481526020019060010190808311611da6575b5050505050815260200160058201805480602002602001604051908101604052809291908181526020018280548015611e2957602002820191906000526020600020905b815473ffffffffffffffffffffffffffffffffffffffff168152600190910190602001808311611dfe575b5050505050815260200160068201805480602002602001604051908101604052809291908181526020018280548015611e8157602002820191906000526020600020905b815481526020019060010190808311611e6d575b5050505050815260200160078201548152602001600882015481525050905092915050565b60008060136000846002811115611ecd57634e487b7160e01b600052602160045260246000fd5b6002811115611eec57634e487b7160e01b600052602160045260246000fd5b81526020810191909152604001600020600101549392505050565b60025473ffffffffffffffffffffffffffffffffffffffff163314611f58576040517f08c379a00000000000000000000000000000000000000000000000000000000081526004016104da90614cdb565b60065460009081527f7e7fa33969761a458e04f477e039a608702b4f924981d6653935a8319a08ad7b602052604081206001810154600a1180611f9f575060058160020154105b611fd5576040517f08c379a00000000000000000000000000000000000000000000000000000000081526004016104da90614c8b565b60065460009081527f71a67924699a20698523213e55fe499d539379d7769cd5567e2c45d583f815a360205260409020600181810154909190600a1180612020575060058160020154105b612056576040517f08c379a00000000000000000000000000000000000000000000000000000000081526004016104da90614c8b565b60065460009081527f8e1fee8c88a9e04123b21e90cae2727a7715bf522a1e46eb5934ccd05203a6b260205260409020600181015460029190600a11806120a1575060058160020154105b6120d7576040517f08c379a00000000000000000000000000000000000000000000000000000000081526004016104da90614c8b565b60408051606081018252600080825260016020830152600292820192909252905b60038110156121715761213082826003811061212457634e487b7160e01b600052603260045260246000fd5b6020020151600161338b565b61215f82826003811061215357634e487b7160e01b600052603260045260246000fd5b60200201516004612c6b565b8061216981614f9d565b9150506120f8565b506000600a81905560048181556005919091556006546040517f38960c0800e981febc869f33d307d21683c7a1f85845bfe665071f160292c08092610b9d9291429190614de0565b600080601360008460028111156121e057634e487b7160e01b600052602160045260246000fd5b60028111156121ff57634e487b7160e01b600052602160045260246000fd5b815260208101919091526040016000206002015460ff169392505050565b333b15612256576040517f08c379a00000000000000000000000000000000000000000000000000000000081526004016104da90614c5b565b33321461228f576040517f08c379a00000000000000000000000000000000000000000000000000000000081526004016104da90614ccb565b82601560008260028111156122b457634e487b7160e01b600052602160045260246000fd5b60028111156122d357634e487b7160e01b600052602160045260246000fd5b815260208082019290925260409081016000908120338252909252902054612327576040517f08c379a00000000000000000000000000000000000000000000000000000000081526004016104da90614c4b565b60026000541415612364576040517f08c379a00000000000000000000000000000000000000000000000000000000081526004016104da90614d5b565b60026000818155601591869081111561238d57634e487b7160e01b600052602160045260246000fd5b60028111156123ac57634e487b7160e01b600052602160045260246000fd5b8152602080820192909252604090810160009081203382529092529020548314612402576040517f08c379a00000000000000000000000000000000000000000000000000000000081526004016104da90614d6b565b60026013600086600281111561242857634e487b7160e01b600052602160045260246000fd5b600281111561244757634e487b7160e01b600052602160045260246000fd5b815260208101919091526040016000206002015460ff16600481111561247d57634e487b7160e01b600052602160045260246000fd5b146124b4576040517f08c379a00000000000000000000000000000000000000000000000000000000081526004016104da90614d3b565b6124be8483612894565b6124c9848351612747565b6000601560008660028111156124ef57634e487b7160e01b600052602160045260246000fd5b600281111561250e57634e487b7160e01b600052602160045260246000fd5b8152602080820192909252604090810160009081203380835293528190209290925560065491517f2c173f4ba2da4849fb4c77f9d6ddc4672ce502af948c755bbe001196ede5338991612565918891908890614b70565b60405180910390a2505060016000555050565b60025473ffffffffffffffffffffffffffffffffffffffff1633146125c9576040517f08c379a00000000000000000000000000000000000000000000000000000000081526004016104da90614cdb565b73ffffffffffffffffffffffffffffffffffffffff8116612616576040517f08c379a00000000000000000000000000000000000000000000000000000000081526004016104da90614c3b565b60025460405173ffffffffffffffffffffffffffffffffffffffff8084169216907f8be0079c531659141344cd1fd0a4f28419497f9722a3daafe3b4186f6b6457e090600090a3600280547fffffffffffffffffffffffff00000000000000000000000000000000000000001673ffffffffffffffffffffffffffffffffffffffff92909216919091179055565b611310846323b872dd60e01b8585856040516024016126c593929190614a75565b604080517fffffffffffffffffffffffffffffffffffffffffffffffffffffffffffffffe08184030181529190526020810180517bffffffffffffffffffffffffffffffffffffffffffffffffffffffff167fffffffff00000000000000000000000000000000000000000000000000000000909316929092179091526135fb565b3360009081526016602052604090205461275f613db4565b8181524260208201526040810184600281111561278c57634e487b7160e01b600052602160045260246000fd5b908160028111156127ad57634e487b7160e01b600052602160045260246000fd5b9052506060810183905233600090815260166020908152604080832080546001818101835591855293839020855160049095020193845591840151838301558301516002808401805486959491927fffffffffffffffffffffffffffffffffffffffffffffffffffffffffffffff009091169190849081111561284057634e487b7160e01b600052602160045260246000fd5b02179055506060820151816003015550507f60850aec46dea3854368ebe9087866f660da4b915e21945cfbc2e673935ab4d2824286866040516128869493929190614db8565b60405180910390a150505050565b6000601260008460028111156128ba57634e487b7160e01b600052602160045260246000fd5b60028111156128d957634e487b7160e01b600052602160045260246000fd5b815260200190815260200160002060006006548152602001908152602001600020905060005b8251811015612b01576007805490600061291883614f9d565b9190505550600083828151811061293f57634e487b7160e01b600052603260045260246000fd5b60200260200101519050601160003373ffffffffffffffffffffffffffffffffffffffff1673ffffffffffffffffffffffffffffffffffffffff16815260200190815260200160002060008660028111156129aa57634e487b7160e01b600052602160045260246000fd5b60028111156129c957634e487b7160e01b600052602160045260246000fd5b8152602080820192909252604090810160009081206006548252835281812080546001810182559082528382206008820401805463ffffffff80881660046007909516949094026101000a84810291021990911617905582518084019093528252339282019290925290601090876002811115612a5657634e487b7160e01b600052602160045260246000fd5b6002811115612a7557634e487b7160e01b600052602160045260246000fd5b815260208082019290925260409081016000908120600754825283522082518154939092015173ffffffffffffffffffffffffffffffffffffffff16640100000000027fffffffffffffffff00000000000000000000000000000000000000000000000090931663ffffffff909216919091179190911790555080612af981614f9d565b9150506128ff565b508151816001016000828254612b179190614e48565b9091555050505050565b600060126000836002811115612b4757634e487b7160e01b600052602160045260246000fd5b6002811115612b6657634e487b7160e01b600052602160045260246000fd5b8152602001908152602001600020600060065481526020019081526020016000209050600060136000846002811115612baf57634e487b7160e01b600052602160045260246000fd5b6002811115612bce57634e487b7160e01b600052602160045260246000fd5b815260200190815260200160002060010154905060006064826019612bf39190614e74565b612bfd9190614e60565b905060006064612c0e84600f614e74565b612c189190614e60565b905060006064612c2985600a614e74565b612c339190614e60565b905060405180606001604052808481526020018381526020018281525085600401906003612c62929190613dfb565b50505050505050565b600060136000846002811115612c9157634e487b7160e01b600052602160045260246000fd5b6002811115612cb057634e487b7160e01b600052602160045260246000fd5b8152602081019190915260400160002060028101805491925083917fffffffffffffffffffffffffffffffffffffffffffffffffffffffffffffff00166001836004811115612d0f57634e487b7160e01b600052602160045260246000fd5b0217905550505050565b612d388363a9059cbb60e01b84846040516024016126c5929190614a9d565b505050565b60006009547f000000000000000000000000000000000000000000000000000000000000000073ffffffffffffffffffffffffffffffffffffffff166370a08231306040518263ffffffff1660e01b8152600401612d9b9190614a4c565b60206040518083038186803b158015612db357600080fd5b505afa158015612dc7573d6000803e3d6000fd5b505050506040513d601f19601f82011682018060405250810190612deb91906141d9565b1015612e23576040517f08c379a00000000000000000000000000000000000000000000000000000000081526004016104da90614c6b565b612e316008546009546136b1565b6000818152601460205260409020805491925083917fffffffffffffffffffffffffffffffffffffffffffffffffffffffffffffff00166001836002811115612e8a57634e487b7160e01b600052602160045260246000fd5b02179055506006547f79aa71bc7ac44ef46960b6e440cf08b63d9c1db4d3af7374da8c13371d369b10836003604051612ec4929190614bad565b60405180910390a2919050565b600060126000836002811115612ef757634e487b7160e01b600052602160045260246000fd5b6002811115612f1657634e487b7160e01b600052602160045260246000fd5b8152602001908152602001600020600060065481526020019081526020016000209050600060136000846002811115612f5f57634e487b7160e01b600052602160045260246000fd5b6002811115612f7e57634e487b7160e01b600052602160045260246000fd5b81526020019081526020016000209050600080600090505b600b548110156130cf5761303b846005018281548110612fc657634e487b7160e01b600052603260045260246000fd5b60009182526020909120015460048601805473ffffffffffffffffffffffffffffffffffffffff909216918490811061300f57634e487b7160e01b600052603260045260246000fd5b600091825260209091200154600f5473ffffffffffffffffffffffffffffffffffffffff169190612d19565b83600401818154811061305e57634e487b7160e01b600052603260045260246000fd5b906000526020600020015483600101600082825461307c9190614eb1565b9091555050600484018054829081106130a557634e487b7160e01b600052603260045260246000fd5b9060005260206000200154826130bb9190614e48565b9150806130c781614f9d565b915050612f96565b50600e54600183015461311f9173ffffffffffffffffffffffffffffffffffffffff16906130ff90600290614e60565b600f5473ffffffffffffffffffffffffffffffffffffffff169190612d19565b61312a846001612c6b565b600a805490600061313a83614f9d565b91905055507fef99a204a94c30b225058df07e102a2bb1ee4c08995f4a39eccf82e79e4731f9848460050183426040516128869493929190614b7e565b600a546003146131b3576040517f08c379a00000000000000000000000000000000000000000000000000000000081526004016104da90614cab565b600680549060006131c383614f9d565b90915550504260038190556131f9907f000000000000000000000000000000000000000000000000000000000000000090614e48565b6004819055613229907f000000000000000000000000000000000000000000000000000000000000000090614e48565b60055560408051606081018252600080825260016020830152600292820192909252905b600381101561333e57600082826003811061327857634e487b7160e01b600052603260045260246000fd5b602002015190506000601260008360028111156132a557634e487b7160e01b600052602160045260246000fd5b60028111156132c457634e487b7160e01b600052602160045260246000fd5b81526020808201929092526040908101600090812060065480835293522090815560038054600783015560045460088301559091506133299085908590811061331d57634e487b7160e01b600052603260045260246000fd5b60200201516002612c6b565b5050808061333690614f9d565b91505061324d565b506000600a556006546004546005546040517fb15bf0ec96989b8686c290ff167b6855edaa07d0e6b8458f665125e64819068492613380929091600290614de0565b60405180910390a250565b6000601260008460028111156133b157634e487b7160e01b600052602160045260246000fd5b60028111156133d057634e487b7160e01b600052602160045260246000fd5b81526020019081526020016000206000600654815260200190815260200160002090508161341957613403836001612c6b565b600a805490600061341383614f9d565b91905055505b6000816001015460075461342d9190614eb1565b905060015b826001015481116135cb5760006134498284614e48565b905060006010600088600281111561347157634e487b7160e01b600052602160045260246000fd5b600281111561349057634e487b7160e01b600052602160045260246000fd5b815260208082019290925260409081016000908120858252835281812054640100000000900473ffffffffffffffffffffffffffffffffffffffff1680825260119093529081209192508860028111156134fa57634e487b7160e01b600052602160045260246000fd5b600281111561351957634e487b7160e01b600052602160045260246000fd5b815260200190815260200160002060006006548152602001908152602001600020805490506015600089600281111561356257634e487b7160e01b600052602160045260246000fd5b600281111561358157634e487b7160e01b600052602160045260246000fd5b81526020808201929092526040908101600090812073ffffffffffffffffffffffffffffffffffffffff9095168152939091529091205550806135c381614f9d565b915050613432565b5050505050565b60008281526014602052604081205460ff16906135ef8284613803565b9050611310828261395d565b600061365d826040518060400160405280602081526020017f5361666545524332303a206c6f772d6c6576656c2063616c6c206661696c65648152508573ffffffffffffffffffffffffffffffffffffffff16613bcd9092919063ffffffff16565b805190915015612d38578080602001905181019061367b9190613fed565b612d38576040517f08c379a00000000000000000000000000000000000000000000000000000000081526004016104da90614d4b565b60007f000000000000000000000000000000000000000000000000000000000000000073ffffffffffffffffffffffffffffffffffffffff16634000aea07f000000000000000000000000000000000000000000000000000000000000000084866000604051602001613725929190614b1f565b6040516020818303038152906040526040518463ffffffff1660e01b815260040161375293929190614ab8565b602060405180830381600087803b15801561376c57600080fd5b505af1158015613780573d6000803e3d6000fd5b505050506040513d601f19601f820116820180604052508101906137a49190613fed565b506000838152600160205260408120546137c390859083903090613bdc565b6000858152600160208190526040909120549192506137e29190614e48565b6000858152600160205260409020556137fb8482613c34565b949350505050565b606060006012600085600281111561382b57634e487b7160e01b600052602160045260246000fd5b600281111561384a57634e487b7160e01b600052602160045260246000fd5b81526020019081526020016000206000600654815260200190815260200160002090506000600b5467ffffffffffffffff81111561389857634e487b7160e01b600052604160045260246000fd5b6040519080825280602002602001820160405280156138c1578160200160208202803683370190505b50905060005b600b5481101561395457826001015485826040516020016138e9929190614b1f565b6040516020818303038152906040528051906020012060001c61390c9190614fd6565b613917906001614e48565b82828151811061393757634e487b7160e01b600052603260045260246000fd5b60209081029190910101528061394c81614f9d565b9150506138c7565b50949350505050565b60006012600084600281111561398357634e487b7160e01b600052602160045260246000fd5b60028111156139a257634e487b7160e01b600052602160045260246000fd5b815260200190815260200160002060006006548152602001908152602001600020905060005b600b54811015613bc157600082600101546007546139e69190614eb1565b90506000848381518110613a0a57634e487b7160e01b600052603260045260246000fd5b602002602001015182613a1d9190614e48565b905060106000876002811115613a4357634e487b7160e01b600052602160045260246000fd5b6002811115613a6257634e487b7160e01b600052602160045260246000fd5b81526020808201929092526040908101600090812084825290925290205460068501805463ffffffff9092169185908110613aad57634e487b7160e01b600052603260045260246000fd5b906000526020600020018190555060106000876002811115613adf57634e487b7160e01b600052602160045260246000fd5b6002811115613afe57634e487b7160e01b600052602160045260246000fd5b8152602001908152602001600020600082815260200190815260200160002060000160049054906101000a900473ffffffffffffffffffffffffffffffffffffffff16846005018481548110613b6457634e487b7160e01b600052603260045260246000fd5b9060005260206000200160006101000a81548173ffffffffffffffffffffffffffffffffffffffff021916908373ffffffffffffffffffffffffffffffffffffffff16021790555050508080613bb990614f9d565b9150506139c8565b50612d38836003612c6b565b60606137fb8484600085613c67565b600084848484604051602001613bf59493929190614b2d565b604080517fffffffffffffffffffffffffffffffffffffffffffffffffffffffffffffffe0818403018152919052805160209091012095945050505050565b60008282604051602001613c49929190614a22565b60405160208183030381529060405280519060200120905092915050565b606082471015613ca3576040517f08c379a00000000000000000000000000000000000000000000000000000000081526004016104da90614c7b565b843b613cdb576040517f08c379a00000000000000000000000000000000000000000000000000000000081526004016104da90614d2b565b6000808673ffffffffffffffffffffffffffffffffffffffff168587604051613d049190614a42565b60006040518083038185875af1925050503d8060008114613d41576040519150601f19603f3d011682016040523d82523d6000602084013e613d46565b606091505b5091509150613d56828286613d61565b979650505050505050565b60608315613d705750816112a2565b825115613d805782518084602001fd5b816040517f08c379a00000000000000000000000000000000000000000000000000000000081526004016104da9190614c1a565b6040518060800160405280600081526020016000815260200160006002811115613dee57634e487b7160e01b600052602160045260246000fd5b8152602001600081525090565b828054828255906000526020600020908101928215613e36579160200282015b82811115613e36578251825591602001919060010190613e1b565b50613e42929150613e46565b5090565b5b80821115613e425760008155600101613e47565b6000613e6e613e6984614e24565b614e08565b90508083825260208201905082856020860285011115613e8d57600080fd5b60005b85811015613eb757613ea28783613f5f565b83526020928301929190910190600101613e90565b5050509392505050565b803561109481615071565b600082601f830112613edc578081fd5b81356137fb848260208601613e5b565b805161109481615085565b80356110948161508d565b60008083601f840112613f13578182fd5b50813567ffffffffffffffff811115613f2a578182fd5b602083019150836001820283011115613f4257600080fd5b9250929050565b803561109481615093565b80516110948161508d565b8035611094816150a0565b600060208284031215613f7b578081fd5b6112a283828401613ec1565b60008060408385031215613f99578081fd5b613fa584828501613ec1565b91506020613fb585828601613ec1565b9150509250929050565b60008060408385031215613fd1578182fd5b613fdd84838501613ec1565b91506020613fb585828601613ef7565b600060208284031215613ffe578081fd5b6112a283828401613eec565b6000806040838503121561401c578182fd5b613fdd84838501613ef7565b6000806020838503121561403a578182fd5b8183013567ffffffffffffffff811115614052578283fd5b61405e85828601613f02565b92509250509250929050565b60006020828403121561407b578081fd5b6112a283828401613f49565b60008060408385031215614099578182fd5b613fa584838501613f49565b6000806000606084860312156140b9578081fd5b6140c585828601613f49565b925060206140d586828701613ec1565b92505060406140e686828701613ef7565b9150509250925092565b60008060408385031215614102578182fd5b61410e84838501613f49565b9150602083013567ffffffffffffffff811115614129578182fd5b613fb585828601613ecc565b60008060408385031215614147578182fd5b613fdd84838501613f49565b600080600060608486031215614167578283fd5b61417385848601613f49565b9250602061418386828701613ef7565b925050604084013567ffffffffffffffff81111561419f578182fd5b6140e686828701613ecc565b600080604083850312156141bd578182fd5b6141c984838501613ef7565b91506020613fb585828601613f49565b6000602082840312156141ea578081fd5b6112a283828401613f54565b614200828261421b565b5060200190565b6142008282614337565b6142008282614a16565b61422481614ec8565b82525050565b6000614234825190565b8084526020938401938301825b8281101561426657815161425587826141f6565b965050602082019150600101614241565b5093949350505050565b600061427a825490565b8084526000838152602090819020940193825b828110156142665761429e82615042565b6142a887826141f6565b9650506001918201910161428d565b60006142c1825190565b8084526020938401938301825b828110156142665781516142e28782614207565b9650506020820191506001016142ce565b60006142fd825190565b8084526020938401938301825b8281101561426657815161431e8782614211565b96505060208201915060010161430a565b801515614224565b80614224565b6000614347825190565b80845260208401935061435e818560208601614f26565b601f017fffffffffffffffffffffffffffffffffffffffffffffffffffffffffffffffe0169290920192915050565b6000614397825190565b6143a5818560208601614f26565b9290920192915050565b61422481614efa565b61422481614f05565b61422481614f10565b61422481614f1b565b601d8152602081017f596f7520646f206e6f74206861766520616e7920726f6c6c6f76657273000000815290505b60200190565b60268152602081017f4f776e61626c653a206e6577206f776e657220697320746865207a65726f206181527f6464726573730000000000000000000000000000000000000000000000000000602082015290505b60400190565b60148152602081017f596f752068617665206e6f20726f6c6c6f76657200000000000000000000000081529050614401565b60148152602081017f436f6e7472616374206e6f7420616c6c6f77656400000000000000000000000081529050614401565b602b8152602081017f4e6f7420656e6f756768204c494e4b202d2066696c6c20636f6e74726163742081527f77697468206661756365740000000000000000000000000000000000000000006020820152905061445b565b60268152602081017f416464726573733a20696e73756666696369656e742062616c616e636520666f81527f722063616c6c00000000000000000000000000000000000000000000000000006020820152905061445b565b60278152602081017f536f7272792063616e206e6f74206465616374697661746520612076616c696481527f20726166666c65000000000000000000000000000000000000000000000000006020820152905061445b565b60168152602081017f43616e6e6f74206265207a65726f20616464726573730000000000000000000081529050614401565b60198152602081017f5265626f6f7420636865636b206e6f7420636f6d706c6574650000000000000081529050614401565b60138152602081017f4e6f207469636b6574207370656369666965640000000000000000000000000081529050614401565b601a8152602081017f50726f787920636f6e7472616374206e6f7420616c6c6f77656400000000000081529050614401565b60208082527f4f776e61626c653a2063616c6c6572206973206e6f7420746865206f776e65729101908152614401565b601f8152602081017f4f6e6c7920565246436f6f7264696e61746f722063616e2066756c66696c6c0081529050614401565b60148152602081017f43616e6e6f74206265205553444320746f6b656e00000000000000000000000081529050614401565b60158152602081017f4e6f74206f776e6572206f7220696e6a6563746f72000000000000000000000081529050614401565b602f8152602081017f536f7272792063616e20616374697661746520617320726166666c652069732081527f6e6f7420646561637469766174656400000000000000000000000000000000006020820152905061445b565b601d8152602081017f416464726573733a2063616c6c20746f206e6f6e2d636f6e747261637400000081529050614401565b600f8152602081017f526166666c65206e6f74206f70656e000000000000000000000000000000000081529050614401565b602a8152602081017f5361666545524332303a204552433230206f7065726174696f6e20646964206e81527f6f742073756363656564000000000000000000000000000000000000000000006020820152905061445b565b601f8152602081017f5265656e7472616e637947756172643a207265656e7472616e742063616c6c0081529050614401565b601f8152602081017f6e6f206d6174636820696e207469636b65747320746f20726f6c6c6f7665720081529050614401565b60108152602081017f546f6f206d616e79207469636b6574730000000000000000000000000000000081529050614401565b805160009061012084019061491a8582614337565b50602083015161492d6020860182614337565b5060408301516149406040860182614337565b5060608301516149536060860182614337565b506080830151848203608086015261496b82826142b7565b91505060a083015184820360a0860152614985828261422a565b91505060c083015184820360c086015261499f82826142b7565b91505060e08301516149b460e0860182614337565b506101008301516149c9610100860182614337565b509392505050565b80516149dd8382614337565b5060208101516149f06020840182614337565b506040810151614a0360408401826143b8565b506060810151612d386060840182614337565b63ffffffff8116614224565b614a2c8184614337565b602001614a398183614337565b60200192915050565b611094818361438d565b60208101611094828461421b565b60408101614a68828561421b565b6112a2602083018461421b565b60608101614a83828661421b565b614a90602083018561421b565b6137fb6040830184614337565b60408101614aab828561421b565b6112a26020830184614337565b60608101614ac6828661421b565b614ad36020830185614337565b8181036040830152614ae5818461433d565b95945050505050565b602080825281016112a281846142f3565b60408101614b0d828561432f565b81810360208301526137fb818461433d565b60408101614aab8285614337565b60808101614b3b8287614337565b614b486020830186614337565b614b55604083018561421b565b614ae56060830184614337565b6020810161109482846143af565b60608101614a8382866143b8565b60808101614b8c82876143b8565b8181036020830152614b9e8186614270565b9050614b556040830185614337565b60408101614bbb82856143b8565b6112a260208301846143c1565b60408101614aab82856143b8565b60608101614be482866143b8565b614a906020830185614337565b6020810161109482846143c1565b60408101614c0d82856143ca565b6112a260208301846143b8565b602080825281016112a2818461433d565b60208082528101611094816143d3565b6020808252810161109481614407565b6020808252810161109481614461565b6020808252810161109481614493565b60208082528101611094816144c5565b602080825281016110948161451d565b6020808252810161109481614575565b60208082528101611094816145cd565b60208082528101611094816145ff565b6020808252810161109481614631565b6020808252810161109481614663565b6020808252810161109481614695565b60208082528101611094816146c5565b60208082528101611094816146f7565b6020808252810161109481614729565b602080825281016110948161475b565b60208082528101611094816147b3565b60208082528101611094816147e5565b6020808252810161109481614817565b602080825281016110948161486f565b60208082528101611094816148a1565b60208082528101611094816148d3565b602080825281016112a28184614905565b6080810161109482846149d1565b602081016110948284614337565b60808101614dc68287614337565b614dd36020830186614337565b614b5560408301856143b8565b60608101614dee8286614337565b614dfb6020830185614337565b6137fb60408301846143c1565b6000614e1360405190565b9050614e1f8282614f52565b919050565b600067ffffffffffffffff821115614e3e57614e3e61502c565b5060209081020190565b60008219821115614e5b57614e5b614fea565b500190565b600082614e6f57614e6f615000565b500490565b6000817fffffffffffffffffffffffffffffffffffffffffffffffffffffffffffffffff0483118215151615614eac57614eac614fea565b500290565b600082821015614ec357614ec3614fea565b500390565b600073ffffffffffffffffffffffffffffffffffffffff8216611094565b80614e1f8161504e565b80614e1f81615061565b600061109482614ec8565b600061109482614ee6565b600061109482614ef0565b600060ff8216611094565b60005b83811015614f41578181015183820152602001614f29565b838111156113105750506000910152565b7fffffffffffffffffffffffffffffffffffffffffffffffffffffffffffffffe0601f830116810181811067ffffffffffffffff82111715614f9657614f9661502c565b6040525050565b60007fffffffffffffffffffffffffffffffffffffffffffffffffffffffffffffffff821415614fcf57614fcf614fea565b5060010190565b600082614fe557614fe5615000565b500690565b634e487b7160e01b600052601160045260246000fd5b634e487b7160e01b600052601260045260246000fd5b634e487b7160e01b600052602160045260246000fd5b634e487b7160e01b600052604160045260246000fd5b60006110948254614ec8565b6003811061505e5761505e615016565b50565b6005811061505e5761505e615016565b61507a81614ec8565b811461505e57600080fd5b80151561507a565b8061507a565b6003811061505e57600080fd5b63ffffffff811661507a56fea264697066735822122013221266fce34bf1b4995dbe328faa2a2e07a1f1e10aa065c0a70a57b42da1a764736f6c63430008040033",
  "linkReferences": {},
  "deployedLinkReferences": {}
}