{
  "_format": "hh-sol-artifact-1",
  "contractName": "Raffle",
  "sourceName": "contracts/Raffle.sol",
  "abi": [
    {
      "inputs": [
        {
          "internalType": "address",
          "name": "_vrfCoordinator",
          "type": "address"
        },
        {
          "internalType": "address",
          "name": "_link",
          "type": "address"
        },
        {
          "internalType": "bytes32",
          "name": "_keyHash",
          "type": "bytes32"
        },
        {
          "internalType": "uint256",
          "name": "_fee",
          "type": "uint256"
        },
        {
          "internalType": "address",
          "name": "_USDCtoken",
          "type": "address"
        }
      ],
      "stateMutability": "nonpayable",
      "type": "constructor"
    },
    {
      "anonymous": false,
      "inputs": [
        {
          "indexed": false,
          "internalType": "address",
          "name": "token",
          "type": "address"
        },
        {
          "indexed": false,
          "internalType": "uint256",
          "name": "amount",
          "type": "uint256"
        }
      ],
      "name": "AdminTokenRecovery",
      "type": "event"
    },
    {
      "anonymous": false,
      "inputs": [
        {
          "indexed": false,
          "internalType": "enum Raffle.RaffleCategory",
          "name": "raffleCategory",
          "type": "uint8"
        },
        {
          "indexed": true,
          "internalType": "uint256",
          "name": "raffleId",
          "type": "uint256"
        },
        {
          "indexed": false,
          "internalType": "uint256",
          "name": "injectedAmount",
          "type": "uint256"
        }
      ],
      "name": "LotteryInjection",
      "type": "event"
    },
    {
      "anonymous": false,
      "inputs": [
        {
          "indexed": false,
          "internalType": "address",
          "name": "treasuryAddress",
          "type": "address"
        },
        {
          "indexed": false,
          "internalType": "address",
          "name": "injectorAddress",
          "type": "address"
        }
      ],
      "name": "NewTreasuryAndInjectorAddresses",
      "type": "event"
    },
    {
      "anonymous": false,
      "inputs": [
        {
          "indexed": false,
          "internalType": "uint256",
          "name": "txIndex",
          "type": "uint256"
        },
        {
          "indexed": false,
          "internalType": "uint256",
          "name": "timestamp",
          "type": "uint256"
        },
        {
          "indexed": false,
          "internalType": "enum Raffle.RaffleCategory",
          "name": "raffleCategory",
          "type": "uint8"
        },
        {
          "indexed": false,
          "internalType": "uint256",
          "name": "noOfTickets",
          "type": "uint256"
        }
      ],
      "name": "NewUserTransaction",
      "type": "event"
    },
    {
      "anonymous": false,
      "inputs": [
        {
          "indexed": true,
          "internalType": "address",
          "name": "previousOwner",
          "type": "address"
        },
        {
          "indexed": true,
          "internalType": "address",
          "name": "newOwner",
          "type": "address"
        }
      ],
      "name": "OwnershipTransferred",
      "type": "event"
    },
    {
      "anonymous": false,
      "inputs": [
        {
          "indexed": false,
          "internalType": "uint256",
          "name": "raffleID",
          "type": "uint256"
        },
        {
          "indexed": false,
          "internalType": "uint256",
          "name": "timeStamp",
          "type": "uint256"
        },
        {
          "indexed": false,
          "internalType": "enum Raffle.RaffleState",
          "name": "raffleState",
          "type": "uint8"
        }
      ],
      "name": "RaffleDeactivated",
      "type": "event"
    },
    {
      "anonymous": false,
      "inputs": [
        {
          "indexed": false,
          "internalType": "enum Raffle.RaffleCategory",
          "name": "category",
          "type": "uint8"
        },
        {
          "indexed": true,
          "internalType": "uint256",
          "name": "raffleId",
          "type": "uint256"
        },
        {
          "indexed": false,
          "internalType": "enum Raffle.RaffleState",
          "name": "raffleState",
          "type": "uint8"
        }
      ],
      "name": "RaffleEnded",
      "type": "event"
    },
    {
      "anonymous": false,
      "inputs": [
        {
          "indexed": true,
          "internalType": "uint256",
          "name": "raffleId",
          "type": "uint256"
        },
        {
          "indexed": false,
          "internalType": "uint256",
          "name": "endTime",
          "type": "uint256"
        },
        {
          "indexed": false,
          "internalType": "uint256",
          "name": "rebootEndTime",
          "type": "uint256"
        },
        {
          "indexed": false,
          "internalType": "enum Raffle.RaffleState",
          "name": "raffleState",
          "type": "uint8"
        }
      ],
      "name": "RaffleOpen",
      "type": "event"
    },
    {
      "anonymous": false,
      "inputs": [
        {
          "indexed": false,
          "internalType": "uint256",
          "name": "raffleID",
          "type": "uint256"
        },
        {
          "indexed": false,
          "internalType": "uint256",
          "name": "timeStamp",
          "type": "uint256"
        },
        {
          "indexed": false,
          "internalType": "enum Raffle.RaffleState",
          "name": "raffleState",
          "type": "uint8"
        }
      ],
      "name": "RaffleReactivated",
      "type": "event"
    },
    {
      "anonymous": false,
      "inputs": [
        {
          "indexed": false,
          "internalType": "enum Raffle.RaffleCategory",
          "name": "raffleCategory",
          "type": "uint8"
        },
        {
          "indexed": true,
          "internalType": "uint256",
          "name": "raffleId",
          "type": "uint256"
        },
        {
          "indexed": false,
          "internalType": "address",
          "name": "buyer",
          "type": "address"
        },
        {
          "indexed": false,
          "internalType": "uint256",
          "name": "noOfTickets",
          "type": "uint256"
        }
      ],
      "name": "RolloverClaimed",
      "type": "event"
    },
    {
      "anonymous": false,
      "inputs": [
        {
          "indexed": false,
          "internalType": "enum Raffle.RaffleCategory",
          "name": "raffleCategory",
          "type": "uint8"
        },
        {
          "indexed": true,
          "internalType": "uint256",
          "name": "raffleId",
          "type": "uint256"
        },
        {
          "indexed": true,
          "internalType": "address",
          "name": "buyer",
          "type": "address"
        },
        {
          "indexed": false,
          "internalType": "uint256",
          "name": "numberTickets",
          "type": "uint256"
        },
        {
          "indexed": false,
          "internalType": "uint256",
          "name": "rafflePool",
          "type": "uint256"
        }
      ],
      "name": "TicketsPurchased",
      "type": "event"
    },
    {
      "anonymous": false,
      "inputs": [
        {
          "indexed": false,
          "internalType": "enum Raffle.RaffleCategory",
          "name": "raffleCategory",
          "type": "uint8"
        },
        {
          "indexed": false,
          "internalType": "address[]",
          "name": "winners",
          "type": "address[]"
        },
        {
          "indexed": false,
          "internalType": "uint256",
          "name": "amount",
          "type": "uint256"
        },
        {
          "indexed": false,
          "internalType": "uint256",
          "name": "timestamp",
          "type": "uint256"
        }
      ],
      "name": "WinnersAwarded",
      "type": "event"
    },
    {
      "anonymous": false,
      "inputs": [
        {
          "indexed": false,
          "internalType": "uint256",
          "name": "raffleID",
          "type": "uint256"
        },
        {
          "indexed": false,
          "internalType": "uint256",
          "name": "amount",
          "type": "uint256"
        }
      ],
      "name": "WithdrawalComplete",
      "type": "event"
    },
    {
      "inputs": [
        {
          "internalType": "address",
          "name": "_injectorAddress",
          "type": "address"
        },
        {
          "internalType": "address",
          "name": "_treasuryAddress",
          "type": "address"
        }
      ],
      "name": "SetInjectorAndTreasuryAdresses",
      "outputs": [],
      "stateMutability": "nonpayable",
      "type": "function"
    },
    {
      "inputs": [],
      "name": "USDCtoken",
      "outputs": [
        {
          "internalType": "contract IERC20",
          "name": "",
          "type": "address"
        }
      ],
      "stateMutability": "view",
      "type": "function"
    },
    {
      "inputs": [
        {
          "internalType": "enum Raffle.RaffleCategory",
          "name": "_category",
          "type": "uint8"
        },
        {
          "internalType": "uint256[]",
          "name": "_tickets",
          "type": "uint256[]"
        }
      ],
      "name": "buyTicket",
      "outputs": [],
      "stateMutability": "nonpayable",
      "type": "function"
    },
    {
      "inputs": [],
      "name": "checkLinkBalance",
      "outputs": [
        {
          "internalType": "uint256",
          "name": "",
          "type": "uint256"
        }
      ],
      "stateMutability": "view",
      "type": "function"
    },
    {
      "inputs": [
        {
          "internalType": "bytes",
          "name": "",
          "type": "bytes"
        }
      ],
      "name": "checkUpkeep",
      "outputs": [
        {
          "internalType": "bool",
          "name": "upkeepNeeded",
          "type": "bool"
        },
        {
          "internalType": "bytes",
          "name": "performData",
          "type": "bytes"
        }
      ],
      "stateMutability": "view",
      "type": "function"
    },
    {
      "inputs": [
        {
          "internalType": "enum Raffle.RaffleCategory",
          "name": "_category",
          "type": "uint8"
        },
        {
          "internalType": "uint256",
          "name": "_ticketsToRollover",
          "type": "uint256"
        },
        {
          "internalType": "uint256[]",
          "name": "_tickets",
          "type": "uint256[]"
        }
      ],
      "name": "claimRollover",
      "outputs": [],
      "stateMutability": "nonpayable",
      "type": "function"
    },
    {
      "inputs": [],
      "name": "deactivateRaffle",
      "outputs": [],
      "stateMutability": "nonpayable",
      "type": "function"
    },
    {
      "inputs": [
        {
          "internalType": "enum Raffle.RaffleCategory",
          "name": "_category",
          "type": "uint8"
        }
      ],
      "name": "getCurrentRaffleState",
      "outputs": [
        {
          "internalType": "enum Raffle.RaffleState",
          "name": "raffleState",
          "type": "uint8"
        }
      ],
      "stateMutability": "view",
      "type": "function"
    },
    {
      "inputs": [
        {
          "internalType": "enum Raffle.RaffleCategory",
          "name": "_category",
          "type": "uint8"
        }
      ],
      "name": "getRafflePool",
      "outputs": [
        {
          "internalType": "uint256",
          "name": "",
          "type": "uint256"
        }
      ],
      "stateMutability": "view",
      "type": "function"
    },
    {
      "inputs": [],
      "name": "getRebootEndTime",
      "outputs": [
        {
          "internalType": "uint256",
          "name": "",
          "type": "uint256"
        }
      ],
      "stateMutability": "view",
      "type": "function"
    },
    {
      "inputs": [],
      "name": "getUserTransactionCount",
      "outputs": [
        {
          "internalType": "uint256",
          "name": "",
          "type": "uint256"
        }
      ],
      "stateMutability": "view",
      "type": "function"
    },
    {
      "inputs": [],
      "name": "getraffleID",
      "outputs": [
        {
          "internalType": "uint256",
          "name": "",
          "type": "uint256"
        }
      ],
      "stateMutability": "view",
      "type": "function"
    },
    {
      "inputs": [
        {
          "internalType": "uint256",
          "name": "txIndex",
          "type": "uint256"
        }
      ],
      "name": "getuserTransactionHistory",
      "outputs": [
        {
          "internalType": "uint256",
          "name": "timestamp",
          "type": "uint256"
        },
        {
          "internalType": "enum Raffle.RaffleCategory",
          "name": "raffleCategory",
          "type": "uint8"
        },
        {
          "internalType": "uint256",
          "name": "noOfTickets",
          "type": "uint256"
        }
      ],
      "stateMutability": "view",
      "type": "function"
    },
    {
      "inputs": [
        {
          "internalType": "enum Raffle.RaffleCategory",
          "name": "_category",
          "type": "uint8"
        },
        {
          "internalType": "uint256",
          "name": "_amount",
          "type": "uint256"
        }
      ],
      "name": "injectFunds",
      "outputs": [],
      "stateMutability": "nonpayable",
      "type": "function"
    },
    {
      "inputs": [],
      "name": "injectorAddress",
      "outputs": [
        {
          "internalType": "address",
          "name": "",
          "type": "address"
        }
      ],
      "stateMutability": "view",
      "type": "function"
    },
    {
      "inputs": [],
      "name": "maxNumberTicketsPerBuy",
      "outputs": [
        {
          "internalType": "uint256",
          "name": "",
          "type": "uint256"
        }
      ],
      "stateMutability": "view",
      "type": "function"
    },
    {
      "inputs": [],
      "name": "noOfWinners",
      "outputs": [
        {
          "internalType": "uint256",
          "name": "",
          "type": "uint256"
        }
      ],
      "stateMutability": "view",
      "type": "function"
    },
    {
      "inputs": [],
      "name": "owner",
      "outputs": [
        {
          "internalType": "address",
          "name": "",
          "type": "address"
        }
      ],
      "stateMutability": "view",
      "type": "function"
    },
    {
      "inputs": [
        {
          "internalType": "bytes",
          "name": "performData",
          "type": "bytes"
        }
      ],
      "name": "performUpkeep",
      "outputs": [],
      "stateMutability": "nonpayable",
      "type": "function"
    },
    {
      "inputs": [],
      "name": "raffleID",
      "outputs": [
        {
          "internalType": "uint256",
          "name": "",
          "type": "uint256"
        }
      ],
      "stateMutability": "view",
      "type": "function"
    },
    {
      "inputs": [
        {
          "internalType": "bytes32",
          "name": "requestId",
          "type": "bytes32"
        },
        {
          "internalType": "uint256",
          "name": "randomness",
          "type": "uint256"
        }
      ],
      "name": "rawFulfillRandomness",
      "outputs": [],
      "stateMutability": "nonpayable",
      "type": "function"
    },
    {
      "inputs": [],
      "name": "reactivateRaffle",
      "outputs": [],
      "stateMutability": "nonpayable",
      "type": "function"
    },
    {
      "inputs": [
        {
          "internalType": "address",
          "name": "_tokenAddress",
          "type": "address"
        },
        {
          "internalType": "uint256",
          "name": "_tokenAmount",
          "type": "uint256"
        }
      ],
      "name": "recoverWrongTokens",
      "outputs": [],
      "stateMutability": "nonpayable",
      "type": "function"
    },
    {
      "inputs": [],
      "name": "renounceOwnership",
      "outputs": [],
      "stateMutability": "nonpayable",
      "type": "function"
    },
    {
      "inputs": [
        {
          "internalType": "address",
          "name": "newOwner",
          "type": "address"
        }
      ],
      "name": "transferOwnership",
      "outputs": [],
      "stateMutability": "nonpayable",
      "type": "function"
    },
    {
      "inputs": [],
      "name": "treasuryAddress",
      "outputs": [
        {
          "internalType": "address",
          "name": "",
          "type": "address"
        }
      ],
      "stateMutability": "view",
      "type": "function"
    },
    {
      "inputs": [
        {
          "internalType": "enum Raffle.RaffleCategory",
          "name": "_category",
          "type": "uint8"
        },
        {
          "internalType": "uint256",
          "name": "_raffleID",
          "type": "uint256"
        }
      ],
      "name": "viewRaffle",
      "outputs": [
        {
          "internalType": "address[]",
          "name": "winners",
          "type": "address[]"
        },
        {
          "internalType": "uint256",
          "name": "noOfTicketsSold",
          "type": "uint256"
        },
        {
          "internalType": "uint256[]",
          "name": "winningTickets",
          "type": "uint256[]"
        },
        {
          "internalType": "uint256",
          "name": "raffleStartTime",
          "type": "uint256"
        },
        {
          "internalType": "uint256",
          "name": "raffleEndTime",
          "type": "uint256"
        }
      ],
      "stateMutability": "view",
      "type": "function"
    },
    {
      "inputs": [
        {
          "internalType": "enum Raffle.RaffleCategory",
          "name": "_category",
          "type": "uint8"
        }
      ],
      "name": "viewRollovers",
      "outputs": [
        {
          "internalType": "uint256",
          "name": "ticketsToRollover",
          "type": "uint256"
        }
      ],
      "stateMutability": "view",
      "type": "function"
    },
    {
      "inputs": [
        {
          "internalType": "enum Raffle.RaffleCategory",
          "name": "_category",
          "type": "uint8"
        }
      ],
      "name": "withdrawFundsDueToDeactivation",
      "outputs": [],
      "stateMutability": "nonpayable",
      "type": "function"
    }
  ],
  "bytecode": "0x610100604052610e1060c05261070860e0526003600a556103e8600b553480156200002957600080fd5b50604051620042c2380380620042c28339810160408190526200004c91620001aa565b600160009081556001600160601b0319606087811b821660a05286901b16608052620000753390565b600280546001600160a01b0319166001600160a01b038316908117909155604051919250906000907f8be0079c531659141344cd1fd0a4f28419497f9722a3daafe3b4186f6b6457e0908290a350600783905560088290556003600955600e80546001600160a01b0319166001600160a01b0383161790556200017f6010602052670de0b6b3a76400007f6e0956cda88cad152e89927e53611735b61a5c762d1428573c6931b0a5efcb0155678ac7230489e800007f8c6065603763fec3f5742441d3833f3f43b982453612d76adb39a885e3006b5f55600260005268056bc75e2d631000007f853b2fefe141400fef543280f93d98bd49996069f632d0d20236afeeed8e46a255565b50505050506200025b565b805162000197816200023a565b92915050565b8051620001978162000254565b600080600080600060a08688031215620001c2578081fd5b620001d0878288016200018a565b94506020620001e2888289016200018a565b9450506040620001f5888289016200019d565b935050606062000208888289016200019d565b92505060806200021b888289016200018a565b9150509295509295909350565b60006001600160a01b03821662000197565b620002458162000228565b81146200025157600080fd5b50565b8062000245565b60805160601c60a05160601c60c05160e051614012620002b060003960006122960152600061226601526000818161143101526129e70152600081816114af01528181611e5b01526129b801526140126000f3fe608060405234801561001057600080fd5b50600436106101cf5760003560e01c80638a3f16fd11610104578063ad99854b116100a2578063d19f19a811610071578063d19f19a8146103a7578063defc98f8146103ba578063e2dbabf5146103da578063f2fde38b146103ed57600080fd5b8063ad99854b14610370578063b6e81a4d14610379578063c1aba43f1461038c578063c5f956af1461039457600080fd5b80639c384653116100de5780639c384653146103295780639eb386fd1461033c578063a24bf4ff14610344578063a7390c8e1461034c57600080fd5b80638a3f16fd146102da5780638da5cb5b146102fc57806394985ddd1461031657600080fd5b8063518da0a4116101715780636c6f693d1161014b5780636c6f693d1461028b5780636e04ff0d1461029e578063715018a6146102bf578063718031e5146102c757600080fd5b8063518da0a41461026657806352955aa81461026f57806367bb60a01461027857600080fd5b806328055096116101ad578063280550961461020d5780633f138d4b146102205780634185e507146102335780634585e33b1461025357600080fd5b806313b42fa3146101d45780631b6826df146101ee578063269ce1bb14610203575b600080fd5b6006545b6040516101e59190613d32565b60405180910390f35b336000908152601360205260409020546101d8565b61020b610400565b005b61020b61021b36600461318d565b6106a0565b61020b61022e3660046130e2565b6109c4565b600e54610246906001600160a01b031681565b6040516101e59190613b09565b61020b61026136600461314b565b610a6d565b6101d8600a5481565b6101d860065481565b61020b6102863660046131ef565b610ad8565b61020b6102993660046130aa565b610c84565b6102b16102ac36600461314b565b610d69565b6040516101e5929190613aa6565b61020b61105e565b61020b6102d53660046131aa565b6110df565b6102ed6102e836600461329d565b6113c2565b6040516101e593929190613d40565b6002546001600160a01b03165b6040516101e591906139ac565b61020b61032436600461312d565b611426565b600c54610309906001600160a01b031681565b6005546101d8565b6101d861147c565b61035f61035a3660046131ef565b611539565b6040516101e5959493929190613a4e565b6101d8600b5481565b6101d861038736600461318d565b611682565b61020b6116e3565b600d54610309906001600160a01b031681565b61020b6103b536600461320d565b6118f7565b6103cd6103c836600461318d565b611bb6565b6040516101e59190613b98565b6101d86103e836600461318d565b611c1a565b61020b6103fb36600461308d565b611c83565b6002546001600160a01b031633146104335760405162461bcd60e51b815260040161042a90613c92565b60405180910390fd5b600080805260106020527f6e0956cda88cad152e89927e53611735b61a5c762d1428573c6931b0a5efcb03547f6e0956cda88cad152e89927e53611735b61a5c762d1428573c6931b0a5efcb0190829060ff1660048111156104a557634e487b7160e01b600052602160045260246000fd5b146104c25760405162461bcd60e51b815260040161042a90613be2565b6001600081815260106020527f8c6065603763fec3f5742441d3833f3f43b982453612d76adb39a885e3006b61547f8c6065603763fec3f5742441d3833f3f43b982453612d76adb39a885e3006b5f919060ff16600481111561053557634e487b7160e01b600052602160045260246000fd5b146105525760405162461bcd60e51b815260040161042a90613be2565b6002600081815260106020527f853b2fefe141400fef543280f93d98bd49996069f632d0d20236afeeed8e46a4547f853b2fefe141400fef543280f93d98bd49996069f632d0d20236afeeed8e46a2919060ff1660048111156105c557634e487b7160e01b600052602160045260246000fd5b146105e25760405162461bcd60e51b815260040161042a90613be2565b60408051606081018252600080825260016020830152600292820192909252905b600381101561065357600082826003811061062e57634e487b7160e01b600052603260045260246000fd5b60200201519050610640816001611d3c565b508061064b81613ef7565b915050610603565b5060036009556006546040517f3e3fbe6edaa33edaf5f25f93631b45be609c9603eebf7d4d0976f0dec5dfdc049161068f914290600190613d83565b60405180910390a150505050505050565b333b156106bf5760405162461bcd60e51b815260040161042a90613c02565b3332146106de5760405162461bcd60e51b815260040161042a90613c82565b600260005414156107015760405162461bcd60e51b815260040161042a90613d02565b600260009081556010600083600281111561072c57634e487b7160e01b600052602160045260246000fd5b600281111561074b57634e487b7160e01b600052602160045260246000fd5b815260208101919091526040016000206002015460ff16600481111561078157634e487b7160e01b600052602160045260246000fd5b1461079e5760405162461bcd60e51b815260040161042a90613c72565b6000601060008360028111156107c457634e487b7160e01b600052602160045260246000fd5b60028111156107e357634e487b7160e01b600052602160045260246000fd5b8152602001908152602001600020905060006012600084600281111561081957634e487b7160e01b600052602160045260246000fd5b600281111561083857634e487b7160e01b600052602160045260246000fd5b81526020808201929092526040908101600090812033825290925281205483549092506108659083613e17565b600e546040517fa9059cbb0000000000000000000000000000000000000000000000000000000081529192506001600160a01b03169063a9059cbb906108b190339085906004016139fd565b602060405180830381600087803b1580156108cb57600080fd5b505af11580156108df573d6000803e3d6000fd5b505050506040513d601f19601f820116820180604052508101906109039190613110565b5060006012600086600281111561092a57634e487b7160e01b600052602160045260246000fd5b600281111561094957634e487b7160e01b600052602160045260246000fd5b81526020019081526020016000206000336001600160a01b03166001600160a01b03168152602001908152602001600020819055507fac4b7f84df43766362cc5996cfd81888ae4ee76e3e429f0d2f3660404aea1829600654826040516109b1929190613ac6565b60405180910390a1505060016000555050565b6002546001600160a01b031633146109ee5760405162461bcd60e51b815260040161042a90613c92565b600e546001600160a01b0383811691161415610a1c5760405162461bcd60e51b815260040161042a90613cb2565b610a306001600160a01b0383163383611dcc565b7f74545154aac348a3eac92596bd1971957ca94795f4e954ec5f613b55fab781298282604051610a619291906139fd565b60405180910390a15050565b600080610a7c8385018561326f565b915091508160011415610a9857610a9281611e54565b50610ad2565b8160021415610aaf57610aaa81611fa3565b610ad2565b8160031415610ac057610aaa612223565b8160041415610ad257610ad28161241d565b50505050565b6002546001600160a01b0316331480610afb5750600c546001600160a01b031633145b610b175760405162461bcd60e51b815260040161042a90613cc2565b600260106000846002811115610b3d57634e487b7160e01b600052602160045260246000fd5b6002811115610b5c57634e487b7160e01b600052602160045260246000fd5b815260208101919091526040016000206002015460ff166004811115610b9257634e487b7160e01b600052602160045260246000fd5b14610baf5760405162461bcd60e51b815260040161042a90613ce2565b600e54610bc7906001600160a01b0316333084612571565b80600f6000846002811115610bec57634e487b7160e01b600052602160045260246000fd5b6002811115610c0b57634e487b7160e01b600052602160045260246000fd5b8152602001908152602001600020600060065481526020019081526020016000206007016000828254610c3e9190613deb565b90915550506006546040517fa1c157de391a92665d22914b5834a188e801f4fbc466639ddc0063abff1df3bb90610c789085908590613b6f565b60405180910390a25050565b6002546001600160a01b03163314610cae5760405162461bcd60e51b815260040161042a90613c92565b6001600160a01b038116610cd45760405162461bcd60e51b815260040161042a90613c42565b6001600160a01b038216610cfa5760405162461bcd60e51b815260040161042a90613c42565b600d80546001600160a01b0380841673ffffffffffffffffffffffffffffffffffffffff1992831617909255600c8054928516929091169190911790556040517fa6f7e8c500ff9602f43c07429562ca2a17f22d62c172a4fbb6aeb54bdc5e5c6490610a6190839085906139ba565b600060606000604051806060016040528060006002811115610d9b57634e487b7160e01b600052602160045260246000fd5b6002811115610dba57634e487b7160e01b600052602160045260246000fd5b81526020016001815260200160028152509050600060095460031415610dde575060015b60005b6003811015611054576000838260038110610e0c57634e487b7160e01b600052603260045260246000fd5b602002015190506000600f6000836002811115610e3957634e487b7160e01b600052602160045260246000fd5b6002811115610e5857634e487b7160e01b600052602160045260246000fd5b8152602001908152602001600020600060065481526020019081526020016000209050600060106000846002811115610ea157634e487b7160e01b600052602160045260246000fd5b6002811115610ec057634e487b7160e01b600052602160045260246000fd5b8152602001908152602001600020905060045442118015610f06575060028082015460ff166004811115610f0457634e487b7160e01b600052602160045260246000fd5b145b15610f8757600a8260030154108015610f23575060058260060154105b15610f595760019750600483604051602001610f40929190613ba6565b6040516020818303038152906040529650505050611042565b60019750600183604051602001610f71929190613ba6565b604051602081830303815290604052965061103e565b6003600282015460ff166004811115610fb057634e487b7160e01b600052602160045260246000fd5b1415610fce5760019750600283604051602001610f71929190613ba6565b6004600282015460ff166004811115610ff757634e487b7160e01b600052602160045260246000fd5b14158015611006575060055442115b801561100f5750845b1561103e576001975060038360405160200161102c929190613ba6565b60405160208183030381529060405296505b5050505b8061104c81613ef7565b915050610de1565b5050509250929050565b6002546001600160a01b031633146110885760405162461bcd60e51b815260040161042a90613c92565b6002546040516000916001600160a01b0316907f8be0079c531659141344cd1fd0a4f28419497f9722a3daafe3b4186f6b6457e0908390a36002805473ffffffffffffffffffffffffffffffffffffffff19169055565b333b156110fe5760405162461bcd60e51b815260040161042a90613c02565b33321461111d5760405162461bcd60e51b815260040161042a90613c82565b600260005414156111405760405162461bcd60e51b815260040161042a90613d02565b600260005580516111635760405162461bcd60e51b815260040161042a90613c62565b600b54815111156111865760405162461bcd60e51b815260040161042a90613d22565b6002601060008460028111156111ac57634e487b7160e01b600052602160045260246000fd5b60028111156111cb57634e487b7160e01b600052602160045260246000fd5b815260208101919091526040016000206002015460ff16600481111561120157634e487b7160e01b600052602160045260246000fd5b1461121e5760405162461bcd60e51b815260040161042a90613ce2565b60006010600084600281111561124457634e487b7160e01b600052602160045260246000fd5b600281111561126357634e487b7160e01b600052602160045260246000fd5b815260200190815260200160002090506000825182600001546112869190613e17565b600e549091506112a1906001600160a01b0316333084612571565b6000600f60008660028111156112c757634e487b7160e01b600052602160045260246000fd5b60028111156112e657634e487b7160e01b600052602160045260246000fd5b81526020808201929092526040908101600090812060065482528352818120338252600b810190935220549091506113305760068101805490600061132a83613ef7565b91905055505b818360010160008282546113449190613deb565b92505081905550611356858551612592565b6113608585612664565b611369856127b2565b336001600160a01b03166006547fa8833300989dff6c7036c28e17e6309e566c7cb5fc69a76e0dc73a0769eba2d987875187600101546040516113ae93929190613b7d565b60405180910390a350506001600055505050565b336000908152601360205260408120805482918291829190869081106113f857634e487b7160e01b600052603260045260246000fd5b6000918252602090912060039091020180546001820154600290920154909760ff9092169650945092505050565b336001600160a01b037f0000000000000000000000000000000000000000000000000000000000000000161461146e5760405162461bcd60e51b815260040161042a90613ca2565b61147882826128fc565b5050565b6040517f70a082310000000000000000000000000000000000000000000000000000000081526000906001600160a01b037f000000000000000000000000000000000000000000000000000000000000000016906370a08231906114e49030906004016139ac565b60206040518083038186803b1580156114fc57600080fd5b505afa158015611510573d6000803e3d6000fd5b505050506040513d601f19601f8201168201806040525081019061153491906132ba565b905090565b6060600060606000806000600f600089600281111561156857634e487b7160e01b600052602160045260246000fd5b600281111561158757634e487b7160e01b600052602160045260246000fd5b81526020019081526020016000206000888152602001908152602001600020905080600101816003015482600501836008015484600901548480548060200260200160405190810160405280929190818152602001828054801561161457602002820191906000526020600020905b81546001600160a01b031681526001909101906020018083116115f6575b505050505094508280548060200260200160405190810160405280929190818152602001828054801561166657602002820191906000526020600020905b815481526020019060010190808311611652575b5050505050925095509550955095509550509295509295909350565b600080601060008460028111156116a957634e487b7160e01b600052602160045260246000fd5b60028111156116c857634e487b7160e01b600052602160045260246000fd5b81526020810191909152604001600020600101549392505050565b6002546001600160a01b0316331461170d5760405162461bcd60e51b815260040161042a90613c92565b60065460009081527ff4803e074bd026baaf6ed2e288c9515f68c72fb7216eebdd7cae1718a53ec375602052604081206003810154600a118015611755575060058160060154105b6117715760405162461bcd60e51b815260040161042a90613c32565b60065460009081527f169f97de0d9a84d840042b17d3c6b9638b3d6fd9024c9eb0c7a306a17b49f88f60205260409020600381015460019190600a1180156117bd575060058160060154105b6117d95760405162461bcd60e51b815260040161042a90613c32565b60065460009081527fa74ba3945261e09fde15ba3db55005b205e61eeb4ad811ac0faa2b315bffeead60205260409020600381015460029190600a118015611825575060058160060154105b6118415760405162461bcd60e51b815260040161042a90613c32565b60408051606081018252600080825260016020830152600292820192909252905b60038110156118bb57600082826003811061188d57634e487b7160e01b600052603260045260246000fd5b6020020151905061189f816004611d3c565b6118a88161241d565b50806118b381613ef7565b915050611862565b5060006009556006546040517f38960c0800e981febc869f33d307d21683c7a1f85845bfe665071f160292c0809161068f914290600490613d83565b333b156119165760405162461bcd60e51b815260040161042a90613c02565b3332146119355760405162461bcd60e51b815260040161042a90613c82565b826012600082600281111561195a57634e487b7160e01b600052602160045260246000fd5b600281111561197957634e487b7160e01b600052602160045260246000fd5b8152602080820192909252604090810160009081203382529092529020546119b35760405162461bcd60e51b815260040161042a90613bf2565b600260005414156119d65760405162461bcd60e51b815260040161042a90613d02565b6002600081815560129186908111156119ff57634e487b7160e01b600052602160045260246000fd5b6002811115611a1e57634e487b7160e01b600052602160045260246000fd5b8152602080820192909252604090810160009081203382529092529020548314611a5a5760405162461bcd60e51b815260040161042a90613d12565b600260106000866002811115611a8057634e487b7160e01b600052602160045260246000fd5b6002811115611a9f57634e487b7160e01b600052602160045260246000fd5b815260208101919091526040016000206002015460ff166004811115611ad557634e487b7160e01b600052602160045260246000fd5b14611af25760405162461bcd60e51b815260040161042a90613ce2565b611afc8483612664565b611b07848351612592565b600060126000866002811115611b2d57634e487b7160e01b600052602160045260246000fd5b6002811115611b4c57634e487b7160e01b600052602160045260246000fd5b8152602080820192909252604090810160009081203380835293528190209290925560065491517f2c173f4ba2da4849fb4c77f9d6ddc4672ce502af948c755bbe001196ede5338991611ba3918891908890613b17565b60405180910390a2505060016000555050565b60008060106000846002811115611bdd57634e487b7160e01b600052602160045260246000fd5b6002811115611bfc57634e487b7160e01b600052602160045260246000fd5b815260208101919091526040016000206002015460ff169392505050565b600060126000836002811115611c4057634e487b7160e01b600052602160045260246000fd5b6002811115611c5f57634e487b7160e01b600052602160045260246000fd5b81526020808201929092526040908101600090812033825290925290205492915050565b6002546001600160a01b03163314611cad5760405162461bcd60e51b815260040161042a90613c92565b6001600160a01b038116611cd35760405162461bcd60e51b815260040161042a90613bd2565b6002546040516001600160a01b038084169216907f8be0079c531659141344cd1fd0a4f28419497f9722a3daafe3b4186f6b6457e090600090a36002805473ffffffffffffffffffffffffffffffffffffffff19166001600160a01b0392909216919091179055565b600060106000846002811115611d6257634e487b7160e01b600052602160045260246000fd5b6002811115611d8157634e487b7160e01b600052602160045260246000fd5b81526020810191909152604001600020600281018054919250839160ff19166001836004811115611dc257634e487b7160e01b600052602160045260246000fd5b0217905550505050565b611e4f8363a9059cbb60e01b8484604051602401611deb9291906139fd565b60408051601f198184030181529190526020810180517bffffffffffffffffffffffffffffffffffffffffffffffffffffffff167fffffffff0000000000000000000000000000000000000000000000000000000090931692909217909152612925565b505050565b60006008547f00000000000000000000000000000000000000000000000000000000000000006001600160a01b03166370a08231306040518263ffffffff1660e01b8152600401611ea591906139ac565b60206040518083038186803b158015611ebd57600080fd5b505afa158015611ed1573d6000803e3d6000fd5b505050506040513d601f19601f82011682018060405250810190611ef591906132ba565b1015611f135760405162461bcd60e51b815260040161042a90613c12565b611f216007546008546129b4565b60008181526011602052604090208054919250839160ff19166001836002811115611f5c57634e487b7160e01b600052602160045260246000fd5b02179055506006547f79aa71bc7ac44ef46960b6e440cf08b63d9c1db4d3af7374da8c13371d369b10836003604051611f96929190613b54565b60405180910390a2919050565b6000600f6000836002811115611fc957634e487b7160e01b600052602160045260246000fd5b6002811115611fe857634e487b7160e01b600052602160045260246000fd5b815260200190815260200160002060006006548152602001908152602001600020905060006010600084600281111561203157634e487b7160e01b600052602160045260246000fd5b600281111561205057634e487b7160e01b600052602160045260246000fd5b81526020019081526020016000209050600080600090505b600a54811015612187576120f384600101828154811061209857634e487b7160e01b600052603260045260246000fd5b6000918252602090912001546004860180546001600160a01b0390921691849081106120d457634e487b7160e01b600052603260045260246000fd5b600091825260209091200154600e546001600160a01b03169190611dcc565b83600401818154811061211657634e487b7160e01b600052603260045260246000fd5b90600052602060002001548360010160008282546121349190613e36565b90915550506004840180548290811061215d57634e487b7160e01b600052603260045260246000fd5b9060005260206000200154826121739190613deb565b91508061217f81613ef7565b915050612068565b50600d5460018301546121bd916001600160a01b0316906121aa90600290613e03565b600e546001600160a01b03169190611dcc565b6121c8846001611d3c565b600980549060006121d883613ef7565b91905055507fef99a204a94c30b225058df07e102a2bb1ee4c08995f4a39eccf82e79e4731f9848460010183426040516122159493929190613b25565b60405180910390a150505050565b6009546003146122455760405162461bcd60e51b815260040161042a90613c52565b6006805490600061225583613ef7565b909155505042600381905561228b907f000000000000000000000000000000000000000000000000000000000000000090613deb565b60048190556122bb907f000000000000000000000000000000000000000000000000000000000000000090613deb565b60055560408051606081018252600080825260016020830152600292820192909252905b60038110156123d057600082826003811061230a57634e487b7160e01b600052603260045260246000fd5b602002015190506000600f600083600281111561233757634e487b7160e01b600052602160045260246000fd5b600281111561235657634e487b7160e01b600052602160045260246000fd5b81526020808201929092526040908101600090812060065480835293522090815560038054600883015560045460098301559091506123bb908590859081106123af57634e487b7160e01b600052603260045260246000fd5b60200201516002611d3c565b505080806123c890613ef7565b9150506122df565b5060006009556006546004546005546040517fb15bf0ec96989b8686c290ff167b6855edaa07d0e6b8458f665125e64819068492612412929091600290613d83565b60405180910390a250565b6000600f600083600281111561244357634e487b7160e01b600052602160045260246000fd5b600281111561246257634e487b7160e01b600052602160045260246000fd5b815260200190815260200160002060006006548152602001908152602001600020905060008160030154111561254d5760005b816003015481101561254b576000818152600a830160209081526040808320546001600160a01b0316808452600b860190925282205490916012908660028111156124f057634e487b7160e01b600052602160045260246000fd5b600281111561250f57634e487b7160e01b600052602160045260246000fd5b8152602080820192909252604090810160009081206001600160a01b03909516815293909152909120558061254381613ef7565b915050612495565b505b612558826001611d3c565b6009805490600061256883613ef7565b91905055505050565b610ad2846323b872dd60e01b858585604051602401611deb939291906139d5565b33600081815260136020526040812080546001810180835593835292839081106125cc57634e487b7160e01b600052603260045260246000fd5b90600052602060002090600302019050428160000181905550838160010160006101000a81548160ff0219169083600281111561261957634e487b7160e01b600052602160045260246000fd5b021790555060028101839055805460018201546040517f60850aec46dea3854368ebe9087866f660da4b915e21945cfbc2e673935ab4d29261221592869260ff909116908890613d5b565b6000600f600084600281111561268a57634e487b7160e01b600052602160045260246000fd5b60028111156126a957634e487b7160e01b600052602160045260246000fd5b815260200190815260200160002060006006548152602001908152602001600020905060005b825181101561279257816002018382815181106126fc57634e487b7160e01b600052603260045260246000fd5b602090810291909101810151825460018101845560009384529183209091015583513391600a85019186908590811061274557634e487b7160e01b600052603260045260246000fd5b6020026020010151815260200190815260200160002060006101000a8154816001600160a01b0302191690836001600160a01b03160217905550808061278a90613ef7565b9150506126cf565b5081518160030160008282546127a89190613deb565b9091555050505050565b6000600f60008360028111156127d857634e487b7160e01b600052602160045260246000fd5b60028111156127f757634e487b7160e01b600052602160045260246000fd5b815260200190815260200160002060006006548152602001908152602001600020905060006010600084600281111561284057634e487b7160e01b600052602160045260246000fd5b600281111561285f57634e487b7160e01b600052602160045260246000fd5b8152602001908152602001600020600101549050600060648260196128849190613e17565b61288e9190613e03565b90506000606461289f84600f613e17565b6128a99190613e03565b9050600060646128ba85600a613e17565b6128c49190613e03565b9050604051806060016040528084815260200183815260200182815250856004019060036128f3929190612f29565b50505050505050565b60008281526011602052604081205460ff16906129198284612afb565b9050610ad28282612c47565b600061297a826040518060400160405280602081526020017f5361666545524332303a206c6f772d6c6576656c2063616c6c206661696c6564815250856001600160a01b0316612dae9092919063ffffffff16565b805190915015611e4f57808060200190518101906129989190613110565b611e4f5760405162461bcd60e51b815260040161042a90613cf2565b60007f00000000000000000000000000000000000000000000000000000000000000006001600160a01b0316634000aea07f000000000000000000000000000000000000000000000000000000000000000084866000604051602001612a1b929190613ac6565b6040516020818303038152906040526040518463ffffffff1660e01b8152600401612a4893929190613a18565b602060405180830381600087803b158015612a6257600080fd5b505af1158015612a76573d6000803e3d6000fd5b505050506040513d601f19601f82011682018060405250810190612a9a9190613110565b50600083815260016020526040812054612ab990859083903090612dc7565b600085815260016020819052604090912054919250612ad89190613deb565b600085815260016020526040902055612af18482612e04565b9150505b92915050565b60606000600f6000856002811115612b2357634e487b7160e01b600052602160045260246000fd5b6002811115612b4257634e487b7160e01b600052602160045260246000fd5b8152602001908152602001600020600060065481526020019081526020016000209050600a5467ffffffffffffffff811115612b8e57634e487b7160e01b600052604160045260246000fd5b604051908082528060200260200182016040528015612bb7578160200160208202803683370190505b50915060005b600a54811015612c3f5781600301548482604051602001612bdf929190613ac6565b6040516020818303038152906040528051906020012060001c612c029190613f12565b838281518110612c2257634e487b7160e01b600052603260045260246000fd5b602090810291909101015280612c3781613ef7565b915050612bbd565b505092915050565b6000600f6000846002811115612c6d57634e487b7160e01b600052602160045260246000fd5b6002811115612c8c57634e487b7160e01b600052602160045260246000fd5b815260200190815260200160002060006006548152602001908152602001600020905060005b600a54811015612da257600082600201848381518110612ce257634e487b7160e01b600052603260045260246000fd5b602002602001015181548110612d0857634e487b7160e01b600052603260045260246000fd5b6000918252602080832090910154808352600a86019091526040909120546001850180549293506001600160a01b039091169184908110612d5957634e487b7160e01b600052603260045260246000fd5b6000918252602090912001805473ffffffffffffffffffffffffffffffffffffffff19166001600160a01b03929092169190911790555080612d9a81613ef7565b915050612cb2565b50611e4f836003611d3c565b6060612dbd8484600085612e37565b90505b9392505050565b600084848484604051602001612de09493929190613ad4565b6040516020818303038152906040528051906020012060001c90505b949350505050565b60008282604051602001612e19929190613982565b60405160208183030381529060405280519060200120905092915050565b606082471015612e595760405162461bcd60e51b815260040161042a90613c22565b843b612e775760405162461bcd60e51b815260040161042a90613cd2565b600080866001600160a01b03168587604051612e9391906139a2565b60006040518083038185875af1925050503d8060008114612ed0576040519150601f19603f3d011682016040523d82523d6000602084013e612ed5565b606091505b5091509150612ee5828286612ef0565b979650505050505050565b60608315612eff575081612dc0565b825115612f0f5782518084602001fd5b8160405162461bcd60e51b815260040161042a9190613bc1565b828054828255906000526020600020908101928215612f64579160200282015b82811115612f64578251825591602001919060010190612f49565b50612f70929150612f74565b5090565b5b80821115612f705760008155600101612f75565b6000612f9c612f9784613dc7565b613dab565b90508083825260208201905082856020860285011115612fbb57600080fd5b60005b85811015612fe557612fd08783613025565b83526020928301929190910190600101612fbe565b5050509392505050565b8035612af581613fad565b600082601f83011261300a578081fd5b8135612af1848260208601612f89565b8051612af581613fc1565b8035612af581613fc9565b60008083601f840112613041578182fd5b50813567ffffffffffffffff811115613058578182fd5b60208301915083600182028301111561307057600080fd5b9250929050565b8035612af581613fcf565b8051612af581613fc9565b60006020828403121561309e578081fd5b612dc083828401612fef565b600080604083850312156130bc578081fd5b6130c884828501612fef565b915060206130d885828601612fef565b9150509250929050565b600080604083850312156130f4578182fd5b61310084838501612fef565b915060206130d885828601613025565b600060208284031215613121578081fd5b612dc08382840161301a565b6000806040838503121561313f578182fd5b61310084838501613025565b6000806020838503121561315d578182fd5b8183013567ffffffffffffffff811115613175578283fd5b61318185828601613030565b92509250509250929050565b60006020828403121561319e578081fd5b612dc083828401613077565b600080604083850312156131bc578182fd5b6131c884838501613077565b9150602083013567ffffffffffffffff8111156131e3578182fd5b6130d885828601612ffa565b60008060408385031215613201578182fd5b61310084838501613077565b600080600060608486031215613221578081fd5b61322d85828601613077565b9250602061323d86828701613025565b925050604084013567ffffffffffffffff811115613259578182fd5b61326586828701612ffa565b9150509250925092565b60008060408385031215613281578182fd5b61328d84838501613025565b915060206130d885828601613077565b6000602082840312156132ae578081fd5b612dc083828401613025565b6000602082840312156132cb578081fd5b612dc083828401613082565b6132e182826132f2565b5060200190565b6132e182826133d2565b6132fb81613e4d565b82525050565b600061330b825190565b8084526020938401938301825b8281101561333d57815161332c87826132d7565b965050602082019150600101613318565b5093949350505050565b6000613351825490565b8084526000838152602090819020940193825b8281101561333d5761337582613f7e565b61337f87826132d7565b96505060019182019101613364565b6000613398825190565b8084526020938401938301825b8281101561333d5781516133b987826132e8565b9650506020820191506001016133a5565b8015156132fb565b806132fb565b60006133e2825190565b8084526020840193506133f9818560208601613e9e565b601f01601f19169290920192915050565b6000613414825190565b613422818560208601613e9e565b9290920192915050565b6132fb81613e72565b6132fb81613e7d565b6132fb81613e88565b6132fb81613e93565b60268152602081017f4f776e61626c653a206e6577206f776e657220697320746865207a65726f206181527f6464726573730000000000000000000000000000000000000000000000000000602082015290505b60400190565b60268152602081017f536f7272792063616e20616374697661746520617320726166666c652069732081527f6163746976650000000000000000000000000000000000000000000000000000602082015290506134a4565b60148152602081017f596f752068617665206e6f20726f6c6c6f766572000000000000000000000000815290505b60200190565b60148152602081017f436f6e7472616374206e6f7420616c6c6f77656400000000000000000000000081529050613530565b602b8152602081017f4e6f7420656e6f756768204c494e4b202d2066696c6c20636f6e74726163742081527f7769746820666175636574000000000000000000000000000000000000000000602082015290506134a4565b60268152602081017f416464726573733a20696e73756666696369656e742062616c616e636520666f81527f722063616c6c0000000000000000000000000000000000000000000000000000602082015290506134a4565b60278152602081017f536f7272792063616e206e6f74206465616374697661746520612076616c696481527f20726166666c6500000000000000000000000000000000000000000000000000602082015290506134a4565b60168152602081017f43616e6e6f74206265207a65726f20616464726573730000000000000000000081529050613530565b60198152602081017f5265626f6f7420636865636b206e6f7420636f6d706c6574650000000000000081529050613530565b60138152602081017f4e6f207469636b6574207370656369666965640000000000000000000000000081529050613530565b60138152602081017f526166666c65206e6f7420496e6163746976650000000000000000000000000081529050613530565b601a8152602081017f50726f787920636f6e7472616374206e6f7420616c6c6f77656400000000000081529050613530565b60208082527f4f776e61626c653a2063616c6c6572206973206e6f7420746865206f776e65729101908152613530565b601f8152602081017f4f6e6c7920565246436f6f7264696e61746f722063616e2066756c66696c6c0081529050613530565b60148152602081017f43616e6e6f74206265205553444320746f6b656e00000000000000000000000081529050613530565b60158152602081017f4e6f74206f776e6572206f7220696e6a6563746f72000000000000000000000081529050613530565b601d8152602081017f416464726573733a2063616c6c20746f206e6f6e2d636f6e747261637400000081529050613530565b600f8152602081017f526166666c65206e6f74206f70656e000000000000000000000000000000000081529050613530565b602a8152602081017f5361666545524332303a204552433230206f7065726174696f6e20646964206e81527f6f74207375636365656400000000000000000000000000000000000000000000602082015290506134a4565b601f8152602081017f5265656e7472616e637947756172643a207265656e7472616e742063616c6c0081529050613530565b601f8152602081017f6e6f206d6174636820696e207469636b65747320746f20726f6c6c6f7665720081529050613530565b60108152602081017f546f6f206d616e79207469636b6574730000000000000000000000000000000081529050613530565b61398c81846133d2565b60200161399981836133d2565b60200192915050565b612af5818361340a565b60208101612af582846132f2565b604081016139c882856132f2565b612dc060208301846132f2565b606081016139e382866132f2565b6139f060208301856132f2565b612dfc60408301846133d2565b60408101613a0b82856132f2565b612dc060208301846133d2565b60608101613a2682866132f2565b613a3360208301856133d2565b8181036040830152613a4581846133d8565b95945050505050565b60a08082528101613a5f8188613301565b9050613a6e60208301876133d2565b8181036040830152613a80818661338e565b9050613a8f60608301856133d2565b613a9c60808301846133d2565b9695505050505050565b60408101613ab482856133ca565b8181036020830152612dbd81846133d8565b60408101613a0b82856133d2565b60808101613ae282876133d2565b613aef60208301866133d2565b613afc60408301856132f2565b613a4560608301846133d2565b60208101612af5828461342c565b606081016139e38286613435565b60808101613b338287613435565b8181036020830152613b458186613347565b9050613afc60408301856133d2565b60408101613b628285613435565b612dc0602083018461343e565b60408101613a0b8285613435565b60608101613b8b8286613435565b6139f060208301856133d2565b60208101612af5828461343e565b60408101613bb48285613447565b612dc06020830184613435565b60208082528101612dc081846133d8565b60208082528101612af581613450565b60208082528101612af5816134aa565b60208082528101612af581613502565b60208082528101612af581613536565b60208082528101612af581613568565b60208082528101612af5816135c0565b60208082528101612af581613618565b60208082528101612af581613670565b60208082528101612af5816136a2565b60208082528101612af5816136d4565b60208082528101612af581613706565b60208082528101612af581613738565b60208082528101612af58161376a565b60208082528101612af58161379a565b60208082528101612af5816137cc565b60208082528101612af5816137fe565b60208082528101612af581613830565b60208082528101612af581613862565b60208082528101612af581613894565b60208082528101612af5816138ec565b60208082528101612af58161391e565b60208082528101612af581613950565b60208101612af582846133d2565b60608101613d4e82866133d2565b6139f06020830185613435565b60808101613d6982876133d2565b613d7660208301866133d2565b613afc6040830185613435565b60608101613d9182866133d2565b613d9e60208301856133d2565b612dfc604083018461343e565b6000613db660405190565b9050613dc28282613eca565b919050565b600067ffffffffffffffff821115613de157613de1613f68565b5060209081020190565b60008219821115613dfe57613dfe613f26565b500190565b600082613e1257613e12613f3c565b500490565b6000816000190483118215151615613e3157613e31613f26565b500290565b600082821015613e4857613e48613f26565b500390565b60006001600160a01b038216612af5565b80613dc281613f8a565b80613dc281613f9d565b6000612af582613e4d565b6000612af582613e5e565b6000612af582613e68565b600060ff8216612af5565b60005b83811015613eb9578181015183820152602001613ea1565b83811115610ad25750506000910152565b601f19601f830116810181811067ffffffffffffffff82111715613ef057613ef0613f68565b6040525050565b6000600019821415613f0b57613f0b613f26565b5060010190565b600082613f2157613f21613f3c565b500690565b634e487b7160e01b600052601160045260246000fd5b634e487b7160e01b600052601260045260246000fd5b634e487b7160e01b600052602160045260246000fd5b634e487b7160e01b600052604160045260246000fd5b6000612af58254613e4d565b60038110613f9a57613f9a613f52565b50565b60058110613f9a57613f9a613f52565b613fb681613e4d565b8114613f9a57600080fd5b801515613fb6565b80613fb6565b60038110613f9a57600080fdfea2646970667358221220673d3c836541e42c14baeebc855a2582207aef50f5d955e4d373a8f2a2a0d20564736f6c63430008040033",
  "linkReferences": {},
  "deployedLinkReferences": {}
}