{
  "_format": "hh-sol-artifact-1",
  "contractName": "PolylottoRaffle",
  "sourceName": "contracts/PolyLottoRaffle.sol",
  "abi": [
    {
      "inputs": [
        {
          "internalType": "address",
          "name": "_raffleToken",
          "type": "address"
        },
        {
          "internalType": "uint256",
          "name": "_amountOfTokenPerStable",
          "type": "uint256"
        },
        {
          "internalType": "uint256",
          "name": "_noOfWinners",
          "type": "uint256"
        }
      ],
      "stateMutability": "nonpayable",
      "type": "constructor"
    },
    {
      "anonymous": false,
      "inputs": [
        {
          "indexed": false,
          "internalType": "address",
          "name": "token",
          "type": "address"
        },
        {
          "indexed": false,
          "internalType": "uint256",
          "name": "amount",
          "type": "uint256"
        }
      ],
      "name": "AdminTokenRecovery",
      "type": "event"
    },
    {
      "anonymous": false,
      "inputs": [
        {
          "indexed": false,
          "internalType": "enum IPolyLottoRaffle.RaffleCategory",
          "name": "raffleCategory",
          "type": "uint8"
        },
        {
          "indexed": true,
          "internalType": "uint256",
          "name": "raffleId",
          "type": "uint256"
        },
        {
          "indexed": false,
          "internalType": "uint256",
          "name": "injectedAmount",
          "type": "uint256"
        }
      ],
      "name": "LotteryInjection",
      "type": "event"
    },
    {
      "anonymous": false,
      "inputs": [
        {
          "indexed": false,
          "internalType": "address",
          "name": "_operatorAddress",
          "type": "address"
        },
        {
          "indexed": false,
          "internalType": "address",
          "name": "_treasuryAddress",
          "type": "address"
        },
        {
          "indexed": false,
          "internalType": "address",
          "name": "_injectorAddress",
          "type": "address"
        }
      ],
      "name": "NewOperatorAndTreasuryAndInjectorAddresses",
      "type": "event"
    },
    {
      "anonymous": false,
      "inputs": [
        {
          "indexed": false,
          "internalType": "uint256",
          "name": "txIndex",
          "type": "uint256"
        },
        {
          "indexed": false,
          "internalType": "uint256",
          "name": "timestamp",
          "type": "uint256"
        },
        {
          "indexed": false,
          "internalType": "enum IPolyLottoRaffle.RaffleCategory",
          "name": "raffleCategory",
          "type": "uint8"
        },
        {
          "indexed": false,
          "internalType": "uint256",
          "name": "noOfTickets",
          "type": "uint256"
        }
      ],
      "name": "NewUserTransaction",
      "type": "event"
    },
    {
      "anonymous": false,
      "inputs": [
        {
          "indexed": true,
          "internalType": "address",
          "name": "previousOwner",
          "type": "address"
        },
        {
          "indexed": true,
          "internalType": "address",
          "name": "newOwner",
          "type": "address"
        }
      ],
      "name": "OwnershipTransferred",
      "type": "event"
    },
    {
      "anonymous": false,
      "inputs": [
        {
          "indexed": false,
          "internalType": "uint256",
          "name": "raffleID",
          "type": "uint256"
        },
        {
          "indexed": false,
          "internalType": "uint256",
          "name": "timeStamp",
          "type": "uint256"
        },
        {
          "indexed": false,
          "internalType": "enum IPolyLottoRaffle.RaffleState",
          "name": "raffleState",
          "type": "uint8"
        }
      ],
      "name": "RaffleDeactivated",
      "type": "event"
    },
    {
      "anonymous": false,
      "inputs": [
        {
          "indexed": false,
          "internalType": "enum IPolyLottoRaffle.RaffleCategory",
          "name": "category",
          "type": "uint8"
        },
        {
          "indexed": true,
          "internalType": "uint256",
          "name": "raffleId",
          "type": "uint256"
        },
        {
          "indexed": false,
          "internalType": "enum IPolyLottoRaffle.RaffleState",
          "name": "raffleState",
          "type": "uint8"
        }
      ],
      "name": "RaffleEnded",
      "type": "event"
    },
    {
      "anonymous": false,
      "inputs": [
        {
          "indexed": true,
          "internalType": "uint256",
          "name": "raffleId",
          "type": "uint256"
        },
        {
          "indexed": false,
          "internalType": "uint256",
          "name": "endTime",
          "type": "uint256"
        },
        {
          "indexed": false,
          "internalType": "uint256",
          "name": "rebootEndTime",
          "type": "uint256"
        },
        {
          "indexed": false,
          "internalType": "enum IPolyLottoRaffle.RaffleState",
          "name": "raffleState",
          "type": "uint8"
        }
      ],
      "name": "RaffleOpen",
      "type": "event"
    },
    {
      "anonymous": false,
      "inputs": [
        {
          "indexed": false,
          "internalType": "uint256",
          "name": "raffleID",
          "type": "uint256"
        },
        {
          "indexed": false,
          "internalType": "uint256",
          "name": "timeStamp",
          "type": "uint256"
        },
        {
          "indexed": false,
          "internalType": "enum IPolyLottoRaffle.RaffleState",
          "name": "raffleState",
          "type": "uint8"
        }
      ],
      "name": "RaffleReactivated",
      "type": "event"
    },
    {
      "anonymous": false,
      "inputs": [
        {
          "indexed": false,
          "internalType": "enum IPolyLottoRaffle.RaffleCategory",
          "name": "raffleCategory",
          "type": "uint8"
        },
        {
          "indexed": true,
          "internalType": "uint256",
          "name": "raffleId",
          "type": "uint256"
        },
        {
          "indexed": false,
          "internalType": "address",
          "name": "buyer",
          "type": "address"
        },
        {
          "indexed": false,
          "internalType": "uint32[]",
          "name": "tickets",
          "type": "uint32[]"
        }
      ],
      "name": "RolloverClaimed",
      "type": "event"
    },
    {
      "anonymous": false,
      "inputs": [
        {
          "indexed": false,
          "internalType": "enum IPolyLottoRaffle.RaffleCategory",
          "name": "raffleCategory",
          "type": "uint8"
        },
        {
          "indexed": true,
          "internalType": "uint256",
          "name": "raffleId",
          "type": "uint256"
        },
        {
          "indexed": false,
          "internalType": "uint32[]",
          "name": "tickets",
          "type": "uint32[]"
        },
        {
          "indexed": false,
          "internalType": "uint256",
          "name": "rafflePool",
          "type": "uint256"
        },
        {
          "indexed": false,
          "internalType": "uint256[]",
          "name": "winnersPayout",
          "type": "uint256[]"
        }
      ],
      "name": "TicketsPurchased",
      "type": "event"
    },
    {
      "anonymous": false,
      "inputs": [
        {
          "indexed": false,
          "internalType": "enum IPolyLottoRaffle.RaffleCategory",
          "name": "raffleCategory",
          "type": "uint8"
        },
        {
          "indexed": false,
          "internalType": "address[]",
          "name": "winners",
          "type": "address[]"
        },
        {
          "indexed": false,
          "internalType": "uint256",
          "name": "amount",
          "type": "uint256"
        },
        {
          "indexed": false,
          "internalType": "uint256",
          "name": "timestamp",
          "type": "uint256"
        }
      ],
      "name": "WinnersAwarded",
      "type": "event"
    },
    {
      "anonymous": false,
      "inputs": [
        {
          "indexed": false,
          "internalType": "uint256",
          "name": "raffleID",
          "type": "uint256"
        },
        {
          "indexed": false,
          "internalType": "uint256",
          "name": "amount",
          "type": "uint256"
        }
      ],
      "name": "WithdrawalComplete",
      "type": "event"
    },
    {
      "inputs": [
        {
          "internalType": "enum IPolyLottoRaffle.RaffleCategory",
          "name": "_category",
          "type": "uint8"
        },
        {
          "internalType": "uint32[]",
          "name": "_tickets",
          "type": "uint32[]"
        }
      ],
      "name": "buyTickets",
      "outputs": [],
      "stateMutability": "nonpayable",
      "type": "function"
    },
    {
      "inputs": [
        {
          "internalType": "enum IPolyLottoRaffle.RaffleCategory",
          "name": "_category",
          "type": "uint8"
        }
      ],
      "name": "claimRollover",
      "outputs": [],
      "stateMutability": "nonpayable",
      "type": "function"
    },
    {
      "inputs": [],
      "name": "deactivateRaffle",
      "outputs": [],
      "stateMutability": "nonpayable",
      "type": "function"
    },
    {
      "inputs": [],
      "name": "getNoOfWinners",
      "outputs": [
        {
          "internalType": "uint256",
          "name": "",
          "type": "uint256"
        }
      ],
      "stateMutability": "view",
      "type": "function"
    },
    {
      "inputs": [
        {
          "internalType": "enum IPolyLottoRaffle.RaffleCategory",
          "name": "_category",
          "type": "uint8"
        },
        {
          "internalType": "uint256",
          "name": "_raffleID",
          "type": "uint256"
        }
      ],
      "name": "getRaffle",
      "outputs": [
        {
          "components": [
            {
              "internalType": "uint256",
              "name": "ID",
              "type": "uint256"
            },
            {
              "internalType": "uint256",
              "name": "noOfTicketsSold",
              "type": "uint256"
            },
            {
              "internalType": "uint256",
              "name": "noOfPlayers",
              "type": "uint256"
            },
            {
              "internalType": "uint256",
              "name": "amountInjected",
              "type": "uint256"
            },
            {
              "internalType": "uint256[]",
              "name": "winnersPayout",
              "type": "uint256[]"
            },
            {
              "internalType": "address[]",
              "name": "winners",
              "type": "address[]"
            },
            {
              "internalType": "uint256[]",
              "name": "winningTickets",
              "type": "uint256[]"
            },
            {
              "internalType": "uint256",
              "name": "raffleStartTime",
              "type": "uint256"
            },
            {
              "internalType": "uint256",
              "name": "raffleEndTime",
              "type": "uint256"
            }
          ],
          "internalType": "struct IPolyLottoRaffle.RaffleStruct",
          "name": "raffle",
          "type": "tuple"
        }
      ],
      "stateMutability": "view",
      "type": "function"
    },
    {
      "inputs": [
        {
          "internalType": "enum IPolyLottoRaffle.RaffleCategory",
          "name": "_category",
          "type": "uint8"
        }
      ],
      "name": "getRaffleData",
      "outputs": [
        {
          "components": [
            {
              "internalType": "uint256",
              "name": "ticketPrice",
              "type": "uint256"
            },
            {
              "internalType": "uint256",
              "name": "rafflePool",
              "type": "uint256"
            },
            {
              "internalType": "uint256",
              "name": "rolloverPool",
              "type": "uint256"
            },
            {
              "internalType": "enum IPolyLottoRaffle.RaffleState",
              "name": "raffleState",
              "type": "uint8"
            }
          ],
          "internalType": "struct IPolyLottoRaffle.RaffleData",
          "name": "raffleData",
          "type": "tuple"
        }
      ],
      "stateMutability": "view",
      "type": "function"
    },
    {
      "inputs": [],
      "name": "getRaffleEndTime",
      "outputs": [
        {
          "internalType": "uint256",
          "name": "",
          "type": "uint256"
        }
      ],
      "stateMutability": "view",
      "type": "function"
    },
    {
      "inputs": [],
      "name": "getRaffleID",
      "outputs": [
        {
          "internalType": "uint256",
          "name": "",
          "type": "uint256"
        }
      ],
      "stateMutability": "view",
      "type": "function"
    },
    {
      "inputs": [
        {
          "internalType": "enum IPolyLottoRaffle.RaffleCategory",
          "name": "_category",
          "type": "uint8"
        }
      ],
      "name": "getRandomGenChecker",
      "outputs": [
        {
          "internalType": "bool",
          "name": "",
          "type": "bool"
        }
      ],
      "stateMutability": "view",
      "type": "function"
    },
    {
      "inputs": [],
      "name": "getRebootChecker",
      "outputs": [
        {
          "internalType": "uint256",
          "name": "",
          "type": "uint256"
        }
      ],
      "stateMutability": "view",
      "type": "function"
    },
    {
      "inputs": [],
      "name": "getRebootEndTime",
      "outputs": [
        {
          "internalType": "uint256",
          "name": "",
          "type": "uint256"
        }
      ],
      "stateMutability": "view",
      "type": "function"
    },
    {
      "inputs": [
        {
          "internalType": "address",
          "name": "_user",
          "type": "address"
        }
      ],
      "name": "getUserTransactionCount",
      "outputs": [
        {
          "internalType": "uint256",
          "name": "",
          "type": "uint256"
        }
      ],
      "stateMutability": "view",
      "type": "function"
    },
    {
      "inputs": [
        {
          "internalType": "enum IPolyLottoRaffle.RaffleCategory",
          "name": "_category",
          "type": "uint8"
        }
      ],
      "name": "getWinners",
      "outputs": [],
      "stateMutability": "nonpayable",
      "type": "function"
    },
    {
      "inputs": [
        {
          "internalType": "address",
          "name": "_user",
          "type": "address"
        },
        {
          "internalType": "uint256",
          "name": "_txIndex",
          "type": "uint256"
        }
      ],
      "name": "getuserTransactionHistory",
      "outputs": [
        {
          "components": [
            {
              "internalType": "uint256",
              "name": "txID",
              "type": "uint256"
            },
            {
              "internalType": "uint256",
              "name": "time",
              "type": "uint256"
            },
            {
              "internalType": "enum IPolyLottoRaffle.RaffleCategory",
              "name": "raffleCategory",
              "type": "uint8"
            },
            {
              "internalType": "uint256",
              "name": "noOfTickets",
              "type": "uint256"
            },
            {
              "internalType": "string",
              "name": "description",
              "type": "string"
            }
          ],
          "internalType": "struct PolylottoRaffle.Transaction",
          "name": "userTransaction",
          "type": "tuple"
        }
      ],
      "stateMutability": "view",
      "type": "function"
    },
    {
      "inputs": [
        {
          "internalType": "enum IPolyLottoRaffle.RaffleCategory",
          "name": "_category",
          "type": "uint8"
        },
        {
          "internalType": "uint256",
          "name": "_amount",
          "type": "uint256"
        }
      ],
      "name": "injectFunds",
      "outputs": [],
      "stateMutability": "nonpayable",
      "type": "function"
    },
    {
      "inputs": [],
      "name": "injectorAddress",
      "outputs": [
        {
          "internalType": "address",
          "name": "",
          "type": "address"
        }
      ],
      "stateMutability": "view",
      "type": "function"
    },
    {
      "inputs": [
        {
          "internalType": "enum IPolyLottoRaffle.RaffleCategory",
          "name": "_category",
          "type": "uint8"
        }
      ],
      "name": "manualRefund",
      "outputs": [],
      "stateMutability": "nonpayable",
      "type": "function"
    },
    {
      "inputs": [],
      "name": "maxNumberTicketsPerBuy",
      "outputs": [
        {
          "internalType": "uint256",
          "name": "",
          "type": "uint256"
        }
      ],
      "stateMutability": "view",
      "type": "function"
    },
    {
      "inputs": [],
      "name": "noOfWinners",
      "outputs": [
        {
          "internalType": "uint256",
          "name": "",
          "type": "uint256"
        }
      ],
      "stateMutability": "view",
      "type": "function"
    },
    {
      "inputs": [],
      "name": "operatorAddress",
      "outputs": [
        {
          "internalType": "address",
          "name": "",
          "type": "address"
        }
      ],
      "stateMutability": "view",
      "type": "function"
    },
    {
      "inputs": [],
      "name": "owner",
      "outputs": [
        {
          "internalType": "address",
          "name": "",
          "type": "address"
        }
      ],
      "stateMutability": "view",
      "type": "function"
    },
    {
      "inputs": [
        {
          "internalType": "enum IPolyLottoRaffle.RaffleCategory",
          "name": "_category",
          "type": "uint8"
        }
      ],
      "name": "payoutWinners",
      "outputs": [],
      "stateMutability": "nonpayable",
      "type": "function"
    },
    {
      "inputs": [],
      "name": "polylottoKeeper",
      "outputs": [
        {
          "internalType": "address",
          "name": "",
          "type": "address"
        }
      ],
      "stateMutability": "view",
      "type": "function"
    },
    {
      "inputs": [],
      "name": "priceUpdater",
      "outputs": [
        {
          "internalType": "address",
          "name": "",
          "type": "address"
        }
      ],
      "stateMutability": "view",
      "type": "function"
    },
    {
      "inputs": [],
      "name": "raffleToken",
      "outputs": [
        {
          "internalType": "contract IERC20",
          "name": "",
          "type": "address"
        }
      ],
      "stateMutability": "view",
      "type": "function"
    },
    {
      "inputs": [],
      "name": "randomGenerator",
      "outputs": [
        {
          "internalType": "address",
          "name": "",
          "type": "address"
        }
      ],
      "stateMutability": "view",
      "type": "function"
    },
    {
      "inputs": [],
      "name": "reactivateRaffle",
      "outputs": [],
      "stateMutability": "nonpayable",
      "type": "function"
    },
    {
      "inputs": [
        {
          "internalType": "address",
          "name": "_tokenAddress",
          "type": "address"
        },
        {
          "internalType": "uint256",
          "name": "_tokenAmount",
          "type": "uint256"
        }
      ],
      "name": "recoverWrongTokens",
      "outputs": [],
      "stateMutability": "nonpayable",
      "type": "function"
    },
    {
      "inputs": [],
      "name": "renounceOwnership",
      "outputs": [],
      "stateMutability": "nonpayable",
      "type": "function"
    },
    {
      "inputs": [
        {
          "internalType": "enum IPolyLottoRaffle.RaffleCategory",
          "name": "_category",
          "type": "uint8"
        },
        {
          "internalType": "bool",
          "name": "_deactivated",
          "type": "bool"
        }
      ],
      "name": "rollover",
      "outputs": [],
      "stateMutability": "nonpayable",
      "type": "function"
    },
    {
      "inputs": [
        {
          "internalType": "address",
          "name": "_keeperAddress",
          "type": "address"
        },
        {
          "internalType": "address",
          "name": "_randomGenerator",
          "type": "address"
        }
      ],
      "name": "setKeeperAndRandomGeneratorAddress",
      "outputs": [],
      "stateMutability": "nonpayable",
      "type": "function"
    },
    {
      "inputs": [
        {
          "internalType": "address",
          "name": "_operatorAddress",
          "type": "address"
        },
        {
          "internalType": "address",
          "name": "_treasuryAddress",
          "type": "address"
        },
        {
          "internalType": "address",
          "name": "_injectorAddress",
          "type": "address"
        }
      ],
      "name": "setOperatorAndTreasuryAndInjectorAddresses",
      "outputs": [],
      "stateMutability": "nonpayable",
      "type": "function"
    },
    {
      "inputs": [
        {
          "internalType": "address",
          "name": "_priceUpdater",
          "type": "address"
        }
      ],
      "name": "setPriceUpdaterAddress",
      "outputs": [],
      "stateMutability": "nonpayable",
      "type": "function"
    },
    {
      "inputs": [
        {
          "internalType": "enum IPolyLottoRaffle.RaffleCategory",
          "name": "_category",
          "type": "uint8"
        },
        {
          "internalType": "bool",
          "name": "_drawCompleted",
          "type": "bool"
        }
      ],
      "name": "setRaffleAsDrawn",
      "outputs": [],
      "stateMutability": "nonpayable",
      "type": "function"
    },
    {
      "inputs": [
        {
          "internalType": "uint256",
          "name": "_amountOfTokenPerStable",
          "type": "uint256"
        }
      ],
      "name": "setTicketPrice",
      "outputs": [],
      "stateMutability": "nonpayable",
      "type": "function"
    },
    {
      "inputs": [],
      "name": "startRaffle",
      "outputs": [],
      "stateMutability": "nonpayable",
      "type": "function"
    },
    {
      "inputs": [
        {
          "internalType": "address",
          "name": "newOwner",
          "type": "address"
        }
      ],
      "name": "transferOwnership",
      "outputs": [],
      "stateMutability": "nonpayable",
      "type": "function"
    },
    {
      "inputs": [],
      "name": "treasuryAddress",
      "outputs": [
        {
          "internalType": "address",
          "name": "",
          "type": "address"
        }
      ],
      "stateMutability": "view",
      "type": "function"
    },
    {
      "inputs": [
        {
          "internalType": "address",
          "name": "_newTokenAddress",
          "type": "address"
        }
      ],
      "name": "updateRaffleToken",
      "outputs": [],
      "stateMutability": "nonpayable",
      "type": "function"
    },
    {
      "inputs": [
        {
          "internalType": "enum IPolyLottoRaffle.RaffleCategory",
          "name": "_category",
          "type": "uint8"
        },
        {
          "internalType": "address",
          "name": "_user",
          "type": "address"
        }
      ],
      "name": "viewUserRollovers",
      "outputs": [
        {
          "internalType": "uint256",
          "name": "ticketsToRollover",
          "type": "uint256"
        }
      ],
      "stateMutability": "view",
      "type": "function"
    },
    {
      "inputs": [
        {
          "internalType": "enum IPolyLottoRaffle.RaffleCategory",
          "name": "_category",
          "type": "uint8"
        },
        {
          "internalType": "address",
          "name": "_user",
          "type": "address"
        },
        {
          "internalType": "uint256",
          "name": "_raffleID",
          "type": "uint256"
        }
      ],
      "name": "viewUserTickets",
      "outputs": [
        {
          "internalType": "uint32[]",
          "name": "",
          "type": "uint32[]"
        }
      ],
      "stateMutability": "view",
      "type": "function"
    },
    {
      "inputs": [
        {
          "internalType": "enum IPolyLottoRaffle.RaffleCategory",
          "name": "_category",
          "type": "uint8"
        }
      ],
      "name": "withdrawFundsDueToDeactivation",
      "outputs": [],
      "stateMutability": "nonpayable",
      "type": "function"
    }
  ],
  "bytecode": "0x60c0604052611c2060805261070860a0526103e86009553480156200002357600080fd5b5060405162006134380380620061348339810160408190526200004691620001c0565b6001600081815581546001600160a01b031916339081179092556040518291907f8be0079c531659141344cd1fd0a4f28419497f9722a3daafe3b4186f6b6457e0908290a3506003600755601080546001600160a01b0319166001600160a01b038516179055620000b782620000d0565b600f805460ff60a01b1916905560085550620002509050565b6000805260146020527f4f26c3876aa9f4b92579780beea1161a61f87ebf1ec6ee865b299e447ecba99c8190556200010a81600a6200022e565b600160005260146020527fb6c61a840592cc84133e4b25bd509abf4659307c57b160799b38490a5aa48f2c55620001438160646200022e565b600260005260146020527fa1930aa930426c54c34daad2b9ada7c5d0ef0c96078a3c5bb79f6fa6602c4a7a5550565b60006001600160a01b0382165b92915050565b620001908162000172565b81146200019c57600080fd5b50565b80516200017f8162000185565b8062000190565b80516200017f81620001ac565b600080600060608486031215620001da57620001da600080fd5b6000620001e886866200019f565b9350506020620001fb86828701620001b3565b92505060406200020e86828701620001b3565b9150509250925092565b634e487b7160e01b600052601160045260246000fd5b60008160001904831182151516156200024b576200024b62000218565b500290565b60805160a051615ebe620002766000396000610a29015260006109f90152615ebe6000f3fe608060405234801561001057600080fd5b50600436106102de5760003560e01c80636de28ce911610186578063ad99854b116100e3578063d1f477a811610097578063dcbad90d11610071578063dcbad90d146105d8578063f2fde38b146105eb578063fc612a8d146105fe57600080fd5b8063d1f477a814610589578063d8f338401461059c578063da4ca039146105c557600080fd5b8063c1aba43f116100c8578063c1aba43f1461055b578063c5f956af14610563578063d1b860991461057657600080fd5b8063ad99854b14610532578063baa2efbb1461053b57600080fd5b806389d240aa1161013a57806392c1f29a1161011f57806392c1f29a146104f75780639c384653146105175780639eb386fd1461052a57600080fd5b806389d240aa146104d35780638da5cb5b146104e657600080fd5b8063715018a61161016b578063715018a61461049857806374dc2081146104a05780637cbd22fb146104b357600080fd5b80636de28ce91461047d5780636e94a83f1461048557600080fd5b80633f138d4b1161023f5780635583e81c116101f3578063623378d5116101cd578063623378d51461043757806364b4fc8e1461044a57806367bb60a01461046a57600080fd5b80635583e81c1461041457806356f689c01461041c5780635c0b95d41461042f57600080fd5b806344ab1d5c1161022457806344ab1d5c146103cb578063518da0a4146103eb57806352fc11e5146103f457600080fd5b80633f138d4b146103b057806342b2ea51146103c357600080fd5b8063269ce1bb116102965780632b5afd091161027b5780632b5afd091461036a5780632e23be9d1461037d5780633c50d5291461039d57600080fd5b8063269ce1bb1461034f578063280550961461035757600080fd5b806315981650116102c757806315981650146103215780631838628814610334578063242284f11461034757600080fd5b80630441717b146102e3578063127effb2146102f8575b600080fd5b6102f66102f1366004614ad8565b610611565b005b600b5461030b906001600160a01b031681565b6040516103189190614b19565b60405180910390f35b6102f661032f366004614b3f565b6108db565b600e5461030b906001600160a01b031681565b6102f6610911565b6102f6610bb2565b6102f6610365366004614ad8565b610fd2565b6102f6610378366004614ad8565b61138a565b61039061038b366004614b74565b6117a2565b6040516103189190614bb7565b6102f66103ab366004614bc5565b611938565b6102f66103be366004614be7565b6119dc565b600754610390565b6103de6103d9366004614c1a565b611aab565b6040516103189190614cd4565b61039060085481565b610407610402366004614ad8565b611b8d565b6040516103189190614d73565b600554610390565b6102f661042a366004614d94565b611c31565b600354610390565b6102f6610445366004614dc7565b611cb8565b60105461045d906001600160a01b031681565b6040516103189190614e23565b6102f6610478366004614e31565b611d2a565b600854610390565b6102f6610493366004614ad8565b611e90565b6102f661242f565b6102f66104ae366004614d94565b6124a3565b6104c66104c1366004614be7565b6124db565b6040516103189190614f4d565b6102f66104e1366004614ad8565b612617565b6001546001600160a01b031661030b565b61050a610505366004614ad8565b61288d565b6040516103189190614f66565b600a5461030b906001600160a01b031681565b600454610390565b61039060095481565b61054e610549366004614e31565b6128d0565b60405161031891906150ce565b6102f6612ac7565b600c5461030b906001600160a01b031681565b6102f6610584366004615131565b6130e2565b6102f6610597366004614dc7565b6133bd565b6103906105aa366004614dc7565b6001600160a01b031660009081526017602052604090205490565b6102f66105d336600461518d565b613875565b600d5461030b906001600160a01b031681565b6102f66105f9366004614dc7565b61398f565b600f5461030b906001600160a01b031681565b600e546001600160a01b031633146106445760405162461bcd60e51b815260040161063b90615205565b60405180910390fd5b60046014600083600281111561065c5761065c614ce5565b600281111561066d5761066d614ce5565b815260208101919091526040016000206003015460ff16600581111561069557610695614ce5565b146106b25760405162461bcd60e51b815260040161063b90615247565b6000601360008360028111156106ca576106ca614ce5565b60028111156106db576106db614ce5565b815260200190815260200160002060006005548152602001908152602001600020905060006014600084600281111561071657610716614ce5565b600281111561072757610727614ce5565b81526020019081526020016000209050600080600090505b600854811015610826576107ae84600501828154811061076157610761615257565b6000918252602090912001546004860180546001600160a01b03909216918490811061078f5761078f615257565b6000918252602090912001546010546001600160a01b03169190613a3b565b8360040181815481106107c3576107c3615257565b90600052602060002001548360010160008282546107e19190615283565b9091555050600484018054829081106107fc576107fc615257565b906000526020600020015482610812919061529a565b91508061081e816152b2565b91505061073f565b5060006002836001015461083a91906152e3565b600c5460105491925061085a916001600160a01b03908116911683613a3b565b8083600101600082825461086e9190615283565b9091555061087f9050856001613ac3565b6007805490600061088f836152b2565b91905055507fef99a204a94c30b225058df07e102a2bb1ee4c08995f4a39eccf82e79e4731f9858560050184426040516108cc9493929190615354565b60405180910390a15050505050565b600f546001600160a01b031633146109055760405162461bcd60e51b815260040161063b90615205565b61090e81613b21565b50565b600e546001600160a01b0316331461093b5760405162461bcd60e51b815260040161063b90615205565b60075460031461095d5760405162461bcd60e51b815260040161063b906153c2565b6005805490600061096d836152b2565b9091555050600f54600160a01b900460ff16156109ed57600f60009054906101000a90046001600160a01b03166001600160a01b031663673a7e286040518163ffffffff1660e01b8152600401600060405180830381600087803b1580156109d457600080fd5b505af11580156109e8573d6000803e3d6000fd5b505050505b426002819055610a1e907f00000000000000000000000000000000000000000000000000000000000000009061529a565b6003819055610a4e907f00000000000000000000000000000000000000000000000000000000000000009061529a565b60045560408051606081018252600080825260016020830152600292820192909252905b6003811015610b65576000828260038110610a8f57610a8f615257565b60200201519050600060136000836002811115610aae57610aae614ce5565b6002811115610abf57610abf614ce5565b8152602080820192909252604090810160009081206005548083529352209081556002805460078301556003546008830155909150610aff908390613ac3565b610b0882613bbf565b600060196000846002811115610b2057610b20614ce5565b6002811115610b3157610b31614ce5565b81526020810191909152604001600020805460ff191691151591909117905550819050610b5d816152b2565b915050610a72565b5060006007556005546003546004546040517fb15bf0ec96989b8686c290ff167b6855edaa07d0e6b8458f665125e64819068492610ba79290916002906153d2565b60405180910390a250565b600b546001600160a01b03163314610bdc5760405162461bcd60e51b815260040161063b9061542c565b600080805260146020908152604080516080810182527f4f26c3876aa9f4b92579780beea1161a61f87ebf1ec6ee865b299e447ecba99c805482527f4f26c3876aa9f4b92579780beea1161a61f87ebf1ec6ee865b299e447ecba99d54938201939093527f4f26c3876aa9f4b92579780beea1161a61f87ebf1ec6ee865b299e447ecba99e54918101919091527f4f26c3876aa9f4b92579780beea1161a61f87ebf1ec6ee865b299e447ecba99f54839290606083019060ff166005811115610ca757610ca7614ce5565b6005811115610cb857610cb8614ce5565b9052509050600581606001516005811115610cd557610cd5614ce5565b14610cf25760405162461bcd60e51b815260040161063b90615496565b6001600081815260146020908152604080516080810182527fb6c61a840592cc84133e4b25bd509abf4659307c57b160799b38490a5aa48f2c805482527fb6c61a840592cc84133e4b25bd509abf4659307c57b160799b38490a5aa48f2d54938201939093527fb6c61a840592cc84133e4b25bd509abf4659307c57b160799b38490a5aa48f2e54918101919091527fb6c61a840592cc84133e4b25bd509abf4659307c57b160799b38490a5aa48f2f54909190606083019060ff166005811115610dbf57610dbf614ce5565b6005811115610dd057610dd0614ce5565b9052509050600581606001516005811115610ded57610ded614ce5565b14610e0a5760405162461bcd60e51b815260040161063b90615496565b6002600081815260146020908152604080516080810182527fa1930aa930426c54c34daad2b9ada7c5d0ef0c96078a3c5bb79f6fa6602c4a7a805482527fa1930aa930426c54c34daad2b9ada7c5d0ef0c96078a3c5bb79f6fa6602c4a7b54938201939093527fa1930aa930426c54c34daad2b9ada7c5d0ef0c96078a3c5bb79f6fa6602c4a7c54918101919091527fa1930aa930426c54c34daad2b9ada7c5d0ef0c96078a3c5bb79f6fa6602c4a7d54909190606083019060ff166005811115610ed757610ed7614ce5565b6005811115610ee857610ee8614ce5565b9052509050600581606001516005811115610f0557610f05614ce5565b14610f225760405162461bcd60e51b815260040161063b90615496565b60408051606081018252600080825260016020830152600292820192909252905b6003811015610f85576000828260038110610f6057610f60615257565b60200201519050610f72816001613ac3565b5080610f7d816152b2565b915050610f43565b5060036007556005546040517f3e3fbe6edaa33edaf5f25f93631b45be609c9603eebf7d4d0976f0dec5dfdc0491610fc19142906001906153d2565b60405180910390a150505050505050565b333b15610ff15760405162461bcd60e51b815260040161063b906154d8565b3332146110105760405162461bcd60e51b815260040161063b9061551a565b8060006014600083600281111561102957611029614ce5565b600281111561103a5761103a614ce5565b81526020019081526020016000206040518060800160405290816000820154815260200160018201548152602001600282015481526020016003820160009054906101000a900460ff16600581111561109557611095614ce5565b60058111156110a6576110a6614ce5565b90525090506005816060015160058111156110c3576110c3614ce5565b146110e05760405162461bcd60e51b815260040161063b90615496565b82601560008260028111156110f7576110f7614ce5565b600281111561110857611108614ce5565b8152602080820192909252604090810160009081203382529092529020546111425760405162461bcd60e51b815260040161063b9061555c565b600260005414156111655760405162461bcd60e51b815260040161063b9061559e565b600260008190555060006014600086600281111561118557611185614ce5565b600281111561119657611196614ce5565b81526020019081526020016000209050600080601560008860028111156111bf576111bf614ce5565b60028111156111d0576111d0614ce5565b81526020808201929092526040908101600090812033825283528190208054825181850281018501909352808352919290919083018282801561123257602002820191906000526020600020905b81548152602001906001019080831161121e575b5050505050905060005b815181101561130f57600082828151811061125957611259615257565b602002602001015190506000601160008b600281111561127b5761127b614ce5565b600281111561128c5761128c614ce5565b81526020808201929092526040908101600090812085825290925290208054909150600160c01b900460ff166112c35750506112fd565b846112cd816152b2565b825460ff60c01b191683558754600289018054929850909250906000906112f5908490615283565b909155505050505b80611307816152b2565b91505061123c565b50811561137c57825460009061132590846155ae565b60105490915061133f906001600160a01b03163383613a3b565b7fac4b7f84df43766362cc5996cfd81888ae4ee76e3e429f0d2f3660404aea1829600554826040516113729291906155cd565b60405180910390a1505b505060016000555050505050565b600e546001600160a01b031633146113b45760405162461bcd60e51b815260040161063b90615205565b6003601460008360028111156113cc576113cc614ce5565b60028111156113dd576113dd614ce5565b815260208101919091526040016000206003015460ff16600581111561140557611405614ce5565b146114225760405162461bcd60e51b815260040161063b90615247565b60006013600083600281111561143a5761143a614ce5565b600281111561144b5761144b614ce5565b8152602080820192909252604090810160009081206005548252909252808220600d5491517fa6757ddd0000000000000000000000000000000000000000000000000000000081529093506001600160a01b039091169063a6757ddd906114b69086906004016155e8565b60006040518083038186803b1580156114ce57600080fd5b505afa1580156114e2573d6000803e3d6000fd5b505050506040513d6000823e601f3d908101601f1916820160405261150a9190810190615701565b9050600082600101546018600086600281111561152957611529614ce5565b600281111561153a5761153a614ce5565b8152602001908152602001600020546115539190615283565b9050600060085467ffffffffffffffff811115611572576115726155f6565b60405190808252806020026020018201604052801561159b578160200160208202803683370190505b509050600060085467ffffffffffffffff8111156115bb576115bb6155f6565b6040519080825280602002602001820160405280156115e4578160200160208202803683370190505b50905060005b60085481101561172557600085828151811061160857611608615257565b60200260200101518561161b919061529a565b90506011600089600281111561163357611633614ce5565b600281111561164457611644614ce5565b815260208082019290925260409081016000908120848252909252902054845163ffffffff9091169085908490811061167f5761167f615257565b602002602001018181525050601160008960028111156116a1576116a1614ce5565b60028111156116b2576116b2614ce5565b8152602001908152602001600020600082815260200190815260200160002060000160049054906101000a90046001600160a01b03168383815181106116fa576116fa615257565b6001600160a01b0390921660209283029190910190910152508061171d816152b2565b9150506115ea565b50805161173b9060058701906020840190614920565b5081516117519060068701906020850190614985565b5061175d866004613ac3565b6005547f79aa71bc7ac44ef46960b6e440cf08b63d9c1db4d3af7374da8c13371d369b1087600460405161179292919061573c565b60405180910390a2505050505050565b600080601560008560028111156117bb576117bb614ce5565b60028111156117cc576117cc614ce5565b81526020019081526020016000206000846001600160a01b03166001600160a01b0316815260200190815260200160002080548060200260200160405190810160405280929190818152602001828054801561184757602002820191906000526020600020905b815481526020019060010190808311611833575b505050505090506000805b825181101561192d57600083828151811061186f5761186f615257565b6020026020010151905060006011600089600281111561189157611891614ce5565b60028111156118a2576118a2614ce5565b81526020808201929092526040908101600090812085825283528190208151606081018352905463ffffffff8116825264010000000081046001600160a01b031693820193909352600160c01b90920460ff16151590820181905290915061190b57505061191b565b83611915816152b2565b94505050505b80611925816152b2565b915050611852565b509150505b92915050565b600b546001600160a01b031633146119625760405162461bcd60e51b815260040161063b9061542c565b6001600160a01b0382166119885760405162461bcd60e51b815260040161063b90615789565b6001600160a01b0381166119ae5760405162461bcd60e51b815260040161063b90615789565b600e80546001600160a01b039384166001600160a01b031991821617909155600d8054929093169116179055565b600b546001600160a01b03163314611a065760405162461bcd60e51b815260040161063b9061542c565b6001600160a01b038216611a2c5760405162461bcd60e51b815260040161063b90615789565b6010546001600160a01b0383811691161415611a5a5760405162461bcd60e51b815260040161063b906157cb565b611a6e6001600160a01b0383163383613a3b565b7f74545154aac348a3eac92596bd1971957ca94795f4e954ec5f613b55fab781298282604051611a9f9291906157db565b60405180910390a15050565b6001600160a01b0382166000908152601260205260408120606091856002811115611ad857611ad8614ce5565b6002811115611ae957611ae9614ce5565b81526020019081526020016000206000838152602001908152602001600020805480602002602001604051908101604052809291908181526020018280548015611b7e57602002820191906000526020600020906000905b82829054906101000a900463ffffffff1663ffffffff1681526020019060040190602082600301049283019260010382029150808411611b415790505b505050505090505b9392505050565b611b956149c0565b60146000836002811115611bab57611bab614ce5565b6002811115611bbc57611bbc614ce5565b81526020019081526020016000206040518060800160405290816000820154815260200160018201548152602001600282015481526020016003820160009054906101000a900460ff166005811115611c1757611c17614ce5565b6005811115611c2857611c28614ce5565b90525092915050565b600d546001600160a01b03163314611c5b5760405162461bcd60e51b815260040161063b9061581b565b8015611c6c57611c6c826003613ac3565b600160196000846002811115611c8457611c84614ce5565b6002811115611c9557611c95614ce5565b81526020810191909152604001600020805460ff19169115159190911790555050565b600b546001600160a01b03163314611ce25760405162461bcd60e51b815260040161063b9061542c565b6001600160a01b038116611d085760405162461bcd60e51b815260040161063b90615789565b600f80546001600160a01b0319166001600160a01b0392909216919091179055565b6001546001600160a01b0316331480611d4d5750600a546001600160a01b031633145b611d695760405162461bcd60e51b815260040161063b9061585d565b600260146000846002811115611d8157611d81614ce5565b6002811115611d9257611d92614ce5565b815260208101919091526040016000206003015460ff166005811115611dba57611dba614ce5565b14611dd75760405162461bcd60e51b815260040161063b9061589f565b601054611def906001600160a01b0316333084613cd1565b8060136000846002811115611e0657611e06614ce5565b6002811115611e1757611e17614ce5565b8152602001908152602001600020600060055481526020019081526020016000206003016000828254611e4a919061529a565b90915550506005546040517fa1c157de391a92665d22914b5834a188e801f4fbc466639ddc0063abff1df3bb90611e8490859085906158af565b60405180910390a25050565b333b15611eaf5760405162461bcd60e51b815260040161063b906154d8565b333214611ece5760405162461bcd60e51b815260040161063b9061551a565b8060156000826002811115611ee557611ee5614ce5565b6002811115611ef657611ef6614ce5565b815260208082019290925260409081016000908120338252909252902054611f305760405162461bcd60e51b815260040161063b9061555c565b60026000541415611f535760405162461bcd60e51b815260040161063b9061559e565b6002600081905560146000846002811115611f7057611f70614ce5565b6002811115611f8157611f81614ce5565b815260208101919091526040016000206003015460ff166005811115611fa957611fa9614ce5565b14611fc65760405162461bcd60e51b815260040161063b9061589f565b600060146000846002811115611fde57611fde614ce5565b6002811115611fef57611fef614ce5565b8152602001908152602001600020905060006015600085600281111561201757612017614ce5565b600281111561202857612028614ce5565b81526020808201929092526040908101600090812033825283528190208054825181850281018501909352808352919290919083018282801561208a57602002820191906000526020600020905b815481526020019060010190808311612076575b505050505090506000815167ffffffffffffffff8111156120ad576120ad6155f6565b6040519080825280602002602001820160405280156120d6578160200160208202803683370190505b5090506000805b83518110156123d05760008482815181106120fa576120fa615257565b602002602001015190506000601160008a600281111561211c5761211c614ce5565b600281111561212d5761212d614ce5565b81526020808201929092526040908101600090812085825290925290208054909150600160c01b900460ff166121645750506123be565b601860008a600281111561217a5761217a614ce5565b600281111561218b5761218b614ce5565b815260200190815260200160002060008154809291906121aa906152b2565b9091555050336000908152601260205260408120908a60028111156121d1576121d1614ce5565b60028111156121e2576121e2614ce5565b81526020808201929092526040908101600090812060055482528352818120845481546001810183559183528483206008830401805463ffffffff60079094166004026101000a848102199091169284160291909117905582516060810184528554909116815233938101939093529082018190526011908b600281111561226c5761226c614ce5565b600281111561227d5761227d614ce5565b81526020019081526020016000206000601860008d60028111156122a3576122a3614ce5565b60028111156122b4576122b4614ce5565b81526020808201929092526040908101600090812054845283830194909452918201909220835181549385015194909201511515600160c01b0260ff60c01b196001600160a01b039095166401000000000277ffffffffffffffffffffffffffffffffffffffffffffffff1990941663ffffffff938416179390931793909316919091179091558154865191169086908590811061235457612354615257565b63ffffffff9092166020928302919091019091015283612373816152b2565b825460ff60c01b19168355885460018a0180549297509092509060009061239b90849061529a565b909155505086546002880180546000906123b6908490615283565b909155505050505b806123c8816152b2565b9150506120dd565b508015612422576123e386826001613cf8565b6005547f23378f2b72124c4145c302d168bd5656036b4aefadeecd763ae7b46b02ae34fc873385604051612419939291906158bd565b60405180910390a25b5050600160005550505050565b6001546001600160a01b031633146124595760405162461bcd60e51b815260040161063b9061591a565b6001546040516000916001600160a01b0316907f8be0079c531659141344cd1fd0a4f28419497f9722a3daafe3b4186f6b6457e0908390a3600180546001600160a01b0319169055565b600e546001600160a01b031633146124cd5760405162461bcd60e51b815260040161063b90615205565b6124d78282613e89565b5050565b6124e36149f8565b6001600160a01b038316600090815260176020526040902080548390811061250d5761250d615257565b90600052602060002090600502016040518060a001604052908160008201548152602001600182015481526020016002820160009054906101000a900460ff16600281111561255e5761255e614ce5565b600281111561256f5761256f614ce5565b81526020016003820154815260200160048201805461258d90615940565b80601f01602080910402602001604051908101604052809291908181526020018280546125b990615940565b80156126065780601f106125db57610100808354040283529160200191612606565b820191906000526020600020905b8154815290600101906020018083116125e957829003601f168201915b505050505081525050905092915050565b600b546001600160a01b031633146126415760405162461bcd60e51b815260040161063b9061542c565b8060006014600083600281111561265a5761265a614ce5565b600281111561266b5761266b614ce5565b81526020019081526020016000206040518060800160405290816000820154815260200160018201548152602001600282015481526020016003820160009054906101000a900460ff1660058111156126c6576126c6614ce5565b60058111156126d7576126d7614ce5565b90525090506005816060015160058111156126f4576126f4614ce5565b146127115760405162461bcd60e51b815260040161063b90615496565b60006014600085600281111561272957612729614ce5565b600281111561273a5761273a614ce5565b81526020019081526020016000206040518060800160405290816000820154815260200160018201548152602001600282015481526020016003820160009054906101000a900460ff16600581111561279557612795614ce5565b60058111156127a6576127a6614ce5565b905250905060006016818660028111156127c2576127c2614ce5565b60028111156127d3576127d3614ce5565b8152602001908152602001600020905060005b815481101561288557600082828154811061280357612803615257565b60009182526020909120018054909150600160c01b900460ff166128275750612873565b80548451601054612850926001600160a01b039182169264010000000090910490911690613a3b565b805460ff60c01b19168155835160408501805161286e908390615283565b905250505b8061287d816152b2565b9150506127e6565b505050505050565b6000601960008360028111156128a5576128a5614ce5565b60028111156128b6576128b6614ce5565b815260208101919091526040016000205460ff1692915050565b61291f6040518061012001604052806000815260200160008152602001600081526020016000815260200160608152602001606081526020016060815260200160008152602001600081525090565b6013600084600281111561293557612935614ce5565b600281111561294657612946614ce5565b815260200190815260200160002060008381526020019081526020016000206040518061012001604052908160008201548152602001600182015481526020016002820154815260200160038201548152602001600482018054806020026020016040519081016040528092919081815260200182805480156129e857602002820191906000526020600020905b8154815260200190600101908083116129d4575b5050505050815260200160058201805480602002602001604051908101604052809291908181526020018280548015612a4a57602002820191906000526020600020905b81546001600160a01b03168152600190910190602001808311612a2c575b5050505050815260200160068201805480602002602001604051908101604052809291908181526020018280548015612aa257602002820191906000526020600020905b815481526020019060010190808311612a8e575b5050505050815260200160078201548152602001600882015481525050905092915050565b600b546001600160a01b03163314612af15760405162461bcd60e51b815260040161063b9061542c565b60055460009081527f8fa6efc3be94b5b348b21fea823fe8d100408cee9b7f90524494500445d8ff6c60209081526040808320815161012081018352815481526001820154818501526002820154818401526003820154606082015260048201805484518187028101870190955280855286959294608086019390929190830182828015612b9e57602002820191906000526020600020905b815481526020019060010190808311612b8a575b5050505050815260200160058201805480602002602001604051908101604052809291908181526020018280548015612c0057602002820191906000526020600020905b81546001600160a01b03168152600190910190602001808311612be2575b5050505050815260200160068201805480602002602001604051908101604052809291908181526020018280548015612c5857602002820191906000526020600020905b815481526020019060010190808311612c44575b50505050508152602001600782015481526020016008820154815250509050600a81602001511080612c8e575060058160400151105b612caa5760405162461bcd60e51b815260040161063b906159c5565b60055460009081527f4155c2f711f2cdd34f8262ab8fb9b7020a700fe7b6948222152f7670d1fdf34d6020908152604080832081516101208101835281548152600182810154828601526002830154828501526003830154606083015260048301805485518188028101880190965280865291969592946080860193909290830182828015612d5857602002820191906000526020600020905b815481526020019060010190808311612d44575b5050505050815260200160058201805480602002602001604051908101604052809291908181526020018280548015612dba57602002820191906000526020600020905b81546001600160a01b03168152600190910190602001808311612d9c575b5050505050815260200160068201805480602002602001604051908101604052809291908181526020018280548015612e1257602002820191906000526020600020905b815481526020019060010190808311612dfe575b50505050508152602001600782015481526020016008820154815250509050600a81602001511080612e48575060058160400151105b612e645760405162461bcd60e51b815260040161063b906159c5565b60055460009081527f0b9d2c0c271bb30544eb78c59bdaebdae2728e5f65814c07768a0abe90ed19236020908152604080832081516101208101835281548152600182015481850152600282810154828501526003830154606083015260048301805485518188028101880190965280865291969592946080860193909290830182828015612f1257602002820191906000526020600020905b815481526020019060010190808311612efe575b5050505050815260200160058201805480602002602001604051908101604052809291908181526020018280548015612f7457602002820191906000526020600020905b81546001600160a01b03168152600190910190602001808311612f56575b5050505050815260200160068201805480602002602001604051908101604052809291908181526020018280548015612fcc57602002820191906000526020600020905b815481526020019060010190808311612fb8575b50505050508152602001600782015481526020016008820154815250509050600a81602001511080613002575060058160400151105b61301e5760405162461bcd60e51b815260040161063b906159c5565b60408051606081018252600080825260016020830152600292820192909252905b600381101561309c5761306982826003811061305d5761305d615257565b60200201516001613e89565b61308a82826003811061307e5761307e615257565b60200201516005613ac3565b80613094816152b2565b91505061303f565b50600060078190556003819055600455600580546040517f38960c0800e981febc869f33d307d21683c7a1f85845bfe665071f160292c08092610fc192914291906153d2565b333b156131015760405162461bcd60e51b815260040161063b906154d8565b3332146131205760405162461bcd60e51b815260040161063b9061551a565b600260005414156131435760405162461bcd60e51b815260040161063b9061559e565b6002600055806131655760405162461bcd60e51b815260040161063b90615a07565b6009548111156131875760405162461bcd60e51b815260040161063b90615a49565b60026014600085600281111561319f5761319f614ce5565b60028111156131b0576131b0614ce5565b815260208101919091526040016000206003015460ff1660058111156131d8576131d8614ce5565b146131f55760405162461bcd60e51b815260040161063b9061589f565b60006014600085600281111561320d5761320d614ce5565b600281111561321e5761321e614ce5565b8152602001908152602001600020905060006013600086600281111561324657613246614ce5565b600281111561325757613257614ce5565b8152602080820192909252604090810160009081206005548252909252812083549092506132869085906155ae565b6010549091506132a1906001600160a01b0316333084613cd1565b336000908152601260205260408120908760028111156132c3576132c3614ce5565b60028111156132d4576132d4614ce5565b81526020808201929092526040908101600090812060055482529092529020546133105760028201805490600061330a836152b2565b91905055505b80836001016000828254613324919061529a565b90915550613336905086856000613cf8565b6133738686868080602002602001604051908101604052809392919081815260200183836020028082843760009201919091525061435792505050565b61337c86613bbf565b6005547fa7bb92e7914605223bcedd08fc40c8d4db3f6f774788077acbaf16c63342ef2d878787876001015487600401604051612419959493929190615b22565b600b546001600160a01b031633146133e75760405162461bcd60e51b815260040161063b9061542c565b600080805260146020908152604080516080810182527f4f26c3876aa9f4b92579780beea1161a61f87ebf1ec6ee865b299e447ecba99c805482527f4f26c3876aa9f4b92579780beea1161a61f87ebf1ec6ee865b299e447ecba99d54938201939093527f4f26c3876aa9f4b92579780beea1161a61f87ebf1ec6ee865b299e447ecba99e54918101919091527f4f26c3876aa9f4b92579780beea1161a61f87ebf1ec6ee865b299e447ecba99f54839290606083019060ff1660058111156134b2576134b2614ce5565b60058111156134c3576134c3614ce5565b90525090506005816060015160058111156134e0576134e0614ce5565b146134fd5760405162461bcd60e51b815260040161063b90615496565b6001600081815260146020908152604080516080810182527fb6c61a840592cc84133e4b25bd509abf4659307c57b160799b38490a5aa48f2c805482527fb6c61a840592cc84133e4b25bd509abf4659307c57b160799b38490a5aa48f2d54938201939093527fb6c61a840592cc84133e4b25bd509abf4659307c57b160799b38490a5aa48f2e54918101919091527fb6c61a840592cc84133e4b25bd509abf4659307c57b160799b38490a5aa48f2f54909190606083019060ff1660058111156135ca576135ca614ce5565b60058111156135db576135db614ce5565b90525090506005816060015160058111156135f8576135f8614ce5565b146136155760405162461bcd60e51b815260040161063b90615496565b6002600081815260146020908152604080516080810182527fa1930aa930426c54c34daad2b9ada7c5d0ef0c96078a3c5bb79f6fa6602c4a7a805482527fa1930aa930426c54c34daad2b9ada7c5d0ef0c96078a3c5bb79f6fa6602c4a7b54938201939093527fa1930aa930426c54c34daad2b9ada7c5d0ef0c96078a3c5bb79f6fa6602c4a7c54918101919091527fa1930aa930426c54c34daad2b9ada7c5d0ef0c96078a3c5bb79f6fa6602c4a7d54909190606083019060ff1660058111156136e2576136e2614ce5565b60058111156136f3576136f3614ce5565b905250905060058160600151600581111561371057613710614ce5565b1461372d5760405162461bcd60e51b815260040161063b90615496565b600f54600160a01b900460ff16156137575760405162461bcd60e51b815260040161063b90615b96565b6001600160a01b03871661377d5760405162461bcd60e51b815260040161063b90615789565b6137856145eb565b156137a25760405162461bcd60e51b815260040161063b90615ba6565b600f546040517ffb3de0980000000000000000000000000000000000000000000000000000000081526001600160a01b039091169063fb3de098906137eb908a90600401614b19565b600060405180830381600087803b15801561380557600080fd5b505af1158015613819573d6000803e3d6000fd5b5050601080546001600160a01b03909a166001600160a01b0319909a16999099179098555050600f80547fffffffffffffffffffffff00ffffffffffffffffffffffffffffffffffffffff16600160a01b179055505050505050565b6001546001600160a01b0316331461389f5760405162461bcd60e51b815260040161063b9061591a565b6001600160a01b0383166138c55760405162461bcd60e51b815260040161063b90615789565b6001600160a01b0382166138eb5760405162461bcd60e51b815260040161063b90615789565b6001600160a01b0381166139115760405162461bcd60e51b815260040161063b90615789565b600b80546001600160a01b038086166001600160a01b031992831617909255600c8054858416908316179055600a8054928416929091169190911790556040517f3e945b7660001d46cfd5e729545f7f0b6c65bdee54066a91c7acad703f1b731e9061398290859085908590615c2d565b60405180910390a1505050565b6001546001600160a01b031633146139b95760405162461bcd60e51b815260040161063b9061591a565b6001600160a01b0381166139df5760405162461bcd60e51b815260040161063b90615cad565b6001546040516001600160a01b038084169216907f8be0079c531659141344cd1fd0a4f28419497f9722a3daafe3b4186f6b6457e090600090a3600180546001600160a01b0319166001600160a01b0392909216919091179055565b613abe8363a9059cbb60e01b8484604051602401613a5a9291906157db565b60408051601f198184030181529190526020810180517bffffffffffffffffffffffffffffffffffffffffffffffffffffffff167fffffffff0000000000000000000000000000000000000000000000000000000090931692909217909152614788565b505050565b8060146000846002811115613ada57613ada614ce5565b6002811115613aeb57613aeb614ce5565b81526020810191909152604001600020600301805460ff19166001836005811115613b1857613b18614ce5565b02179055505050565b6000805260146020527f4f26c3876aa9f4b92579780beea1161a61f87ebf1ec6ee865b299e447ecba99c819055613b5981600a6155ae565b600160005260146020527fb6c61a840592cc84133e4b25bd509abf4659307c57b160799b38490a5aa48f2c55613b908160646155ae565b600260005260146020527fa1930aa930426c54c34daad2b9ada7c5d0ef0c96078a3c5bb79f6fa6602c4a7a5550565b600060136000836002811115613bd757613bd7614ce5565b6002811115613be857613be8614ce5565b8152602001908152602001600020600060055481526020019081526020016000209050600060146000846002811115613c2357613c23614ce5565b6002811115613c3457613c34614ce5565b815260200190815260200160002060010154905060006064826019613c5991906155ae565b613c6391906152e3565b905060006064613c7484600f6155ae565b613c7e91906152e3565b905060006064613c8f85600a6155ae565b613c9991906152e3565b905060405180606001604052808481526020018381526020018281525085600401906003613cc8929190614985565b50505050505050565b613cf2846323b872dd60e01b858585604051602401613a5a93929190615cbd565b50505050565b33600090815260176020526040902054613d106149f8565b81815242602082015260408101856002811115613d2f57613d2f614ce5565b90816002811115613d4257613d42614ce5565b905250606081018490528215613d905760408051808201909152600f81527f5469636b657420526f6c6c6f766572000000000000000000000000000000000060208201526080820152613dca565b60408051808201909152600f81527f5469636b65742050757263686173650000000000000000000000000000000000602082015260808201525b336000908152601760209081526040808320805460018181018355918552938390208551600590950201938455918401518383015583015160028084018054869594919260ff1990911691908490811115613e2757613e27614ce5565b02179055506060820151600382015560808201518051613e51916004840191602090910190614a38565b5050507f60850aec46dea3854368ebe9087866f660da4b915e21945cfbc2e673935ab4d2824287876040516108cc9493929190615ce5565b600060136000846002811115613ea157613ea1614ce5565b6002811115613eb257613eb2614ce5565b815260200190815260200160002060006005548152602001908152602001600020604051806101200160405290816000820154815260200160018201548152602001600282015481526020016003820154815260200160048201805480602002602001604051908101604052809291908181526020018280548015613f5657602002820191906000526020600020905b815481526020019060010190808311613f42575b5050505050815260200160058201805480602002602001604051908101604052809291908181526020018280548015613fb857602002820191906000526020600020905b81546001600160a01b03168152600190910190602001808311613f9a575b505050505081526020016006820180548060200260200160405190810160405280929190818152602001828054801561401057602002820191906000526020600020905b815481526020019060010190808311613ffc575b5050505050815260200160078201548152602001600882015481525050905060006014600085600281111561404757614047614ce5565b600281111561405857614058614ce5565b815260200190815260200160002090508261408e57614078846001613ac3565b60078054906000614088836152b2565b91905055505b60008260200151601860008760028111156140ab576140ab614ce5565b60028111156140bc576140bc614ce5565b8152602001908152602001600020546140d59190615283565b905060015b836020015181116128855760006140f1828461529a565b905060006011600089600281111561410b5761410b614ce5565b600281111561411c5761411c614ce5565b81526020808201929092526040908101600090812085825290925281205464010000000090046001600160a01b031691506001906011908a600281111561416557614165614ce5565b600281111561417657614176614ce5565b81526020808201929092526040908101600090812086825290925281208054921515600160c01b0260ff60c01b19909316929092179091556015908960028111156141c3576141c3614ce5565b60028111156141d4576141d4614ce5565b8152602080820192909252604090810160009081206001600160a01b03851682528352908120805460018101825590825291812090910183905560169089600281111561422357614223614ce5565b600281111561423457614234614ce5565b8152602001908152602001600020601160008a600281111561425857614258614ce5565b600281111561426957614269614ce5565b815260208082019290925260409081016000908120868252835290812083546001818101865594835292822081549301805463ffffffff19811663ffffffff909516948517825582546001600160a01b0364010000000091829004160277ffffffffffffffffffffffffffffffffffffffffffffffff1990911690941793909317808455905460ff600160c01b918290041615150260ff60c01b199091161790915586549187018054909190614320908490615283565b9091555050845460028601805460009061433b90849061529a565b925050819055505050808061434f906152b2565b9150506140da565b60006013600084600281111561436f5761436f614ce5565b600281111561438057614380614ce5565b815260200190815260200160002060006005548152602001908152602001600020905060005b82518110156145cb57601860008560028111156143c5576143c5614ce5565b60028111156143d6576143d6614ce5565b815260200190815260200160002060008154809291906143f5906152b2565b9190505550600083828151811061440e5761440e615257565b6020026020010151905060126000336001600160a01b03166001600160a01b03168152602001908152602001600020600086600281111561445157614451614ce5565b600281111561446257614462614ce5565b8152602080820192909252604090810160009081206005548252835281812080546001810182559082528382206008820401805463ffffffff80881660046007909516949094026101000a848102910219909116179055825160608101845290815233938101939093529082018190526011908760028111156144e7576144e7614ce5565b60028111156144f8576144f8614ce5565b815260200190815260200160002060006018600089600281111561451e5761451e614ce5565b600281111561452f5761452f614ce5565b81526020808201929092526040908101600090812054845283830194909452918201909220835181549385015194909201511515600160c01b0260ff60c01b196001600160a01b039095166401000000000277ffffffffffffffffffffffffffffffffffffffffffffffff1990941663ffffffff90931692909217929092179290921691909117905550806145c3816152b2565b9150506143a6565b5081518160010160008282546145e1919061529a565b9091555050505050565b60008060405180606001604052806000600281111561460c5761460c614ce5565b600281111561461d5761461d614ce5565b8152602001600181526020016002905290506000805b600381101561478157600083826003811061465057614650615257565b6020020151905060006016600083600281111561466f5761466f614ce5565b600281111561468057614680614ce5565b8152602001908152602001600020805480602002602001604051908101604052809291908181526020016000905b8282101561470b576000848152602090819020604080516060810182529185015463ffffffff8116835264010000000081046001600160a01b031683850152600160c01b900460ff161515908201528252600190920191016146ae565b50505050905060005b815181101561476b57600082828151811061473157614731615257565b60200260200101519050806040015161474a5750614759565b85614754816152b2565b965050505b80614763816152b2565b915050614714565b5050508080614779906152b2565b915050614633565b5092915050565b60006147dd826040518060400160405280602081526020017f5361666545524332303a206c6f772d6c6576656c2063616c6c206661696c6564815250856001600160a01b03166148179092919063ffffffff16565b805190915015613abe57808060200190518101906147fb9190615d18565b613abe5760405162461bcd60e51b815260040161063b90615d91565b6060614826848460008561482e565b949350505050565b6060824710156148505760405162461bcd60e51b815260040161063b90615df9565b843b61486e5760405162461bcd60e51b815260040161063b90615e3b565b600080866001600160a01b0316858760405161488a9190615e6d565b60006040518083038185875af1925050503d80600081146148c7576040519150601f19603f3d011682016040523d82523d6000602084013e6148cc565b606091505b50915091506148dc8282866148e7565b979650505050505050565b606083156148f6575081611b86565b8251156149065782518084602001fd5b8160405162461bcd60e51b815260040161063b9190615e77565b828054828255906000526020600020908101928215614975579160200282015b8281111561497557825182546001600160a01b0319166001600160a01b03909116178255602090920191600190910190614940565b50614981929150614aab565b5090565b828054828255906000526020600020908101928215614975579160200282015b828111156149755782518255916020019190600101906149a5565b6040518060800160405280600081526020016000815260200160008152602001600060058111156149f3576149f3614ce5565b905290565b6040518060a00160405280600081526020016000815260200160006002811115614a2457614a24614ce5565b815260200160008152602001606081525090565b828054614a4490615940565b90600052602060002090601f016020900481019282614a665760008555614975565b82601f10614a7f57805160ff1916838001178555614975565b8280016001018555821561497557918201828111156149755782518255916020019190600101906149a5565b5b808211156149815760008155600101614aac565b6003811061090e57600080fd5b803561193281614ac0565b600060208284031215614aed57614aed600080fd5b60006148268484614acd565b60006001600160a01b038216611932565b614b1381614af9565b82525050565b602081016119328284614b0a565b805b811461090e57600080fd5b803561193281614b27565b600060208284031215614b5457614b54600080fd5b60006148268484614b34565b614b2981614af9565b803561193281614b60565b60008060408385031215614b8a57614b8a600080fd5b6000614b968585614acd565b9250506020614ba785828601614b69565b9150509250929050565b80614b13565b602081016119328284614bb1565b60008060408385031215614bdb57614bdb600080fd5b6000614b968585614b69565b60008060408385031215614bfd57614bfd600080fd5b6000614c098585614b69565b9250506020614ba785828601614b34565b600080600060608486031215614c3257614c32600080fd5b6000614c3e8686614acd565b9350506020614c4f86828701614b69565b9250506040614c6086828701614b34565b9150509250925092565b63ffffffff8116614b13565b614c808282614c6a565b5060200190565b60200190565b6000614c97825190565b808452602093840193830160005b82811015614cca578151614cb98782614c76565b965050602082019150600101614ca5565b5093949350505050565b60208082528101611b868184614c8d565b634e487b7160e01b600052602160045260246000fd5b6006811061090e5761090e614ce5565b80614d1581614cfb565b919050565b600061193282614d0b565b614b1381614d1a565b8051614d3a8382614bb1565b506020810151614d4d6020840182614bb1565b506040810151614d606040840182614bb1565b506060810151613abe6060840182614d25565b608081016119328284614d2e565b801515614b29565b803561193281614d81565b60008060408385031215614daa57614daa600080fd5b6000614db68585614acd565b9250506020614ba785828601614d89565b600060208284031215614ddc57614ddc600080fd5b60006148268484614b69565b60006119326001600160a01b0383165b6001600160a01b031690565b600061193282614de8565b600061193282614e04565b614b1381614e0f565b602081016119328284614e1a565b60008060408385031215614e4757614e47600080fd5b6000614c098585614acd565b6003811061090e5761090e614ce5565b80614d1581614e53565b600061193282614e63565b614b1381614e6d565b60005b83811015614e9c578181015183820152602001614e84565b83811115613cf25750506000910152565b6000614eb7825190565b808452602084019350614ece818560208601614e81565b601f01601f19169290920192915050565b805160009060a0840190614ef38582614bb1565b506020830151614f066020860182614bb1565b506040830151614f196040860182614e78565b506060830151614f2c6060860182614bb1565b5060808301518482036080860152614f448282614ead565b95945050505050565b60208082528101611b868184614edf565b801515614b13565b602081016119328284614f5e565b614c808282614bb1565b6000614f88825190565b808452602093840193830160005b82811015614cca578151614faa8782614f74565b965050602082019150600101614f96565b614c808282614b0a565b6000614fcf825190565b808452602093840193830160005b82811015614cca578151614ff18782614fbb565b965050602082019150600101614fdd565b80516000906101208401906150178582614bb1565b50602083015161502a6020860182614bb1565b50604083015161503d6040860182614bb1565b5060608301516150506060860182614bb1565b50608083015184820360808601526150688282614f7e565b91505060a083015184820360a08601526150828282614fc5565b91505060c083015184820360c086015261509c8282614f7e565b91505060e08301516150b160e0860182614bb1565b506101008301516150c6610100860182614bb1565b509392505050565b60208082528101611b868184615002565b60008083601f8401126150f4576150f4600080fd5b50813567ffffffffffffffff81111561510f5761510f600080fd5b60208301915083602082028301111561512a5761512a600080fd5b9250929050565b60008060006040848603121561514957615149600080fd5b60006151558686614acd565b935050602084013567ffffffffffffffff81111561517557615175600080fd5b615181868287016150df565b92509250509250925092565b6000806000606084860312156151a5576151a5600080fd5b60006151b18686614b69565b93505060206151c286828701614b69565b9250506040614c6086828701614b69565b60128152602081017f4e6f74204b65657065722041646472657373000000000000000000000000000081529050614c87565b60208082528101611932816151d3565b600e8152602081017f496e76616c696420616374696f6e00000000000000000000000000000000000081529050614c87565b6020808252810161193281615215565b634e487b7160e01b600052603260045260246000fd5b634e487b7160e01b600052601160045260246000fd5b6000828210156152955761529561526d565b500390565b600082198211156152ad576152ad61526d565b500190565b60006000198214156152c6576152c661526d565b5060010190565b634e487b7160e01b600052601260045260246000fd5b6000826152f2576152f26152cd565b500490565b600061193282614df8565b600061193282546152f7565b6000615318825490565b80845260008381526020808220950194905b82811015614cca5761533b82615302565b6153458782614fbb565b9650506001918201910161532a565b608081016153628287614e78565b8181036020830152615374818661530e565b90506153836040830185614bb1565b614f446060830184614bb1565b60198152602081017f5265626f6f7420636865636b206e6f7420636f6d706c6574650000000000000081529050614c87565b6020808252810161193281615390565b606081016153e08286614bb1565b6153ed6020830185614bb1565b6148266040830184614d25565b600c8152602081017f4e6f74206f70657261746f72000000000000000000000000000000000000000081529050614c87565b60208082528101611932816153fa565b602f8152602081017f536f7272792063616e20616374697661746520617320726166666c652069732081527f6e6f742064656163746976617465640000000000000000000000000000000000602082015290505b60400190565b602080825281016119328161543c565b60148152602081017f436f6e7472616374206e6f7420616c6c6f77656400000000000000000000000081529050614c87565b60208082528101611932816154a6565b601a8152602081017f50726f787920636f6e7472616374206e6f7420616c6c6f77656400000000000081529050614c87565b60208082528101611932816154e8565b60148152602081017f596f752068617665206e6f20726f6c6c6f76657200000000000000000000000081529050614c87565b602080825281016119328161552a565b601f8152602081017f5265656e7472616e637947756172643a207265656e7472616e742063616c6c0081529050614c87565b602080825281016119328161556c565b60008160001904831182151516156155c8576155c861526d565b500290565b604081016155db8285614bb1565b611b866020830184614bb1565b602081016119328284614e78565b634e487b7160e01b600052604160045260246000fd5b601f19601f830116810181811067ffffffffffffffff82111715615632576156326155f6565b6040525050565b600061564460405190565b9050614d15828261560c565b600067ffffffffffffffff82111561566a5761566a6155f6565b5060209081020190565b805161193281614b27565b600061569261568d84615650565b615639565b838152905060208082019084028301858111156156b1576156b1600080fd5b835b818110156156d3576156c58782615674565b8352602092830192016156b3565b5050509392505050565b600082601f8301126156f1576156f1600080fd5b815161482684826020860161567f565b60006020828403121561571657615716600080fd5b815167ffffffffffffffff81111561573057615730600080fd5b614826848285016156dd565b6040810161574a8285614e78565b611b866020830184614d25565b60168152602081017f43616e6e6f74206265207a65726f20616464726573730000000000000000000081529050614c87565b6020808252810161193281615757565b601b8152602081017f43616e6e6f7420626520726166666c65546f6b656e20746f6b656e000000000081529050614c87565b6020808252810161193281615799565b604081016155db8285614b0a565b601b8152602081017f4e6f742072616e646f6d47656e657261746f722041646472657373000000000081529050614c87565b60208082528101611932816157e9565b60158152602081017f4e6f74206f776e6572206f7220696e6a6563746f72000000000000000000000081529050614c87565b602080825281016119328161582b565b600f8152602081017f526166666c65206e6f74206f70656e000000000000000000000000000000000081529050614c87565b602080825281016119328161586d565b604081016155db8285614e78565b606081016158cb8286614e78565b6158d86020830185614b0a565b8181036040830152614f448184614c8d565b60208082527f4f776e61626c653a2063616c6c6572206973206e6f7420746865206f776e65729101908152614c87565b60208082528101611932816158ea565b634e487b7160e01b600052602260045260246000fd5b60028104600182168061595457607f821691505b602082108114156159675761596761592a565b50919050565b60278152602081017f536f7272792063616e206e6f74206465616374697661746520612076616c696481527f20726166666c650000000000000000000000000000000000000000000000000060208201529050615490565b602080825281016119328161596d565b60138152602081017f4e6f207469636b6574207370656369666965640000000000000000000000000081529050614c87565b60208082528101611932816159d5565b60108152602081017f546f6f206d616e79207469636b6574730000000000000000000000000000000081529050614c87565b6020808252810161193281615a17565b63ffffffff8116614b29565b803561193281615a59565b5060006119326020830183615a65565b8183526020830192506000818060005b85811015615abd57615aa28284615a70565b615aac8882614c76565b975050602082019150600101615a90565b509495945050505050565b600081611932565b60006119328254615ac8565b6000615ae6825490565b80845260008381526020808220950194905b82811015614cca57615b0982615ad0565b615b138782614f74565b96505060019182019101615af8565b60808101615b308288614e78565b8181036020830152615b43818688615a80565b9050615b526040830185614bb1565b81810360608301526148dc8184615adc565b601e8152602081017f546f6b656e20686173206265656e206368616e67656420616c7265616479000081529050614c87565b6020808252810161193281615b64565b6020808252810161193281604f81527f546f6b656e2063616e6e6f74206265206368616e6765642c207573657273207360208201527f74696c6c206861766520726f6c6c6f7665727320746f2063616c696d2c20696e60408201527f697469617465206120726566756e640000000000000000000000000000000000606082015260800190565b60608101615c3b8286614b0a565b615c486020830185614b0a565b6148266040830184614b0a565b60268152602081017f4f776e61626c653a206e6577206f776e657220697320746865207a65726f206181527f646472657373000000000000000000000000000000000000000000000000000060208201529050615490565b6020808252810161193281615c55565b60608101615ccb8286614b0a565b615cd86020830185614b0a565b6148266040830184614bb1565b60808101615cf38287614bb1565b615d006020830186614bb1565b6153836040830185614e78565b805161193281614d81565b600060208284031215615d2d57615d2d600080fd5b60006148268484615d0d565b602a8152602081017f5361666545524332303a204552433230206f7065726174696f6e20646964206e81527f6f7420737563636565640000000000000000000000000000000000000000000060208201529050615490565b6020808252810161193281615d39565b60268152602081017f416464726573733a20696e73756666696369656e742062616c616e636520666f81527f722063616c6c000000000000000000000000000000000000000000000000000060208201529050615490565b6020808252810161193281615da1565b601d8152602081017f416464726573733a2063616c6c20746f206e6f6e2d636f6e747261637400000081529050614c87565b6020808252810161193281615e09565b6000615e55825190565b615e63818560208601614e81565b9290920192915050565b6119328183615e4b565b60208082528101611b868184614ead56fea2646970667358221220b35f59b633866c561ef03e5af026397fa61ad3ada403d7f0da1e1c20c274539d64736f6c63430008090033",
  "linkReferences": {},
  "deployedLinkReferences": {}
}