{
  "_format": "hh-sol-artifact-1",
  "contractName": "PolylottoRaffle",
  "sourceName": "contracts/PolyLottoRaffle.sol",
  "abi": [
    {
      "inputs": [
        {
          "internalType": "address",
          "name": "_raffleToken",
          "type": "address"
        },
        {
          "internalType": "uint256",
          "name": "_amountOfTokenPerStable",
          "type": "uint256"
        },
        {
          "internalType": "uint256",
          "name": "_noOfWinners",
          "type": "uint256"
        }
      ],
      "stateMutability": "nonpayable",
      "type": "constructor"
    },
    {
      "anonymous": false,
      "inputs": [
        {
          "indexed": false,
          "internalType": "address",
          "name": "token",
          "type": "address"
        },
        {
          "indexed": false,
          "internalType": "uint256",
          "name": "amount",
          "type": "uint256"
        }
      ],
      "name": "AdminTokenRecovery",
      "type": "event"
    },
    {
      "anonymous": false,
      "inputs": [
        {
          "indexed": false,
          "internalType": "enum IPolyLottoRaffle.RaffleCategory",
          "name": "raffleCategory",
          "type": "uint8"
        },
        {
          "indexed": true,
          "internalType": "uint256",
          "name": "raffleId",
          "type": "uint256"
        },
        {
          "indexed": false,
          "internalType": "uint256",
          "name": "injectedAmount",
          "type": "uint256"
        }
      ],
      "name": "LotteryInjection",
      "type": "event"
    },
    {
      "anonymous": false,
      "inputs": [
        {
          "indexed": false,
          "internalType": "address",
          "name": "_operatorAddress",
          "type": "address"
        },
        {
          "indexed": false,
          "internalType": "address",
          "name": "_treasuryAddress",
          "type": "address"
        },
        {
          "indexed": false,
          "internalType": "address",
          "name": "_injectorAddress",
          "type": "address"
        }
      ],
      "name": "NewOperatorAndTreasuryAndInjectorAddresses",
      "type": "event"
    },
    {
      "anonymous": false,
      "inputs": [
        {
          "indexed": false,
          "internalType": "uint256",
          "name": "txIndex",
          "type": "uint256"
        },
        {
          "indexed": false,
          "internalType": "uint256",
          "name": "timestamp",
          "type": "uint256"
        },
        {
          "indexed": false,
          "internalType": "enum IPolyLottoRaffle.RaffleCategory",
          "name": "raffleCategory",
          "type": "uint8"
        },
        {
          "indexed": false,
          "internalType": "uint256",
          "name": "noOfTickets",
          "type": "uint256"
        },
        {
          "indexed": false,
          "internalType": "string",
          "name": "description",
          "type": "string"
        }
      ],
      "name": "NewUserTransaction",
      "type": "event"
    },
    {
      "anonymous": false,
      "inputs": [
        {
          "indexed": true,
          "internalType": "address",
          "name": "previousOwner",
          "type": "address"
        },
        {
          "indexed": true,
          "internalType": "address",
          "name": "newOwner",
          "type": "address"
        }
      ],
      "name": "OwnershipTransferred",
      "type": "event"
    },
    {
      "anonymous": false,
      "inputs": [
        {
          "indexed": false,
          "internalType": "uint256",
          "name": "raffleID",
          "type": "uint256"
        },
        {
          "indexed": false,
          "internalType": "uint256",
          "name": "timeStamp",
          "type": "uint256"
        },
        {
          "indexed": false,
          "internalType": "enum IPolyLottoRaffle.RaffleState",
          "name": "raffleState",
          "type": "uint8"
        }
      ],
      "name": "RaffleDeactivated",
      "type": "event"
    },
    {
      "anonymous": false,
      "inputs": [
        {
          "indexed": false,
          "internalType": "enum IPolyLottoRaffle.RaffleCategory",
          "name": "category",
          "type": "uint8"
        },
        {
          "indexed": true,
          "internalType": "uint256",
          "name": "raffleId",
          "type": "uint256"
        },
        {
          "indexed": false,
          "internalType": "enum IPolyLottoRaffle.RaffleState",
          "name": "raffleState",
          "type": "uint8"
        }
      ],
      "name": "RaffleEnded",
      "type": "event"
    },
    {
      "anonymous": false,
      "inputs": [
        {
          "indexed": true,
          "internalType": "uint256",
          "name": "raffleId",
          "type": "uint256"
        },
        {
          "indexed": false,
          "internalType": "uint256",
          "name": "endTime",
          "type": "uint256"
        },
        {
          "indexed": false,
          "internalType": "uint256",
          "name": "rebootEndTime",
          "type": "uint256"
        },
        {
          "indexed": false,
          "internalType": "enum IPolyLottoRaffle.RaffleState",
          "name": "raffleState",
          "type": "uint8"
        }
      ],
      "name": "RaffleOpen",
      "type": "event"
    },
    {
      "anonymous": false,
      "inputs": [
        {
          "indexed": false,
          "internalType": "uint256",
          "name": "raffleID",
          "type": "uint256"
        },
        {
          "indexed": false,
          "internalType": "uint256",
          "name": "timeStamp",
          "type": "uint256"
        },
        {
          "indexed": false,
          "internalType": "enum IPolyLottoRaffle.RaffleState",
          "name": "raffleState",
          "type": "uint8"
        }
      ],
      "name": "RaffleReactivated",
      "type": "event"
    },
    {
      "anonymous": false,
      "inputs": [
        {
          "indexed": false,
          "internalType": "enum IPolyLottoRaffle.RaffleCategory",
          "name": "raffleCategory",
          "type": "uint8"
        },
        {
          "indexed": true,
          "internalType": "uint256",
          "name": "raffleId",
          "type": "uint256"
        },
        {
          "indexed": false,
          "internalType": "address",
          "name": "buyer",
          "type": "address"
        },
        {
          "indexed": false,
          "internalType": "uint32[]",
          "name": "tickets",
          "type": "uint32[]"
        }
      ],
      "name": "RolloverClaimed",
      "type": "event"
    },
    {
      "anonymous": false,
      "inputs": [
        {
          "indexed": false,
          "internalType": "enum IPolyLottoRaffle.RaffleCategory",
          "name": "raffleCategory",
          "type": "uint8"
        },
        {
          "indexed": true,
          "internalType": "uint256",
          "name": "raffleId",
          "type": "uint256"
        },
        {
          "indexed": false,
          "internalType": "uint32[]",
          "name": "tickets",
          "type": "uint32[]"
        },
        {
          "indexed": false,
          "internalType": "uint256",
          "name": "rafflePool",
          "type": "uint256"
        },
        {
          "indexed": false,
          "internalType": "uint256[]",
          "name": "winnersPayout",
          "type": "uint256[]"
        }
      ],
      "name": "TicketsPurchased",
      "type": "event"
    },
    {
      "anonymous": false,
      "inputs": [
        {
          "indexed": false,
          "internalType": "enum IPolyLottoRaffle.RaffleCategory",
          "name": "raffleCategory",
          "type": "uint8"
        },
        {
          "indexed": true,
          "internalType": "uint256",
          "name": "raffleId",
          "type": "uint256"
        },
        {
          "indexed": false,
          "internalType": "uint256",
          "name": "noOfTicketsRollovered",
          "type": "uint256"
        }
      ],
      "name": "TicketsRollovered",
      "type": "event"
    },
    {
      "anonymous": false,
      "inputs": [
        {
          "indexed": false,
          "internalType": "enum IPolyLottoRaffle.RaffleCategory",
          "name": "raffleCategory",
          "type": "uint8"
        },
        {
          "indexed": false,
          "internalType": "address[]",
          "name": "winners",
          "type": "address[]"
        },
        {
          "indexed": false,
          "internalType": "uint256",
          "name": "amount",
          "type": "uint256"
        },
        {
          "indexed": false,
          "internalType": "uint256",
          "name": "timestamp",
          "type": "uint256"
        }
      ],
      "name": "WinnersAwarded",
      "type": "event"
    },
    {
      "anonymous": false,
      "inputs": [
        {
          "indexed": false,
          "internalType": "uint256",
          "name": "raffleID",
          "type": "uint256"
        },
        {
          "indexed": false,
          "internalType": "uint256",
          "name": "amount",
          "type": "uint256"
        }
      ],
      "name": "WithdrawalComplete",
      "type": "event"
    },
    {
      "inputs": [
        {
          "internalType": "enum IPolyLottoRaffle.RaffleCategory",
          "name": "_category",
          "type": "uint8"
        },
        {
          "internalType": "uint32[]",
          "name": "_tickets",
          "type": "uint32[]"
        }
      ],
      "name": "buyTickets",
      "outputs": [],
      "stateMutability": "nonpayable",
      "type": "function"
    },
    {
      "inputs": [],
      "name": "deactivateRaffle",
      "outputs": [],
      "stateMutability": "nonpayable",
      "type": "function"
    },
    {
      "inputs": [],
      "name": "getNoOfWinners",
      "outputs": [
        {
          "internalType": "uint256",
          "name": "",
          "type": "uint256"
        }
      ],
      "stateMutability": "view",
      "type": "function"
    },
    {
      "inputs": [
        {
          "internalType": "enum IPolyLottoRaffle.RaffleCategory",
          "name": "_category",
          "type": "uint8"
        },
        {
          "internalType": "uint256",
          "name": "_raffleID",
          "type": "uint256"
        }
      ],
      "name": "getRaffle",
      "outputs": [
        {
          "components": [
            {
              "internalType": "uint256",
              "name": "ID",
              "type": "uint256"
            },
            {
              "internalType": "uint256",
              "name": "noOfTicketsSold",
              "type": "uint256"
            },
            {
              "internalType": "uint256",
              "name": "noOfPlayers",
              "type": "uint256"
            },
            {
              "internalType": "uint256",
              "name": "amountInjected",
              "type": "uint256"
            },
            {
              "internalType": "uint256[]",
              "name": "winnersPayout",
              "type": "uint256[]"
            },
            {
              "internalType": "address[]",
              "name": "winners",
              "type": "address[]"
            },
            {
              "internalType": "uint256[]",
              "name": "winningTickets",
              "type": "uint256[]"
            },
            {
              "internalType": "uint256",
              "name": "raffleStartTime",
              "type": "uint256"
            },
            {
              "internalType": "uint256",
              "name": "raffleEndTime",
              "type": "uint256"
            }
          ],
          "internalType": "struct IPolyLottoRaffle.RaffleStruct",
          "name": "raffle",
          "type": "tuple"
        }
      ],
      "stateMutability": "view",
      "type": "function"
    },
    {
      "inputs": [
        {
          "internalType": "enum IPolyLottoRaffle.RaffleCategory",
          "name": "_category",
          "type": "uint8"
        }
      ],
      "name": "getRaffleData",
      "outputs": [
        {
          "components": [
            {
              "internalType": "uint256",
              "name": "ticketPrice",
              "type": "uint256"
            },
            {
              "internalType": "uint256",
              "name": "rafflePool",
              "type": "uint256"
            },
            {
              "internalType": "enum IPolyLottoRaffle.RaffleState",
              "name": "raffleState",
              "type": "uint8"
            }
          ],
          "internalType": "struct IPolyLottoRaffle.RaffleData",
          "name": "raffleData",
          "type": "tuple"
        }
      ],
      "stateMutability": "view",
      "type": "function"
    },
    {
      "inputs": [],
      "name": "getRaffleEndTime",
      "outputs": [
        {
          "internalType": "uint256",
          "name": "",
          "type": "uint256"
        }
      ],
      "stateMutability": "view",
      "type": "function"
    },
    {
      "inputs": [],
      "name": "getRaffleID",
      "outputs": [
        {
          "internalType": "uint256",
          "name": "",
          "type": "uint256"
        }
      ],
      "stateMutability": "view",
      "type": "function"
    },
    {
      "inputs": [
        {
          "internalType": "enum IPolyLottoRaffle.RaffleCategory",
          "name": "_category",
          "type": "uint8"
        }
      ],
      "name": "getRandomGenChecker",
      "outputs": [
        {
          "internalType": "bool",
          "name": "",
          "type": "bool"
        }
      ],
      "stateMutability": "view",
      "type": "function"
    },
    {
      "inputs": [],
      "name": "getRebootChecker",
      "outputs": [
        {
          "internalType": "uint256",
          "name": "",
          "type": "uint256"
        }
      ],
      "stateMutability": "view",
      "type": "function"
    },
    {
      "inputs": [],
      "name": "getRebootEndTime",
      "outputs": [
        {
          "internalType": "uint256",
          "name": "",
          "type": "uint256"
        }
      ],
      "stateMutability": "view",
      "type": "function"
    },
    {
      "inputs": [
        {
          "internalType": "address",
          "name": "_user",
          "type": "address"
        }
      ],
      "name": "getUserTransactionCount",
      "outputs": [
        {
          "internalType": "uint256",
          "name": "",
          "type": "uint256"
        }
      ],
      "stateMutability": "view",
      "type": "function"
    },
    {
      "inputs": [
        {
          "internalType": "enum IPolyLottoRaffle.RaffleCategory",
          "name": "_category",
          "type": "uint8"
        }
      ],
      "name": "getWinners",
      "outputs": [],
      "stateMutability": "nonpayable",
      "type": "function"
    },
    {
      "inputs": [
        {
          "internalType": "address",
          "name": "_user",
          "type": "address"
        },
        {
          "internalType": "uint256",
          "name": "_txIndex",
          "type": "uint256"
        }
      ],
      "name": "getuserTransactionHistory",
      "outputs": [
        {
          "components": [
            {
              "internalType": "uint256",
              "name": "txID",
              "type": "uint256"
            },
            {
              "internalType": "uint256",
              "name": "time",
              "type": "uint256"
            },
            {
              "internalType": "enum IPolyLottoRaffle.RaffleCategory",
              "name": "raffleCategory",
              "type": "uint8"
            },
            {
              "internalType": "uint256",
              "name": "noOfTickets",
              "type": "uint256"
            },
            {
              "internalType": "string",
              "name": "description",
              "type": "string"
            }
          ],
          "internalType": "struct PolylottoRaffle.Transaction",
          "name": "userTransaction",
          "type": "tuple"
        }
      ],
      "stateMutability": "view",
      "type": "function"
    },
    {
      "inputs": [
        {
          "internalType": "enum IPolyLottoRaffle.RaffleCategory",
          "name": "_category",
          "type": "uint8"
        },
        {
          "internalType": "uint256",
          "name": "_amount",
          "type": "uint256"
        }
      ],
      "name": "injectFunds",
      "outputs": [],
      "stateMutability": "nonpayable",
      "type": "function"
    },
    {
      "inputs": [],
      "name": "injectorAddress",
      "outputs": [
        {
          "internalType": "address",
          "name": "",
          "type": "address"
        }
      ],
      "stateMutability": "view",
      "type": "function"
    },
    {
      "inputs": [],
      "name": "maxNumberTicketsPerBuy",
      "outputs": [
        {
          "internalType": "uint256",
          "name": "",
          "type": "uint256"
        }
      ],
      "stateMutability": "view",
      "type": "function"
    },
    {
      "inputs": [],
      "name": "noOfWinners",
      "outputs": [
        {
          "internalType": "uint256",
          "name": "",
          "type": "uint256"
        }
      ],
      "stateMutability": "view",
      "type": "function"
    },
    {
      "inputs": [],
      "name": "operatorAddress",
      "outputs": [
        {
          "internalType": "address",
          "name": "",
          "type": "address"
        }
      ],
      "stateMutability": "view",
      "type": "function"
    },
    {
      "inputs": [],
      "name": "owner",
      "outputs": [
        {
          "internalType": "address",
          "name": "",
          "type": "address"
        }
      ],
      "stateMutability": "view",
      "type": "function"
    },
    {
      "inputs": [
        {
          "internalType": "enum IPolyLottoRaffle.RaffleCategory",
          "name": "_category",
          "type": "uint8"
        }
      ],
      "name": "payoutWinners",
      "outputs": [],
      "stateMutability": "nonpayable",
      "type": "function"
    },
    {
      "inputs": [],
      "name": "polylottoKeeper",
      "outputs": [
        {
          "internalType": "address",
          "name": "",
          "type": "address"
        }
      ],
      "stateMutability": "view",
      "type": "function"
    },
    {
      "inputs": [],
      "name": "priceUpdater",
      "outputs": [
        {
          "internalType": "address",
          "name": "",
          "type": "address"
        }
      ],
      "stateMutability": "view",
      "type": "function"
    },
    {
      "inputs": [],
      "name": "raffleToken",
      "outputs": [
        {
          "internalType": "contract IERC20",
          "name": "",
          "type": "address"
        }
      ],
      "stateMutability": "view",
      "type": "function"
    },
    {
      "inputs": [],
      "name": "randomGenerator",
      "outputs": [
        {
          "internalType": "address",
          "name": "",
          "type": "address"
        }
      ],
      "stateMutability": "view",
      "type": "function"
    },
    {
      "inputs": [],
      "name": "reactivateRaffle",
      "outputs": [],
      "stateMutability": "nonpayable",
      "type": "function"
    },
    {
      "inputs": [
        {
          "internalType": "address",
          "name": "_tokenAddress",
          "type": "address"
        },
        {
          "internalType": "uint256",
          "name": "_tokenAmount",
          "type": "uint256"
        }
      ],
      "name": "recoverWrongTokens",
      "outputs": [],
      "stateMutability": "nonpayable",
      "type": "function"
    },
    {
      "inputs": [],
      "name": "renounceOwnership",
      "outputs": [],
      "stateMutability": "nonpayable",
      "type": "function"
    },
    {
      "inputs": [
        {
          "internalType": "enum IPolyLottoRaffle.RaffleCategory",
          "name": "_category",
          "type": "uint8"
        }
      ],
      "name": "rollover",
      "outputs": [],
      "stateMutability": "nonpayable",
      "type": "function"
    },
    {
      "inputs": [
        {
          "internalType": "address",
          "name": "_keeperAddress",
          "type": "address"
        },
        {
          "internalType": "address",
          "name": "_randomGenerator",
          "type": "address"
        }
      ],
      "name": "setKeeperAndRandomGeneratorAddress",
      "outputs": [],
      "stateMutability": "nonpayable",
      "type": "function"
    },
    {
      "inputs": [
        {
          "internalType": "address",
          "name": "_operatorAddress",
          "type": "address"
        },
        {
          "internalType": "address",
          "name": "_treasuryAddress",
          "type": "address"
        },
        {
          "internalType": "address",
          "name": "_injectorAddress",
          "type": "address"
        }
      ],
      "name": "setOperatorAndTreasuryAndInjectorAddresses",
      "outputs": [],
      "stateMutability": "nonpayable",
      "type": "function"
    },
    {
      "inputs": [
        {
          "internalType": "address",
          "name": "_priceUpdater",
          "type": "address"
        }
      ],
      "name": "setPriceUpdaterAddress",
      "outputs": [],
      "stateMutability": "nonpayable",
      "type": "function"
    },
    {
      "inputs": [
        {
          "internalType": "enum IPolyLottoRaffle.RaffleCategory",
          "name": "_category",
          "type": "uint8"
        },
        {
          "internalType": "bool",
          "name": "_drawCompleted",
          "type": "bool"
        }
      ],
      "name": "setRaffleAsDrawn",
      "outputs": [],
      "stateMutability": "nonpayable",
      "type": "function"
    },
    {
      "inputs": [
        {
          "internalType": "uint256",
          "name": "_amountOfTokenPerStable",
          "type": "uint256"
        }
      ],
      "name": "setTicketPrice",
      "outputs": [],
      "stateMutability": "nonpayable",
      "type": "function"
    },
    {
      "inputs": [],
      "name": "startRaffle",
      "outputs": [],
      "stateMutability": "nonpayable",
      "type": "function"
    },
    {
      "inputs": [
        {
          "internalType": "address",
          "name": "newOwner",
          "type": "address"
        }
      ],
      "name": "transferOwnership",
      "outputs": [],
      "stateMutability": "nonpayable",
      "type": "function"
    },
    {
      "inputs": [],
      "name": "treasuryAddress",
      "outputs": [
        {
          "internalType": "address",
          "name": "",
          "type": "address"
        }
      ],
      "stateMutability": "view",
      "type": "function"
    },
    {
      "inputs": [
        {
          "internalType": "address",
          "name": "_newTokenAddress",
          "type": "address"
        }
      ],
      "name": "updateRaffleToken",
      "outputs": [],
      "stateMutability": "nonpayable",
      "type": "function"
    },
    {
      "inputs": [
        {
          "internalType": "enum IPolyLottoRaffle.RaffleCategory",
          "name": "_category",
          "type": "uint8"
        },
        {
          "internalType": "address",
          "name": "_user",
          "type": "address"
        },
        {
          "internalType": "uint256",
          "name": "_raffleID",
          "type": "uint256"
        }
      ],
      "name": "viewUserTickets",
      "outputs": [
        {
          "internalType": "uint32[]",
          "name": "",
          "type": "uint32[]"
        }
      ],
      "stateMutability": "view",
      "type": "function"
    }
  ],
  "bytecode": "0x60c0604052611c2060805261070860a0526103e86009553480156200002357600080fd5b506040516200581c3803806200581c8339810160408190526200004691620001c0565b6001600081815581546001600160a01b031916339081179092556040518291907f8be0079c531659141344cd1fd0a4f28419497f9722a3daafe3b4186f6b6457e0908290a3506003600755601080546001600160a01b0319166001600160a01b038516179055620000b782620000d0565b600f805460ff60a01b1916905560085550620002509050565b6000805260146020527f4f26c3876aa9f4b92579780beea1161a61f87ebf1ec6ee865b299e447ecba99c8190556200010a81600a6200022e565b600160005260146020527fb6c61a840592cc84133e4b25bd509abf4659307c57b160799b38490a5aa48f2c55620001438160646200022e565b600260005260146020527fa1930aa930426c54c34daad2b9ada7c5d0ef0c96078a3c5bb79f6fa6602c4a7a5550565b60006001600160a01b0382165b92915050565b620001908162000172565b81146200019c57600080fd5b50565b80516200017f8162000185565b8062000190565b80516200017f81620001ac565b600080600060608486031215620001da57620001da600080fd5b6000620001e886866200019f565b9350506020620001fb86828701620001b3565b92505060406200020e86828701620001b3565b9150509250925092565b634e487b7160e01b600052601160045260246000fd5b60008160001904831182151516156200024b576200024b62000218565b500290565b60805160a0516155a662000276600039600061098d0152600061095d01526155a66000f3fe608060405234801561001057600080fd5b50600436106102925760003560e01c806367bb60a011610160578063baa2efbb116100d8578063d8f338401161008c578063dcbad90d11610071578063dcbad90d1461053c578063f2fde38b1461054f578063fc612a8d1461056257600080fd5b8063d8f3384014610500578063da4ca0391461052957600080fd5b8063c5f956af116100bd578063c5f956af146104c7578063d1b86099146104da578063d1f477a8146104ed57600080fd5b8063baa2efbb1461049f578063c1aba43f146104bf57600080fd5b80638da5cb5b1161012f5780639c384653116101145780639c3846531461047b5780639eb386fd1461048e578063ad99854b1461049657600080fd5b80638da5cb5b1461044a57806392c1f29a1461045b57600080fd5b806367bb60a0146104075780636de28ce91461041a578063715018a6146104225780637cbd22fb1461042a57600080fd5b806342b2ea511161020e5780635583e81c116101c25780635c0b95d4116101a75780635c0b95d4146103cc578063623378d5146103d457806364b4fc8e146103e757600080fd5b80635583e81c146103b157806356f689c0146103b957600080fd5b8063518da0a4116101f3578063518da0a41461037557806352fc11e51461037e578063534585581461039e57600080fd5b806342b2ea511461034457806344ab1d5c1461035557600080fd5b8063242284f1116102655780632b5afd091161024a5780632b5afd091461030b5780633c50d5291461031e5780633f138d4b1461033157600080fd5b8063242284f1146102fb578063269ce1bb1461030357600080fd5b80630441717b14610297578063127effb2146102ac57806315981650146102d557806318386288146102e8575b600080fd5b6102aa6102a53660046142da565b610575565b005b600b546102bf906001600160a01b031681565b6040516102cc919061431b565b60405180910390f35b6102aa6102e3366004614341565b61083f565b600e546102bf906001600160a01b031681565b6102aa610875565b6102aa610b4d565b6102aa6103193660046142da565b610eed565b6102aa61032c366004614376565b611305565b6102aa61033f3660046143b3565b6113a9565b6007545b6040516102cc91906143ec565b6103686103633660046143fa565b611478565b6040516102cc91906144b4565b61034860085481565b61039161038c3660046142da565b61155a565b6040516102cc9190614540565b6102aa6103ac3660046142da565b6115f4565b600554610348565b6102aa6103c7366004614561565b611aff565b600354610348565b6102aa6103e2366004614594565b611b86565b6010546103fa906001600160a01b031681565b6040516102cc91906145f0565b6102aa6104153660046145fe565b611bf8565b600854610348565b6102aa611da0565b61043d6104383660046143b3565b611e14565b6040516102cc919061471a565b6001546001600160a01b03166102bf565b61046e6104693660046142da565b611f51565b6040516102cc9190614733565b600a546102bf906001600160a01b031681565b600454610348565b61034860095481565b6104b26104ad3660046145fe565b611f94565b6040516102cc919061489b565b6102aa61218b565b600c546102bf906001600160a01b031681565b6102aa6104e83660046148fe565b6127a4565b6102aa6104fb366004614594565b612a95565b61034861050e366004614594565b6001600160a01b031660009081526018602052604090205490565b6102aa61053736600461495a565b612ea8565b600d546102bf906001600160a01b031681565b6102aa61055d366004614594565b612fc2565b600f546102bf906001600160a01b031681565b600e546001600160a01b031633146105a85760405162461bcd60e51b815260040161059f906149d2565b60405180910390fd5b6004601460008360028111156105c0576105c06144c5565b60028111156105d1576105d16144c5565b815260208101919091526040016000206002015460ff1660058111156105f9576105f96144c5565b146106165760405162461bcd60e51b815260040161059f90614a14565b60006013600083600281111561062e5761062e6144c5565b600281111561063f5761063f6144c5565b815260200190815260200160002060006005548152602001908152602001600020905060006014600084600281111561067a5761067a6144c5565b600281111561068b5761068b6144c5565b81526020019081526020016000209050600080600090505b60085481101561078a576107128460050182815481106106c5576106c5614a24565b6000918252602090912001546004860180546001600160a01b0390921691849081106106f3576106f3614a24565b6000918252602090912001546010546001600160a01b0316919061306e565b83600401818154811061072757610727614a24565b90600052602060002001548360010160008282546107459190614a50565b90915550506004840180548290811061076057610760614a24565b9060005260206000200154826107769190614a67565b91508061078281614a7f565b9150506106a3565b5060006002836001015461079e9190614ab0565b600c546010549192506107be916001600160a01b0390811691168361306e565b808360010160008282546107d29190614a50565b909155506107e390508560016130f6565b600780549060006107f383614a7f565b91905055507fef99a204a94c30b225058df07e102a2bb1ee4c08995f4a39eccf82e79e4731f9858560050184426040516108309493929190614b21565b60405180910390a15050505050565b600f546001600160a01b031633146108695760405162461bcd60e51b815260040161059f906149d2565b61087281613154565b50565b600e546001600160a01b0316331461089f5760405162461bcd60e51b815260040161059f906149d2565b6007546003146108c15760405162461bcd60e51b815260040161059f90614b8f565b600580549060006108d183614a7f565b9091555050600f54600160a01b900460ff161561095157600f60009054906101000a90046001600160a01b03166001600160a01b031663673a7e286040518163ffffffff1660e01b8152600401600060405180830381600087803b15801561093857600080fd5b505af115801561094c573d6000803e3d6000fd5b505050505b426002819055610982907f000000000000000000000000000000000000000000000000000000000000000090614a67565b60038190556109b2907f000000000000000000000000000000000000000000000000000000000000000090614a67565b60045560408051606081018252600080825260016020830152600292820192909252905b6003811015610b005760008282600381106109f3576109f3614a24565b60200201519050600060136000836002811115610a1257610a126144c5565b6002811115610a2357610a236144c5565b815260208082019290925260409081016000908120600554808352935290812091825560025460078301556003546008830155909150610a62836131f2565b90508015610a8d57610a7383613312565b80826001016000828254610a879190614a67565b90915550505b610a988360026130f6565b610aa183613725565b6000601a6000856002811115610ab957610ab96144c5565b6002811115610aca57610aca6144c5565b81526020810191909152604001600020805460ff191691151591909117905550829150610af8905081614a7f565b9150506109d6565b5060006007556005546003546004546040517fb15bf0ec96989b8686c290ff167b6855edaa07d0e6b8458f665125e64819068492610b42929091600290614b9f565b60405180910390a250565b600b546001600160a01b03163314610b775760405162461bcd60e51b815260040161059f90614bf9565b600080805260146020908152604080516060810182527f4f26c3876aa9f4b92579780beea1161a61f87ebf1ec6ee865b299e447ecba99c805482527f4f26c3876aa9f4b92579780beea1161a61f87ebf1ec6ee865b299e447ecba99d54938201939093527f4f26c3876aa9f4b92579780beea1161a61f87ebf1ec6ee865b299e447ecba99e548493919283019060ff166005811115610c1857610c186144c5565b6005811115610c2957610c296144c5565b9052509050600581604001516005811115610c4657610c466144c5565b14610c635760405162461bcd60e51b815260040161059f90614c63565b6001600081815260146020908152604080516060810182527fb6c61a840592cc84133e4b25bd509abf4659307c57b160799b38490a5aa48f2c805482527fb6c61a840592cc84133e4b25bd509abf4659307c57b160799b38490a5aa48f2d54938201939093527fb6c61a840592cc84133e4b25bd509abf4659307c57b160799b38490a5aa48f2e5490929183019060ff166005811115610d0557610d056144c5565b6005811115610d1657610d166144c5565b9052509050600581604001516005811115610d3357610d336144c5565b14610d505760405162461bcd60e51b815260040161059f90614c63565b6002600081815260146020908152604080516060810182527fa1930aa930426c54c34daad2b9ada7c5d0ef0c96078a3c5bb79f6fa6602c4a7a805482527fa1930aa930426c54c34daad2b9ada7c5d0ef0c96078a3c5bb79f6fa6602c4a7b54938201939093527fa1930aa930426c54c34daad2b9ada7c5d0ef0c96078a3c5bb79f6fa6602c4a7c5490929183019060ff166005811115610df257610df26144c5565b6005811115610e0357610e036144c5565b9052509050600581604001516005811115610e2057610e206144c5565b14610e3d5760405162461bcd60e51b815260040161059f90614c63565b60408051606081018252600080825260016020830152600292820192909252905b6003811015610ea0576000828260038110610e7b57610e7b614a24565b60200201519050610e8d8160016130f6565b5080610e9881614a7f565b915050610e5e565b5060036007556005546040517f3e3fbe6edaa33edaf5f25f93631b45be609c9603eebf7d4d0976f0dec5dfdc0491610edc914290600190614b9f565b60405180910390a150505050505050565b600e546001600160a01b03163314610f175760405162461bcd60e51b815260040161059f906149d2565b600360146000836002811115610f2f57610f2f6144c5565b6002811115610f4057610f406144c5565b815260208101919091526040016000206002015460ff166005811115610f6857610f686144c5565b14610f855760405162461bcd60e51b815260040161059f90614a14565b600060136000836002811115610f9d57610f9d6144c5565b6002811115610fae57610fae6144c5565b8152602080820192909252604090810160009081206005548252909252808220600d5491517fa6757ddd0000000000000000000000000000000000000000000000000000000081529093506001600160a01b039091169063a6757ddd90611019908690600401614c73565b60006040518083038186803b15801561103157600080fd5b505afa158015611045573d6000803e3d6000fd5b505050506040513d6000823e601f3d908101601f1916820160405261106d9190810190614d8c565b9050600082600101546019600086600281111561108c5761108c6144c5565b600281111561109d5761109d6144c5565b8152602001908152602001600020546110b69190614a50565b9050600060085467ffffffffffffffff8111156110d5576110d5614c81565b6040519080825280602002602001820160405280156110fe578160200160208202803683370190505b509050600060085467ffffffffffffffff81111561111e5761111e614c81565b604051908082528060200260200182016040528015611147578160200160208202803683370190505b50905060005b60085481101561128857600085828151811061116b5761116b614a24565b60200260200101518561117e9190614a67565b905060116000896002811115611196576111966144c5565b60028111156111a7576111a76144c5565b815260208082019290925260409081016000908120848252909252902054845163ffffffff909116908590849081106111e2576111e2614a24565b60200260200101818152505060116000896002811115611204576112046144c5565b6002811115611215576112156144c5565b8152602001908152602001600020600082815260200190815260200160002060000160049054906101000a90046001600160a01b031683838151811061125d5761125d614a24565b6001600160a01b0390921660209283029190910190910152508061128081614a7f565b91505061114d565b50805161129e9060058701906020840190614129565b5081516112b4906006870190602085019061418e565b506112c08660046130f6565b6005547f79aa71bc7ac44ef46960b6e440cf08b63d9c1db4d3af7374da8c13371d369b108760046040516112f5929190614dc7565b60405180910390a2505050505050565b600b546001600160a01b0316331461132f5760405162461bcd60e51b815260040161059f90614bf9565b6001600160a01b0382166113555760405162461bcd60e51b815260040161059f90614e14565b6001600160a01b03811661137b5760405162461bcd60e51b815260040161059f90614e14565b600e80546001600160a01b039384166001600160a01b031991821617909155600d8054929093169116179055565b600b546001600160a01b031633146113d35760405162461bcd60e51b815260040161059f90614bf9565b6001600160a01b0382166113f95760405162461bcd60e51b815260040161059f90614e14565b6010546001600160a01b03838116911614156114275760405162461bcd60e51b815260040161059f90614e56565b61143b6001600160a01b038316338361306e565b7f74545154aac348a3eac92596bd1971957ca94795f4e954ec5f613b55fab78129828260405161146c929190614e66565b60405180910390a15050565b6001600160a01b03821660009081526012602052604081206060918560028111156114a5576114a56144c5565b60028111156114b6576114b66144c5565b8152602001908152602001600020600083815260200190815260200160002080548060200260200160405190810160405280929190818152602001828054801561154b57602002820191906000526020600020906000905b82829054906101000a900463ffffffff1663ffffffff168152602001906004019060208260030104928301926001038202915080841161150e5790505b505050505090505b9392505050565b6115626141c9565b60146000836002811115611578576115786144c5565b6002811115611589576115896144c5565b815260200190815260200160002060405180606001604052908160008201548152602001600182015481526020016002820160009054906101000a900460ff1660058111156115da576115da6144c5565b60058111156115eb576115eb6144c5565b90525092915050565b600e546001600160a01b0316331461161e5760405162461bcd60e51b815260040161059f906149d2565b600060136000836002811115611636576116366144c5565b6002811115611647576116476144c5565b8152602001908152602001600020600060055481526020019081526020016000206040518061012001604052908160008201548152602001600182015481526020016002820154815260200160038201548152602001600482018054806020026020016040519081016040528092919081815260200182805480156116eb57602002820191906000526020600020905b8154815260200190600101908083116116d7575b505050505081526020016005820180548060200260200160405190810160405280929190818152602001828054801561174d57602002820191906000526020600020905b81546001600160a01b0316815260019091019060200180831161172f575b50505050508152602001600682018054806020026020016040519081016040528092919081815260200182805480156117a557602002820191906000526020600020905b815481526020019060010190808311611791575b50505050508152602001600782015481526020016008820154815250509050600081602001511115611a9b5760008160200151601960008560028111156117ee576117ee6144c5565b60028111156117ff576117ff6144c5565b8152602001908152602001600020546118189190614a50565b905060015b82602001518111611a985760006118348284614a67565b905060016011600087600281111561184e5761184e6144c5565b600281111561185f5761185f6144c5565b81526020808201929092526040908101600090812085825290925281208054921515600160c01b0260ff60c01b19909316929092179091556011818760028111156118ac576118ac6144c5565b60028111156118bd576118bd6144c5565b81526020808201929092526040908101600090812085825283528181205464010000000090046001600160a01b03168082526017909352205490915060ff166119865760166000876002811115611916576119166144c5565b6002811115611927576119276144c5565b815260208082019290925260409081016000908120600554825283528181208054600180820183559183528483200180546001600160a01b0319166001600160a01b0387169081179091558252601790935220805460ff191690911790555b6015600087600281111561199c5761199c6144c5565b60028111156119ad576119ad6144c5565b8152602001908152602001600020601160008860028111156119d1576119d16144c5565b60028111156119e2576119e26144c5565b81526020808201929092526040908101600090812095815294825284208254600181018455928552932083549101805463ffffffff19811663ffffffff909316928317825584546001600160a01b0364010000000091829004160277ffffffffffffffffffffffffffffffffffffffffffffffff1990911690921791909117808255925460ff600160c01b918290041615150260ff60c01b19909316929092179091555080611a9081614a7f565b91505061181d565b50505b611aa68260016130f6565b60078054906000611ab683614a7f565b91905055506005547f9402dc198f9e47021ec8067c6178ccac38ba2ecc03fadbb23b6c5c5299304326838360200151604051611af3929190614e81565b60405180910390a25050565b600d546001600160a01b03163314611b295760405162461bcd60e51b815260040161059f90614ec1565b8015611b3a57611b3a8260036130f6565b6001601a6000846002811115611b5257611b526144c5565b6002811115611b6357611b636144c5565b81526020810191909152604001600020805460ff19169115159190911790555050565b600b546001600160a01b03163314611bb05760405162461bcd60e51b815260040161059f90614bf9565b6001600160a01b038116611bd65760405162461bcd60e51b815260040161059f90614e14565b600f80546001600160a01b0319166001600160a01b0392909216919091179055565b6001546001600160a01b0316331480611c1b5750600a546001600160a01b031633145b611c375760405162461bcd60e51b815260040161059f90614f03565b600260146000846002811115611c4f57611c4f6144c5565b6002811115611c6057611c606144c5565b815260208101919091526040016000206002015460ff166005811115611c8857611c886144c5565b14611ca55760405162461bcd60e51b815260040161059f90614f45565b601054611cbd906001600160a01b0316333084613837565b8060136000846002811115611cd457611cd46144c5565b6002811115611ce557611ce56144c5565b8152602001908152602001600020600060055481526020019081526020016000206003016000828254611d189190614a67565b9091555081905060146000846002811115611d3557611d356144c5565b6002811115611d4657611d466144c5565b81526020019081526020016000206001016000828254611d669190614a67565b90915550506005546040517fa1c157de391a92665d22914b5834a188e801f4fbc466639ddc0063abff1df3bb90611af39085908590614e81565b6001546001600160a01b03163314611dca5760405162461bcd60e51b815260040161059f90614f85565b6001546040516000916001600160a01b0316907f8be0079c531659141344cd1fd0a4f28419497f9722a3daafe3b4186f6b6457e0908390a3600180546001600160a01b0319169055565b611e1c6141fa565b6001600160a01b0383166000908152601860205260409020805483908110611e4657611e46614a24565b90600052602060002090600502016040518060a001604052908160008201548152602001600182015481526020016002820160009054906101000a900460ff166002811115611e9757611e976144c5565b6002811115611ea857611ea86144c5565b815260200160038201548152602001600482018054611ec690614fab565b80601f0160208091040260200160405190810160405280929190818152602001828054611ef290614fab565b8015611f3f5780601f10611f1457610100808354040283529160200191611f3f565b820191906000526020600020905b815481529060010190602001808311611f2257829003601f168201915b50505050508152505090505b92915050565b6000601a6000836002811115611f6957611f696144c5565b6002811115611f7a57611f7a6144c5565b815260208101919091526040016000205460ff1692915050565b611fe36040518061012001604052806000815260200160008152602001600081526020016000815260200160608152602001606081526020016060815260200160008152602001600081525090565b60136000846002811115611ff957611ff96144c5565b600281111561200a5761200a6144c5565b815260200190815260200160002060008381526020019081526020016000206040518061012001604052908160008201548152602001600182015481526020016002820154815260200160038201548152602001600482018054806020026020016040519081016040528092919081815260200182805480156120ac57602002820191906000526020600020905b815481526020019060010190808311612098575b505050505081526020016005820180548060200260200160405190810160405280929190818152602001828054801561210e57602002820191906000526020600020905b81546001600160a01b031681526001909101906020018083116120f0575b505050505081526020016006820180548060200260200160405190810160405280929190818152602001828054801561216657602002820191906000526020600020905b815481526020019060010190808311612152575b5050505050815260200160078201548152602001600882015481525050905092915050565b600b546001600160a01b031633146121b55760405162461bcd60e51b815260040161059f90614bf9565b60055460009081527f8fa6efc3be94b5b348b21fea823fe8d100408cee9b7f90524494500445d8ff6c6020908152604080832081516101208101835281548152600182015481850152600282015481840152600382015460608201526004820180548451818702810187019095528085528695929460808601939092919083018282801561226257602002820191906000526020600020905b81548152602001906001019080831161224e575b50505050508152602001600582018054806020026020016040519081016040528092919081815260200182805480156122c457602002820191906000526020600020905b81546001600160a01b031681526001909101906020018083116122a6575b505050505081526020016006820180548060200260200160405190810160405280929190818152602001828054801561231c57602002820191906000526020600020905b815481526020019060010190808311612308575b50505050508152602001600782015481526020016008820154815250509050600a81602001511080612352575060058160400151105b61236e5760405162461bcd60e51b815260040161059f90615030565b60055460009081527f4155c2f711f2cdd34f8262ab8fb9b7020a700fe7b6948222152f7670d1fdf34d602090815260408083208151610120810183528154815260018281015482860152600283015482850152600383015460608301526004830180548551818802810188019096528086529196959294608086019390929083018282801561241c57602002820191906000526020600020905b815481526020019060010190808311612408575b505050505081526020016005820180548060200260200160405190810160405280929190818152602001828054801561247e57602002820191906000526020600020905b81546001600160a01b03168152600190910190602001808311612460575b50505050508152602001600682018054806020026020016040519081016040528092919081815260200182805480156124d657602002820191906000526020600020905b8154815260200190600101908083116124c2575b50505050508152602001600782015481526020016008820154815250509050600a8160200151108061250c575060058160400151105b6125285760405162461bcd60e51b815260040161059f90615030565b60055460009081527f0b9d2c0c271bb30544eb78c59bdaebdae2728e5f65814c07768a0abe90ed192360209081526040808320815161012081018352815481526001820154818501526002828101548285015260038301546060830152600483018054855181880281018801909652808652919695929460808601939092908301828280156125d657602002820191906000526020600020905b8154815260200190600101908083116125c2575b505050505081526020016005820180548060200260200160405190810160405280929190818152602001828054801561263857602002820191906000526020600020905b81546001600160a01b0316815260019091019060200180831161261a575b505050505081526020016006820180548060200260200160405190810160405280929190818152602001828054801561269057602002820191906000526020600020905b81548152602001906001019080831161267c575b50505050508152602001600782015481526020016008820154815250509050600a816020015110806126c6575060058160400151105b6126e25760405162461bcd60e51b815260040161059f90615030565b60408051606081018252600080825260016020830152600292820192909252905b600381101561275e5761272b82826003811061272157612721614a24565b602002015161385e565b61274c82826003811061274057612740614a24565b602002015160056130f6565b8061275681614a7f565b915050612703565b50600060078190556003819055600455600580546040517f38960c0800e981febc869f33d307d21683c7a1f85845bfe665071f160292c08092610edc9291429190614b9f565b333b156127c35760405162461bcd60e51b815260040161059f90615072565b3332146127e25760405162461bcd60e51b815260040161059f906150b4565b600260005414156128055760405162461bcd60e51b815260040161059f906150f6565b6002600055806128275760405162461bcd60e51b815260040161059f90615138565b6009548111156128495760405162461bcd60e51b815260040161059f9061517a565b600260146000856002811115612861576128616144c5565b6002811115612872576128726144c5565b815260208101919091526040016000206002015460ff16600581111561289a5761289a6144c5565b146128b75760405162461bcd60e51b815260040161059f90614f45565b6000601460008560028111156128cf576128cf6144c5565b60028111156128e0576128e06144c5565b81526020019081526020016000209050600060136000866002811115612908576129086144c5565b6002811115612919576129196144c5565b81526020808201929092526040908101600090812060055482529092528120835490925061294890859061518a565b601054909150612963906001600160a01b0316333084613837565b33600090815260126020526040812090876002811115612985576129856144c5565b6002811115612996576129966144c5565b81526020808201929092526040908101600090812060055482529092529020546129d2576002820180549060006129cc83614a7f565b91905055505b808360010160008282546129e69190614a67565b909155506129f990508685600033613b44565b612a3686868680806020026020016040519081016040528093929190818152602001838360200280828437600092019190915250613cfd92505050565b612a3f86613725565b6005547fa7bb92e7914605223bcedd08fc40c8d4db3f6f774788077acbaf16c63342ef2d878787876001015487600401604051612a80959493929190615272565b60405180910390a25050600160005550505050565b600b546001600160a01b03163314612abf5760405162461bcd60e51b815260040161059f90614bf9565b600080805260146020908152604080516060810182527f4f26c3876aa9f4b92579780beea1161a61f87ebf1ec6ee865b299e447ecba99c805482527f4f26c3876aa9f4b92579780beea1161a61f87ebf1ec6ee865b299e447ecba99d54938201939093527f4f26c3876aa9f4b92579780beea1161a61f87ebf1ec6ee865b299e447ecba99e548493919283019060ff166005811115612b6057612b606144c5565b6005811115612b7157612b716144c5565b9052509050600581604001516005811115612b8e57612b8e6144c5565b14612bab5760405162461bcd60e51b815260040161059f90614c63565b6001600081815260146020908152604080516060810182527fb6c61a840592cc84133e4b25bd509abf4659307c57b160799b38490a5aa48f2c805482527fb6c61a840592cc84133e4b25bd509abf4659307c57b160799b38490a5aa48f2d54938201939093527fb6c61a840592cc84133e4b25bd509abf4659307c57b160799b38490a5aa48f2e5490929183019060ff166005811115612c4d57612c4d6144c5565b6005811115612c5e57612c5e6144c5565b9052509050600581604001516005811115612c7b57612c7b6144c5565b14612c985760405162461bcd60e51b815260040161059f90614c63565b6002600081815260146020908152604080516060810182527fa1930aa930426c54c34daad2b9ada7c5d0ef0c96078a3c5bb79f6fa6602c4a7a805482527fa1930aa930426c54c34daad2b9ada7c5d0ef0c96078a3c5bb79f6fa6602c4a7b54938201939093527fa1930aa930426c54c34daad2b9ada7c5d0ef0c96078a3c5bb79f6fa6602c4a7c5490929183019060ff166005811115612d3a57612d3a6144c5565b6005811115612d4b57612d4b6144c5565b9052509050600581604001516005811115612d6857612d686144c5565b14612d855760405162461bcd60e51b815260040161059f90614c63565b600f54600160a01b900460ff1615612daf5760405162461bcd60e51b815260040161059f906152e6565b6001600160a01b038716612dd55760405162461bcd60e51b815260040161059f90614e14565b600f546040517ffb3de0980000000000000000000000000000000000000000000000000000000081526001600160a01b039091169063fb3de09890612e1e908a9060040161431b565b600060405180830381600087803b158015612e3857600080fd5b505af1158015612e4c573d6000803e3d6000fd5b5050601080546001600160a01b03909a166001600160a01b0319909a16999099179098555050600f80547fffffffffffffffffffffff00ffffffffffffffffffffffffffffffffffffffff16600160a01b179055505050505050565b6001546001600160a01b03163314612ed25760405162461bcd60e51b815260040161059f90614f85565b6001600160a01b038316612ef85760405162461bcd60e51b815260040161059f90614e14565b6001600160a01b038216612f1e5760405162461bcd60e51b815260040161059f90614e14565b6001600160a01b038116612f445760405162461bcd60e51b815260040161059f90614e14565b600b80546001600160a01b038086166001600160a01b031992831617909255600c8054858416908316179055600a8054928416929091169190911790556040517f3e945b7660001d46cfd5e729545f7f0b6c65bdee54066a91c7acad703f1b731e90612fb5908590859085906152f6565b60405180910390a1505050565b6001546001600160a01b03163314612fec5760405162461bcd60e51b815260040161059f90614f85565b6001600160a01b0381166130125760405162461bcd60e51b815260040161059f90615376565b6001546040516001600160a01b038084169216907f8be0079c531659141344cd1fd0a4f28419497f9722a3daafe3b4186f6b6457e090600090a3600180546001600160a01b0319166001600160a01b0392909216919091179055565b6130f18363a9059cbb60e01b848460405160240161308d929190614e66565b60408051601f198184030181529190526020810180517bffffffffffffffffffffffffffffffffffffffffffffffffffffffff167fffffffff0000000000000000000000000000000000000000000000000000000090931692909217909152613f91565b505050565b806014600084600281111561310d5761310d6144c5565b600281111561311e5761311e6144c5565b81526020810191909152604001600020600201805460ff1916600183600581111561314b5761314b6144c5565b02179055505050565b6000805260146020527f4f26c3876aa9f4b92579780beea1161a61f87ebf1ec6ee865b299e447ecba99c81905561318c81600a61518a565b600160005260146020527fb6c61a840592cc84133e4b25bd509abf4659307c57b160799b38490a5aa48f2c556131c381606461518a565b600260005260146020527fa1930aa930426c54c34daad2b9ada7c5d0ef0c96078a3c5bb79f6fa6602c4a7a5550565b60008060006015600085600281111561320d5761320d6144c5565b600281111561321e5761321e6144c5565b8152602001908152602001600020805480602002602001604051908101604052809291908181526020016000905b828210156132a9576000848152602090819020604080516060810182529185015463ffffffff8116835264010000000081046001600160a01b031683850152600160c01b900460ff1615159082015282526001909201910161324c565b50505050905060005b81518110156133095760008282815181106132cf576132cf614a24565b6020026020010151905080604001516132e857506132f7565b836132f281614a7f565b945050505b8061330181614a7f565b9150506132b2565b50909392505050565b60006015600083600281111561332a5761332a6144c5565b600281111561333b5761333b6144c5565b815260200190815260200160002090506000600160055461335c9190614a50565b9050600060166000856002811115613376576133766144c5565b6002811115613387576133876144c5565b815260200190815260200160002060008381526020019081526020016000208054806020026020016040519081016040528092919081815260200182805480156133fa57602002820191906000526020600020905b81546001600160a01b031681526001909101906020018083116133dc575b5050505050905060005b835481101561366057600084828154811061342157613421614a24565b60009182526020909120018054909150600160c01b900460ff16613445575061364e565b805460ff60c01b1916815560196000876002811115613466576134666144c5565b6002811115613477576134776144c5565b8152602001908152602001600020600081548092919061349690614a7f565b9091555050805464010000000090046001600160a01b03166000908152601260205260408120908760028111156134cf576134cf6144c5565b60028111156134e0576134e06144c5565b81526020808201929092526040908101600090812060055482528352818120845481546001810183559183528483206008830401805463ffffffff60079094166004026101000a84810219909116928416029190911790558251606081018452855491821681526401000000009091046001600160a01b03169381019390935290820181905260119088600281111561357b5761357b6144c5565b600281111561358c5761358c6144c5565b81526020019081526020016000206000601960008a60028111156135b2576135b26144c5565b60028111156135c3576135c36144c5565b81526020808201929092526040908101600090812054845283830194909452918201909220835181549385015194909201511515600160c01b0260ff60c01b196001600160a01b039095166401000000000277ffffffffffffffffffffffffffffffffffffffffffffffff1990941663ffffffff909316929092179290921792909216919091179055505b8061365881614a7f565b915050613404565b5060005b815181101561371e57600082828151811061368157613681614a24565b6020908102919091018101516001600160a01b0381166000908152601783526040808220805460ff191690556012909352918220909250818860028111156136cb576136cb6144c5565b60028111156136dc576136dc6144c5565b81526020808201929092526040908101600090812088825290925290205490506137098782600185613b44565b5050808061371690614a7f565b915050613664565b5050505050565b60006013600083600281111561373d5761373d6144c5565b600281111561374e5761374e6144c5565b8152602001908152602001600020600060055481526020019081526020016000209050600060146000846002811115613789576137896144c5565b600281111561379a5761379a6144c5565b8152602001908152602001600020600101549050600060648260196137bf919061518a565b6137c99190614ab0565b9050600060646137da84600f61518a565b6137e49190614ab0565b9050600060646137f585600a61518a565b6137ff9190614ab0565b90506040518060600160405280848152602001838152602001828152508560040190600361382e92919061418e565b50505050505050565b613858846323b872dd60e01b85858560405160240161308d93929190615386565b50505050565b600060136000836002811115613876576138766144c5565b6002811115613887576138876144c5565b81526020019081526020016000206000600554815260200190815260200160002060405180610120016040529081600082015481526020016001820154815260200160028201548152602001600382015481526020016004820180548060200260200160405190810160405280929190818152602001828054801561392b57602002820191906000526020600020905b815481526020019060010190808311613917575b505050505081526020016005820180548060200260200160405190810160405280929190818152602001828054801561398d57602002820191906000526020600020905b81546001600160a01b0316815260019091019060200180831161396f575b50505050508152602001600682018054806020026020016040519081016040528092919081815260200182805480156139e557602002820191906000526020600020905b8154815260200190600101908083116139d1575b50505050508152602001600782015481526020016008820154815250509050600060146000846002811115613a1c57613a1c6144c5565b6002811115613a2d57613a2d6144c5565b8152602081019190915260400160002090506000826020015160196000866002811115613a5c57613a5c6144c5565b6002811115613a6d57613a6d6144c5565b815260200190815260200160002054613a869190614a50565b905060015b8360200151811161371e576000613aa28284614a67565b9050600060116000886002811115613abc57613abc6144c5565b6002811115613acd57613acd6144c5565b81526020808201929092526040908101600090812085825290925290205485546010546001600160a01b0364010000000090930483169350613b12921690839061306e565b8454600186018054600090613b28908490614a50565b9250508190555050508080613b3c90614a7f565b915050613a8b565b6001600160a01b038116600090815260186020526040902054613b656141fa565b81815242602082015260408101866002811115613b8457613b846144c5565b90816002811115613b9757613b976144c5565b905250606081018590528315613be55760408051808201909152601281527f5469636b65747320526f6c6c6f7665726564000000000000000000000000000060208201526080820152613c1f565b60408051808201909152600f81527f5469636b65742050757263686173650000000000000000000000000000000000602082015260808201525b6001600160a01b0383166000908152601860209081526040808320805460018181018355918552938390208551600590950201938455918401518383015583015160028084018054869594919260ff1990911691908490811115613c8557613c856144c5565b02179055506060820151600382015560808201518051613caf91600484019160209091019061423a565b5050507f2fd95afc89f2801a15fb03e359bcc9740e6b73a9e362708ba522707fae85b333824288888560800151604051613ced9594939291906153ae565b60405180910390a1505050505050565b600060136000846002811115613d1557613d156144c5565b6002811115613d2657613d266144c5565b815260200190815260200160002060006005548152602001908152602001600020905060005b8251811015613f715760196000856002811115613d6b57613d6b6144c5565b6002811115613d7c57613d7c6144c5565b81526020019081526020016000206000815480929190613d9b90614a7f565b91905055506000838281518110613db457613db4614a24565b6020026020010151905060126000336001600160a01b03166001600160a01b031681526020019081526020016000206000866002811115613df757613df76144c5565b6002811115613e0857613e086144c5565b8152602080820192909252604090810160009081206005548252835281812080546001810182559082528382206008820401805463ffffffff80881660046007909516949094026101000a84810291021990911617905582516060810184529081523393810193909352908201819052601190876002811115613e8d57613e8d6144c5565b6002811115613e9e57613e9e6144c5565b8152602001908152602001600020600060196000896002811115613ec457613ec46144c5565b6002811115613ed557613ed56144c5565b81526020808201929092526040908101600090812054845283830194909452918201909220835181549385015194909201511515600160c01b0260ff60c01b196001600160a01b039095166401000000000277ffffffffffffffffffffffffffffffffffffffffffffffff1990941663ffffffff9093169290921792909217929092169190911790555080613f6981614a7f565b915050613d4c565b508151816001016000828254613f879190614a67565b9091555050505050565b6000613fe6826040518060400160405280602081526020017f5361666545524332303a206c6f772d6c6576656c2063616c6c206661696c6564815250856001600160a01b03166140209092919063ffffffff16565b8051909150156130f157808060200190518101906140049190615400565b6130f15760405162461bcd60e51b815260040161059f90615479565b606061402f8484600085614037565b949350505050565b6060824710156140595760405162461bcd60e51b815260040161059f906154e1565b843b6140775760405162461bcd60e51b815260040161059f90615523565b600080866001600160a01b031685876040516140939190615555565b60006040518083038185875af1925050503d80600081146140d0576040519150601f19603f3d011682016040523d82523d6000602084013e6140d5565b606091505b50915091506140e58282866140f0565b979650505050505050565b606083156140ff575081611553565b82511561410f5782518084602001fd5b8160405162461bcd60e51b815260040161059f919061555f565b82805482825590600052602060002090810192821561417e579160200282015b8281111561417e57825182546001600160a01b0319166001600160a01b03909116178255602090920191600190910190614149565b5061418a9291506142ad565b5090565b82805482825590600052602060002090810192821561417e579160200282015b8281111561417e5782518255916020019190600101906141ae565b60405180606001604052806000815260200160008152602001600060058111156141f5576141f56144c5565b905290565b6040518060a00160405280600081526020016000815260200160006002811115614226576142266144c5565b815260200160008152602001606081525090565b82805461424690614fab565b90600052602060002090601f016020900481019282614268576000855561417e565b82601f1061428157805160ff191683800117855561417e565b8280016001018555821561417e579182018281111561417e5782518255916020019190600101906141ae565b5b8082111561418a57600081556001016142ae565b6003811061087257600080fd5b8035611f4b816142c2565b6000602082840312156142ef576142ef600080fd5b600061402f84846142cf565b60006001600160a01b038216611f4b565b614315816142fb565b82525050565b60208101611f4b828461430c565b805b811461087257600080fd5b8035611f4b81614329565b60006020828403121561435657614356600080fd5b600061402f8484614336565b61432b816142fb565b8035611f4b81614362565b6000806040838503121561438c5761438c600080fd5b6000614398858561436b565b92505060206143a98582860161436b565b9150509250929050565b600080604083850312156143c9576143c9600080fd5b60006143d5858561436b565b92505060206143a985828601614336565b80614315565b60208101611f4b82846143e6565b60008060006060848603121561441257614412600080fd5b600061441e86866142cf565b935050602061442f8682870161436b565b925050604061444086828701614336565b9150509250925092565b63ffffffff8116614315565b614460828261444a565b5060200190565b60200190565b6000614477825190565b808452602093840193830160005b828110156144aa5781516144998782614456565b965050602082019150600101614485565b5093949350505050565b60208082528101611553818461446d565b634e487b7160e01b600052602160045260246000fd5b60068110610872576108726144c5565b806144f5816144db565b919050565b6000611f4b826144eb565b614315816144fa565b805161451a83826143e6565b50602081015161452d60208401826143e6565b5060408101516130f16040840182614505565b60608101611f4b828461450e565b80151561432b565b8035611f4b8161454e565b6000806040838503121561457757614577600080fd5b600061458385856142cf565b92505060206143a985828601614556565b6000602082840312156145a9576145a9600080fd5b600061402f848461436b565b6000611f4b6001600160a01b0383165b6001600160a01b031690565b6000611f4b826145b5565b6000611f4b826145d1565b614315816145dc565b60208101611f4b82846145e7565b6000806040838503121561461457614614600080fd5b60006143d585856142cf565b60038110610872576108726144c5565b806144f581614620565b6000611f4b82614630565b6143158161463a565b60005b83811015614669578181015183820152602001614651565b838111156138585750506000910152565b6000614684825190565b80845260208401935061469b81856020860161464e565b601f01601f19169290920192915050565b805160009060a08401906146c085826143e6565b5060208301516146d360208601826143e6565b5060408301516146e66040860182614645565b5060608301516146f960608601826143e6565b5060808301518482036080860152614711828261467a565b95945050505050565b6020808252810161155381846146ac565b801515614315565b60208101611f4b828461472b565b61446082826143e6565b6000614755825190565b808452602093840193830160005b828110156144aa5781516147778782614741565b965050602082019150600101614763565b614460828261430c565b600061479c825190565b808452602093840193830160005b828110156144aa5781516147be8782614788565b9650506020820191506001016147aa565b80516000906101208401906147e485826143e6565b5060208301516147f760208601826143e6565b50604083015161480a60408601826143e6565b50606083015161481d60608601826143e6565b5060808301518482036080860152614835828261474b565b91505060a083015184820360a086015261484f8282614792565b91505060c083015184820360c0860152614869828261474b565b91505060e083015161487e60e08601826143e6565b506101008301516148936101008601826143e6565b509392505050565b6020808252810161155381846147cf565b60008083601f8401126148c1576148c1600080fd5b50813567ffffffffffffffff8111156148dc576148dc600080fd5b6020830191508360208202830111156148f7576148f7600080fd5b9250929050565b60008060006040848603121561491657614916600080fd5b600061492286866142cf565b935050602084013567ffffffffffffffff81111561494257614942600080fd5b61494e868287016148ac565b92509250509250925092565b60008060006060848603121561497257614972600080fd5b600061497e868661436b565b935050602061498f8682870161436b565b92505060406144408682870161436b565b60128152602081017f4e6f74204b65657065722041646472657373000000000000000000000000000081529050614467565b60208082528101611f4b816149a0565b600e8152602081017f496e76616c696420616374696f6e00000000000000000000000000000000000081529050614467565b60208082528101611f4b816149e2565b634e487b7160e01b600052603260045260246000fd5b634e487b7160e01b600052601160045260246000fd5b600082821015614a6257614a62614a3a565b500390565b60008219821115614a7a57614a7a614a3a565b500190565b6000600019821415614a9357614a93614a3a565b5060010190565b634e487b7160e01b600052601260045260246000fd5b600082614abf57614abf614a9a565b500490565b6000611f4b826145c5565b6000611f4b8254614ac4565b6000614ae5825490565b80845260008381526020808220950194905b828110156144aa57614b0882614acf565b614b128782614788565b96505060019182019101614af7565b60808101614b2f8287614645565b8181036020830152614b418186614adb565b9050614b5060408301856143e6565b61471160608301846143e6565b60198152602081017f5265626f6f7420636865636b206e6f7420636f6d706c6574650000000000000081529050614467565b60208082528101611f4b81614b5d565b60608101614bad82866143e6565b614bba60208301856143e6565b61402f6040830184614505565b600c8152602081017f4e6f74206f70657261746f72000000000000000000000000000000000000000081529050614467565b60208082528101611f4b81614bc7565b602f8152602081017f536f7272792063616e20616374697661746520617320726166666c652069732081527f6e6f742064656163746976617465640000000000000000000000000000000000602082015290505b60400190565b60208082528101611f4b81614c09565b60208101611f4b8284614645565b634e487b7160e01b600052604160045260246000fd5b601f19601f830116810181811067ffffffffffffffff82111715614cbd57614cbd614c81565b6040525050565b6000614ccf60405190565b90506144f58282614c97565b600067ffffffffffffffff821115614cf557614cf5614c81565b5060209081020190565b8051611f4b81614329565b6000614d1d614d1884614cdb565b614cc4565b83815290506020808201908402830185811115614d3c57614d3c600080fd5b835b81811015614d5e57614d508782614cff565b835260209283019201614d3e565b5050509392505050565b600082601f830112614d7c57614d7c600080fd5b815161402f848260208601614d0a565b600060208284031215614da157614da1600080fd5b815167ffffffffffffffff811115614dbb57614dbb600080fd5b61402f84828501614d68565b60408101614dd58285614645565b6115536020830184614505565b60168152602081017f43616e6e6f74206265207a65726f20616464726573730000000000000000000081529050614467565b60208082528101611f4b81614de2565b601b8152602081017f43616e6e6f7420626520726166666c65546f6b656e20746f6b656e000000000081529050614467565b60208082528101611f4b81614e24565b60408101614e74828561430c565b61155360208301846143e6565b60408101614e748285614645565b601b8152602081017f4e6f742072616e646f6d47656e657261746f722041646472657373000000000081529050614467565b60208082528101611f4b81614e8f565b60158152602081017f4e6f74206f776e6572206f7220696e6a6563746f72000000000000000000000081529050614467565b60208082528101611f4b81614ed1565b600f8152602081017f526166666c65206e6f74206f70656e000000000000000000000000000000000081529050614467565b60208082528101611f4b81614f13565b60208082527f4f776e61626c653a2063616c6c6572206973206e6f7420746865206f776e65729101908152614467565b60208082528101611f4b81614f55565b634e487b7160e01b600052602260045260246000fd5b600281046001821680614fbf57607f821691505b60208210811415614fd257614fd2614f95565b50919050565b60278152602081017f536f7272792063616e206e6f74206465616374697661746520612076616c696481527f20726166666c650000000000000000000000000000000000000000000000000060208201529050614c5d565b60208082528101611f4b81614fd8565b60148152602081017f436f6e7472616374206e6f7420616c6c6f77656400000000000000000000000081529050614467565b60208082528101611f4b81615040565b601a8152602081017f50726f787920636f6e7472616374206e6f7420616c6c6f77656400000000000081529050614467565b60208082528101611f4b81615082565b601f8152602081017f5265656e7472616e637947756172643a207265656e7472616e742063616c6c0081529050614467565b60208082528101611f4b816150c4565b60138152602081017f4e6f207469636b6574207370656369666965640000000000000000000000000081529050614467565b60208082528101611f4b81615106565b60108152602081017f546f6f206d616e79207469636b6574730000000000000000000000000000000081529050614467565b60208082528101611f4b81615148565b60008160001904831182151516156151a4576151a4614a3a565b500290565b63ffffffff811661432b565b8035611f4b816151a9565b506000611f4b60208301836151b5565b8183526020830192506000818060005b8581101561520d576151f282846151c0565b6151fc8882614456565b9750506020820191506001016151e0565b509495945050505050565b600081611f4b565b6000611f4b8254615218565b6000615236825490565b80845260008381526020808220950194905b828110156144aa5761525982615220565b6152638782614741565b96505060019182019101615248565b608081016152808288614645565b81810360208301526152938186886151d0565b90506152a260408301856143e6565b81810360608301526140e5818461522c565b601e8152602081017f546f6b656e20686173206265656e206368616e67656420616c7265616479000081529050614467565b60208082528101611f4b816152b4565b60608101615304828661430c565b615311602083018561430c565b61402f604083018461430c565b60268152602081017f4f776e61626c653a206e6577206f776e657220697320746865207a65726f206181527f646472657373000000000000000000000000000000000000000000000000000060208201529050614c5d565b60208082528101611f4b8161531e565b60608101615394828661430c565b6153a1602083018561430c565b61402f60408301846143e6565b60a081016153bc82886143e6565b6153c960208301876143e6565b6153d66040830186614645565b6153e360608301856143e6565b81810360808301526140e5818461467a565b8051611f4b8161454e565b60006020828403121561541557615415600080fd5b600061402f84846153f5565b602a8152602081017f5361666545524332303a204552433230206f7065726174696f6e20646964206e81527f6f7420737563636565640000000000000000000000000000000000000000000060208201529050614c5d565b60208082528101611f4b81615421565b60268152602081017f416464726573733a20696e73756666696369656e742062616c616e636520666f81527f722063616c6c000000000000000000000000000000000000000000000000000060208201529050614c5d565b60208082528101611f4b81615489565b601d8152602081017f416464726573733a2063616c6c20746f206e6f6e2d636f6e747261637400000081529050614467565b60208082528101611f4b816154f1565b600061553d825190565b61554b81856020860161464e565b9290920192915050565b611f4b8183615533565b60208082528101611553818461467a56fea26469706673582212204d9df94f8a7ffa99051c576da77c28a17fe32553464c451d1f7f321e893aa0ff64736f6c63430008090033",
  "linkReferences": {},
  "deployedLinkReferences": {}
}