{
  "_format": "hh-sol-artifact-1",
  "contractName": "polylottoRaffle",
  "sourceName": "contracts/PolyLottoRaffle.sol",
  "abi": [
    {
      "inputs": [
        {
          "internalType": "address",
          "name": "_raffleToken",
          "type": "address"
        },
        {
          "internalType": "uint256",
          "name": "_amountOfTokenPerDAI",
          "type": "uint256"
        },
        {
          "internalType": "uint256",
          "name": "_noOfWinners",
          "type": "uint256"
        }
      ],
      "stateMutability": "nonpayable",
      "type": "constructor"
    },
    {
      "anonymous": false,
      "inputs": [
        {
          "indexed": false,
          "internalType": "address",
          "name": "token",
          "type": "address"
        },
        {
          "indexed": false,
          "internalType": "uint256",
          "name": "amount",
          "type": "uint256"
        }
      ],
      "name": "AdminTokenRecovery",
      "type": "event"
    },
    {
      "anonymous": false,
      "inputs": [
        {
          "indexed": false,
          "internalType": "enum IPolyLottoRaffle.RaffleCategory",
          "name": "raffleCategory",
          "type": "uint8"
        },
        {
          "indexed": true,
          "internalType": "uint256",
          "name": "raffleId",
          "type": "uint256"
        },
        {
          "indexed": false,
          "internalType": "uint256",
          "name": "injectedAmount",
          "type": "uint256"
        }
      ],
      "name": "LotteryInjection",
      "type": "event"
    },
    {
      "anonymous": false,
      "inputs": [
        {
          "indexed": false,
          "internalType": "address",
          "name": "_operatorAddress",
          "type": "address"
        },
        {
          "indexed": false,
          "internalType": "address",
          "name": "_treasuryAddress",
          "type": "address"
        },
        {
          "indexed": false,
          "internalType": "address",
          "name": "_injectorAddress",
          "type": "address"
        }
      ],
      "name": "NewOperatorAndTreasuryAndInjectorAddresses",
      "type": "event"
    },
    {
      "anonymous": false,
      "inputs": [
        {
          "indexed": false,
          "internalType": "uint256",
          "name": "txIndex",
          "type": "uint256"
        },
        {
          "indexed": false,
          "internalType": "uint256",
          "name": "timestamp",
          "type": "uint256"
        },
        {
          "indexed": false,
          "internalType": "enum IPolyLottoRaffle.RaffleCategory",
          "name": "raffleCategory",
          "type": "uint8"
        },
        {
          "indexed": false,
          "internalType": "uint256",
          "name": "noOfTickets",
          "type": "uint256"
        }
      ],
      "name": "NewUserTransaction",
      "type": "event"
    },
    {
      "anonymous": false,
      "inputs": [
        {
          "indexed": true,
          "internalType": "address",
          "name": "previousOwner",
          "type": "address"
        },
        {
          "indexed": true,
          "internalType": "address",
          "name": "newOwner",
          "type": "address"
        }
      ],
      "name": "OwnershipTransferred",
      "type": "event"
    },
    {
      "anonymous": false,
      "inputs": [
        {
          "indexed": false,
          "internalType": "uint256",
          "name": "raffleID",
          "type": "uint256"
        },
        {
          "indexed": false,
          "internalType": "uint256",
          "name": "timeStamp",
          "type": "uint256"
        },
        {
          "indexed": false,
          "internalType": "enum IPolyLottoRaffle.RaffleState",
          "name": "raffleState",
          "type": "uint8"
        }
      ],
      "name": "RaffleDeactivated",
      "type": "event"
    },
    {
      "anonymous": false,
      "inputs": [
        {
          "indexed": false,
          "internalType": "enum IPolyLottoRaffle.RaffleCategory",
          "name": "category",
          "type": "uint8"
        },
        {
          "indexed": true,
          "internalType": "uint256",
          "name": "raffleId",
          "type": "uint256"
        },
        {
          "indexed": false,
          "internalType": "enum IPolyLottoRaffle.RaffleState",
          "name": "raffleState",
          "type": "uint8"
        }
      ],
      "name": "RaffleEnded",
      "type": "event"
    },
    {
      "anonymous": false,
      "inputs": [
        {
          "indexed": true,
          "internalType": "uint256",
          "name": "raffleId",
          "type": "uint256"
        },
        {
          "indexed": false,
          "internalType": "uint256",
          "name": "endTime",
          "type": "uint256"
        },
        {
          "indexed": false,
          "internalType": "uint256",
          "name": "rebootEndTime",
          "type": "uint256"
        },
        {
          "indexed": false,
          "internalType": "enum IPolyLottoRaffle.RaffleState",
          "name": "raffleState",
          "type": "uint8"
        }
      ],
      "name": "RaffleOpen",
      "type": "event"
    },
    {
      "anonymous": false,
      "inputs": [
        {
          "indexed": false,
          "internalType": "uint256",
          "name": "raffleID",
          "type": "uint256"
        },
        {
          "indexed": false,
          "internalType": "uint256",
          "name": "timeStamp",
          "type": "uint256"
        },
        {
          "indexed": false,
          "internalType": "enum IPolyLottoRaffle.RaffleState",
          "name": "raffleState",
          "type": "uint8"
        }
      ],
      "name": "RaffleReactivated",
      "type": "event"
    },
    {
      "anonymous": false,
      "inputs": [
        {
          "indexed": false,
          "internalType": "enum IPolyLottoRaffle.RaffleCategory",
          "name": "raffleCategory",
          "type": "uint8"
        },
        {
          "indexed": true,
          "internalType": "uint256",
          "name": "raffleId",
          "type": "uint256"
        },
        {
          "indexed": false,
          "internalType": "address",
          "name": "buyer",
          "type": "address"
        },
        {
          "indexed": false,
          "internalType": "uint32[]",
          "name": "tickets",
          "type": "uint32[]"
        }
      ],
      "name": "RolloverClaimed",
      "type": "event"
    },
    {
      "anonymous": false,
      "inputs": [
        {
          "indexed": false,
          "internalType": "enum IPolyLottoRaffle.RaffleCategory",
          "name": "raffleCategory",
          "type": "uint8"
        },
        {
          "indexed": true,
          "internalType": "uint256",
          "name": "raffleId",
          "type": "uint256"
        },
        {
          "indexed": false,
          "internalType": "uint32[]",
          "name": "tickets",
          "type": "uint32[]"
        },
        {
          "indexed": false,
          "internalType": "uint256",
          "name": "rafflePool",
          "type": "uint256"
        },
        {
          "indexed": false,
          "internalType": "uint256[]",
          "name": "winnersPayout",
          "type": "uint256[]"
        }
      ],
      "name": "TicketsPurchased",
      "type": "event"
    },
    {
      "anonymous": false,
      "inputs": [
        {
          "indexed": false,
          "internalType": "enum IPolyLottoRaffle.RaffleCategory",
          "name": "raffleCategory",
          "type": "uint8"
        },
        {
          "indexed": false,
          "internalType": "address[]",
          "name": "winners",
          "type": "address[]"
        },
        {
          "indexed": false,
          "internalType": "uint256",
          "name": "amount",
          "type": "uint256"
        },
        {
          "indexed": false,
          "internalType": "uint256",
          "name": "timestamp",
          "type": "uint256"
        }
      ],
      "name": "WinnersAwarded",
      "type": "event"
    },
    {
      "anonymous": false,
      "inputs": [
        {
          "indexed": false,
          "internalType": "uint256",
          "name": "raffleID",
          "type": "uint256"
        },
        {
          "indexed": false,
          "internalType": "uint256",
          "name": "amount",
          "type": "uint256"
        }
      ],
      "name": "WithdrawalComplete",
      "type": "event"
    },
    {
      "inputs": [],
      "name": "DexRouter",
      "outputs": [
        {
          "internalType": "string",
          "name": "Dex",
          "type": "string"
        },
        {
          "internalType": "contract IUniswapV2Router02",
          "name": "routerAddress",
          "type": "address"
        }
      ],
      "stateMutability": "view",
      "type": "function"
    },
    {
      "inputs": [
        {
          "internalType": "enum IPolyLottoRaffle.RaffleCategory",
          "name": "_category",
          "type": "uint8"
        },
        {
          "internalType": "uint32[]",
          "name": "_tickets",
          "type": "uint32[]"
        }
      ],
      "name": "buyTickets",
      "outputs": [],
      "stateMutability": "nonpayable",
      "type": "function"
    },
    {
      "inputs": [
        {
          "internalType": "enum IPolyLottoRaffle.RaffleCategory",
          "name": "_category",
          "type": "uint8"
        }
      ],
      "name": "claimRollover",
      "outputs": [],
      "stateMutability": "nonpayable",
      "type": "function"
    },
    {
      "inputs": [],
      "name": "deactivateRaffle",
      "outputs": [],
      "stateMutability": "nonpayable",
      "type": "function"
    },
    {
      "inputs": [],
      "name": "getNoOfWinners",
      "outputs": [
        {
          "internalType": "uint256",
          "name": "",
          "type": "uint256"
        }
      ],
      "stateMutability": "view",
      "type": "function"
    },
    {
      "inputs": [
        {
          "internalType": "enum IPolyLottoRaffle.RaffleCategory",
          "name": "_category",
          "type": "uint8"
        },
        {
          "internalType": "uint256",
          "name": "_raffleID",
          "type": "uint256"
        }
      ],
      "name": "getRaffle",
      "outputs": [
        {
          "components": [
            {
              "internalType": "uint256",
              "name": "ID",
              "type": "uint256"
            },
            {
              "internalType": "uint256",
              "name": "noOfTicketsSold",
              "type": "uint256"
            },
            {
              "internalType": "uint256",
              "name": "noOfPlayers",
              "type": "uint256"
            },
            {
              "internalType": "uint256",
              "name": "amountInjected",
              "type": "uint256"
            },
            {
              "internalType": "uint256[]",
              "name": "winnersPayout",
              "type": "uint256[]"
            },
            {
              "internalType": "address[]",
              "name": "winners",
              "type": "address[]"
            },
            {
              "internalType": "uint256[]",
              "name": "winningTickets",
              "type": "uint256[]"
            },
            {
              "internalType": "uint256",
              "name": "raffleStartTime",
              "type": "uint256"
            },
            {
              "internalType": "uint256",
              "name": "raffleEndTime",
              "type": "uint256"
            }
          ],
          "internalType": "struct IPolyLottoRaffle.RaffleStruct",
          "name": "raffle",
          "type": "tuple"
        }
      ],
      "stateMutability": "view",
      "type": "function"
    },
    {
      "inputs": [
        {
          "internalType": "enum IPolyLottoRaffle.RaffleCategory",
          "name": "_category",
          "type": "uint8"
        }
      ],
      "name": "getRaffleData",
      "outputs": [
        {
          "components": [
            {
              "internalType": "uint256",
              "name": "ticketPrice",
              "type": "uint256"
            },
            {
              "internalType": "uint256",
              "name": "rafflePool",
              "type": "uint256"
            },
            {
              "internalType": "enum IPolyLottoRaffle.RaffleState",
              "name": "raffleState",
              "type": "uint8"
            }
          ],
          "internalType": "struct IPolyLottoRaffle.RaffleData",
          "name": "raffleData",
          "type": "tuple"
        }
      ],
      "stateMutability": "view",
      "type": "function"
    },
    {
      "inputs": [],
      "name": "getRaffleEndTime",
      "outputs": [
        {
          "internalType": "uint256",
          "name": "",
          "type": "uint256"
        }
      ],
      "stateMutability": "view",
      "type": "function"
    },
    {
      "inputs": [],
      "name": "getRaffleID",
      "outputs": [
        {
          "internalType": "uint256",
          "name": "",
          "type": "uint256"
        }
      ],
      "stateMutability": "view",
      "type": "function"
    },
    {
      "inputs": [],
      "name": "getRebootChecker",
      "outputs": [
        {
          "internalType": "uint256",
          "name": "",
          "type": "uint256"
        }
      ],
      "stateMutability": "view",
      "type": "function"
    },
    {
      "inputs": [],
      "name": "getRebootEndTime",
      "outputs": [
        {
          "internalType": "uint256",
          "name": "",
          "type": "uint256"
        }
      ],
      "stateMutability": "view",
      "type": "function"
    },
    {
      "inputs": [
        {
          "internalType": "address",
          "name": "_user",
          "type": "address"
        }
      ],
      "name": "getUserTransactionCount",
      "outputs": [
        {
          "internalType": "uint256",
          "name": "",
          "type": "uint256"
        }
      ],
      "stateMutability": "view",
      "type": "function"
    },
    {
      "inputs": [
        {
          "internalType": "enum IPolyLottoRaffle.RaffleCategory",
          "name": "_category",
          "type": "uint8"
        },
        {
          "internalType": "uint256[]",
          "name": "_winningTicketsIDs",
          "type": "uint256[]"
        }
      ],
      "name": "getWinners",
      "outputs": [],
      "stateMutability": "nonpayable",
      "type": "function"
    },
    {
      "inputs": [
        {
          "internalType": "address",
          "name": "_user",
          "type": "address"
        },
        {
          "internalType": "uint256",
          "name": "_txIndex",
          "type": "uint256"
        }
      ],
      "name": "getuserTransactionHistory",
      "outputs": [
        {
          "components": [
            {
              "internalType": "uint256",
              "name": "txID",
              "type": "uint256"
            },
            {
              "internalType": "uint256",
              "name": "time",
              "type": "uint256"
            },
            {
              "internalType": "enum IPolyLottoRaffle.RaffleCategory",
              "name": "raffleCategory",
              "type": "uint8"
            },
            {
              "internalType": "uint256",
              "name": "noOfTickets",
              "type": "uint256"
            },
            {
              "internalType": "string",
              "name": "description",
              "type": "string"
            }
          ],
          "internalType": "struct polylottoRaffle.Transaction",
          "name": "userTransaction",
          "type": "tuple"
        }
      ],
      "stateMutability": "view",
      "type": "function"
    },
    {
      "inputs": [
        {
          "internalType": "enum IPolyLottoRaffle.RaffleCategory",
          "name": "_category",
          "type": "uint8"
        },
        {
          "internalType": "uint256",
          "name": "_amount",
          "type": "uint256"
        }
      ],
      "name": "injectFunds",
      "outputs": [],
      "stateMutability": "nonpayable",
      "type": "function"
    },
    {
      "inputs": [],
      "name": "injectorAddress",
      "outputs": [
        {
          "internalType": "address",
          "name": "",
          "type": "address"
        }
      ],
      "stateMutability": "view",
      "type": "function"
    },
    {
      "inputs": [
        {
          "internalType": "enum IPolyLottoRaffle.RaffleCategory",
          "name": "_category",
          "type": "uint8"
        }
      ],
      "name": "manualRefund",
      "outputs": [],
      "stateMutability": "nonpayable",
      "type": "function"
    },
    {
      "inputs": [],
      "name": "maxNumberTicketsPerBuy",
      "outputs": [
        {
          "internalType": "uint256",
          "name": "",
          "type": "uint256"
        }
      ],
      "stateMutability": "view",
      "type": "function"
    },
    {
      "inputs": [],
      "name": "noOfWinners",
      "outputs": [
        {
          "internalType": "uint256",
          "name": "",
          "type": "uint256"
        }
      ],
      "stateMutability": "view",
      "type": "function"
    },
    {
      "inputs": [],
      "name": "operatorAddress",
      "outputs": [
        {
          "internalType": "address",
          "name": "",
          "type": "address"
        }
      ],
      "stateMutability": "view",
      "type": "function"
    },
    {
      "inputs": [],
      "name": "owner",
      "outputs": [
        {
          "internalType": "address",
          "name": "",
          "type": "address"
        }
      ],
      "stateMutability": "view",
      "type": "function"
    },
    {
      "inputs": [
        {
          "internalType": "enum IPolyLottoRaffle.RaffleCategory",
          "name": "_category",
          "type": "uint8"
        }
      ],
      "name": "payoutWinners",
      "outputs": [],
      "stateMutability": "nonpayable",
      "type": "function"
    },
    {
      "inputs": [],
      "name": "polylottoKeeper",
      "outputs": [
        {
          "internalType": "address",
          "name": "",
          "type": "address"
        }
      ],
      "stateMutability": "view",
      "type": "function"
    },
    {
      "inputs": [],
      "name": "raffleToken",
      "outputs": [
        {
          "internalType": "contract IERC20",
          "name": "",
          "type": "address"
        }
      ],
      "stateMutability": "view",
      "type": "function"
    },
    {
      "inputs": [],
      "name": "randomGenerator",
      "outputs": [
        {
          "internalType": "address",
          "name": "",
          "type": "address"
        }
      ],
      "stateMutability": "view",
      "type": "function"
    },
    {
      "inputs": [],
      "name": "reactivateRaffle",
      "outputs": [],
      "stateMutability": "nonpayable",
      "type": "function"
    },
    {
      "inputs": [
        {
          "internalType": "address",
          "name": "_tokenAddress",
          "type": "address"
        },
        {
          "internalType": "uint256",
          "name": "_tokenAmount",
          "type": "uint256"
        }
      ],
      "name": "recoverWrongTokens",
      "outputs": [],
      "stateMutability": "nonpayable",
      "type": "function"
    },
    {
      "inputs": [],
      "name": "renounceOwnership",
      "outputs": [],
      "stateMutability": "nonpayable",
      "type": "function"
    },
    {
      "inputs": [
        {
          "internalType": "enum IPolyLottoRaffle.RaffleCategory",
          "name": "_category",
          "type": "uint8"
        },
        {
          "internalType": "bool",
          "name": "_deactivated",
          "type": "bool"
        }
      ],
      "name": "rollover",
      "outputs": [],
      "stateMutability": "nonpayable",
      "type": "function"
    },
    {
      "inputs": [
        {
          "internalType": "address",
          "name": "_keeperAddress",
          "type": "address"
        },
        {
          "internalType": "address",
          "name": "_randomGenerator",
          "type": "address"
        }
      ],
      "name": "setKeeperAndRandomGeneratorAddress",
      "outputs": [],
      "stateMutability": "nonpayable",
      "type": "function"
    },
    {
      "inputs": [
        {
          "internalType": "address",
          "name": "_operatorAddress",
          "type": "address"
        },
        {
          "internalType": "address",
          "name": "_treasuryAddress",
          "type": "address"
        },
        {
          "internalType": "address",
          "name": "_injectorAddress",
          "type": "address"
        }
      ],
      "name": "setOperatorAndTreasuryAndInjectorAddresses",
      "outputs": [],
      "stateMutability": "nonpayable",
      "type": "function"
    },
    {
      "inputs": [],
      "name": "startRaffle",
      "outputs": [],
      "stateMutability": "nonpayable",
      "type": "function"
    },
    {
      "inputs": [
        {
          "internalType": "address",
          "name": "newOwner",
          "type": "address"
        }
      ],
      "name": "transferOwnership",
      "outputs": [],
      "stateMutability": "nonpayable",
      "type": "function"
    },
    {
      "inputs": [],
      "name": "treasuryAddress",
      "outputs": [
        {
          "internalType": "address",
          "name": "",
          "type": "address"
        }
      ],
      "stateMutability": "view",
      "type": "function"
    },
    {
      "inputs": [
        {
          "internalType": "address",
          "name": "_newTokenAddress",
          "type": "address"
        }
      ],
      "name": "updateRaffleToken",
      "outputs": [],
      "stateMutability": "nonpayable",
      "type": "function"
    },
    {
      "inputs": [
        {
          "internalType": "string",
          "name": "_dexName",
          "type": "string"
        },
        {
          "internalType": "address",
          "name": "_routerAddress",
          "type": "address"
        }
      ],
      "name": "updateRouter",
      "outputs": [],
      "stateMutability": "nonpayable",
      "type": "function"
    },
    {
      "inputs": [
        {
          "internalType": "enum IPolyLottoRaffle.RaffleCategory",
          "name": "_category",
          "type": "uint8"
        },
        {
          "internalType": "address",
          "name": "_user",
          "type": "address"
        }
      ],
      "name": "viewUserRollovers",
      "outputs": [
        {
          "internalType": "uint256",
          "name": "ticketsToRollover",
          "type": "uint256"
        }
      ],
      "stateMutability": "view",
      "type": "function"
    },
    {
      "inputs": [
        {
          "internalType": "enum IPolyLottoRaffle.RaffleCategory",
          "name": "_category",
          "type": "uint8"
        },
        {
          "internalType": "address",
          "name": "_user",
          "type": "address"
        },
        {
          "internalType": "uint256",
          "name": "_raffleID",
          "type": "uint256"
        }
      ],
      "name": "viewUserTickets",
      "outputs": [
        {
          "internalType": "uint32[]",
          "name": "",
          "type": "uint32[]"
        }
      ],
      "stateMutability": "view",
      "type": "function"
    },
    {
      "inputs": [
        {
          "internalType": "enum IPolyLottoRaffle.RaffleCategory",
          "name": "_category",
          "type": "uint8"
        }
      ],
      "name": "withdrawFundsDueToDeactivation",
      "outputs": [],
      "stateMutability": "nonpayable",
      "type": "function"
    }
  ],
  "bytecode": "0x60c0604052611c2060805261070860a0526103e86009553480156200002357600080fd5b5060405162005eec38038062005eec833981016040819052620000469162000192565b6001600081815581546001600160a01b031916339081179092556040518291907f8be0079c531659141344cd1fd0a4f28419497f9722a3daafe3b4186f6b6457e0908290a3506003600755600f80546001600160a01b0319166001600160a01b038516179055620000b782620000d0565b600e805460ff60a01b19169055600855506200024f9050565b6000805260156020527fa31547ce6245cdb9ecea19cf8c7eb9f5974025bb4075011409251ae855b30aed8190556200010a81600a620001e4565b600160005260156020527f27739e4bb5e6f8b5e4b57a047dca8767cc9b982a011081e086cbb0dfa9de818d5562000143816064620001e4565b600260005260156020527f07d4ff730d9753101d832555708a37d38c2c45fce8cacaefc99f06074e93fe0b5550565b80516200017f816200022e565b92915050565b80516200017f8162000248565b600080600060608486031215620001a7578283fd5b620001b58584860162000172565b92506020620001c78682870162000185565b9250506040620001da8682870162000185565b9150509250925092565b600081600019048311821515161562000201576200020162000218565b500290565b60006001600160a01b0382166200017f565b634e487b7160e01b600052601160045260246000fd5b620002398162000206565b81146200024557600080fd5b50565b8062000239565b60805160a051615c77620002756000396000610918015260006108e80152615c776000f3fe608060405234801561001057600080fd5b50600436106102ad5760003560e01c8063715018a61161017b578063baa2efbb116100d8578063d8f338401161008c578063dcbad90d11610071578063dcbad90d14610564578063f2ee6ad714610577578063f2fde38b1461058a57600080fd5b8063d8f3384014610528578063da4ca0391461055157600080fd5b8063c5f956af116100bd578063c5f956af146104ef578063d1b8609914610502578063d1f477a81461051557600080fd5b8063baa2efbb146104c7578063c1aba43f146104e757600080fd5b806389d240aa1161012f5780639c384653116101145780639c384653146104a35780639eb386fd146104b6578063ad99854b146104be57600080fd5b806389d240aa1461047f5780638da5cb5b1461049257600080fd5b806374dc20811161016057806374dc2081146104395780637cbd22fb1461044c5780637cf0c7ee1461046c57600080fd5b8063715018a61461041b578063736ce0d41461042357600080fd5b806342b2ea51116102295780635c0b95d4116101dd57806367bb60a0116101c257806367bb60a0146103ed5780636de28ce9146104005780636e94a83f1461040857600080fd5b80635c0b95d4146103c557806364b4fc8e146103cd57600080fd5b8063518da0a41161020e578063518da0a41461039457806352fc11e51461039d5780635583e81c146103bd57600080fd5b806342b2ea511461036c57806344ab1d5c1461037457600080fd5b8063269ce1bb116102805780632e23be9d116102655780632e23be9d146103265780633c50d529146103465780633f138d4b1461035957600080fd5b8063269ce1bb1461030b578063280550961461031357600080fd5b80630441717b146102b2578063127effb2146102c757806318386288146102f0578063242284f114610303575b600080fd5b6102c56102c0366004614a3e565b61059d565b005b600b546102da906001600160a01b031681565b6040516102e79190615509565b60405180910390f35b600e546102da906001600160a01b031681565b6102c5610850565b6102c5610a83565b6102c5610321366004614a3e565b610d1c565b610339610334366004614a5b565b611218565b6040516102e791906158dd565b6102c561035436600461493b565b611409565b6102c56103673660046149be565b611479565b600754610339565b610387610382366004614a79565b611522565b6040516102e79190615582565b61033960085481565b6103b06103ab366004614a3e565b611620565b6040516102e791906158ad565b600554610339565b600354610339565b600f546103e0906001600160a01b031681565b6040516102e79190615593565b6102c56103fb366004614b80565b6116f2565b600854610339565b6102c5610416366004614a3e565b61189e565b6102c5611fbd565b61042b612049565b6040516102e79291906156a6565b6102c5610447366004614b52565b6120ea565b61045f61045a3660046149be565b612122565b6040516102e791906158cc565b6102c561047a366004614b9e565b612288565b6102c561048d366004614a3e565b612327565b6001546001600160a01b03166102da565b600a546102da906001600160a01b031681565b600454610339565b61033960095481565b6104da6104d5366004614b80565b6125dc565b6040516102e791906158bb565b6102c56127ef565b600c546102da906001600160a01b031681565b6102c5610510366004614aff565b612a2b565b6102c561052336600461491e565b612d99565b61033961053636600461491e565b6001600160a01b031660009081526018602052604090205490565b6102c561055f366004614973565b6130e6565b600d546102da906001600160a01b031681565b6102c5610585366004614aba565b613218565b6102c561059836600461491e565b61351c565b600e546001600160a01b031633146105d05760405162461bcd60e51b81526004016105c790615746565b60405180910390fd5b6000601460008360028111156105f657634e487b7160e01b600052602160045260246000fd5b600281111561061557634e487b7160e01b600052602160045260246000fd5b815260200190815260200160002060006005548152602001908152602001600020905060006015600084600281111561065e57634e487b7160e01b600052602160045260246000fd5b600281111561067d57634e487b7160e01b600052602160045260246000fd5b81526020019081526020016000209050600080600090505b6008548110156107b4576107208460050182815481106106c557634e487b7160e01b600052603260045260246000fd5b6000918252602090912001546004860180546001600160a01b03909216918490811061070157634e487b7160e01b600052603260045260246000fd5b600091825260209091200154600f546001600160a01b031691906135e0565b83600401818154811061074357634e487b7160e01b600052603260045260246000fd5b90600052602060002001548360010160008282546107619190615a2d565b90915550506004840180548290811061078a57634e487b7160e01b600052603260045260246000fd5b9060005260206000200154826107a091906159c4565b9150806107ac81615b24565b915050610695565b50600c5460018301546107ea916001600160a01b0316906107d7906002906159dc565b600f546001600160a01b031691906135e0565b6107f5846001613668565b6007805490600061080583615b24565b91905055507fef99a204a94c30b225058df07e102a2bb1ee4c08995f4a39eccf82e79e4731f98484600501834260405161084294939291906155ce565b60405180910390a150505050565b600e546001600160a01b0316331461087a5760405162461bcd60e51b81526004016105c790615746565b60075460031461089c5760405162461bcd60e51b81526004016105c790615726565b600580549060006108ac83615b24565b9091555050600e5474010000000000000000000000000000000000000000900460ff16156108dc576108dc61370e565b42600281905561090d907f0000000000000000000000000000000000000000000000000000000000000000906159c4565b600381905561093d907f0000000000000000000000000000000000000000000000000000000000000000906159c4565b60045560408051606081018252600080825260016020830152600292820192909252905b6003811015610a3657600082826003811061098c57634e487b7160e01b600052603260045260246000fd5b602002015190506000601460008360028111156109b957634e487b7160e01b600052602160045260246000fd5b60028111156109d857634e487b7160e01b600052602160045260246000fd5b8152602080820192909252604090810160009081206005548083529352209081556002805460078301556003546008830155909150610a18908390613668565b610a2182613890565b50508080610a2e90615b24565b915050610961565b5060006007556005546003546004546040517fb15bf0ec96989b8686c290ff167b6855edaa07d0e6b8458f665125e64819068492610a78929091600290615921565b60405180910390a250565b600b546001600160a01b03163314610aad5760405162461bcd60e51b81526004016105c79061589d565b600080805260156020527fa31547ce6245cdb9ecea19cf8c7eb9f5974025bb4075011409251ae855b30aef547fa31547ce6245cdb9ecea19cf8c7eb9f5974025bb4075011409251ae855b30aed9060049060ff1681811115610b1f57634e487b7160e01b600052602160045260246000fd5b14610b3c5760405162461bcd60e51b81526004016105c79061582d565b6001600081905260156020527f27739e4bb5e6f8b5e4b57a047dca8767cc9b982a011081e086cbb0dfa9de818f547f27739e4bb5e6f8b5e4b57a047dca8767cc9b982a011081e086cbb0dfa9de818d9060049060ff1681811115610bb057634e487b7160e01b600052602160045260246000fd5b14610bcd5760405162461bcd60e51b81526004016105c79061582d565b6002600081905260156020527f07d4ff730d9753101d832555708a37d38c2c45fce8cacaefc99f06074e93fe0d547f07d4ff730d9753101d832555708a37d38c2c45fce8cacaefc99f06074e93fe0b9060049060ff1681811115610c4157634e487b7160e01b600052602160045260246000fd5b14610c5e5760405162461bcd60e51b81526004016105c79061582d565b60408051606081018252600080825260016020830152600292820192909252905b6003811015610ccf576000828260038110610caa57634e487b7160e01b600052603260045260246000fd5b60200201519050610cbc816001613668565b5080610cc781615b24565b915050610c7f565b5060036007556005546040517f3e3fbe6edaa33edaf5f25f93631b45be609c9603eebf7d4d0976f0dec5dfdc0491610d0b914290600190615921565b60405180910390a150505050505050565b333b15610d3b5760405162461bcd60e51b81526004016105c7906156e6565b333214610d5a5760405162461bcd60e51b81526004016105c790615756565b80600060156000836002811115610d8157634e487b7160e01b600052602160045260246000fd5b6002811115610da057634e487b7160e01b600052602160045260246000fd5b8152602081019190915260400160002090506004600282015460ff166004811115610ddb57634e487b7160e01b600052602160045260246000fd5b14610df85760405162461bcd60e51b81526004016105c79061582d565b8260166000826002811115610e1d57634e487b7160e01b600052602160045260246000fd5b6002811115610e3c57634e487b7160e01b600052602160045260246000fd5b815260208082019290925260409081016000908120338252909252902054610e765760405162461bcd60e51b81526004016105c7906156d6565b60026000541415610e995760405162461bcd60e51b81526004016105c79061587d565b6002600081905550600060156000866002811115610ec757634e487b7160e01b600052602160045260246000fd5b6002811115610ee657634e487b7160e01b600052602160045260246000fd5b815260200190815260200160002060405180606001604052908160008201548152602001600182015481526020016002820160009054906101000a900460ff166004811115610f4557634e487b7160e01b600052602160045260246000fd5b6004811115610f6457634e487b7160e01b600052602160045260246000fd5b9052509050600080601681886002811115610f8f57634e487b7160e01b600052602160045260246000fd5b6002811115610fae57634e487b7160e01b600052602160045260246000fd5b81526020808201929092526040908101600090812033825283528190208054825181850281018501909352808352919290919083018282801561101057602002820191906000526020600020905b815481526020019060010190808311610ffc575b5050505050905060005b815181101561112857600082828151811061104557634e487b7160e01b600052603260045260246000fd5b602002602001015190506000601260008b600281111561107557634e487b7160e01b600052602160045260246000fd5b600281111561109457634e487b7160e01b600052602160045260246000fd5b815260208082019290925260409081016000908120858252909252902080549091507801000000000000000000000000000000000000000000000000900460ff166110e0575050611116565b846110ea81615b24565b82547fffffffffffffff00ffffffffffffffffffffffffffffffffffffffffffffffff16909255509350505b8061112081615b24565b91505061101a565b50811561119557825160009061113e90846159f0565b600f54909150611158906001600160a01b031633836135e0565b7fac4b7f84df43766362cc5996cfd81888ae4ee76e3e429f0d2f3660404aea18296005548260405161118b9291906158eb565b60405180910390a1505b606080601660008a60028111156111bc57634e487b7160e01b600052602160045260246000fd5b60028111156111db57634e487b7160e01b600052602160045260246000fd5b815260208082019290925260409081016000908120338252835220825161120893919291909101906145d4565b5050600160005550505050505050565b6000806016600085600281111561123f57634e487b7160e01b600052602160045260246000fd5b600281111561125e57634e487b7160e01b600052602160045260246000fd5b81526020019081526020016000206000846001600160a01b03166001600160a01b031681526020019081526020016000208054806020026020016040519081016040528092919081815260200182805480156112d957602002820191906000526020600020905b8154815260200190600101908083116112c5575b505050505090506000805b82518110156113fe57600083828151811061130f57634e487b7160e01b600052603260045260246000fd5b6020026020010151905060006012600089600281111561133f57634e487b7160e01b600052602160045260246000fd5b600281111561135e57634e487b7160e01b600052602160045260246000fd5b81526020808201929092526040908101600090812085825283528190208151606081018352905463ffffffff8116825264010000000081046001600160a01b031693820193909352780100000000000000000000000000000000000000000000000090920460ff1615159082018190529091506113dc5750506113ec565b836113e681615b24565b94505050505b806113f681615b24565b9150506112e4565b509150505b92915050565b600b546001600160a01b031633146114335760405162461bcd60e51b81526004016105c79061589d565b600e80546001600160a01b039384167fffffffffffffffffffffffff000000000000000000000000000000000000000091821617909155600d8054929093169116179055565b600b546001600160a01b031633146114a35760405162461bcd60e51b81526004016105c79061589d565b600f546001600160a01b03838116911614156114d15760405162461bcd60e51b81526004016105c790615786565b6114e56001600160a01b03831633836135e0565b7f74545154aac348a3eac92596bd1971957ca94795f4e954ec5f613b55fab781298282604051611516929190615567565b60405180910390a15050565b6001600160a01b038216600090815260136020526040812060609185600281111561155d57634e487b7160e01b600052602160045260246000fd5b600281111561157c57634e487b7160e01b600052602160045260246000fd5b8152602001908152602001600020600083815260200190815260200160002080548060200260200160405190810160405280929190818152602001828054801561161157602002820191906000526020600020906000905b82829054906101000a900463ffffffff1663ffffffff16815260200190600401906020826003010492830192600103820291508084116115d45790505b505050505090505b9392505050565b61162861461f565b6015600083600281111561164c57634e487b7160e01b600052602160045260246000fd5b600281111561166b57634e487b7160e01b600052602160045260246000fd5b815260200190815260200160002060405180606001604052908160008201548152602001600182015481526020016002820160009054906101000a900460ff1660048111156116ca57634e487b7160e01b600052602160045260246000fd5b60048111156116e957634e487b7160e01b600052602160045260246000fd5b90525092915050565b6001546001600160a01b03163314806117155750600a546001600160a01b031633145b6117315760405162461bcd60e51b81526004016105c79061581d565b60026015600084600281111561175757634e487b7160e01b600052602160045260246000fd5b600281111561177657634e487b7160e01b600052602160045260246000fd5b815260208101919091526040016000206002015460ff1660048111156117ac57634e487b7160e01b600052602160045260246000fd5b146117c95760405162461bcd60e51b81526004016105c79061584d565b600f546117e1906001600160a01b03163330846139da565b806014600084600281111561180657634e487b7160e01b600052602160045260246000fd5b600281111561182557634e487b7160e01b600052602160045260246000fd5b815260200190815260200160002060006005548152602001908152602001600020600301600082825461185891906159c4565b90915550506005546040517fa1c157de391a92665d22914b5834a188e801f4fbc466639ddc0063abff1df3bb906118929085908590615667565b60405180910390a25050565b333b156118bd5760405162461bcd60e51b81526004016105c7906156e6565b3332146118dc5760405162461bcd60e51b81526004016105c790615756565b806016600082600281111561190157634e487b7160e01b600052602160045260246000fd5b600281111561192057634e487b7160e01b600052602160045260246000fd5b81526020808201929092526040908101600090812033825290925290205461195a5760405162461bcd60e51b81526004016105c7906156d6565b6002600054141561197d5760405162461bcd60e51b81526004016105c79061587d565b60026000819055601560008460028111156119a857634e487b7160e01b600052602160045260246000fd5b60028111156119c757634e487b7160e01b600052602160045260246000fd5b815260208101919091526040016000206002015460ff1660048111156119fd57634e487b7160e01b600052602160045260246000fd5b14611a1a5760405162461bcd60e51b81526004016105c79061584d565b600060166000846002811115611a4057634e487b7160e01b600052602160045260246000fd5b6002811115611a5f57634e487b7160e01b600052602160045260246000fd5b815260208082019290925260409081016000908120338252835281902080548251818502810185019093528083529192909190830182828015611ac157602002820191906000526020600020905b815481526020019060010190808311611aad575b505050505090506000815167ffffffffffffffff811115611af257634e487b7160e01b600052604160045260246000fd5b604051908082528060200260200182016040528015611b1b578160200160208202803683370190505b5090506000805b8351811015611eea576000848281518110611b4d57634e487b7160e01b600052603260045260246000fd5b60200260200101519050600060126000896002811115611b7d57634e487b7160e01b600052602160045260246000fd5b6002811115611b9c57634e487b7160e01b600052602160045260246000fd5b815260208082019290925260409081016000908120858252909252902080549091507801000000000000000000000000000000000000000000000000900460ff16611be8575050611ed8565b60196000896002811115611c0c57634e487b7160e01b600052602160045260246000fd5b6002811115611c2b57634e487b7160e01b600052602160045260246000fd5b81526020019081526020016000206000815480929190611c4a90615b24565b909155505033600090815260136020526040812090896002811115611c7f57634e487b7160e01b600052602160045260246000fd5b6002811115611c9e57634e487b7160e01b600052602160045260246000fd5b81526020808201929092526040908101600090812060055482528352818120845481546001810183559183528483206008830401805463ffffffff60079094166004026101000a848102199091169284160291909117905582516060810184528554909116815233938101939093529082018190526012908a6002811115611d3657634e487b7160e01b600052602160045260246000fd5b6002811115611d5557634e487b7160e01b600052602160045260246000fd5b81526020019081526020016000206000601960008c6002811115611d8957634e487b7160e01b600052602160045260246000fd5b6002811115611da857634e487b7160e01b600052602160045260246000fd5b815260208082019290925260409081016000908120548452838301949094529182019092208351815493850151949092015115157801000000000000000000000000000000000000000000000000027fffffffffffffff00ffffffffffffffffffffffffffffffffffffffffffffffff6001600160a01b03909516640100000000027fffffffffffffffff00000000000000000000000000000000000000000000000090941663ffffffff9384161793909317939093169190911790915581548651911690869085908110611e8d57634e487b7160e01b600052603260045260246000fd5b63ffffffff9092166020928302919091019091015283611eac81615b24565b82547fffffffffffffff00ffffffffffffffffffffffffffffffffffffffffffffffff16909255509250505b80611ee281615b24565b915050611b22565b508015611f3c57611efd85826001613a01565b6005547f23378f2b72124c4145c302d168bd5656036b4aefadeecd763ae7b46b02ae34fc863385604051611f33939291906155a1565b60405180910390a25b60608060166000886002811115611f6357634e487b7160e01b600052602160045260246000fd5b6002811115611f8257634e487b7160e01b600052602160045260246000fd5b8152602080820192909252604090810160009081203382528352208251611faf93919291909101906145d4565b505060016000555050505050565b6001546001600160a01b03163314611fe75760405162461bcd60e51b81526004016105c790615776565b6001546040516000916001600160a01b0316907f8be0079c531659141344cd1fd0a4f28419497f9722a3daafe3b4186f6b6457e0908390a3600180547fffffffffffffffffffffffff0000000000000000000000000000000000000000169055565b60108054819061205890615aca565b80601f016020809104026020016040519081016040528092919081815260200182805461208490615aca565b80156120d15780601f106120a6576101008083540402835291602001916120d1565b820191906000526020600020905b8154815290600101906020018083116120b457829003601f168201915b505050600190930154919250506001600160a01b031682565b600e546001600160a01b031633146121145760405162461bcd60e51b81526004016105c790615746565b61211e8282613be9565b5050565b61212a61465e565b6001600160a01b038316600090815260186020526040902080548390811061216257634e487b7160e01b600052603260045260246000fd5b90600052602060002090600502016040518060a001604052908160008201548152602001600182015481526020016002820160009054906101000a900460ff1660028111156121c157634e487b7160e01b600052602160045260246000fd5b60028111156121e057634e487b7160e01b600052602160045260246000fd5b8152602001600382015481526020016004820180546121fe90615aca565b80601f016020809104026020016040519081016040528092919081815260200182805461222a90615aca565b80156122775780601f1061224c57610100808354040283529160200191612277565b820191906000526020600020905b81548152906001019060200180831161225a57829003601f168201915b505050505081525050905092915050565b600b546001600160a01b031633146122b25760405162461bcd60e51b81526004016105c79061589d565b6001600160a01b0381166122d85760405162461bcd60e51b81526004016105c790615716565b81516122eb9060109060208501906146ac565b50601180547fffffffffffffffffffffffff0000000000000000000000000000000000000000166001600160a01b039290921691909117905550565b600b546001600160a01b031633146123515760405162461bcd60e51b81526004016105c79061589d565b8060006015600083600281111561237857634e487b7160e01b600052602160045260246000fd5b600281111561239757634e487b7160e01b600052602160045260246000fd5b8152602081019190915260400160002090506004600282015460ff1660048111156123d257634e487b7160e01b600052602160045260246000fd5b146123ef5760405162461bcd60e51b81526004016105c79061582d565b60006015600085600281111561241557634e487b7160e01b600052602160045260246000fd5b600281111561243457634e487b7160e01b600052602160045260246000fd5b815260200190815260200160002060405180606001604052908160008201548152602001600182015481526020016002820160009054906101000a900460ff16600481111561249357634e487b7160e01b600052602160045260246000fd5b60048111156124b257634e487b7160e01b600052602160045260246000fd5b905250905060006017818660028111156124dc57634e487b7160e01b600052602160045260246000fd5b60028111156124fb57634e487b7160e01b600052602160045260246000fd5b8152602001908152602001600020905060005b81548110156125d457600082828154811061253957634e487b7160e01b600052603260045260246000fd5b600091825260209091200180549091507801000000000000000000000000000000000000000000000000900460ff1661257257506125c2565b80548451600f5461259b926001600160a01b0391821692640100000000909104909116906135e0565b80547fffffffffffffff00ffffffffffffffffffffffffffffffffffffffffffffffff1690555b806125cc81615b24565b91505061250e565b505050505050565b61262b6040518061012001604052806000815260200160008152602001600081526020016000815260200160608152602001606081526020016060815260200160008152602001600081525090565b6014600084600281111561264f57634e487b7160e01b600052602160045260246000fd5b600281111561266e57634e487b7160e01b600052602160045260246000fd5b8152602001908152602001600020600083815260200190815260200160002060405180610120016040529081600082015481526020016001820154815260200160028201548152602001600382015481526020016004820180548060200260200160405190810160405280929190818152602001828054801561271057602002820191906000526020600020905b8154815260200190600101908083116126fc575b505050505081526020016005820180548060200260200160405190810160405280929190818152602001828054801561277257602002820191906000526020600020905b81546001600160a01b03168152600190910190602001808311612754575b50505050508152602001600682018054806020026020016040519081016040528092919081815260200182805480156127ca57602002820191906000526020600020905b8154815260200190600101908083116127b6575b5050505050815260200160078201548152602001600882015481525050905092915050565b600b546001600160a01b031633146128195760405162461bcd60e51b81526004016105c79061589d565b60055460009081527f4f26c3876aa9f4b92579780beea1161a61f87ebf1ec6ee865b299e447ecba99c602052604081206001810154600a1180612860575060058160020154105b61287c5760405162461bcd60e51b81526004016105c790615706565b60055460009081527fb6c61a840592cc84133e4b25bd509abf4659307c57b160799b38490a5aa48f2c60205260409020600181810154909190600a11806128c7575060058160020154105b6128e35760405162461bcd60e51b81526004016105c790615706565b60055460009081527fa1930aa930426c54c34daad2b9ada7c5d0ef0c96078a3c5bb79f6fa6602c4a7a60205260409020600181015460029190600a118061292e575060058160020154105b61294a5760405162461bcd60e51b81526004016105c790615706565b60408051606081018252600080825260016020830152600292820192909252905b60038110156129e4576129a382826003811061299757634e487b7160e01b600052603260045260246000fd5b60200201516001613be9565b6129d28282600381106129c657634e487b7160e01b600052603260045260246000fd5b60200201516004613668565b806129dc81615b24565b91505061296b565b5060006007819055600381905560049081556005546040517f38960c0800e981febc869f33d307d21683c7a1f85845bfe665071f160292c08092610d0b9291429190615921565b333b15612a4a5760405162461bcd60e51b81526004016105c7906156e6565b333214612a695760405162461bcd60e51b81526004016105c790615756565b60026000541415612a8c5760405162461bcd60e51b81526004016105c79061587d565b600260005580612aae5760405162461bcd60e51b81526004016105c790615736565b600954811115612ad05760405162461bcd60e51b81526004016105c79061588d565b600260156000856002811115612af657634e487b7160e01b600052602160045260246000fd5b6002811115612b1557634e487b7160e01b600052602160045260246000fd5b815260208101919091526040016000206002015460ff166004811115612b4b57634e487b7160e01b600052602160045260246000fd5b14612b685760405162461bcd60e51b81526004016105c79061584d565b600060156000856002811115612b8e57634e487b7160e01b600052602160045260246000fd5b6002811115612bad57634e487b7160e01b600052602160045260246000fd5b81526020019081526020016000209050600060146000866002811115612be357634e487b7160e01b600052602160045260246000fd5b6002811115612c0257634e487b7160e01b600052602160045260246000fd5b815260208082019290925260409081016000908120600554825290925281208354909250612c319085906159f0565b600f54909150612c4c906001600160a01b03163330846139da565b33600090815260136020526040812090876002811115612c7c57634e487b7160e01b600052602160045260246000fd5b6002811115612c9b57634e487b7160e01b600052602160045260246000fd5b8152602080820192909252604090810160009081206005548252909252902054612cd757600282018054906000612cd183615b24565b91905055505b80836001016000828254612ceb91906159c4565b90915550612cfd905086856000613a01565b612d3a8686868080602002602001604051908101604052809392919081815260200183836020028082843760009201919091525061403992505050565b612d4386613890565b6005547fa7bb92e7914605223bcedd08fc40c8d4db3f6f774788077acbaf16c63342ef2d878787876001015487600401604051612d8495949392919061560a565b60405180910390a25050600160005550505050565b600b546001600160a01b03163314612dc35760405162461bcd60e51b81526004016105c79061589d565b600080805260156020527fa31547ce6245cdb9ecea19cf8c7eb9f5974025bb4075011409251ae855b30aef547fa31547ce6245cdb9ecea19cf8c7eb9f5974025bb4075011409251ae855b30aed9060049060ff1681811115612e3557634e487b7160e01b600052602160045260246000fd5b14612e525760405162461bcd60e51b81526004016105c79061582d565b6001600081905260156020527f27739e4bb5e6f8b5e4b57a047dca8767cc9b982a011081e086cbb0dfa9de818f547f27739e4bb5e6f8b5e4b57a047dca8767cc9b982a011081e086cbb0dfa9de818d9060049060ff1681811115612ec657634e487b7160e01b600052602160045260246000fd5b14612ee35760405162461bcd60e51b81526004016105c79061582d565b6002600081905260156020527f07d4ff730d9753101d832555708a37d38c2c45fce8cacaefc99f06074e93fe0d547f07d4ff730d9753101d832555708a37d38c2c45fce8cacaefc99f06074e93fe0b9060049060ff1681811115612f5757634e487b7160e01b600052602160045260246000fd5b14612f745760405162461bcd60e51b81526004016105c79061582d565b600e5474010000000000000000000000000000000000000000900460ff1615612faf5760405162461bcd60e51b81526004016105c790615766565b600f546040517f70a082310000000000000000000000000000000000000000000000000000000081526001600160a01b03909116906370a0823190612ff8903090600401615509565b60206040518083038186803b15801561301057600080fd5b505afa158015613024573d6000803e3d6000fd5b505050506040513d601f19601f820116820180604052508101906130489190614be5565b156130655760405162461bcd60e51b81526004016105c790615796565b5050600f80546001600160a01b039096167fffffffffffffffffffffffff0000000000000000000000000000000000000000909616959095179094555050600e80547fffffffffffffffffffffff00ffffffffffffffffffffffffffffffffffffffff16740100000000000000000000000000000000000000001790555050565b6001546001600160a01b031633146131105760405162461bcd60e51b81526004016105c790615776565b6001600160a01b0383166131365760405162461bcd60e51b81526004016105c790615716565b6001600160a01b03821661315c5760405162461bcd60e51b81526004016105c790615716565b6001600160a01b0381166131825760405162461bcd60e51b81526004016105c790615716565b600b80546001600160a01b038086167fffffffffffffffffffffffff000000000000000000000000000000000000000092831617909255600c8054858416908316179055600a8054928416929091169190911790556040517f3e945b7660001d46cfd5e729545f7f0b6c65bdee54066a91c7acad703f1b731e9061320b90859085908590615517565b60405180910390a1505050565b600d546001600160a01b031633146132425760405162461bcd60e51b81526004016105c79061586d565b60006014600084600281111561326857634e487b7160e01b600052602160045260246000fd5b600281111561328757634e487b7160e01b600052602160045260246000fd5b815260200190815260200160002060006005548152602001908152602001600020905060005b6008548110156134ce5760008260010154601960008760028111156132e257634e487b7160e01b600052602160045260246000fd5b600281111561330157634e487b7160e01b600052602160045260246000fd5b81526020019081526020016000205461331a9190615a2d565b9050600084838151811061333e57634e487b7160e01b600052603260045260246000fd5b60200260200101518261335191906159c4565b90506012600087600281111561337757634e487b7160e01b600052602160045260246000fd5b600281111561339657634e487b7160e01b600052602160045260246000fd5b81526020808201929092526040908101600090812084825290925290205460068501805463ffffffff90921691859081106133e157634e487b7160e01b600052603260045260246000fd5b90600052602060002001819055506012600087600281111561341357634e487b7160e01b600052602160045260246000fd5b600281111561343257634e487b7160e01b600052602160045260246000fd5b8152602001908152602001600020600082815260200190815260200160002060000160049054906101000a90046001600160a01b031684600501848154811061348b57634e487b7160e01b600052603260045260246000fd5b9060005260206000200160006101000a8154816001600160a01b0302191690836001600160a01b03160217905550505080806134c690615b24565b9150506132ad565b506134da836003613668565b6005547f79aa71bc7ac44ef46960b6e440cf08b63d9c1db4d3af7374da8c13371d369b1084600360405161350f92919061564c565b60405180910390a2505050565b6001546001600160a01b031633146135465760405162461bcd60e51b81526004016105c790615776565b6001600160a01b03811661356c5760405162461bcd60e51b81526004016105c7906156c6565b6001546040516001600160a01b038084169216907f8be0079c531659141344cd1fd0a4f28419497f9722a3daafe3b4186f6b6457e090600090a3600180547fffffffffffffffffffffffff0000000000000000000000000000000000000000166001600160a01b0392909216919091179055565b6136638363a9059cbb60e01b84846040516024016135ff929190615567565b60408051601f198184030181529190526020810180517bffffffffffffffffffffffffffffffffffffffffffffffffffffffff167fffffffff000000000000000000000000000000000000000000000000000000009093169290921790915261439e565b505050565b806015600084600281111561368d57634e487b7160e01b600052602160045260246000fd5b60028111156136ac57634e487b7160e01b600052602160045260246000fd5b8152602081019190915260400160002060020180547fffffffffffffffffffffffffffffffffffffffffffffffffffffffffffffff0016600183600481111561370557634e487b7160e01b600052602160045260246000fd5b02179055505050565b604080516002808252606082018352600092602083019080368337019050509050738f3cf7ad23cd3cadbd9735aff958023239c6a0638160008151811061376557634e487b7160e01b600052603260045260246000fd5b6001600160a01b039283166020918202929092010152600f548251911690829060019081106137a457634e487b7160e01b600052603260045260246000fd5b6001600160a01b0392831660209182029290920101526011546040517fd06ca61f000000000000000000000000000000000000000000000000000000008152600092919091169063d06ca61f9061380990670de0b6b3a7640000908690600401615675565b60006040518083038186803b15801561382157600080fd5b505afa158015613835573d6000803e3d6000fd5b505050506040513d6000823e601f3d908101601f1916820160405261385d91908101906149ec565b905061211e8160018151811061388357634e487b7160e01b600052603260045260246000fd5b602002602001015161442d565b6000601460008360028111156138b657634e487b7160e01b600052602160045260246000fd5b60028111156138d557634e487b7160e01b600052602160045260246000fd5b815260200190815260200160002060006005548152602001908152602001600020905060006015600084600281111561391e57634e487b7160e01b600052602160045260246000fd5b600281111561393d57634e487b7160e01b600052602160045260246000fd5b81526020019081526020016000206001015490506000606482601961396291906159f0565b61396c91906159dc565b90506000606461397d84600f6159f0565b61398791906159dc565b90506000606461399885600a6159f0565b6139a291906159dc565b9050604051806060016040528084815260200183815260200182815250856004019060036139d19291906145d4565b50505050505050565b6139fb846323b872dd60e01b8585856040516024016135ff9392919061553f565b50505050565b33600090815260186020526040902054613a1961465e565b81815242602082015260408101856002811115613a4657634e487b7160e01b600052602160045260246000fd5b90816002811115613a6757634e487b7160e01b600052602160045260246000fd5b905250606081018490528215613ab55760408051808201909152600881527f526f6c6c6f76657200000000000000000000000000000000000000000000000060208201526080820152613aef565b60408051808201909152600881527f5075726368617365000000000000000000000000000000000000000000000000602082015260808201525b33600090815260186020908152604080832080546001818101835591855293839020855160059095020193845591840151838301558301516002808401805486959491927fffffffffffffffffffffffffffffffffffffffffffffffffffffffffffffff0090911691908490811115613b7857634e487b7160e01b600052602160045260246000fd5b02179055506060820151600382015560808201518051613ba29160048401916020909101906146ac565b5050507f60850aec46dea3854368ebe9087866f660da4b915e21945cfbc2e673935ab4d282428787604051613bda94939291906158f9565b60405180910390a15050505050565b600060146000846002811115613c0f57634e487b7160e01b600052602160045260246000fd5b6002811115613c2e57634e487b7160e01b600052602160045260246000fd5b815260200190815260200160002060006005548152602001908152602001600020905081613c7757613c61836001613668565b60078054906000613c7183615b24565b91905055505b6000816001015460196000866002811115613ca257634e487b7160e01b600052602160045260246000fd5b6002811115613cc157634e487b7160e01b600052602160045260246000fd5b815260200190815260200160002054613cda9190615a2d565b905060015b82600101548111614032576000613cf682846159c4565b9050600060126000886002811115613d1e57634e487b7160e01b600052602160045260246000fd5b6002811115613d3d57634e487b7160e01b600052602160045260246000fd5b81526020808201929092526040908101600090812085825290925281205464010000000090046001600160a01b03169150600190601290896002811115613d9457634e487b7160e01b600052602160045260246000fd5b6002811115613db357634e487b7160e01b600052602160045260246000fd5b815260208082019290925260409081016000908120868252909252812080549215157801000000000000000000000000000000000000000000000000027fffffffffffffff00ffffffffffffffffffffffffffffffffffffffffffffffff90931692909217909155601690886002811115613e3e57634e487b7160e01b600052602160045260246000fd5b6002811115613e5d57634e487b7160e01b600052602160045260246000fd5b8152602080820192909252604090810160009081206001600160a01b038516825283529081208054600181018255908252918120909101839055601790886002811115613eba57634e487b7160e01b600052602160045260246000fd5b6002811115613ed957634e487b7160e01b600052602160045260246000fd5b815260200190815260200160002060126000896002811115613f0b57634e487b7160e01b600052602160045260246000fd5b6002811115613f2a57634e487b7160e01b600052602160045260246000fd5b8152602080820192909252604090810160009081209581529482528420825460018101845592855293208354910180547fffffffffffffffffffffffffffffffffffffffffffffffffffffffff00000000811663ffffffff909316928317825584546001600160a01b036401000000009182900416027fffffffffffffffff00000000000000000000000000000000000000000000000090911690921791909117808255925460ff780100000000000000000000000000000000000000000000000091829004161515027fffffffffffffff00ffffffffffffffffffffffffffffffffffffffffffffffff90931692909217909155508061402a81615b24565b915050613cdf565b5050505050565b60006014600084600281111561405f57634e487b7160e01b600052602160045260246000fd5b600281111561407e57634e487b7160e01b600052602160045260246000fd5b815260200190815260200160002060006005548152602001908152602001600020905060005b825181101561437e57601960008560028111156140d157634e487b7160e01b600052602160045260246000fd5b60028111156140f057634e487b7160e01b600052602160045260246000fd5b8152602001908152602001600020600081548092919061410f90615b24565b9190505550600083828151811061413657634e487b7160e01b600052603260045260246000fd5b6020026020010151905060136000336001600160a01b03166001600160a01b03168152602001908152602001600020600086600281111561418757634e487b7160e01b600052602160045260246000fd5b60028111156141a657634e487b7160e01b600052602160045260246000fd5b8152602080820192909252604090810160009081206005548252835281812080546001810182559082528382206008820401805463ffffffff80881660046007909516949094026101000a8481029102199091161790558251606081018452908152339381019390935290820181905260129087600281111561423957634e487b7160e01b600052602160045260246000fd5b600281111561425857634e487b7160e01b600052602160045260246000fd5b815260200190815260200160002060006019600089600281111561428c57634e487b7160e01b600052602160045260246000fd5b60028111156142ab57634e487b7160e01b600052602160045260246000fd5b815260208082019290925260409081016000908120548452838301949094529182019092208351815493850151949092015115157801000000000000000000000000000000000000000000000000027fffffffffffffff00ffffffffffffffffffffffffffffffffffffffffffffffff6001600160a01b03909516640100000000027fffffffffffffffff00000000000000000000000000000000000000000000000090941663ffffffff909316929092179290921792909216919091179055508061437681615b24565b9150506140a4565b50815181600101600082825461439491906159c4565b9091555050505050565b60006143f3826040518060400160405280602081526020017f5361666545524332303a206c6f772d6c6576656c2063616c6c206661696c6564815250856001600160a01b03166144cb9092919063ffffffff16565b80519091501561366357808060200190518101906144119190614a21565b6136635760405162461bcd60e51b81526004016105c79061585d565b6000805260156020527fa31547ce6245cdb9ecea19cf8c7eb9f5974025bb4075011409251ae855b30aed81905561446581600a6159f0565b600160005260156020527f27739e4bb5e6f8b5e4b57a047dca8767cc9b982a011081e086cbb0dfa9de818d5561449c8160646159f0565b600260005260156020527f07d4ff730d9753101d832555708a37d38c2c45fce8cacaefc99f06074e93fe0b5550565b60606144da84846000856144e2565b949350505050565b6060824710156145045760405162461bcd60e51b81526004016105c7906156f6565b843b6145225760405162461bcd60e51b81526004016105c79061583d565b600080866001600160a01b0316858760405161453e91906154ff565b60006040518083038185875af1925050503d806000811461457b576040519150601f19603f3d011682016040523d82523d6000602084013e614580565b606091505b509150915061459082828661459b565b979650505050505050565b606083156145aa575081611619565b8251156145ba5782518084602001fd5b8160405162461bcd60e51b81526004016105c79190615695565b82805482825590600052602060002090810192821561460f579160200282015b8281111561460f5782518255916020019190600101906145f4565b5061461b92915061471f565b5090565b604051806060016040528060008152602001600081526020016000600481111561465957634e487b7160e01b600052602160045260246000fd5b905290565b6040518060a0016040528060008152602001600081526020016000600281111561469857634e487b7160e01b600052602160045260246000fd5b815260200160008152602001606081525090565b8280546146b890615aca565b90600052602060002090601f0160209004810192826146da576000855561460f565b82601f106146f357805160ff191683800117855561460f565b8280016001018555821561460f579182018281111561460f5782518255916020019190600101906145f4565b5b8082111561461b5760008155600101614720565b600061474761474284615965565b615949565b9050808382526020820190508285602086028501111561476657600080fd5b60005b858110156147905761477b87836148fd565b83526020928301929190910190600101614769565b5050509392505050565b60006147a861474284615965565b905080838252602082019050828560208602850111156147c757600080fd5b60005b85811015614790576147dc8783614908565b835260209283019291909101906001016147ca565b60006147ff61474284615989565b90508281526020810184848401111561481757600080fd5b614822848285615a92565b509392505050565b803561140381615c06565b600082601f830112614845578081fd5b81356144da848260208601614734565b600082601f830112614865578081fd5b81516144da84826020860161479a565b60008083601f840112614886578182fd5b50813567ffffffffffffffff81111561489d578182fd5b6020830191508360208202830111156148b557600080fd5b9250929050565b803561140381615c1a565b805161140381615c1a565b803561140381615c22565b600082601f8301126148ed578081fd5b81356144da8482602086016147f1565b803561140381615c2f565b805161140381615c2f565b803561140381615c35565b60006020828403121561492f578081fd5b6116198382840161482a565b6000806040838503121561494d578081fd5b6149598482850161482a565b915060206149698582860161482a565b9150509250929050565b600080600060608486031215614987578081fd5b6149938582860161482a565b925060206149a38682870161482a565b92505060406149b48682870161482a565b9150509250925092565b600080604083850312156149d0578182fd5b6149dc8483850161482a565b91506020614969858286016148fd565b6000602082840312156149fd578081fd5b8082015167ffffffffffffffff811115614a15578182fd5b6144da84828501614855565b600060208284031215614a32578081fd5b611619838284016148c7565b600060208284031215614a4f578081fd5b611619838284016148d2565b60008060408385031215614a6d578182fd5b614959848385016148d2565b600080600060608486031215614a8d578283fd5b614a99858486016148d2565b92506020614aa98682870161482a565b92505060406149b4868287016148fd565b60008060408385031215614acc578182fd5b614ad8848385016148d2565b9150602083013567ffffffffffffffff811115614af3578182fd5b61496985828601614835565b600080600060408486031215614b13578081fd5b614b1f858286016148d2565b9250602084013567ffffffffffffffff811115614b3a578182fd5b614b4686828701614875565b92509250509250925092565b60008060408385031215614b64578182fd5b614b70848385016148d2565b91506020614969858286016148bc565b60008060408385031215614b92578182fd5b6149dc848385016148d2565b60008060408385031215614bb0578182fd5b8183013567ffffffffffffffff811115614bc8578283fd5b614bd4858286016148dd565b92505060206149698582860161482a565b600060208284031215614bf6578081fd5b61161983828401614908565b614c0c8282614c27565b5060200190565b614c0c82826154ed565b614c0c82826154f3565b614c3081615a44565b82525050565b6000614c40825190565b8084526020938401938301825b82811015614c72578151614c618782614c02565b965050602082019150600101614c4d565b5093949350505050565b6000614c86825190565b8084526020938401938301825b82811015614c72578151614ca78782614c02565b965050602082019150600101614c93565b6000614cc2825490565b8084526000838152602090819020940193825b82811015614c7257614ce682615bcb565b614cf08782614c02565b96505060019182019101614cd5565b6000614d09825190565b8084526020938401938301825b82811015614c72578151614d2a8782614c13565b965050602082019150600101614d16565b6000614d45825490565b8084526000838152602090819020940193825b82811015614c7257614d6982615bd7565b614d738782614c13565b96505060019182019101614d58565b81835260208301925060008180825b85811015614dbe57614da382846159b4565b614dad8882614c1d565b975050602082019150600101614d91565b509495945050505050565b6000614dd3825190565b8084526020938401938301825b82811015614c72578151614df48782614c1d565b965050602082019150600101614de0565b6000614e0f825190565b614e1d818560208601615a9e565b9290920192915050565b614c3081615a69565b614c3081615a74565b614c3081615a7f565b614c3081615a8a565b6000614e55825190565b808452602084019350614e6c818560208601615a9e565b601f01601f19169290920192915050565b60268152602081017f4f776e61626c653a206e6577206f776e657220697320746865207a65726f206181527f6464726573730000000000000000000000000000000000000000000000000000602082015290505b60400190565b60148152602081017f596f752068617665206e6f20726f6c6c6f766572000000000000000000000000815290505b60200190565b60148152602081017f436f6e7472616374206e6f7420616c6c6f77656400000000000000000000000081529050614f05565b60268152602081017f416464726573733a20696e73756666696369656e742062616c616e636520666f81527f722063616c6c000000000000000000000000000000000000000000000000000060208201529050614ed1565b60278152602081017f536f7272792063616e206e6f74206465616374697661746520612076616c696481527f20726166666c650000000000000000000000000000000000000000000000000060208201529050614ed1565b60168152602081017f43616e6e6f74206265207a65726f20616464726573730000000000000000000081529050614f05565b60198152602081017f5265626f6f7420636865636b206e6f7420636f6d706c6574650000000000000081529050614f05565b60138152602081017f4e6f207469636b6574207370656369666965640000000000000000000000000081529050614f05565b60128152602081017f4e6f74204b65657065722041646472657373000000000000000000000000000081529050614f05565b601a8152602081017f50726f787920636f6e7472616374206e6f7420616c6c6f77656400000000000081529050614f05565b601e8152602081017f546f6b656e20686173206265656e206368616e67656420616c7265616479000081529050614f05565b60208082527f4f776e61626c653a2063616c6c6572206973206e6f7420746865206f776e65729101908152614f05565b60148152602081017f43616e6e6f74206265205553444320746f6b656e00000000000000000000000081529050614f05565b60158152602081017f4e6f74206f776e6572206f7220696e6a6563746f72000000000000000000000081529050614f05565b602f8152602081017f536f7272792063616e20616374697661746520617320726166666c652069732081527f6e6f74206465616374697661746564000000000000000000000000000000000060208201529050614ed1565b601d8152602081017f416464726573733a2063616c6c20746f206e6f6e2d636f6e747261637400000081529050614f05565b600f8152602081017f526166666c65206e6f74206f70656e000000000000000000000000000000000081529050614f05565b602a8152602081017f5361666545524332303a204552433230206f7065726174696f6e20646964206e81527f6f7420737563636565640000000000000000000000000000000000000000000060208201529050614ed1565b601b8152602081017f4e6f742072616e646f6d47656e657261746f722041646472657373000000000081529050614f05565b601f8152602081017f5265656e7472616e637947756172643a207265656e7472616e742063616c6c0081529050614f05565b60108152602081017f546f6f206d616e79207469636b6574730000000000000000000000000000000081529050614f05565b600c8152602081017f4e6f74206f70657261746f72000000000000000000000000000000000000000081529050614f05565b805161539583826154ed565b5060208101516153a860208401826154ed565b5060408101516136636040840182614e39565b80516000906101208401906153d085826154ed565b5060208301516153e360208601826154ed565b5060408301516153f660408601826154ed565b50606083015161540960608601826154ed565b50608083015184820360808601526154218282614cff565b91505060a083015184820360a086015261543b8282614c36565b91505060c083015184820360c08601526154558282614cff565b91505060e083015161546a60e08601826154ed565b506101008301516148226101008601826154ed565b805160009060a084019061549385826154ed565b5060208301516154a660208601826154ed565b5060408301516154b96040860182614e30565b5060608301516154cc60608601826154ed565b50608083015184820360808601526154e48282614e4b565b95945050505050565b80614c30565b63ffffffff8116614c30565b6114038183614e05565b602081016114038284614c27565b606081016155258286614c27565b6155326020830185614c27565b6144da6040830184614c27565b6060810161554d8286614c27565b61555a6020830185614c27565b6144da60408301846154ed565b604081016155758285614c27565b61161960208301846154ed565b602080825281016116198184614dc9565b602081016114038284614e27565b606081016155af8286614e30565b6155bc6020830185614c27565b81810360408301526154e48184614dc9565b608081016155dc8287614e30565b81810360208301526155ee8186614cb8565b90506155fd60408301856154ed565b6154e460608301846154ed565b608081016156188288614e30565b818103602083015261562b818688614d82565b905061563a60408301856154ed565b81810360608301526145908184614d3b565b6040810161565a8285614e30565b6116196020830184614e39565b604081016155758285614e30565b604081016156838285614e42565b81810360208301526144da8184614c7c565b602080825281016116198184614e4b565b604080825281016156b78185614e4b565b90506116196020830184614e27565b6020808252810161140381614e7d565b6020808252810161140381614ed7565b6020808252810161140381614f0b565b6020808252810161140381614f3d565b6020808252810161140381614f95565b6020808252810161140381614fed565b602080825281016114038161501f565b6020808252810161140381615051565b6020808252810161140381615083565b60208082528101611403816150b5565b60208082528101611403816150e7565b6020808252810161140381615119565b6020808252810161140381615149565b6020808252810161140381604181527f546f6b656e2063616e6e6f74206265206368616e6765642c2072656d6f76652060208201527f616c6c2070726576696f75732062616c616e6365206f66206f6c6420746f6b6560408201527f6e00000000000000000000000000000000000000000000000000000000000000606082015260800190565b602080825281016114038161517b565b60208082528101611403816151ad565b6020808252810161140381615205565b6020808252810161140381615237565b6020808252810161140381615269565b60208082528101611403816152c1565b60208082528101611403816152f3565b6020808252810161140381615325565b6020808252810161140381615357565b606081016114038284615389565b6020808252810161161981846153bb565b60208082528101611619818461547f565b6020810161140382846154ed565b6040810161557582856154ed565b6080810161590782876154ed565b61591460208301866154ed565b6155fd6040830185614e30565b6060810161592f82866154ed565b61593c60208301856154ed565b6144da6040830184614e39565b600061595460405190565b90506159608282615af7565b919050565b600067ffffffffffffffff82111561597f5761597f615bb5565b5060209081020190565b600067ffffffffffffffff8211156159a3576159a3615bb5565b601f19601f83011660200192915050565b5060006114036020830183614913565b600082198211156159d7576159d7615b5d565b500190565b6000826159eb576159eb615b73565b500490565b6000817fffffffffffffffffffffffffffffffffffffffffffffffffffffffffffffffff0483118215151615615a2857615a28615b5d565b500290565b600082821015615a3f57615a3f615b5d565b500390565b60006001600160a01b038216611403565b8061596081615be3565b8061596081615bf6565b600061140382615a44565b600061140382615a55565b600061140382615a5f565b600081611403565b82818337506000910152565b60005b83811015615ab9578181015183820152602001615aa1565b838111156139fb5750506000910152565b600281046001821680615ade57607f821691505b60208210811415615af157615af1615b9f565b50919050565b601f19601f830116810181811067ffffffffffffffff82111715615b1d57615b1d615bb5565b6040525050565b60007fffffffffffffffffffffffffffffffffffffffffffffffffffffffffffffffff821415615b5657615b56615b5d565b5060010190565b634e487b7160e01b600052601160045260246000fd5b634e487b7160e01b600052601260045260246000fd5b634e487b7160e01b600052602160045260246000fd5b634e487b7160e01b600052602260045260246000fd5b634e487b7160e01b600052604160045260246000fd5b60006114038254615a44565b60006114038254615a8a565b60038110615bf357615bf3615b89565b50565b60058110615bf357615bf3615b89565b615c0f81615a44565b8114615bf357600080fd5b801515615c0f565b60038110615bf357600080fd5b80615c0f565b63ffffffff8116615c0f56fea264697066735822122069ccfe2fffaef45237d54ac67a7acb5a043ebdf44505a2344870692e148eae8c64736f6c63430008040033",
  "linkReferences": {},
  "deployedLinkReferences": {}
}