{
  "_format": "hh-sol-artifact-1",
  "contractName": "PolyLottoPriceUpdater",
  "sourceName": "contracts/priceUpdater.sol",
  "abi": [
    {
      "inputs": [
        {
          "internalType": "address",
          "name": "_PolyLottoToken",
          "type": "address"
        },
        {
          "internalType": "address",
          "name": "_stableTokenAddress",
          "type": "address"
        },
        {
          "internalType": "string",
          "name": "_stableTokenName",
          "type": "string"
        }
      ],
      "stateMutability": "nonpayable",
      "type": "constructor"
    },
    {
      "anonymous": false,
      "inputs": [
        {
          "indexed": true,
          "internalType": "address",
          "name": "previousOwner",
          "type": "address"
        },
        {
          "indexed": true,
          "internalType": "address",
          "name": "newOwner",
          "type": "address"
        }
      ],
      "name": "OwnershipTransferred",
      "type": "event"
    },
    {
      "inputs": [],
      "name": "DexRouter",
      "outputs": [
        {
          "internalType": "string",
          "name": "Dex",
          "type": "string"
        },
        {
          "internalType": "contract IUniswapV2Router02",
          "name": "routerAddress",
          "type": "address"
        }
      ],
      "stateMutability": "view",
      "type": "function"
    },
    {
      "inputs": [],
      "name": "PolyLottoToken",
      "outputs": [
        {
          "internalType": "address",
          "name": "",
          "type": "address"
        }
      ],
      "stateMutability": "view",
      "type": "function"
    },
    {
      "inputs": [],
      "name": "_stableToken",
      "outputs": [
        {
          "internalType": "string",
          "name": "TokenName",
          "type": "string"
        },
        {
          "internalType": "address",
          "name": "TokenAddress",
          "type": "address"
        }
      ],
      "stateMutability": "view",
      "type": "function"
    },
    {
      "inputs": [],
      "name": "operatorAddress",
      "outputs": [
        {
          "internalType": "address",
          "name": "",
          "type": "address"
        }
      ],
      "stateMutability": "view",
      "type": "function"
    },
    {
      "inputs": [],
      "name": "owner",
      "outputs": [
        {
          "internalType": "address",
          "name": "",
          "type": "address"
        }
      ],
      "stateMutability": "view",
      "type": "function"
    },
    {
      "inputs": [],
      "name": "polyLottoRaffle",
      "outputs": [
        {
          "internalType": "address",
          "name": "",
          "type": "address"
        }
      ],
      "stateMutability": "view",
      "type": "function"
    },
    {
      "inputs": [],
      "name": "renounceOwnership",
      "outputs": [],
      "stateMutability": "nonpayable",
      "type": "function"
    },
    {
      "inputs": [
        {
          "internalType": "address",
          "name": "_operator",
          "type": "address"
        }
      ],
      "name": "setOperator",
      "outputs": [],
      "stateMutability": "nonpayable",
      "type": "function"
    },
    {
      "inputs": [
        {
          "internalType": "address",
          "name": "_polylottoAddress",
          "type": "address"
        }
      ],
      "name": "setPolyLottoAddress",
      "outputs": [],
      "stateMutability": "nonpayable",
      "type": "function"
    },
    {
      "inputs": [
        {
          "internalType": "string",
          "name": "_dexName",
          "type": "string"
        },
        {
          "internalType": "address",
          "name": "_routerAddress",
          "type": "address"
        }
      ],
      "name": "setRouter",
      "outputs": [],
      "stateMutability": "nonpayable",
      "type": "function"
    },
    {
      "inputs": [
        {
          "internalType": "address",
          "name": "newOwner",
          "type": "address"
        }
      ],
      "name": "transferOwnership",
      "outputs": [],
      "stateMutability": "nonpayable",
      "type": "function"
    },
    {
      "inputs": [
        {
          "internalType": "address",
          "name": "_newTokenAddress",
          "type": "address"
        }
      ],
      "name": "updatePolyLottoToken",
      "outputs": [],
      "stateMutability": "nonpayable",
      "type": "function"
    },
    {
      "inputs": [],
      "name": "updatePrice",
      "outputs": [],
      "stateMutability": "nonpayable",
      "type": "function"
    },
    {
      "inputs": [
        {
          "internalType": "address",
          "name": "_newTokenAddress",
          "type": "address"
        },
        {
          "internalType": "string",
          "name": "_newTokenName",
          "type": "string"
        }
      ],
      "name": "updateStableToken",
      "outputs": [],
      "stateMutability": "nonpayable",
      "type": "function"
    }
  ],
  "bytecode": "0x60806040523480156200001157600080fd5b50604051620012c5380380620012c58339810160408190526200003491620002eb565b600080546001600160a01b031916339081178255604051909182917f8be0079c531659141344cd1fd0a4f28419497f9722a3daafe3b4186f6b6457e0908290a350600380546001600160a01b0319166001600160a01b0385161790558051620000a5906004906020840190620000ce565b5050600580546001600160a01b0319166001600160a01b039290921691909117905550620003a8565b828054620000dc9062000377565b90600052602060002090601f0160209004810192826200010057600085556200014b565b82601f106200011b57805160ff19168380011785556200014b565b828001600101855582156200014b579182015b828111156200014b5782518255916020019190600101906200012e565b50620001599291506200015d565b5090565b5b808211156200015957600081556001016200015e565b60006001600160a01b0382165b92915050565b620001928162000174565b81146200019e57600080fd5b50565b8051620001818162000187565b634e487b7160e01b600052604160045260246000fd5b601f19601f83011681016001600160401b0381118282101715620001ec57620001ec620001ae565b6040525050565b6000620001ff60405190565b90506200020d8282620001c4565b919050565b60006001600160401b038211156200022e576200022e620001ae565b601f19601f83011660200192915050565b60005b838110156200025c57818101518382015260200162000242565b838111156200026c576000848401525b50505050565b600062000289620002838462000212565b620001f3565b905082815260208101848484011115620002a657620002a6600080fd5b620002b38482856200023f565b509392505050565b600082601f830112620002d157620002d1600080fd5b8151620002e384826020860162000272565b949350505050565b600080600060608486031215620003055762000305600080fd5b6000620003138686620001a1565b93505060206200032686828701620001a1565b604086015190935090506001600160401b03811115620003495762000349600080fd5b6200035786828701620002bb565b9150509250925092565b634e487b7160e01b600052602260045260246000fd5b6002810460018216806200038c57607f821691505b60208210811415620003a257620003a262000361565b50919050565b610f0d80620003b86000396000f3fe608060405234801561001057600080fd5b50600436106100ea5760003560e01c8063736ce0d41161008c578063b3ab15fb11610066578063b3ab15fb146101b0578063b865ae37146101c3578063f2fde38b146101d9578063fb3de098146101ec57600080fd5b8063736ce0d4146101765780638da5cb5b1461018c578063929a6fcb1461019d57600080fd5b80633f1628d0116100c85780633f1628d0146101405780633ffa1b8014610153578063673a7e2814610166578063715018a61461016e57600080fd5b8063127effb2146100ef5780632d36930c1461011857806337ee35d41461012b575b600080fd5b600654610102906001600160a01b031681565b60405161010f91906108e5565b60405180910390f35b600354610102906001600160a01b031681565b61013e610139366004610a18565b6101ff565b005b61013e61014e366004610a6f565b61028f565b600754610102906001600160a01b031681565b61013e610301565b61013e6104f0565b61017e610564565b60405161010f929190610b34565b6000546001600160a01b0316610102565b61013e6101ab366004610b5b565b610605565b61013e6101be366004610a6f565b61068c565b6101cb6106fe565b60405161010f929190610ba9565b61013e6101e7366004610a6f565b61070d565b61013e6101fa366004610a6f565b6107b8565b6006546001600160a01b031633146102325760405162461bcd60e51b815260040161022990610bfd565b60405180910390fd5b6001600160a01b0381166102585760405162461bcd60e51b815260040161022990610c3f565b815161026b90600190602085019061082a565b50600280546001600160a01b0319166001600160a01b039290921691909117905550565b6006546001600160a01b031633146102b95760405162461bcd60e51b815260040161022990610bfd565b6001600160a01b0381166102df5760405162461bcd60e51b815260040161022990610c3f565b600780546001600160a01b0319166001600160a01b0392909216919091179055565b6007546001600160a01b031633148061032457506006546001600160a01b031633145b6103405760405162461bcd60e51b815260040161022990610bfd565b604080516002808252606082018352600092602083019080368337505060055482519293506001600160a01b03169183915060009061038157610381610c4f565b6001600160a01b0392831660209182029290920101526003548251911690829060019081106103b2576103b2610c4f565b6001600160a01b0392831660209182029290920101526002546040517fd06ca61f000000000000000000000000000000000000000000000000000000008152600092919091169063d06ca61f9061041790670de0b6b3a7640000908690600401610cd2565b60006040518083038186803b15801561042f57600080fd5b505afa158015610443573d6000803e3d6000fd5b505050506040513d6000823e601f3d908101601f1916820160405261046b9190810190610da4565b60075481519192506001600160a01b0316906315981650908390600190811061049657610496610c4f565b60200260200101516040518263ffffffff1660e01b81526004016104ba9190610de5565b600060405180830381600087803b1580156104d457600080fd5b505af11580156104e8573d6000803e3d6000fd5b505050505050565b6000546001600160a01b0316331461051a5760405162461bcd60e51b815260040161022990610e23565b600080546040516001600160a01b03909116907f8be0079c531659141344cd1fd0a4f28419497f9722a3daafe3b4186f6b6457e0908390a3600080546001600160a01b0319169055565b60018054819061057390610e49565b80601f016020809104026020016040519081016040528092919081815260200182805461059f90610e49565b80156105ec5780601f106105c1576101008083540402835291602001916105ec565b820191906000526020600020905b8154815290600101906020018083116105cf57829003601f168201915b505050600190930154919250506001600160a01b031682565b6006546001600160a01b0316331461062f5760405162461bcd60e51b815260040161022990610bfd565b6001600160a01b0382166106555760405162461bcd60e51b815260040161022990610c3f565b805161066890600490602084019061082a565b5050600580546001600160a01b0319166001600160a01b0392909216919091179055565b6000546001600160a01b031633146106b65760405162461bcd60e51b815260040161022990610e23565b6001600160a01b0381166106dc5760405162461bcd60e51b815260040161022990610c3f565b600680546001600160a01b0319166001600160a01b0392909216919091179055565b60048054819061057390610e49565b6000546001600160a01b031633146107375760405162461bcd60e51b815260040161022990610e23565b6001600160a01b03811661075d5760405162461bcd60e51b815260040161022990610e76565b600080546040516001600160a01b03808516939216917f8be0079c531659141344cd1fd0a4f28419497f9722a3daafe3b4186f6b6457e091a3600080546001600160a01b0319166001600160a01b0392909216919091179055565b6007546001600160a01b031633146107e25760405162461bcd60e51b815260040161022990610bfd565b6001600160a01b0381166108085760405162461bcd60e51b815260040161022990610c3f565b600380546001600160a01b0319166001600160a01b0392909216919091179055565b82805461083690610e49565b90600052602060002090601f016020900481019282610858576000855561089e565b82601f1061087157805160ff191683800117855561089e565b8280016001018555821561089e579182015b8281111561089e578251825591602001919060010190610883565b506108aa9291506108ae565b5090565b5b808211156108aa57600081556001016108af565b60006001600160a01b0382165b92915050565b6108df816108c3565b82525050565b602081016108d082846108d6565b634e487b7160e01b600052604160045260246000fd5b601f19601f830116810181811067ffffffffffffffff8211171561092f5761092f6108f3565b6040525050565b600061094160405190565b905061094d8282610909565b919050565b600067ffffffffffffffff82111561096c5761096c6108f3565b601f19601f83011660200192915050565b82818337506000910152565b600061099c61099784610952565b610936565b9050828152602081018484840111156109b7576109b7600080fd5b6109c284828561097d565b509392505050565b600082601f8301126109de576109de600080fd5b81356109ee848260208601610989565b949350505050565b6109ff816108c3565b8114610a0a57600080fd5b50565b80356108d0816109f6565b60008060408385031215610a2e57610a2e600080fd5b823567ffffffffffffffff811115610a4857610a48600080fd5b610a54858286016109ca565b9250506020610a6585828601610a0d565b9150509250929050565b600060208284031215610a8457610a84600080fd5b60006109ee8484610a0d565b60005b83811015610aab578181015183820152602001610a93565b83811115610aba576000848401525b50505050565b6000610aca825190565b808452602084019350610ae1818560208601610a90565b601f01601f19169290920192915050565b60006108d06001600160a01b038316610b09565b90565b6001600160a01b031690565b60006108d082610af2565b60006108d082610b15565b6108df81610b20565b60408082528101610b458185610ac0565b9050610b546020830184610b2b565b9392505050565b60008060408385031215610b7157610b71600080fd5b6000610b7d8585610a0d565b925050602083013567ffffffffffffffff811115610b9d57610b9d600080fd5b610a65858286016109ca565b60408082528101610bba8185610ac0565b9050610b5460208301846108d6565b600c8152602081017f4e6f74206f70657261746f720000000000000000000000000000000000000000815290505b60200190565b602080825281016108d081610bc9565b60168152602081017f43616e6e6f74206265207a65726f20616464726573730000000000000000000081529050610bf7565b602080825281016108d081610c0d565b634e487b7160e01b600052603260045260246000fd5b60006108d0610b068381565b6108df81610c65565b610c8482826108d6565b5060200190565b6000610c95825190565b808452602093840193830160005b82811015610cc8578151610cb78782610c7a565b965050602082019150600101610ca3565b5093949350505050565b60408101610ce08285610c71565b81810360208301526109ee8184610c8b565b600067ffffffffffffffff821115610d0c57610d0c6108f3565b5060209081020190565b806109ff565b80516108d081610d16565b6000610d3561099784610cf2565b83815290506020808201908402830185811115610d5457610d54600080fd5b835b81811015610d7657610d688782610d1c565b835260209283019201610d56565b5050509392505050565b600082601f830112610d9457610d94600080fd5b81516109ee848260208601610d27565b600060208284031215610db957610db9600080fd5b815167ffffffffffffffff811115610dd357610dd3600080fd5b6109ee84828501610d80565b806108df565b602081016108d08284610ddf565b60208082527f4f776e61626c653a2063616c6c6572206973206e6f7420746865206f776e65729101908152610bf7565b602080825281016108d081610df3565b634e487b7160e01b600052602260045260246000fd5b600281046001821680610e5d57607f821691505b60208210811415610e7057610e70610e33565b50919050565b602080825281016108d081602681527f4f776e61626c653a206e6577206f776e657220697320746865207a65726f206160208201527f646472657373000000000000000000000000000000000000000000000000000060408201526060019056fea2646970667358221220b8f69f6fd738fe35085c5dbd406c3361c6064c978cb9e51a9b7b581eda22819e64736f6c63430008090033",
  "linkReferences": {},
  "deployedLinkReferences": {}
}