{
  "_format": "hh-sol-artifact-1",
  "contractName": "RaffleAlt",
  "sourceName": "contracts/raffleAlt.sol",
  "abi": [
    {
      "inputs": [
        {
          "internalType": "address",
          "name": "_vrfCoordinator",
          "type": "address"
        },
        {
          "internalType": "address",
          "name": "_link",
          "type": "address"
        },
        {
          "internalType": "bytes32",
          "name": "_keyHash",
          "type": "bytes32"
        },
        {
          "internalType": "uint256",
          "name": "_fee",
          "type": "uint256"
        },
        {
          "internalType": "address",
          "name": "_USDCtoken",
          "type": "address"
        }
      ],
      "stateMutability": "nonpayable",
      "type": "constructor"
    },
    {
      "anonymous": false,
      "inputs": [
        {
          "indexed": false,
          "internalType": "address",
          "name": "token",
          "type": "address"
        },
        {
          "indexed": false,
          "internalType": "uint256",
          "name": "amount",
          "type": "uint256"
        }
      ],
      "name": "AdminTokenRecovery",
      "type": "event"
    },
    {
      "anonymous": false,
      "inputs": [
        {
          "indexed": false,
          "internalType": "enum RaffleAlt.RaffleCategory",
          "name": "raffleCategory",
          "type": "uint8"
        },
        {
          "indexed": true,
          "internalType": "uint256",
          "name": "raffleId",
          "type": "uint256"
        },
        {
          "indexed": false,
          "internalType": "uint256",
          "name": "injectedAmount",
          "type": "uint256"
        }
      ],
      "name": "LotteryInjection",
      "type": "event"
    },
    {
      "anonymous": false,
      "inputs": [
        {
          "indexed": false,
          "internalType": "address",
          "name": "treasuryAddress",
          "type": "address"
        },
        {
          "indexed": false,
          "internalType": "address",
          "name": "injectorAddress",
          "type": "address"
        }
      ],
      "name": "NewTreasuryAndInjectorAddresses",
      "type": "event"
    },
    {
      "anonymous": false,
      "inputs": [
        {
          "indexed": false,
          "internalType": "uint256",
          "name": "txIndex",
          "type": "uint256"
        },
        {
          "indexed": false,
          "internalType": "uint256",
          "name": "timestamp",
          "type": "uint256"
        },
        {
          "indexed": false,
          "internalType": "enum RaffleAlt.RaffleCategory",
          "name": "raffleCategory",
          "type": "uint8"
        },
        {
          "indexed": false,
          "internalType": "uint256",
          "name": "noOfTickets",
          "type": "uint256"
        }
      ],
      "name": "NewUserTransaction",
      "type": "event"
    },
    {
      "anonymous": false,
      "inputs": [
        {
          "indexed": true,
          "internalType": "address",
          "name": "previousOwner",
          "type": "address"
        },
        {
          "indexed": true,
          "internalType": "address",
          "name": "newOwner",
          "type": "address"
        }
      ],
      "name": "OwnershipTransferred",
      "type": "event"
    },
    {
      "anonymous": false,
      "inputs": [
        {
          "indexed": false,
          "internalType": "uint256",
          "name": "raffleID",
          "type": "uint256"
        },
        {
          "indexed": false,
          "internalType": "uint256",
          "name": "timeStamp",
          "type": "uint256"
        },
        {
          "indexed": false,
          "internalType": "enum RaffleAlt.RaffleState",
          "name": "raffleState",
          "type": "uint8"
        }
      ],
      "name": "RaffleDeactivated",
      "type": "event"
    },
    {
      "anonymous": false,
      "inputs": [
        {
          "indexed": false,
          "internalType": "enum RaffleAlt.RaffleCategory",
          "name": "category",
          "type": "uint8"
        },
        {
          "indexed": true,
          "internalType": "uint256",
          "name": "raffleId",
          "type": "uint256"
        },
        {
          "indexed": false,
          "internalType": "enum RaffleAlt.RaffleState",
          "name": "raffleState",
          "type": "uint8"
        }
      ],
      "name": "RaffleEnded",
      "type": "event"
    },
    {
      "anonymous": false,
      "inputs": [
        {
          "indexed": true,
          "internalType": "uint256",
          "name": "raffleId",
          "type": "uint256"
        },
        {
          "indexed": false,
          "internalType": "uint256",
          "name": "endTime",
          "type": "uint256"
        },
        {
          "indexed": false,
          "internalType": "uint256",
          "name": "rebootEndTime",
          "type": "uint256"
        },
        {
          "indexed": false,
          "internalType": "enum RaffleAlt.RaffleState",
          "name": "raffleState",
          "type": "uint8"
        }
      ],
      "name": "RaffleOpen",
      "type": "event"
    },
    {
      "anonymous": false,
      "inputs": [
        {
          "indexed": false,
          "internalType": "uint256",
          "name": "raffleID",
          "type": "uint256"
        },
        {
          "indexed": false,
          "internalType": "uint256",
          "name": "timeStamp",
          "type": "uint256"
        },
        {
          "indexed": false,
          "internalType": "enum RaffleAlt.RaffleState",
          "name": "raffleState",
          "type": "uint8"
        }
      ],
      "name": "RaffleReactivated",
      "type": "event"
    },
    {
      "anonymous": false,
      "inputs": [
        {
          "indexed": false,
          "internalType": "enum RaffleAlt.RaffleCategory",
          "name": "raffleCategory",
          "type": "uint8"
        },
        {
          "indexed": true,
          "internalType": "uint256",
          "name": "raffleId",
          "type": "uint256"
        },
        {
          "indexed": false,
          "internalType": "address",
          "name": "buyer",
          "type": "address"
        },
        {
          "indexed": false,
          "internalType": "uint256",
          "name": "noOfTickets",
          "type": "uint256"
        }
      ],
      "name": "RolloverClaimed",
      "type": "event"
    },
    {
      "anonymous": false,
      "inputs": [
        {
          "indexed": false,
          "internalType": "enum RaffleAlt.RaffleCategory",
          "name": "raffleCategory",
          "type": "uint8"
        },
        {
          "indexed": true,
          "internalType": "uint256",
          "name": "raffleId",
          "type": "uint256"
        },
        {
          "indexed": true,
          "internalType": "address",
          "name": "buyer",
          "type": "address"
        },
        {
          "indexed": false,
          "internalType": "uint256",
          "name": "numberTickets",
          "type": "uint256"
        },
        {
          "indexed": false,
          "internalType": "uint256",
          "name": "rafflePool",
          "type": "uint256"
        }
      ],
      "name": "TicketsPurchased",
      "type": "event"
    },
    {
      "anonymous": false,
      "inputs": [
        {
          "indexed": false,
          "internalType": "enum RaffleAlt.RaffleCategory",
          "name": "raffleCategory",
          "type": "uint8"
        },
        {
          "indexed": false,
          "internalType": "address[]",
          "name": "winners",
          "type": "address[]"
        },
        {
          "indexed": false,
          "internalType": "uint256",
          "name": "amount",
          "type": "uint256"
        },
        {
          "indexed": false,
          "internalType": "uint256",
          "name": "timestamp",
          "type": "uint256"
        }
      ],
      "name": "WinnersAwarded",
      "type": "event"
    },
    {
      "anonymous": false,
      "inputs": [
        {
          "indexed": false,
          "internalType": "uint256",
          "name": "raffleID",
          "type": "uint256"
        },
        {
          "indexed": false,
          "internalType": "uint256",
          "name": "amount",
          "type": "uint256"
        }
      ],
      "name": "WithdrawalComplete",
      "type": "event"
    },
    {
      "inputs": [
        {
          "internalType": "address",
          "name": "_injectorAddress",
          "type": "address"
        },
        {
          "internalType": "address",
          "name": "_treasuryAddress",
          "type": "address"
        }
      ],
      "name": "SetInjectorAndTreasuryAdresses",
      "outputs": [],
      "stateMutability": "nonpayable",
      "type": "function"
    },
    {
      "inputs": [],
      "name": "USDCtoken",
      "outputs": [
        {
          "internalType": "contract IERC20",
          "name": "",
          "type": "address"
        }
      ],
      "stateMutability": "view",
      "type": "function"
    },
    {
      "inputs": [
        {
          "internalType": "address",
          "name": "_addr",
          "type": "address"
        }
      ],
      "name": "_isContract",
      "outputs": [
        {
          "internalType": "bool",
          "name": "",
          "type": "bool"
        }
      ],
      "stateMutability": "view",
      "type": "function"
    },
    {
      "inputs": [
        {
          "internalType": "enum RaffleAlt.RaffleCategory",
          "name": "_category",
          "type": "uint8"
        },
        {
          "internalType": "uint32[]",
          "name": "_tickets",
          "type": "uint32[]"
        }
      ],
      "name": "assignTickets",
      "outputs": [],
      "stateMutability": "nonpayable",
      "type": "function"
    },
    {
      "inputs": [
        {
          "internalType": "enum RaffleAlt.RaffleCategory",
          "name": "_category",
          "type": "uint8"
        },
        {
          "internalType": "uint32[]",
          "name": "_tickets",
          "type": "uint32[]"
        }
      ],
      "name": "buyTicket",
      "outputs": [],
      "stateMutability": "nonpayable",
      "type": "function"
    },
    {
      "inputs": [],
      "name": "checkLinkBalance",
      "outputs": [
        {
          "internalType": "uint256",
          "name": "",
          "type": "uint256"
        }
      ],
      "stateMutability": "view",
      "type": "function"
    },
    {
      "inputs": [
        {
          "internalType": "bytes",
          "name": "",
          "type": "bytes"
        }
      ],
      "name": "checkUpkeep",
      "outputs": [
        {
          "internalType": "bool",
          "name": "upkeepNeeded",
          "type": "bool"
        },
        {
          "internalType": "bytes",
          "name": "performData",
          "type": "bytes"
        }
      ],
      "stateMutability": "view",
      "type": "function"
    },
    {
      "inputs": [
        {
          "internalType": "enum RaffleAlt.RaffleCategory",
          "name": "_category",
          "type": "uint8"
        },
        {
          "internalType": "uint256",
          "name": "_ticketsToRollover",
          "type": "uint256"
        },
        {
          "internalType": "uint32[]",
          "name": "_tickets",
          "type": "uint32[]"
        }
      ],
      "name": "claimRollover",
      "outputs": [],
      "stateMutability": "nonpayable",
      "type": "function"
    },
    {
      "inputs": [],
      "name": "currentTicketID",
      "outputs": [
        {
          "internalType": "uint256",
          "name": "",
          "type": "uint256"
        }
      ],
      "stateMutability": "view",
      "type": "function"
    },
    {
      "inputs": [],
      "name": "deactivateRaffle",
      "outputs": [],
      "stateMutability": "nonpayable",
      "type": "function"
    },
    {
      "inputs": [
        {
          "internalType": "enum RaffleAlt.RaffleCategory",
          "name": "_category",
          "type": "uint8"
        }
      ],
      "name": "getCurrentRaffleState",
      "outputs": [
        {
          "internalType": "enum RaffleAlt.RaffleState",
          "name": "raffleState",
          "type": "uint8"
        }
      ],
      "stateMutability": "view",
      "type": "function"
    },
    {
      "inputs": [],
      "name": "getRaffleEndTime",
      "outputs": [
        {
          "internalType": "uint256",
          "name": "",
          "type": "uint256"
        }
      ],
      "stateMutability": "view",
      "type": "function"
    },
    {
      "inputs": [
        {
          "internalType": "enum RaffleAlt.RaffleCategory",
          "name": "_category",
          "type": "uint8"
        }
      ],
      "name": "getRafflePool",
      "outputs": [
        {
          "internalType": "uint256",
          "name": "",
          "type": "uint256"
        }
      ],
      "stateMutability": "view",
      "type": "function"
    },
    {
      "inputs": [],
      "name": "getRebootEndTime",
      "outputs": [
        {
          "internalType": "uint256",
          "name": "",
          "type": "uint256"
        }
      ],
      "stateMutability": "view",
      "type": "function"
    },
    {
      "inputs": [
        {
          "internalType": "address",
          "name": "_user",
          "type": "address"
        }
      ],
      "name": "getUserTransactionCount",
      "outputs": [
        {
          "internalType": "uint256",
          "name": "",
          "type": "uint256"
        }
      ],
      "stateMutability": "view",
      "type": "function"
    },
    {
      "inputs": [
        {
          "internalType": "enum RaffleAlt.RaffleCategory",
          "name": "_category",
          "type": "uint8"
        }
      ],
      "name": "getWinningTickets",
      "outputs": [
        {
          "internalType": "bytes32",
          "name": "requestId",
          "type": "bytes32"
        }
      ],
      "stateMutability": "nonpayable",
      "type": "function"
    },
    {
      "inputs": [],
      "name": "getraffleID",
      "outputs": [
        {
          "internalType": "uint256",
          "name": "",
          "type": "uint256"
        }
      ],
      "stateMutability": "view",
      "type": "function"
    },
    {
      "inputs": [
        {
          "internalType": "address",
          "name": "_user",
          "type": "address"
        },
        {
          "internalType": "uint256",
          "name": "_txIndex",
          "type": "uint256"
        }
      ],
      "name": "getuserTransactionHistory",
      "outputs": [
        {
          "components": [
            {
              "internalType": "uint256",
              "name": "txID",
              "type": "uint256"
            },
            {
              "internalType": "uint256",
              "name": "time",
              "type": "uint256"
            },
            {
              "internalType": "enum RaffleAlt.RaffleCategory",
              "name": "raffleCategory",
              "type": "uint8"
            },
            {
              "internalType": "uint256",
              "name": "noOfTickets",
              "type": "uint256"
            }
          ],
          "internalType": "struct RaffleAlt.Transaction",
          "name": "userTransaction",
          "type": "tuple"
        }
      ],
      "stateMutability": "view",
      "type": "function"
    },
    {
      "inputs": [
        {
          "internalType": "enum RaffleAlt.RaffleCategory",
          "name": "_category",
          "type": "uint8"
        },
        {
          "internalType": "uint256",
          "name": "_amount",
          "type": "uint256"
        }
      ],
      "name": "injectFunds",
      "outputs": [],
      "stateMutability": "nonpayable",
      "type": "function"
    },
    {
      "inputs": [],
      "name": "injectorAddress",
      "outputs": [
        {
          "internalType": "address",
          "name": "",
          "type": "address"
        }
      ],
      "stateMutability": "view",
      "type": "function"
    },
    {
      "inputs": [],
      "name": "maxNumberTicketsPerBuy",
      "outputs": [
        {
          "internalType": "uint256",
          "name": "",
          "type": "uint256"
        }
      ],
      "stateMutability": "view",
      "type": "function"
    },
    {
      "inputs": [],
      "name": "noOfWinners",
      "outputs": [
        {
          "internalType": "uint256",
          "name": "",
          "type": "uint256"
        }
      ],
      "stateMutability": "view",
      "type": "function"
    },
    {
      "inputs": [],
      "name": "owner",
      "outputs": [
        {
          "internalType": "address",
          "name": "",
          "type": "address"
        }
      ],
      "stateMutability": "view",
      "type": "function"
    },
    {
      "inputs": [
        {
          "internalType": "enum RaffleAlt.RaffleCategory",
          "name": "_category",
          "type": "uint8"
        }
      ],
      "name": "payoutWinners",
      "outputs": [],
      "stateMutability": "nonpayable",
      "type": "function"
    },
    {
      "inputs": [
        {
          "internalType": "bytes",
          "name": "performData",
          "type": "bytes"
        }
      ],
      "name": "performUpkeep",
      "outputs": [],
      "stateMutability": "nonpayable",
      "type": "function"
    },
    {
      "inputs": [
        {
          "internalType": "bytes32",
          "name": "requestId",
          "type": "bytes32"
        },
        {
          "internalType": "uint256",
          "name": "randomness",
          "type": "uint256"
        }
      ],
      "name": "rawFulfillRandomness",
      "outputs": [],
      "stateMutability": "nonpayable",
      "type": "function"
    },
    {
      "inputs": [],
      "name": "reactivateRaffle",
      "outputs": [],
      "stateMutability": "nonpayable",
      "type": "function"
    },
    {
      "inputs": [],
      "name": "rebootChecker",
      "outputs": [
        {
          "internalType": "uint256",
          "name": "",
          "type": "uint256"
        }
      ],
      "stateMutability": "view",
      "type": "function"
    },
    {
      "inputs": [
        {
          "internalType": "address",
          "name": "_tokenAddress",
          "type": "address"
        },
        {
          "internalType": "uint256",
          "name": "_tokenAmount",
          "type": "uint256"
        }
      ],
      "name": "recoverWrongTokens",
      "outputs": [],
      "stateMutability": "nonpayable",
      "type": "function"
    },
    {
      "inputs": [],
      "name": "renounceOwnership",
      "outputs": [],
      "stateMutability": "nonpayable",
      "type": "function"
    },
    {
      "inputs": [
        {
          "internalType": "enum RaffleAlt.RaffleCategory",
          "name": "_category",
          "type": "uint8"
        },
        {
          "internalType": "bool",
          "name": "_deactivated",
          "type": "bool"
        }
      ],
      "name": "rollover",
      "outputs": [],
      "stateMutability": "nonpayable",
      "type": "function"
    },
    {
      "inputs": [],
      "name": "setRaffleData",
      "outputs": [],
      "stateMutability": "nonpayable",
      "type": "function"
    },
    {
      "inputs": [
        {
          "internalType": "enum RaffleAlt.RaffleCategory",
          "name": "_category",
          "type": "uint8"
        },
        {
          "internalType": "enum RaffleAlt.RaffleState",
          "name": "_state",
          "type": "uint8"
        }
      ],
      "name": "setRaffleState",
      "outputs": [],
      "stateMutability": "nonpayable",
      "type": "function"
    },
    {
      "inputs": [],
      "name": "startRaffle",
      "outputs": [],
      "stateMutability": "nonpayable",
      "type": "function"
    },
    {
      "inputs": [
        {
          "internalType": "enum RaffleAlt.RaffleCategory",
          "name": "_category",
          "type": "uint8"
        },
        {
          "internalType": "uint256",
          "name": "_noOfTickets",
          "type": "uint256"
        }
      ],
      "name": "storeUserTransactions",
      "outputs": [],
      "stateMutability": "nonpayable",
      "type": "function"
    },
    {
      "inputs": [
        {
          "internalType": "address",
          "name": "newOwner",
          "type": "address"
        }
      ],
      "name": "transferOwnership",
      "outputs": [],
      "stateMutability": "nonpayable",
      "type": "function"
    },
    {
      "inputs": [],
      "name": "treasuryAddress",
      "outputs": [
        {
          "internalType": "address",
          "name": "",
          "type": "address"
        }
      ],
      "stateMutability": "view",
      "type": "function"
    },
    {
      "inputs": [
        {
          "internalType": "enum RaffleAlt.RaffleCategory",
          "name": "_category",
          "type": "uint8"
        }
      ],
      "name": "updateWinnersPayouts",
      "outputs": [],
      "stateMutability": "nonpayable",
      "type": "function"
    },
    {
      "inputs": [
        {
          "internalType": "enum RaffleAlt.RaffleCategory",
          "name": "_category",
          "type": "uint8"
        },
        {
          "internalType": "uint256",
          "name": "_raffleID",
          "type": "uint256"
        }
      ],
      "name": "viewRaffle",
      "outputs": [
        {
          "components": [
            {
              "internalType": "uint256",
              "name": "ID",
              "type": "uint256"
            },
            {
              "internalType": "uint256",
              "name": "noOfTicketsSold",
              "type": "uint256"
            },
            {
              "internalType": "uint256",
              "name": "noOfPlayers",
              "type": "uint256"
            },
            {
              "internalType": "uint256",
              "name": "amountInjected",
              "type": "uint256"
            },
            {
              "internalType": "uint256[]",
              "name": "winnersPayout",
              "type": "uint256[]"
            },
            {
              "internalType": "address[]",
              "name": "winners",
              "type": "address[]"
            },
            {
              "internalType": "uint256[]",
              "name": "winningTickets",
              "type": "uint256[]"
            },
            {
              "internalType": "uint256",
              "name": "raffleStartTime",
              "type": "uint256"
            },
            {
              "internalType": "uint256",
              "name": "raffleEndTime",
              "type": "uint256"
            }
          ],
          "internalType": "struct RaffleAlt.RaffleStruct",
          "name": "raffle",
          "type": "tuple"
        }
      ],
      "stateMutability": "view",
      "type": "function"
    },
    {
      "inputs": [
        {
          "internalType": "enum RaffleAlt.RaffleCategory",
          "name": "_category",
          "type": "uint8"
        },
        {
          "internalType": "address",
          "name": "_user",
          "type": "address"
        }
      ],
      "name": "viewUserRollovers",
      "outputs": [
        {
          "internalType": "uint256",
          "name": "ticketsToRollover",
          "type": "uint256"
        }
      ],
      "stateMutability": "view",
      "type": "function"
    },
    {
      "inputs": [
        {
          "internalType": "enum RaffleAlt.RaffleCategory",
          "name": "_category",
          "type": "uint8"
        }
      ],
      "name": "withdrawFundsDueToDeactivation",
      "outputs": [],
      "stateMutability": "nonpayable",
      "type": "function"
    }
  ],
  "bytecode": "0x610100604052611c2060c05261070860e0526003600b556103e8600c553480156200002957600080fd5b5060405162006006380380620060068339810160408190526200004c91620001aa565b600160009081556001600160601b0319606087811b821660a05286901b16608052620000753390565b600280546001600160a01b0319166001600160a01b038316908117909155604051919250906000907f8be0079c531659141344cd1fd0a4f28419497f9722a3daafe3b4186f6b6457e0908290a350600883905560098290556003600a55600f80546001600160a01b0319166001600160a01b0383161790556200017f6013602052670de0b6b3a76400007f8fa6efc3be94b5b348b21fea823fe8d100408cee9b7f90524494500445d8ff6c55678ac7230489e800007f4155c2f711f2cdd34f8262ab8fb9b7020a700fe7b6948222152f7670d1fdf34d55600260005268056bc75e2d631000007f0b9d2c0c271bb30544eb78c59bdaebdae2728e5f65814c07768a0abe90ed192355565b50505050506200025b565b805162000197816200023a565b92915050565b8051620001978162000254565b600080600080600060a08688031215620001c2578081fd5b620001d0878288016200018a565b94506020620001e2888289016200018a565b9450506040620001f5888289016200019d565b935050606062000208888289016200019d565b92505060806200021b888289016200018a565b9150509295509295909350565b60006001600160a01b03821662000197565b620002458162000228565b81146200025157600080fd5b50565b8062000245565b60805160601c60a05160601c60c05160e051615d56620002b06000396000611116015260006110e6015260008181612e7d01526140fa015260008181612f220152818161329801526140be0152615d566000f3fe608060405234801561001057600080fd5b50600436106102d35760003560e01c80637d48441f11610186578063bc4db42e116100e3578063defc98f811610097578063f0e21cd911610071578063f0e21cd91461067e578063f2fde38b14610687578063f53c7d081461069a57600080fd5b8063defc98f814610638578063df85c99714610658578063e2fae2761461066b57600080fd5b8063c5f956af116100c8578063c5f956af146105cf578063c802fe51146105ef578063d8f338401461060257600080fd5b8063bc4db42e146105b4578063c1aba43f146105c757600080fd5b80639eb386fd1161013a578063a7390c8e1161011f578063a7390c8e14610578578063ad99854b14610598578063b6e81a4d146105a157600080fd5b80639eb386fd14610568578063a24bf4ff1461057057600080fd5b80638da5cb5b1161016b5780638da5cb5b1461050e57806394985ddd146105355780639c3846531461054857600080fd5b80637d48441f1461045c578063862162131461047d57600080fd5b80634185e507116102345780636c6f693d116101e8578063715018a6116101cd578063715018a61461042157806374dc2081146104295780637cbd22fb1461043c57600080fd5b80636c6f693d146103ed5780636e04ff0d1461040057600080fd5b8063518da0a411610219578063518da0a4146103c95780635c0b95d4146103d257806367bb60a0146103da57600080fd5b80634185e507146103895780634585e33b146103b657600080fd5b8063269ce1bb1161028b5780632e23be9d116102705780632e23be9d1461035057806336393af7146103635780633f138d4b1461037657600080fd5b8063269ce1bb14610335578063280550961461033d57600080fd5b806313b42fa3116102bc57806313b42fa3146103005780631de50d491461031a578063242284f11461032d57600080fd5b80630441717b146102d85780631060462c146102ed575b600080fd5b6102eb6102e6366004614ca7565b6106a3565b005b6102eb6102fb366004614d83565b610a1f565b6006545b6040516103119190615722565b60405180910390f35b6102eb610328366004614ce2565b610ba9565b6102eb611089565b6102eb611301565b6102eb61034b366004614ca7565b611673565b61030461035e366004614cc4565b611bd8565b6102eb610371366004614ce2565b611ca4565b6102eb610384366004614bfc565b611fe0565b600f546103a99073ffffffffffffffffffffffffffffffffffffffff1681565b6040516103119190615773565b6102eb6103c4366004614c65565b6120e4565b610304600b5481565b600454610304565b6102eb6103e8366004614d83565b612151565b6102eb6103fb366004614bc4565b6123d5565b61041361040e366004614c65565b612547565b604051610311929190615702565b6102eb61296a565b6102eb610437366004614d27565b612a2a565b61044f61044a366004614bfc565b612d39565b60405161031191906159ad565b61047061046a366004614ba7565b3b151590565b60405161031191906156f4565b6102eb6013602052670de0b6b3a76400007f8fa6efc3be94b5b348b21fea823fe8d100408cee9b7f90524494500445d8ff6c55678ac7230489e800007f4155c2f711f2cdd34f8262ab8fb9b7020a700fe7b6948222152f7670d1fdf34d55600260005268056bc75e2d631000007f0b9d2c0c271bb30544eb78c59bdaebdae2728e5f65814c07768a0abe90ed192355565b60025473ffffffffffffffffffffffffffffffffffffffff165b6040516103119190615652565b6102eb610543366004614c47565b612e65565b600d546105289073ffffffffffffffffffffffffffffffffffffffff1681565b600554610304565b610304612ee2565b61058b610586366004614d83565b612fac565b604051610311919061599c565b610304600c5481565b6103046105af366004614ca7565b6131fe565b6103046105c2366004614ca7565b613291565b6102eb61343e565b600e546105289073ffffffffffffffffffffffffffffffffffffffff1681565b6102eb6105fd366004614d55565b613725565b610304610610366004614ba7565b73ffffffffffffffffffffffffffffffffffffffff1660009081526016602052604090205490565b61064b610646366004614ca7565b61381e565b6040516103119190615802565b6102eb610666366004614ca7565b6138b4565b6102eb610679366004614da1565b613a62565b610304600a5481565b6102eb610695366004614ba7565b613e9e565b61030460075481565b6000601260008360028111156106e2577f4e487b7100000000000000000000000000000000000000000000000000000000600052602160045260246000fd5b600281111561071a577f4e487b7100000000000000000000000000000000000000000000000000000000600052602160045260246000fd5b815260200190815260200160002060006006548152602001908152602001600020905060006013600084600281111561077c577f4e487b7100000000000000000000000000000000000000000000000000000000600052602160045260246000fd5b60028111156107b4577f4e487b7100000000000000000000000000000000000000000000000000000000600052602160045260246000fd5b81526020019081526020016000209050600080600090505b600b54811015610969576108a3846005018281548110610815577f4e487b7100000000000000000000000000000000000000000000000000000000600052603260045260246000fd5b60009182526020909120015460048601805473ffffffffffffffffffffffffffffffffffffffff9092169184908110610877577f4e487b7100000000000000000000000000000000000000000000000000000000600052603260045260246000fd5b600091825260209091200154600f5473ffffffffffffffffffffffffffffffffffffffff169190613fca565b8360040181815481106108df577f4e487b7100000000000000000000000000000000000000000000000000000000600052603260045260246000fd5b90600052602060002001548360010160008282546108fd9190615ab4565b90915550506004840180548290811061093f577f4e487b7100000000000000000000000000000000000000000000000000000000600052603260045260246000fd5b9060005260206000200154826109559190615a4b565b91508061096181615ba0565b9150506107cc565b50600e5460018301546109b99173ffffffffffffffffffffffffffffffffffffffff169061099990600290615a63565b600f5473ffffffffffffffffffffffffffffffffffffffff169190613fca565b6109c4846001613725565b600a80549060006109d483615ba0565b91905055507fef99a204a94c30b225058df07e102a2bb1ee4c08995f4a39eccf82e79e4731f984846005018342604051610a11949392919061578f565b60405180910390a150505050565b33600090815260166020526040902054610a376149c2565b81815242602082015260408101846002811115610a7d577f4e487b7100000000000000000000000000000000000000000000000000000000600052602160045260246000fd5b90816002811115610ab7577f4e487b7100000000000000000000000000000000000000000000000000000000600052602160045260246000fd5b9052506060810183905233600090815260166020908152604080832080546001818101835591855293839020855160049095020193845591840151838301558301516002808401805486959491927fffffffffffffffffffffffffffffffffffffffffffffffffffffffffffffff0090911691908490811115610b63577f4e487b7100000000000000000000000000000000000000000000000000000000600052602160045260246000fd5b02179055506060820151816003015550507f60850aec46dea3854368ebe9087866f660da4b915e21945cfbc2e673935ab4d282428686604051610a1194939291906159bb565b333b15610beb576040517f08c379a0000000000000000000000000000000000000000000000000000000008152600401610be29061586c565b60405180910390fd5b333214610c24576040517f08c379a0000000000000000000000000000000000000000000000000000000008152600401610be2906158dc565b60026000541415610c61576040517f08c379a0000000000000000000000000000000000000000000000000000000008152600401610be29061596c565b60026000558051610c9e576040517f08c379a0000000000000000000000000000000000000000000000000000000008152600401610be2906158cc565b600c5481511115610cdb576040517f08c379a0000000000000000000000000000000000000000000000000000000008152600401610be29061598c565b600260136000846002811115610d1a577f4e487b7100000000000000000000000000000000000000000000000000000000600052602160045260246000fd5b6002811115610d52577f4e487b7100000000000000000000000000000000000000000000000000000000600052602160045260246000fd5b815260208101919091526040016000206002015460ff166004811115610da1577f4e487b7100000000000000000000000000000000000000000000000000000000600052602160045260246000fd5b14610dd8576040517f08c379a0000000000000000000000000000000000000000000000000000000008152600401610be29061594c565b600060136000846002811115610e17577f4e487b7100000000000000000000000000000000000000000000000000000000600052602160045260246000fd5b6002811115610e4f577f4e487b7100000000000000000000000000000000000000000000000000000000600052602160045260246000fd5b81526020019081526020016000209050600060126000856002811115610e9e577f4e487b7100000000000000000000000000000000000000000000000000000000600052602160045260246000fd5b6002811115610ed6577f4e487b7100000000000000000000000000000000000000000000000000000000600052602160045260246000fd5b8152602080820192909252604090810160009081206006548252909252812084518454919350610f0591615a77565b600f54909150610f2d9073ffffffffffffffffffffffffffffffffffffffff16333084614070565b33600090815260116020526040812090866002811115610f76577f4e487b7100000000000000000000000000000000000000000000000000000000600052602160045260246000fd5b6002811115610fae577f4e487b7100000000000000000000000000000000000000000000000000000000600052602160045260246000fd5b8152602080820192909252604090810160009081206006548252909252902054610fea57600282018054906000610fe483615ba0565b91905055505b80836001016000828254610ffe9190615a4b565b92505081905550611010858551610a1f565b61101a8585611ca4565b611023856138b4565b3373ffffffffffffffffffffffffffffffffffffffff166006547fa8833300989dff6c7036c28e17e6309e566c7cb5fc69a76e0dc73a0769eba2d98787518760010154604051611075939291906157e7565b60405180910390a350506001600055505050565b600a546003146110c5576040517f08c379a0000000000000000000000000000000000000000000000000000000008152600401610be2906158bc565b600680549060006110d583615ba0565b909155505042600381905561110b907f000000000000000000000000000000000000000000000000000000000000000090615a4b565b600481905561113b907f000000000000000000000000000000000000000000000000000000000000000090615a4b565b60055560408051606081018252600080825260016020830152600292820192909252905b60038110156112b45760008282600381106111a3577f4e487b7100000000000000000000000000000000000000000000000000000000600052603260045260246000fd5b602002015190506000601260008360028111156111e9577f4e487b7100000000000000000000000000000000000000000000000000000000600052602160045260246000fd5b6002811115611221577f4e487b7100000000000000000000000000000000000000000000000000000000600052602160045260246000fd5b815260208082019290925260409081016000908120600654808352935220908155600380546007830155600454600883015590915061129f90859085908110611293577f4e487b7100000000000000000000000000000000000000000000000000000000600052603260045260246000fd5b60200201516002613725565b505080806112ac90615ba0565b91505061115f565b506000600a556006546004546005546040517fb15bf0ec96989b8686c290ff167b6855edaa07d0e6b8458f665125e648190684926112f69290916002906159e3565b60405180910390a250565b60025473ffffffffffffffffffffffffffffffffffffffff163314611352576040517f08c379a0000000000000000000000000000000000000000000000000000000008152600401610be2906158ec565b600080805260136020527f8fa6efc3be94b5b348b21fea823fe8d100408cee9b7f90524494500445d8ff6e547f8fa6efc3be94b5b348b21fea823fe8d100408cee9b7f90524494500445d8ff6c9060049060ff16818111156113dd577f4e487b7100000000000000000000000000000000000000000000000000000000600052602160045260246000fd5b14611414576040517f08c379a0000000000000000000000000000000000000000000000000000000008152600401610be29061592c565b6001600081905260136020527f4155c2f711f2cdd34f8262ab8fb9b7020a700fe7b6948222152f7670d1fdf34f547f4155c2f711f2cdd34f8262ab8fb9b7020a700fe7b6948222152f7670d1fdf34d9060049060ff16818111156114a1577f4e487b7100000000000000000000000000000000000000000000000000000000600052602160045260246000fd5b146114d8576040517f08c379a0000000000000000000000000000000000000000000000000000000008152600401610be29061592c565b6002600081905260136020527f0b9d2c0c271bb30544eb78c59bdaebdae2728e5f65814c07768a0abe90ed1925547f0b9d2c0c271bb30544eb78c59bdaebdae2728e5f65814c07768a0abe90ed19239060049060ff1681811115611565577f4e487b7100000000000000000000000000000000000000000000000000000000600052602160045260246000fd5b1461159c576040517f08c379a0000000000000000000000000000000000000000000000000000000008152600401610be29061592c565b60408051606081018252600080825260016020830152600292820192909252905b6003811015611626576000828260038110611601577f4e487b7100000000000000000000000000000000000000000000000000000000600052603260045260246000fd5b60200201519050611613816001613725565b508061161e81615ba0565b9150506115bd565b506003600a556006546040517f3e3fbe6edaa33edaf5f25f93631b45be609c9603eebf7d4d0976f0dec5dfdc04916116629142906001906159e3565b60405180910390a150505050505050565b333b156116ac576040517f08c379a0000000000000000000000000000000000000000000000000000000008152600401610be29061586c565b3332146116e5576040517f08c379a0000000000000000000000000000000000000000000000000000000008152600401610be2906158dc565b80600060136000836002811115611725577f4e487b7100000000000000000000000000000000000000000000000000000000600052602160045260246000fd5b600281111561175d577f4e487b7100000000000000000000000000000000000000000000000000000000600052602160045260246000fd5b8152602081019190915260400160002090506004600282015460ff1660048111156117b1577f4e487b7100000000000000000000000000000000000000000000000000000000600052602160045260246000fd5b146117e8576040517f08c379a0000000000000000000000000000000000000000000000000000000008152600401610be29061592c565b60026000541415611825576040517f08c379a0000000000000000000000000000000000000000000000000000000008152600401610be29061596c565b600260008181556015918590811115611867577f4e487b7100000000000000000000000000000000000000000000000000000000600052602160045260246000fd5b600281111561189f577f4e487b7100000000000000000000000000000000000000000000000000000000600052602160045260246000fd5b8152602080820192909252604090810160009081203382529092529020546118f3576040517f08c379a0000000000000000000000000000000000000000000000000000000008152600401610be29061583c565b600060136000856002811115611932577f4e487b7100000000000000000000000000000000000000000000000000000000600052602160045260246000fd5b600281111561196a577f4e487b7100000000000000000000000000000000000000000000000000000000600052602160045260246000fd5b815260200190815260200160002090506000601560008660028111156119b9577f4e487b7100000000000000000000000000000000000000000000000000000000600052602160045260246000fd5b60028111156119f1577f4e487b7100000000000000000000000000000000000000000000000000000000600052602160045260246000fd5b8152602080820192909252604090810160009081203382529092528120548354909250611a1e9083615a77565b600f546040517fa9059cbb00000000000000000000000000000000000000000000000000000000815291925073ffffffffffffffffffffffffffffffffffffffff169063a9059cbb90611a7790339085906004016156a3565b602060405180830381600087803b158015611a9157600080fd5b505af1158015611aa5573d6000803e3d6000fd5b505050506040513d601f19601f82011682018060405250810190611ac99190614c2a565b50600060156000886002811115611b09577f4e487b7100000000000000000000000000000000000000000000000000000000600052602160045260246000fd5b6002811115611b41577f4e487b7100000000000000000000000000000000000000000000000000000000600052602160045260246000fd5b815260200190815260200160002060003373ffffffffffffffffffffffffffffffffffffffff1673ffffffffffffffffffffffffffffffffffffffff168152602001908152602001600020819055507fac4b7f84df43766362cc5996cfd81888ae4ee76e3e429f0d2f3660404aea182960065482604051611bc3929190615730565b60405180910390a15050600160005550505050565b600060156000846002811115611c17577f4e487b7100000000000000000000000000000000000000000000000000000000600052602160045260246000fd5b6002811115611c4f577f4e487b7100000000000000000000000000000000000000000000000000000000600052602160045260246000fd5b815260200190815260200160002060008373ffffffffffffffffffffffffffffffffffffffff1673ffffffffffffffffffffffffffffffffffffffff1681526020019081526020016000205490505b92915050565b600060126000846002811115611ce3577f4e487b7100000000000000000000000000000000000000000000000000000000600052602160045260246000fd5b6002811115611d1b577f4e487b7100000000000000000000000000000000000000000000000000000000600052602160045260246000fd5b815260200190815260200160002060006006548152602001908152602001600020905060005b8251811015611fc05760078054906000611d5a83615ba0565b91905055506000838281518110611d9a577f4e487b7100000000000000000000000000000000000000000000000000000000600052603260045260246000fd5b60200260200101519050601160003373ffffffffffffffffffffffffffffffffffffffff1673ffffffffffffffffffffffffffffffffffffffff1681526020019081526020016000206000866002811115611e1e577f4e487b7100000000000000000000000000000000000000000000000000000000600052602160045260246000fd5b6002811115611e56577f4e487b7100000000000000000000000000000000000000000000000000000000600052602160045260246000fd5b8152602080820192909252604090810160009081206006548252835281812080546001810182559082528382206008820401805463ffffffff80881660046007909516949094026101000a84810291021990911617905582518084019093528252339282019290925290601090876002811115611efc577f4e487b7100000000000000000000000000000000000000000000000000000000600052602160045260246000fd5b6002811115611f34577f4e487b7100000000000000000000000000000000000000000000000000000000600052602160045260246000fd5b815260208082019290925260409081016000908120600754825283522082518154939092015173ffffffffffffffffffffffffffffffffffffffff16640100000000027fffffffffffffffff00000000000000000000000000000000000000000000000090931663ffffffff909216919091179190911790555080611fb881615ba0565b915050611d41565b508151816001016000828254611fd69190615a4b565b9091555050505050565b60025473ffffffffffffffffffffffffffffffffffffffff163314612031576040517f08c379a0000000000000000000000000000000000000000000000000000000008152600401610be2906158ec565b600f5473ffffffffffffffffffffffffffffffffffffffff83811691161415612086576040517f08c379a0000000000000000000000000000000000000000000000000000000008152600401610be29061590c565b6120a773ffffffffffffffffffffffffffffffffffffffff83163383613fca565b7f74545154aac348a3eac92596bd1971957ca94795f4e954ec5f613b55fab7812982826040516120d89291906156a3565b60405180910390a15050565b6000806120f383850185614e03565b91509150816001141561210f5761210981613291565b5061214b565b816002141561212657612121816106a3565b61214b565b816003141561213757612121611089565b816004141561214b5761214b816000612a2a565b50505050565b60025473ffffffffffffffffffffffffffffffffffffffff1633148061218e5750600d5473ffffffffffffffffffffffffffffffffffffffff1633145b6121c4576040517f08c379a0000000000000000000000000000000000000000000000000000000008152600401610be29061591c565b600260136000846002811115612203577f4e487b7100000000000000000000000000000000000000000000000000000000600052602160045260246000fd5b600281111561223b577f4e487b7100000000000000000000000000000000000000000000000000000000600052602160045260246000fd5b815260208101919091526040016000206002015460ff16600481111561228a577f4e487b7100000000000000000000000000000000000000000000000000000000600052602160045260246000fd5b146122c1576040517f08c379a0000000000000000000000000000000000000000000000000000000008152600401610be29061594c565b600f546122e69073ffffffffffffffffffffffffffffffffffffffff16333084614070565b8060126000846002811115612324577f4e487b7100000000000000000000000000000000000000000000000000000000600052602160045260246000fd5b600281111561235c577f4e487b7100000000000000000000000000000000000000000000000000000000600052602160045260246000fd5b815260200190815260200160002060006006548152602001908152602001600020600301600082825461238f9190615a4b565b90915550506006546040517fa1c157de391a92665d22914b5834a188e801f4fbc466639ddc0063abff1df3bb906123c990859085906157d9565b60405180910390a25050565b60025473ffffffffffffffffffffffffffffffffffffffff163314612426576040517f08c379a0000000000000000000000000000000000000000000000000000000008152600401610be2906158ec565b73ffffffffffffffffffffffffffffffffffffffff8116612473576040517f08c379a0000000000000000000000000000000000000000000000000000000008152600401610be2906158ac565b73ffffffffffffffffffffffffffffffffffffffff82166124c0576040517f08c379a0000000000000000000000000000000000000000000000000000000008152600401610be2906158ac565b600e805473ffffffffffffffffffffffffffffffffffffffff8084167fffffffffffffffffffffffff000000000000000000000000000000000000000092831617909255600d8054928516929091169190911790556040517fa6f7e8c500ff9602f43c07429562ca2a17f22d62c172a4fbb6aeb54bdc5e5c64906120d89083908590615660565b600060606000604051806060016040528060006002811115612592577f4e487b7100000000000000000000000000000000000000000000000000000000600052602160045260246000fd5b60028111156125ca577f4e487b7100000000000000000000000000000000000000000000000000000000600052602160045260246000fd5b815260200160018152602001600281525090506000600a54600314156125ee575060015b60005b6003811015612960576000838260038110612635577f4e487b7100000000000000000000000000000000000000000000000000000000600052603260045260246000fd5b6020020151905060006012600083600281111561267b577f4e487b7100000000000000000000000000000000000000000000000000000000600052602160045260246000fd5b60028111156126b3577f4e487b7100000000000000000000000000000000000000000000000000000000600052602160045260246000fd5b8152602001908152602001600020600060065481526020019081526020016000209050600060136000846002811115612715577f4e487b7100000000000000000000000000000000000000000000000000000000600052602160045260246000fd5b600281111561274d577f4e487b7100000000000000000000000000000000000000000000000000000000600052602160045260246000fd5b8152602081019190915260400160002090506001600282015460ff1660048111156127a1577f4e487b7100000000000000000000000000000000000000000000000000000000600052602160045260246000fd5b1480156127ac575084155b156127b95750505061294e565b60045442118015612808575060028082015460ff166004811115612806577f4e487b7100000000000000000000000000000000000000000000000000000000600052602160045260246000fd5b145b1561287357600a8260010154108015612825575060058260020154105b1561285b5760019750600483604051602001612842929190615810565b6040516020818303038152906040529650505050612960565b60019750600183604051602001612842929190615810565b6003600282015460ff1660048111156128b5577f4e487b7100000000000000000000000000000000000000000000000000000000600052602160045260246000fd5b14156128d35760019750600283604051602001612842929190615810565b6004600282015460ff166004811115612915577f4e487b7100000000000000000000000000000000000000000000000000000000600052602160045260246000fd5b14158015612924575060055442115b801561292d5750845b1561294a5760019750600383604051602001612842929190615810565b5050505b8061295881615ba0565b9150506125f1565b5050509250929050565b60025473ffffffffffffffffffffffffffffffffffffffff1633146129bb576040517f08c379a0000000000000000000000000000000000000000000000000000000008152600401610be2906158ec565b60025460405160009173ffffffffffffffffffffffffffffffffffffffff16907f8be0079c531659141344cd1fd0a4f28419497f9722a3daafe3b4186f6b6457e0908390a3600280547fffffffffffffffffffffffff0000000000000000000000000000000000000000169055565b600060126000846002811115612a69577f4e487b7100000000000000000000000000000000000000000000000000000000600052602160045260246000fd5b6002811115612aa1577f4e487b7100000000000000000000000000000000000000000000000000000000600052602160045260246000fd5b815260200190815260200160002060006006548152602001908152602001600020905081612aea57612ad4836001613725565b600a8054906000612ae483615ba0565b91905055505b60008160010154600754612afe9190615ab4565b905060015b82600101548111612d32576000612b1a8284615a4b565b9050600060106000886002811115612b5b577f4e487b7100000000000000000000000000000000000000000000000000000000600052602160045260246000fd5b6002811115612b93577f4e487b7100000000000000000000000000000000000000000000000000000000600052602160045260246000fd5b815260208082019290925260409081016000908120858252835281812054640100000000900473ffffffffffffffffffffffffffffffffffffffff168082526011909352908120919250886002811115612c16577f4e487b7100000000000000000000000000000000000000000000000000000000600052602160045260246000fd5b6002811115612c4e577f4e487b7100000000000000000000000000000000000000000000000000000000600052602160045260246000fd5b8152602001908152602001600020600060065481526020019081526020016000208054905060156000896002811115612cb0577f4e487b7100000000000000000000000000000000000000000000000000000000600052602160045260246000fd5b6002811115612ce8577f4e487b7100000000000000000000000000000000000000000000000000000000600052602160045260246000fd5b81526020808201929092526040908101600090812073ffffffffffffffffffffffffffffffffffffffff909516815293909152909120555080612d2a81615ba0565b915050612b03565b5050505050565b612d416149c2565b73ffffffffffffffffffffffffffffffffffffffff83166000908152601660205260409020805483908110612d9f577f4e487b7100000000000000000000000000000000000000000000000000000000600052603260045260246000fd5b906000526020600020906004020160405180608001604052908160008201548152602001600182015481526020016002820160009054906101000a900460ff166002811115612e17577f4e487b7100000000000000000000000000000000000000000000000000000000600052602160045260246000fd5b6002811115612e4f577f4e487b7100000000000000000000000000000000000000000000000000000000600052602160045260246000fd5b8152602001600382015481525050905092915050565b3373ffffffffffffffffffffffffffffffffffffffff7f00000000000000000000000000000000000000000000000000000000000000001614612ed4576040517f08c379a0000000000000000000000000000000000000000000000000000000008152600401610be2906158fc565b612ede8282614091565b5050565b6040517f70a0823100000000000000000000000000000000000000000000000000000000815260009073ffffffffffffffffffffffffffffffffffffffff7f000000000000000000000000000000000000000000000000000000000000000016906370a0823190612f57903090600401615652565b60206040518083038186803b158015612f6f57600080fd5b505afa158015612f83573d6000803e3d6000fd5b505050506040513d601f19601f82011682018060405250810190612fa79190614e31565b905090565b612ffb6040518061012001604052806000815260200160008152602001600081526020016000815260200160608152602001606081526020016060815260200160008152602001600081525090565b60126000846002811115613038577f4e487b7100000000000000000000000000000000000000000000000000000000600052602160045260246000fd5b6002811115613070577f4e487b7100000000000000000000000000000000000000000000000000000000600052602160045260246000fd5b8152602001908152602001600020600083815260200190815260200160002060405180610120016040529081600082015481526020016001820154815260200160028201548152602001600382015481526020016004820180548060200260200160405190810160405280929190818152602001828054801561311257602002820191906000526020600020905b8154815260200190600101908083116130fe575b505050505081526020016005820180548060200260200160405190810160405280929190818152602001828054801561318157602002820191906000526020600020905b815473ffffffffffffffffffffffffffffffffffffffff168152600190910190602001808311613156575b50505050508152602001600682018054806020026020016040519081016040528092919081815260200182805480156131d957602002820191906000526020600020905b8154815260200190600101908083116131c5575b5050505050815260200160078201548152602001600882015481525050905092915050565b6000806013600084600281111561323e577f4e487b7100000000000000000000000000000000000000000000000000000000600052602160045260246000fd5b6002811115613276577f4e487b7100000000000000000000000000000000000000000000000000000000600052602160045260246000fd5b81526020810191909152604001600020600101549392505050565b60006009547f000000000000000000000000000000000000000000000000000000000000000073ffffffffffffffffffffffffffffffffffffffff166370a08231306040518263ffffffff1660e01b81526004016132ef9190615652565b60206040518083038186803b15801561330757600080fd5b505afa15801561331b573d6000803e3d6000fd5b505050506040513d601f19601f8201168201806040525081019061333f9190614e31565b1015613377576040517f08c379a0000000000000000000000000000000000000000000000000000000008152600401610be29061587c565b6133856008546009546140ba565b6000818152601460205260409020805491925083917fffffffffffffffffffffffffffffffffffffffffffffffffffffffffffffff001660018360028111156133f7577f4e487b7100000000000000000000000000000000000000000000000000000000600052602160045260246000fd5b02179055506006547f79aa71bc7ac44ef46960b6e440cf08b63d9c1db4d3af7374da8c13371d369b108360036040516134319291906157be565b60405180910390a2919050565b60025473ffffffffffffffffffffffffffffffffffffffff16331461348f576040517f08c379a0000000000000000000000000000000000000000000000000000000008152600401610be2906158ec565b60065460009081527f7e7fa33969761a458e04f477e039a608702b4f924981d6653935a8319a08ad7b602052604081206001810154600a1180156134d7575060058160020154105b61350d576040517f08c379a0000000000000000000000000000000000000000000000000000000008152600401610be29061589c565b60065460009081527f71a67924699a20698523213e55fe499d539379d7769cd5567e2c45d583f815a360205260409020600181810154909190600a118015613559575060058160020154105b61358f576040517f08c379a0000000000000000000000000000000000000000000000000000000008152600401610be29061589c565b60065460009081527f8e1fee8c88a9e04123b21e90cae2727a7715bf522a1e46eb5934ccd05203a6b260205260409020600181015460029190600a1180156135db575060058160020154105b613611576040517f08c379a0000000000000000000000000000000000000000000000000000000008152600401610be29061589c565b60408051606081018252600080825260016020830152600292820192909252905b60038110156136dd57613683828260038110613677577f4e487b7100000000000000000000000000000000000000000000000000000000600052603260045260246000fd5b60200201516001612a2a565b6136cb8282600381106136bf577f4e487b7100000000000000000000000000000000000000000000000000000000600052603260045260246000fd5b60200201516004613725565b806136d581615ba0565b915050613632565b506000600a81905560048181556005919091556006546040517f38960c0800e981febc869f33d307d21683c7a1f85845bfe665071f160292c0809261166292914291906159e3565b600060136000846002811115613764577f4e487b7100000000000000000000000000000000000000000000000000000000600052602160045260246000fd5b600281111561379c577f4e487b7100000000000000000000000000000000000000000000000000000000600052602160045260246000fd5b8152602081019190915260400160002060028101805491925083917fffffffffffffffffffffffffffffffffffffffffffffffffffffffffffffff00166001836004811115613814577f4e487b7100000000000000000000000000000000000000000000000000000000600052602160045260246000fd5b0217905550505050565b6000806013600084600281111561385e577f4e487b7100000000000000000000000000000000000000000000000000000000600052602160045260246000fd5b6002811115613896577f4e487b7100000000000000000000000000000000000000000000000000000000600052602160045260246000fd5b815260208101919091526040016000206002015460ff169392505050565b6000601260008360028111156138f3577f4e487b7100000000000000000000000000000000000000000000000000000000600052602160045260246000fd5b600281111561392b577f4e487b7100000000000000000000000000000000000000000000000000000000600052602160045260246000fd5b815260200190815260200160002060006006548152602001908152602001600020905060006013600084600281111561398d577f4e487b7100000000000000000000000000000000000000000000000000000000600052602160045260246000fd5b60028111156139c5577f4e487b7100000000000000000000000000000000000000000000000000000000600052602160045260246000fd5b8152602001908152602001600020600101549050600060648260196139ea9190615a77565b6139f49190615a63565b905060006064613a0584600f615a77565b613a0f9190615a63565b905060006064613a2085600a615a77565b613a2a9190615a63565b905060405180606001604052808481526020018381526020018281525085600401906003613a59929190614a22565b50505050505050565b333b15613a9b576040517f08c379a0000000000000000000000000000000000000000000000000000000008152600401610be29061586c565b333214613ad4576040517f08c379a0000000000000000000000000000000000000000000000000000000008152600401610be2906158dc565b8260156000826002811115613b12577f4e487b7100000000000000000000000000000000000000000000000000000000600052602160045260246000fd5b6002811115613b4a577f4e487b7100000000000000000000000000000000000000000000000000000000600052602160045260246000fd5b815260208082019290925260409081016000908120338252909252902054613b9e576040517f08c379a0000000000000000000000000000000000000000000000000000000008152600401610be29061585c565b60026000541415613bdb576040517f08c379a0000000000000000000000000000000000000000000000000000000008152600401610be29061596c565b600260008181556015918690811115613c1d577f4e487b7100000000000000000000000000000000000000000000000000000000600052602160045260246000fd5b6002811115613c55577f4e487b7100000000000000000000000000000000000000000000000000000000600052602160045260246000fd5b8152602080820192909252604090810160009081203382529092529020548314613cab576040517f08c379a0000000000000000000000000000000000000000000000000000000008152600401610be29061597c565b600260136000866002811115613cea577f4e487b7100000000000000000000000000000000000000000000000000000000600052602160045260246000fd5b6002811115613d22577f4e487b7100000000000000000000000000000000000000000000000000000000600052602160045260246000fd5b815260208101919091526040016000206002015460ff166004811115613d71577f4e487b7100000000000000000000000000000000000000000000000000000000600052602160045260246000fd5b14613da8576040517f08c379a0000000000000000000000000000000000000000000000000000000008152600401610be29061594c565b613db28483611ca4565b613dbd848351610a1f565b600060156000866002811115613dfc577f4e487b7100000000000000000000000000000000000000000000000000000000600052602160045260246000fd5b6002811115613e34577f4e487b7100000000000000000000000000000000000000000000000000000000600052602160045260246000fd5b8152602080820192909252604090810160009081203380835293528190209290925560065491517f2c173f4ba2da4849fb4c77f9d6ddc4672ce502af948c755bbe001196ede5338991613e8b918891908890615781565b60405180910390a2505060016000555050565b60025473ffffffffffffffffffffffffffffffffffffffff163314613eef576040517f08c379a0000000000000000000000000000000000000000000000000000000008152600401610be2906158ec565b73ffffffffffffffffffffffffffffffffffffffff8116613f3c576040517f08c379a0000000000000000000000000000000000000000000000000000000008152600401610be29061584c565b60025460405173ffffffffffffffffffffffffffffffffffffffff8084169216907f8be0079c531659141344cd1fd0a4f28419497f9722a3daafe3b4186f6b6457e090600090a3600280547fffffffffffffffffffffffff00000000000000000000000000000000000000001673ffffffffffffffffffffffffffffffffffffffff92909216919091179055565b61406b8363a9059cbb60e01b8484604051602401613fe99291906156a3565b604080517fffffffffffffffffffffffffffffffffffffffffffffffffffffffffffffffe08184030181529190526020810180517bffffffffffffffffffffffffffffffffffffffffffffffffffffffff167fffffffff000000000000000000000000000000000000000000000000000000009093169290921790915261420c565b505050565b61214b846323b872dd60e01b858585604051602401613fe99392919061567b565b60008281526014602052604081205460ff16906140ae82846142c2565b905061214b8282614480565b60007f000000000000000000000000000000000000000000000000000000000000000073ffffffffffffffffffffffffffffffffffffffff16634000aea07f00000000000000000000000000000000000000000000000000000000000000008486600060405160200161412e929190615730565b6040516020818303038152906040526040518463ffffffff1660e01b815260040161415b939291906156be565b602060405180830381600087803b15801561417557600080fd5b505af1158015614189573d6000803e3d6000fd5b505050506040513d601f19601f820116820180604052508101906141ad9190614c2a565b506000838152600160205260408120546141cc908590839030906147d1565b6000858152600160208190526040909120549192506141eb9190615a4b565b6000858152600160205260409020556142048482614829565b949350505050565b600061426e826040518060400160405280602081526020017f5361666545524332303a206c6f772d6c6576656c2063616c6c206661696c65648152508573ffffffffffffffffffffffffffffffffffffffff1661485c9092919063ffffffff16565b80519091501561406b578080602001905181019061428c9190614c2a565b61406b576040517f08c379a0000000000000000000000000000000000000000000000000000000008152600401610be29061595c565b6060600060126000856002811115614303577f4e487b7100000000000000000000000000000000000000000000000000000000600052602160045260246000fd5b600281111561433b577f4e487b7100000000000000000000000000000000000000000000000000000000600052602160045260246000fd5b81526020019081526020016000206000600654815260200190815260200160002090506000600b5467ffffffffffffffff8111156143a2577f4e487b7100000000000000000000000000000000000000000000000000000000600052604160045260246000fd5b6040519080825280602002602001820160405280156143cb578160200160208202803683370190505b50905060005b600b5481101561447757826001015485826040516020016143f3929190615730565b6040516020818303038152906040528051906020012060001c6144169190615bd9565b614421906001615a4b565b82828151811061445a577f4e487b7100000000000000000000000000000000000000000000000000000000600052603260045260246000fd5b60209081029190910101528061446f81615ba0565b9150506143d1565b50949350505050565b6000601260008460028111156144bf577f4e487b7100000000000000000000000000000000000000000000000000000000600052602160045260246000fd5b60028111156144f7577f4e487b7100000000000000000000000000000000000000000000000000000000600052602160045260246000fd5b815260200190815260200160002060006006548152602001908152602001600020905060005b600b548110156147c5576000826001015460075461453b9190615ab4565b90506000848381518110614578577f4e487b7100000000000000000000000000000000000000000000000000000000600052603260045260246000fd5b60200260200101518261458b9190615a4b565b9050601060008760028111156145ca577f4e487b7100000000000000000000000000000000000000000000000000000000600052602160045260246000fd5b6002811115614602577f4e487b7100000000000000000000000000000000000000000000000000000000600052602160045260246000fd5b81526020808201929092526040908101600090812084825290925290205460068501805463ffffffff9092169185908110614666577f4e487b7100000000000000000000000000000000000000000000000000000000600052603260045260246000fd5b9060005260206000200181905550601060008760028111156146b1577f4e487b7100000000000000000000000000000000000000000000000000000000600052602160045260246000fd5b60028111156146e9577f4e487b7100000000000000000000000000000000000000000000000000000000600052602160045260246000fd5b8152602001908152602001600020600082815260200190815260200160002060000160049054906101000a900473ffffffffffffffffffffffffffffffffffffffff16846005018481548110614768577f4e487b7100000000000000000000000000000000000000000000000000000000600052603260045260246000fd5b9060005260206000200160006101000a81548173ffffffffffffffffffffffffffffffffffffffff021916908373ffffffffffffffffffffffffffffffffffffffff160217905550505080806147bd90615ba0565b91505061451d565b5061406b836003613725565b6000848484846040516020016147ea949392919061573e565b604080517fffffffffffffffffffffffffffffffffffffffffffffffffffffffffffffffe0818403018152919052805160209091012095945050505050565b6000828260405160200161483e929190615628565b60405160208183030381529060405280519060200120905092915050565b606061486b8484600085614875565b90505b9392505050565b6060824710156148b1576040517f08c379a0000000000000000000000000000000000000000000000000000000008152600401610be29061588c565b843b6148e9576040517f08c379a0000000000000000000000000000000000000000000000000000000008152600401610be29061593c565b6000808673ffffffffffffffffffffffffffffffffffffffff1685876040516149129190615648565b60006040518083038185875af1925050503d806000811461494f576040519150601f19603f3d011682016040523d82523d6000602084013e614954565b606091505b509150915061496482828661496f565b979650505050505050565b6060831561497e57508161486e565b82511561498e5782518084602001fd5b816040517f08c379a0000000000000000000000000000000000000000000000000000000008152600401610be2919061582b565b6040518060800160405280600081526020016000815260200160006002811115614a15577f4e487b7100000000000000000000000000000000000000000000000000000000600052602160045260246000fd5b8152602001600081525090565b828054828255906000526020600020908101928215614a5d579160200282015b82811115614a5d578251825591602001919060010190614a42565b50614a69929150614a6d565b5090565b5b80821115614a695760008155600101614a6e565b6000614a95614a9084615a27565b615a0b565b90508083825260208201905082856020860285011115614ab457600080fd5b60005b85811015614ade57614ac98783614b9c565b83526020928301929190910190600101614ab7565b5050509392505050565b8035611c9e81615cd8565b600082601f830112614b03578081fd5b8135614204848260208601614a82565b8035611c9e81615cec565b8051611c9e81615cec565b8035611c9e81615cf4565b60008083601f840112614b45578182fd5b50813567ffffffffffffffff811115614b5c578182fd5b602083019150836001820283011115614b7457600080fd5b9250929050565b8035611c9e81615cfa565b8035611c9e81615d07565b8051611c9e81615cf4565b8035611c9e81615d14565b600060208284031215614bb8578081fd5b61486e83828401614ae8565b60008060408385031215614bd6578081fd5b614be284828501614ae8565b91506020614bf285828601614ae8565b9150509250929050565b60008060408385031215614c0e578182fd5b614c1a84838501614ae8565b91506020614bf285828601614b29565b600060208284031215614c3b578081fd5b61486e83828401614b1e565b60008060408385031215614c59578182fd5b614c1a84838501614b29565b60008060208385031215614c77578182fd5b8183013567ffffffffffffffff811115614c8f578283fd5b614c9b85828601614b34565b92509250509250929050565b600060208284031215614cb8578081fd5b61486e83828401614b7b565b60008060408385031215614cd6578182fd5b614be284838501614b7b565b60008060408385031215614cf4578182fd5b614d0084838501614b7b565b9150602083013567ffffffffffffffff811115614d1b578182fd5b614bf285828601614af3565b60008060408385031215614d39578182fd5b614d4584838501614b7b565b91506020614bf285828601614b13565b60008060408385031215614d67578182fd5b614d7384838501614b7b565b91506020614bf285828601614b86565b60008060408385031215614d95578182fd5b614c1a84838501614b7b565b600080600060608486031215614db5578081fd5b614dc185828601614b7b565b92506020614dd186828701614b29565b925050604084013567ffffffffffffffff811115614ded578182fd5b614df986828701614af3565b9150509250925092565b60008060408385031215614e15578182fd5b614e2184838501614b29565b91506020614bf285828601614b7b565b600060208284031215614e42578081fd5b61486e83828401614b91565b614e588282614e69565b5060200190565b614e588282614f49565b614e7281615acb565b82525050565b6000614e82825190565b8084526020938401938301825b82811015614eb4578151614ea38782614e4e565b965050602082019150600101614e8f565b5093949350505050565b6000614ec8825490565b8084526000838152602090819020940193825b82811015614eb457614eec82615ca9565b614ef68782614e4e565b96505060019182019101614edb565b6000614f0f825190565b8084526020938401938301825b82811015614eb4578151614f308782614e5f565b965050602082019150600101614f1c565b801515614e72565b80614e72565b6000614f59825190565b808452602084019350614f70818560208601615b29565b601f017fffffffffffffffffffffffffffffffffffffffffffffffffffffffffffffffe0169290920192915050565b6000614fa9825190565b614fb7818560208601615b29565b9290920192915050565b614e7281615afd565b614e7281615b08565b614e7281615b13565b614e7281615b1e565b601d8152602081017f596f7520646f206e6f74206861766520616e7920726f6c6c6f76657273000000815290505b60200190565b60268152602081017f4f776e61626c653a206e6577206f776e657220697320746865207a65726f206181527f6464726573730000000000000000000000000000000000000000000000000000602082015290505b60400190565b60148152602081017f596f752068617665206e6f20726f6c6c6f76657200000000000000000000000081529050615013565b60148152602081017f436f6e7472616374206e6f7420616c6c6f77656400000000000000000000000081529050615013565b602b8152602081017f4e6f7420656e6f756768204c494e4b202d2066696c6c20636f6e74726163742081527f77697468206661756365740000000000000000000000000000000000000000006020820152905061506d565b60268152602081017f416464726573733a20696e73756666696369656e742062616c616e636520666f81527f722063616c6c00000000000000000000000000000000000000000000000000006020820152905061506d565b60278152602081017f536f7272792063616e206e6f74206465616374697661746520612076616c696481527f20726166666c65000000000000000000000000000000000000000000000000006020820152905061506d565b60168152602081017f43616e6e6f74206265207a65726f20616464726573730000000000000000000081529050615013565b60198152602081017f5265626f6f7420636865636b206e6f7420636f6d706c6574650000000000000081529050615013565b60138152602081017f4e6f207469636b6574207370656369666965640000000000000000000000000081529050615013565b601a8152602081017f50726f787920636f6e7472616374206e6f7420616c6c6f77656400000000000081529050615013565b60208082527f4f776e61626c653a2063616c6c6572206973206e6f7420746865206f776e65729101908152615013565b601f8152602081017f4f6e6c7920565246436f6f7264696e61746f722063616e2066756c66696c6c0081529050615013565b60148152602081017f43616e6e6f74206265205553444320746f6b656e00000000000000000000000081529050615013565b60158152602081017f4e6f74206f776e6572206f7220696e6a6563746f72000000000000000000000081529050615013565b602f8152602081017f536f7272792063616e20616374697661746520617320726166666c652069732081527f6e6f7420646561637469766174656400000000000000000000000000000000006020820152905061506d565b601d8152602081017f416464726573733a2063616c6c20746f206e6f6e2d636f6e747261637400000081529050615013565b600f8152602081017f526166666c65206e6f74206f70656e000000000000000000000000000000000081529050615013565b602a8152602081017f5361666545524332303a204552433230206f7065726174696f6e20646964206e81527f6f742073756363656564000000000000000000000000000000000000000000006020820152905061506d565b601f8152602081017f5265656e7472616e637947756172643a207265656e7472616e742063616c6c0081529050615013565b601f8152602081017f6e6f206d6174636820696e207469636b65747320746f20726f6c6c6f7665720081529050615013565b60108152602081017f546f6f206d616e79207469636b6574730000000000000000000000000000000081529050615013565b805160009061012084019061552c8582614f49565b50602083015161553f6020860182614f49565b5060408301516155526040860182614f49565b5060608301516155656060860182614f49565b506080830151848203608086015261557d8282614f05565b91505060a083015184820360a08601526155978282614e78565b91505060c083015184820360c08601526155b18282614f05565b91505060e08301516155c660e0860182614f49565b506101008301516155db610100860182614f49565b509392505050565b80516155ef8382614f49565b5060208101516156026020840182614f49565b5060408101516156156040840182614fca565b50606081015161406b6060840182614f49565b6156328184614f49565b60200161563f8183614f49565b60200192915050565b611c9e8183614f9f565b60208101611c9e8284614e69565b6040810161566e8285614e69565b61486e6020830184614e69565b606081016156898286614e69565b6156966020830185614e69565b6142046040830184614f49565b604081016156b18285614e69565b61486e6020830184614f49565b606081016156cc8286614e69565b6156d96020830185614f49565b81810360408301526156eb8184614f4f565b95945050505050565b60208101611c9e8284614f41565b604081016157108285614f41565b818103602083015261486b8184614f4f565b60208101611c9e8284614f49565b604081016156b18285614f49565b6080810161574c8287614f49565b6157596020830186614f49565b6157666040830185614e69565b6156eb6060830184614f49565b60208101611c9e8284614fc1565b606081016156898286614fca565b6080810161579d8287614fca565b81810360208301526157af8186614ebe565b90506157666040830185614f49565b604081016157cc8285614fca565b61486e6020830184614fd3565b604081016156b18285614fca565b606081016157f58286614fca565b6156966020830185614f49565b60208101611c9e8284614fd3565b6040810161581e8285614fdc565b61486e6020830184614fca565b6020808252810161486e8184614f4f565b60208082528101611c9e81614fe5565b60208082528101611c9e81615019565b60208082528101611c9e81615073565b60208082528101611c9e816150a5565b60208082528101611c9e816150d7565b60208082528101611c9e8161512f565b60208082528101611c9e81615187565b60208082528101611c9e816151df565b60208082528101611c9e81615211565b60208082528101611c9e81615243565b60208082528101611c9e81615275565b60208082528101611c9e816152a7565b60208082528101611c9e816152d7565b60208082528101611c9e81615309565b60208082528101611c9e8161533b565b60208082528101611c9e8161536d565b60208082528101611c9e816153c5565b60208082528101611c9e816153f7565b60208082528101611c9e81615429565b60208082528101611c9e81615481565b60208082528101611c9e816154b3565b60208082528101611c9e816154e5565b6020808252810161486e8184615517565b60808101611c9e82846155e3565b608081016159c98287614f49565b6159d66020830186614f49565b6157666040830185614fca565b606081016159f18286614f49565b6159fe6020830185614f49565b6142046040830184614fd3565b6000615a1660405190565b9050615a228282615b55565b919050565b600067ffffffffffffffff821115615a4157615a41615c7a565b5060209081020190565b60008219821115615a5e57615a5e615bed565b500190565b600082615a7257615a72615c1c565b500490565b6000817fffffffffffffffffffffffffffffffffffffffffffffffffffffffffffffffff0483118215151615615aaf57615aaf615bed565b500290565b600082821015615ac657615ac6615bed565b500390565b600073ffffffffffffffffffffffffffffffffffffffff8216611c9e565b80615a2281615cb5565b80615a2281615cc8565b6000611c9e82615acb565b6000611c9e82615ae9565b6000611c9e82615af3565b600060ff8216611c9e565b60005b83811015615b44578181015183820152602001615b2c565b8381111561214b5750506000910152565b7fffffffffffffffffffffffffffffffffffffffffffffffffffffffffffffffe0601f830116810181811067ffffffffffffffff82111715615b9957615b99615c7a565b6040525050565b60007fffffffffffffffffffffffffffffffffffffffffffffffffffffffffffffffff821415615bd257615bd2615bed565b5060010190565b600082615be857615be8615c1c565b500690565b7f4e487b7100000000000000000000000000000000000000000000000000000000600052601160045260246000fd5b7f4e487b7100000000000000000000000000000000000000000000000000000000600052601260045260246000fd5b7f4e487b7100000000000000000000000000000000000000000000000000000000600052602160045260246000fd5b7f4e487b7100000000000000000000000000000000000000000000000000000000600052604160045260246000fd5b6000611c9e8254615acb565b60038110615cc557615cc5615c4b565b50565b60058110615cc557615cc5615c4b565b615ce181615acb565b8114615cc557600080fd5b801515615ce1565b80615ce1565b60038110615cc557600080fd5b60058110615cc557600080fd5b63ffffffff8116615ce156fea26469706673582212206f682e0bfcc1e1d0c58979d1d52efb2c82251d18869793194639f4b7da4001b764736f6c63430008040033",
  "linkReferences": {},
  "deployedLinkReferences": {}
}