{
  "_format": "hh-sol-artifact-1",
  "contractName": "PolylottoRaffle",
  "sourceName": "contracts/PolyLottoRaffle.sol",
  "abi": [
    {
      "inputs": [
        {
          "internalType": "address",
          "name": "_raffleToken",
          "type": "address"
        },
        {
          "internalType": "uint256",
          "name": "_amountOfTokenPerStable",
          "type": "uint256"
        }
      ],
      "stateMutability": "nonpayable",
      "type": "constructor"
    },
    {
      "anonymous": false,
      "inputs": [
        {
          "indexed": false,
          "internalType": "address",
          "name": "token",
          "type": "address"
        },
        {
          "indexed": false,
          "internalType": "uint256",
          "name": "amount",
          "type": "uint256"
        }
      ],
      "name": "AdminTokenRecovery",
      "type": "event"
    },
    {
      "anonymous": false,
      "inputs": [
        {
          "indexed": false,
          "internalType": "enum IPolyLottoRaffle.RaffleCategory",
          "name": "raffleCategory",
          "type": "uint8"
        },
        {
          "indexed": true,
          "internalType": "uint256",
          "name": "raffleId",
          "type": "uint256"
        },
        {
          "indexed": false,
          "internalType": "uint256",
          "name": "injectedAmount",
          "type": "uint256"
        }
      ],
      "name": "LotteryInjection",
      "type": "event"
    },
    {
      "anonymous": false,
      "inputs": [
        {
          "indexed": false,
          "internalType": "address",
          "name": "_operatorAddress",
          "type": "address"
        },
        {
          "indexed": false,
          "internalType": "address",
          "name": "_treasuryAddress",
          "type": "address"
        },
        {
          "indexed": false,
          "internalType": "address",
          "name": "_injectorAddress",
          "type": "address"
        }
      ],
      "name": "NewOperatorAndTreasuryAndInjectorAddresses",
      "type": "event"
    },
    {
      "anonymous": false,
      "inputs": [
        {
          "indexed": false,
          "internalType": "uint256",
          "name": "txIndex",
          "type": "uint256"
        },
        {
          "indexed": false,
          "internalType": "uint256",
          "name": "timestamp",
          "type": "uint256"
        },
        {
          "indexed": false,
          "internalType": "address",
          "name": "user",
          "type": "address"
        },
        {
          "indexed": false,
          "internalType": "enum IPolyLottoRaffle.RaffleCategory",
          "name": "raffleCategory",
          "type": "uint8"
        },
        {
          "indexed": false,
          "internalType": "uint256",
          "name": "noOfTickets",
          "type": "uint256"
        },
        {
          "indexed": false,
          "internalType": "string",
          "name": "description",
          "type": "string"
        }
      ],
      "name": "NewUserTransaction",
      "type": "event"
    },
    {
      "anonymous": false,
      "inputs": [
        {
          "indexed": true,
          "internalType": "address",
          "name": "previousOwner",
          "type": "address"
        },
        {
          "indexed": true,
          "internalType": "address",
          "name": "newOwner",
          "type": "address"
        }
      ],
      "name": "OwnershipTransferred",
      "type": "event"
    },
    {
      "anonymous": false,
      "inputs": [
        {
          "indexed": false,
          "internalType": "uint256",
          "name": "raffleID",
          "type": "uint256"
        },
        {
          "indexed": false,
          "internalType": "uint256",
          "name": "timeStamp",
          "type": "uint256"
        },
        {
          "indexed": false,
          "internalType": "enum IPolyLottoRaffle.RaffleState",
          "name": "raffleState",
          "type": "uint8"
        }
      ],
      "name": "RaffleDeactivated",
      "type": "event"
    },
    {
      "anonymous": false,
      "inputs": [
        {
          "indexed": false,
          "internalType": "enum IPolyLottoRaffle.RaffleCategory",
          "name": "category",
          "type": "uint8"
        },
        {
          "indexed": true,
          "internalType": "uint256",
          "name": "raffleId",
          "type": "uint256"
        },
        {
          "indexed": false,
          "internalType": "enum IPolyLottoRaffle.RaffleState",
          "name": "raffleState",
          "type": "uint8"
        }
      ],
      "name": "RaffleEnded",
      "type": "event"
    },
    {
      "anonymous": false,
      "inputs": [
        {
          "indexed": true,
          "internalType": "uint256",
          "name": "raffleId",
          "type": "uint256"
        },
        {
          "indexed": false,
          "internalType": "uint256",
          "name": "endTime",
          "type": "uint256"
        },
        {
          "indexed": false,
          "internalType": "uint256",
          "name": "rebootEndTime",
          "type": "uint256"
        },
        {
          "indexed": false,
          "internalType": "enum IPolyLottoRaffle.RaffleState",
          "name": "raffleState",
          "type": "uint8"
        }
      ],
      "name": "RaffleOpen",
      "type": "event"
    },
    {
      "anonymous": false,
      "inputs": [
        {
          "indexed": false,
          "internalType": "uint256",
          "name": "raffleID",
          "type": "uint256"
        },
        {
          "indexed": false,
          "internalType": "uint256",
          "name": "timeStamp",
          "type": "uint256"
        },
        {
          "indexed": false,
          "internalType": "enum IPolyLottoRaffle.RaffleState",
          "name": "raffleState",
          "type": "uint8"
        }
      ],
      "name": "RaffleReactivated",
      "type": "event"
    },
    {
      "anonymous": false,
      "inputs": [
        {
          "indexed": false,
          "internalType": "enum IPolyLottoRaffle.RaffleCategory",
          "name": "raffleCategory",
          "type": "uint8"
        },
        {
          "indexed": true,
          "internalType": "uint256",
          "name": "raffleId",
          "type": "uint256"
        },
        {
          "indexed": false,
          "internalType": "address",
          "name": "buyer",
          "type": "address"
        },
        {
          "indexed": false,
          "internalType": "uint32[]",
          "name": "tickets",
          "type": "uint32[]"
        }
      ],
      "name": "RolloverClaimed",
      "type": "event"
    },
    {
      "anonymous": false,
      "inputs": [
        {
          "indexed": false,
          "internalType": "enum IPolyLottoRaffle.RaffleCategory",
          "name": "raffleCategory",
          "type": "uint8"
        },
        {
          "indexed": true,
          "internalType": "uint256",
          "name": "raffleId",
          "type": "uint256"
        },
        {
          "indexed": false,
          "internalType": "uint32[]",
          "name": "tickets",
          "type": "uint32[]"
        },
        {
          "indexed": false,
          "internalType": "uint256",
          "name": "rafflePool",
          "type": "uint256"
        },
        {
          "indexed": false,
          "internalType": "uint256[]",
          "name": "winnersPayout",
          "type": "uint256[]"
        }
      ],
      "name": "TicketsPurchased",
      "type": "event"
    },
    {
      "anonymous": false,
      "inputs": [
        {
          "indexed": false,
          "internalType": "enum IPolyLottoRaffle.RaffleCategory",
          "name": "raffleCategory",
          "type": "uint8"
        },
        {
          "indexed": true,
          "internalType": "uint256",
          "name": "raffleId",
          "type": "uint256"
        },
        {
          "indexed": false,
          "internalType": "uint256",
          "name": "noOfTicketsRollovered",
          "type": "uint256"
        }
      ],
      "name": "TicketsRollovered",
      "type": "event"
    },
    {
      "anonymous": false,
      "inputs": [
        {
          "indexed": false,
          "internalType": "enum IPolyLottoRaffle.RaffleCategory",
          "name": "raffleCategory",
          "type": "uint8"
        },
        {
          "indexed": false,
          "internalType": "address[]",
          "name": "winners",
          "type": "address[]"
        },
        {
          "indexed": false,
          "internalType": "uint256",
          "name": "amount",
          "type": "uint256"
        },
        {
          "indexed": false,
          "internalType": "uint256",
          "name": "timestamp",
          "type": "uint256"
        }
      ],
      "name": "WinnersAwarded",
      "type": "event"
    },
    {
      "anonymous": false,
      "inputs": [
        {
          "indexed": false,
          "internalType": "uint256",
          "name": "raffleID",
          "type": "uint256"
        },
        {
          "indexed": false,
          "internalType": "uint256",
          "name": "amount",
          "type": "uint256"
        }
      ],
      "name": "WithdrawalComplete",
      "type": "event"
    },
    {
      "inputs": [
        {
          "internalType": "enum IPolyLottoRaffle.RaffleCategory",
          "name": "_category",
          "type": "uint8"
        },
        {
          "internalType": "uint32[]",
          "name": "_tickets",
          "type": "uint32[]"
        }
      ],
      "name": "buyTickets",
      "outputs": [],
      "stateMutability": "nonpayable",
      "type": "function"
    },
    {
      "inputs": [],
      "name": "deactivateRaffle",
      "outputs": [],
      "stateMutability": "nonpayable",
      "type": "function"
    },
    {
      "inputs": [],
      "name": "getNoOfWinners",
      "outputs": [
        {
          "internalType": "uint256",
          "name": "",
          "type": "uint256"
        }
      ],
      "stateMutability": "view",
      "type": "function"
    },
    {
      "inputs": [
        {
          "internalType": "enum IPolyLottoRaffle.RaffleCategory",
          "name": "_category",
          "type": "uint8"
        },
        {
          "internalType": "uint256",
          "name": "_raffleID",
          "type": "uint256"
        }
      ],
      "name": "getRaffle",
      "outputs": [
        {
          "components": [
            {
              "internalType": "uint256",
              "name": "ID",
              "type": "uint256"
            },
            {
              "internalType": "uint256",
              "name": "noOfTicketsSold",
              "type": "uint256"
            },
            {
              "internalType": "uint256",
              "name": "noOfPlayers",
              "type": "uint256"
            },
            {
              "internalType": "uint256",
              "name": "amountInjected",
              "type": "uint256"
            },
            {
              "internalType": "uint256[]",
              "name": "winnersPayout",
              "type": "uint256[]"
            },
            {
              "internalType": "address[]",
              "name": "winners",
              "type": "address[]"
            },
            {
              "internalType": "uint256[]",
              "name": "winningTickets",
              "type": "uint256[]"
            },
            {
              "internalType": "uint256",
              "name": "raffleStartTime",
              "type": "uint256"
            },
            {
              "internalType": "uint256",
              "name": "raffleEndTime",
              "type": "uint256"
            },
            {
              "internalType": "bool",
              "name": "rollover",
              "type": "bool"
            }
          ],
          "internalType": "struct IPolyLottoRaffle.RaffleStruct",
          "name": "raffle",
          "type": "tuple"
        }
      ],
      "stateMutability": "view",
      "type": "function"
    },
    {
      "inputs": [
        {
          "internalType": "enum IPolyLottoRaffle.RaffleCategory",
          "name": "_category",
          "type": "uint8"
        }
      ],
      "name": "getRaffleData",
      "outputs": [
        {
          "components": [
            {
              "internalType": "uint256",
              "name": "ticketPrice",
              "type": "uint256"
            },
            {
              "internalType": "uint256",
              "name": "rafflePool",
              "type": "uint256"
            },
            {
              "internalType": "enum IPolyLottoRaffle.RaffleState",
              "name": "raffleState",
              "type": "uint8"
            }
          ],
          "internalType": "struct IPolyLottoRaffle.RaffleData",
          "name": "raffleData",
          "type": "tuple"
        }
      ],
      "stateMutability": "view",
      "type": "function"
    },
    {
      "inputs": [],
      "name": "getRaffleEndTime",
      "outputs": [
        {
          "internalType": "uint256",
          "name": "",
          "type": "uint256"
        }
      ],
      "stateMutability": "view",
      "type": "function"
    },
    {
      "inputs": [],
      "name": "getRaffleID",
      "outputs": [
        {
          "internalType": "uint256",
          "name": "",
          "type": "uint256"
        }
      ],
      "stateMutability": "view",
      "type": "function"
    },
    {
      "inputs": [
        {
          "internalType": "enum IPolyLottoRaffle.RaffleCategory",
          "name": "_category",
          "type": "uint8"
        }
      ],
      "name": "getRandomGenChecker",
      "outputs": [
        {
          "internalType": "bool",
          "name": "",
          "type": "bool"
        }
      ],
      "stateMutability": "view",
      "type": "function"
    },
    {
      "inputs": [],
      "name": "getRebootChecker",
      "outputs": [
        {
          "internalType": "uint256",
          "name": "",
          "type": "uint256"
        }
      ],
      "stateMutability": "view",
      "type": "function"
    },
    {
      "inputs": [],
      "name": "getRebootEndTime",
      "outputs": [
        {
          "internalType": "uint256",
          "name": "",
          "type": "uint256"
        }
      ],
      "stateMutability": "view",
      "type": "function"
    },
    {
      "inputs": [
        {
          "internalType": "address",
          "name": "_user",
          "type": "address"
        }
      ],
      "name": "getUserTransactionCount",
      "outputs": [
        {
          "internalType": "uint256",
          "name": "",
          "type": "uint256"
        }
      ],
      "stateMutability": "view",
      "type": "function"
    },
    {
      "inputs": [
        {
          "internalType": "enum IPolyLottoRaffle.RaffleCategory",
          "name": "_category",
          "type": "uint8"
        }
      ],
      "name": "getWinners",
      "outputs": [],
      "stateMutability": "nonpayable",
      "type": "function"
    },
    {
      "inputs": [
        {
          "internalType": "address",
          "name": "_user",
          "type": "address"
        },
        {
          "internalType": "uint256",
          "name": "_txIndex",
          "type": "uint256"
        }
      ],
      "name": "getuserTransactionHistory",
      "outputs": [
        {
          "components": [
            {
              "internalType": "uint256",
              "name": "txID",
              "type": "uint256"
            },
            {
              "internalType": "uint256",
              "name": "time",
              "type": "uint256"
            },
            {
              "internalType": "enum IPolyLottoRaffle.RaffleCategory",
              "name": "raffleCategory",
              "type": "uint8"
            },
            {
              "internalType": "uint256",
              "name": "noOfTickets",
              "type": "uint256"
            },
            {
              "internalType": "string",
              "name": "description",
              "type": "string"
            }
          ],
          "internalType": "struct PolylottoRaffle.Transaction",
          "name": "userTransaction",
          "type": "tuple"
        }
      ],
      "stateMutability": "view",
      "type": "function"
    },
    {
      "inputs": [
        {
          "internalType": "enum IPolyLottoRaffle.RaffleCategory",
          "name": "_category",
          "type": "uint8"
        },
        {
          "internalType": "uint256",
          "name": "_amount",
          "type": "uint256"
        }
      ],
      "name": "injectFunds",
      "outputs": [],
      "stateMutability": "nonpayable",
      "type": "function"
    },
    {
      "inputs": [],
      "name": "injectorAddress",
      "outputs": [
        {
          "internalType": "address",
          "name": "",
          "type": "address"
        }
      ],
      "stateMutability": "view",
      "type": "function"
    },
    {
      "inputs": [],
      "name": "maxNumberTicketsPerBuy",
      "outputs": [
        {
          "internalType": "uint256",
          "name": "",
          "type": "uint256"
        }
      ],
      "stateMutability": "view",
      "type": "function"
    },
    {
      "inputs": [],
      "name": "noOfWinners",
      "outputs": [
        {
          "internalType": "uint256",
          "name": "",
          "type": "uint256"
        }
      ],
      "stateMutability": "view",
      "type": "function"
    },
    {
      "inputs": [],
      "name": "operatorAddress",
      "outputs": [
        {
          "internalType": "address",
          "name": "",
          "type": "address"
        }
      ],
      "stateMutability": "view",
      "type": "function"
    },
    {
      "inputs": [],
      "name": "owner",
      "outputs": [
        {
          "internalType": "address",
          "name": "",
          "type": "address"
        }
      ],
      "stateMutability": "view",
      "type": "function"
    },
    {
      "inputs": [
        {
          "internalType": "enum IPolyLottoRaffle.RaffleCategory",
          "name": "_category",
          "type": "uint8"
        }
      ],
      "name": "payoutWinners",
      "outputs": [],
      "stateMutability": "nonpayable",
      "type": "function"
    },
    {
      "inputs": [],
      "name": "polylottoKeeper",
      "outputs": [
        {
          "internalType": "address",
          "name": "",
          "type": "address"
        }
      ],
      "stateMutability": "view",
      "type": "function"
    },
    {
      "inputs": [],
      "name": "priceUpdater",
      "outputs": [
        {
          "internalType": "address",
          "name": "",
          "type": "address"
        }
      ],
      "stateMutability": "view",
      "type": "function"
    },
    {
      "inputs": [],
      "name": "raffleToken",
      "outputs": [
        {
          "internalType": "contract IERC20",
          "name": "",
          "type": "address"
        }
      ],
      "stateMutability": "view",
      "type": "function"
    },
    {
      "inputs": [],
      "name": "randomGenerator",
      "outputs": [
        {
          "internalType": "address",
          "name": "",
          "type": "address"
        }
      ],
      "stateMutability": "view",
      "type": "function"
    },
    {
      "inputs": [],
      "name": "reactivateRaffle",
      "outputs": [],
      "stateMutability": "nonpayable",
      "type": "function"
    },
    {
      "inputs": [
        {
          "internalType": "address",
          "name": "_tokenAddress",
          "type": "address"
        },
        {
          "internalType": "uint256",
          "name": "_tokenAmount",
          "type": "uint256"
        }
      ],
      "name": "recoverWrongTokens",
      "outputs": [],
      "stateMutability": "nonpayable",
      "type": "function"
    },
    {
      "inputs": [],
      "name": "renounceOwnership",
      "outputs": [],
      "stateMutability": "nonpayable",
      "type": "function"
    },
    {
      "inputs": [
        {
          "internalType": "enum IPolyLottoRaffle.RaffleCategory",
          "name": "_category",
          "type": "uint8"
        }
      ],
      "name": "rollover",
      "outputs": [],
      "stateMutability": "nonpayable",
      "type": "function"
    },
    {
      "inputs": [
        {
          "internalType": "address",
          "name": "_keeperAddress",
          "type": "address"
        },
        {
          "internalType": "address",
          "name": "_randomGenerator",
          "type": "address"
        }
      ],
      "name": "setKeeperAndRandomGeneratorAddress",
      "outputs": [],
      "stateMutability": "nonpayable",
      "type": "function"
    },
    {
      "inputs": [
        {
          "internalType": "address",
          "name": "_operatorAddress",
          "type": "address"
        },
        {
          "internalType": "address",
          "name": "_treasuryAddress",
          "type": "address"
        },
        {
          "internalType": "address",
          "name": "_injectorAddress",
          "type": "address"
        }
      ],
      "name": "setOperatorAndTreasuryAndInjectorAddresses",
      "outputs": [],
      "stateMutability": "nonpayable",
      "type": "function"
    },
    {
      "inputs": [
        {
          "internalType": "address",
          "name": "_priceUpdater",
          "type": "address"
        }
      ],
      "name": "setPriceUpdaterAddress",
      "outputs": [],
      "stateMutability": "nonpayable",
      "type": "function"
    },
    {
      "inputs": [
        {
          "internalType": "enum IPolyLottoRaffle.RaffleCategory",
          "name": "_category",
          "type": "uint8"
        },
        {
          "internalType": "bool",
          "name": "_drawCompleted",
          "type": "bool"
        }
      ],
      "name": "setRaffleAsDrawn",
      "outputs": [],
      "stateMutability": "nonpayable",
      "type": "function"
    },
    {
      "inputs": [
        {
          "internalType": "uint256",
          "name": "_amountOfTokenPerStable",
          "type": "uint256"
        }
      ],
      "name": "setTicketPrice",
      "outputs": [],
      "stateMutability": "nonpayable",
      "type": "function"
    },
    {
      "inputs": [],
      "name": "startRaffle",
      "outputs": [],
      "stateMutability": "nonpayable",
      "type": "function"
    },
    {
      "inputs": [
        {
          "internalType": "address",
          "name": "newOwner",
          "type": "address"
        }
      ],
      "name": "transferOwnership",
      "outputs": [],
      "stateMutability": "nonpayable",
      "type": "function"
    },
    {
      "inputs": [],
      "name": "treasuryAddress",
      "outputs": [
        {
          "internalType": "address",
          "name": "",
          "type": "address"
        }
      ],
      "stateMutability": "view",
      "type": "function"
    },
    {
      "inputs": [
        {
          "internalType": "address",
          "name": "_newTokenAddress",
          "type": "address"
        }
      ],
      "name": "updateRaffleToken",
      "outputs": [],
      "stateMutability": "nonpayable",
      "type": "function"
    },
    {
      "inputs": [
        {
          "internalType": "enum IPolyLottoRaffle.RaffleCategory",
          "name": "_category",
          "type": "uint8"
        },
        {
          "internalType": "address",
          "name": "_user",
          "type": "address"
        },
        {
          "internalType": "uint256",
          "name": "_raffleID",
          "type": "uint256"
        }
      ],
      "name": "viewUserTickets",
      "outputs": [
        {
          "internalType": "uint32[]",
          "name": "",
          "type": "uint32[]"
        }
      ],
      "stateMutability": "view",
      "type": "function"
    }
  ],
  "bytecode": "0x60c060405261a8c060805261070860a05260036008556103e86009553480156200002857600080fd5b5060405162006002380380620060028339810160408190526200004b91620001c1565b6001600081815581546001600160a01b031916339081179092556040518291907f8be0079c531659141344cd1fd0a4f28419497f9722a3daafe3b4186f6b6457e0908290a3506003600755601080546001600160a01b0319166001600160a01b038416179055620000bc81620000d1565b5050600f805460ff60a01b191690556200023c565b6000805260146020527f4f26c3876aa9f4b92579780beea1161a61f87ebf1ec6ee865b299e447ecba99c8190556200010b81600a6200021a565b600160005260146020527fb6c61a840592cc84133e4b25bd509abf4659307c57b160799b38490a5aa48f2c55620001448160646200021a565b600260005260146020527fa1930aa930426c54c34daad2b9ada7c5d0ef0c96078a3c5bb79f6fa6602c4a7a5550565b60006001600160a01b0382165b92915050565b620001918162000173565b81146200019d57600080fd5b50565b8051620001808162000186565b8062000191565b80516200018081620001ad565b60008060408385031215620001d957620001d9600080fd5b6000620001e78585620001a0565b9250506020620001fa85828601620001b4565b9150509250929050565b634e487b7160e01b600052601160045260246000fd5b600081600019048311821515161562000237576200023762000204565b500290565b60805160a051615da0620002626000396000610afd01526000610acd0152615da06000f3fe608060405234801561001057600080fd5b50600436106102925760003560e01c806367bb60a011610160578063baa2efbb116100d8578063d8f338401161008c578063dcbad90d11610071578063dcbad90d14610597578063f2fde38b146105b7578063fc612a8d146105ca57600080fd5b8063d8f338401461054e578063da4ca0391461058457600080fd5b8063c5f956af116100bd578063c5f956af14610508578063d1b8609914610528578063d1f477a81461053b57600080fd5b8063baa2efbb146104e0578063c1aba43f1461050057600080fd5b80638da5cb5b1161012f5780639c384653116101145780639c384653146104af5780639eb386fd146104cf578063ad99854b146104d757600080fd5b80638da5cb5b1461047157806392c1f29a1461048f57600080fd5b806367bb60a01461042e5780636de28ce914610441578063715018a6146104495780637cbd22fb1461045157600080fd5b806342b2ea511161020e5780635583e81c116101c25780635c0b95d4116101a75780635c0b95d4146103e6578063623378d5146103ee57806364b4fc8e1461040157600080fd5b80635583e81c146103cb57806356f689c0146103d357600080fd5b8063518da0a4116101f3578063518da0a41461038f57806352fc11e51461039857806353458558146103b857600080fd5b806342b2ea511461035e57806344ab1d5c1461036f57600080fd5b8063242284f1116102655780632b5afd091161024a5780632b5afd09146103255780633c50d529146103385780633f138d4b1461034b57600080fd5b8063242284f114610315578063269ce1bb1461031d57600080fd5b80630441717b14610297578063127effb2146102ac57806315981650146102e257806318386288146102f5575b600080fd5b6102aa6102a5366004614971565b6105ea565b005b600b546102cc9073ffffffffffffffffffffffffffffffffffffffff1681565b6040516102d991906149bf565b60405180910390f35b6102aa6102f03660046149e5565b61091c565b600e546102cc9073ffffffffffffffffffffffffffffffffffffffff1681565b6102aa610979565b6102aa610e89565b6102aa610333366004614971565b61129e565b6102aa610346366004614a1a565b61173c565b6102aa610359366004614a57565b61187a565b6007545b6040516102d99190614a90565b61038261037d366004614a9e565b6119cb565b6040516102d99190614b58565b61036260085481565b6103ab6103a6366004614971565b611aba565b6040516102d99190614bfd565b6102aa6103c6366004614971565b611b54565b600554610362565b6102aa6103e1366004614c1e565b612009565b600354610362565b6102aa6103fc366004614c51565b6120d5565b6010546104219073ffffffffffffffffffffffffffffffffffffffff1681565b6040516102d99190614cc7565b6102aa61043c366004614cd5565b6121ba565b600854610362565b6102aa6123c9565b61046461045f366004614a57565b612489565b6040516102d99190614e0f565b60015473ffffffffffffffffffffffffffffffffffffffff166102cc565b6104a261049d366004614971565b6125d3565b6040516102d99190614e28565b600a546102cc9073ffffffffffffffffffffffffffffffffffffffff1681565b600454610362565b61036260095481565b6104f36104ee366004614cd5565b612616565b6040516102d99190614fa5565b6102aa612832565b600c546102cc9073ffffffffffffffffffffffffffffffffffffffff1681565b6102aa610536366004615008565b612f20565b6102aa610549366004614c51565b6132ba565b61036261055c366004614c51565b73ffffffffffffffffffffffffffffffffffffffff1660009081526016602052604090205490565b6102aa610592366004615064565b6137d7565b600d546102cc9073ffffffffffffffffffffffffffffffffffffffff1681565b6102aa6105c5366004614c51565b6139b2565b600f546102cc9073ffffffffffffffffffffffffffffffffffffffff1681565b600e5473ffffffffffffffffffffffffffffffffffffffff163314610644576040517f08c379a000000000000000000000000000000000000000000000000000000000815260040161063b906150dc565b60405180910390fd5b60046014600083600281111561065c5761065c614b69565b600281111561066d5761066d614b69565b815260208101919091526040016000206002015460ff16600581111561069557610695614b69565b146106cc576040517f08c379a000000000000000000000000000000000000000000000000000000000815260040161063b9061511e565b6000601360008360028111156106e4576106e4614b69565b60028111156106f5576106f5614b69565b815260200190815260200160002060006005548152602001908152602001600020905060006014600084600281111561073057610730614b69565b600281111561074157610741614b69565b81526020019081526020016000209050600080600090505b60085481101561085a576107e284600501828154811061077b5761077b61512e565b60009182526020909120015460048601805473ffffffffffffffffffffffffffffffffffffffff90921691849081106107b6576107b661512e565b60009182526020909120015460105473ffffffffffffffffffffffffffffffffffffffff169190613ade565b8360040181815481106107f7576107f761512e565b9060005260206000200154836001016000828254610815919061518c565b9091555050600484018054829081106108305761083061512e565b90600052602060002001548261084691906151a3565b915080610852816151bb565b915050610759565b5060006002836001015461086e9190615223565b600c5460105491925061089b9173ffffffffffffffffffffffffffffffffffffffff908116911683613ade565b808360010160008282546108af919061518c565b909155506108c09050856001613b84565b600780549060006108d0836151bb565b91905055507fef99a204a94c30b225058df07e102a2bb1ee4c08995f4a39eccf82e79e4731f98585600501844260405161090d9493929190615294565b60405180910390a15050505050565b600f5473ffffffffffffffffffffffffffffffffffffffff16331461096d576040517f08c379a000000000000000000000000000000000000000000000000000000000815260040161063b906150dc565b61097681613c00565b50565b600e5473ffffffffffffffffffffffffffffffffffffffff1633146109ca576040517f08c379a000000000000000000000000000000000000000000000000000000000815260040161063b906150dc565b600754600314610a06576040517f08c379a000000000000000000000000000000000000000000000000000000000815260040161063b90615302565b60058054906000610a16836151bb565b9091555050600f5474010000000000000000000000000000000000000000900460ff1615610ac157600f60009054906101000a900473ffffffffffffffffffffffffffffffffffffffff1673ffffffffffffffffffffffffffffffffffffffff1663673a7e286040518163ffffffff1660e01b8152600401600060405180830381600087803b158015610aa857600080fd5b505af1158015610abc573d6000803e3d6000fd5b505050505b426002819055610af2907f0000000000000000000000000000000000000000000000000000000000000000906151a3565b6003819055610b22907f0000000000000000000000000000000000000000000000000000000000000000906151a3565b60045560408051606081018252600080825260016020830152600292820192909252905b6003811015610e3c576000828260038110610b6357610b6361512e565b60200201519050600060136000836002811115610b8257610b82614b69565b6002811115610b9357610b93614b69565b815260200190815260200160002060006005548152602001908152602001600020905060006001600554610bc7919061518c565b9050600060136000856002811115610be157610be1614b69565b6002811115610bf257610bf2614b69565b81526020019081526020016000206000838152602001908152602001600020604051806101400160405290816000820154815260200160018201548152602001600282015481526020016003820154815260200160048201805480602002602001604051908101604052809291908181526020018280548015610c9457602002820191906000526020600020905b815481526020019060010190808311610c80575b5050505050815260200160058201805480602002602001604051908101604052809291908181526020018280548015610d0357602002820191906000526020600020905b815473ffffffffffffffffffffffffffffffffffffffff168152600190910190602001808311610cd8575b5050505050815260200160068201805480602002602001604051908101604052809291908181526020018280548015610d5b57602002820191906000526020600020905b815481526020019060010190808311610d47575b50505091835250506007828101546020830152600880840154604084015260099093015460ff1615156060909201919091526005548655600254908601556003549085015561012081015190915015610dc35760408101516002840155602081015160018401555b610dce846002613b84565b610dd784613c9e565b600060186000866002811115610def57610def614b69565b6002811115610e0057610e00614b69565b815260200190815260200160002060006101000a81548160ff021916908315150217905550505050508080610e34906151bb565b915050610b46565b5060006007556005546003546004546040517fb15bf0ec96989b8686c290ff167b6855edaa07d0e6b8458f665125e64819068492610e7e929091600290615312565b60405180910390a250565b600b5473ffffffffffffffffffffffffffffffffffffffff163314610eda576040517f08c379a000000000000000000000000000000000000000000000000000000000815260040161063b9061536c565b600080805260146020908152604080516060810182527f4f26c3876aa9f4b92579780beea1161a61f87ebf1ec6ee865b299e447ecba99c805482527f4f26c3876aa9f4b92579780beea1161a61f87ebf1ec6ee865b299e447ecba99d54938201939093527f4f26c3876aa9f4b92579780beea1161a61f87ebf1ec6ee865b299e447ecba99e548493919283019060ff166005811115610f7b57610f7b614b69565b6005811115610f8c57610f8c614b69565b9052509050600581604001516005811115610fa957610fa9614b69565b14610fe0576040517f08c379a000000000000000000000000000000000000000000000000000000000815260040161063b906153d6565b6001600081815260146020908152604080516060810182527fb6c61a840592cc84133e4b25bd509abf4659307c57b160799b38490a5aa48f2c805482527fb6c61a840592cc84133e4b25bd509abf4659307c57b160799b38490a5aa48f2d54938201939093527fb6c61a840592cc84133e4b25bd509abf4659307c57b160799b38490a5aa48f2e5490929183019060ff16600581111561108257611082614b69565b600581111561109357611093614b69565b90525090506005816040015160058111156110b0576110b0614b69565b146110e7576040517f08c379a000000000000000000000000000000000000000000000000000000000815260040161063b906153d6565b6002600081815260146020908152604080516060810182527fa1930aa930426c54c34daad2b9ada7c5d0ef0c96078a3c5bb79f6fa6602c4a7a805482527fa1930aa930426c54c34daad2b9ada7c5d0ef0c96078a3c5bb79f6fa6602c4a7b54938201939093527fa1930aa930426c54c34daad2b9ada7c5d0ef0c96078a3c5bb79f6fa6602c4a7c5490929183019060ff16600581111561118957611189614b69565b600581111561119a5761119a614b69565b90525090506005816040015160058111156111b7576111b7614b69565b146111ee576040517f08c379a000000000000000000000000000000000000000000000000000000000815260040161063b906153d6565b60408051606081018252600080825260016020830152600292820192909252905b600381101561125157600082826003811061122c5761122c61512e565b6020020151905061123e816001613b84565b5080611249816151bb565b91505061120f565b5060036007556005546040517f3e3fbe6edaa33edaf5f25f93631b45be609c9603eebf7d4d0976f0dec5dfdc049161128d914290600190615312565b60405180910390a150505050505050565b600e5473ffffffffffffffffffffffffffffffffffffffff1633146112ef576040517f08c379a000000000000000000000000000000000000000000000000000000000815260040161063b906150dc565b60036014600083600281111561130757611307614b69565b600281111561131857611318614b69565b815260208101919091526040016000206002015460ff16600581111561134057611340614b69565b14611377576040517f08c379a000000000000000000000000000000000000000000000000000000000815260040161063b9061511e565b60006013600083600281111561138f5761138f614b69565b60028111156113a0576113a0614b69565b8152602080820192909252604090810160009081206005548252909252808220600d5491517fa6757ddd00000000000000000000000000000000000000000000000000000000815290935073ffffffffffffffffffffffffffffffffffffffff9091169063a6757ddd906114189086906004016153e6565b60006040518083038186803b15801561143057600080fd5b505afa158015611444573d6000803e3d6000fd5b505050506040513d6000823e601f3d9081017fffffffffffffffffffffffffffffffffffffffffffffffffffffffffffffffe016820160405261148a9190810190615536565b905060008260010154601760008660028111156114a9576114a9614b69565b60028111156114ba576114ba614b69565b8152602001908152602001600020546114d3919061518c565b9050600060085467ffffffffffffffff8111156114f2576114f26153f4565b60405190808252806020026020018201604052801561151b578160200160208202803683370190505b509050600060085467ffffffffffffffff81111561153b5761153b6153f4565b604051908082528060200260200182016040528015611564578160200160208202803683370190505b50905060005b6008548110156116bf5760008582815181106115885761158861512e565b60200260200101518561159b91906151a3565b9050601160008960028111156115b3576115b3614b69565b60028111156115c4576115c4614b69565b815260208082019290925260409081016000908120848252909252902054845163ffffffff909116908590849081106115ff576115ff61512e565b6020026020010181815250506011600089600281111561162157611621614b69565b600281111561163257611632614b69565b8152602001908152602001600020600082815260200190815260200160002060000160049054906101000a900473ffffffffffffffffffffffffffffffffffffffff168383815181106116875761168761512e565b73ffffffffffffffffffffffffffffffffffffffff9092166020928302919091019091015250806116b7816151bb565b91505061156a565b5080516116d5906005870190602084019061479b565b5081516116eb9060068701906020850190614825565b506116f7866004613b84565b6005547f79aa71bc7ac44ef46960b6e440cf08b63d9c1db4d3af7374da8c13371d369b1087600460405161172c929190615571565b60405180910390a2505050505050565b600b5473ffffffffffffffffffffffffffffffffffffffff16331461178d576040517f08c379a000000000000000000000000000000000000000000000000000000000815260040161063b9061536c565b73ffffffffffffffffffffffffffffffffffffffff82166117da576040517f08c379a000000000000000000000000000000000000000000000000000000000815260040161063b906155be565b73ffffffffffffffffffffffffffffffffffffffff8116611827576040517f08c379a000000000000000000000000000000000000000000000000000000000815260040161063b906155be565b600e805473ffffffffffffffffffffffffffffffffffffffff9384167fffffffffffffffffffffffff000000000000000000000000000000000000000091821617909155600d8054929093169116179055565b600b5473ffffffffffffffffffffffffffffffffffffffff1633146118cb576040517f08c379a000000000000000000000000000000000000000000000000000000000815260040161063b9061536c565b73ffffffffffffffffffffffffffffffffffffffff8216611918576040517f08c379a000000000000000000000000000000000000000000000000000000000815260040161063b906155be565b60105473ffffffffffffffffffffffffffffffffffffffff8381169116141561196d576040517f08c379a000000000000000000000000000000000000000000000000000000000815260040161063b90615600565b61198e73ffffffffffffffffffffffffffffffffffffffff83163383613ade565b7f74545154aac348a3eac92596bd1971957ca94795f4e954ec5f613b55fab7812982826040516119bf929190615610565b60405180910390a15050565b73ffffffffffffffffffffffffffffffffffffffff82166000908152601260205260408120606091856002811115611a0557611a05614b69565b6002811115611a1657611a16614b69565b81526020019081526020016000206000838152602001908152602001600020805480602002602001604051908101604052809291908181526020018280548015611aab57602002820191906000526020600020906000905b82829054906101000a900463ffffffff1663ffffffff1681526020019060040190602082600301049283019260010382029150808411611a6e5790505b505050505090505b9392505050565b611ac2614860565b60146000836002811115611ad857611ad8614b69565b6002811115611ae957611ae9614b69565b815260200190815260200160002060405180606001604052908160008201548152602001600182015481526020016002820160009054906101000a900460ff166005811115611b3a57611b3a614b69565b6005811115611b4b57611b4b614b69565b90525092915050565b600e5473ffffffffffffffffffffffffffffffffffffffff163314611ba5576040517f08c379a000000000000000000000000000000000000000000000000000000000815260040161063b906150dc565b600260146000836002811115611bbd57611bbd614b69565b6002811115611bce57611bce614b69565b815260208101919091526040016000206002015460ff166005811115611bf657611bf6614b69565b14611c2d576040517f08c379a000000000000000000000000000000000000000000000000000000000815260040161063b9061511e565b600060136000836002811115611c4557611c45614b69565b6002811115611c5657611c56614b69565b815260200190815260200160002060006005548152602001908152602001600020905060006005546001611c8a91906151a3565b6009830180547fffffffffffffffffffffffffffffffffffffffffffffffffffffffffffffff0016600190811790915583015490915015611fa4576000826001015460176000866002811115611ce257611ce2614b69565b6002811115611cf357611cf3614b69565b815260200190815260200160002054611d0c919061518c565b905060015b83600101548111611fa1576000611d2882846151a3565b9050600060116000886002811115611d4257611d42614b69565b6002811115611d5357611d53614b69565b815260208082019290925260409081016000908120858252835281812082518084018452905463ffffffff81168252640100000000900473ffffffffffffffffffffffffffffffffffffffff1681850181905282526012909352908120919250886002811115611dc557611dc5614b69565b6002811115611dd657611dd6614b69565b8152602080820192909252604090810160009081208882528352908120835181546001810183559183529282206008820401805460079092166004026101000a63ffffffff81810219909316929094169390930217909155601790886002811115611e4357611e43614b69565b6002811115611e5457611e54614b69565b81526020019081526020016000206000815480929190611e73906151bb565b909155505060408051808201909152815163ffffffff16815260208083015173ffffffffffffffffffffffffffffffffffffffff169082015260116000896002811115611ec257611ec2614b69565b6002811115611ed357611ed3614b69565b81526020019081526020016000206000601760008b6002811115611ef957611ef9614b69565b6002811115611f0a57611f0a614b69565b815260208082019290925260409081016000908120548452838301949094529190910190912082518154939092015173ffffffffffffffffffffffffffffffffffffffff16640100000000027fffffffffffffffff00000000000000000000000000000000000000000000000090931663ffffffff9092169190911791909117905550819050611f99816151bb565b915050611d11565b50505b611faf836001613b84565b60078054906000611fbf836151bb565b91905055506005547f9402dc198f9e47021ec8067c6178ccac38ba2ecc03fadbb23b6c5c5299304326848460010154604051611ffc92919061562b565b60405180910390a2505050565b600d5473ffffffffffffffffffffffffffffffffffffffff16331461205a576040517f08c379a000000000000000000000000000000000000000000000000000000000815260040161063b9061566b565b801561206b5761206b826003613b84565b60016018600084600281111561208357612083614b69565b600281111561209457612094614b69565b8152602081019190915260400160002080547fffffffffffffffffffffffffffffffffffffffffffffffffffffffffffffff00169115159190911790555050565b600b5473ffffffffffffffffffffffffffffffffffffffff163314612126576040517f08c379a000000000000000000000000000000000000000000000000000000000815260040161063b9061536c565b73ffffffffffffffffffffffffffffffffffffffff8116612173576040517f08c379a000000000000000000000000000000000000000000000000000000000815260040161063b906155be565b600f80547fffffffffffffffffffffffff00000000000000000000000000000000000000001673ffffffffffffffffffffffffffffffffffffffff92909216919091179055565b60015473ffffffffffffffffffffffffffffffffffffffff163314806121f75750600a5473ffffffffffffffffffffffffffffffffffffffff1633145b61222d576040517f08c379a000000000000000000000000000000000000000000000000000000000815260040161063b906156ad565b60026014600084600281111561224557612245614b69565b600281111561225657612256614b69565b815260208101919091526040016000206002015460ff16600581111561227e5761227e614b69565b146122b5576040517f08c379a000000000000000000000000000000000000000000000000000000000815260040161063b906156ef565b6010546122da9073ffffffffffffffffffffffffffffffffffffffff16333084613db0565b80601360008460028111156122f1576122f1614b69565b600281111561230257612302614b69565b815260200190815260200160002060006005548152602001908152602001600020600301600082825461233591906151a3565b909155508190506014600084600281111561235257612352614b69565b600281111561236357612363614b69565b8152602001908152602001600020600101600082825461238391906151a3565b90915550506005546040517fa1c157de391a92665d22914b5834a188e801f4fbc466639ddc0063abff1df3bb906123bd908590859061562b565b60405180910390a25050565b60015473ffffffffffffffffffffffffffffffffffffffff16331461241a576040517f08c379a000000000000000000000000000000000000000000000000000000000815260040161063b9061572f565b60015460405160009173ffffffffffffffffffffffffffffffffffffffff16907f8be0079c531659141344cd1fd0a4f28419497f9722a3daafe3b4186f6b6457e0908390a3600180547fffffffffffffffffffffffff0000000000000000000000000000000000000000169055565b612491614891565b73ffffffffffffffffffffffffffffffffffffffff831660009081526016602052604090208054839081106124c8576124c861512e565b90600052602060002090600502016040518060a001604052908160008201548152602001600182015481526020016002820160009054906101000a900460ff16600281111561251957612519614b69565b600281111561252a5761252a614b69565b8152602001600382015481526020016004820180546125489061576e565b80601f01602080910402602001604051908101604052809291908181526020018280546125749061576e565b80156125c15780601f10612596576101008083540402835291602001916125c1565b820191906000526020600020905b8154815290600101906020018083116125a457829003601f168201915b50505050508152505090505b92915050565b6000601860008360028111156125eb576125eb614b69565b60028111156125fc576125fc614b69565b815260208101919091526040016000205460ff1692915050565b61266e6040518061014001604052806000815260200160008152602001600081526020016000815260200160608152602001606081526020016060815260200160008152602001600081526020016000151581525090565b6013600084600281111561268457612684614b69565b600281111561269557612695614b69565b8152602001908152602001600020600083815260200190815260200160002060405180610140016040529081600082015481526020016001820154815260200160028201548152602001600382015481526020016004820180548060200260200160405190810160405280929190818152602001828054801561273757602002820191906000526020600020905b815481526020019060010190808311612723575b50505050508152602001600582018054806020026020016040519081016040528092919081815260200182805480156127a657602002820191906000526020600020905b815473ffffffffffffffffffffffffffffffffffffffff16815260019091019060200180831161277b575b50505050508152602001600682018054806020026020016040519081016040528092919081815260200182805480156127fe57602002820191906000526020600020905b8154815260200190600101908083116127ea575b5050509183525050600782015460208201526008820154604082015260099091015460ff1615156060909101529392505050565b600b5473ffffffffffffffffffffffffffffffffffffffff163314612883576040517f08c379a000000000000000000000000000000000000000000000000000000000815260040161063b9061536c565b60055460009081527f8fa6efc3be94b5b348b21fea823fe8d100408cee9b7f90524494500445d8ff6c6020908152604080832081516101408101835281548152600182015481850152600282015481840152600382015460608201526004820180548451818702810187019095528085528695929460808601939092919083018282801561293057602002820191906000526020600020905b81548152602001906001019080831161291c575b505050505081526020016005820180548060200260200160405190810160405280929190818152602001828054801561299f57602002820191906000526020600020905b815473ffffffffffffffffffffffffffffffffffffffff168152600190910190602001808311612974575b50505050508152602001600682018054806020026020016040519081016040528092919081815260200182805480156129f757602002820191906000526020600020905b8154815260200190600101908083116129e3575b505050918352505060078201546020808301919091526008830154604083015260099092015460ff161515606090910152810151909150600a1180612a40575060058160400151105b612a76576040517f08c379a000000000000000000000000000000000000000000000000000000000815260040161063b906157f3565b60055460009081527f4155c2f711f2cdd34f8262ab8fb9b7020a700fe7b6948222152f7670d1fdf34d6020908152604080832081516101408101835281548152600182810154828601526002830154828501526003830154606083015260048301805485518188028101880190965280865291969592946080860193909290830182828015612b2457602002820191906000526020600020905b815481526020019060010190808311612b10575b5050505050815260200160058201805480602002602001604051908101604052809291908181526020018280548015612b9357602002820191906000526020600020905b815473ffffffffffffffffffffffffffffffffffffffff168152600190910190602001808311612b68575b5050505050815260200160068201805480602002602001604051908101604052809291908181526020018280548015612beb57602002820191906000526020600020905b815481526020019060010190808311612bd7575b505050918352505060078201546020808301919091526008830154604083015260099092015460ff161515606090910152810151909150600a1180612c34575060058160400151105b612c6a576040517f08c379a000000000000000000000000000000000000000000000000000000000815260040161063b906157f3565b60055460009081527f0b9d2c0c271bb30544eb78c59bdaebdae2728e5f65814c07768a0abe90ed19236020908152604080832081516101408101835281548152600182015481850152600282810154828501526003830154606083015260048301805485518188028101880190965280865291969592946080860193909290830182828015612d1857602002820191906000526020600020905b815481526020019060010190808311612d04575b5050505050815260200160058201805480602002602001604051908101604052809291908181526020018280548015612d8757602002820191906000526020600020905b815473ffffffffffffffffffffffffffffffffffffffff168152600190910190602001808311612d5c575b5050505050815260200160068201805480602002602001604051908101604052809291908181526020018280548015612ddf57602002820191906000526020600020905b815481526020019060010190808311612dcb575b505050918352505060078201546020808301919091526008830154604083015260099092015460ff161515606090910152810151909150600a1180612e28575060058160400151105b612e5e576040517f08c379a000000000000000000000000000000000000000000000000000000000815260040161063b906157f3565b60408051606081018252600080825260016020830152600292820192909252905b6003811015612eda57612ea7828260038110612e9d57612e9d61512e565b6020020151613dd7565b612ec8828260038110612ebc57612ebc61512e565b60200201516005613b84565b80612ed2816151bb565b915050612e7f565b50600060078190556003819055600455600580546040517f38960c0800e981febc869f33d307d21683c7a1f85845bfe665071f160292c0809261128d9291429190615312565b333b15612f59576040517f08c379a000000000000000000000000000000000000000000000000000000000815260040161063b90615835565b333214612f92576040517f08c379a000000000000000000000000000000000000000000000000000000000815260040161063b90615877565b60026000541415612fcf576040517f08c379a000000000000000000000000000000000000000000000000000000000815260040161063b906158b9565b60026000558061300b576040517f08c379a000000000000000000000000000000000000000000000000000000000815260040161063b906158fb565b600954811115613047576040517f08c379a000000000000000000000000000000000000000000000000000000000815260040161063b9061593d565b60026014600085600281111561305f5761305f614b69565b600281111561307057613070614b69565b815260208101919091526040016000206002015460ff16600581111561309857613098614b69565b146130cf576040517f08c379a000000000000000000000000000000000000000000000000000000000815260040161063b906156ef565b6000601460008560028111156130e7576130e7614b69565b60028111156130f8576130f8614b69565b8152602001908152602001600020905060006013600086600281111561312057613120614b69565b600281111561313157613131614b69565b81526020808201929092526040908101600090812060055482529092528120835490925061316090859061594d565b6010549091506131889073ffffffffffffffffffffffffffffffffffffffff16333084613db0565b336000908152601260205260408120908760028111156131aa576131aa614b69565b60028111156131bb576131bb614b69565b81526020808201929092526040908101600090812060055482529092529020546131f7576002820180549060006131f1836151bb565b91905055505b8083600101600082825461320b91906151a3565b9091555061321e905086856000336140ed565b61325b868686808060200260200160405190810160405280939291908181526020018383602002808284376000920191909152506142e092505050565b61326486613c9e565b6005547fa7bb92e7914605223bcedd08fc40c8d4db3f6f774788077acbaf16c63342ef2d8787878760010154876004016040516132a5959493929190615a53565b60405180910390a25050600160005550505050565b600b5473ffffffffffffffffffffffffffffffffffffffff16331461330b576040517f08c379a000000000000000000000000000000000000000000000000000000000815260040161063b9061536c565b600080805260146020908152604080516060810182527f4f26c3876aa9f4b92579780beea1161a61f87ebf1ec6ee865b299e447ecba99c805482527f4f26c3876aa9f4b92579780beea1161a61f87ebf1ec6ee865b299e447ecba99d54938201939093527f4f26c3876aa9f4b92579780beea1161a61f87ebf1ec6ee865b299e447ecba99e548493919283019060ff1660058111156133ac576133ac614b69565b60058111156133bd576133bd614b69565b90525090506005816040015160058111156133da576133da614b69565b14613411576040517f08c379a000000000000000000000000000000000000000000000000000000000815260040161063b906153d6565b6001600081815260146020908152604080516060810182527fb6c61a840592cc84133e4b25bd509abf4659307c57b160799b38490a5aa48f2c805482527fb6c61a840592cc84133e4b25bd509abf4659307c57b160799b38490a5aa48f2d54938201939093527fb6c61a840592cc84133e4b25bd509abf4659307c57b160799b38490a5aa48f2e5490929183019060ff1660058111156134b3576134b3614b69565b60058111156134c4576134c4614b69565b90525090506005816040015160058111156134e1576134e1614b69565b14613518576040517f08c379a000000000000000000000000000000000000000000000000000000000815260040161063b906153d6565b6002600081815260146020908152604080516060810182527fa1930aa930426c54c34daad2b9ada7c5d0ef0c96078a3c5bb79f6fa6602c4a7a805482527fa1930aa930426c54c34daad2b9ada7c5d0ef0c96078a3c5bb79f6fa6602c4a7b54938201939093527fa1930aa930426c54c34daad2b9ada7c5d0ef0c96078a3c5bb79f6fa6602c4a7c5490929183019060ff1660058111156135ba576135ba614b69565b60058111156135cb576135cb614b69565b90525090506005816040015160058111156135e8576135e8614b69565b1461361f576040517f08c379a000000000000000000000000000000000000000000000000000000000815260040161063b906153d6565b600f5474010000000000000000000000000000000000000000900460ff1615613674576040517f08c379a000000000000000000000000000000000000000000000000000000000815260040161063b90615ac7565b73ffffffffffffffffffffffffffffffffffffffff87166136c1576040517f08c379a000000000000000000000000000000000000000000000000000000000815260040161063b906155be565b600f546040517ffb3de09800000000000000000000000000000000000000000000000000000000815273ffffffffffffffffffffffffffffffffffffffff9091169063fb3de09890613717908a906004016149bf565b600060405180830381600087803b15801561373157600080fd5b505af1158015613745573d6000803e3d6000fd5b50506010805473ffffffffffffffffffffffffffffffffffffffff909a167fffffffffffffffffffffffff0000000000000000000000000000000000000000909a16999099179098555050600f80547fffffffffffffffffffffff00ffffffffffffffffffffffffffffffffffffffff1674010000000000000000000000000000000000000000179055505050505050565b60015473ffffffffffffffffffffffffffffffffffffffff163314613828576040517f08c379a000000000000000000000000000000000000000000000000000000000815260040161063b9061572f565b73ffffffffffffffffffffffffffffffffffffffff8316613875576040517f08c379a000000000000000000000000000000000000000000000000000000000815260040161063b906155be565b73ffffffffffffffffffffffffffffffffffffffff82166138c2576040517f08c379a000000000000000000000000000000000000000000000000000000000815260040161063b906155be565b73ffffffffffffffffffffffffffffffffffffffff811661390f576040517f08c379a000000000000000000000000000000000000000000000000000000000815260040161063b906155be565b600b805473ffffffffffffffffffffffffffffffffffffffff8086167fffffffffffffffffffffffff000000000000000000000000000000000000000092831617909255600c8054858416908316179055600a8054928416929091169190911790556040517f3e945b7660001d46cfd5e729545f7f0b6c65bdee54066a91c7acad703f1b731e906139a590859085908590615ad7565b60405180910390a1505050565b60015473ffffffffffffffffffffffffffffffffffffffff163314613a03576040517f08c379a000000000000000000000000000000000000000000000000000000000815260040161063b9061572f565b73ffffffffffffffffffffffffffffffffffffffff8116613a50576040517f08c379a000000000000000000000000000000000000000000000000000000000815260040161063b90615b57565b60015460405173ffffffffffffffffffffffffffffffffffffffff8084169216907f8be0079c531659141344cd1fd0a4f28419497f9722a3daafe3b4186f6b6457e090600090a3600180547fffffffffffffffffffffffff00000000000000000000000000000000000000001673ffffffffffffffffffffffffffffffffffffffff92909216919091179055565b613b7f8363a9059cbb60e01b8484604051602401613afd929190615610565b604080517fffffffffffffffffffffffffffffffffffffffffffffffffffffffffffffffe08184030181529190526020810180517bffffffffffffffffffffffffffffffffffffffffffffffffffffffff167fffffffff0000000000000000000000000000000000000000000000000000000090931692909217909152614581565b505050565b8060146000846002811115613b9b57613b9b614b69565b6002811115613bac57613bac614b69565b8152602081019190915260400160002060020180547fffffffffffffffffffffffffffffffffffffffffffffffffffffffffffffff00166001836005811115613bf757613bf7614b69565b02179055505050565b6000805260146020527f4f26c3876aa9f4b92579780beea1161a61f87ebf1ec6ee865b299e447ecba99c819055613c3881600a61594d565b600160005260146020527fb6c61a840592cc84133e4b25bd509abf4659307c57b160799b38490a5aa48f2c55613c6f81606461594d565b600260005260146020527fa1930aa930426c54c34daad2b9ada7c5d0ef0c96078a3c5bb79f6fa6602c4a7a5550565b600060136000836002811115613cb657613cb6614b69565b6002811115613cc757613cc7614b69565b8152602001908152602001600020600060055481526020019081526020016000209050600060146000846002811115613d0257613d02614b69565b6002811115613d1357613d13614b69565b815260200190815260200160002060010154905060006064826019613d38919061594d565b613d429190615223565b905060006064613d5384600f61594d565b613d5d9190615223565b905060006064613d6e85600a61594d565b613d789190615223565b905060405180606001604052808481526020018381526020018281525085600401906003613da7929190614825565b50505050505050565b613dd1846323b872dd60e01b858585604051602401613afd93929190615b67565b50505050565b600060136000836002811115613def57613def614b69565b6002811115613e0057613e00614b69565b815260200190815260200160002060006005548152602001908152602001600020604051806101400160405290816000820154815260200160018201548152602001600282015481526020016003820154815260200160048201805480602002602001604051908101604052809291908181526020018280548015613ea457602002820191906000526020600020905b815481526020019060010190808311613e90575b5050505050815260200160058201805480602002602001604051908101604052809291908181526020018280548015613f1357602002820191906000526020600020905b815473ffffffffffffffffffffffffffffffffffffffff168152600190910190602001808311613ee8575b5050505050815260200160068201805480602002602001604051908101604052809291908181526020018280548015613f6b57602002820191906000526020600020905b815481526020019060010190808311613f57575b5050509183525050600782015460208201526008820154604082015260099091015460ff16151560609091015290506000601481846002811115613fb157613fb1614b69565b6002811115613fc257613fc2614b69565b8152602081019190915260400160002090506000826020015160176000866002811115613ff157613ff1614b69565b600281111561400257614002614b69565b81526020019081526020016000205461401b919061518c565b905060015b836020015181116140e657600061403782846151a3565b905060006011600088600281111561405157614051614b69565b600281111561406257614062614b69565b815260208082019290925260409081016000908120858252909252902054855460105473ffffffffffffffffffffffffffffffffffffffff640100000000909304831693506140b49216908390613ade565b84546001860180546000906140ca90849061518c565b92505081905550505080806140de906151bb565b915050614020565b5050505050565b73ffffffffffffffffffffffffffffffffffffffff811660009081526016602052604090205461411b614891565b8181524260208201526040810186600281111561413a5761413a614b69565b9081600281111561414d5761414d614b69565b90525060608101859052831561419b5760408051808201909152601281527f5469636b65747320526f6c6c6f76657265640000000000000000000000000000602082015260808201526141d5565b60408051808201909152600f81527f5469636b65742050757263686173650000000000000000000000000000000000602082015260808201525b73ffffffffffffffffffffffffffffffffffffffff8316600090815260166020908152604080832080546001818101835591855293839020855160059095020193845591840151838301558301516002808401805486959491927fffffffffffffffffffffffffffffffffffffffffffffffffffffffffffffff009091169190849081111561426657614266614b69565b021790555060608201516003820155608082015180516142909160048401916020909101906148d1565b5050507fc6e7589908499f39a2fead01712c83310d5edf7436fc54ad925870d89e660d37824285898986608001516040516142d096959493929190615b8f565b60405180910390a1505050505050565b6000601360008460028111156142f8576142f8614b69565b600281111561430957614309614b69565b815260200190815260200160002060006005548152602001908152602001600020905060005b8251811015614561576017600085600281111561434e5761434e614b69565b600281111561435f5761435f614b69565b8152602001908152602001600020600081548092919061437e906151bb565b919050555060008382815181106143975761439761512e565b60200260200101519050601260003373ffffffffffffffffffffffffffffffffffffffff1673ffffffffffffffffffffffffffffffffffffffff16815260200190815260200160002060008660028111156143f4576143f4614b69565b600281111561440557614405614b69565b8152602080820192909252604090810160009081206005548252835281812080546001810182559082528382206008820401805463ffffffff80881660046007909516949094026101000a8481029102199091161790558251808401909352825233928201929092529060119087600281111561448457614484614b69565b600281111561449557614495614b69565b81526020019081526020016000206000601760008960028111156144bb576144bb614b69565b60028111156144cc576144cc614b69565b815260208082019290925260409081016000908120548452838301949094529190910190912082518154939092015173ffffffffffffffffffffffffffffffffffffffff16640100000000027fffffffffffffffff00000000000000000000000000000000000000000000000090931663ffffffff909216919091179190911790555080614559816151bb565b91505061432f565b50815181600101600082825461457791906151a3565b9091555050505050565b60006145e3826040518060400160405280602081526020017f5361666545524332303a206c6f772d6c6576656c2063616c6c206661696c65648152508573ffffffffffffffffffffffffffffffffffffffff166146379092919063ffffffff16565b805190915015613b7f57808060200190518101906146019190615bfa565b613b7f576040517f08c379a000000000000000000000000000000000000000000000000000000000815260040161063b90615c73565b6060614646848460008561464e565b949350505050565b60608247101561468a576040517f08c379a000000000000000000000000000000000000000000000000000000000815260040161063b90615cdb565b843b6146c2576040517f08c379a000000000000000000000000000000000000000000000000000000000815260040161063b90615d1d565b6000808673ffffffffffffffffffffffffffffffffffffffff1685876040516146eb9190615d4f565b60006040518083038185875af1925050503d8060008114614728576040519150601f19603f3d011682016040523d82523d6000602084013e61472d565b606091505b509150915061473d828286614748565b979650505050505050565b60608315614757575081611ab3565b8251156147675782518084602001fd5b816040517f08c379a000000000000000000000000000000000000000000000000000000000815260040161063b9190615d59565b828054828255906000526020600020908101928215614815579160200282015b8281111561481557825182547fffffffffffffffffffffffff00000000000000000000000000000000000000001673ffffffffffffffffffffffffffffffffffffffff9091161782556020909201916001909101906147bb565b50614821929150614944565b5090565b828054828255906000526020600020908101928215614815579160200282015b82811115614815578251825591602001919060010190614845565b604051806060016040528060008152602001600081526020016000600581111561488c5761488c614b69565b905290565b6040518060a001604052806000815260200160008152602001600060028111156148bd576148bd614b69565b815260200160008152602001606081525090565b8280546148dd9061576e565b90600052602060002090601f0160209004810192826148ff5760008555614815565b82601f1061491857805160ff1916838001178555614815565b828001600101855582156148155791820182811115614815578251825591602001919060010190614845565b5b808211156148215760008155600101614945565b6003811061097657600080fd5b80356125cd81614959565b60006020828403121561498657614986600080fd5b60006146468484614966565b600073ffffffffffffffffffffffffffffffffffffffff82166125cd565b6149b981614992565b82525050565b602081016125cd82846149b0565b805b811461097657600080fd5b80356125cd816149cd565b6000602082840312156149fa576149fa600080fd5b600061464684846149da565b6149cf81614992565b80356125cd81614a06565b60008060408385031215614a3057614a30600080fd5b6000614a3c8585614a0f565b9250506020614a4d85828601614a0f565b9150509250929050565b60008060408385031215614a6d57614a6d600080fd5b6000614a798585614a0f565b9250506020614a4d858286016149da565b806149b9565b602081016125cd8284614a8a565b600080600060608486031215614ab657614ab6600080fd5b6000614ac28686614966565b9350506020614ad386828701614a0f565b9250506040614ae4868287016149da565b9150509250925092565b63ffffffff81166149b9565b614b048282614aee565b5060200190565b60200190565b6000614b1b825190565b808452602093840193830160005b82811015614b4e578151614b3d8782614afa565b965050602082019150600101614b29565b5093949350505050565b60208082528101611ab38184614b11565b7f4e487b7100000000000000000000000000000000000000000000000000000000600052602160045260246000fd5b6006811061097657610976614b69565b80614bb281614b98565b919050565b60006125cd82614ba8565b6149b981614bb7565b8051614bd78382614a8a565b506020810151614bea6020840182614a8a565b506040810151613b7f6040840182614bc2565b606081016125cd8284614bcb565b8015156149cf565b80356125cd81614c0b565b60008060408385031215614c3457614c34600080fd5b6000614c408585614966565b9250506020614a4d85828601614c13565b600060208284031215614c6657614c66600080fd5b60006146468484614a0f565b60006125cd73ffffffffffffffffffffffffffffffffffffffff83165b73ffffffffffffffffffffffffffffffffffffffff1690565b60006125cd82614c72565b60006125cd82614ca8565b6149b981614cb3565b602081016125cd8284614cbe565b60008060408385031215614ceb57614ceb600080fd5b6000614a798585614966565b6003811061097657610976614b69565b80614bb281614cf7565b60006125cd82614d07565b6149b981614d11565b60005b83811015614d40578181015183820152602001614d28565b83811115613dd15750506000910152565b6000614d5b825190565b808452602084019350614d72818560208601614d25565b601f017fffffffffffffffffffffffffffffffffffffffffffffffffffffffffffffffe0169290920192915050565b805160009060a0840190614db58582614a8a565b506020830151614dc86020860182614a8a565b506040830151614ddb6040860182614d1c565b506060830151614dee6060860182614a8a565b5060808301518482036080860152614e068282614d51565b95945050505050565b60208082528101611ab38184614da1565b8015156149b9565b602081016125cd8284614e20565b614b048282614a8a565b6000614e4a825190565b808452602093840193830160005b82811015614b4e578151614e6c8782614e36565b965050602082019150600101614e58565b614b0482826149b0565b6000614e91825190565b808452602093840193830160005b82811015614b4e578151614eb38782614e7d565b965050602082019150600101614e9f565b8051600090610140840190614ed98582614a8a565b506020830151614eec6020860182614a8a565b506040830151614eff6040860182614a8a565b506060830151614f126060860182614a8a565b5060808301518482036080860152614f2a8282614e40565b91505060a083015184820360a0860152614f448282614e87565b91505060c083015184820360c0860152614f5e8282614e40565b91505060e0830151614f7360e0860182614a8a565b50610100830151614f88610100860182614a8a565b50610120830151614f9d610120860182614e20565b509392505050565b60208082528101611ab38184614ec4565b60008083601f840112614fcb57614fcb600080fd5b50813567ffffffffffffffff811115614fe657614fe6600080fd5b60208301915083602082028301111561500157615001600080fd5b9250929050565b60008060006040848603121561502057615020600080fd5b600061502c8686614966565b935050602084013567ffffffffffffffff81111561504c5761504c600080fd5b61505886828701614fb6565b92509250509250925092565b60008060006060848603121561507c5761507c600080fd5b60006150888686614a0f565b935050602061509986828701614a0f565b9250506040614ae486828701614a0f565b60128152602081017f4e6f74204b65657065722041646472657373000000000000000000000000000081529050614b0b565b602080825281016125cd816150aa565b600e8152602081017f496e76616c696420616374696f6e00000000000000000000000000000000000081529050614b0b565b602080825281016125cd816150ec565b7f4e487b7100000000000000000000000000000000000000000000000000000000600052603260045260246000fd5b7f4e487b7100000000000000000000000000000000000000000000000000000000600052601160045260246000fd5b60008282101561519e5761519e61515d565b500390565b600082198211156151b6576151b661515d565b500190565b60007fffffffffffffffffffffffffffffffffffffffffffffffffffffffffffffffff8214156151ed576151ed61515d565b5060010190565b7f4e487b7100000000000000000000000000000000000000000000000000000000600052601260045260246000fd5b600082615232576152326151f4565b500490565b60006125cd82614c8f565b60006125cd8254615237565b6000615258825490565b80845260008381526020808220950194905b82811015614b4e5761527b82615242565b6152858782614e7d565b9650506001918201910161526a565b608081016152a28287614d1c565b81810360208301526152b4818661524e565b90506152c36040830185614a8a565b614e066060830184614a8a565b60198152602081017f5265626f6f7420636865636b206e6f7420636f6d706c6574650000000000000081529050614b0b565b602080825281016125cd816152d0565b606081016153208286614a8a565b61532d6020830185614a8a565b6146466040830184614bc2565b600c8152602081017f4e6f74206f70657261746f72000000000000000000000000000000000000000081529050614b0b565b602080825281016125cd8161533a565b602f8152602081017f536f7272792063616e20616374697661746520617320726166666c652069732081527f6e6f742064656163746976617465640000000000000000000000000000000000602082015290505b60400190565b602080825281016125cd8161537c565b602081016125cd8284614d1c565b7f4e487b7100000000000000000000000000000000000000000000000000000000600052604160045260246000fd5b7fffffffffffffffffffffffffffffffffffffffffffffffffffffffffffffffe0601f830116810181811067ffffffffffffffff82111715615467576154676153f4565b6040525050565b600061547960405190565b9050614bb28282615423565b600067ffffffffffffffff82111561549f5761549f6153f4565b5060209081020190565b80516125cd816149cd565b60006154c76154c284615485565b61546e565b838152905060208082019084028301858111156154e6576154e6600080fd5b835b81811015615508576154fa87826154a9565b8352602092830192016154e8565b5050509392505050565b600082601f83011261552657615526600080fd5b81516146468482602086016154b4565b60006020828403121561554b5761554b600080fd5b815167ffffffffffffffff81111561556557615565600080fd5b61464684828501615512565b6040810161557f8285614d1c565b611ab36020830184614bc2565b60168152602081017f43616e6e6f74206265207a65726f20616464726573730000000000000000000081529050614b0b565b602080825281016125cd8161558c565b601b8152602081017f43616e6e6f7420626520726166666c65546f6b656e20746f6b656e000000000081529050614b0b565b602080825281016125cd816155ce565b6040810161561e82856149b0565b611ab36020830184614a8a565b6040810161561e8285614d1c565b601b8152602081017f4e6f742072616e646f6d47656e657261746f722041646472657373000000000081529050614b0b565b602080825281016125cd81615639565b60158152602081017f4e6f74206f776e6572206f7220696e6a6563746f72000000000000000000000081529050614b0b565b602080825281016125cd8161567b565b600f8152602081017f526166666c65206e6f74206f70656e000000000000000000000000000000000081529050614b0b565b602080825281016125cd816156bd565b60208082527f4f776e61626c653a2063616c6c6572206973206e6f7420746865206f776e65729101908152614b0b565b602080825281016125cd816156ff565b7f4e487b7100000000000000000000000000000000000000000000000000000000600052602260045260246000fd5b60028104600182168061578257607f821691505b602082108114156157955761579561573f565b50919050565b60278152602081017f536f7272792063616e206e6f74206465616374697661746520612076616c696481527f20726166666c6500000000000000000000000000000000000000000000000000602082015290506153d0565b602080825281016125cd8161579b565b60148152602081017f436f6e7472616374206e6f7420616c6c6f77656400000000000000000000000081529050614b0b565b602080825281016125cd81615803565b601a8152602081017f50726f787920636f6e7472616374206e6f7420616c6c6f77656400000000000081529050614b0b565b602080825281016125cd81615845565b601f8152602081017f5265656e7472616e637947756172643a207265656e7472616e742063616c6c0081529050614b0b565b602080825281016125cd81615887565b60138152602081017f4e6f207469636b6574207370656369666965640000000000000000000000000081529050614b0b565b602080825281016125cd816158c9565b60108152602081017f546f6f206d616e79207469636b6574730000000000000000000000000000000081529050614b0b565b602080825281016125cd8161590b565b6000817fffffffffffffffffffffffffffffffffffffffffffffffffffffffffffffffff04831182151516156159855761598561515d565b500290565b63ffffffff81166149cf565b80356125cd8161598a565b5060006125cd6020830183615996565b8183526020830192506000818060005b858110156159ee576159d382846159a1565b6159dd8882614afa565b9750506020820191506001016159c1565b509495945050505050565b6000816125cd565b60006125cd82546159f9565b6000615a17825490565b80845260008381526020808220950194905b82811015614b4e57615a3a82615a01565b615a448782614e36565b96505060019182019101615a29565b60808101615a618288614d1c565b8181036020830152615a748186886159b1565b9050615a836040830185614a8a565b818103606083015261473d8184615a0d565b601e8152602081017f546f6b656e20686173206265656e206368616e67656420616c7265616479000081529050614b0b565b602080825281016125cd81615a95565b60608101615ae582866149b0565b615af260208301856149b0565b61464660408301846149b0565b60268152602081017f4f776e61626c653a206e6577206f776e657220697320746865207a65726f206181527f6464726573730000000000000000000000000000000000000000000000000000602082015290506153d0565b602080825281016125cd81615aff565b60608101615b7582866149b0565b615b8260208301856149b0565b6146466040830184614a8a565b60c08101615b9d8289614a8a565b615baa6020830188614a8a565b615bb760408301876149b0565b615bc46060830186614d1c565b615bd16080830185614a8a565b81810360a0830152615be38184614d51565b98975050505050505050565b80516125cd81614c0b565b600060208284031215615c0f57615c0f600080fd5b60006146468484615bef565b602a8152602081017f5361666545524332303a204552433230206f7065726174696f6e20646964206e81527f6f74207375636365656400000000000000000000000000000000000000000000602082015290506153d0565b602080825281016125cd81615c1b565b60268152602081017f416464726573733a20696e73756666696369656e742062616c616e636520666f81527f722063616c6c0000000000000000000000000000000000000000000000000000602082015290506153d0565b602080825281016125cd81615c83565b601d8152602081017f416464726573733a2063616c6c20746f206e6f6e2d636f6e747261637400000081529050614b0b565b602080825281016125cd81615ceb565b6000615d37825190565b615d45818560208601614d25565b9290920192915050565b6125cd8183615d2d565b60208082528101611ab38184614d5156fea26469706673582212201d5769f4e13e65af10016b65b46f62fb43411f7702f9ce223db6edae6516f52664736f6c63430008090033",
  "linkReferences": {},
  "deployedLinkReferences": {}
}