{
  "_format": "hh-sol-artifact-1",
  "contractName": "RandomNumberGenerator",
  "sourceName": "contracts/RandomNumberGenerator.sol",
  "abi": [
    {
      "inputs": [
        {
          "internalType": "address",
          "name": "_vrfCoordinator",
          "type": "address"
        },
        {
          "internalType": "address",
          "name": "_linkToken",
          "type": "address"
        },
        {
          "internalType": "uint256",
          "name": "_fee",
          "type": "uint256"
        },
        {
          "internalType": "bytes32",
          "name": "_keyhash",
          "type": "bytes32"
        }
      ],
      "stateMutability": "nonpayable",
      "type": "constructor"
    },
    {
      "anonymous": false,
      "inputs": [
        {
          "indexed": true,
          "internalType": "address",
          "name": "previousOwner",
          "type": "address"
        },
        {
          "indexed": true,
          "internalType": "address",
          "name": "newOwner",
          "type": "address"
        }
      ],
      "name": "OwnershipTransferred",
      "type": "event"
    },
    {
      "inputs": [],
      "name": "checkLinkBalance",
      "outputs": [
        {
          "internalType": "uint256",
          "name": "",
          "type": "uint256"
        }
      ],
      "stateMutability": "view",
      "type": "function"
    },
    {
      "inputs": [],
      "name": "fee",
      "outputs": [
        {
          "internalType": "uint256",
          "name": "",
          "type": "uint256"
        }
      ],
      "stateMutability": "view",
      "type": "function"
    },
    {
      "inputs": [
        {
          "internalType": "enum IPolyLottoRaffle.RaffleCategory",
          "name": "_category",
          "type": "uint8"
        }
      ],
      "name": "getWinningTickets",
      "outputs": [],
      "stateMutability": "nonpayable",
      "type": "function"
    },
    {
      "inputs": [],
      "name": "keyHash",
      "outputs": [
        {
          "internalType": "bytes32",
          "name": "",
          "type": "bytes32"
        }
      ],
      "stateMutability": "view",
      "type": "function"
    },
    {
      "inputs": [],
      "name": "latestRaffleId",
      "outputs": [
        {
          "internalType": "uint256",
          "name": "",
          "type": "uint256"
        }
      ],
      "stateMutability": "view",
      "type": "function"
    },
    {
      "inputs": [],
      "name": "latestRequestId",
      "outputs": [
        {
          "internalType": "bytes32",
          "name": "",
          "type": "bytes32"
        }
      ],
      "stateMutability": "view",
      "type": "function"
    },
    {
      "inputs": [],
      "name": "owner",
      "outputs": [
        {
          "internalType": "address",
          "name": "",
          "type": "address"
        }
      ],
      "stateMutability": "view",
      "type": "function"
    },
    {
      "inputs": [],
      "name": "polylottoKeeper",
      "outputs": [
        {
          "internalType": "address",
          "name": "",
          "type": "address"
        }
      ],
      "stateMutability": "view",
      "type": "function"
    },
    {
      "inputs": [],
      "name": "polylottoRaffle",
      "outputs": [
        {
          "internalType": "address",
          "name": "",
          "type": "address"
        }
      ],
      "stateMutability": "view",
      "type": "function"
    },
    {
      "inputs": [
        {
          "internalType": "bytes32",
          "name": "requestId",
          "type": "bytes32"
        },
        {
          "internalType": "uint256",
          "name": "randomness",
          "type": "uint256"
        }
      ],
      "name": "rawFulfillRandomness",
      "outputs": [],
      "stateMutability": "nonpayable",
      "type": "function"
    },
    {
      "inputs": [],
      "name": "renounceOwnership",
      "outputs": [],
      "stateMutability": "nonpayable",
      "type": "function"
    },
    {
      "inputs": [
        {
          "internalType": "uint256",
          "name": "_fee",
          "type": "uint256"
        }
      ],
      "name": "setFee",
      "outputs": [],
      "stateMutability": "nonpayable",
      "type": "function"
    },
    {
      "inputs": [
        {
          "internalType": "address",
          "name": "_polylottoKeeper",
          "type": "address"
        }
      ],
      "name": "setKeeperAddress",
      "outputs": [],
      "stateMutability": "nonpayable",
      "type": "function"
    },
    {
      "inputs": [
        {
          "internalType": "bytes32",
          "name": "_keyHash",
          "type": "bytes32"
        }
      ],
      "name": "setKeyHash",
      "outputs": [],
      "stateMutability": "nonpayable",
      "type": "function"
    },
    {
      "inputs": [
        {
          "internalType": "address",
          "name": "_polylottoAddress",
          "type": "address"
        }
      ],
      "name": "setPolyLottoAddress",
      "outputs": [],
      "stateMutability": "nonpayable",
      "type": "function"
    },
    {
      "inputs": [
        {
          "internalType": "address",
          "name": "newOwner",
          "type": "address"
        }
      ],
      "name": "transferOwnership",
      "outputs": [],
      "stateMutability": "nonpayable",
      "type": "function"
    },
    {
      "inputs": [],
      "name": "viewLatestRaffleId",
      "outputs": [
        {
          "internalType": "uint256",
          "name": "",
          "type": "uint256"
        }
      ],
      "stateMutability": "view",
      "type": "function"
    },
    {
      "inputs": [
        {
          "internalType": "enum IPolyLottoRaffle.RaffleCategory",
          "name": "_category",
          "type": "uint8"
        }
      ],
      "name": "viewRandomResult",
      "outputs": [
        {
          "internalType": "uint256[]",
          "name": "",
          "type": "uint256[]"
        }
      ],
      "stateMutability": "view",
      "type": "function"
    },
    {
      "inputs": [
        {
          "internalType": "address",
          "name": "_tokenAddress",
          "type": "address"
        },
        {
          "internalType": "uint256",
          "name": "_tokenAmount",
          "type": "uint256"
        }
      ],
      "name": "withdrawTokens",
      "outputs": [],
      "stateMutability": "nonpayable",
      "type": "function"
    }
  ],
  "bytecode": "0x60c06040523480156200001157600080fd5b5060405162001d5d38038062001d5d8339810160408190526200003491620000ea565b6001600160a01b0384811660a0528316608052600180546001600160a01b0319163390811790915560405181906000907f8be0079c531659141344cd1fd0a4f28419497f9722a3daafe3b4186f6b6457e0908290a35060069190915560045550620001589050565b60006001600160a01b0382165b92915050565b620000ba816200009c565b8114620000c657600080fd5b50565b8051620000a981620000af565b80620000ba565b8051620000a981620000d6565b60008060008060808587031215620001055762000105600080fd5b6000620001138787620000c9565b94505060206200012687828801620000c9565b93505060406200013987828801620000dd565b92505060606200014c87828801620000dd565b91505092959194509250565b60805160a051611bca62000193600039600081816104050152610b53015260008181610495015281816106840152610b240152611bca6000f3fe608060405234801561001057600080fd5b50600436106101515760003560e01c806394985ddd116100cd578063a9ca8b0b11610081578063d45f5e6e11610066578063d45f5e6e14610281578063ddca3f431461028a578063f2fde38b1461029357600080fd5b8063a9ca8b0b1461025b578063bc4db42e1461026e57600080fd5b8063a24bf4ff116100b2578063a24bf4ff14610220578063a5dd468614610228578063a6757ddd1461023b57600080fd5b806394985ddd146101fa578063985447101461020d57600080fd5b80633f1628d01161012457806369fe0e2d1161010957806369fe0e2d146101ce578063715018a6146101e15780638da5cb5b146101e957600080fd5b80633f1628d0146101b257806361728f39146101c557600080fd5b806306b091f914610156578063183862881461016b5780631aa46f591461019457806325f08c8a146101aa575b600080fd5b6101696101643660046111a0565b6102a6565b005b60025461017e906001600160a01b031681565b60405161018b91906111ec565b60405180910390f35b61019d60055481565b60405161018b9190611200565b60075461019d565b6101696101c036600461120e565b6102f1565b61019d60045481565b6101696101dc36600461122f565b61034a565b610169610379565b6001546001600160a01b031661017e565b610169610208366004611250565b6103fa565b61016961021b36600461122f565b61044c565b61019d61047b565b61016961023636600461120e565b61051f565b61024e61024936600461128a565b610578565b60405161018b9190611309565b60035461017e906001600160a01b031681565b61016961027c36600461128a565b61064b565b61019d60075481565b61019d60065481565b6101696102a136600461120e565b6107d2565b6001546001600160a01b031633146102d95760405162461bcd60e51b81526004016102d09061134a565b60405180910390fd5b6102ed6001600160a01b038316338361088b565b5050565b6001546001600160a01b0316331461031b5760405162461bcd60e51b81526004016102d09061134a565b6003805473ffffffffffffffffffffffffffffffffffffffff19166001600160a01b0392909216919091179055565b6001546001600160a01b031633146103745760405162461bcd60e51b81526004016102d09061134a565b600655565b6001546001600160a01b031633146103a35760405162461bcd60e51b81526004016102d09061134a565b6001546040516000916001600160a01b0316907f8be0079c531659141344cd1fd0a4f28419497f9722a3daafe3b4186f6b6457e0908390a36001805473ffffffffffffffffffffffffffffffffffffffff19169055565b336001600160a01b037f000000000000000000000000000000000000000000000000000000000000000016146104425760405162461bcd60e51b81526004016102d09061138c565b6102ed8282610913565b6001546001600160a01b031633146104765760405162461bcd60e51b81526004016102d09061134a565b600455565b6040516370a0823160e01b81526000906001600160a01b037f000000000000000000000000000000000000000000000000000000000000000016906370a08231906104ca9030906004016111ec565b60206040518083038186803b1580156104e257600080fd5b505afa1580156104f6573d6000803e3d6000fd5b505050506040513d601f19601f8201168201806040525081019061051a91906113a7565b905090565b6001546001600160a01b031633146105495760405162461bcd60e51b81526004016102d09061134a565b6002805473ffffffffffffffffffffffffffffffffffffffff19166001600160a01b0392909216919091179055565b6060600a6000836002811115610590576105906113c8565b60028111156105a1576105a16113c8565b81526020019081526020016000206000600960008560028111156105c7576105c76113c8565b60028111156105d8576105d86113c8565b815260200190815260200160002054815260200190815260200160002080548060200260200160405190810160405280929190818152602001828054801561063f57602002820191906000526020600020905b81548152602001906001019080831161062b575b50505050509050919050565b60045461066a5760405162461bcd60e51b81526004016102d090611410565b6006546040516370a0823160e01b81526001600160a01b037f000000000000000000000000000000000000000000000000000000000000000016906370a08231906106b99030906004016111ec565b60206040518083038186803b1580156106d157600080fd5b505afa1580156106e5573d6000803e3d6000fd5b505050506040513d601f19601f8201168201806040525081019061070991906113a7565b10156107275760405162461bcd60e51b81526004016102d09061147a565b610735600454600654610b20565b60058190556000908152600860205260409020805482919060ff19166001836002811115610765576107656113c8565b021790555060035460405163015bda2760e61b81526001600160a01b03909116906356f689c09061079d9084906000906004016114c5565b600060405180830381600087803b1580156107b757600080fd5b505af11580156107cb573d6000803e3d6000fd5b5050505050565b6001546001600160a01b031633146107fc5760405162461bcd60e51b81526004016102d09061134a565b6001600160a01b0381166108225760405162461bcd60e51b81526004016102d090611538565b6001546040516001600160a01b038084169216907f8be0079c531659141344cd1fd0a4f28419497f9722a3daafe3b4186f6b6457e090600090a36001805473ffffffffffffffffffffffffffffffffffffffff19166001600160a01b0392909216919091179055565b61090e8363a9059cbb60e01b84846040516024016108aa929190611548565b60408051601f198184030181529190526020810180517bffffffffffffffffffffffffffffffffffffffffffffffffffffffff167fffffffff0000000000000000000000000000000000000000000000000000000090931692909217909152610c68565b505050565b81600554146109345760405162461bcd60e51b81526004016102d090611595565b60055460009081526008602052604081205460ff169060099082600281111561095f5761095f6113c8565b6002811115610970576109706113c8565b8152602001908152602001600020600081548092919061098f906115bb565b919050555061099e8183610cf7565b600a60008360028111156109b4576109b46113c8565b60028111156109c5576109c56113c8565b81526020019081526020016000206000600960008560028111156109eb576109eb6113c8565b60028111156109fc576109fc6113c8565b81526020019081526020016000205481526020019081526020016000209080519060200190610a2c9291906110fc565b50600360009054906101000a90046001600160a01b03166001600160a01b0316635583e81c6040518163ffffffff1660e01b815260040160206040518083038186803b158015610a7b57600080fd5b505afa158015610a8f573d6000803e3d6000fd5b505050506040513d601f19601f82011682018060405250810190610ab391906113a7565b60075560035460405163015bda2760e61b81526001600160a01b03909116906356f689c090610ae99084906001906004016114c5565b600060405180830381600087803b158015610b0357600080fd5b505af1158015610b17573d6000803e3d6000fd5b50505050505050565b60007f00000000000000000000000000000000000000000000000000000000000000006001600160a01b0316634000aea07f000000000000000000000000000000000000000000000000000000000000000084866000604051602001610b879291906115d6565b6040516020818303038152906040526040518463ffffffff1660e01b8152600401610bb493929190611646565b602060405180830381600087803b158015610bce57600080fd5b505af1158015610be2573d6000803e3d6000fd5b505050506040513d601f19601f82011682018060405250810190610c06919061168f565b506000610c288460003060008089815260200190815260200160002054610f84565b600085815260208190526040902054909150610c459060016116b0565b600085815260208190526040902055610c5e8482610fbe565b9150505b92915050565b6000610cbd826040518060400160405280602081526020017f5361666545524332303a206c6f772d6c6576656c2063616c6c206661696c6564815250856001600160a01b0316610ff19092919063ffffffff16565b80519091501561090e5780806020019051810190610cdb919061168f565b61090e5760405162461bcd60e51b81526004016102d090611720565b60606000600360009054906101000a90046001600160a01b03166001600160a01b0316636de28ce96040518163ffffffff1660e01b815260040160206040518083038186803b158015610d4957600080fd5b505afa158015610d5d573d6000803e3d6000fd5b505050506040513d601f19601f82011682018060405250810190610d8191906113a7565b90506000600360009054906101000a90046001600160a01b03166001600160a01b0316635583e81c6040518163ffffffff1660e01b815260040160206040518083038186803b158015610dd357600080fd5b505afa158015610de7573d6000803e3d6000fd5b505050506040513d601f19601f82011682018060405250810190610e0b91906113a7565b6003546040517fbaa2efbb0000000000000000000000000000000000000000000000000000000081529192506000916001600160a01b039091169063baa2efbb90610e5c9089908690600401611730565b60006040518083038186803b158015610e7457600080fd5b505afa158015610e88573d6000803e3d6000fd5b505050506040513d6000823e601f3d908101601f19168201604052610eb091908101906119dd565b905060008367ffffffffffffffff811115610ecd57610ecd61173e565b604051908082528060200260200182016040528015610ef6578160200160208202803683370190505b50905060005b84811015610f795782602001518782604051602001610f1c9291906115d6565b6040516020818303038152906040528051906020012060001c610f3f9190611a2e565b610f4a9060016116b0565b828281518110610f5c57610f5c611a42565b602090810291909101015280610f71816115bb565b915050610efc565b509695505050505050565b600084848484604051602001610f9d9493929190611a58565b60408051601f19818403018152919052805160209091012095945050505050565b60008282604051602001610fd3929190611a8d565b60405160208183030381529060405280519060200120905092915050565b6060611000848460008561100a565b90505b9392505050565b60608247101561102c5760405162461bcd60e51b81526004016102d090611b05565b843b61104a5760405162461bcd60e51b81526004016102d090611b47565b600080866001600160a01b031685876040516110669190611b79565b60006040518083038185875af1925050503d80600081146110a3576040519150601f19603f3d011682016040523d82523d6000602084013e6110a8565b606091505b50915091506110b88282866110c3565b979650505050505050565b606083156110d2575081611003565b8251156110e25782518084602001fd5b8160405162461bcd60e51b81526004016102d09190611b83565b828054828255906000526020600020908101928215611137579160200282015b8281111561113757825182559160200191906001019061111c565b50611143929150611147565b5090565b5b808211156111435760008155600101611148565b60006001600160a01b038216610c62565b6111768161115c565b811461118157600080fd5b50565b8035610c628161116d565b80611176565b8035610c628161118f565b600080604083850312156111b6576111b6600080fd5b60006111c28585611184565b92505060206111d385828601611195565b9150509250929050565b6111e68161115c565b82525050565b60208101610c6282846111dd565b806111e6565b60208101610c6282846111fa565b60006020828403121561122357611223600080fd5b6000610c5e8484611184565b60006020828403121561124457611244600080fd5b6000610c5e8484611195565b6000806040838503121561126657611266600080fd5b60006111c28585611195565b6003811061118157600080fd5b8035610c6281611272565b60006020828403121561129f5761129f600080fd5b6000610c5e848461127f565b6112b582826111fa565b5060200190565b60200190565b60006112cc825190565b808452602093840193830160005b828110156112ff5781516112ee87826112ab565b9650506020820191506001016112da565b5093949350505050565b6020808252810161100381846112c2565b60208082527f4f776e61626c653a2063616c6c6572206973206e6f7420746865206f776e657291019081526112bc565b60208082528101610c628161131a565b601f8152602081017f4f6e6c7920565246436f6f7264696e61746f722063616e2066756c66696c6c00815290506112bc565b60208082528101610c628161135a565b8051610c628161118f565b6000602082840312156113bc576113bc600080fd5b6000610c5e848461139c565b634e487b7160e01b600052602160045260246000fd5b60188152602081017f4d75737420686176652076616c6964206b657920686173680000000000000000815290506112bc565b60208082528101610c62816113de565b602b8152602081017f4e6f7420656e6f756768204c494e4b202d2066696c6c20636f6e74726163742081527f7769746820666175636574000000000000000000000000000000000000000000602082015290505b60400190565b60208082528101610c6281611420565b60038110611181576111816113c8565b806114a48161148a565b919050565b6000610c628261149a565b6111e6816114a9565b8015156111e6565b604081016114d382856114b4565b61100360208301846114bd565b60268152602081017f4f776e61626c653a206e6577206f776e657220697320746865207a65726f206181527f646472657373000000000000000000000000000000000000000000000000000060208201529050611474565b60208082528101610c62816114e0565b6040810161155682856111dd565b61100360208301846111fa565b600f8152602081017f57726f6e67207265717565737449640000000000000000000000000000000000815290506112bc565b60208082528101610c6281611563565b634e487b7160e01b600052601160045260246000fd5b60006000198214156115cf576115cf6115a5565b5060010190565b6040810161155682856111fa565b60005b838110156115ff5781810151838201526020016115e7565b8381111561160e576000848401525b50505050565b600061161e825190565b8084526020840193506116358185602086016115e4565b601f01601f19169290920192915050565b6060810161165482866111dd565b61166160208301856111fa565b81810360408301526116738184611614565b95945050505050565b801515611176565b8051610c628161167c565b6000602082840312156116a4576116a4600080fd5b6000610c5e8484611684565b600082198211156116c3576116c36115a5565b500190565b602a8152602081017f5361666545524332303a204552433230206f7065726174696f6e20646964206e81527f6f7420737563636565640000000000000000000000000000000000000000000060208201529050611474565b60208082528101610c62816116c8565b6040810161155682856114b4565b634e487b7160e01b600052604160045260246000fd5b601f19601f830116810181811067ffffffffffffffff8211171561177a5761177a61173e565b6040525050565b600061178c60405190565b90506114a48282611754565b600067ffffffffffffffff8211156117b2576117b261173e565b5060209081020190565b60006117cf6117ca84611798565b611781565b838152905060208082019084028301858111156117ee576117ee600080fd5b835b8181101561181057611802878261139c565b8352602092830192016117f0565b5050509392505050565b600082601f83011261182e5761182e600080fd5b8151610c5e8482602086016117bc565b8051610c628161116d565b60006118576117ca84611798565b8381529050602080820190840283018581111561187657611876600080fd5b835b818110156118105761188a878261183e565b835260209283019201611878565b600082601f8301126118ac576118ac600080fd5b8151610c5e848260208601611849565b600061012082840312156118d2576118d2600080fd5b6118dd610120611781565b905060006118eb848461139c565b9082015260206118fd8484830161139c565b90820152604061190f8484830161139c565b9082015260606119218484830161139c565b90820152608082015167ffffffffffffffff81111561194257611942600080fd5b61194e8482850161181a565b60808301525060a082015167ffffffffffffffff81111561197157611971600080fd5b61197d84828501611898565b60a08301525060c082015167ffffffffffffffff8111156119a0576119a0600080fd5b6119ac8482850161181a565b60c08301525060e06119c08482850161139c565b908201526101006119d38484830161139c565b9082015292915050565b6000602082840312156119f2576119f2600080fd5b815167ffffffffffffffff811115611a0c57611a0c600080fd5b610c5e848285016118bc565b634e487b7160e01b600052601260045260246000fd5b600082611a3d57611a3d611a18565b500690565b634e487b7160e01b600052603260045260246000fd5b60808101611a6682876111fa565b611a7360208301866111fa565b611a8060408301856111dd565b61167360608301846111fa565b611a9781846111fa565b602001611aa481836111fa565b60200192915050565b60268152602081017f416464726573733a20696e73756666696369656e742062616c616e636520666f81527f722063616c6c000000000000000000000000000000000000000000000000000060208201529050611474565b60208082528101610c6281611aad565b601d8152602081017f416464726573733a2063616c6c20746f206e6f6e2d636f6e7472616374000000815290506112bc565b60208082528101610c6281611b15565b6000611b61825190565b611b6f8185602086016115e4565b9290920192915050565b610c628183611b57565b60208082528101611003818461161456fea2646970667358221220014a7b2cc9a69f059badd4631ead7f14df56d8653ffff5c6f255a7a0df13bd0e64736f6c63430008090033",
  "linkReferences": {},
  "deployedLinkReferences": {}
}